:10000000C01D0010ED010000F5010000F701000027
:10001000F9010000FB010000FD01000076D6FFEFB2
:10002000000000000000000000000000FF010000D0
:10003000010200000000000003020000C9030000EC
:10004000070200000702000007020000070200008C
:10005000070200000702000007020000070200007C
:10006000070200000702000007020000070200006C
:1000700007020000090200000B020000013000002E
:100080000F02000011020000130200001502000020
:10009000BD310000C532000000000000000000007B
:1000A0001B0200001D0200001F02000000000000F3
:1000B000210200002302000025020000F5320000AA
:1000C0002F49072291438D462E492F480A1A06D000
:1000D0000722914381F30988022282F314882B4876
:1000E0002B492C4A00F039F82B482C492C4A00F0B7
:1000F00034F82C482C492D4A00F02FF82C482D4973
:100100002D4A00F02AF82D482D492E4A00F025F8F6
:100110002D482E492E4A00F020F82E482E49002264
:1001200000F026F82D482E49091A082903DB002281
:100130000260043001601F481F49884205D00268F0
:10014000043003B4904703BCF7E700208646EC4632
:1001500000200021234A9047FEE7884207D0521A28
:1001600005D0037801300B700131013AF9D17047A5
:10017000884202D002700130FAE770471A4870478F
:10018000C01D0010C01D0010C01D0010F052000066
:10019000000000102C0000103002000030020000AF
:1001A00040470000F0520000000000100000001066
:1001B0004047000040470000404700004047000023
:1001C0004047000040470000404700004047000013
:1001D000F05200002C000010C0180010C0180010D1
:1001E000C0190010B5110000FFFFFFFF0E480F49B6
:1001F000016065E7FEE7FEE7FEE7FEE7FEE7FEE7F4
:10020000FEE7FEE7FEE7FEE7FEE7FEE7FEE7FEE7C6
:10021000FEE7FEE7FEE7FEE7FEE7FEE7FEE7FEE7B6
:10022000FEE7FEE7FEE7FEE7008004400200000074
:10023000564BF7B5564C984217D006D855498842C8
:100240000CD0554A904206D10BE0544DA8420FD035
:10025000534EB0420FD02060002704E020600027FA
:100260000BE020604127002208E02060412704E0E5
:1002700020604227F7E720602227012272B6494B0F
:100280008E2081005D58002A05D0202085435D50D6
:100290000021196202E00326B5435D50C826C0461E
:1002A000013E002EFBD101251A645D645E645D642D
:1002B000596C01263B483142FAD0002F15D0876097
:1002C0008E27B90045588026B5434550D96801208E
:1002D000344F0142FAD0032500263D6778677E67D8
:1002E00078675F6FF807FCD50DE0026746674767E0
:1002F00046675D6F2B4FED07FBD58E2081007D5843
:10030000802635437D508E218D00002A02D05A5917
:10031000032001E05A59202002435A512568224EF9
:10032000224BB54201D9022105E0214FBD4201D93E
:10033000012100E0002100261E4FD9601E613A68AD
:10034000281C1D49019203F0BBFA019A1B49013890
:10035000030211401943281CFA253960A90003F053
:10036000AFFA174F174B01387860186AC0250102A1
:100370000A0A280610431862BE6007263E60FF2066
:1003800003F0B6F962B62068FEBDC0460048E80139
:10039000040000100024F40000366E010051250214
:1003A000006CDC0200800440FF5962020000014042
:1003B000FF2C310100C0014000093D00FF00FFFF9C
:1003C00010E000E000ED00E0524B53481A6801686D
:1003D000013230B51A60480734D5504C25680135D4
:1003E0002560052D2ED100234D4A2360D269950743
:1003F00000D503230120024200D04340494C256828
:10040000E81AC50707D52360474B02251C6828401A
:10041000013C20181860454B500711D41C6801346A
:100420001C60C72C05D9424D02202B6803432B606A
:1004300001E0132C06D93E4B01241A68224300E048
:1004400000221A600A0763D53A490A6801320A6035
:10045000192A5DD1384C324B00250D60D86F2368C6
:10046000206003401024191C2140344A09D134482B
:1004700005682C43046033481568046864190460F7
:100480000FE00121181C08400BD12D4920250C68D4
:100490002C430C602B4915680C681060641B0C60C1
:1004A00000E0116008211940274A09D1244840255D
:1004B00004682C43046025481568046864190BE03F
:1004C000022119400AD11E48802504682C4304608B
:1004D0001E4815680468641B046000E00121116077
:1004E0001B4A580712D4116801311160272905D918
:1004F0001348022504682C43046001E0032907D94E
:100500000F4B01211A680A431A6001E000231360AF
:1005100030BDC0462C000010340000103C1000100C
:100520000000015040100010501000103810001052
:100530005810001044100010541000104810001003
:100540005C1000104C1000106410001030000010FF
:100550006010001072B6044B0322186802401A6043
:1005600062B680107047C0465010001000B50D4AAA
:100570000D4991230D48CB67D36793678268002AA2
:1005800002D00B4903230B604068002804D0084BBD
:10059000012219684A401A60064B074A0020186079
:1005A000106000BD004004400440044000000150C1
:1005B0004010001050100010581000100A4B9122EB
:1005C000191D9020CA679A679031DA671B18086076
:1005D0001A60064A002111600548064B064A016070
:1005E000116019607047C046004004405C10001064
:1005F0004C100010300000105410001000B50528F9
:100600001ED0072834D004284ED1284A0223136074
:10061000274B10201968014319601868802149048C
:1006200001431960111C186A214A0028FBDA10687E
:10063000204B03401360126A91231004800D31E0B7
:100640001D4A1B4B012111601968202001431960CC
:1006500018688021490401431960111C586A144A22
:100660000028FBDA1068134B03401360526A16E04F
:10067000124A0F4B01211160196880200143196053
:1006800018688021490401431960111CD86A084A7E
:100690000028FBDA1068074B03401360D26A12048B
:1006A000900D90230B6000E0002000BD90400440BE
:1006B00000C0014000FFFFF894400440984004400F
:1006C000014B18687047C0462C00001000B5034B62
:1006D00019681A68521A8242FBD300BD2C00001020
:1006E00008B5642800D9642003046421181A03F0B3
:1006F000E7F80249C043886108BDC04600000140D8
:1007000008B5002802D1034B186801E0FFF790FDFF
:1007100008BDC0460400001070B572B62F4B122100
:100720001A1CFC328E20516584001D5910200122B4
:1007300085432B4E1D519A670433DE678021A02329
:10074000DC050B02E558274904262E400D1CA43574
:10075000E650C86128604866E65808253540E550EF
:10076000C86221488025C458AD001443C4500024F9
:1007700044601E48C6583543C55080231E0184512D
:100780001B48554221238A638460C4600461046766
:10079000446185614267C3634260164A1649166820
:1007A000301C03F08DF8154D15490138FA2300026D
:1007B00008602C609900301C03F082F8114E124A38
:1007C00001387060106AC02301020D0A1806284320
:1007D0001062B4600724346062B670BD00800440CB
:1007E0005F21010000400440000003500000015060
:1007F000000001400400001000093D002C00001022
:1008000000C0014010E000E000ED00E0F0B58FB066
:10081000179F14AC257815AE01AC36780697237176
:10082000169F074B22730391A0710D21201C054ACE
:10083000059766736571019302F0EAFF0FB0F0BD92
:10084000EFBEADDE38000010F0B5AA4D93B02A68B7
:100850000C1C05900992FFF789FEF8200102042381
:100860000020FC262B60F70000912A22011C7F2328
:1008700001F08EFC00972A20002154227F2301F0F2
:1008800087FC1F257F22131C00210095542001F0B6
:100890007FFC9948FFF71AFF201C02F013F8002094
:1008A00002F044F8C822160228220025131C0096E4
:1008B0000A20142101F036FF1921904A2B1C0096C2
:1008C000019502950F2001F057FA5A2002F02EF8F8
:1008D000C823DF002822131C00970A20142101F0EE
:1008E00021FF1921864A2B1C0097019502950F20A4
:1008F00001F042FAB42002F019F819262822131C3C
:1009000000960A20142101F00DFF311C7D4A2B1C9A
:100910000096019502950F2001F02EFA87204000E5
:10092000794F02F003F82822131C0A2014210097A3
:1009300001F0F8FE311C754A2B1C009701950295B9
:100940000F20734E01F018FA281C01F0EFFF202150
:100950000B1C281C7F22009601F008FF40210B1C75
:10096000281C7F22009601F001FF60210B1C281C2F
:100970007F22009601F0FAFE2020021C291C7F2312
:10098000009601F0F3FE4020021C291C7F230096F4
:1009900001F0ECFE6020021C291C7F23009601F070
:1009A000E5FE4020011C2822331C01F0FDFA022044
:1009B000011C584A2B1C00960195029501F0DCF9A8
:1009C00080210802544A009601950295011C0223D9
:1009D00001F0D2F901220495089507950692454D3C
:1009E0002B68042B0DD1FFF7B5FD079D4B492A1845
:1009F0000AA8079203F048F8494900230E680B60E3
:100A000014E04848089E0768474B00250560F11927
:100A10001A68049808911D60444983180AA8089A26
:100A2000049303F031F8424F3E683D60059A01257A
:100A300000920194029505200C210AAA002301F0DE
:100A40009BF93C4F002E3FD002237D6033402FD0D6
:100A5000284E316804290DD10598374A009020218D
:100A6000002301940295052001F086F9FFF7A6FD09
:100A700008220CE0059B314A0093202100230194B9
:100A80000295052001F078F9FFF770FD0422FA25A0
:100A900068003260FFF71AFE214E00213268316093
:100AA0008A42F9D1224B18681A600028F4D10CE070
:100AB0002E420AD005980194009002951621204AF2
:100AC000052001F059F900E07E6002F099FD002850
:100AD00002D002F005FD0690069D002D00D07EE7B5
:100AE0007D60201C01F0EEFE024C099F276013B0D0
:100AF000F0BDC04634000010DC0500004047000097
:100B0000444700004847000019C800004C47000057
:100B1000CF7B0000504700005847000062470000AC
:100B2000581000104C100010300000105D470000FD
:100B30005C10001000000350674700006B47000086
:100B40006F470000F0B589B00790081C0F1C059294
:100B500001F0B8FE059B0224D8000490261C02F088
:100B60004FFD00282FD002F0BBFC051E0A2D05D03A
:100B70000D2803D0092807D1202505E0002E0FD02D
:100B8000049A0226A4180BE007990123009102930E
:100B9000301CEAB20197211C059B01F033F8061CBA
:100BA00001F0D6FE864202D3049EA41902260498C0
:100BB0002118069101F0D2FE069B834203D3381C14
:100BC00001F080FE0224002DC9D1381C01F07AFE0C
:100BD00009B0F0BDF0B585B00291009002F080FC44
:100BE000051C02F07DFC019002F07AFC041C02F06E
:100BF00077FC061C02F074FC8023011C1940071CC2
:100C00009F43039102F066F901992A198B19013A61
:100C1000013B281C01F0D2FE01F0CEFE022F08D0CD
:100C2000042F0BD0012F0DD1B64A00200292009064
:100C300008E0B44A00210291009203E0009D029B6B
:100C400002950093B048039B05680195002B00D0E6
:100C5000B4E0251C75430A2F06D8082F48D27C1E05
:100C6000032C00D97BE016E0182F00D077E099E044
:100C700002F0C6FC002816D002F032FC2E1C071C25
:100C8000083E8024274209D00098013D01F080FEF3
:100C90006408B54204D1002DEAD10CE00298F4E7D3
:100CA000002DEFD107E0984E01983768FA22391AE3
:100CB000D3009942EFD902F003F905B0F0BD02F07C
:100CC0009FFC002838D002F00BFC082F13D118230A
:100CD000034015214B43E022024016029C000722EC
:100CE000104026438300301C184301F051FE013DA3
:100CF000002DE4D1DFE7092F0DD11C230340E024B0
:100D00000440D9002202CE180324F30020400A2612
:100D1000134346430DE0C02101400A2251433823CA
:100D20000340DC004E010722E1188B0010403343E2
:100D30008600181C3043D8E77348019A0168FA23EB
:100D40008E1ADC00A642D3D9B5E702F059FC002880
:100D500008D06E4B013D1F68B84701F019FE002D09
:100D6000F3D1A8E7684F019E3868FA24811BE2009E
:100D70009142F4D99FE702F043FC002815D002F01D
:100D8000AFFBF8242040070202F0AAFBFC21084038
:100D9000C60002F0A5FB04403E43E008304301F0EA
:100DA000F7FD013D002DE6D185E75748019906681A
:100DB000FA22741AD3009C42F4D97CE70399802963
:100DC00000D078E7251C75430A2F07D8082F6AD270
:100DD000013F032F00D9F7E02F1C12E0182F00D09D
:100DE000F2E02EE1002F09D00399214221D0009892
:100DF000013F01F0CDFD6408AF42F3D1013E002E6A
:100E000019D1002F00D156E702F0FAFB002826D0B6
:100E100002F066FB051EAA2D10D102F061FB061E32
:100E200000D148E702F05CFB03903D1C083D8024A4
:100E3000DAE70298DCE7002FF7D13CE73E1C083EDA
:100E40008024254201D0009800E00298013F01F083
:100E50009FFD6408B742D4D0002FF2D12BE72A4C73
:100E6000019A2668FA25B01AEB009842C9D922E700
:100E7000092F35D11C210140CA005318E024032159
:100E800004400A22084050432602DC002643064361
:100E90002C1C301C01F07CFD013C009A601B831867
:100EA000002B2CD1251C002D00D104E702F0A8FB5B
:100EB000002862D002F014FBAA2829D102F010FB0E
:100EC0000090002800D1F6E602F00AFB082FCFD1EF
:100ED000E02618230640034015243602634308E049
:100EE000C02606400A24664338210140CA00760124
:100EF000531807219B0008401E438000C7E7002CC1
:100F0000C7D1CFE7FFFF00002C0000101C0000102D
:100F1000082F0ED11823034015246343E02202401A
:100F200016029900072210400E438300301C18431C
:100F30001FE0092F0DD11C230340E0210140DE00FA
:100F40000A02F4180321E30008400A24134344432F
:100F50000DE0C02202400A235A4338240440E10035
:100F600056010A1993003343072630408400181CA9
:100F7000204301F00DFD6C1E94E7444A019B10686C
:100F8000FA26C41AF1008C4200D994E62C1C89E799
:100F900002F036FB002821D03D4F3E4E3B6898477B
:100FA000B04217D102F09CFA061E00D183E63968E0
:100FB00088472C1C071C381C013C01F0E9FC601B15
:100FC0008219002A03D1251C002DE1D173E6002CE3
:100FD000F1D1F8E701F0DCFC6C1EF4E72B4F019C2B
:100FE0003E68FA20311BC200914200D963E62C1CF6
:100FF000E9E702F005FB00283DD0254A1468A04728
:10100000AA2824D102F06CFA041E00D153E602F0A3
:1010100067FAF8263040070202F062FAFC23184013
:10102000C000074302F05CFA0640F1080F432E1C93
:10103000381C013E01F0ACFC721B1319002B03D1CC
:10104000351C002DD5D136E6002EF1D1F8E7F82475
:101050002040070202F044FA061C02F041FAFC2389
:101060001E40F1000440E208081C1043384301F020
:101070008FFC6E1EE4E7054C019E2368FA27991B3E
:10108000F800814200D916E62E1CD9E72C0000108A
:101090001C000010AAAA0000F0B58BB00991161C24
:1010A000089002F01DFA041C02F01AFA069002F0F1
:1010B00017FA7F250123C209191C05409143681EB8
:1010C00007910F2800D91D1C002E02D102F008FA4A
:1010D000059080273A0294420CD101F039FC059921
:1010E000EB004B4344085808271A01F031FC8742B3
:1010F000A4413C4006998022130299420AD101F092
:101100002DFCAF004008C71B01F028FC874292412C
:1011100017400697264B1F68002E3BD1059A002AE0
:1011200043D002F06DFA002817D002F0D9F9061C5E
:1011300001F00EFC84420CD208990998079B00919B
:1011400001900293201CF2B206992B1C00F05AFD6C
:10115000041C059A013A0592E0E7154EFA2331681E
:10116000DA00C81B9042D9D91FE002F0B9F9061E77
:101170001BD001F0EDFB84420CD208990998079B23
:10118000009101900293201CF2B206992B1C00F0F2
:1011900039FD041C02F034FA0028E6D1044EFA228C
:1011A0003168D300C81B9842F4D90BB0F0BDC046DB
:1011B0002C000010F0B58BB0FFF7AEFA01F0D4FBB5
:1011C0009A4B1A681C1C510701D5FFF7CFF920680C
:1011D000020701D5FFF7F2F99548FFF791FA954D0F
:1011E000954F29680E68BE4227D0944E944F012334
:1011F0007B60301C01F066FB00240A20011C0123E7
:10120000904A00940194029400F0B6FD3220FFF75A
:1012100067FAFA2290007C60FFF758FA96210220C4
:1012200089010094019402940396A0223023FFF7D1
:10123000EDFA201C311CFFF707FB2868436907699A
:10124000181C0693079701F03DFB2E687079FFF795
:1012500047FA2C687C4A20795043FFF751FA2968F5
:10126000886802F093F82868007B01F099FF2F68E6
:10127000787B02F0D9F92D68AC79201CA023DE051B
:101280003469002C0CD18020010173580420002BFC
:10129000F4D06E4D02246A680120002AEED0ECE7FB
:1012A00002F026FA0022089202F01AF90138A22868
:1012B00001D900F095FC02F02DFBA300A700B500BA
:1012C000CF00F7FF23019304930493049304930442
:1012D00093049304930493042B01310134013901E5
:1012E0003E0193049304930493049304930493049E
:1012F0009304930493049304430148014D01530163
:1013000058015D0162016B017001740178017A017D
:10131000870192019B01B001C401D301F5011302C1
:101320003102460257026D0282029302B702D302D3
:10133000E80202031E0333034D035E036B037A03CB
:101340008B039803A703BC03CB03DF03F40303045D
:1013500018042004230427042F0432049304930464
:1013600093049304930493049304930493049304C5
:1013700093049304930493049304930493049304B5
:1013800093049304930493049304930493049304A5
:101390009304930493049304930493049304930495
:1013A0009304930493049304930493049304930485
:1013B0009304930493049304930493049304930475
:1013C0009304930493049304930493049304930465
:1013D00093049304930493044C0439043C04480498
:1013E0009304930493049304930493049304930445
:1013F00093049304930493045404610468047E04E6
:10140000134802F05FF8EBE3089F002F02D132206F
:10141000FFF766F907980699FFF716FA0D4E0220B6
:101420003268C6E30B4C0D202268C2E33400001082
:10143000006CDC0200000010EFBEADDEFFFF00001C
:10144000000003507547000040420F00FC000150AF
:10145000534700002400001002F042F8013806282B
:1014600000D921E702F060FA0422272D32373E002E
:1014700002F038F9071C02F02FF9051C02F026F9DA
:10148000E249061C0C7802F01BF908AB0799F2B28E
:101490001E78069BFFB2C0B20190029103930096A2
:1014A000381C291C231CFFF7B1F9FDE602F018F8DF
:1014B00002F01EF9F8E6D64C2268904701F066FF6C
:1014C000F2E602F00DF801F06BFEEDE602F008F82E
:1014D00002F0AAF8E8E602F003F8CE4D6843FFF701
:1014E0000FF9E1E601F0FCFF051C430701D5FFF70A
:1014F0003DF8290701D5FFF761F8C74A1560D3E623
:10150000C648066801F0ECFFFFF778F8B047CBE675
:1015100001F0E6FF0890FFF7E3F8C5E601F024FAD2
:10152000C2E601F0DDFF01F0D5FBBDE601F0D8FF1A
:1015300001F0B0FCB8E601F0D3FF01F09DFCB3E68A
:1015400001F0CEFF01F0F2F9AEE6B44B1F6801F0F6
:10155000FFF903E0B1490F6801F000FAB8473FE333
:1015600001F0BEFF01F0AAFB9EE6AD4C2268904759
:10157000079099E6AA4E3568A847069094E6079822
:1015800001220699FFF7DEFAA64F26203A6810E3FB
:1015900007980699FFF71EFB86E6A14B186880475F
:1015A00000E0079801F08EF97EE60698FAE701F070
:1015B00097FF051C01F094FF994A041C11688847A5
:1015C000211C021C281C07E001F08AFF061C01F008
:1015D00087FF079A011C301C01F054F964E601F002
:1015E0007FFF071C01F07CFF069A011C381CF3E703
:1015F00001F076FF071C01F073FF061C01F070FF7D
:10160000051C01F06DFF864B041C18688047311CD7
:1016100000902A1C381C231C10E001F061FF061CFE
:1016200001F05EFF071C01F05BFF041C01F058FF96
:101630000799031C0091301C391C221C01F096F8FC
:1016400032E601F04DFF061C01F04AFF071C01F0D5
:1016500047FF041C01F044FF069A031C0092EAE7CE
:101660006F4B19688847099001F03AFF061C01F09A
:1016700037FF041C01F034FF051C002E00D113E6D7
:1016800001F02EFF059001F02BFF071C0998291C83
:101690000090059A201C3B1C01F068F8013E059C57
:1016A0003D1CEAE701F01CFF041C01F019FF051CBA
:1016B00001F016FF061C002C00D1F5E501F010FF2B
:1016C000071C01F00DFF079A05900092281C311CA1
:1016D0003A1C059B01F04AF8013C3D1C059EEAE7D7
:1016E00001F0FEFE041C01F0FBFE051C01F0F8FEFB
:1016F000061C002C00D1D7E501F0F2FE071C01F01A
:10170000EFFE05900698311C00903A1C281C059BA2
:1017100001F02CF8013C3D1C059EEAE701F0E0FEDB
:10172000051C01F0DDFE041C01F0DAFE071C01F0CF
:10173000D7FE3B4A061C13689847E919A7194A1EA9
:101740007B1E009021E001F0CBFE051C01F0C8FEDD
:10175000041C01F0C5FE071C01F0C2FEE9192318A4
:101760004A1E013B07980FE001F0BAFE051C01F08C
:10177000B7FE041C01F0B4FE061C01F0B1FEAB196B
:101780005A1E23180698013B0090281C211C00F0CB
:10179000C9FF89E501F0A4FE051C01F0A1FE041CAF
:1017A00001F09EFE071C01F09BFE1D4B061C1968F4
:1017B0008847EA19A719013A7B1E009021E001F041
:1017C0008FFE051C01F08CFE041C01F089FE061C36
:1017D00001F086FEAA192318013A013B07980FE091
:1017E00001F07EFE051C01F07BFE041C01F078FE7A
:1017F000061C01F075FEAF19231806987A1E013BEE
:101800000090281C211C00F0C3FC4DE504000010D2
:101810001400001040420F003400001018000010A7
:101820001C0000102400001001F05AFE041C01F0FE
:1018300057FE061C01F054FE051C01F051FE071C6A
:1018400001F04EFEE84A0590106880476319059D37
:10185000F1195A1E01904B1E0095201C311C2BE0E3
:1018600001F03EFE051C01F03BFE041C01F038FEB9
:10187000071C01F035FE061C01F032FEEB19A11920
:101880005A1E00904B1E079813E001F029FE051C1C
:1018900001F026FE041C01F023FE071C01F020FECF
:1018A000061C01F01DFEEA19A11900900698013AE4
:1018B0004B1E0190211C281C00F088FDF4E401F06F
:1018C0000FFE041C01F00CFE061C01F009FE051CB5
:1018D00001F006FE071C01F003FEC34A05901068E4
:1018E00080476119059DF3194A1E0190013B00953F
:1018F000201C311C2BE001F0F3FD051C01F0F0FD74
:10190000041C01F0EDFD071C01F0EAFD061C01F0CE
:10191000E7FDE919A31900904A1E013B079813E05F
:1019200001F0DEFD051C01F0DBFD041C01F0D8FD1B
:10193000071C01F0D5FD061C01F0D2FDEA19A31920
:1019400000900698013A013B0190211C281C00F0F0
:101950005BFCA9E401F0C4FD071C01F0C1FD061CFD
:1019600001F0BEFDA04B041C19688847311C031C04
:10197000221C381C18E001F0B3FD061C01F0B0FD7C
:10198000051C01F0ADFD291C021C079B301C0BE05F
:1019900001F0A6FD071C01F0A3FD041C01F0A0FD51
:1019A000069B021C211C381C00F0FEFA7CE401F0AE
:1019B00097FD071C01F094FD061C01F091FD051C2C
:1019C000894802689047311C031C2A1C381C18E007
:1019D00001F086FD051C01F083FD041C01F080FD73
:1019E000211C021C079B281C0BE001F079FD071C41
:1019F00001F076FD061C01F073FD069B021C311CF4
:101A0000381C00F08FFC4FE401F06AFD071C01F068
:101A100067FD061C01F064FD051C01F061FD724BC1
:101A2000041C19688847311C00902A1C381C231C90
:101A30001FE001F055FD071C01F052FD061C01F0EE
:101A40004FFD051C01F04CFD079A031C00920DE0B0
:101A500001F046FD071C01F043FD061C01F040FDAE
:101A6000051C01F03DFD031C06980090381C311C3C
:101A70002A1C00F0C3F917E401F032FD071C01F045
:101A80002FFD061C01F02CFD051C01F029FD564B15
:101A9000041C19688847311C00902A1C381C231C20
:101AA0001FE001F01DFD061C01F01AFD071C01F0EE
:101AB00017FD041C01F014FD079A031C00920DE0B1
:101AC00001F00EFD061C01F00BFD071C01F008FDE6
:101AD000041C01F005FD031C06980090301C391C05
:101AE000221C00F095FDFFF7DFFB01F0F9FC051C5F
:101AF00001F0F6FC011C281C04E00798069901E09F
:101B00000698079900220DE001F0EAFC071C01F09D
:101B1000E7FC011C381C04E00798069901E00698D0
:101B200007990122FFF7B8FAFFF7BEFB2F4D2F6888
:101B300015E02F4C002523682560AB42F9D02B4ED1
:101B40003768FEF707FDB84730E02A4E30690028B5
:101B5000FBD0264C2668FEF7FDFCB0472768244CD6
:101B60000FE0224F244D002628683B682E609847DE
:101B7000224A39681068166088472CE01B48204CC0
:101B8000076800212068216029E01D4C002521689C
:101B90002560A942F9D0154E174F336838683D606B
:101BA0009847164A3168106815608847326820687F
:101BB0002560904714E00F4908690028FBD00B4FBF
:101BC0000D4D002628683B682E6098470B4C3A68FC
:101BD0002068266090470A4C3F6820682660B84716
:101BE00001F0E2FCFFF760FB1C0000102400001075
:101BF00058100010000001504C1000103000001070
:101C00005C100010F0B5151C1C1CDA00574B8BB093
:101C1000071C0E1C1118186806910139814205D263
:101C2000534B711E8A1819688A4201D3471C9AE0E7
:101C30001F2D00D897E0601E0790203D01F04AF963
:101C40004C4AED000799AB180293002938D1341C97
:101C500008340494351C029A3B1C901B415D0833E8
:101C60008022039105933C1C01920398019908423C
:101C700009D0201C291C221C2B1C00F09FFE00F008
:101C80009BFE10980BE0129B002B0AD0201C291CF5
:101C9000221C2B1C00F092FE00F08EFE119800F02A
:101CA00077FE019A05995008013401908C42DCD1ED
:101CB000049C0135A542CED101F002F9069F52E005
:101CC0000298019608300990029E029A357801998F
:101CD0000132631E0895079D58187E1C02928023CE
:101CE0000822751905903E1C0392049308980499E4
:101CF0006A1E08421CD0301C0199059B00F05EFE54
:101D000000F05AFEAE1B6643002E04D0109800F07F
:101D10003FFE013EF8E70399049A013903912B191C
:101D20002E1C039D50080490002D14D01D1CDDE7CF
:101D3000129B002BEFD0301C0199059B00F03EFE5A
:101D400000F03AFEAE1B6643002EE4D0119800F07E
:101D50001FFE013EF8E7019A0299099B10190190B4
:101D60009942B1D1A8E7381C0BB0F0BD6810001043
:101D70007010001085470000F0B50E1C87B0151CD0
:101D80001C1E00D101248023190288420FD1194F53
:101D90003A6850080590281C01F098FEE300434380
:101DA000059A59083F68531ABB4280411840802168
:101DB0000A02964218D1104EE30037685A08790893
:101DC000891AB942B6410E400EE00C9F0D9B0E9948
:101DD000009701930291231C311CFFF713FF054A62
:101DE00001351768B84202D82A78002AEDD107B029
:101DF000F0BDC0466810001070100010F0B58BB038
:101E000007935B43564206917100041C0131301C5C
:101E10005943704352430D1852005B000027049150
:101E200005900295089209930397002E7EDCA51B6E
:101E30005B480195039F06990368019A7D189A42B1
:101E400012D2584F39688D420ED201F043F80198F2
:101E5000291C021C2B1C00F0B1FD00F0ADFD1098F8
:101E600000F096FD01F02CF84D48371903689F42A9
:101E700012D24C4A11688D420ED201F02BF8381C58
:101E8000291C3A1C2B1C00F099FD00F095FD1098C0
:101E900000F07EFD01F014F8414B069D03981A688E
:101EA0002D1A974212D23F49086885420ED201F09E
:101EB00011F8381C291C3A1C2B1C00F07FFD00F087
:101EC0007BFD109800F064FD00F0FAFF344F019A9A
:101ED0003B689A4212D23349086885420ED200F01C
:101EE000F9FF0198291C021C2B1C00F067FD00F073
:101EF00063FD109800F04CFD00F0E2FF029D049B92
:101F00006F009F4205DB099A013699186818049101
:101F10000290059DAF4288DC089B039F0299EA1856
:101F2000013788180397059202907EE7039D0135DB
:101F300007996E1E8E4231D2194F3868844214D2EE
:101F4000184B069A1968AE188E420ED200F0C2FFE6
:101F5000201C311C221C331C00F030FD00F02CFD35
:101F6000109800F015FD00F0ABFF3F68BC42DED2D8
:101F70000C4A06981368461B9E42D8D200F0AAFF6E
:101F8000201C311C221C331C00F018FD00F014FD35
:101F9000109800F0FDFC00F093FFC8E70BB0F0BD17
:101FA0006810001070100010F0B589B00791514210
:101FB00006900293059101920024019AA24200DA50
:101FC000DFE071490698019B079E0A68C51A0395D0
:101FD000371B954212D26D4803689F420ED200F023
:101FE00079FF0398391C021C3B1C00F0E7FC00F051
:101FF000E3FC029800F0CCFC00F062FF6248069D12
:10200000079E019903682A1B0492761A9A4212D2FB
:102010005E4D2A6896420ED200F05CFF0498311C97
:10202000021C331C00F0CAFC00F0C6FC029800F051
:10203000AFFC00F045FF544B019906981A680D1843
:10204000954212D25149086887420ED200F042FFF1
:10205000281C391C2A1C3B1C00F0B0FC00F0ACFC16
:10206000029800F095FC00F02BFF474B069F1A6882
:10207000E719974212D24549086886420ED200F00D
:1020800029FF381C311C3A1C331C00F097FC00F06F
:1020900093FC029800F07CFC00F012FF3A4B079E84
:1020A0001A68A619954212D23849086886420ED29B
:1020B00000F010FF281C311C2A1C331C00F07EFC91
:1020C00000F07AFC029800F063FC00F0F9FE2E4A62
:1020D000019D079B1168ED188F4212D22B480368AF
:1020E0009D420ED200F0F6FE381C291C3A1C2B1C17
:1020F00000F064FC00F060FC029800F049FC00F085
:10210000DFFE214F039A39688A4212D21F480368C2
:102110009E420ED200F0DEFE0398311C021C331CDE
:1021200000F04CFC00F048FC029800F031FC00F09C
:10213000C7FE154E04993768B94212D2134A106887
:1021400085420ED200F0C6FE0498291C021C2B1CEE
:1021500000F034FC00F030FC029800F019FC00F0B4
:10216000AFFE059D2B191E1C01343619059600D5AE
:1021700023E7019F0599013FCA1BD01B01970590DA
:102180001BE709B0F0BDC0466810001070100010C9
:10219000F8B51D1C1A4B141C1A68061C0F1C904223
:1021A00000D3561E174801688F4200D34F1E944239
:1021B00000D3541E8D4200D34D1EA64202D9664064
:1021C00074406640AF4202D96F407D406F4000F0DE
:1021D00081FE2B1C301C221C391C0135013400F0FF
:1021E000EDFBA61B00F0E8FBEB1B5E43002E04D0CA
:1021F000069800F0CDFB013EF8E700F061FEF8BD67
:102200006810001070100010F0B58DB0129C061C04
:102210002718101B151C0390874200D380E062181A
:10222000181B0592069082427AD2139A381C0092AB
:10223000039AFFF7ADFF139B301C009305993A1CDE
:10224000069BFFF7A5FF13992A1C00910398059997
:10225000069B6642FFF79CFF00250796AC425FDBBA
:1022600005981399421B0492009104993B1B181C7A
:1022700008933A1C0B1CFFF78BFF059E1398361B27
:102280007B1B311C0B9300903A1C181C331CFFF76E
:102290007FFF039A139BA118081C099104990093CE
:1022A000039A0B1CFFF774FF039813992A18101C4C
:1022B000331C0A920091039A311CFFF769FF069EB6
:1022C000139BAE19311C00930998331C039AFFF736
:1022D0005FFF0698139A2318191C00920A98039A14
:1022E0000493FFF755FF1399331C00910898311C94
:1022F0003A1CFFF74DFF139E04990B983A1C0B1CD8
:102300000096FFF745FF079B5819021C013552192B
:102310000792A3D40799013C0E1B331B07939DE73B
:102320000DB0F0BDF0B587B00593264B0290039138
:10233000811A1868814242D2234E039C3768A51A3D
:10234000BD423CD251420491151C0024A54236DB0B
:10235000029A039B0598571BE318AE18191C321CF0
:102360000090381CFFF714FF0399059A0B1B381CCB
:10237000191C0092321CFFF70BFF029E039B05986D
:10238000371BEB18A619191C321C0090381CFFF7DC
:10239000FFFE0399059A4B1B0092381C191C321C36
:1023A000FFF7F6FE049F3E19331C01341B190493FA
:1023B000CCD40498013D411B4A1B0492C6E707B0E8
:1023C000F0BDC0466810001070100010F0B58BB062
:1023D000109C8446161C2018121B0D1C1F1C0590F7
:1023E0000692904200D30DE16319391B07930891BF
:1023F0008B4200D306E111986246191C0090089B9D
:102400006046FFF7C5FE119A391C3B1C00920598E7
:10241000069AFFF7BDFE119F301C321C0799089BDE
:102420000097FFF7B5FE119E2B1C291C00960598FE
:10243000069AFFF7ADFE65420023099502930299C3
:102440008C4200DADEE0704D0598079F029E2B68F3
:10245000021B0392BF1B9A4212D26C490868874242
:102460000ED200F037FD0398391C021C3B1C00F013
:10247000A5FA00F0A1FA119800F08AFA00F020FD08
:102480006149029E059A079B0868951B04951E1BCF
:10249000854212D25D4A1568AE420ED200F01AFD96
:1024A0000498311C021C331C00F088FA00F084FAF6
:1024B000119800F06DFA00F003FD5349069B08687F
:1024C000E518854212D2514A13689F420ED200F09D
:1024D00001FD281C391C2A1C3B1C00F06FFA00F07F
:1024E0006BFA119800F054FA00F0EAFC4648029F9B
:1024F000069902687F18974212D2444B19688E429F
:102500000ED200F0E7FC381C311C3A1C331C00F0E2
:1025100055FA00F051FA119800F03AFA00F0D0FCA8
:10252000394A029E0898136836189D4212D23749DC
:10253000086886420ED200F0CDFC281C311C2A1CF3
:10254000331C00F03BFA00F037FA119800F020FA43
:1025500000F0B6FC2C4A089D136865199F4212D200
:102560002A49086885420ED200F0B4FC381C291CA8
:102570003A1C2B1C00F022FA00F01EFA119800F011
:1025800007FA00F09DFC204F039A3B689A4212D252
:102590001E49086886420ED200F09CFC0398311C4C
:1025A000021C331C00F00AFA00F006FA119800F041
:1025B000EFF900F085FC144E049B3768BB4212D241
:1025C000124A11688D420ED200F084FC0498291C36
:1025D000021C2B1C00F0F2F900F0EEF9119800F04B
:1025E000D7F900F06DFC0298099D2E180130029079
:1025F0008019099000D522E7099F013C3B1B1A1B5B
:1026000009921CE70BB0F0BD6810001070100010AC
:10261000F0B58BB00593414B041C0491811A1868E6
:10262000814278D23E49049D059E0B68AF1B9F42B4
:1026300071D2059E554276436F000137281C5243E4
:102640007743684371005200029703903F18089245
:1026500009910026002D26DC04981099631B06932F
:1026600033182A1900910698191C0792FFF790FD5C
:10267000049A1098931B191C0090079A0698FFF76C
:1026800087FD02997B008B4204DB099A013588188B
:1026900002903F18039A9342DCDC089B0136D11864
:1026A00003917F18D6E7751C059E6B1EB34232D28C
:1026B0001A4F3868844214D21949049A0B68AE182C
:1026C0009E420ED200F006FC201C311C221C331C42
:1026D00000F074F900F070F9109800F059F900F06A
:1026E000EFFB3F68BC4214D20D4A04981168461BA8
:1026F0008E420ED200F0EEFB201C311C221C331C3B
:1027000000F05CF900F058F9109800F041F900F081
:10271000D7FB0135C8E70BB0F0BDC046681000100C
:1027200070100010F7B51F1C089B061C151C0093A9
:10273000321C3B1C0C1CFFF72BFD0898391C2A1C73
:102740003B1C0090301CFFF723FD0899281C2A1C15
:102750003B1C0091211CFFF71BFD089A301C0092C6
:10276000211C2A1C231CFFF713FDF7BDF0B589B00F
:10277000051C0C1C02920393904201D0994208D18F
:102780000E98211C0090029A281C039BFFF700FD65
:1027900071E03A4B1A68904200D3551E38480668DB
:1027A000B44200D3741E0299914201D3013A0292BD
:1027B000039FB74201D3013E0396029B039A012077
:1027C0005F1B161B0490002F02DA43427F420493E2
:1027D00001220592002E02DA5042764205907900DD
:1027E00073000691079300F075FB281C211C2A1C1E
:1027F000231C00F0E3F800F0DFF80E9800F0C8F8B2
:10280000B7421ADD079AD71B029885421AD0002FCB
:1028100003DB0599069B6418FF1A049E079AAD19FD
:10282000281C211C231CBF182A1C00F0C7F800F02C
:10283000C3F80E9800F0ACF8E6E7069FBE1B039ABB
:10284000944202D100F03CFB15E0002E03DB04981B
:1028500007992D18761A059B281CE418069F211C41
:102860002A1C231C00F0AAF800F0A6F80E98F6190E
:1028700000F08EF8E3E709B0F0BDC0466810001024
:10288000701000100D4B70B5051C18680C1C161C40
:10289000854212D20A490A6894420ED200F01AFB0D
:1028A000281C211C2A1C231C00F088F800F084F846
:1028B000301C00F06DF800F003FB70BD68100010D4
:1028C0007010001038B5041C00F004FB154B1648BE
:1028D0001A6803680020013A013B011C00F06EF801
:1028E00000F06AF880252D01201C00F051F8201C12
:1028F00000F04EF8201C00F04BF8201C00F048F8C7
:10290000201C00F045F8201C00F042F8201C00F0CC
:102910003FF8013D201C00F03BF8002DE4D100F011
:10292000CFFA38BD681000107010001008B5054BC4
:10293000186000F037F90449044B82B2000C0A60B9
:10294000186008BD6C1000107010001068100010A6
:10295000014B18687047C04668100010014B18689A
:102960007047C0467010001010B5064B0649074866
:1029700000241C6004600C6000F0FCF9201CFFF7D0
:10298000D5FF10BD681000106C1000107010001002
:1029900030B5084B8022FF2412010025010AA40053
:1029A0009D5019518021890099509D50185199507E
:1029B00030BDC0460000025070470000F0B585B041
:1029C0000192764A0390166802918020802100933C
:1029D000734A490100010024B42E64D0FF258727E3
:1029E000AD007F00BE4200D19DE0029F9C460237B1
:1029F00002970223422754509C44145057515A2E98
:102A00002AD08026B30080271350FB005350019E2C
:102A10008127BF1B8026545014505751B7001750C0
:102A20005350039F8126F61B802754501450565153
:102A3000BE0043271650535054501450575116504F
:102A4000535054501450029F5751165053505450E5
:102A500014506446545123E0802380279E00FB00DD
:102A60001650535054501450029F575167461650F9
:102A700053505450145057514327165053505450EC
:102A80001450575116505350039F5450023714504E
:102A9000575116505350019F5450023714505751FC
:102AA0001650535078E0FF239B0042268027802554
:102AB0005450ED001450D650BE0016505550039F90
:102AC0005450BC460227BC4467461450D750165099
:102AD0005550019B02279C46BC44FF276346BF001C
:102AE00054501450D351FF2343279B001650555088
:102AF00054501450D75016505550009B8127BC4657
:102B0000FF1AFF239B0054501450D75016505550B5
:102B1000029B674654501450FF24FF1AA300D7505D
:102B20001650555038E042265450802314505651C8
:102B30008026F6009F0017505650009F81239C4628
:102B4000DB1B8027545014505351BB001350565078
:102B5000029B6746FF1A80235450145057519F0020
:102B60004323175056505450145053511750565039
:102B7000019F6346DB1B8027545014505351BB0008
:102B800013505650039B6746FF1A54501450575128
:102B90008025AC001450565005B0F0BD74100010E4
:102BA00000000250F0B51B2811D004D8092811D01C
:102BB000122808D109E0B42807D087235900884299
:102BC00005D05A2806D0002605E0B42603E0872069
:102BD000460000E05A26364A8024364B1660A5018E
:102BE000002280278020FF245A5179010001A4008F
:102BF000B42E2DD087256F00BE4229D08026B50087
:102C0000422780265A50F6001A501F5102271D50A5
:102C1000BC465E505A501A501F5181271D505E50BD
:102C20005A501A501F5143271D505E505A501A5087
:102C30001F5167461D505E505A501A501F511D506B
:102C40005E505A501A5081221A511D505E5028E091
:102C50004225802780265A50B6001A501D51FD008B
:102C600002271E50BC465D505A501A501F518127F2
:102C70001E505D505A501A501F5143271E505D5030
:102C80005A501A501F5167461E505D505A501A50E4
:102C90001F511E505D505A501A5081221A511E5019
:102CA0005D50802180240801A60198510248F0BDA2
:102CB000741000100000025080008000044A80233D
:102CC0009801002180231150190111507047C0460E
:102CD00000000250F8B5264C8023071C0022980102
:102CE0008025802622506D01360197421CD1FF229B
:102CF00093005021802280206751A751E15081002C
:102D0000D300A15114206351FDF7E0FCFF20802285
:102D100067518100A75193002D276750A35180264A
:102D2000F700675178201BE0FF23980000212C2733
:102D300061518022A151275080279100FF00A151AD
:102D400078206751FDF7C2FC0023FF226351512018
:102D5000A3519100802360509800A0516751142026
:102D6000FDF7B4FC8025802128018A01A050F8BD20
:102D700000000250F0B593B03B494522684600F090
:102D800099FE3A4C802318022158394A394D114393
:102D900021506659802732436251FE0000251420DD
:102DA000A551FDF793FC80235800A0517820FDF732
:102DB0008DFC80218A01A5506F46785D3F26031C5B
:102DC0000135B343802B1CD0C02B2FD0402B30D1EA
:102DD00030402B1C2918994226D06A468026802133
:102DE000D75C090172010026A6506650FF26B60086
:102DF000A7518027BE0066508021CF000133A75025
:102E0000E8E730402B1C2A189A420DD06F468022EA
:102E1000FE5C00211701FF22E151910066508026DF
:102E2000B2000133E251EEE71D1C02E03040FDF735
:102E30004DFC442DC0D98020C6018023FF22802074
:102E40001F01002195008300013EE1516151E351D2
:102E5000E1516151E3518E42EFD180240349A60133
:102E60008F5113B0F0BDC046854E000000000250E7
:102E7000FF0F0000FC3F0000054B802212010021E3
:102E80009950FF2189005850802081009950704747
:102E900000000250094B8022802110B5520100240D
:102EA00009019C505C50FF24A4001851802084002C
:102EB0005C508021C800985010BDC04600000250F0
:102EC00080218023024A0801990150507047C04672
:102ED000000002508023024A0021980111507047DF
:102EE00000000250044B05491A6888541F20013223
:102EF00002401A607047C046B01800108C100010D5
:102F000000B5034BDA689107FBD5986000BDC04659
:102F10000000044038B5084C051C2368C0B298472F
:102F200028042168000E88472A02100E236898475B
:102F3000280E2568A84738BD2400001038B5074C76
:102F4000051C2368C0B2984728042168000E8847F2
:102F50002A02100E2568A84738BDC046240000107C
:102F600038B5054C051C2368C0B298472804000EEC
:102F70002168884738BDC0462400001038B5084C89
:102F8000051C2368000E984728022168000E884718
:102F90002A04100E23689847E8B22568A84738BD70
:102FA0002400001038B5074C051C00022368000EF1
:102FB00098472904080E22689047E8B22568A84778
:102FC00038BDC0462400001038B5054C051C00046F
:102FD0002368000E9847E8B22168884738BDC0468C
:102FE0002400001000B5A023D9050A69002A04D1E5
:102FF000024B59698906FBD5186000BD008000406E
:10300000802010B5C4056368221C2E49802B0ED089
:1030100004D8602B09D0702B4DD106E0A82B19D015
:10302000B82B2CD0902B46D101E0012044E00B6856
:10303000012B0CD1244A8024E305116823489C68A5
:103040004454013149054C0D146004222AE0042047
:1030500090612BE0022008601D4A1E490868136831
:10306000984206D01C49C85C0133A0601F2423404D
:1030700013608022D00504210160082219E00A684B
:10308000022A11D11348124A01681368994206D0E6
:103090001148C15C0133A1601F24234013608023C9
:1030A0000422DB051A6001E00421A16180230822CB
:1030B000D805826105E0002004240823086014601C
:1030C000936110BD7C10001078100010AC1000103F
:1030D00084100010B01800108C10001080220B4BD0
:1030E00010028022D8676C21D005094B8161002134
:1030F000084819635963426802239A4342600430C6
:10310000C26F20218A43C2677047C04604E100E0D5
:103110000040044000800440F8B51B4B1B4D0026C6
:103120001E60FFF7DBFF1A480122AF6F02634263A4
:10313000301CFDF7E5FA391C00F0C2FB154900F020
:10314000BFFB8024E4056061301CFDF7D9FA391C0F
:1031500000F0B6FB0F4900F0B3FB2E1D2061F36FAA
:1031600020210B43F3676F68022007436F600A4D0D
:10317000FF232A688021560008481E400F0244257C
:10318000E66007602560F8BD7C10001000800440F8
:103190000040044000350C001000001000E100E089
:1031A00008B5044B1860044801688A0701D5FFF789
:1031B000B3FF08BD10000010801000100B4A03235D
:1031C000D16910B50B4002D0106A0343136208495D
:1031D0000B68D468640707D5044884680548C4545C
:1031E00001335B055B0DF4E70B6010BD000004408C
:1031F00078100010AC10001080220F4B5003D867DD
:103200000E48082142680A43426043680222934301
:1032100043600B4810211123C1610166416683663A
:103220000848012142688A4342600430C36F064A5D
:103230001A40C2677047C04604E100E00000044045
:103240000040044000800440FFF7FFFF10B5FFF787
:10325000D3FF164B1122DA6102211A66144C0122A7
:103260005A6699666068134B10436060DC6F80207B
:1032700000012043D867104B06241A600F4BC72269
:10328000196104211A6059605C61D8680B4A4007D3
:1032900001D59268F9E703231362546802210C43B5
:1032A0005460074B80225003186010BD004004405A
:1032B00000800440048004409480044000000440E6
:1032C00000E100E000B5084B9A68186811074B0F41
:1032D000022B07D1054B06491A6888540132500564
:1032E000420D1A6000BDC0460080004078100010FA
:1032F000AC1000100F4AA023DB0500B5995804203C
:10330000014399501A690C4B002A0BD10120186017
:103310000A4B5A69D10701D51B68F9E78021890357
:10332000074B04E08021074A8803D0670021196019
:1033300000BDC0461C800000A84004400080004042
:1033400000E100E004E100E00B4B80228021100648
:103350008A03D867DA67094A094B00205860111CB4
:103360001020D061074BA431A83208601060D86FDC
:10337000054A0240DA67704704E100E0004004407B
:103380000080004004800440FFEFFFFF154B70B544
:10339000C218041C1448824222D8144D14492E68C5
:1033A0000C60F2071CD5134B134A9E6F0020156862
:1033B000FDF7A6F9311C00F083FA291C00F080FA11
:1033C000211C000900F07CFA0C4C8023E168060AFD
:1033D0001943C0B2E16066602060E2689A43E2602F
:1033E00070BDC04680DAFFFFC01C0F0080100010C7
:1033F00008000010008004409880044000800040D5
:1034000038B5FFF7A1FF234B23491022A020DA6132
:10341000C405655804229543204B6550E058204967
:103420001043E05065581F4B15436550E0581E4D42
:103430000243E2501D4A112414601D4C00212160FA
:10344000EB6F802042011A431A49EA671A4B0125A3
:103450000D601868FFF79AFF184B03200722D86009
:103460005D609A605D69A906FCD559690120014239
:1034700002D0124D2A68F8E7A023DA051569104931
:10348000002D03D120608024A003086080231A0649
:103490000A6038BD0040044004800000088000003D
:1034A000108000001C80000004800440A440044000
:1034B000A8400440988004400800001000800040AC
:1034C00000E100E010B5041C2078002804D0034B74
:1034D000013419688847F7E710BDC0462400001082
:1034E00000B5064A1368064908688342FBD00549BF
:1034F000C85C01335B05590D116000BDAC180010AC
:1035000078100010AC10001010B5FFF7E9FF0402AE
:10351000FFF7E6FF204310BD38B5FFF7E1FF0504D4
:10352000FFF7DEFF0402FFF7DBFF2C43204338BD2B
:1035300070B5FFF7D5FF0506FFF7D2FF061CFFF7B2
:10354000CFFF041CFFF7CCFF31040D4328432202B8
:10355000104370BD10B5FFF7C3FF041CFFF7C0FF99
:103560000002204310BD38B5FFF7BAFF041CFFF777
:10357000B7FF051CFFF7B4FF2902000408432043EE
:1035800038BD38B5FFF7ACFF051CFFF7A9FF041CD9
:10359000FFF7A6FF240200040443FFF7A1FF2C431A
:1035A0000006204338BD00000F4B70B51868820735
:1035B00018D5FDF785F8061C0C4D0D4C2A682168BE
:1035C0008A420FD0FDF77CF8831BFA2BF4D972B630
:1035D000084A094900201060086020602860074DF3
:1035E000286062B670BDC04680100010B018001090
:1035F00084100010AC180010781000107C1000101F
:10360000074B08481A68036800B59A4205D800209D
:103610009A4203D2802108011218D01A00BDC04678
:1036200078100010AC180010F0B51249124F134E6C
:10363000134D144C144A154B00280CD13860144813
:10364000144F3060144E2F602660144D144C0D60E2
:103650001460144A0CE001203860134F3760134E99
:103660002E60134D2560134C0C6013491160134AF2
:103670001A60F0BD18000010881000101C00001027
:103680000C00001014000010280000102000001092
:10369000093500001935000031350000C92F000040
:1036A000A52F00007D2F0000553500006735000074
:1036B00083350000612F00003D2F0000152F000012
:1036C000014B18687047C04688100010014B1868FD
:1036D0007047C04610000010014B18687047C04684
:1036E00008000010014B18687047C0468010001099
:1036F00038B5041CFFF7F2FCFFF77EFDFFF724FE50
:10370000164B00201860164D1649174A174B0860D3
:10371000186010602860164DFF2C02D12C6884427E
:103720001BD014480068FFF77FFF1349012C0ED00F
:10373000042C06D0114B02222A600B60FFF7ECFC30
:103740000AE02C600E4C0C60FFF780FD04E00D4891
:103750002C600860FFF754FE286838BDAC180010D4
:10376000B018001078100010841000107C100010A9
:10377000801000108810001024000010E52E0000BA
:10378000012F0000E52F000000B532238BB006901A
:10379000079105A8059301A9024A904701980BB02B
:1037A00000BDC046F11FFF1F00B58BB0332306904C
:1037B0000020059308920791FCF7A2FFFA218900E7
:1037C00000F07EF801A90990024A05A890470198E7
:1037D0000BB000BDF11FFF1F00B5031C8BB007200D
:1037E0008B4210D834220020059206930791FCF7F3
:1037F00087FFFA21890000F063F801A90890034BC4
:1038000005A8984701980BB000BDC046F11FFF1FE7
:1038100038B5141C0125002931D072B6E023DB0134
:1038200020CB20C280252D02AB42F9D1F822130112
:103830008900E3184118884202D004C804C3FAE79B
:103840000720011CFFF7A0FF002801D0012515E08B
:103850000720011CFFF7C0FF0028F7D10720011C3B
:10386000FFF792FF0028F1D1211CE0208024C00145
:103870006201FFF799FF051C681E854162B6281C8E
:1038800038BD0000CA1751408B1A17D0C1174A40E3
:1038900004B44840411A48081A0000E0520082422D
:1038A000FCD9002000E05208914200D3891A40411F
:1038B0009A42F8D104BC5040801A704700207047EB
:1038C0000A000FD00300400800E052008242FCD9F9
:1038D000002000E05208934200D39B1A40418A42E4
:1038E000F8D17047002070470A0010D0030040084C
:1038F00000E052008242FCD9002000E052089342CE
:1039000000D39B1A40418A42F8D119007047002029
:103910007047C04603B47146490840004900095E3B
:1039200049008E4403BC704702B4714649084900FF
:10393000095C49008E4402BC7047C04608B5031CB0
:103940000278002A06D041680878002805D00131A5
:10395000596004E04068804701E00123584208BDF7
:1039600070B5041C806800280AD0236862685D1C5A
:10397000AD1A6E1EB5416E423140934200D2C15421
:10398000E368002B06D020686268904202D2081CCF
:10399000211C984721680131216070BDF8B5151CC4
:1039A0004C1E15D4C6B201231F1C2740101C311C0D
:1039B000FFF7D6FF013C0CD20AE0281C311CFFF7B0
:1039C000CFFF013C281C311CFFF7CAFF013CF4D299
:1039D000F8BD002FF1D0281C311CFFF7C1FF013CBE
:1039E000EBD2F5E710B5C30606D42023840500D535
:1039F0003023181CFFF7D2FF10BDC046031C413B0B
:103A0000002019229A4240417047C046031C613B86
:103A1000002019229A4240417047C046031C303BA7
:103A2000002009229A4240417047C04638B5041C24
:103A30000D1CFFF7F3FF002802D0201C303811E0E6
:103A4000201CFFF7E3FF002802D0201C573809E0B4
:103A5000201CFFF7D3FF002802D0201C373801E0DC
:103A600001204042A84201DB0121484238BDC04646
:103A700000B5021C093A0123042A03D9031C203B88
:103A800058424341181C00BD0EB400B586B007AAC9
:103A900008CA05920390002304930548029001A8E8
:103AA000079900F01BF806B008BC03B01847C046E1
:103AB000FFFFFF7F8446002A05D00B78037001309A
:103AC0000131013AF9D160467047C046411C027885
:103AD0000130002AFBD1401A7047C046F0B55F465E
:103AE00056464D464446F0B48BB00C1C059200235C
:103AF00003609946051C63E2252906D0281CFFF7C0
:103B00002FFF341C5CE2261C0BE010239A46202079
:103B1000804680273A029446802740212C1C4D463F
:103B2000A3463078741C031C203BDAB2102A14D848
:103B30009300C84AD3589F460D43E4E73D43E2E76C
:103B400066463543DFE743461D43DCE752461543EF
:103B5000D9E78026B0000543D5E75F46AB463D1C5C
:103B60005A462A2805D0011C30394B4609290DD95F
:103B700017E0059C201D05902368002B03DA5B42AB
:103B800010210A4393467078B41C0AE09E00F31893
:103B90005F0030383B1820780134021C303A092A83
:103BA000F4D9DE43F7173B400293CA462E2825D1AD
:103BB00020782A2805D00134031C303B092B08D972
:103BC00017E00598021D059201688A466078023464
:103BD0000CE04F46BA00D1194E0030383718207823
:103BE0000134031C303B092BF4D9BA465646002E4B
:103BF00004DB80277B005A461A43934668280ED17F
:103C00002078682806D108275846384383466078CC
:103C1000023404E001340426594631438B467828A7
:103C200003D883008C4AD658B7468C4F3E68002E86
:103C300000D1C5E15146009105AA0192291C5A46BE
:103C4000029BB047BCE1281C2521FFF789FEB7E1A4
:103C50000598031D0593067802998A4601277A4242
:103C60009244584651462A1CFFF7BCFE281C311CC2
:103C7000FFF776FED8464046C00600D4A0E12020DB
:103C800051462A1CFFF78AFE9AE15846010706D5DD
:103C90000598021D059203682E681E7090E1059B31
:103CA0001E1D059619682F680F6089E10598011D92
:103CB00005910668002E00D1694E6A4F5B463B4075
:103CC0009846301CFFF702FF071C5A46D20502D562
:103CD000504500DD57460298C11B8A4640462A1CC3
:103CE000FFF780FE002FC6D0B3467B1E01221A408C
:103CF00002923178281CFFF733FE0136013F002F76
:103D000000D081E1B7E7A346FFE73178281CFFF731
:103D100027FE7178281CFFF723FE0236023F002F92
:103D2000F3D15C46A7E7059E371D059737685946CE
:103D30000B06DE1723223240904680235E0031437B
:103D40008B4608218A466FE080239E0159460E4328
:103D5000090609D4B346C84609E0C84659460A06CA
:103D600005D5414FB84602E0B346404FB8465A46E3
:103D7000D20520D53B4B5E461E40B3461BE05F4656
:103D80003A06D31730261E40B046FB0513D5354FF3
:103D90005A463A4093460EE0C8465B46DA050AD5D5
:103DA000304A5E461640B34605E08021CF015A46B0
:103DB0003A439346C84659464B0419D5059B1A1DEC
:103DC00005921F685E46710701D53FB203E03207D6
:103DD00001D5FF231F40002F03DA7F422D2290469A
:103DE0001BE05A46910613D45E46720613D414E0C3
:103DF000059F3A1D05923F685B465B0702D53F046D
:103E00003F0C0AE05E46310707D5FF210F4004E072
:103E10002B23984601E0202188465E46F10506D511
:103E200010495B460B409B465A46D30501D40126F8
:103E3000B2465838C0B2202865D882000C4B9E5834
:103E4000B7464E460720002F33D15FE04E46002F85
:103E500038D15BE0EC4E0000304F0000B418001089
:103E600098510000FFFDFFFF78300000583000003F
:103E700014510000002F48D04E468022930159462D
:103E80000B400F22684884460394002B06D0101C78
:103E900038406446205C07A9705405E0111C394085
:103EA000624C605C07A9705401363F09EDD1039C58
:103EB0002CE0011C3940303107AAB1540136FF080B
:103EC000F7D123E080231902584608400390049458
:103ED000041C002C07D003223240032A03D107AB75
:103EE0002C2199550136381C0A21FFF7FDFC303191
:103EF00007A881550136381C0A21FFF7E1FC071E8F
:103F0000E7D1049C02E04E4600E04E465746BB1BFC
:103F1000DA43D7171F400298C11B8A1BFF23434572
:103F200080414142521A4346591E8B41D01A824663
:103F3000584680218A00104204D151462A1CFFF7BE
:103F400051FDCA464346FF2B03D9190A281CFFF727
:103F500007FD4046002803D0C1B2281CFFF700FD32
:103F6000584651462A1CFFF73DFD3020391C2A1CBB
:103F7000FFF714FD013E1BD407AFBE196F461B3778
:103F8000B91B01228A4390463178281CFFF7E8FCD0
:103F9000013EBE422DD10BE03178281CFFF7E0FC3A
:103FA000013E3178281CFFF7DBFC013EBE42F3D115
:103FB0005846C10604D5202051462A1CFFF7EEFCC6
:103FC0002178661C002900D096E5281CAF68002FD8
:103FD00004D02A686C68A24200D2B954006801E09B
:103FE000012670420BB03CBC90469946A246AB46B7
:103FF000F0BD4346002BCFD03178281CFFF7B0FC32
:10400000013EBE42C8D1D3E70298002800D17AE62B
:1040100059464978281CFFF7A3FC0136013FA34607
:10402000002F00D071E626E6DC4E0000CC4E0000EA
:1040300010B5041C0B78002B05D0431C05D0486834
:104040000138486001E089688847201C10BDC046DF
:10405000F0B55F4656464D464446F0B483B08146BF
:10406000019193461F1C01235842824600E0A2465C
:10407000544601344846FFF761FC051CFFF7F8FC85
:104080000028F4D1691C00D19DE0734E5A461640B9
:104090000C9900293FDD120612D52B2D04D02D2DB1
:1040A0000BD18024E5002E43544602344846FFF7E6
:1040B00045FC051C0C9801380C900C9B002B2ADD4C
:1040C000302D28D18022910031438A460C9D013D3C
:1040D0000C95601C80464846FFF730FC051C0C9B85
:1040E000002B15DD782801D0582811D1002F01D0E0
:1040F000102F6FD1594A1640B2460C9E013E0C96C5
:104100000234A0464846FFF719FC051C102761E061
:10411000002F5ED05EE0002F00D10A270C99002905
:104120002CDD0B19009300229046802188008346E5
:10413000E343009A9918012008408246281C391C44
:10414000FFF774FC002850DA1AE05D462E43434620
:104150007B43C01880460134A2464846FFF7EEFB79
:10416000051C391CFFF762FC002864DA08E0281CF3
:10417000391CFFF75BFC0028E7DA01E000208046ED
:10418000281C4946FFF754FFB2051FD5F30724D476
:10419000019F3868021D3A6001689025EB00371CCA
:1041A0001F409F4202D1404642429046F30602D54C
:1041B00043460B7011E0330702D545460D800CE0F5
:1041C00046460E6009E001214C4206E002246442AA
:1041D00003E0082744465646A0E7201C03B03CBC39
:1041E00090469946A246AB46F0BD5D462E434346F7
:1041F0007B43C218904601344846FFF79FFB051CDD
:1042000000998C42BCD050460028B0D0281C391CE4
:10421000FFF70CFC0028B3DB5D462E4343467B438F
:10422000C218904601344846FFF788FB051C0099E8
:104230008C429CD1A4E75C46264342467A438118CF
:104240008846544601344846FFF778FB051C009B1E
:104250009C4200D08BE793E7FFF9FFFFFFFDFFFFD4
:10426000F0B55F4656464D464446F0B48BB08046A6
:104270000D1C09920020049000210291CB4A934624
:1042800020239A4644460394A9464F4638784C4624
:104290000134002800D1CAE1252837D0051CFFF7DA
:1042A000E7FB002819D020780134FFF7E1FB002854
:1042B000F9D1013CA146049D039E00E00135301C6C
:1042C000FFF73CFB071CFFF7D3FB0028F6D1049552
:1042D000381C0399FFF7ACFED7E70398FFF72EFBD6
:1042E000A84204D1049B01330493A146CDE7061CE8
:1042F00003988146029C301C4946FFF799FE01361F
:1043000000D094E1002C00D091E182E17978002581
:104310002A2902D14C460234012500270BE05F45D3
:1043200000DD84E1BA00D0194100303E8F1900D57C
:104330007DE15646354326780134301CFFF76EFB8D
:104340000028ECD1221C331C291C5046284200D1E5
:10435000974F4C2B04D11678541C44250D430CE088
:10436000682B0AD11678682E04D110250D43567893
:10437000941C02E0541C08250D43321C253A532A94
:1043800000D954E193008B49C85887460398FFF73A
:10439000D5FA252804D1049F01370497A14674E774
:1043A000061C03988446029C301C6146FFF740FEC1
:1043B000751C00D03BE1002C00D038E101214B42BC
:1043C000029334E153462B4200D1012701212940B9
:1043D00088460025002903D1099D2E1D09962D68C8
:1043E000002F00D123E128DD0498C2199146049FD3
:1043F000FB434B4401210E1C1E40013704970398D8
:10440000FFF79CFA421C00D019E108E04646FFE79E
:10441000049F01370398FFF791FA431C07D10298D4
:10442000002800D003E1012359420291FFE0002E51
:1044300000D024E12870013521E1A1464446002C3A
:1044400000D022E7029D013502951EE780222A4313
:104450000097039809A90A23FFF7FAFD0590BEE02B
:1044600080222A430097039809A90023FFF7F0FD53
:104470000590B4E0A146EB0700D506E70998021DB8
:1044800009920368E80604D56C461020025D1A7094
:10449000FBE62A0705D56F461021CE5B1E80A1469C
:1044A000F3E6049D1D60A146EFE680222A430097B3
:1044B000039809A90823FFF7CBFD05908FE01E267E
:1044C0002A1CB2430097039809A91023FFF7C0FDE7
:1044D000059084E0012672420592A046A946161C6A
:1044E000039D0136281CFFF729FA041CFFF7C0FAC8
:1044F0000028F6D14D460596231C44469846321CAA
:1045000001334ED0012129400691089000D084E06B
:104510000998061D0996036808937EE0069C002C06
:1045200001D12E7001357C1C271C0398FFF706FA79
:10453000061C079884421ED0731C00D0CAE0444673
:104540000597B04608954D4620E0A946059F46468A
:10455000A046089D04E0A946059F4646A046089D42
:10456000301CFFF785FA0028D8D044460597B0469E
:1045700008954D460AE044460597B04608954D46D5
:1045800004E044460597B04608954D4640460399D9
:10459000FFF74EFD069A002A21D1002008990870E5
:1045A0001DE001235F42059719E0C046CCCCCC0C3E
:1045B000FFFFFF7FA051000080222A43009703984D
:1045C00009A90A23FFF744FD059008E080222A4349
:1045D0000097039809A91023FFF73AFD0590059E5F
:1045E000002E09DA029C059F781C20D1002C1ED1D8
:1045F0000122554202951AE001273D406A426A4174
:10460000029DA81802900499059BCE180496A14615
:104610003BE601214A42029209E0002FB6DDBF18B5
:104620000797059AD143C819C1078ED539E002987A
:104630000BB03CBC90469946A246AB46F0BD424604
:10464000002A01D1287001350498484500D1F4E6CC
:10465000002E00D1DAE6071C013704970398FFF714
:104660006DF9411C00D1DAE64346002B01D12870D8
:10467000013504994646494500D0C9E6DDE60137D3
:1046800004970398FFF75AF9411C00D1C7E6002EA2
:1046900001D128700135049A4A4500D0B8E6B046E9
:1046A000CBE64046FFF7E4F9002800D06EE7069E0F
:1046B000002E04D14346089F3B7001370897059AA6
:1046C000013205920398FFF739F98046431C00D068
:1046D00041E75BE7301CFFF7CBF9002800D050E73B
:1046E000069B002B01D12E700135671C0398FFF744
:1046F00025F9061C411C00D032E744460597804648
:1047000008954D4642E7C04638B5041C0D1C00F024
:1047100013F8074B1D608020044306490C600A1CF7
:104720001468002CFCD100F009F8014D286838BD50
:10473000B8180010BC1800107047C0467047C0463B
:10474000302020003930200031383000323730003E
:10475000465720302E3033005465737400253033B3
:10476000692025303369004E415600454E430070A4
:1047700072657373004E6F20636F6E6669672064A5
:104780006174612E000000000000000000307878A5
:1047900030300030006C6C6C00000000006C6CFE6F
:1047A0006CFE6C6C00307CC0780CF8300000C6CC1D
:1047B000183066C600386C3876DCCC76006060C095
:1047C0000000000000183060606030180060301891
:1047D000181830600000663CFF3C66000000303076
:1047E000FC3030000000000000007030600000006D
:1047F000FC000000000000000000303000060C1833
:104800003060C0800078CCDCFCECCC780030F0303C
:10481000303030FC0078CC0C3860CCFC0078CC0C0C
:10482000380CCC78001C3C6CCCFE0C0C00FCC0F8A6
:104830000C0CCC78003860C0F8CCCC7800FCCC0CE8
:10484000183060600078CCCC78CCCC780078CCCCB8
:104850007C0C187000000030300030300000003058
:104860003000703060183060C0603018000000FC0C
:1048700000FC0000006030180C1830600078CC0C90
:1048800018300030007CC6DEDEDEC078003078CC28
:10489000CCFCCCCC00FC66667C6666FC003C66C04A
:1048A000C0C0663C00FC6C6666666CFC00FE62681C
:1048B000786862FE00FE6268786860F0003C66C05E
:1048C000C0CE663E00CCCCCCFCCCCCCC007830301A
:1048D00030303078001E0C0C0CCCCC7800E6666CC6
:1048E000786C66E600F06060606266FE00C6EEFE10
:1048F000D6C6C6C600C6E6F6DECEC6C600386CC64C
:10490000C6C66C3800FC66667C6060F00078CCCC73
:10491000CCDC781C00FC66667C786CE60078CCE029
:10492000381CCC7800FCB4303030307800CCCCCCA3
:10493000CCCCCCFC00CCCCCCCCCC783000C6C6C621
:10494000D6FEEEC600C6C66C386CC6C600CCCCCC53
:104950007830307800FECC983062C6FE0078606017
:104960006060607800C06030180C0602007818188B
:10497000181818780010386CC600000000000000FD
:1049800000000000FF303018000000000000007838
:104990000C7CCC7600E0607C666666BC000000782B
:1049A000CCC0CC78001C0C0C7CCCCC760000007801
:1049B000CCFCC07800386C60F06060F000000076DD
:1049C000CCCC7C0CF8E0606C766666E6003000705B
:1049D0003030307800180078181818D870E0606609
:1049E0006C786CE60070303030303078000000ECCD
:1049F000FED6C6C6000000F8CCCCCCCC00000078B7
:104A0000CCCCCC78000000DC66667C60F0000076E0
:104A1000CCCC7C0C1E0000D86C6C60F00000007CDC
:104A2000C0780CF80010307C30303418000000CC16
:104A3000CCCCCC76000000CCCCCC7830000000C6CA
:104A4000C6D6FE6C000000C66C386CC6000000CCF8
:104A5000CCCC7C0CF80000FC983064FC001C30309E
:104A6000E030301C001818180018181800E030301A
:104A70001C3030E00076DC00000000000010386CD4
:104A8000C6C6C6FE0078CCC0C0CC78306000CC0072
:104A9000CCCCCC7E00183078CCFCC078007EC33CF7
:104AA000063E663F00CC00780C7CCC7E00603078FF
:104AB0000C7CCC7E003C663C063E663F000078CC19
:104AC000C0CC7830607EC33C667E603C00CC007811
:104AD000CCFCC07800603078CCFCC07800CC007092
:104AE00030303078007CC6381818183C00603070C0
:104AF0003030307800CC3078CCCCFCCC0030483032
:104B000078CCFCCC001830FC607860FC0000007FA2
:104B10000C7FCC7F003E6CCCFECCCCCE0078CC00A1
:104B200078CCCC780000CC0078CCCC780060300019
:104B300078CCCC780078CC00CCCCCC7E0060300037
:104B4000CCCCCC7E0000CC00CCCCFC0CF8C6007CDD
:104B5000C6C6C67C00CC00CCCCCCCC780000007C97
:104B6000CED6E67C00386C64F060E6FC003A6CCE91
:104B7000D6E66CB8000000CC783078CC000E1B185C
:104B80007E1818D8701830780C7CCC7E00183070E5
:104B900030303078000C180078CCCC78000C18003D
:104BA000CCCCCC7E0076DC00F8CCCCCC0076DC0023
:104BB000ECFCDCCC003C6C6C3E007E00003C66668D
:104BC0003C007E000030003060C0CC78003C5AA52C
:104BD000B9A9663C00000000FC0C0C0000E66C78F3
:104BE0007E63CE981FE66C787367CD9F0300180034
:104BF00018183C3C18003366CC6633000000CC66C5
:104C00003366CC0000228822882288228855AA5543
:104C1000AA55AA55AADD77DD77DD77DD7718181854
:104C2000181818181818181818F81818180C183018
:104C300078CCFCCC0078843078CCFCCC00C06030E0
:104C400078CCFCCC003C42B9A1B9423C003636F6E7
:104C500006F636363636363636363636360000FE08
:104C600006F63636363636F606FE00000018187E92
:104C7000C0C07E1818CCCC78FC30FC30300000006E
:104C800000F8181818181818181F0000001818181D
:104C900018FF00000000000000FF1818181818186E
:104CA000181F18181800000000FF0000001818183E
:104CB00018FF18181876DC780C7CCC7E0076DC3077
:104CC00078CCFCCC00363637303F00000000003F87
:104CD00030373636363636F700FF0000000000FF6A
:104CE00000F736363636363730373636360000FF80
:104CF00000FF0000003636F700F73636360082FE39
:104D00006C6CFE8200D870D80C3C6C3800FC6C6671
:104D1000F6666CFC007884FC607860FC00CC00FCDB
:104D2000607860FC006030FC607860FC0000C0408F
:104D3000E000000000183078303030780078847857
:104D40003030307800CC00783030307800181818C7
:104D500018F8000000000000001F181818FFFFFFDF
:104D6000FFFFFFFFFF00000000FFFFFFFF18181804
:104D700000181818006030783030307800FFFFFFDE
:104D8000FF0000000018307CC6C6C67C000078CC4E
:104D9000F8CCF8C0C07C827CC6C6C67C0030187CCB
:104DA000C6C6C67C0076DC0078CCCC780076DC7C8D
:104DB000C6C6C67C0000666666667C60C000E07899
:104DC0006C7860F000F0607C667C60F0001830CC9D
:104DD000CCCCCC7800788400CCCCCC78006030CCC3
:104DE000CCCCCC7800183000CCCCFC0CF81830CCF3
:104DF000CC7830780000FC00000000000018300083
:104E0000000000000000000000FC0000003030FC4A
:104E1000303000FC00000000FC00FC0000E62C78B4
:104E200033E7CD9F037FDBDB7B1B1B1B007EC3783F
:104E3000CCCC788CF8303000FC0030300000000022
:104E40000000003060386C6C380000000000CC00BE
:104E50000000000000000000001800000038781872
:104E6000187E0000000030383C3C38300000666698
:104E70006666666600007E7E7E7E7E7E00000000A6
:104E800000000000004150D4412CD4420201D44221
:104E90002601D4422609D442260BD442260FD442FE
:104EA0001001422002422402422801422AD042300C
:104EB0000042320E42340D4236004161424000430E
:104EC000420281434302814151D4000030313233E8
:104ED0003435363738396162636465663031323370
:104EE000343536373839414243444546383B000073
:104EF0005A3B00005A3B00003C3B00005A3B00007C
:104F00005A3B00005A3B0000403B00005A3B000067
:104F10005A3B00005A3B0000463B00005A3B000051
:104F20004C3B00005A3B00005A3B0000523B000043
:104F3000E03F00002A3C00002A3C00002A3C000020
:104F40002A3C00002A3C00002A3C00002A3C0000C9
:104F50002A3C00002A3C00002A3C00002A3C0000B9
:104F60002A3C00002A3C00002A3C00002A3C0000A9
:104F70002A3C00002A3C00002A3C00002A3C000099
:104F80002A3C00002A3C00002A3C00002A3C000089
:104F90002A3C00002A3C00002A3C00002A3C000079
:104FA0002A3C00002A3C00002A3C00002A3C000069
:104FB0002A3C00002A3C00002A3C00002A3C000059
:104FC0002A3C0000463C00002A3C00002A3C00002D
:104FD0002A3C00002A3C00002A3C00002A3C000039
:104FE0002A3C00002A3C00002A3C00002A3C000029
:104FF0002A3C00002A3C00002A3C00002A3C000019
:105000002A3C00002A3C00002A3C00002A3C000008
:105010002A3C00002A3C00002A3C00002A3C0000F8
:105020002A3C00002A3C00002A3C00002A3C0000E8
:105030002A3C00002A3C00002A3C00002A3C0000D8
:105040002A3C00002A3C00002A3C00002A3C0000C8
:105050002A3C00002A3C00002A3C00002A3C0000B8
:105060002A3C00002A3C00002A3C00002A3C0000A8
:105070002A3C00002A3C00002A3C00002A3C000098
:105080002A3C00002A3C00002A3C00002A3C000088
:10509000483D00002A3C00002A3C00002A3C000059
:1050A0002A3C00002A3C00002A3C00002A3C000068
:1050B0002A3C00002A3C00002A3C0000503C000032
:1050C000AA3D00002A3C00002A3C00002A3C0000C7
:1050D0002A3C0000AA3D00002A3C00002A3C0000B7
:1050E0002A3C00002A3C00008A3C00007E3D000073
:1050F000263D00002A3C00002A3C0000AC3C000099
:105100002A3C0000983D00002A3C00002A3C000098
:105110005A3D0000743E0000063F0000063F0000BC
:10512000063F0000063F0000063F0000063F00006B
:10513000063F0000063F0000063F0000063F00005B
:10514000063F00004C3E0000063F0000063F000006
:10515000063F0000063F00004C3E0000063F0000F6
:10516000063F0000063F0000063F0000063F00002B
:10517000423E0000743E0000063F0000063F000073
:10518000063F0000063F00004C3E0000063F0000C6
:10519000063F0000743E0000286E756C6C2900000C
:1051A0008C4300002E4600002E4600002E460000D4
:1051B0002E4600002E4600002E4600002E4600001F
:1051C0002E4600002E4600002E4600002E4600000F
:1051D0002E4600002E4600002E4600002E460000FF
:1051E0002E4600002E4600002E4600002E460000EF
:1051F0002E4600002E4600002E4600002E460000DF
:105200002E4600002E4600002E4600002E460000CE
:105210002E4600002E4600002E4600002E460000BE
:105220002E4600002E4600002E4600002E460000AE
:105230002E4600002E4600002E4600002E4600009E
:105240002E4600002E4600002E4600002E4600008E
:105250002E4600002E4600002E4600002E4600007E
:105260002E4600002E4600002E460000CC450000D1
:105270002E4600002E4600002E4600002E4600005E
:105280002E4600002E4600002E4600002E4600004E
:105290002E4600002E460000C44300004C4400008F
:1052A0002E4600002E4600002E4600002E4600002E
:1052B000604400002E4600002E4600002E460000EE
:1052C0002E46000074440000AA440000BE440000C2
:1052D0002E4600002E460000D44400002E4600005A
:1052E000B84500002E4600002E460000CC450000C8
:1052F000807F0000001BB7008025000019350000EA
:10530000A000000031350000C92F00000935000061
:0C5310007D2F0000E52E0000A52F0000FE
:04000003000001ED0B
:00000001FF
