:10000000E01F0010ED010000F5010000F701000005
:10001000F9010000FB010000FD01000056D4FFEFD4
:10002000000000000000000000000000FF010000D0
:10003000010200000000000003020000D9030000DC
:10004000070200000702000007020000070200008C
:10005000070200000702000007020000070200007C
:10006000070200000702000007020000070200006C
:1000700007020000090200000B020000ED1F000053
:100080000F02000011020000130200001502000020
:10009000A9210000B12200000000000000000000C3
:1000A0001B0200001D0200001F02000000000000F3
:1000B000210200002302000025020000DD220000D2
:1000C0002F49072291438D462E492F480A1A06D000
:1000D0000722914381F30988022282F314882B4876
:1000E0002B492C4A00F039F82B482C492C4A00F0B7
:1000F00034F82C482C492D4A00F02FF82C482D4973
:100100002D4A00F02AF82D482D492E4A00F025F8F6
:100110002D482E492E4A00F020F82E482E49002264
:1001200000F026F82D482E49091A082903DB002281
:100130000260043001601F481F49884205D00268F0
:10014000043003B4904703BCF7E700208646EC4632
:1001500000200021234A9047FEE7884207D0521A28
:1001600005D0037801300B700131013AF9D17047A5
:10017000884202D002700130FAE770471A4870478F
:10018000E01F0010E01F0010E01F00108456000068
:10019000000000102C0000103002000030020000AF
:1001A000C84A000084560000000000100000001043
:1001B000C84A0000C84A0000C84A0000C84A0000F7
:1001C000C84A0000C84A0000C84A0000C84A0000E7
:1001D000845600002C0000108418001084180010B1
:1001E000841900109D100000FFFFFFFF0E480F490B
:1001F000016065E7FEE7FEE7FEE7FEE7FEE7FEE7F4
:10020000FEE7FEE7FEE7FEE7FEE7FEE7FEE7FEE7C6
:10021000FEE7FEE7FEE7FEE7FEE7FEE7FEE7FEE7B6
:10022000FEE7FEE7FEE7FEE7008004400200000074
:10023000094B421E01209A420DD8084B5A60084AC9
:10024000106A0102080AC021090601431162002058
:10025000072298601A607047FFFFFF0010E000E07F
:1002600000ED00E0F8B54F4B4F4C984217D006D840
:100270004E4988420CD04E4A904206D10BE04D4D7B
:10028000A8420FD04C4EB0420FD02060002704E0AF
:10029000206000270BE020604127002208E020605A
:1002A000412704E020604227F7E72060222701224F
:1002B00072B6424B8E2081005D58002A05D0202066
:1002C00085435D500021196202E00326B5435D506D
:1002D000C826C046013E002EFBD101251A645D648C
:1002E0005E645D64596C012634483142FAD0002FB7
:1002F00015D087608E27B90045588026B5434550F4
:10030000D96801202D4F0142FAD0032500263D6710
:1003100078677E6778675F6FF807FCD50DE0026746
:100320004667476746675D6F244FED07FBD58E2014
:1003300081007D58802635437D508E218D00002A16
:1003400002D05A59032001E05A59202002435A5141
:1003500025681B4E1B4BB54201D9022105E01A4FFF
:10036000BD4201D9012100E000210022D960281CF2
:100370001A61164903F068FC154E164B37680138B0
:100380001F4000020743281CFA25A900376003F02C
:100390005BFCFFF74DFFFF2002F052F962B62068C8
:1003A000F8BDC0460048E801040000100024F40035
:1003B00000366E0100512502006CDC020080044012
:1003C000FF59620200000140FF2C310100093D008D
:1003D00000C00140FF00FFFF574B30B51A68574976
:1003E00001321A600878400738D5554C2578013518
:1003F000EBB22370052B31D10023524A2370D2690E
:10040000950700D503230120024200D043404E4C03
:100410002578E81AC0B2C50708D523704B4B0225D2
:100420001C782840013C2018C4B21C70484B50076F
:1004300012D41D780135E8B21870C72805D9454C8B
:10044000022223781343237001E0132806D9414B7D
:1004500001251A782A4300E000221A70097809075A
:1004600068D53D4804780134E3B20370192B61D19B
:1004700000220270334D3948E96F036810240B40A5
:100480000160191C2140364A0AD1364805782C43B0
:1004900004703548147805782D19ECB2047010E01A
:1004A0000121181C08400CD12E4920250C782C4322
:1004B0000C702D4914780D7810702D1BECB20C7057
:1004C00000E0117008211940284A09D1254840252B
:1004D00004782C4304702648147805782D190BE015
:1004E000022119400BD11F48802405782C43047049
:1004F0001F48147805782D1BEDB2057000E001212E
:1005000011701C4A5D0713D411780131C8B2107004
:10051000272805D9134C022225781543257001E0C0
:10052000032807D90F4B012118780843187001E000
:100530000023137030BDC0462C1000103110001085
:100540003E10001000000150351000103710001050
:100550003D10001033100010401000103810001033
:10056000411000103C100010361000103410001024
:10057000301000103210001072B6054B03211A78AB
:10058000101C0A401A7062B643B298107047C046F9
:10059000371000100D4A0E4991230E48CB67D367E0
:1005A00093678268002A02D00B4903230B704068CE
:1005B000002804D0084B01211A784A401A70074BD2
:1005C000074A0020187010707047C0460040044071
:1005D0000440044000000150351000103710001096
:1005E000331000100A4B9122191D9020CA679A6798
:1005F0009031DA671B1808601A60064A00211170F2
:100600000548064B064A0170116019707047C046D4
:10061000004004403C100010361000103010001054
:100620003810001010B505283CD010D804287DD112
:100630003F4A404C0223136021681020014321608F
:1006400023688021480418432060111C1DE00728FE
:1006500040D0FF286AD1364C374A8121216080235F
:10066000082111628B40D05801240143D1503349F5
:10067000304B0C6018682024204318601C688020D0
:100680004004204318600C1C40E0236A294A002BD8
:10069000FBDA14682A4820401060126A1304980D8F
:1006A000912231E0254C234B012121601A68202042
:1006B00002431A601A688021480410431860211C04
:1006C0005A6A1C4C002AFBDA20681D4B0340236049
:1006D000626A16E01B4A174B012111601C688020DA
:1006E00004431C601C688021480420431860111CCE
:1006F000DC6A104A002CFBDA1068114B03401360CF
:10070000D26A1404A00D90220A6010E0586A0949C8
:100710000028FBDA08680A4B03400B60496A802313
:10072000236008040024800D146200E0002010BD46
:100730009040044000C0014000000150944004403B
:1007400000FFFFF898400440094B1A78824309489B
:100750001A7001788A0609D5074BA0201A78C105BE
:10076000002A01D1082300E000230B627047C04635
:1007700042100010311000103F100010014B18689B
:100780007047C0462C100010034B19681A68521AA3
:100790008242FBD37047C0462C10001038B5041CB1
:1007A0000B4D04D101235842A8616C600DE0C3B227
:1007B000642B00D96424E4B2012021046860081B82
:1007C000642103F023FAC243AA61201C38BDC0464D
:1007D0000000014008B5002802D1034B186801E071
:1007E000FFF740FD08BDC0460400001070B572B6AA
:1007F000294B12211A1CFC328E20516584001D5990
:10080000102001228543254E1D519A670433DE676F
:100810008021A023DC050B02E558214904262E4047
:100820000D1CA435E650C86128604866E6580825C6
:100830003540E550C8621B488025C458AD001443BC
:10084000C450002444601848C6583543C55080231E
:100850001E0184511548212355428A638460C46077
:1008600004610467446185614267C3634260104A62
:1008700010491668301C03F0E7F90F4D0F49013895
:10088000000208602C60FA24A100301C03F0DCF99F
:10089000FFF7CEFC62B670BD008004405F2101000E
:1008A00000400440000003500000015000000140DF
:1008B0000400001000093D002C10001000C0014091
:1008C000F0B591B016AC257819AC01950591258845
:1008D000694603ACA07117AE087918AF36783F8827
:1008E0002371074B227360710D21201C054A25825C
:1008F000E7816673039301F0B9F911B0F0BDC0460A
:10090000EFBEADDE2C000010F0B5674C93B023783D
:100910000E1C272169440B700890FFF73BFE042052
:10092000F822207015020020FC27011C00952A22C5
:100930007F23FC0002F0E4F900942A2000215422D5
:100940007F2302F0DDF97F221F2300935420131C24
:100950000021002402F0D4F980210802534A3B21EF
:10096000231C00940194029401F088FF802045210B
:100970004F4A231C009401940294000201F07EFF70
:10098000802210020094019402947621494A0123A6
:10099000012501F073FF079406940595FFF7ECFD20
:1009A000069F0025C3194448079F027805704348F5
:1009B000D9B2BB1802780691A418D9B2E4B2057076
:1009C00007916F4618231C2160B2DA57CB5700906D
:1009D0003B490AA803F01CFA089A052001272B1CA2
:1009E0000092011C0AAA0196029701F047FF354BBD
:1009F000354A18781D70117815700843334D3DD075
:100A000002236F6003402DD0274F0AA83B78042BA8
:100A100006D12F4903F0FCF9FFF7E4FD082205E0B9
:100A20002C4903F0F5F9FFF7B5FD042208990120E0
:100A30003A700023009102900196052019210AAA1C
:100A4000FA2701F01BFF7800FFF79EFE1D4B0021E7
:100A50001A7819708A42F9D11B4807780270002F62
:100A6000F4D10CE038420AD0089801960090029721
:100A70000F21194A052001F001FF00E0686001F034
:100A800061FD002802D001F01DFD0590059B002BA3
:100A900084D16B60301C02F083FD27246C44024E2D
:100AA0002578357013B0F0BD31100010C84A000031
:100AB000CE4A0000DC4A0000361000103010001052
:100AC000EA4A0000331000103C10001000000350F0
:100AD000FC4A0000004B0000044B0000F0B58BB056
:100AE0000990081C0F1C069202F05AFD069B6946ED
:100AF000D80007901C310A8802240592261C01F0B8
:100B000021FD002831D001F0DDFC051E0A2D05D0A5
:100B10000D2803D0092808D1202506E0002E10D08A
:100B2000059EA419A4B202260BE0099B01200093A4
:100B300002900197301C211C2A1C069B01F0D8FD55
:100B4000061C02F075FD864203D305990226621841
:100B500094B2079BE018089002F070FD089981425A
:100B600003DB381C02F01CFD0224002DC7D1381C09
:100B700002F016FD0BB0F0BDF0B585B0009102900B
:100B800001F0A0FC019001F09DFC051C01F09AFC15
:100B9000061C01F097FC041C01F094FC7F23021C4E
:100BA0009A43D1B2071C1F40039103F027F8019824
:100BB00029198319013B01399AB201988BB2291C7A
:100BC00002F06AFD022F07D0042F09D0012F10D1A7
:100BD000B14D002100950BE000250095AE4907E0DE
:100BE0000098029A009B504043405840009381B2C5
:100BF0000291AA48039B02680192002B00D0A3E057
:100C0000251C75430B2F06D8082F3ED27E1E032EBF
:100C100000D96DE015E0182F6AD189E001F092FC4F
:100C2000002816D001F04EFC2E1C071C083E802424
:100C3000274209D00298013D02F01AFD6408B5422E
:100C400004D1002DEAD10CE00098F4E7002DEFD19B
:100C500007E0924C019F2268FA20D11BC300994201
:100C6000EFD902F0C1FF05B0F0BD092F1BD11C2444
:100C7000044003227C4310400A267043E1000843ED
:100C8000C0B2C0B202F0F4FC013D002DE9D001F089
:100C900059FC002818D001F015FC082FE5D11826C2
:100CA0000640152304E00A2F08D138260640092300
:100CB0005E430723184030438000E1E7FC220240F6
:100CC000D100C0080843DCE7744A01981168FA2390
:100CD0000E1ADC00A642D8D9C3E701F033FC002885
:100CE00009D06F4B013D1F68B847C0B202F0C0FC8D
:100CF000002DF2D1B5E7694F019C3868FA22011B3B
:100D0000D600B142F4D9ACE701F01CFC002812D0A7
:100D100001F0D8FB01F0D6FBFC273840C40001F0FD
:100D2000D1FBE6B2C1080E43F0B202F0A1FC013DD6
:100D3000002DE9D195E7594801990468FA26621A0D
:100D4000F3009A42F4D98CE70399802900D088E710
:100D5000251C75430B2F07D8082F69D2013F032F9D
:100D600000D9D7E02F1C13E0182F00D0D2E004E107
:100D7000002F09D00399294222D00298013F02F0A6
:100D800077FC6D08B742F3D1013CE4B2002C19D1D5
:100D9000002F00D165E701F0D5FB002826D001F037
:100DA00091FB051EAA2D10D101F08CFB041E00D171
:100DB00057E701F087FB03903E1C083E8025D9E7EA
:100DC0000098DBE7002FF7D14BE73E1C083E80245C
:100DD000254201D0029800E00098013F02F048FC53
:100DE0006408B742D4D0002FF2D13AE72B4E019DD0
:100DF0003468FA22601BD3009842C9D931E7092F21
:100E00002FD11C2101400324794320400A23584359
:100E1000CA000243D3B2DEB22C1C301C02F028FC04
:100E2000013C0099601B0B18DAB2002A2AD1251C5C
:100E3000002D00D115E701F085FB002854D001F00A
:100E400041FBAA2821D101F03DFB0090002800D1F0
:100E500007E701F037FB082FD1D1182202401526F1
:100E600004E00A2F08D138220240092672430726DF
:100E7000304010438200CDE7FC240440E300C0086A
:100E80000343C8E7002CC8D1D1E7082F0AD11826A0
:100E90000640152117E0C046FFFF00002C1000108F
:100EA00018000010092F09D11C24044003227C43A0
:100EB00010400A267043E300184309E00A2F09D1C5
:100EC0003826064009214E43072108403043800060
:100ED000C0B204E0FC220240D300C0081843C0B2F4
:100EE00002F0C6FB6C1EA2E73448019B0268FA219F
:100EF000D61ACC00A64200D9B3E62C1C97E701F025
:100F000021FB002809D02E4A013D1768B847C0B21E
:100F100002F0AEFB002DF2D1A3E6284F019E3C6803
:100F2000FA21A01BCB009842F4D99AE601F00AFB03
:100F3000002838D0224F3E68B047C0B2AA2822D13C
:100F400001F0C0FA061E00D18BE601F0BBFA01F0F9
:100F5000B9FAFC210840C300DCB201F0B3FAC208C0
:100F60001443E7B22C1C381C013C02F081FB611BCE
:100F70007018C3B2002B03D1251C002DD6D170E60A
:100F8000002CF0D1F8E701F09DFAFC21031C0B4086
:100F9000DA00D4B201F096FAC7083C43E0B202F09E
:100FA00067FB6C1EE8E7054C01982668FA23311AA6
:100FB000DA00914200D954E62C1CDDE72C10001019
:100FC00018000010F0B58BB00891171C079001F0C5
:100FD00079FA041C01F076FA099001F073FA7F2582
:100FE000C343D9B20540CA09681E05920F2800D92B
:100FF0000125002F02D101F065FA061C264B196865
:101000000691002F3AD1002E44D001F09BFA00281F
:1010100016D001F057FA071C02F00AFB84420CD2EA
:101020000799089A05980091019202900999201C4D
:101030003A1C2B1C01F05CFB041C013EF6B2E2E7FB
:10104000154B069F1968FA20CA1BC3009A42DAD9C9
:1010500020E001F037FA061E1CD002F0E9FA8442C3
:101060000CD2089A0598079F019202900097201CC5
:101070000999321C2B1C01F03BFB041C01F062FAA5
:101080000028E6D1044E069A3768FA23B81AD90028
:101090008842F3D90BB0F0BD2C100010F0B58BB026
:1010A000FFF7A4FB9C4C9D4B2168181C8D79196897
:1010B000A022D6053769002F2FD002F0C5FA20688C
:1010C000974E0168B14238D0964F9748FFF782FBA0
:1010D000381C02F065FA00250A20011C934A0123FE
:1010E00000950195029501F0C9FB3220FFF756FBF0
:1010F000FA239800FFF748FB96229101009501958D
:1011000002950220202230230397FFF7D9FB281CE9
:10111000391CFFF7F9FB02250FE003685A1A632A0E
:10112000CBD880252A01B6580425002EC0D0804B8C
:101130005D686B1E9D410135BAE720687D490079E5
:101140004843FFF747FB7C4E37787B0701D5FFF715
:1011500021FA3378190701D5FFF744FA2068C289CC
:101160000792018A081C059102F01AFA276878791B
:10117000FFF714FB2668B06801F0FAF82368187BC3
:1011800001F004F82468607B01F0F6F9281C0025C2
:1011900001F056FA08956148036801F093F90138A7
:1011A000A22801D900F00DFD02F078FDA300A800EF
:1011B000CC00D800DE00330163010B050B050B05E5
:1011C0000B050B050B050B050B056A017601790173
:1011D0007E0183010B050B050B050B050B050B05AC
:1011E0000B050B050B050B050B0588018D01920105
:1011F00098019D01A201A701B001B501B901BD018E
:10120000BF01CC01D501E001F501040218023B0247
:101210005A028C02A302B602CE02E502F8021003C3
:101220002E03450361037F039603B203C303D00378
:10123000DF03F003FD030D042204310446045B04C4
:101240006A0482048A048D04910499049C040B05A9
:101250000B050B050B050B050B050B050B050B050E
:101260000B050B050B050B050B050B050B050B05FE
:101270000B050B050B050B050B050B050B050B05EE
:101280000B050B050B050B050B050B050B050B05DE
:101290000B050B050B050B050B050B050B050B05CE
:1012A0000B050B050B050B050B050B050B050B05BE
:1012B0000B050B050B050B050B050B050B050B05AE
:1012C0000B050B050B050B050B05BB04A304A604BE
:1012D000B7040B050B050B050B050B050B050B05E3
:1012E0000B050B050B050B050B05C904D604DD0426
:1012F000F304124801F0D8F800F063FC089B002BBF
:1013000002D13220FFF74AFA07980599FFF7FCFA55
:101310000B4F02203E6824E0000000102C1000104B
:10132000EFBEADDEFFFF0000006CDC020A4B0000E8
:10133000FC00015040420F0031100010C94A00006B
:1013400020000010D64DD74A2C781168201C884701
:1013500001F0CCF8201CFFF7F7F91CE7D14E0D2067
:101360003668B04700F02DFC01F0ACF801380628D3
:1013700000D910E702F09CFC0423282E33383F00EC
:1013800001F058F9071C01F04FF9061C01F046F96D
:10139000C54C051CC549206802F056FCC4B201F0DA
:1013A00037F9089A0799059B0092019002910393DF
:1013B000381C311C2A1C231CFFF782FAEBE601F0D3
:1013C00081F801F03DF9E6E6B94E3068804700F05B
:1013D000CFFFE0E601F076F800F0D8FEDBE601F0A2
:1013E00071F801F0C9F8D6E601F06CF8AF4B58433C
:1013F000FFF7F0F9CFE601F065F8071C420701D5C9
:10140000FFF7C8F83B0701D5FFF7ECF8A9480770CC
:10141000C1E601F057F80138052800D9BBE6A02441
:10142000E30502F045FC030A1E13101B8024220270
:101430009F58082139409950ADE6186A994D431ECE
:1014400098412E688DE79C4A0021117080273E024A
:10145000985908210843985119629CE6964801263C
:10146000067080252C021A5908273A431A51002188
:10147000F2E7924D2F6801F025F8FFF7D3F82BE043
:1014800001F020F8FF2803D1864E0898366868E7F7
:10149000FFF784F908907EE602F0D6F87BE601F0CB
:1014A00011F802F0A7FA76E601F00CF802F086FBDC
:1014B00071E601F007F802F073FB6CE601F002F848
:1014C00002F0A4F867E67D48076802F0B1F803E08F
:1014D0007A4B1F6802F0B2F8B84772E300F0F2FFEF
:1014E00002F07CFA57E676490A689047079052E680
:1014F000734D2C68A04705904DE607980599012289
:10150000FFF7ECFA674F26203E682AE7079805990F
:10151000FFF732FB3FE66A4B1868804700E0079808
:1015200002F03EF837E60598FAE700F0CBFF051C1D
:1015300000F0C8FF6249041C0A689047211C021C85
:10154000281C10E000F0BEFF061C00F0BBFF079A4D
:10155000011C301C07E000F0B5FF071C00F0B2FFD3
:10156000059A011C381C01F0FDFF14E600F0AAFFEB
:10157000071C00F0A7FF061C00F0A4FF051C00F0EC
:10158000A1FF4F4B041C18688047311C00902A1C97
:10159000381C231C1FE000F095FF071C00F092FF91
:1015A000061C00F08FFF041C00F08CFF079A031C40
:1015B00000920DE000F086FF071C00F083FF061C80
:1015C00000F080FF041C00F07DFF0599031C0091D2
:1015D000381C311C221C01F00FFFDCE5384A13686F
:1015E0009847099000F06EFF061C00F06BFF041C8A
:1015F00000F068FF051C002E00D1CCE500F062FF72
:10160000069000F05FFF071C0998291C0090069ABD
:10161000201C3B1C013E01F0EFFEB6B2069C3D1CB7
:10162000E9E700F04FFF041C00F04CFF051C00F040
:1016300049FF061C002C00D1ADE500F043FF071C5C
:1016400000F040FF079906900091281C311C3A1CBD
:10165000069B013C01F0D0FEA4B23D1C069EE9E7CA
:1016600000F030FF041C00F02DFF051C00F02AFFE5
:10167000061C002C00D18EE500F024FF071C00F0B2
:1016800021FF06900598311C00903A1C281C069BEF
:10169000013C01F0B1FEA4B23D1C069EE9E7C04644
:1016A00042100010200000100400001040420F0003
:1016B00024000010311000103F1000101400001022
:1016C0001800001000F0FEFE051C00F0FBFE041CDC
:1016D00000F0F8FE071C00F0F5FE061CF348016858
:1016E0008847EA19A319013A013B92B29BB20090D4
:1016F00025E000F0E7FE051C00F0E4FE041C00F00D
:10170000E1FE071C00F0DEFEEA192318013A013B56
:1017100092B29BB2079911E000F0D4FE051C00F0D4
:10172000D1FE041C00F0CEFE071C00F0CBFEEE192B
:101730002018013E01380599B2B283B20091281CED
:10174000211C01F035FE26E500F0BCFE051C00F072
:10175000B9FE041C00F0B6FE071C00F0B3FE061C28
:10176000D24801688847EA19A319013A013B92B2AD
:101770009BB2009025E000F0A5FE051C00F0A2FE43
:10178000041C00F09FFE071C00F09CFEEA192318C1
:10179000013A013B92B29BB2079911E000F092FE30
:1017A000051C00F08FFE041C00F08CFE071C00F0EE
:1017B00089FEEE192018013E01380599B2B283B2B4
:1017C0000091281C211C01F09BFAE4E400F07AFE51
:1017D000041C00F077FE071C00F074FE051C00F0EE
:1017E00071FE061C00F06EFEB04A0690106880473D
:1017F0006119BB19069D0139013B8AB201909BB268
:101800000095201C391C2FE000F05CFE051C00F048
:1018100059FE041C00F056FE071C00F053FE061C87
:1018200000F050FEE919A3190139013B00908AB27A
:101830009BB2079815E000F045FE051C00F042FE43
:10184000041C00F03FFE071C00F03CFE061C00F0EC
:1018500039FEEA19A319013A013B0090059892B2AA
:101860009BB20190211C281C01F0B4FB93E400F012
:1018700029FE041C00F026FE071C00F023FE051CB8
:1018800000F020FE061C00F01DFE884A069010683D
:1018900080476319B919069D013B01399AB201903D
:1018A0008BB20095201C391C2FE000F00BFE051CAC
:1018B00000F008FE041C00F005FE071C00F002FE0C
:1018C000061C00F0FFFDEB19A119013B01399AB28A
:1018D00000908BB2079815E000F0F4FD051C00F0B5
:1018E000F1FD041C00F0EEFD071C00F0EBFD061CF2
:1018F00000F0E8FDEA19A119013A013900900598B4
:1019000092B28BB20190211C281C01F03DFA42E4F6
:1019100000F0D8FD071C00F0D5FD061C00F0D2FD3C
:101920006249041C0B689847311C031C221C381C9C
:1019300018E000F0C7FD061C00F0C4FD051C00F017
:10194000C1FD291C021C079B301C0BE000F0BAFDF6
:10195000071C00F0B7FD041C00F0B4FD059B021C41
:10196000211C381C01F0C6F815E400F0ABFD071C83
:1019700000F0A8FD061C00F0A5FD051C4B48026800
:101980009047311C031C2A1C381C18E000F09AFDFB
:10199000051C00F097FD041C00F094FD211C021CA6
:1019A000079B281C0BE000F08DFD071C00F08AFD52
:1019B000061C00F087FD059B021C311C381C01F041
:1019C000A3FAFFF7E8FB00F07DFD071C00F07AFDAD
:1019D000061C00F077FD051C00F074FD3349041C63
:1019E0000B689847311C00902A1C381C231C1FE0F0
:1019F00000F068FD071C00F065FD061C00F062FDAC
:101A0000051C00F05FFD079A031C00920DE000F03A
:101A100059FD071C00F056FD061C00F053FD051C87
:101A200000F050FD031C05980090381C311C2A1C46
:101A300000F070FFFFF7AFFB00F044FD071C00F063
:101A400041FD061C00F03EFD051C00F03BFD174962
:101A5000041C0B689847311C00902A1C381C231C5E
:101A60001FE000F02FFD061C00F02CFD071C00F00D
:101A700029FD041C00F026FD079A031C00920DE0CE
:101A800000F020FD061C00F01DFD071C00F01AFDF3
:101A9000041C00F017FD031C05980090301C391C35
:101AA000221C01F0DBFBFFF776FBC046180000109C
:101AB00000F008FD051C00F005FD011C281C04E0D9
:101AC0000798059901E00598079900220DE000F0BC
:101AD000F9FC041C00F0F6FC011C201C04E0079833
:101AE000059901E0059807990122FFF76BFAFFF7C6
:101AF00052FB36490E681BE0354C002523782570D3
:101B0000AB42F9D0314E3768FEF736FDC0B2B84768
:101B100020783268257090470FE02E480469002C29
:101B2000FBD02A4C2568FEF727FDC0B2A8472668DF
:101B3000274B002718781F70B04704203FE0234F41
:101B4000254B002418783D681C70A847234A3E683E
:101B500010781470B0472CE0214C1C4F00212078E5
:101B60003F68217029E01E4F002438783C70A04265
:101B7000F9D01949154E087833680C709847174DFD
:101B8000326828782C709047387836683C70B047B7
:101B900014E0104A11690029FBD00C4F0E4E0024AE
:101BA00030783B68347098470C4D3A6828782C7030
:101BB00090470B493F6808780C70B8470820FEF73B
:101BC000C3FD00F093FCFFF7E6FAC04620000010CA
:101BD00033100010000001503610001030100010BB
:101BE0003C10001000B532238BB00690079105A879
:101BF000059301A9024A904701980BB000BDC04669
:101C0000F11FFF1F00B58BB0332306900020059312
:101C100008920791FEF7DEFDFA21890002F014F820
:101C200001A90990024A05A8904701980BB000BD90
:101C3000F11FFF1F00B5031C8BB007208B4210D88B
:101C400034220020059206930791FEF7C3FDFA2186
:101C5000890001F0F9FF01A90890034B05A89847F6
:101C600001980BB000BDC046F11FFF1F38B5051C21
:101C70000B1C141C012000292FD072B6111CE0226D
:101C8000D20101CA01C1802000028242F9D1F821AB
:101C90000A01A01802CD013B02C0002BFAD1072097
:101CA000011CFFF79FFF002801D0012014E007204E
:101CB000011CFFF7BFFF0028F7D10720011CFFF729
:101CC00091FF0028F1D1E023211C8024D80162017A
:101CD000FFF798FF431E984162B638BD044B054993
:101CE0001A8888541F20013202401A807047C0466B
:101CF0006E1800104B180010024BDA689107FBD5E4
:101D0000986070470000044038B5084C051C2368F3
:101D1000C0B2984728042168000E88472A02100E96
:101D200023689847280E2568A84738BD2000001072
:101D300038B5074C051C2368C0B2984728042168B1
:101D4000000E88472A02100E2568A84738BDC046F5
:101D50002000001038B5044C051C2368C0B2984719
:101D6000280A2168884738BD2000001038B5084C83
:101D7000051C2368000E984728022168000E88473A
:101D80002A04100E23689847E8B22568A84738BD92
:101D90002000001038B5074C051C00022368000E17
:101DA00098472904080E22689047E8B22568A8479A
:101DB00038BDC0462000001038B5044C051C23680F
:101DC000000A9847E8B22168884738BD2000001013
:101DD000F0B5174B1A88174C21888A42FBD0164958
:101DE0008D5C01325005460D1E801A882788BA4244
:101DF000FCD0885C01325605720D1A801A880702E1
:101E000020888242FCD08E5C01325205500D188031
:101E100036043E431F8822889742FCD0CC5D0137B0
:101E20007905480D1880200628433043F0BDC04690
:101E30006C180010441000104710001070B5114BC2
:101E40001A88114C21888A42FBD010498D5C0132DE
:101E50005005460D1E801A8820888242FCD08E5C78
:101E600001325205500D18801A88360220888242AD
:101E7000FCD08C5C01325105200430434A0D2843CC
:101E80001A8070BD6C18001044100010471000102C
:101E900030B50C4B1A880C4908880D1C8242FAD0C8
:101EA0000A498C5C01325205500D18801A88288826
:101EB0008242FCD08D5C0132510528024A0D20433C
:101EC0001A8030BD6C18001044100010471000102C
:101ED00030B5174B1A88174C21888A42FBD0164917
:101EE0008D5C01325005420D1A801A882D0620881B
:101EF0008242FCD0885C01325205520D1A800004E7
:101F00001A8828432588AA42FCD08D5C01325205EC
:101F1000520D1A802D021A8828432588AA42FCD027
:101F20008C5C013251054A0D20431A8030BDC046F9
:101F30006C180010441000104710001030B5114B01
:101F40001A88114C21888A42FBD010498D5C0132DD
:101F50005005420D1A801A882D0420888242FCD038
:101F6000885C01325205520D1A8000021A882843FB
:101F70002588AA42FCD08C5C013251054A0D2043D1
:101F80001A8030BD6C18001044100010471000106B
:101F900030B50C4B1A880C4908880D1C8242FAD0C7
:101FA0000A498C5C01325205500D18801A882002B3
:101FB0002C88A242FCD08D5C013251054A0D284389
:101FC0001A8030BD6C18001044100010471000102B
:101FD000A023D9050A69002A04D1034B596989064F
:101FE000FBD518607047C04600800040802010B5C7
:101FF000C4056368221C2E49802B0ED004D8602BA8
:1020000009D0702B4DD106E0A82B19D0B82B2CD0BD
:10201000902B46D101E0012044E00B78012B0CD13C
:10202000244A8024E305118823489C6844540131E4
:1020300049054C0D148004222AE0042090612BE015
:10204000022008701D4A1E4908881388984206D04D
:102050001C49C85C0133A0601F24234013808022E8
:10206000D00504210160082219E00A78022A11D162
:102070001348124A01881388994206D01148C15C5E
:102080000133A1601F242340138080230422DB0539
:102090001A6001E00421A16180230822D805826131
:1020A00005E000200424082308701460936110BD2B
:1020B000461000104410001047100010481800107F
:1020C0006E1800104B18001080220B4B100280225B
:1020D000D8676C21D005094B81610021084819633C
:1020E0005963426802239A4342600430C26F202140
:1020F0008A43C2677047C04604E100E000400440E4
:1021000000800440F8B51B4B1B4D00261E70FFF7E6
:10211000DBFF1A480122AF6F02634263301CFEF7F7
:1021200059FB391C01F090FD154901F08DFD80240B
:10213000E4056061301CFEF74DFB391C01F084FDA5
:102140000F4901F081FD2E1D2061F36F20210B430B
:10215000F3676F68022007436F600A4DFF232A78F8
:102160008021560008481E400F024425E6600760A3
:102170002560F8BD46100010008004400040044077
:1021800000350C001000001000E100E008B5044B21
:102190001870044801788A0701D5FFF7B3FF08BD1E
:1021A00010000010471800100B4A0323D16910B526
:1021B0000B4002D0106A0343136208490B88D468AD
:1021C000640707D5044884680548C45401335B0597
:1021D0005B0DF4E70B8010BD0000044044100010BC
:1021E0004710001080220F4B5003D8670E4808217B
:1021F00042680A43426043680222934343600B48AB
:1022000010211123C16101664166836608480121DE
:1022100042688A4342600430C36F064A1A40C2676C
:102220007047C04604E100E0000004400040044064
:1022300000800440FFF7FFFF10B5FFF7D3FF164BF8
:102240001122DA6102211A66144C01225A6699663B
:102250006068134B10436060DC6F802000012043F6
:10226000D867104B06241A600F4BC722196104214E
:102270001A6059605C61D8680B4A400701D59268C2
:10228000F9E703231362546802210C435460074B9F
:1022900080225003186010BD0040044000800440BC
:1022A00004800440948004400000044000E100E009
:1022B000074B9A68186811074B0F022B07D1054B83
:1022C00005491A88885401325005420D1A8070471A
:1022D0000080004044100010471000100E4AA02358
:1022E000DB0599580420014399501A690B4B002AC9
:1022F0000BD1012018600A4B5A69D10701D51B6820
:10230000F9E780218903074B04E08021064A88030E
:10231000D0670021196070471C800000A84004406D
:102320000080004000E100E004E100E00B4B80226F
:10233000802110068A03D867DA67094A094B002012
:102340005860111C1020D061074BA431A8320860DE
:102350001060D86F054A0240DA67704704E100E078
:10236000004004400080004004800440FFEFFFFF75
:10237000154B70B5C218041C1448824222D8144D63
:1023800014492E780C60F2071CD5134B134A9E6F2C
:1023900000201568FEF71EFA311C01F055FC291CBF
:1023A00001F052FC211C000901F04EFC0C4C802372
:1023B000E168060A1943C0B2E16066602060E26825
:1023C0009A43E26070BDC04680DAFFFFC01C0F0078
:1023D0004718001008000010008004409880044056
:1023E0000080004038B5FFF7A1FF234B234910229E
:1023F000A020DA61C405655804229543204B65503E
:10240000E05820491043E05065581F4B1543655074
:10241000E0581E4D0243E2501D4A112414601D4C29
:1024200000212160EB6F802042011A431A49EA67BC
:102430001A4B01250D601868FFF79AFF184B03200F
:102440000722D8605D609A605D69A906FCD559696C
:102450000120014202D0124D2A68F8E7A023DA05D4
:1024600015691049002D03D120608024A003086065
:1024700080231A060A6038BD004004400480000032
:1024800008800000108000001C80000004800440D0
:10249000A4400440A8400440988004400800001074
:1024A0000080004000E100E010B5041C2078002806
:1024B00004D0034B013419688847F7E710BDC046C4
:1024C00020000010064A1388064908888342FBD082
:1024D0000549C85C01335B05590D11807047C04642
:1024E0006C180010441000104710001070B50F4B0E
:1024F0001878820718D5FEF741F9061C0C4D0D4CD3
:102500002A8821888A420FD0FEF738F9831BFA2BDC
:10251000F4D972B60849094E002008803080208026
:102520002880074D287062B670BDC046471800105D
:102530006E180010481800106C180010441000109D
:1025400046100010094B0020197881420CD0084A2F
:10255000084B12881B889A4204D89A4204D28020E1
:1025600001015218D31A98B27047C046471800109C
:10257000441000106C180010F0B51249124F134EA1
:10258000134D144C144A154B00280CD138701448C4
:10259000144F3060144E2F602660144D144C0D60A3
:1025A0001460144A0CE001203870134F3760134E4A
:1025B0002E60134D2560134C0C6013491160134AB3
:1025C0001A60F0BD140000104A1800101800001026
:1025D0000C00001024000010280000101C00001047
:1025E000911F00003D1F0000D11E0000B91D00001A
:1025F000951D00006D1D0000911E00003D1E000095
:10260000D11D0000551D0000311D0000091D0000F6
:10261000014B18787047C0464A180010014B1878D3
:102620007047C04610000010014B18687047C04644
:1026300008000010014B18787047C046471800107A
:1026400038B5051CFFF752FF1E4C23789A0701D5B9
:10265000FFF73AFD2078420701D5FFF7C3FD217847
:10266000CA0701D5FFF762FE174A1078FFF784FF0B
:10267000164B00201880164A164B10801880164AF8
:10268000164B10801870FF2D02D12578854217D087
:102690001348012D0ED0042D06D0124A02212170BC
:1026A0000260FFF72FFD0AE00F4B25700360FFF774
:1026B000C3FD04E025700D4D0560FFF793FE207803
:1026C00038BDC046471800104A1800106C1800109A
:1026D00044100010481800106E180010461000102A
:1026E00020000010DD1C0000F91C0000D11F0000BC
:1026F000F0B58FB0069314AB02911988069B151C98
:1027000015AA1488DA0016AE0190101837780991CE
:102710000A9481B2564C07910B972688079FB742BF
:1027200006DC029B5349D2180C8890B2A04203DD0C
:102730000136B6B2019698E01F2D00D895E0069EAE
:10274000203D013EF7B2049701F058FA4A4BED00E4
:10275000049CEA180392002C2BD10398029B015D84
:102760001D19AEB2049100258027019A04985319CF
:102770009AB2384206D0101C311C331C00F08CFF7A
:10278000099808E00B99002907D0101C311C331C54
:1027900000F082FF0A9800F06BFF01357F08082DDA
:1027A000E3D10134082CD8D101F01EFA079C019422
:1027B0005BE00398029C08300C90039906980E7811
:1027C000019A039F049D0138C1B2AB1801370D96E1
:1027D000661803979DB2B7B28023161C0822089191
:1027E000029205930D980599084221D0301C211CB6
:1027F0002A1C3B1C00F050FFA81B3E1B411C01364D
:102800004E43B6B2002E04D0099800F031FF013ECD
:10281000F7E76A1C089B059896B2029A01335D1986
:102820004108013AADB205910292002ADAD115E0D1
:102830000B9A002AEDD0301C3B1CAE1B211C2A1C1D
:1028400000F02AFF731C3E1B01365E43B6B2002E19
:10285000DFD00A9800F00CFF013EF7E7039F0C9EC3
:102860001C19A4B2B742A8D19EE701980FB0F0BDE1
:1028700070180010741800101A4B0000F0B589B0E1
:102880001C1C0EAB0E1C1988151C10AB0FAA059151
:102890001788197806970791002C00D1012480220F
:1028A0001702B84210D1194F38884308281C0493E6
:1028B00001F0D0FAE1004143049A4808131A3F8816
:1028C00099B2B94280410840802213029E4218D139
:1028D0000F4EA70031884A08D31B9FB28F42B641E2
:1028E0003E400EE00599069B079F00910193311C25
:1028F0000297231CFFF7FCFE044A01351188814230
:1029000002D32A78002AEDD109B0F0BD701800106A
:1029100074180010F0B58DB00793089112AB5142B6
:102920008DB2041C188803956E460C270290BB5F7D
:102930000798590001314143079E5B434843524386
:102940007643C5180693520077000023059004953E
:102950000A920B97019368460C210D5E002D00DD55
:1029600082E06B460C25EE5A9F88604BA01B089AAC
:1029700085B21888B91809978FB2A84210D95C4A55
:102980001188B9420CD901F039F9281C391C2A1CCC
:102990003B1C00F081FE029800F06AFE01F024F971
:1029A000524B36191888B6B2B04210D9504A118825
:1029B000B9420CD901F022F9301C391C321C3B1CE5
:1029C00000F06AFE029800F053FE01F00DF9474A4C
:1029D000089F099B1188F81A87B2B14210D9444B5D
:1029E0001888B8420CD901F009F9301C391C321C86
:1029F0003B1C00F051FE029800F03AFE01F0F4F8A2
:102A00003A4E3288AA4210D939490B88BB420CD9B8
:102A100001F0F4F8281C391C2A1C3B1C00F03CFE79
:102A2000029800F025FE01F0DFF8049D05986F0084
:102A300087420ADB039E059B0B99049801365D18BB
:102A4000B2B24619039205950496069A974200DDA4
:102A500081E7019F0A99049855180137BBB24619BE
:102A600001930695049676E700256A460420165ED3
:102A7000079BAF199F4236DA1C4F3888A04216D9FF
:102A8000089A019901321A485618731902889EB2A1
:102A9000B2420CD901F0B2F8201C311C221C331CAC
:102AA00000F0FAFD029800F0E3FD01F09DF83F8888
:102AB000A74216D90899019B0D4ACE1A013E701BF8
:102AC000118887B2B9420CD901F098F8201C391C42
:102AD000221C3B1C00F0E0FD029800F0C9FD01F053
:102AE00083F80135C1E70DB0F0BDC0467018001085
:102AF00074180010F0B58BB00193534208900991FF
:102B000098B292B200210590049207916F466C46EC
:102B100010251C372E5F00217B5E9E4200DAE9E023
:102B200068461022145A08991C230D1BAEB2724934
:102B3000185A0296099A0D88029E0694141A039058
:102B4000A7B2B54210D96D4B1888B8420CD901F024
:102B500055F80298391C021C3B1C00F09DFD0198A1
:102B600000F086FD01F040F8089A039C099E111BB5
:102B7000614A069B1488F01A8DB286B2AC4210D915
:102B80005E490B88B3420CD901F038F8281C311C7F
:102B90002A1C331C00F080FD019800F069FD01F053
:102BA00023F80698089A544984180B88A4B2A342C3
:102BB00010D952480288BA420CD901F01FF8201CE3
:102BC000391C221C3B1C00F067FD019800F050FDF1
:102BD00001F00AF8039F089947487B1802889FB2C2
:102BE000BA4210D945490B88B3420CD901F006F816
:102BF000381C311C3A1C331C00F04EFD019800F0CB
:102C000037FD00F0F1FF3C49039E09980B8832180C
:102C100096B2A34210D939480288B2420CD900F0CA
:102C2000EDFF201C311C221C331C00F035FD0198E7
:102C300000F01EFD00F0D8FF2F48069C099902887D
:102C400063189CB2BA4210D92C490B88A3420CD904
:102C500000F0D4FF381C211C3A1C231C00F01CFD82
:102C6000019800F005FD00F0BFFF234F029A38885D
:102C7000904210D921490B88B3420CD900F0BEFF15
:102C80000298311C021C331C00F006FD019800F074
:102C9000EFFC00F0A9FF184E3788AF4210D9174853
:102CA0000288A2420CD900F0A9FF281C211C2A1C72
:102CB000231C00F0F1FC019800F0DAFC00F094FF16
:102CC000039D059C6846291901354B199EB2B7B280
:102CD000059714300021425E002A07DB049D013D68
:102CE000ACB26100731A9EB204940596079F013737
:102CF00007970BE70BB0F0BD7018001074180010A8
:102D0000F7B50E1C1E491C1C08AB071C151C1888A7
:102D10000A880190974201D3571EBFB2194B1888F9
:102D2000864201D3461EB6B2954201D3551EADB2BE
:102D3000844201D3441EA4B2AF4203D96F407D4008
:102D40006F40BFB2A64203D9664074406640B6B237
:102D500000F054FF311C2A1C381C231C00F09CFC82
:102D6000E91BA51B013101354D43002D04D001980D
:102D700000F07EFC013DF8E700F036FFF7BDC046ED
:102D80007018001074180010F0B58FB0151C14AA3C
:102D9000061C148815A807882A1B30190397944627
:102DA000904200DBAEE00F190797079A1F1B0697AA
:102DB000BA4200DBA6E06746BAB2039F059280B232
:102DC000059A00970490FFF79BFF1C236846182282
:102DD0006946595A135A301C0993049A099B664252
:102DE00000970891A4B2FFF78BFF2A1C099B00975C
:102DF00005980899B5B2FFF783FF0795069400235D
:102E00000B936F4618216A462C23C85F9E5EB04222
:102E100078DB6D461824615B049F2C26781A775B5B
:102E2000089D82B2EC1B0A910399A6B20C92331C46
:102E300000910C98311C049AFFF762FF0498089DDA
:102E40000A9CC21B93B2291B03988DB20D93291CB7
:102E50002B1C0090049A0D98FFF752FF0A9A059BCD
:102E60000399D418A4B2201C331C0091059A311C7C
:102E7000FFF746FF059A0398BE18B6B2291C2B1C13
:102E80000090301CFFF73CFF099D03997B199DB210
:102E9000201C2B1C0091059A291CFFF731FF0A9C6E
:102EA000099A039BA01884B2211C301C0093059A38
:102EB000231CFFF725FF039E291C2B1C00960C9852
:102EC000049AFFF71DFF039D211C231C00950D98FC
:102ED000049AFFF715FF07996B467A180137D7193F
:102EE000B8B284B207941C26F55E002D07DB069964
:102EF00001398AB25700C01B84B2069207940B9B1B
:102F000001337DE70FB0F0BDF0B5544289B00590B4
:102F10000691A0B292B2002107930390029204910D
:102F20006F466B4608251037EE5E00217C5EA64298
:102F30004EDB684608221024245A155A0599069833
:102F40004B1B22186E1807999FB2B6B293B2381C69
:102F5000321C0091191CFFF7D3FE069B079A181B21
:102F600083B2191C381C0092321CFFF7C9FE059E63
:102F7000069B371BA119E818079A8EB283B2BFB21D
:102F8000381C191C0092321CFFF7BAFE06990798EC
:102F90004D1BABB2191C321C0090381CFFF7B0FE61
:102FA000039F6946E61901343419A5B2ABB2039305
:102FB0000C22505E002807DB029F013FBEB2740066
:102FC0002D1BABB202960393049901310491A7E73C
:102FD00009B0F0BDF0B58FB01F1C14AB84461C883F
:102FE00015A8161C0D1C624601881319301B03918D
:102FF00004930590834200DB29E129193B1B994288
:1030000000DB24E18AB298B20399099008926046E5
:103010000091099B111C6246FFF772FE6B4610225D
:10302000D05A694614235A5A03993B1C0091391C03
:103030000A900B92FFF764FE039F301C321C089924
:10304000099B0097FFF75CFE039E0A98291C0B9AC8
:103050002B1C00966542FFF753FEA4B2AAB20020D3
:10306000079206940D906E4618216B463436CF5E5B
:103070000021755EAF4200DAE9E06C461822105B71
:103080000A9B3425191A8FB2724B2C5B0497089A4D
:103090001988049F0C90101B059486B2B94210D970
:1030A0006D4D2C88B4420CD900F0A8FD0498311C59
:1030B000021C331C00F0F0FA039800F0D9FA00F07B
:1030C00093FD0A9A05980C9D131A624A0899108874
:1030D0004C1B9FB2A5B2B84210D95F4B1988A942C8
:1030E0000CD900F08BFD381C291C3A1C2B1C00F05D
:1030F000D3FA039800F0BCFA00F076FD0C9C0B9A12
:10310000544BA018198884B2A14210D9524A108891
:10311000B0420CD900F072FD201C311C221C331C63
:1031200000F0BAFA039800F0A3FA00F05DFD059EE6
:103130000B9B484AF11810888EB2B04210D9464B0A
:103140001988A9420CD900F059FD301C291C321CE9
:103150002B1C00F0A1FA039800F08AFA00F044FD5D
:103160003C4B059D099A1988A81885B2A14210D92F
:10317000394A1088A8420CD900F040FD201C291CB7
:10318000221C2B1C00F088FA039800F071FA00F062
:103190002BFD304A0C9C099B1088E1188CB2B04280
:1031A00010D92D4B1988A1420CD900F027FD301CF5
:1031B000211C321C231C00F06FFA039800F058FA0F
:1031C00000F012FD234E04983288824210D9224B1F
:1031D0001988A9420CD900F011FD0498291C021C81
:1031E0002B1C00F059FA039800F042FA00F0FCFCA6
:1031F000184D2E88BE4210D9174A1088A0420CD90B
:1032000000F0FCFC381C211C3A1C231C00F044FA82
:10321000039800F02DFA00F0E7FC059F079C6A4632
:103220003B190137D9198DB2AEB207961C32002175
:10323000505E002807DB069F013FBCB26300E91A1D
:103240008DB2069407950D9E01360D960BE70FB0D3
:10325000F0BDC0467018001074180010F0B5524D43
:103260008DB0039312AB041C2E881888069107902A
:10327000A11AB14200DB94E04C49069F039B0D88E4
:10328000F81AA84200DB8CE05642B6B237B27B0097
:1032900003980133434303995243494358437F43BF
:1032A00052004D00002305970490C7190A920B9510
:1032B000029330B2002835DCB5B2611B88B22A19FE
:1032C0006946082395B208905A5A0698099211182F
:1032D000079A8BB2191C009208982A1CFFF710FD60
:1032E000069B0998079A191A8BB20092191C2A1C7E
:1032F0000898FFF705FD049B7D009D4206DB0498BE
:103300000B9901364218B6B20492BF18059885424F
:10331000CFDC029D0A9901354218ABB202930592A7
:10332000BF18C6E700256E460827BA5F0399AB1899
:103330008B4236DA1C4F3888A04216D9069E029A74
:1033400001361A48B318591902888EB2B2420CD904
:1033500000F054FC201C311C221C331C00F09CF992
:10336000079800F085F900F03FFC3F88A74216D986
:10337000069B02990D4A5E1A013E701B138887B2A4
:10338000BB420CD900F03AFC201C391C221C3B1C0F
:1033900000F082F9079800F06BF900F025FC013588
:1033A000C1E70DB0F0BDC0467018001074180010D1
:1033B000F0B585B01F1C0AAB1E88051C141C3B1CF5
:1033C0002A1C00960391FFF79BFC281C391C221C29
:1033D0003B1C0096FFF794FC201C0399221C3B1C0D
:1033E0000096FFF78DFC03990096281C221C0B1CED
:1033F000FFF786FC05B0F0BDF0B58DB01E1C12AB1A
:10340000051C18880C1C171C0590954201D0B14270
:1034100008D1059A281C0092211C3A1C331CFFF786
:103420006FFC96E04C490A88954201D3551EADB217
:103430004A4B1888844201D3441EA4B2974201D358
:10344000571EBFB2864201D3461EB6B2791B8AB25E
:1034500093B2301B039383B2684699B20C30049147
:103460000021415E01200690002904DA52423C48C6
:1034700091B2039106906A4610218A5E012007905E
:10348000002A04DA5B42364A99B2049107926B46ED
:103490000C20C15A68464A000A91102193B20A5A78
:1034A0000893530098B20B92099000F0A7FB211CDF
:1034B0002A1C231C281C00F0EFF8059800F0D8F80F
:1034C00069460C226B461020525EC15E8A421EDDA8
:1034D000099E0A9AB31A9EB2BD421ED030B200288D
:1034E00005DB0799089A6418B61AA4B2B6B2069B0F
:1034F0000998ED18ADB281198EB2281C211C2A1C26
:10350000231C00F0C9F8059800F0B2F8E4E7089F22
:103510000B9ABB1A9FB2B44202D100F065FB18E0CF
:1035200038B2002805DB0699099A6D18BF1AADB2AA
:10353000BFB2079B0898E418A4B2C1198FB2281C27
:10354000211C2A1C231C00F0A7F8059800F090F815
:10355000E1E70DB0F0BDC0467018001074180010FF
:10356000FFFF00000C4B70B5051C18880C1C161CC6
:10357000A84210D909490A88A2420CD900F03EFBA2
:10358000281C211C2A1C231C00F086F8301C00F08B
:103590006FF800F029FB70BD70180010741800104F
:1035A00038B5041C00F02AFB164B17481A8801880E
:1035B000013A013900208BB292B2011C00F06CF884
:1035C00080252D01201C00F053F8201C00F050F83D
:1035D000201C00F04DF8201C00F04AF8201C00F0E0
:1035E00047F8201C00F044F8013D201C00F040F892
:1035F000ADB2201C00F03CF8002DE3D100F0F4FA4D
:1036000038BDC046701800107418001008B5054B7E
:10361000188000F055F90449044A0880000C108015
:1036200008BDC04672180010741800107018001001
:10363000014B18887047C04670180010014B18885D
:103640007047C0467418001010B5064B064907486D
:1036500000241C8004800C8000F01CFA201CFFF762
:10366000D5FF10BD701800107218001074180010EB
:1036700030B5084B8022FF2412010025010AA40066
:103680009D5019518021890099509D501851995091
:1036900030BDC04600000250F0B585B00292864AA7
:1036A000019016880091802080210393834A49016C
:1036B00000010024B42E6FD0FF258727AD007F00C6
:1036C000BE4200D1AFE0009F023303930237422392
:1036D00000975450145053515A2E32D080268023D4
:1036E000B700DE001750565054501450029B7F27ED
:1036F0007F42FB1ADFB2802357519F00175056506C
:1037000054501450019B7F277F42FB1ADBB2802765
:103710005351BB001350432780235650545014502C
:1037200057519F0017506B465650545014501B78F9
:103730005351175056500C27545014506C463C5D52
:10374000B2E080268023B700DE0017506B4656504B
:10375000545014501B7853516B4617500C3356502D
:10376000545014501B785351432317505650545003
:10377000145053511750565054501450019B02335B
:10378000DBB253511750565054501450029C02341F
:10379000E3B2535117508BE0FF239D004226802750
:1037A0008023545014505651BE00DD001650555021
:1037B00054501450019F0223BC469C446746FF238B
:1037C000FFB29B00D7501650555054501450029FD2
:1037D0000223BC469C446746FBB2FF27BF00D3517F
:1037E00043231650555054501450D35116507F2730
:1037F0005550545014507B42039F9C46DB1B019351
:103800006F463B79FF27BF00D35116505550545097
:103810001450009C63461F1BFF24FFB2A300D75027
:103820001650555045E042265450802714505651AA
:103830008026F600BB001350565054501450039B82
:103840007F277F42BC46FF1A03976B461F7B80236E
:1038500057519F001750565054501450009B6746C4
:10386000FF1A00976B461F78802357519F0017500F
:10387000432380275650545014505351BB001350CB
:10388000565054501450029F6346DB1B00936F4602
:103890003B7880275351BB0013505650545014505E
:1038A000019F6446E31BDCB254518025AF001750E2
:1038B000565005B0F0BDC04676180010000002500A
:1038C000F0B51B2813D006D80E2810D012280CD023
:1038D000092808D10EE0B42807D087235900884270
:1038E00005D05A2806D0002605E0B42603E087203C
:1038F000460000E05A26364A8024364B1680A50141
:10390000002280278020FF245A5179010001A40061
:10391000B42E2DD087256F00BE4229D08026B50059
:10392000422780265A50F6001A501F5102271D5078
:10393000BC465E505A501A501F5181271D505E5090
:103940005A501A501F5143271D505E505A501A505A
:103950001F5167461D505E505A501A501F511D503E
:103960005E505A501A5081221A511D505E5028E064
:103970004225802780265A50B6001A501D51FD005E
:1039800002271E50BC465D505A501A501F518127C5
:103990001E505D505A501A501F5143271E505D5003
:1039A0005A501A501F5167461E505D505A501A50B7
:1039B0001F511E505D505A501A5081221A511E50EC
:1039C0005D50802180240801A60198510248F0BD75
:1039D000761800100000025080008000044A802306
:1039E0009801002180231150190111507047C046E1
:1039F00000000250F8B5264C8023071C00229801D5
:103A00008025802622506D01360197421CD1FF226D
:103A100093005021802280206751A751E1508100FE
:103A2000D300A15114206351FCF7AEFEFF20802289
:103A300067518100A75193002D276750A35180261D
:103A4000F700675178201BE0FF23980000212C2706
:103A500061518022A151275080279100FF00A15180
:103A600078206751FCF790FE0023FF22635151201C
:103A7000A3519100802360509800A05167511420F9
:103A8000FCF782FE8025802128018A01A050F8BD24
:103A900000000250F0B593B03D494522684600F061
:103AA000CDF93C4C8023180221583B4A3B4D114331
:103AB00021506659802732436251FE0000251420B0
:103AC000A551FCF761FE80235800A0517820FCF737
:103AD0005BFE80218A01A5506F46785D3F26013547
:103AE000031CADB2B343802B1ED0C02B33D0402B70
:103AF00034D130402B1C29188AB29A4229D0802612
:103B000080217201090100266F46FF5CA6506650B5
:103B1000FF26B600A7518027BE00665080210133E2
:103B2000CF009BB2A750E6E730402B1C2A1896B274
:103B30009E420ED06F468022FE5C00211701FF22BC
:103B4000E1519100665080260133B2009BB2E251F0
:103B5000ECE71D1C02E03040FCF716FE442DBBD9FB
:103B60008020C1018023FF2680201F010022B50094
:103B700083000139E2516251E351E2516251E35154
:103B80009142EFD180240349A2018F5013B0F0BDC0
:103B90001A52000000000250FF0F0000FC3F00001E
:103BA000054B8022120100219950FF2189005850B5
:103BB000802081009950704700000250094B8022FC
:103BC000802110B55201002409019C505C50FF2453
:103BD000A4001851802084005C508021C8009850B7
:103BE00010BDC0460000025080218023024A080117
:103BF000990150507047C046000002508023024A8D
:103C0000002198011150704700000250CA1751401E
:103C10008B1A17D0C1174A4004B44840411A4808CB
:103C20001A0000E052008242FCD9002000E0520855
:103C3000914200D3891A40419A42F8D104BC5040C5
:103C4000801A7047002070470A000FD00300400818
:103C500000E052008242FCD9002000E0520893426A
:103C600000D39B1A40418A42F8D170470020704728
:103C70000A0010D00300400800E052008242FCD944
:103C8000002000E05208934200D39B1A40418A4230
:103C9000F8D11900704700207047C04603B4714640
:103CA000490840004900095A49008E4403BC704746
:103CB00002B4714649084900095C49008E4402BCBF
:103CC0007047C04608B5031C0278002A06D0416838
:103CD0000878002805D00131596004E04068804729
:103CE00001E00123584208BD70B5041C806800281B
:103CF0000AD0236862685D1CAD1A6E1EB5416E4223
:103D00003140934200D2C154E368002B06D02068B2
:103D10006268904202D2081C211C98472168013138
:103D2000216070BDF8B5151C4C1E15D4C6B2012318
:103D30001F1C2740101C311CFFF7D6FF013C0CD282
:103D40000AE0281C311CFFF7CFFF013C281C311C66
:103D5000FFF7CAFF013CF4D2F8BD002FF1D0281CB8
:103D6000311CFFF7C1FF013CEBD2F5E710B5C306EC
:103D700006D42023840500D53023181CFFF7D2FF7A
:103D800010BDC046031C413B002019229A4240410D
:103D90007047C046031C613B002019229A424041F3
:103DA0007047C046031C303B002009229A42404124
:103DB0007047C04638B5041C0D1CFFF7F3FF002800
:103DC00002D0201C303811E0201CFFF7E3FF002850
:103DD00002D0201C573809E0201CFFF7D3FF002831
:103DE00002D0201C373801E001204042A84201DB0C
:103DF0000121484238BDC046021C093A0123042A69
:103E000003D9031C203B58424341181C7047C0464D
:103E10000EB400B586B007AA08CA05920390002325
:103E200004930548029001A8079900F01BF806B01A
:103E300008BC03B01847C046FFFFFF7F8446002A36
:103E400005D00B78037001300131013AF9D1604699
:103E50007047C046411C02780130002AFBD1401A4D
:103E60007047C046F0B55F4656464D464446F0B4EE
:103E70008BB00C1C0592002303609946051C63E27D
:103E8000252906D0281CFFF72FFF341C5CE2261CD6
:103E90000BE010239A462020804680273A02944661
:103EA000802740212C1C4D46A3463078741C031CEF
:103EB000203BDAB2102A14D89300C64AD3589F4642
:103EC0000D43E4E73D43E2E766463543DFE743461B
:103ED0001D43DCE752461543D9E78026B000054371
:103EE000D5E75F46AB463D1C5A462A2805D0011C43
:103EF00030394B4609290DD917E0059C201D059046
:103F00002368002B03DA5B4210210A439346707842
:103F1000B41C0AE09E00F3185F0030383B1820788C
:103F20000134021C303A092AF4D9DE43F7173B402A
:103F30000293CA462E2825D120782A2805D001349C
:103F4000031C303B092B08D917E00598021D059288
:103F500001688A46607802340CE04F46BA00D119F5
:103F60004E003038371820780134031C303B092BC1
:103F7000F4D9BA465646002E04DB80277B005A4609
:103F80001A43934668280ED12078682806D108275E
:103F90005846384383466078023404E001340426EE
:103FA000594631438B46782803D883008A4AD6582D
:103FB000B7468A4F3E68002E00D1C5E151460091B8
:103FC00005AA0192291C5A46029BB047BCE1281C55
:103FD0002521FFF789FEB7E10598031D05930678B3
:103FE00002998A4601277A429244584651462A1C31
:103FF000FFF7BCFE281C311CFFF776FED846404672
:10400000C00600D4A0E1202051462A1CFFF78AFEFA
:104010009AE15846010706D50598021D05920368E6
:104020002E681E7090E1059B1E1D059619682F686D
:104030000F6089E10598011D05910668002E00D1E9
:10404000674E684F5B463B409846301CFFF702FFC7
:10405000071C5A46D20502D5504500DD5746029846
:10406000C11B8A4640462A1CFFF780FE002FC6D09F
:10407000B3467B1E01221A4002923178281CFFF7BA
:1040800033FE0136013F002F00D081E1B7E7A346A0
:10409000FFE73178281CFFF727FE7178281CFFF70F
:1040A00023FE0236023F002FF3D15C46A7E7059EB0
:1040B000371D0597376859460B06DE172322324015
:1040C000904680235E0031438B4608218A466FE08C
:1040D00080239E0159460E43090609D4B346C846BB
:1040E00009E0C84659460A0605D53F4FB84602E0E2
:1040F000B3463E4FB8465A46D20520D5394B5E46A8
:104100001E40B3461BE05F463A06D31730261E40DA
:10411000B046FB0513D5334F5A463A4093460EE05E
:10412000C8465B46DA050AD52E4A5E461640B346B7
:1041300005E08021CF015A463A439346C846594686
:104140004B0419D5059B1A1D05921F685E46710721
:1041500001D53FB203E0320701D5FF231F40002FF6
:1041600003DA7F422D2290461BE05A46910613D473
:104170005E46720613D414E0059F3A1D05923F680F
:104180005B465B0702D53F043F0C0AE05E46310701
:1041900007D5FF210F4004E02B23984601E02021A2
:1041A00088465E46F10506D50E495B460B409B46A8
:1041B0005A46D30501D40126B2465838C0B2202849
:1041C00065D882000A4B9E58B7464E460720002FFE
:1041D00033D15FE080520000C45200007818001014
:1041E0002C550000FFFDFFFF783000005830000024
:1041F000A85400004E46002F28D14BE0002F48D095
:104200004E468022930159460B400F22684884464F
:104210000394002B06D0101C38406446205C07A98C
:10422000705405E0111C3940624C605C07A9705461
:1042300001363F09EDD1039C2CE0011C394030319F
:1042400007AAB1540136FF08F7D123E080231902F1
:104250005846084003900494041C002C07D0032205
:104260003240032A03D107AB2C2199550136381C63
:104270000A21FFF7FDFC303107A881550136381CB3
:104280000A21FFF7E1FC071EE7D1049C02E04E463D
:1042900000E04E465746BB1BDA43D7171F40029833
:1042A000C11B8A1BFF23434580414142521A4346AA
:1042B000591E8B41D01A8246584680218A001042EE
:1042C00004D151462A1CFFF751FDCA464346FF2B35
:1042D00003D9190A281CFFF707FD4046002803D020
:1042E000C1B2281CFFF700FD584651462A1CFFF7B3
:1042F0003DFD3020391C2A1CFFF714FD013E1BD464
:1043000007AFBE196F461B37B91B01228A4390467F
:104310003178281CFFF7E8FC013EBE422DD10BE0AE
:104320003178281CFFF7E0FC013E3178281CFFF7AC
:10433000DBFC013EBE42F3D15846C10604D5202025
:1043400051462A1CFFF7EEFC2178661C002900D09C
:1043500096E5281CAF68002F04D02A686C68A2423A
:1043600000D2B954006801E0012670420BB03CBC99
:1043700090469946A246AB46F0BD4346002BCFD0AF
:104380003178281CFFF7B0FC013EBE42C8D1D3E70C
:104390000298002800D17AE659464978281CFFF790
:1043A000A3FC0136013FA346002F00D071E626E6AC
:1043B000705200006052000010B5041C0B78002BF6
:1043C00005D0431C05D048680138486001E0896881
:1043D0008847201C10BDC046F0B55F4656464D4686
:1043E0004446F0B483B08146019193461F1C0123DB
:1043F0005842824600E0A246544601344846FFF740
:1044000061FC051CFFF7F8FC0028F4D1691C00D101
:104410009DE0734E5A4616400C9900293FDD120666
:1044200012D52B2D04D02D2D0BD18024E5002E4349
:10443000544602344846FFF745FC051C0C980138E9
:104440000C900C9B002B2ADD302D28D1802291006E
:1044500031438A460C9D013D0C95601C80464846C0
:10446000FFF730FC051C0C9B002B15DD782801D0D4
:10447000582811D1002F01D0102F6FD1594A164062
:10448000B2460C9E013E0C960234A0464846FFF709
:1044900019FC051C102761E0002F5ED05EE0002FA4
:1044A00000D10A270C9900292CDD0B19009300225A
:1044B0009046802188008346E343009A99180120A2
:1044C00008408246281C391CFFF774FC002850DA8B
:1044D0001AE05D462E4343467B43C01880460134B4
:1044E000A2464846FFF7EEFB051C391CFFF762FCAD
:1044F000002864DA08E0281C391CFFF75BFC002860
:10450000E7DA01E000208046281C4946FFF754FF07
:10451000B2051FD5F30724D4019F3868021D3A6005
:1045200001689025EB00371C1F409F4202D1404696
:1045300042429046F30602D543460B7011E0330722
:1045400002D545460D800CE046460E6009E001218B
:104550004C4206E00224644203E0082744465646E3
:10456000A0E7201C03B03CBC90469946A246AB464F
:10457000F0BD5D462E4343467B43C218904601344E
:104580004846FFF79FFB051C00998C42BCD0504663
:104590000028B0D0281C391CFFF70CFC0028B3DB26
:1045A0005D462E4343467B43C2189046013448463D
:1045B000FFF788FB051C00998C429CD1A4E75C4660
:1045C000264342467A438118884654460134484679
:1045D000FFF778FB051C009B9C4200D08BE793E71C
:1045E000FFF9FFFFFFFDFFFFF0B55F4656464D4662
:1045F0004446F0B48BB080460D1C09920020049014
:1046000000210291CB4A934620239A4644460394C4
:10461000A9464F4638784C460134002800D1CAE1FB
:10462000252837D0051CFFF7E7FB002819D0207894
:104630000134FFF7E1FB0028F9D1013CA146049DBC
:10464000039E00E00135301CFFF73CFB071CFFF721
:10465000D3FB0028F6D10495381C0399FFF7ACFE74
:10466000D7E70398FFF72EFBA84204D1049B013340
:104670000493A146CDE7061C03988146029C301C9A
:104680004946FFF799FE013600D094E1002C00D096
:1046900091E182E1797800252A2902D14C46023441
:1046A000012500270BE05F4500DD84E1BA00D01949
:1046B0004100303E8F1900D57DE1564635432678BE
:1046C0000134301CFFF76EFB0028ECD1221C331C98
:1046D000291C5046284200D1974F4C2B04D1167804
:1046E000541C44250D430CE0682B0AD11678682E23
:1046F00004D110250D435678941C02E0541C082563
:104700000D43321C253A532A00D954E193008B49BA
:10471000C85887460398FFF7D5FA252804D1049F87
:1047200001370497A14674E7061C03988446029C4F
:10473000301C6146FFF740FE751C00D03BE1002CA9
:1047400000D038E101214B42029334E153462B4221
:1047500000D101270121294088460025002903D1E5
:10476000099D2E1D09962D68002F00D123E128DD1B
:104770000498C2199146049FFB434B4401210E1C2F
:104780001E40013704970398FFF79CFA421C00D0A3
:1047900019E108E04646FFE7049F01370398FFF759
:1047A00091FA431C07D10298002800D003E10123AD
:1047B00059420291FFE0002E00D024E1287001351B
:1047C00021E1A1464446002C00D022E7029D01359C
:1047D00002951EE780222A430097039809A90A231D
:1047E000FFF7FAFD0590BEE080222A430097039868
:1047F00009A90023FFF7F0FD0590B4E0A146EB07FF
:1048000000D506E70998021D09920368E80604D559
:104810006C461020025D1A70FBE62A0705D56F462C
:104820001021CE5B1E80A146F3E6049D1D60A146CB
:10483000EFE680222A430097039809A90823FFF78F
:10484000CBFD05908FE01E262A1CB24300970398EB
:1048500009A91023FFF7C0FD059084E001267242EC
:104860000592A046A946161C039D0136281CFFF799
:1048700029FA041CFFF7C0FA0028F6D14D46059628
:10488000231C44469846321C01334ED00121294056
:104890000691089000D084E00998061D09960368E7
:1048A00008937EE0069C002C01D12E7001357C1C03
:1048B000271C0398FFF706FA061C079884421ED0AF
:1048C000731C00D0CAE044460597B04608954D4693
:1048D00020E0A946059F4646A046089D04E0A9465B
:1048E000059F4646A046089D301CFFF785FA002824
:1048F000D8D044460597B04608954D460AE0444650
:104900000597B04608954D4604E044460597B046E5
:1049100008954D4640460399FFF74EFD069A002A3A
:1049200021D10020089908701DE001235F420597FE
:1049300019E0C046CCCCCC0CFFFFFF7F3455000003
:1049400080222A430097039809A90A23FFF744FD10
:10495000059008E080222A430097039809A91023B4
:10496000FFF73AFD0590059E002E09DA029C059F8F
:10497000781C20D1002C1ED10122554202951AE04C
:1049800001273D406A426A41029DA818029004999D
:10499000059BCE180496A1463BE601214A420292AD
:1049A00009E0002FB6DDBF180797059AD143C81953
:1049B000C1078ED539E002980BB03CBC90469946B1
:1049C000A246AB46F0BD4246002A01D1287001350F
:1049D0000498484500D1F4E6002E00D1DAE6071C21
:1049E000013704970398FFF76DF9411C00D1DAE60F
:1049F0004346002B01D128700135049946464945AC
:104A000000D0C9E6DDE6013704970398FFF75AF9AD
:104A1000411C00D1C7E6002E01D128700135049A4F
:104A20004A4500D0B8E6B046CBE64046FFF7E4F989
:104A3000002800D06EE7069E002E04D14346089F52
:104A40003B7001370897059A013205920398FFF7EA
:104A500039F98046431C00D041E75BE7301CFFF783
:104A6000CBF9002800D050E7069B002B01D12E7017
:104A70000135671C0398FFF725F9061C411C00D07F
:104A800032E744460597804608954D4642E7C046C2
:104A900038B5041C0D1C00F013F8074B1D60802076
:104AA000044306490C600A1C1468002CFCD100F079
:104AB00009F8014D286838BD7C18001080180010D6
:084AC0007047C0467047C04674
:104AC80076302E3035002844656320203920323076
:104AD800313329007761747465726F74742E636F53
:104AE8006D0050253033692048253033692056251C
:104AF800303369004E415600454E4300707265736D
:104B080073004E6F20636F6E66696720646174611D
:104B18002E000000000000000000307878303000DF
:104B280030006C6C6C00000000006C6CFE6CFE6C5D
:104B38006C00307CC0780CF8300000C6CC183066A9
:104B4800C600386C3876DCCC76006060C0000000A7
:104B58000000183060606030180060301818183095
:104B6800600000663CFF3C660000003030FC3030DE
:104B780000000000000000703060000000FC000031
:104B880000000000000000303000060C183060C043
:104B9800800078CCDCFCECCC780030F03030303061
:104BA800FC0078CC0C3860CCFC0078CC0C380CCCF1
:104BB80078001C3C6CCCFE0C0C00FCC0F80C0CCC37
:104BC80078003860C0F8CCCC7800FCCC0C18306089
:104BD800600078CCCC78CCCC780078CCCC7C0C1825
:104BE80070000000303000303000000030300070BD
:104BF8003060183060C0603018000000FC00FC0015
:104C080000006030180C1830600078CC0C183000A8
:104C180030007CC6DEDEDEC078003078CCCCFCCC40
:104C2800CC00FC66667C6666FC003C66C0C0C0665C
:104C38003C00FC6C6666666CFC00FE626878686224
:104C4800FE00FE6268786860F0003C66C0C0CE6610
:104C58003E00CCCCCCFCCCCCCC00783030303030E2
:104C680078001E0C0C0CCCCC7800E6666C786C6670
:104C7800E600F06060606266FE00C6EEFED6C6C65C
:104C8800C600C6E6F6DECEC6C600386CC6C6C66C1A
:104C98003800FC66667C6060F00078CCCCCCDC78B0
:104CA8001C00FC66667C786CE60078CCE0381CCC8E
:104CB8007800FCB4303030307800CCCCCCCCCCCCC4
:104CC800FC00CCCCCCCCCC783000C6C6C6D6FEEE28
:104CD800C600C6C66C386CC6C600CCCCCC783030A2
:104CE8007800FECC983062C6FE0078606060606034
:104CF8007800C06030180C060200781818181818C8
:104D0800780010386CC600000000000000000000A9
:104D180000FF30301800000000000000780C7CCC48
:104D28007600E0607C666666BC00000078CCC0CC8B
:104D380078001C0C0C7CCCCC7600000078CCFCC035
:104D48007800386C60F06060F000000076CCCC7CB5
:104D58000CF8E0606C766666E60030007030303043
:104D68007800180078181818D870E060666C786CAD
:104D7800E60070303030303078000000ECFED6C6E7
:104D8800C6000000F8CCCCCCCC00000078CCCCCC51
:104D980078000000DC66667C60F0000076CCCC7C95
:104DA8000C1E0000D86C6C60F00000007CC0780C11
:104DB800F80010307C30303418000000CCCCCCCC5B
:104DC80076000000CCCCCC7830000000C6C6D6FEF9
:104DD8006C000000C66C386CC6000000CCCCCC7CE3
:104DE8000CF80000FC983064FC001C3030E03030D7
:104DF8001C001818180018181800E030301C303043
:104E0800E00076DC00000000000010386CC6C6C662
:104E1800FE0078CCC0C0CC78306000CC00CCCCCCC4
:104E28007E00183078CCFCC078007EC33C063E6615
:104E38003F00CC00780C7CCC7E006030780C7CCCB9
:104E48007E003C663C063E663F000078CCC0CC78CD
:104E580030607EC33C667E603C00CC0078CCFCC0F1
:104E68007800603078CCFCC07800CC0070303030EE
:104E780078007CC6381818183C0060307030303024
:104E88007800CC3078CCCCFCCC0030483078CCFCE6
:104E9800CC001830FC607860FC0000007F0C7FCCF0
:104EA8007F003E6CCCFECCCCCE0078CC0078CCCC4D
:104EB800780000CC0078CCCC780060300078CCCC7E
:104EC800780078CC00CCCCCC7E00603000CCCCCC48
:104ED8007E0000CC00CCCCFC0CF8C6007CC6C6C654
:104EE8007C00CC00CCCCCCCC780000007CCED6E6C4
:104EF8007C00386C64F060E6FC003A6CCED6E66C58
:104F0800B8000000CC783078CC000E1B187E18183A
:104F1800D8701830780C7CCC7E0018307030303067
:104F280078000C180078CCCC78000C1800CCCCCCCD
:104F38007E0076DC00F8CCCCCC0076DC00ECFCDC27
:104F4800CC003C6C6C3E007E00003C66663C007EFB
:104F5800000030003060C0CC78003C5AA5B9A96682
:104F68003C00000000FC0C0C0000E66C787E63CE70
:104F7800981FE66C787367CD9F0300180018183CDB
:104F88003C18003366CC6633000000CC663366CC30
:104F98000000228822882288228855AA55AA55AA64
:104FA80055AADD77DD77DD77DD771818181818181A
:104FB800181818181818F81818180C183078CCFC85
:104FC800CC0078843078CCFCCC00C0603078CCFC45
:104FD800CC003C42B9A1B9423C003636F606F6365A
:104FE800363636363636363636360000FE06F6366D
:104FF80036363636F606FE00000018187EC0C07E2B
:105008001818CCCC78FC30FC303000000000F818C0
:105018001818181818181F00000018181818FF007A
:10502800000000000000FF181818181818181F189A
:10503800181800000000FF00000018181818FF18C2
:10504800181876DC780C7CCC7E0076DC3078CCFCCA
:10505800CC00363637303F00000000003F3037368E
:1050680036363636F700FF0000000000FF00F7363E
:10507800363636363730373636360000FF00FF0012
:1050880000003636F700F73636360082FE6C6CFEC6
:105098008200D870D80C3C6C3800FC6C66F6666CE4
:1050A800FC007884FC607860FC00CC00FC607860D0
:1050B800FC006030FC607860FC0000C040E000004C
:1050C800000018307830303078007884783030300C
:1050D8007800CC0078303030780018181818F800AC
:1050E8000000000000001F181818FFFFFFFFFFFF57
:1050F800FFFF00000000FFFFFFFF18181800181836
:1051080018006030783030307800FFFFFFFF000073
:10511800000018307CC6C6C67C000078CCF8CCF8F5
:10512800C0C07C827CC6C6C67C0030187CC6C6C699
:105138007C0076DC0078CCCC780076DC7CC6C6C6F1
:105148007C0000666666667C60C000E0786C78600B
:10515800F000F0607C667C60F0001830CCCCCCCCE1
:105168007800788400CCCCCC78006030CCCCCCCC27
:105178007800183000CCCCFC0CF81830CCCC783047
:10518800780000FC0000000000001830000000005B
:10519800000000000000FC0000003030FC3030004F
:1051A800FC00000000FC00FC0000E62C7833E7CD92
:1051B8009F037FDBDB7B1B1B1B007EC378CCCC787B
:1051C8008CF8303000FC0030300000000000000097
:1051D8003060386C6C380000000000CC0000000023
:1051E80000000000000018000000387818187E0041
:1051F80000000030383C3C38300000666666666661
:105208006600007E7E7E7E7E7E000000000000003C
:1052180000004150D4412CD4420201D4422601D48A
:10522800422609D442260BD442260FD4421001420A
:105238002002422402422801422AD042300042324F
:105248000E42340D42360041614240004342028121
:10525800434302814151D40030313233343536373B
:1052680038396162636465663031323334353637D4
:105278003839414243444546C03E0000E23E000002
:10528800E23E0000C43E0000E23E0000E23E0000B4
:10529800E23E0000C83E0000E23E0000E23E0000A0
:1052A800E23E0000CE3E0000E23E0000D43E000098
:1052B800E23E0000E23E0000DA3E000068430000E3
:1052C800B23F0000B23F0000B23F0000B23F000012
:1052D800B23F0000B23F0000B23F0000B23F000002
:1052E800B23F0000B23F0000B23F0000B23F0000F2
:1052F800B23F0000B23F0000B23F0000B23F0000E2
:10530800B23F0000B23F0000B23F0000B23F0000D1
:10531800B23F0000B23F0000B23F0000B23F0000C1
:10532800B23F0000B23F0000B23F0000B23F0000B1
:10533800B23F0000B23F0000B23F0000B23F0000A1
:10534800B23F0000B23F0000B23F0000B23F000091
:10535800CE3F0000B23F0000B23F0000B23F000065
:10536800B23F0000B23F0000B23F0000B23F000071
:10537800B23F0000B23F0000B23F0000B23F000061
:10538800B23F0000B23F0000B23F0000B23F000051
:10539800B23F0000B23F0000B23F0000B23F000041
:1053A800B23F0000B23F0000B23F0000B23F000031
:1053B800B23F0000B23F0000B23F0000B23F000021
:1053C800B23F0000B23F0000B23F0000B23F000011
:1053D800B23F0000B23F0000B23F0000B23F000001
:1053E800B23F0000B23F0000B23F0000B23F0000F1
:1053F800B23F0000B23F0000B23F0000B23F0000E1
:10540800B23F0000B23F0000B23F0000B23F0000D0
:10541800B23F0000B23F0000B23F0000D0400000A1
:10542800B23F0000B23F0000B23F0000B23F0000B0
:10543800B23F0000B23F0000B23F0000B23F0000A0
:10544800B23F0000B23F0000D83F000032410000E8
:10545800B23F0000B23F0000B23F0000B23F000080
:1054680032410000B23F0000B23F0000B23F0000EE
:10547800B23F00001240000006410000AE400000AC
:10548800B23F0000B23F000034400000B23F0000CD
:1054980020410000B23F0000B23F0000E24000009F
:1054A800FC4100008E4200008E4200008E42000047
:1054B8008E4200008E4200008E4200008E420000A4
:1054C8008E4200008E4200008E4200008E42000094
:1054D800F44100008E4200008E4200008E4200001F
:1054E8008E420000F44100008E4200008E4200000F
:1054F8008E4200008E4200008E420000CA41000029
:10550800FC4100008E4200008E4200008E420000E6
:105518008E420000F44100008E4200008E420000DE
:10552800FC410000286E756C6C29000014470000CF
:10553800B6490000B6490000B6490000B649000067
:10554800B6490000B6490000B6490000B649000057
:10555800B6490000B6490000B6490000B649000047
:10556800B6490000B6490000B6490000B649000037
:10557800B6490000B6490000B6490000B649000027
:10558800B6490000B6490000B6490000B649000017
:10559800B6490000B6490000B6490000B649000007
:1055A800B6490000B6490000B6490000B6490000F7
:1055B800B6490000B6490000B6490000B6490000E7
:1055C800B6490000B6490000B6490000B6490000D7
:1055D800B6490000B6490000B6490000B6490000C7
:1055E800B6490000B6490000B6490000B6490000B7
:1055F800B6490000B649000054490000B649000009
:10560800B6490000B6490000B6490000B649000096
:10561800B6490000B6490000B6490000B649000086
:10562800B64900004C470000D4470000B6490000C6
:10563800B6490000B6490000B6490000E847000036
:10564800B6490000B6490000B6490000B649000056
:10565800FC4700003248000046480000B6490000F8
:10566800B64900005C480000B64900004049000007
:0C567800B6490000B6490000544900008B
:10568400807F0000001BB700802500003D1F000044
:1056940020000000B91D0000911F00006D1D0000D6
:0C56A400DD1C0000D11E0000951D000060
:04000003000001ED0B
:00000001FF
