:10000000C01D0010ED010000F5010000F701000027
:10001000F9010000FB010000FD01000076D6FFEFB2
:10002000000000000000000000000000FF010000D0
:10003000010200000000000003020000C9030000EC
:10004000070200000702000007020000070200008C
:10005000070200000702000007020000070200007C
:10006000070200000702000007020000070200006C
:1000700007020000090200000B020000F531000039
:100080000F02000011020000130200001502000020
:10009000B1330000B934000000000000000000008F
:1000A0001B0200001D0200001F02000000000000F3
:1000B000210200002302000025020000E9340000B4
:1000C0002F49072291438D462E492F480A1A06D000
:1000D0000722914381F30988022282F314882B4876
:1000E0002B492C4A00F039F82B482C492C4A00F0B7
:1000F00034F82C482C492D4A00F02FF82C482D4973
:100100002D4A00F02AF82D482D492E4A00F025F8F6
:100110002D482E492E4A00F020F82E482E49002264
:1001200000F026F82D482E49091A082903DB002281
:100130000260043001601F481F49884205D00268F0
:10014000043003B4904703BCF7E700208646EC4632
:1001500000200021234A9047FEE7884207D0521A28
:1001600005D0037801300B700131013AF9D17047A5
:10017000884202D002700130FAE770471A4870478F
:10018000C01D0010C01D0010C01D001068540000EC
:10019000000000102C0000103002000030020000AF
:1001A000B848000068540000000000100000001073
:1001B000B8480000B8480000B8480000B84800003F
:1001C000B8480000B8480000B8480000B84800002F
:1001D000685400002C000010C0180010C018001057
:1001E000C019001011120000FFFFFFFF0E480F4959
:1001F000016065E7FEE7FEE7FEE7FEE7FEE7FEE7F4
:10020000FEE7FEE7FEE7FEE7FEE7FEE7FEE7FEE7C6
:10021000FEE7FEE7FEE7FEE7FEE7FEE7FEE7FEE7B6
:10022000FEE7FEE7FEE7FEE7008004400200000074
:10023000564BF7B5564C984217D006D855498842C8
:100240000CD0554A904206D10BE0544DA8420FD035
:10025000534EB0420FD02060002704E020600027FA
:100260000BE020604127002208E02060412704E0E5
:1002700020604227F7E720602227012272B6494B0F
:100280008E2081005D58002A05D0202085435D50D6
:100290000021196202E00326B5435D50C826C0461E
:1002A000013E002EFBD101251A645D645E645D642D
:1002B000596C01263B483142FAD0002F15D0876097
:1002C0008E27B90045588026B5434550D96801208E
:1002D000344F0142FAD0032500263D6778677E67D8
:1002E00078675F6FF807FCD50DE0026746674767E0
:1002F00046675D6F2B4FED07FBD58E2081007D5843
:10030000802635437D508E218D00002A02D05A5917
:10031000032001E05A59202002435A512568224EF9
:10032000224BB54201D9022105E0214FBD4201D93E
:10033000012100E0002100261E4FD9601E613A68AD
:10034000281C1D49019203F077FB019A1B490138D3
:10035000030211401943281CFA253960A90003F053
:100360006BFB174F174B01387860186AC0250102E4
:100370000A0A280610431862BE6007263E60FF2066
:1003800003F066FA62B62068FEBDC0460048E80188
:10039000000000100024F40000366E010051250218
:1003A000006CDC0200800440FF5962020000014042
:1003B000FF2C310100C0014000093D00FF00FFFF9C
:1003C00010E000E000ED00E0524B53481A6801686D
:1003D000013230B51A60480734D5504C25680135D4
:1003E0002560052D2ED100234D4A2360D269950743
:1003F00000D503230120024200D04340494C256828
:10040000E81AC50707D52360474B02251C6828401A
:10041000013C20181860454B500711D41C6801346A
:100420001C60C72C05D9424D02202B6803432B606A
:1004300001E0132C06D93E4B01241A68224300E048
:1004400000221A600A0763D53A490A6801320A6035
:10045000192A5DD1384C324B00250D60D86F2368C6
:10046000206003401024191C2140344A09D134482B
:1004700005682C43046033481568046864190460F7
:100480000FE00121181C08400BD12D4920250C68D4
:100490002C430C602B4915680C681060641B0C60C1
:1004A00000E0116008211940274A09D1244840255D
:1004B00004682C43046025481568046864190BE03F
:1004C000022119400AD11E48802504682C4304608B
:1004D0001E4815680468641B046000E00121116077
:1004E0001B4A580712D4116801311160272905D918
:1004F0001348022504682C43046001E0032907D94E
:100500000F4B01211A680A431A6001E000231360AF
:1005100030BDC0462C100010341000103C100010EC
:100520000000015048100010541000103810001046
:100530004010001044100010581000104C10001013
:100540005C100010501000106410001030100010EB
:100550006010001072B6044B0322186802401A6043
:1005600062B680107047C0465410001000B50D4AA6
:100570000D4991230D48CB67D36793678268002AA2
:1005800002D00B4903230B604068002804D0084BBD
:10059000012219684A401A60064B074A0020186079
:1005A000106000BD004004400440044000000150C1
:1005B0004810001054100010401000100A4B9122F7
:1005C000191D9020CA679A679031DA671B18086076
:1005D0001A60064A002111600548064B064A016070
:1005E000116019607047C046004004405C10001064
:1005F00050100010301000105810001000B50528E1
:100600003BD010D804287AD13E4A022313603E4BD7
:1006100010201968014319601868802149040143BA
:100620001960111C1CE007283FD0FF2867D1354B0B
:10063000364A812119600821802311628B40D058ED
:100640000143D150324B012119602F4B20201968F2
:10065000014319601868802149040143196040E092
:10066000186A294A0028FBDA10682A4B03401360F5
:10067000126A91231004800D31E0254A224B01219A
:10068000116019682020014319601868802149040D
:1006900001431960111C586A1B4A0028FBDA1068D4
:1006A0001C4B03401360526A16E01B4A164B012193
:1006B000116019688020014319601868802149047D
:1006C00001431960111CD86A0F4A0028FBDA106830
:1006D000104B03401360D26A1204900D90230B60FC
:1006E0000EE0586A08490028FBDA0868094B034005
:1006F0000B60496A00230804800D136200E00020AB
:1007000000BDC0469040044000C0014000000150C0
:100710009440044000FFFFF898400440014B1868E3
:100720007047C0462C10001000B5034B19681A68BA
:10073000521A8242FBD300BD2C10001010B5041ECB
:10074000642C00D964242004001B642103F074F994
:10075000024BC1439961201C10BDC04600000140FE
:1007600008B5002802D1034B186801E0FFF760FDCF
:1007700008BDC0460000001070B572B62F4B1221A4
:100780001A1CFC328E20516584001D591020012254
:1007900085432B4E1D519A670433DE678021A023C9
:1007A000DC050B02E558274904262E400D1CA43514
:1007B000E650C86128604866E65808253540E5508F
:1007C000C86221488025C458AD001443C450002499
:1007D00044601E48C6583543C55080231E018451CD
:1007E0001B48554221238A638460C4600461046706
:1007F000446185614267C3634260164A16491668C0
:10080000301C03F019F9154D15490138FA2300027F
:1008100008602C609900301C03F00EF9114E124A4A
:1008200001387060106AC02301020D0A18062843BF
:100830001062B4600724346062B670BD008004406A
:100840005F210100004004400000035000000150FF
:10085000000001400000001000093D002C100010B5
:1008600000C0014010E000E000ED00E0F0B58FB006
:10087000179F14AC257815AE01AC36780697237116
:10088000169F074B22730391A0710D21201C054A6E
:10089000059766736571019303F076F80FB0F0BDAC
:1008A000EFBEADDE2C000010F0B5AA4D93B02A6863
:1008B0000C1C05900992FFF759FEF8200102042351
:1008C0000020FC262B60F70000912A22011C7F23C8
:1008D00001F078FC00972A20002154227F2301F0A8
:1008E00071FC1F257F22131C00210095542001F06C
:1008F00069FC9948FFF718FF201C01F0DFFF00207A
:1009000002F00EF8C822160228220025131C0096B9
:100910000A20142101F00AFF1921904A2B1C00968D
:10092000019502950F2001F05DFA5A2001F0F8FFC1
:10093000C823DF002822131C00970A20142101F08D
:10094000F5FE1921864A2B1C0097019502950F2070
:1009500001F048FAB42001F0E3FF19262822131C05
:1009600000960A20142101F0E1FE311C7D4A2B1C67
:100970000096019502950F2001F034FA872040007F
:10098000794F01F0CDFF2822131C0A201421009773
:1009900001F0CCFE311C754A2B1C00970195029585
:1009A0000F20734E01F01EFA281C01F0B9FF202120
:1009B0000B1C281C7F22009601F0DCFE40210B1C42
:1009C000281C7F22009601F0D5FE60210B1C281CFC
:1009D0007F22009601F0CEFE2020021C291C7F23DE
:1009E000009601F0C7FE4020021C291C7F230096C0
:1009F00001F0C0FE6020021C291C7F23009601F03C
:100A0000B9FE4020011C2822331C01F0F7FA022015
:100A1000011C584A2B1C00960195029501F0E2F941
:100A200080210802544A009601950295011C022378
:100A300001F0D8F901220495089507950692454DD5
:100A40002B68042B0DD1FFF785FD079D4B492A1814
:100A50000AA8079203F0D4F8494900230E680B60F6
:100A600014E04848089E0768474B00250560F119C7
:100A70001A68049808911D60444983180AA8089AC6
:100A8000049303F0BDF8424F3E683D60059A01258E
:100A900000920194029505200C210AAA002301F07E
:100AA000A1F93C4F002E3FD002237D6033402FD070
:100AB000284E316804290DD10598374A009020212D
:100AC000002301940295052001F08CF9FFF776FDD3
:100AD00008220CE0059B314A009320210023019459
:100AE0000295052001F07EF9FFF740FD0422FA256A
:100AF00068003260FFF718FE214E00213268316035
:100B00008A42F9D1224B18681A600028F4D10CE00F
:100B10002E420AD005980194009002951621204A91
:100B2000052001F05FF900E07E6002F013FE00286E
:100B300002D002F0CFFD0690069D002D00D07EE78A
:100B40007D60201C01F0BAFE024C099F276013B0A3
:100B5000F0BDC04634100010DC050000B8480000AD
:100B6000BC480000C048000019C80000C44800008C
:100B7000CF7B0000C8480000D0480000DA480000E1
:100B8000401000105010001030100010D548000028
:100B90005C10001000000350DF480000E348000034
:100BA000E7480000F0B589B00790081C0F1C0592BB
:100BB00001F084FE059B0224D8000490261C02F05C
:100BC000C9FD00282FD002F085FD051E0A2D05D095
:100BD0000D2803D0092807D1202505E0002E0FD0CD
:100BE000049A0226A4180BE00799012300910293AE
:100BF000301CEAB20197211C059B01F041F8061C4C
:100C000001F0A0FE864202D3049EA4190226049895
:100C10002118069101F09CFE069B834203D3381CE9
:100C200001F04CFE0224002DC9D1381C01F046FE13
:100C300009B0F0BDF0B585B00291009002F04AFD18
:100C4000051C02F047FD019002F044FD041C02F077
:100C500041FD061C02F03EFD8023011C1940071CCB
:100C60009F43039102F030F901992A198B19013A37
:100C7000013B281C01F09AFE022F08D0042F0BD054
:100C8000012F0DD1B64A00200292009008E0B44A2C
:100C900000210291009203E0009D029B02950093C7
:100CA000B048039B05680195002B00D0B4E0251CDB
:100CB00075430A2F06D8082F48D27C1E032C00D972
:100CC0007BE016E0182F00D077E099E002F042FDBB
:100CD000002816D002F0FEFC2E1C071C083E8024C3
:100CE000274209D00098013D01F04CFE6408B5424E
:100CF00004D1002DEAD10CE00298F4E7002DEFD1E9
:100D000007E0984E01983768FA22391AD3009942C1
:100D1000EFD902F0CFF805B0F0BD02F01BFD0028BE
:100D200038D002F0D7FC082F13D118230340152127
:100D30004B43E022024016029C000722104026434B
:100D40008300301C184301F01DFE013D002DE4D14D
:100D5000DFE7092F0DD11C230340E0240440D90014
:100D60002202CE180324F30020400A2613434643F0
:100D70000DE0C02101400A22514338230340DC002A
:100D80004E010722E1188B00104033438600181CE7
:100D90003043D8E77348019A0168FA238E1ADC00C1
:100DA000A642D3D9B5E702F0D5FC002808D06E4B97
:100DB000013D1F68B84701F0E5FD002DF3D1A8E71C
:100DC000684F019E3868FA24811BE2009142F4D9F1
:100DD0009FE702F0BFFC002815D002F07BFCF8244E
:100DE0002040070202F076FCFC210840C60002F019
:100DF00071FC04403E43E008304301F0C3FD013D77
:100E0000002DE6D185E7574801990668FA22741A41
:100E1000D3009C42F4D97CE70399802900D078E77D
:100E2000251C75430A2F07D8082F6AD2013F032FCC
:100E300000D9F7E02F1C12E0182F00D0F2E02EE1CD
:100E4000002F09D00399214221D00098013F01F0E1
:100E500099FD6408AF42F3D1013E002E19D1002F55
:100E600000D156E702F076FC002826D002F032FCD2
:100E7000051EAA2D10D102F02DFC061E00D148E758
:100E800002F028FC03903D1C083D8024DAE702981C
:100E9000DCE7002FF7D13CE73E1C083E80242542CA
:100EA00001D0009800E00298013F01F06BFD64085A
:100EB000B742D4D0002FF2D12BE72A4C019A2668F2
:100EC000FA25B01AEB009842C9D922E7092F35D18B
:100ED0001C210140CA005318E024032104400A22C7
:100EE000084050432602DC00264306432C1C301CDD
:100EF00001F048FD013C009A601B8318002B2CD1A7
:100F0000251C002D00D104E702F024FC002862D04B
:100F100002F0E0FBAA2829D102F0DCFB00900028B7
:100F200000D1F6E602F0D6FB082FCFD1E026182339
:100F30000640034015243602634308E0C0260640FD
:100F40000A24664338210140CA007601531807215C
:100F50009B0008401E438000C7E7002CC7D1CFE7A5
:100F6000FFFF00002C10001018000010082F0ED1F9
:100F70001823034015246343E0220240160299001F
:100F8000072210400E438300301C18431FE0092F36
:100F90000DD11C230340E0210140DE000A02F418B9
:100FA0000321E30008400A24134344430DE0C02218
:100FB00002400A235A4338240440E10056010A192A
:100FC00093003343072630408400181C204301F06F
:100FD000D9FC6C1E94E7444A019B1068FA26C41A97
:100FE000F1008C4200D994E62C1C89E702F0B2FB98
:100FF000002821D03D4F3E4E3B689847B04217D164
:1010000002F068FB061E00D183E6396888472C1C75
:10101000071C381C013C01F0B5FC601B8219002A3A
:1010200003D1251C002DE1D173E6002CF1D1F8E7A6
:1010300001F0A8FC6C1EF4E72B4F019C3E68FA20DF
:10104000311BC200914200D963E62C1CE9E702F093
:1010500081FB00283DD0254A1468A047AA2824D146
:1010600002F038FB041E00D153E602F033FBF826F1
:101070003040070202F02EFBFC231840C00007435B
:1010800002F028FB0640F1080F432E1C381C013EDD
:1010900001F078FC721B1319002B03D1351C002DB5
:1010A000D5D136E6002EF1D1F8E7F824204007022A
:1010B00002F010FB061C02F00DFBFC231E40F100A9
:1010C0000440E208081C1043384301F05BFC6E1E2C
:1010D000E4E7054C019E2368FA27991BF80081423A
:1010E00000D916E62E1CD9E72C10001018000010AD
:1010F000AAAA0000F0B58BB00991161C089002F066
:10110000E9FA041C02F0E6FA069002F0E3FA7F2501
:101110000123C209191C05409143681E07910F283D
:1011200000D91D1C002E02D102F0D4FA05908027B0
:101130003A0294420CD101F005FC0599EB004B43B7
:1011400044085808271A01F0FDFB8742A4413C409F
:1011500006998022130299420AD101F0F9FBAF00EF
:101160004008C71B01F0F4FB8742924117400697E5
:10117000264B1F68002E3BD1059A002A43D002F06F
:10118000E9FA002817D002F0A5FA061C01F0DAFBF4
:1011900084420CD208990998079B00910190029310
:1011A000201CF2B206992B1C00F06AFD041C059A63
:1011B000013A0592E0E7154EFA233168DA00C81BC0
:1011C0009042D9D91FE002F085FA061E1BD001F02B
:1011D000B9FB84420CD208990998079B00910190B1
:1011E0000293201CF2B206992B1C00F049FD041C4E
:1011F00002F0B0FA0028E6D1044EFA223168D3009A
:10120000C81B9842F4D90BB0F0BDC0462C1000109A
:10121000F0B58BB0FFF7B0FA9D4C9E4B2168181CBF
:101220008D791968A022D6053769002F2FD001F0DB
:1012300095FB2068984E0168B14238D0974F984886
:10124000FFF78EFA381C01F039FB00250A20011C3B
:10125000944A012300950195029500F0C3FD3220C8
:10126000FFF76CFAFA239800FFF75EFA96229101D5
:101270000095019502950220A02230230397FFF7E5
:10128000F5FA281C391CFFF70FFB02250FE0036855
:101290005A1A632ACBD880231D0172590425002ACB
:1012A000C0D0814F7D686B1E9D410135BAE7206833
:1012B0007E4900794843FFF753FA7D4E37687B0734
:1012C00001D5FFF753F93368190701D5FFF776F910
:1012D000206841690269081C0792059101F0EEFA45
:1012E00027687879FFF72AFA2668B06802F048F98B
:1012F0002368187B02F04EF82468607B02F044FA01
:10130000281C002502F0A4FA089502F0E3F9013840
:10131000A22801D900F0A2FC02F0B8FBA300A700AC
:10132000B500D000F7FF2801A004A004A004A00489
:10133000A004A004A004A004A00430013D014001C9
:1013400045014A01A004A004A004A004A004A00434
:10135000A004A004A004A004A0044F01540159015A
:101360005F01640169016E0177017C0180018401E4
:10137000860193019E01A701BC01D001DF0101029A
:101380001F023D025202630279028E02AE02C402C3
:10139000E002F5020F032B0340035A036B037803AB
:1013A00087039803A503B403C903D803EC0301041E
:1013B000100425042D04300434043C043F04A0042C
:1013C000A004A004A004A004A004A004A004A004FD
:1013D000A004A004A004A004A004A004A004A004ED
:1013E000A004A004A004A004A004A004A004A004DD
:1013F000A004A004A004A004A004A004A004A004CD
:10140000A004A004A004A004A004A004A004A004BC
:10141000A004A004A004A004A004A004A004A004AC
:10142000A004A004A004A004A004A004A004A0049C
:10143000A004A004A004A004A00459044604490484
:101440005504A004A004A004A004A004A004A004C7
:10145000A004A004A004A004A00461046E04750408
:101460008B04144802F028F9F8E3089F002F02D1FA
:101470003220FFF763F907980599FFF715FA0E4E2A
:1014800002203168D3E30C4C0D202168CFE3C04625
:10149000040000102C100010EFBEADDEFFFF0000B6
:1014A000006CDC02ED480000FC00015040420F00DF
:1014B00034100010CB4800002000001002F00AF9A0
:1014C0000138062800D920E702F0EAFA04262B3179
:1014D000363B420002F0B6F9071C02F0ADF9051CDC
:1014E00002F0A4F9DD4B061CDD49186802F0A4FAED
:1014F000C4B202F095F908A9079BF2B20E780599DB
:10150000FFB2C0B20190029303910096381C291CCF
:10151000231CFFF7ABF9F8E602F0DCF802F098F9CB
:10152000F3E6D0490F68B84702F02AF8EDE602F07A
:10153000D1F801F02FFFE8E602F0CCF802F024F930
:10154000E3E602F0C7F8C64A5043FFF709F9DCE6C4
:1015500002F0C0F8051C430701D5FFF707F829077B
:1015600001D5FFF72BF8C04A1560CEE6BF4D2C68B9
:1015700002F0B0F8FFF742F8A047C6E602F0AAF87A
:10158000FF2804D1BA4806680898B047BDE6FFF7BF
:10159000D5F80890B9E601F0E1F9B6E602F09AF85C
:1015A00001F092FBB1E602F095F801F06DFCACE6BB
:1015B00002F090F801F05AFCA7E602F08BF801F077
:1015C000AFF9A2E6A94B1F6801F0BCF903E0A749F7
:1015D0000F6801F0BDF9B84740E302F07BF801F075
:1015E00067FB92E6A34C2268904707908DE6A14ED8
:1015F0003568A847059088E6079805990122FFF706
:10160000D1FA9B4F2620396811E307980599FFF717
:1016100011FB7AE6974B1868804700E0079801F0C5
:101620004DF972E60598FAE702F054F8051C02F04D
:1016300051F8904A041C11688847211C021C281C80
:1016400007E002F047F8061C02F044F8079A011C74
:10165000301C01F015F958E602F03CF8071C02F0C6
:1016600039F8059A011C381CF3E702F033F8071C1F
:1016700002F030F8061C02F02DF8051C02F02AF8E2
:101680007C4B041C18688047311C00902A1C381CB5
:10169000231C10E002F01EF8061C02F01BF8071CC9
:1016A00002F018F8041C02F015F80799031C0091C9
:1016B000301C391C221C01F05DF826E602F00AF805
:1016C000061C02F007F8071C02F004F8041C02F0E4
:1016D00001F8059A031C0092EAE766490B689847EF
:1016E000099001F0F7FF061C01F0F4FF041C01F063
:1016F000F1FF051C002E00D107E601F0EBFF06907C
:1017000001F0E8FF071C0998291C0090069A201C8C
:101710003B1C01F02FF8013E069C3D1CEAE701F05E
:10172000D9FF041C01F0D6FF051C01F0D3FF061CF5
:10173000002C00D1E9E501F0CDFF071C01F0CAFF44
:10174000079A06900092281C311C3A1C069B01F057
:1017500011F8013C3D1C069EEAE701F0BBFF041CAA
:1017600001F0B8FF051C01F0B5FF061C002C00D1EC
:10177000CBE501F0AFFF071C01F0ACFF0690059828
:10178000311C00903A1C281C069B00F0F3FF013C22
:101790003D1C069EEAE701F09DFF051C01F09AFF43
:1017A000041C01F097FF071C01F094FF314A061C4E
:1017B00011688847EB19A7195A1E00907B1E21E07B
:1017C00001F088FF051C01F085FF041C01F082FF79
:1017D000071C01F07FFFEB195A1E2318013B0798E5
:1017E0000FE001F077FF051C01F074FF041C01F00D
:1017F00071FF061C01F06EFFA919231805984A1EF7
:10180000013B0090281C211C00F090FF7DE501F0B9
:1018100061FF051C01F05EFF041C01F05BFF071C6B
:1018200001F058FF1349061C0B689847EA19A719DD
:10183000013A7B1E009030E001F04CFF051C01F0E6
:1018400049FF041C01F046FF061C01F043FFAA19E2
:101850002318013A013B07981EE0C0460000001023
:1018600040420F002400001034100010140000103B
:10187000200000101800001001F02CFF051C01F0E2
:1018800029FF041C01F026FF061C01F023FFAF19FD
:10189000231805987A1E013B0090281C211C00F09B
:1018A00091FC32E501F016FF041C01F013FF061C49
:1018B00001F010FF051C01F00DFF071C01F00AFFED
:1018C000E84A0690106880476119069DF3194A1E80
:1018D0000190013B0095201C311C2BE001F0FAFE29
:1018E000051C01F0F7FE041C01F0F4FE071C01F0DA
:1018F000F1FE061C01F0EEFEE919A31900904A1E44
:10190000013B079813E001F0E5FE051C01F0E2FE43
:10191000041C01F0DFFE071C01F0DCFE061C01F0D8
:10192000D9FEEA19A31900900598013A013B0190EC
:10193000211C281C00F062FDE7E401F0CBFE041C32
:1019400001F0C8FE061C01F0C5FE051C01F0C2FE38
:10195000071C01F0BFFEC34A069010688047631958
:10196000069DF1195A1E01904B1E0095201C311C3A
:101970002BE001F0AFFE051C01F0ACFE041C01F0F1
:10198000A9FE071C01F0A6FE061C01F0A3FEEB1940
:10199000A1195A1E00904B1E079813E001F09AFE01
:1019A000051C01F097FE041C01F094FE071C01F0D9
:1019B00091FE061C01F08EFEEA19A119009005980F
:1019C000013A4B1E0190211C281C00F035FC9CE4C0
:1019D00001F080FE071C01F07DFE061C01F07AFE7E
:1019E000A049041C0B689847311C031C221C381C9E
:1019F00018E001F06FFE061C01F06CFE051C01F002
:101A000069FE291C021C079B301C0BE001F062FEE2
:101A1000071C01F05FFE041C01F05CFE059B021C2C
:101A2000211C381C00F0EAFA6FE401F053FE071C99
:101A300001F050FE061C01F04DFE051C89480268AD
:101A40009047311C031C2A1C381C18E001F042FE90
:101A5000051C01F03FFE041C01F03CFE211C021C91
:101A6000079B281C0BE001F035FE071C01F032FE3D
:101A7000061C01F02FFE059B021C311C381C00F0D7
:101A800069FC42E401F026FE071C01F023FE061C5F
:101A900001F020FE051C01F01DFE7249041C0B68BC
:101AA0009847311C00902A1C381C231C1FE001F0B1
:101AB00011FE071C01F00EFE061C01F00BFE051CBA
:101AC00001F008FE079A031C00920DE001F002FEEF
:101AD000071C01F0FFFD061C01F0FCFD051C01F0D8
:101AE000F9FD031C05980090381C311C2A1C00F0DD
:101AF000BBF90AE401F0EEFD071C01F0EBFD061C4A
:101B000001F0E8FD051C01F0E5FD5649041C0B68D9
:101B10009847311C00902A1C381C231C1FE001F040
:101B2000D9FD061C01F0D6FD051C01F0D3FD071CF4
:101B300001F0D0FD079A031C00920DE001F0CAFDF0
:101B4000061C01F0C7FD051C01F0C4FD071C01F0D7
:101B5000C1FD031C05980090301C291C3A1C00F0A4
:101B60005FFDFFF7D2FB01F0B5FD041C01F0B2FDF3
:101B7000011C201C04E00798059901E005980799CD
:101B800000220DE001F0A6FD071C01F0A3FD011CE1
:101B9000381C04E00798059901E00598079901228F
:101BA000FFF7A8FAFFF7B1FB2F4B1F6815E02F4C8A
:101BB000002522682560AA42F9D02B4E3768FEF72F
:101BC000C9FCB84730E02A480669002EFBD0264CF5
:101BD0002568FEF7BFFCA8472768244D0FE0224F79
:101BE000244A00261068396816608847224B3C68F2
:101BF00018681E60A0472CE01B4C204D276800266B
:101C000028682E6029E01D4C002520682560A84228
:101C1000F9D0154E174A376810681560B84716494D
:101C2000336808680D6098473168206825608847E8
:101C300014E00F480269002AFBD00B4F0D49002623
:101C400008683B680E6098470B4C3D68206826602A
:101C5000A8470A4D3F6828682E60B84701F04EFD3E
:101C6000FFF753FB18000010200000104010001078
:101C70000000015050100010301000105C100010D7
:101C8000F0B5151C1C1CDA00534B8BB0071C0E1C46
:101C90001118186806910139814205D24F4B711E07
:101CA0008A1819688A4201D3471C92E01F2D00D878
:101CB0008FE0601E0790203D01F006F9484AED00D4
:101CC0000799AB180293002934D1341C08340494CA
:101CD000351C029A3B1C901B415D08338022039106
:101CE00005933C1C019203980199084207D0201CDF
:101CF000291C221C2B1C00F059FE109809E0129B95
:101D0000002B08D0201C291C221C2B1C00F04EFE8E
:101D1000119800F037FE019A05995008013401909E
:101D20008C42E0D1049C0135A542D2D101F0C2F829
:101D3000069F4EE00298019608300990029E029A92
:101D4000357801990132631E0895079D58187E1C4D
:101D5000029280230822751905903E1C0392049379
:101D6000089804996A1E08421AD0301C0199059BF4
:101D700000F01CFEAE1B6643002E04D0109800F04D
:101D800001FE013EF8E70399049A013903912B19EA
:101D90002E1C039D50080490002D12D01D1CDFE75F
:101DA000129B002BEFD0301C0199059B00F0FEFD2B
:101DB000AE1B6643002EE6D0119800F0E3FD013E15
:101DC000F8E7019A0299099B101901909942B5D13F
:101DD000ACE7381C0BB0F0BD68100010701000109C
:101DE000FD480000F0B50E1C87B0151C1C1E00D16C
:101DF00001248023190288420FD1194F3A685008F4
:101E00000590281C01F01EFFE3004343059A590882
:101E10003F68531ABB428041184080210A02964213
:101E200018D1104EE30037685A087908891AB94268
:101E3000B6410E400EE00C9F0D9B0E99009701934A
:101E40000291231C311CFFF71BFF054A013517685F
:101E5000B84202D82A78002AEDD107B0F0BDC046BA
:101E60006810001070100010F0B58BB007935B4342
:101E7000564206917100041C0131301C59437043D5
:101E800052430D1852005B00002704910590029503
:101E9000089209930397002E76DCA51B55480195FF
:101EA000039F06990368019A7D189A4210D2524FF7
:101EB00039688D420CD201F007F80198291C021CE8
:101EC0002B1C00F073FD109800F05CFD00F0F2FF99
:101ED0004848371903689F4210D2474A11688D421B
:101EE0000CD200F0F1FF381C291C3A1C2B1C00F00E
:101EF0005DFD109800F046FD00F0DCFF3D4B069DB7
:101F000003981A682D1A974210D23B4908688542F7
:101F10000CD200F0D9FF381C291C3A1C2B1C00F0F5
:101F200045FD109800F02EFD00F0C4FF314F019ADE
:101F30003B689A4210D23049086885420CD200F0C2
:101F4000C3FF0198291C021C2B1C00F02FFD1098C8
:101F500000F018FD00F0AEFF029D049B6F009F4251
:101F600005DB099A01369918681804910290059DBD
:101F7000AF4290DC089B039F0299EA18013788184A
:101F800003970592029086E7039D013507996E1E1F
:101F90008E422DD2174F3868844212D2164B069AC1
:101FA0001968AE188E420CD200F08EFF201C311C36
:101FB000221C331C00F0FAFC109800F0E3FC00F047
:101FC00079FF3F68BC42E0D20B4A06981368461B73
:101FD0009E42DAD200F078FF201C311C221C331CF8
:101FE00000F0E4FC109800F0CDFC00F063FFCCE7BB
:101FF0000BB0F0BD6810001070100010F0B589B083
:102000000791514206900293059101920024019A92
:10201000A24200DACFE069490698019B079E0A6850
:10202000C51A0395371B954210D2654803689F4235
:102030000CD200F049FF0398391C021C3B1C00F035
:10204000B5FC029800F09EFC00F034FF5B48069D52
:10205000079E019903682A1B0492761A9A4210D2AD
:10206000574D2A6896420CD200F02EFF0498311C7E
:10207000021C331C00F09AFC029800F083FC00F074
:1020800019FF4E4B019906981A680D18954210D207
:102090004B49086887420CD200F016FF281C391CF7
:1020A0002A1C3B1C00F082FC029800F06BFC00F044
:1020B00001FF424B069F1A68E719974210D2404928
:1020C000086886420CD200F0FFFE381C311C3A1C16
:1020D000331C00F06BFC029800F054FC00F0EAFEA8
:1020E000364B079E1A68A619954210D234490868E3
:1020F00086420CD200F0E8FE281C311C2A1C331C3E
:1021000000F054FC029800F03DFC00F0D3FE2B4A96
:10211000019D079B1168ED188F4210D22848036873
:102120009D420CD200F0D0FE381C291C3A1C2B1CFE
:1021300000F03CFC029800F025FC00F0BBFE1F4FB5
:10214000039A39688A4210D21D4803689E420CD215
:1021500000F0BAFE0398311C021C331C00F026FC70
:10216000029800F00FFC00F0A5FE144E04993768A9
:10217000B94210D2124A106885420CD200F0A4FE77
:102180000498291C021C2B1C00F010FC029800F083
:10219000F9FB00F08FFE059D2B191E1C013436192A
:1021A000059600D533E7019F0599013FCA1BD01B57
:1021B000019705902BE709B0F0BDC04668100010EC
:1021C00070100010F8B51D1C194B141C1A68061C61
:1021D0000F1C904200D3561E164801688F4200D350
:1021E0004F1E944200D3541E8D4200D34D1EA64272
:1021F00002D9664074406640AF4202D96F407D40CC
:102200006F4000F061FE2B1C301C221C391C013574
:10221000013400F0CBFBA61BEB1B5E43002E04D069
:10222000069800F0AFFB013EF8E700F043FEF8BD72
:102230006810001070100010F0B58DB0129C061CD4
:102240002718101B151C0390874200D380E06218EA
:10225000181B0592069082427AD2139A381C00927B
:10226000039AFFF7AFFF139B301C009305993A1CAC
:10227000069BFFF7A7FF13992A1C00910398059965
:10228000069B6642FFF79EFF00250796AC425FDB88
:1022900005981399421B0492009104993B1B181C4A
:1022A00008933A1C0B1CFFF78DFF059E1398361BF5
:1022B0007B1B311C0B9300903A1C181C331CFFF73E
:1022C00081FF039A139BA118081C0991049900939C
:1022D000039A0B1CFFF776FF039813992A18101C1A
:1022E000331C0A920091039A311CFFF76BFF069E84
:1022F000139BAE19311C00930998331C039AFFF706
:1023000061FF0698139A2318191C00920A98039AE1
:102310000493FFF757FF1399331C00910898311C61
:102320003A1CFFF74FFF139E04990B983A1C0B1CA5
:102330000096FFF747FF079B5819021C01355219F9
:102340000792A3D40799013C0E1B331B07939DE70B
:102350000DB0F0BDF0B587B00593264B0290039108
:10236000811A1868814242D2234E039C3768A51A0D
:10237000BD423CD251420491151C0024A54236DBDB
:10238000029A039B0598571BE318AE18191C321CC0
:102390000090381CFFF716FF0399059A0B1B381C99
:1023A000191C0092321CFFF70DFF029E039B05983B
:1023B000371BEB18A619191C321C0090381CFFF7AC
:1023C00001FF0399059A4B1B0092381C191C321C03
:1023D000FFF7F8FE049F3E19331C01341B190493C8
:1023E000CCD40498013D411B4A1B0492C6E707B0B8
:1023F000F0BDC0466810001070100010F0B58BB032
:10240000109C8446161C2018121B0D1C1F1C0590C6
:102410000692904200D3FDE06319391B079308919F
:102420008B4200D3F6E011986246191C0090089B7D
:102430006046FFF7C7FE119A391C3B1C00920598B5
:10244000069AFFF7BFFE119F301C321C0799089BAC
:102450000097FFF7B7FE119E2B1C291C00960598CC
:10246000069AFFF7AFFE6542002309950293029991
:102470008C4200DACEE0684D0598079F029E2B68DB
:10248000021B0392BF1B9A4210D26449086887421C
:102490000CD200F019FD0398391C021C3B1C00F003
:1024A00085FA119800F06EFA00F004FD5A49029E78
:1024B000059A079B0868951B04951E1B854210D240
:1024C000564A1568AE420CD200F0FEFC0498311C4E
:1024D000021C331C00F06AFA119800F053FA00F065
:1024E000E9FC4D49069B0868E518854210D24B4A25
:1024F00013689F420CD200F0E7FC281C391C2A1CF0
:102500003B1C00F053FA119800F03CFA00F0D2FCAA
:102510004148029F069902687F18974210D23F4BAC
:1025200019688E420CD200F0CFFC381C311C3A1CCA
:10253000331C00F03BFA119800F024FA00F0BAFCCA
:10254000354A029E0898136836189D4210D23349C6
:10255000086886420CD200F0B7FC281C311C2A1CEB
:10256000331C00F023FA119800F00CFA00F0A2FCE2
:10257000294A089D136865199F4210D227490868A7
:1025800085420CD200F0A0FC381C291C3A1C2B1CE4
:1025900000F00CFA119800F0F5F900F08BFC1E4FDA
:1025A000039A3B689A4210D21C49086886420CD2B2
:1025B00000F08AFC0398311C021C331C00F0F6F971
:1025C000119800F0DFF900F075FC134E049B37689A
:1025D000BB4210D2114A11688D420CD200F074FC3B
:1025E0000498291C021C2B1C00F0E0F9119800F043
:1025F000C9F900F05FFC0298099D2E180130029085
:102600008019099000D532E7099F013C3B1B1A1B3A
:1026100009922CE70BB0F0BD68100010701000108C
:10262000F0B58BB005933F4B041C0491811A1868D8
:10263000814274D23C49049D059E0B68AF1B9F42AA
:102640006DD2059E554276436F000137281C5243D8
:102650007743684371005200029703903F18089235
:1026600009910026002D26DC04981099631B06931F
:1026700033182A1900910698191C0792FFF7A2FD3A
:10268000049A1098931B191C0090079A0698FFF75C
:1026900099FD02997B008B4204DB099A0135881869
:1026A00002903F18039A9342DCDC089B0136D11854
:1026B00003917F18D6E7751C059E6B1EB3422ED280
:1026C000184F3868844212D21749049A0B68AE1822
:1026D0009E420CD200F0F8FB201C311C221C331C43
:1026E00000F064F9109800F04DF900F0E3FB3F684A
:1026F000BC4212D20C4A04981168461B8E420CD27E
:1027000000F0E2FB201C311C221C331C00F04EF9AF
:10271000109800F037F900F0CDFB0135CCE70BB095
:10272000F0BDC0466810001070100010F7B51F1CF7
:10273000089B061C151C0093321C3B1C0C1CFFF74D
:1027400041FD0898391C2A1C3B1C0090301CFFF7E7
:1027500039FD0899281C2A1C3B1C0091211CFFF7FD
:1027600031FD089A301C0092211C2A1C231CFFF703
:1027700029FDF7BDF0B589B0051C0C1C029203932E
:10278000904201D0994208D10E98211C0090029AE3
:10279000281C039BFFF716FD6BE0374B1A6890422D
:1027A00000D3551E35480668B44200D3741E029902
:1027B000914201D3013A0292039FB74201D3013EF5
:1027C0000396029B039A01205F1B161B0490002FA7
:1027D00002DA43427F42049301220592002E02DA7C
:1027E000504276420590790073000691079300F0FD
:1027F0006BFB281C211C2A1C231C00F0D7F80E9808
:1028000000F0C0F8B74218DD079AD71B029885423E
:1028100018D0002F03DB0599069B6418FF1A049E4D
:10282000079AAD19281CBF18211C2A1C231C00F074
:10283000BDF80E9800F0A6F8E8E7069FBE1B039AC5
:10284000944202D100F036FB13E0002E03DB049823
:1028500007992D18761A059B069FE418281C211C41
:102860002A1C231C00F0A2F80E98F61900F08AF832
:10287000E5E709B0F0BDC046681000107010001008
:102880000C4B70B5051C18680C1C161C854210D228
:1028900009490A6894420CD200F016FB281C211C3E
:1028A0002A1C231C00F082F8301C00F06BF800F0AA
:1028B00001FB70BD681000107010001038B5041CCA
:1028C00000F002FB144B15481A6803680020013A17
:1028D000013B011C00F06AF880252D01201C00F04E
:1028E00051F8201C00F04EF8201C00F04BF8201C82
:1028F00000F048F8201C00F045F8201C00F042F8D9
:10290000201C00F03FF8013D201C00F03BF8002D9A
:10291000E4D100F0CFFA38BD68100010701000103C
:1029200008B5054B186000F035F90449044B82B234
:10293000000C0A60186008BD6C10001070100010C8
:1029400068100010014B18687047C04668100010EE
:10295000014B18687047C0467010001010B5064B48
:102960000649074800241C6004600C6000F0FCF974
:10297000201CFFF7D5FF10BD681000106C10001070
:102980007010001030B5084B8022FF241201002582
:10299000010AA4009D5019518021890099509D5031
:1029A0001851995030BDC04600000250F0B585B0B6
:1029B0000192764A0390166802918020802100934C
:1029C000734A490100010024B42E64D0FF258727F3
:1029D000AD007F00BE4200D19DE0029F9C460237C1
:1029E00002970223422754509C44145057515A2EA8
:1029F0002AD08026B30080271350FB005350019E3D
:102A00008127BF1B8026545014505751B7001750D0
:102A10005350039F8126F61B802754501450565163
:102A2000BE0043271650535054501450575116505F
:102A3000535054501450029F5751165053505450F5
:102A400014506446545123E0802380279E00FB00ED
:102A50001650535054501450029F57516746165009
:102A600053505450145057514327165053505450FC
:102A70001450575116505350039F5450023714505E
:102A8000575116505350019F54500237145057510C
:102A90001650535078E0FF239B0042268027802564
:102AA0005450ED001450D650BE0016505550039FA0
:102AB0005450BC460227BC4467461450D7501650A9
:102AC0005550019B02279C46BC44FF276346BF002C
:102AD00054501450D351FF2343279B001650555098
:102AE00054501450D75016505550009B8127BC4667
:102AF000FF1AFF239B0054501450D75016505550C6
:102B0000029B674654501450FF24FF1AA300D7506D
:102B10001650555038E042265450802314505651D8
:102B20008026F6009F0017505650009F81239C4638
:102B3000DB1B8027545014505351BB001350565088
:102B4000029B6746FF1A80235450145057519F0030
:102B50004323175056505450145053511750565049
:102B6000019F6346DB1B8027545014505351BB0018
:102B700013505650039B6746FF1A54501450575138
:102B80008025AC001450565005B0F0BD74100010F4
:102B900000000250F0B51B2813D006D80E2810D024
:102BA00012280CD0092808D10EE0B42807D08723BA
:102BB0005900884205D05A2806D0002605E0B426E0
:102BC00003E08720460000E05A26364A8024364B30
:102BD0001660A501002280278020FF245A51790128
:102BE0000001A400B42E2DD087256F00BE4229D04D
:102BF0008026B500422780265A50F6001A501F51F1
:102C000002271D50BC465E505A501A501F51812752
:102C10001D505E505A501A501F5143271D505E5090
:102C20005A501A501F5167461D505E505A501A5044
:102C30001F511D505E505A501A5081221A511D507A
:102C40005E5028E04225802780265A50B6001A5050
:102C50001D51FD0002271E50BC465D505A501A50AF
:102C60001F5181271E505D505A501A501F51432743
:102C70001E505D505A501A501F5167461E505D50ED
:102C80005A501A501F511E505D505A501A508122EE
:102C90001A511E505D50802180240801A6019851D0
:102CA0000248F0BD74100010000002508000800047
:102CB000044A8023980100218023115019011150EA
:102CC0007047C04600000250F8B5264C8023071C10
:102CD000002298018025802622506D0136019742FE
:102CE0001CD1FF2293005021802280206751A751E0
:102CF000E1508100D300A15114206351FDF714FD70
:102D0000FF20802267518100A75193002D27675033
:102D1000A3518026F700675178201BE0FF2398001D
:102D200000212C2761518022A1512750802791003A
:102D3000FF00A15178206751FDF7F6FC0023FF2228
:102D400063515120A3519100802360509800A051FD
:102D500067511420FDF7E8FC8025802128018A01B5
:102D6000A050F8BD00000250F0B593B03B49452299
:102D7000684600F05BFF3A4C802318022158394A1C
:102D8000394D114321506659802732436251FE006C
:102D900000251420A551FDF7C7FC80235800A05141
:102DA0007820FDF7C1FC80218A01A5506F46785D2F
:102DB0003F26031C0135B343802B1CD0C02B2FD0E2
:102DC000402B30D130402B1C2918994226D06A461E
:102DD00080268021D75C090172010026A65066502A
:102DE000FF26B600A7518027BE0066508021CF0085
:102DF0000133A750E8E730402B1C2A189A420DD027
:102E00006F468022FE5C00211701FF22E1519100F4
:102E100066508026B2000133E251EEE71D1C02E04D
:102E20003040FDF781FC442DC0D98020C6018023AD
:102E3000FF2280201F01002195008300013EE15107
:102E40006151E351E1516151E3518E42EFD1802450
:102E50000349A6018F5113B0F0BDC046FD4F0000DD
:102E600000000250FF0F0000FC3F0000054B8022D5
:102E7000120100219950FF218900585080208100C3
:102E80009950704700000250094B8022802110B5F4
:102E90005201002409019C505C50FF24A4001851E9
:102EA000802084005C508021C800985010BDC0462E
:102EB0000000025080218023024A080199015050ED
:102EC0007047C046000002508023024A002198014A
:102ED0001150704700000250044B05491A6888548D
:102EE0001F20013202401A607047C046B01800101F
:102EF0008C18001000B5034BDA689107FBD5986079
:102F000000BDC0460000044038B5084C051C2368CD
:102F1000C0B2984728042168000E88472A02100E84
:102F200023689847280E2568A84738BD2000001060
:102F300038B5074C051C2368C0B29847280421689F
:102F4000000E88472A02100E2568A84738BDC046E3
:102F50002000001038B5054C051C2368C0B2984706
:102F60002804000E2168884738BDC04620000010A4
:102F700038B5084C051C2368000E984728022168C4
:102F8000000E88472A04100E23689847E8B2256887
:102F9000A84738BD2000001038B5074C051C0002BA
:102FA0002368000E98472904080E22689047E8B26B
:102FB0002568A84738BDC0462000001038B5054C2C
:102FC000051C00042368000E9847E8B22168884772
:102FD00038BDC0462000001070B5174B1A68174C5A
:102FE00021688A42FBD016498D5C01325005460D9E
:102FF0001E601A6820688242FCD08E5C0132520545
:10300000500D18601A6830022668B242FCD08E5CFF
:1030100001325205520D1A60360430431A682843B3
:103020002568AA42FCD08C5C013251054E0D1E6011
:103030002306184370BDC046AC180010781000106D
:103040008010001070B5114B1A68114C21688A422B
:10305000FBD010498D5C01325005460D1E601A6888
:1030600020688242FCD08E5C01325205500D1860FF
:103070001A6830022668B242FCD08C5C01325105DD
:103080004A0D1A6023041843284370BDAC18001081
:10309000781000108010001030B50C4B1A680C49E5
:1030A00008680D1C8242FAD00A498C5C0132520534
:1030B000500D18601A6828688242FCD08D5C01327D
:1030C000510528024A0D20431A6030BDAC1800108B
:1030D0007810001080100010F0B5174B1A68174CCC
:1030E00021688A42FBD016498E5C01325005450D9D
:1030F0001D601F68360622689742FCD0C85D013704
:103100007D056F0D1F601A6800042568AA42FCD077
:103110008F5C01325205550D1D601A683D0227680B
:10312000BA42FCD08C5C0132304351054A0D204339
:1031300028431A60F0BDC046AC180010781000108B
:103140008010001030B5114B1A68114C21688A426A
:10315000FBD01049885C013255056A0D1A601A6867
:1031600000042568AA42FCD08D5C01325205520D44
:103170001A602D021A6828432568AA42FCD08C5C8C
:10318000013251054A0D20431A6030BDAC180010C1
:10319000781000108010001030B50C4B1A680C49E4
:1031A00008680D1C8242FAD00A498C5C0132520533
:1031B000500D18601A6820022C68A242FCD08D5C69
:1031C000013251054A0D28431A6030BDAC18001079
:1031D000781000108010001000B5A023D9050A69EE
:1031E000002A04D1024B59698906FBD5186000BD3D
:1031F00000800040802010B5C4056368221C2E4961
:10320000802B0ED004D8602B09D0702B4DD106E056
:10321000A82B19D0B82B2CD0902B46D101E001203F
:1032200044E00B68012B0CD1244A8024E30511688B
:1032300023489C684454013149054C0D1460042214
:103240002AE0042090612BE0022008601D4A1E49FC
:1032500008681368984206D01C49C85C0133A06016
:103260001F24234013608022D0050421016008221E
:1032700019E00A68022A11D11348124A016813683A
:10328000994206D01148C15C0133A1601F2423403C
:10329000136080230422DB051A6001E00421A16190
:1032A00080230822D805826105E000200424082339
:1032B00008601460936110BD7C100010781000103D
:1032C0008010001084180010B01800108C18001026
:1032D00080220B4B10028022D8676C21D005094B4D
:1032E00081610021084819635963426802239A43A7
:1032F00042600430C26F20218A43C2677047C046D3
:1033000004E100E00040044000800440F8B51B4B9D
:103310001B4D00261E60FFF7DBFF1A480122AF6F2E
:1033200002634263301CFDF71BFA391C00F084FB7A
:10333000154900F081FB8024E4056061301CFDF735
:103340000FFA391C00F078FB0F4900F075FB2E1DB9
:103350002061F36F20210B43F3676F68022007435E
:103360006F600A4DFF232A688021560008481E40DE
:103370000F024425E66007602560F8BD7C10001050
:10338000008004400040044000350C001000001094
:1033900000E100E008B5044B1860044801688A07A2
:1033A00001D5FFF7B3FF08BD100000108018001012
:1033B0000B4A0323D16910B50B4002D0106A0343B6
:1033C000136208490B68D468640707D50448846809
:1033D0000548C45401335B055B0DF4E70B6010BD79
:1033E00000000440781000108010001080220F4B65
:1033F0005003D8670E48082142680A434260436878
:103400000222934343600B4810211123C1610166DE
:10341000416683660848012142688A43426004305D
:10342000C36F064A1A40C2677047C04604E100E015
:10343000000004400040044000800440FFF7FFFF0C
:1034400010B5FFF7D3FF164B1122DA6102211A667D
:10345000144C01225A6699666068134B10436060F1
:10346000DC6F802000012043D867104B06241A60CF
:103470000F4BC722196104211A6059605C61D8683A
:103480000B4A400701D59268F9E703231362546899
:1034900002210C435460074B80225003186010BD7A
:1034A00000400440008004400480044094800440B4
:1034B0000000044000E100E000B5084B9A6818687D
:1034C00011074B0F022B07D1054B06491A68885488
:1034D00001325005420D1A6000BDC0460080004018
:1034E00078100010801000100F4AA023DB0500B5F3
:1034F00099580420014399501A690C4B002A0BD1AA
:10350000012018600A4B5A69D10701D51B68F9E7F9
:1035100080218903074B04E08021074A8803D06794
:103520000021196000BDC0461C800000A840044076
:103530000080004000E100E004E100E00B4B80224D
:10354000802110068A03D867DA67094A094B0020F0
:103550005860111C1020D061074BA431A8320860BC
:103560001060D86F054A0240DA67704704E100E056
:10357000004004400080004004800440FFEFFFFF53
:10358000154B70B5C218041C1448824222D8144D41
:1035900014492E680C60F2071CD5134B134A9E6F1A
:1035A00000201568FDF7DCF8311C00F045FA291CF5
:1035B00000F042FA211C000900F03EFA0C4C802376
:1035C000E168060A1943C0B2E16066602060E26803
:1035D0009A43E26070BDC04680DAFFFFC01C0F0056
:1035E00080180010080000100080044098800440FB
:1035F0000080004038B5FFF7A1FF234B234910227C
:10360000A020DA61C405655804229543204B65501B
:10361000E05820491043E05065581F4B1543655052
:10362000E0581E4D0243E2501D4A112414601D4C07
:1036300000212160EB6F802042011A431A49EA679A
:103640001A4B01250D601868FFF79AFF184B0320ED
:103650000722D8605D609A605D69A906FCD559694A
:103660000120014202D0124D2A68F8E7A023DA05B2
:1036700015691049002D03D120608024A003086043
:1036800080231A060A6038BD004004400480000010
:1036900008800000108000001C80000004800440AE
:1036A000A4400440A8400440988004400800001052
:1036B0000080004000E100E010B5041C20780028E4
:1036C00004D0034B013419688847F7E710BDC046A2
:1036D0002000001000B5064A1368064908688342B6
:1036E000FBD00549C85C01335B05590D116000BD75
:1036F000AC18001078100010801000100F4B70B53F
:103700001868820718D5FDF709F8061C0C4D0D4CFA
:103710002A6821688A420FD0FDF700F8831BFA2B34
:10372000F4D972B6084A0949002010600860206088
:103730002860074D286062B670BDC0468018001032
:10374000B018001084180010AC1800107810001089
:103750007C100010094B0020196800B581420BD085
:10376000074A084B12681B689A4204D89A4203D24F
:10377000802001015218D01A00BDC04680180010E8
:1037800078100010AC180010F0B51249124F134E0B
:10379000134D144C144A154B00280CD138601448B2
:1037A000144F3060144E2F602660144D144C0D6081
:1037B0001460144A0CE001203860134F3760134E38
:1037C0002E60134D2560134C0C6013491160134A91
:1037D0001A60F0BD140000108818001018000010C6
:1037E0000C00001024000010280000101C00001025
:1037F0009931000045310000D9300000BD2F000094
:10380000992F0000712F0000993000004530000012
:10381000D92F0000552F0000312F0000092F000084
:10382000014B18687047C04688180010014B186893
:103830007047C04610000010014B18687047C04622
:1038400008000010014B18687047C046801800102F
:1038500038B5051CFFF752FF1E4C23689A0701D5A7
:10386000FFF736FD2068430701D5FFF7BFFD22684B
:10387000D20701D5FFF762FE17490868FFF784FFFA
:10388000164B174A0020186016491060164B174A4D
:10389000086010601860FF2D02D12568854217D09E
:1038A0001348012D0ED0042D06D0124B02212160A9
:1038B0000360FFF72BFD0AE00F4A25600260FFF767
:1038C000BFFD04E025600D4D0560FFF793FE206805
:1038D00038BDC0468018001088180010AC180010C1
:1038E0007810001084180010B01800107C10001020
:1038F00020000010D92E0000F52E0000D931000064
:1039000000B532238BB00690079105A8059301A955
:10391000024A904701980BB000BDC046F11FFF1F3F
:1039200000B58BB0332306900020059308920791D1
:10393000FCF716FFFA21890000F07EF801A9099032
:10394000024A05A8904701980BB000BDF11FFF1F68
:1039500000B5031C8BB007208B4210D83422002006
:10396000059206930791FCF7FBFEFA21890000F00F
:1039700063F801A90890034B05A8984701980BB07C
:1039800000BDC046F11FFF1F38B5141C01250029DA
:1039900031D072B6E023DB0120CB20C280252D027E
:1039A000AB42F9D1F82213018900E318411888428B
:1039B00002D004C804C3FAE70720011CFFF7A0FFE8
:1039C000002801D0012515E00720011CFFF7C0FFEA
:1039D0000028F7D10720011CFFF792FF0028F1D142
:1039E000211CE0208024C0016201FFF799FF051C23
:1039F000681E854162B6281C38BD0000CA175140B8
:103A00008B1A17D0C1174A4004B44840411A4808DD
:103A10001A0000E052008242FCD9002000E0520867
:103A2000914200D3891A40419A42F8D104BC5040D7
:103A3000801A7047002070470A000FD0030040082A
:103A400000E052008242FCD9002000E0520893427C
:103A500000D39B1A40418A42F8D17047002070473A
:103A60000A0010D00300400800E052008242FCD956
:103A7000002000E05208934200D39B1A40418A4242
:103A8000F8D11900704700207047C04603B4714652
:103A9000490840004900095E49008E4403BC704754
:103AA00002B4714649084900095C49008E4402BCD1
:103AB0007047C04608B5031C0278002A06D041684A
:103AC0000878002805D00131596004E0406880473B
:103AD00001E00123584208BD70B5041C806800282D
:103AE0000AD0236862685D1CAD1A6E1EB5416E4235
:103AF0003140934200D2C154E368002B06D02068C5
:103B00006268904202D2081C211C9847216801314A
:103B1000216070BDF8B5151C4C1E15D4C6B201232A
:103B20001F1C2740101C311CFFF7D6FF013C0CD294
:103B30000AE0281C311CFFF7CFFF013C281C311C78
:103B4000FFF7CAFF013CF4D2F8BD002FF1D0281CCA
:103B5000311CFFF7C1FF013CEBD2F5E710B5C306FE
:103B600006D42023840500D53023181CFFF7D2FF8C
:103B700010BDC046031C413B002019229A4240411F
:103B80007047C046031C613B002019229A42404105
:103B90007047C046031C303B002009229A42404136
:103BA0007047C04638B5041C0D1CFFF7F3FF002812
:103BB00002D0201C303811E0201CFFF7E3FF002862
:103BC00002D0201C573809E0201CFFF7D3FF002843
:103BD00002D0201C373801E001204042A84201DB1E
:103BE0000121484238BDC04600B5021C093A0123F4
:103BF000042A03D9031C203B58424341181C00BD32
:103C00000EB400B586B007AA08CA05920390002337
:103C100004930548029001A8079900F01BF806B02C
:103C200008BC03B01847C046FFFFFF7F8446002A48
:103C300005D00B78037001300131013AF9D16046AB
:103C40007047C046411C02780130002AFBD1401A5F
:103C50007047C046F0B55F4656464D464446F0B400
:103C60008BB00C1C0592002303609946051C63E28F
:103C7000252906D0281CFFF72FFF341C5CE2261CE8
:103C80000BE010239A462020804680273A02944673
:103C9000802740212C1C4D46A3463078741C031C01
:103CA000203BDAB2102A14D89300C84AD3589F4652
:103CB0000D43E4E73D43E2E766463543DFE743462D
:103CC0001D43DCE752461543D9E78026B000054383
:103CD000D5E75F46AB463D1C5A462A2805D0011C55
:103CE00030394B4609290DD917E0059C201D059058
:103CF0002368002B03DA5B4210210A439346707855
:103D0000B41C0AE09E00F3185F0030383B1820789E
:103D10000134021C303A092AF4D9DE43F7173B403C
:103D20000293CA462E2825D120782A2805D00134AE
:103D3000031C303B092B08D917E00598021D05929A
:103D400001688A46607802340CE04F46BA00D11907
:103D50004E003038371820780134031C303B092BD3
:103D6000F4D9BA465646002E04DB80277B005A461B
:103D70001A43934668280ED12078682806D1082770
:103D80005846384383466078023404E00134042600
:103D9000594631438B46782803D883008C4AD6583D
:103DA000B7468C4F3E68002E00D1C5E151460091C8
:103DB00005AA0192291C5A46029BB047BCE1281C67
:103DC0002521FFF789FEB7E10598031D05930678C5
:103DD00002998A4601277A429244584651462A1C43
:103DE000FFF7BCFE281C311CFFF776FED846404684
:103DF000C00600D4A0E1202051462A1CFFF78AFE0D
:103E00009AE15846010706D50598021D05920368F8
:103E10002E681E7090E1059B1E1D059619682F687F
:103E20000F6089E10598011D05910668002E00D1FB
:103E3000694E6A4F5B463B409846301CFFF702FFD5
:103E4000071C5A46D20502D5504500DD5746029858
:103E5000C11B8A4640462A1CFFF780FE002FC6D0B1
:103E6000B3467B1E01221A4002923178281CFFF7CC
:103E700033FE0136013F002F00D081E1B7E7A346B2
:103E8000FFE73178281CFFF727FE7178281CFFF721
:103E900023FE0236023F002FF3D15C46A7E7059EC2
:103EA000371D0597376859460B06DE172322324027
:103EB000904680235E0031438B4608218A466FE09E
:103EC00080239E0159460E43090609D4B346C846CD
:103ED00009E0C84659460A0605D5414FB84602E0F2
:103EE000B346404FB8465A46D20520D53B4B5E46B6
:103EF0001E40B3461BE05F463A06D31730261E40ED
:103F0000B046FB0513D5354F5A463A4093460EE06E
:103F1000C8465B46DA050AD5304A5E461640B346C7
:103F200005E08021CF015A463A439346C846594698
:103F30004B0419D5059B1A1D05921F685E46710733
:103F400001D53FB203E0320701D5FF231F40002F08
:103F500003DA7F422D2290461BE05A46910613D485
:103F60005E46720613D414E0059F3A1D05923F6821
:103F70005B465B0702D53F043F0C0AE05E46310713
:103F800007D5FF210F4004E02B23984601E02021B4
:103F900088465E46F10506D510495B460B409B46B8
:103FA0005A46D30501D40126B2465838C0B220285B
:103FB00065D882000C4B9E58B7464E460720002F0E
:103FC00033D15FE04E46002F38D15BE064500000F3
:103FD000A8500000B418001010530000FFFDFFFFB0
:103FE00078300000583000008C520000002F48D07C
:103FF0004E468022930159460B400F226848844662
:104000000394002B06D0101C38406446205C07A99E
:10401000705405E0111C3940624C605C07A9705473
:1040200001363F09EDD1039C2CE0011C39403031B1
:1040300007AAB1540136FF08F7D123E08023190203
:104040005846084003900494041C002C07D0032217
:104050003240032A03D107AB2C2199550136381C75
:104060000A21FFF7FDFC303107A881550136381CC5
:104070000A21FFF7E1FC071EE7D1049C02E04E464F
:1040800000E04E465746BB1BDA43D7171F40029845
:10409000C11B8A1BFF23434580414142521A4346BC
:1040A000591E8B41D01A8246584680218A00104200
:1040B00004D151462A1CFFF751FDCA464346FF2B47
:1040C00003D9190A281CFFF707FD4046002803D032
:1040D000C1B2281CFFF700FD584651462A1CFFF7C5
:1040E0003DFD3020391C2A1CFFF714FD013E1BD476
:1040F00007AFBE196F461B37B91B01228A43904692
:104100003178281CFFF7E8FC013EBE422DD10BE0C0
:104110003178281CFFF7E0FC013E3178281CFFF7BE
:10412000DBFC013EBE42F3D15846C10604D5202037
:1041300051462A1CFFF7EEFC2178661C002900D0AE
:1041400096E5281CAF68002F04D02A686C68A2424C
:1041500000D2B954006801E0012670420BB03CBCAB
:1041600090469946A246AB46F0BD4346002BCFD0C1
:104170003178281CFFF7B0FC013EBE42C8D1D3E71E
:104180000298002800D17AE659464978281CFFF7A2
:10419000A3FC0136013FA346002F00D071E626E6BE
:1041A000545000004450000010B5041C0B78002B44
:1041B00005D0431C05D048680138486001E0896893
:1041C0008847201C10BDC046F0B55F4656464D4698
:1041D0004446F0B483B08146019193461F1C0123ED
:1041E0005842824600E0A246544601344846FFF752
:1041F00061FC051CFFF7F8FC0028F4D1691C00D114
:104200009DE0734E5A4616400C9900293FDD120678
:1042100012D52B2D04D02D2D0BD18024E5002E435B
:10422000544602344846FFF745FC051C0C980138FB
:104230000C900C9B002B2ADD302D28D18022910080
:1042400031438A460C9D013D0C95601C80464846D2
:10425000FFF730FC051C0C9B002B15DD782801D0E6
:10426000582811D1002F01D0102F6FD1594A164074
:10427000B2460C9E013E0C960234A0464846FFF71B
:1042800019FC051C102761E0002F5ED05EE0002FB6
:1042900000D10A270C9900292CDD0B19009300226C
:1042A0009046802188008346E343009A99180120B4
:1042B00008408246281C391CFFF774FC002850DA9D
:1042C0001AE05D462E4343467B43C01880460134C6
:1042D000A2464846FFF7EEFB051C391CFFF762FCBF
:1042E000002864DA08E0281C391CFFF75BFC002872
:1042F000E7DA01E000208046281C4946FFF754FF1A
:10430000B2051FD5F30724D4019F3868021D3A6017
:1043100001689025EB00371C1F409F4202D14046A8
:1043200042429046F30602D543460B7011E0330734
:1043300002D545460D800CE046460E6009E001219D
:104340004C4206E00224644203E0082744465646F5
:10435000A0E7201C03B03CBC90469946A246AB4661
:10436000F0BD5D462E4343467B43C2189046013460
:104370004846FFF79FFB051C00998C42BCD0504675
:104380000028B0D0281C391CFFF70CFC0028B3DB38
:104390005D462E4343467B43C2189046013448464F
:1043A000FFF788FB051C00998C429CD1A4E75C4672
:1043B000264342467A43811888465446013448468B
:1043C000FFF778FB051C009B9C4200D08BE793E72E
:1043D000FFF9FFFFFFFDFFFFF0B55F4656464D4674
:1043E0004446F0B48BB080460D1C09920020049026
:1043F00000210291CB4A934620239A4644460394D7
:10440000A9464F4638784C460134002800D1CAE10D
:10441000252837D0051CFFF7E7FB002819D02078A6
:104420000134FFF7E1FB0028F9D1013CA146049DCE
:10443000039E00E00135301CFFF73CFB071CFFF733
:10444000D3FB0028F6D10495381C0399FFF7ACFE86
:10445000D7E70398FFF72EFBA84204D1049B013352
:104460000493A146CDE7061C03988146029C301CAC
:104470004946FFF799FE013600D094E1002C00D0A8
:1044800091E182E1797800252A2902D14C46023453
:10449000012500270BE05F4500DD84E1BA00D0195B
:1044A0004100303E8F1900D57DE1564635432678D0
:1044B0000134301CFFF76EFB0028ECD1221C331CAA
:1044C000291C5046284200D1974F4C2B04D1167816
:1044D000541C44250D430CE0682B0AD11678682E35
:1044E00004D110250D435678941C02E0541C082575
:1044F0000D43321C253A532A00D954E193008B49CD
:10450000C85887460398FFF7D5FA252804D1049F99
:1045100001370497A14674E7061C03988446029C61
:10452000301C6146FFF740FE751C00D03BE1002CBB
:1045300000D038E101214B42029334E153462B4233
:1045400000D101270121294088460025002903D1F7
:10455000099D2E1D09962D68002F00D123E128DD2D
:104560000498C2199146049FFB434B4401210E1C41
:104570001E40013704970398FFF79CFA421C00D0B5
:1045800019E108E04646FFE7049F01370398FFF76B
:1045900091FA431C07D10298002800D003E10123BF
:1045A00059420291FFE0002E00D024E1287001352D
:1045B00021E1A1464446002C00D022E7029D0135AE
:1045C00002951EE780222A430097039809A90A232F
:1045D000FFF7FAFD0590BEE080222A43009703987A
:1045E00009A90023FFF7F0FD0590B4E0A146EB0711
:1045F00000D506E70998021D09920368E80604D56C
:104600006C461020025D1A70FBE62A0705D56F463E
:104610001021CE5B1E80A146F3E6049D1D60A146DD
:10462000EFE680222A430097039809A90823FFF7A1
:10463000CBFD05908FE01E262A1CB24300970398FD
:1046400009A91023FFF7C0FD059084E001267242FE
:104650000592A046A946161C039D0136281CFFF7AB
:1046600029FA041CFFF7C0FA0028F6D14D4605963A
:10467000231C44469846321C01334ED00121294068
:104680000691089000D084E00998061D09960368F9
:1046900008937EE0069C002C01D12E7001357C1C15
:1046A000271C0398FFF706FA061C079884421ED0C1
:1046B000731C00D0CAE044460597B04608954D46A5
:1046C00020E0A946059F4646A046089D04E0A9466D
:1046D000059F4646A046089D301CFFF785FA002836
:1046E000D8D044460597B04608954D460AE0444662
:1046F0000597B04608954D4604E044460597B046F8
:1047000008954D4640460399FFF74EFD069A002A4C
:1047100021D10020089908701DE001235F42059710
:1047200019E0C046CCCCCC0CFFFFFF7F1853000033
:1047300080222A430097039809A90A23FFF744FD22
:10474000059008E080222A430097039809A91023C6
:10475000FFF73AFD0590059E002E09DA029C059FA1
:10476000781C20D1002C1ED10122554202951AE05E
:1047700001273D406A426A41029DA81802900499AF
:10478000059BCE180496A1463BE601214A420292BF
:1047900009E0002FB6DDBF180797059AD143C81965
:1047A000C1078ED539E002980BB03CBC90469946C3
:1047B000A246AB46F0BD4246002A01D12870013521
:1047C0000498484500D1F4E6002E00D1DAE6071C33
:1047D000013704970398FFF76DF9411C00D1DAE621
:1047E0004346002B01D128700135049946464945BE
:1047F00000D0C9E6DDE6013704970398FFF75AF9C0
:10480000411C00D1C7E6002E01D128700135049A61
:104810004A4500D0B8E6B046CBE64046FFF7E4F99B
:10482000002800D06EE7069E002E04D14346089F64
:104830003B7001370897059A013205920398FFF7FC
:1048400039F98046431C00D041E75BE7301CFFF795
:10485000CBF9002800D050E7069B002B01D12E7029
:104860000135671C0398FFF725F9061C411C00D091
:1048700032E744460597804608954D4642E7C046D4
:1048800038B5041C0D1C00F013F8074B1D60802088
:10489000044306490C600A1C1468002CFCD100F08B
:1048A00009F8014D286838BDB8180010BC18001070
:0848B0007047C0467047C04686
:1048B80030202000393020003138300032373000C5
:1048C800465720302E303400546573740025303339
:1048D800692025303369004E415600454E4300702B
:1048E80072657373004E6F20636F6E66696720642C
:1048F8006174612E0000000000000000003078782C
:1049080030300030006C6C6C00000000006C6CFEF5
:104918006CFE6C6C00307CC0780CF8300000C6CCA3
:10492800183066C600386C3876DCCC76006060C01B
:104938000000000000183060606030180060301817
:10494800181830600000663CFF3C660000003030FC
:10495800FC303000000000000000703060000000F3
:10496800FC000000000000000000303000060C18B9
:104978003060C0800078CCDCFCECCC780030F030C3
:10498800303030FC0078CC0C3860CCFC0078CC0C93
:10499800380CCC78001C3C6CCCFE0C0C00FCC0F82D
:1049A8000C0CCC78003860C0F8CCCC7800FCCC0C6F
:1049B800183060600078CCCC78CCCC780078CCCC3F
:1049C8007C0C1870000000303000303000000030DF
:1049D8003000703060183060C0603018000000FC93
:1049E80000FC0000006030180C1830600078CC0C17
:1049F80018300030007CC6DEDEDEC078003078CCAF
:104A0800CCFCCCCC00FC66667C6666FC003C66C0D0
:104A1800C0C0663C00FC6C6666666CFC00FE6268A2
:104A2800786862FE00FE6268786860F0003C66C0E4
:104A3800C0CE663E00CCCCCCFCCCCCCC00783030A0
:104A480030303078001E0C0C0CCCCC7800E6666C4C
:104A5800786C66E600F06060606266FE00C6EEFE96
:104A6800D6C6C6C600C6E6F6DECEC6C600386CC6D2
:104A7800C6C66C3800FC66667C6060F00078CCCCFA
:104A8800CCDC781C00FC66667C786CE60078CCE0B0
:104A9800381CCC7800FCB4303030307800CCCCCC2A
:104AA800CCCCCCFC00CCCCCCCCCC783000C6C6C6A8
:104AB800D6FEEEC600C6C66C386CC6C600CCCCCCDA
:104AC8007830307800FECC983062C6FE007860609E
:104AD8006060607800C06030180C06020078181812
:104AE800181818780010386CC60000000000000084
:104AF80000000000FF3030180000000000000078BF
:104B08000C7CCC7600E0607C666666BC00000078B1
:104B1800CCC0CC78001C0C0C7CCCCC760000007887
:104B2800CCFCC07800386C60F06060F00000007663
:104B3800CCCC7C0CF8E0606C766666E600300070E1
:104B48003030307800180078181818D870E060668F
:104B58006C786CE60070303030303078000000EC53
:104B6800FED6C6C6000000F8CCCCCCCC000000783D
:104B7800CCCCCC78000000DC66667C60F000007667
:104B8800CCCC7C0C1E0000D86C6C60F00000007C63
:104B9800C0780CF80010307C30303418000000CC9D
:104BA800CCCCCC76000000CCCCCC7830000000C651
:104BB800C6D6FE6C000000C66C386CC6000000CC7F
:104BC800CCCC7C0CF80000FC983064FC001C303025
:104BD800E030301C001818180018181800E03030A1
:104BE8001C3030E00076DC00000000000010386C5B
:104BF800C6C6C6FE0078CCC0C0CC78306000CC00F9
:104C0800CCCCCC7E00183078CCFCC078007EC33C7D
:104C1800063E663F00CC00780C7CCC7E0060307885
:104C28000C7CCC7E003C663C063E663F000078CC9F
:104C3800C0CC7830607EC33C667E603C00CC007897
:104C4800CCFCC07800603078CCFCC07800CC007018
:104C580030303078007CC6381818183C0060307046
:104C68003030307800CC3078CCCCFCCC00304830B8
:104C780078CCFCCC001830FC607860FC0000007F29
:104C88000C7FCC7F003E6CCCFECCCCCE0078CC0028
:104C980078CCCC780000CC0078CCCC7800603000A0
:104CA80078CCCC780078CC00CCCCCC7E00603000BE
:104CB800CCCCCC7E0000CC00CCCCFC0CF8C6007C64
:104CC800C6C6C67C00CC00CCCCCCCC780000007C1E
:104CD800CED6E67C00386C64F060E6FC003A6CCE18
:104CE800D6E66CB8000000CC783078CC000E1B18E3
:104CF8007E1818D8701830780C7CCC7E001830706C
:104D080030303078000C180078CCCC78000C1800C3
:104D1800CCCCCC7E0076DC00F8CCCCCC0076DC00A9
:104D2800ECFCDCCC003C6C6C3E007E00003C666613
:104D38003C007E000030003060C0CC78003C5AA5B2
:104D4800B9A9663C00000000FC0C0C0000E66C7879
:104D58007E63CE981FE66C787367CD9F03001800BA
:104D680018183C3C18003366CC6633000000CC664B
:104D78003366CC0000228822882288228855AA55CA
:104D8800AA55AA55AADD77DD77DD77DD77181818DB
:104D9800181818181818181818F81818180C18309F
:104DA80078CCFCCC0078843078CCFCCC00C0603067
:104DB80078CCFCCC003C42B9A1B9423C003636F66E
:104DC80006F636363636363636363636360000FE8F
:104DD80006F63636363636F606FE00000018187E19
:104DE800C0C07E1818CCCC78FC30FC3030000000F5
:104DF80000F8181818181818181F000000181818A4
:104E080018FF00000000000000FF181818181818F4
:104E1800181F18181800000000FF000000181818C4
:104E280018FF18181876DC780C7CCC7E0076DC30FD
:104E380078CCFCCC00363637303F00000000003F0D
:104E480030373636363636F700FF0000000000FFF0
:104E580000F736363636363730373636360000FF06
:104E680000FF0000003636F700F73636360082FEBF
:104E78006C6CFE8200D870D80C3C6C3800FC6C66F8
:104E8800F6666CFC007884FC607860FC00CC00FC62
:104E9800607860FC006030FC607860FC0000C04016
:104EA800E0000000001830783030307800788478DE
:104EB8003030307800CC007830303078001818184E
:104EC80018F8000000000000001F181818FFFFFF66
:104ED800FFFFFFFFFF00000000FFFFFFFF1818188B
:104EE80000181818006030783030307800FFFFFF65
:104EF800FF0000000018307CC6C6C67C000078CCD5
:104F0800F8CCF8C0C07C827CC6C6C67C0030187C51
:104F1800C6C6C67C0076DC0078CCCC780076DC7C13
:104F2800C6C6C67C0000666666667C60C000E0781F
:104F38006C7860F000F0607C667C60F0001830CC23
:104F4800CCCCCC7800788400CCCCCC78006030CC49
:104F5800CCCCCC7800183000CCCCFC0CF81830CC79
:104F6800CC7830780000FC00000000000018300009
:104F7800000000000000000000FC0000003030FCD1
:104F8800303000FC00000000FC00FC0000E62C783B
:104F980033E7CD9F037FDBDB7B1B1B1B007EC378C6
:104FA800CCCC788CF8303000FC00303000000000A9
:104FB8000000003060386C6C380000000000CC0045
:104FC80000000000000000000018000000387818F9
:104FD800187E0000000030383C3C3830000066661F
:104FE8006666666600007E7E7E7E7E7E000000002D
:104FF80000000000004150D4412CD4420201D442A8
:105008002601D4422609D442260BD442260FD44284
:105018001001422002422402422801422AD0423092
:105028000042320E42340D42360041614240004394
:10503800420281434302814151D40000303132336E
:1050480034353637383961626364656630313233F6
:10505800343536373839414243444546B03C000080
:10506800D23C0000D23C0000B43C0000D23C00001E
:10507800D23C0000D23C0000B83C0000D23C00000A
:10508800D23C0000D23C0000BE3C0000D23C0000F4
:10509800C43C0000D23C0000D23C0000CA3C0000E6
:1050A80058410000A23D0000A23D0000A23D0000C2
:1050B800A23D0000A23D0000A23D0000A23D00006C
:1050C800A23D0000A23D0000A23D0000A23D00005C
:1050D800A23D0000A23D0000A23D0000A23D00004C
:1050E800A23D0000A23D0000A23D0000A23D00003C
:1050F800A23D0000A23D0000A23D0000A23D00002C
:10510800A23D0000A23D0000A23D0000A23D00001B
:10511800A23D0000A23D0000A23D0000A23D00000B
:10512800A23D0000A23D0000A23D0000A23D0000FB
:10513800A23D0000BE3D0000A23D0000A23D0000CF
:10514800A23D0000A23D0000A23D0000A23D0000DB
:10515800A23D0000A23D0000A23D0000A23D0000CB
:10516800A23D0000A23D0000A23D0000A23D0000BB
:10517800A23D0000A23D0000A23D0000A23D0000AB
:10518800A23D0000A23D0000A23D0000A23D00009B
:10519800A23D0000A23D0000A23D0000A23D00008B
:1051A800A23D0000A23D0000A23D0000A23D00007B
:1051B800A23D0000A23D0000A23D0000A23D00006B
:1051C800A23D0000A23D0000A23D0000A23D00005B
:1051D800A23D0000A23D0000A23D0000A23D00004B
:1051E800A23D0000A23D0000A23D0000A23D00003B
:1051F800A23D0000A23D0000A23D0000A23D00002B
:10520800C03E0000A23D0000A23D0000A23D0000FB
:10521800A23D0000A23D0000A23D0000A23D00000A
:10522800A23D0000A23D0000A23D0000C83D0000D4
:10523800223F0000A23D0000A23D0000A23D000068
:10524800A23D0000223F0000A23D0000A23D000058
:10525800A23D0000A23D0000023E0000F63E000014
:105268009E3E0000A23D0000A23D0000243E00003A
:10527800A23D0000103F0000A23D0000A23D00003A
:10528800D23E0000EC3F00007E4000007E4000005F
:105298007E4000007E4000007E4000007E4000000E
:1052A8007E4000007E4000007E4000007E400000FE
:1052B8007E400000C43F00007E4000007E400000A9
:1052C8007E4000007E400000C43F00007E40000099
:1052D8007E4000007E4000007E4000007E400000CE
:1052E800BA3F0000EC3F00007E4000007E40000016
:1052F8007E4000007E400000C43F00007E40000069
:105308007E400000EC3F0000286E756C6C290000A0
:1053180004450000A6470000A6470000A647000075
:10532800A6470000A6470000A6470000A6470000C1
:10533800A6470000A6470000A6470000A6470000B1
:10534800A6470000A6470000A6470000A6470000A1
:10535800A6470000A6470000A6470000A647000091
:10536800A6470000A6470000A6470000A647000081
:10537800A6470000A6470000A6470000A647000071
:10538800A6470000A6470000A6470000A647000061
:10539800A6470000A6470000A6470000A647000051
:1053A800A6470000A6470000A6470000A647000041
:1053B800A6470000A6470000A6470000A647000031
:1053C800A6470000A6470000A6470000A647000021
:1053D800A6470000A6470000A64700004447000073
:1053E800A6470000A6470000A6470000A647000001
:1053F800A6470000A6470000A6470000A6470000F1
:10540800A6470000A64700003C450000C445000030
:10541800A6470000A6470000A6470000A6470000D0
:10542800D8450000A6470000A6470000A647000090
:10543800A6470000EC450000224600003646000062
:10544800A6470000A64700004C460000A6470000FB
:1054580030470000A6470000A64700004447000068
:10546800001BB700807F0000802500004531000048
:10547800A0000000BD2F000099310000712F00002E
:0C548800D92E0000D9300000992F000040
:04000003000001ED0B
:00000001FF
