:10000000A41D0010ED010000F5010000F701000043
:10001000F9010000FB010000FD01000092D6FFEF96
:10002000000000000000000000000000FF010000D0
:100030000102000000000000030200004106000071
:10004000070200000702000007020000070200008C
:10005000070200000702000007020000070200007C
:10006000070200000702000007020000070200006C
:1000700007020000090200000B0200004D4B0000C7
:100080000F02000011020000130200001502000020
:10009000F94D00004D4F000000000000000000007E
:1000A0001B0200001D0200001F02000000000000F3
:1000B0002102000023020000250200007D4F000005
:1000C0002F49072291438D462E492F480A1A06D000
:1000D0000722914381F30988022282F314882B4876
:1000E0002B492C4A00F039F82B482C492C4A00F0B7
:1000F00034F82C482C492D4A00F02FF82C482D4973
:100100002D4A00F02AF82D482D492E4A00F025F8F6
:100110002D482E492E4A00F020F82E482E49002264
:1001200000F026F82D482E49091A082903DB002281
:100130000260043001601F481F49884205D00268F0
:10014000043003B4904703BCF7E700208646EC4632
:1001500000200021234A9047FEE7884207D0521A28
:1001600005D0037801300B700131013AF9D17047A5
:10017000884202D002700130FAE770471A4870478F
:10018000A41D0010A41D0010A41D00106472000026
:1001900000000010140000103002000030020000C7
:1001A0007C6300006472000000000010000000107A
:1001B0007C6300007C6300007C6300007C630000C3
:1001C0007C6300007C6300007C6300007C630000B3
:1001D0006472000014000010A4180010A41800108D
:1001E000A4190010E9140000FFFFFFFF0E480F499B
:1001F000016065E7FEE7FEE7FEE7FEE7FEE7FEE7F4
:10020000FEE7FEE7FEE7FEE7FEE7FEE7FEE7FEE7C6
:10021000FEE7FEE7FEE7FEE7FEE7FEE7FEE7FEE7B6
:10022000FEE7FEE7FEE7FEE7008004400200000074
:10023000F0B556464D4644465F46F0B489B0079146
:10024000069005F053F8804605F050F8824605F018
:100250004DF87F210140C2090123934389460139AA
:1002600005930F2901D90120814605F03FF880252B
:10027000041C2E02B04531D080263702BA453FD04B
:10028000264DFA262F68F600002C07D005F06EF8F0
:1002900000280AD12968CA1BB242F5D909B03CBC72
:1002A00090469946A246AB46F0BD05F01FF883463E
:1002B00004F072F9404501D8013CE5E75B46069839
:1002C0000799DAB2059B009001910293404651468E
:1002D0004B4601F0BBFE013C8046D5E704F05CF9DB
:1002E0004A466243D300470859087D1A04F054F97E
:1002F0008542804105408026A8463702BA45BFD1D5
:1003000004F050F94A4641089300CD1A04F04AF926
:10031000854280410540AA46B2E7C0461800001059
:10032000F0B55F4656464D464446F0B487B08B461E
:10033000059004F0DBFF804604F0D8FF824604F00D
:10034000D5FF7F210140C20901239343894601392A
:1003500004930F2901D90120814680242502A84554
:100360002CD0802213029A4535D0214CFA272668DA
:10037000FD0004F0FBFF00280AD12268931BAB426A
:10038000F7D907B03CBC90469946A246AB46F0BDB3
:1003900004F0ACFF071EF4D004F0FEF84045E8D9A5
:1003A0000599049B58460091019002934046FAB289
:1003B00051464B4601F04AFE8046DAE704F0ECF87D
:1003C000460804F0E9F88642BF413E408022B0462C
:1003D00013029A45C9D104F0E5F841084846840063
:1003E0000D1B04F0DFF88542B6413540AA46BCE754
:1003F00018000010F0B54F464646C0B4814685B09F
:10040000081C0F1C022404F065F80123251C9846E3
:1004100004F0ACFF00282BD004F068FF061E0A2E63
:1004200005D00D2803D0092806D1202604E0002D90
:100430000ED0083402250BE0484641460090029158
:10044000281CF2B20197211C012301F0FFFD051CBD
:1004500004F0A2F8854201D30834022504F0A2F882
:10046000221C0832824203D3381C04F033F80224E1
:10047000002ECDD1381C04F02DF805B00CBC9046F0
:100480009946F0BD0B4A00B5012390420FD80A4BA4
:100490000A4A01385860106A0102080AC021090698
:1004A00001431162072000229A6018600023181C83
:1004B00000BDC046FFFFFF0010E000E000ED00E0DF
:1004C000F8B54F4B4F4C984217D006D84E4988424A
:1004D0000CD04E4A904206D10BE04D4DA8420FD0B1
:1004E0004C4EB0420FD02060002104E0206000217B
:1004F0000BE020604121002208E02060412104E05F
:1005000020604221F7E720602221012272B6424B8F
:100510008E208700DD59002A05D020208543DD513B
:1005200000271F6202E00326B543DD51C826C046FE
:10053000013E002EFBD101251A645D645E645D649A
:100540002E1C5F6C344801253742FAD0002915D0A3
:100550008E268160B10046588027BE434650DE6833
:100560002D4901202E42FAD0032500270D67486748
:100570004F674867596F0142FCD00DE0026745673D
:1005800041674567596F24482942FBD08E26B70042
:10059000C55980210D43C5518E26B500002A02D0D1
:1005A0005A59032001E05A59202002435A51256824
:1005B0001A4F1B4BBD4201D9022605E019498D4255
:1005C00001D9012600E000260022DE60281C1A6105
:1005D000154904F0B3FF154E154B376801381F401D
:1005E00000020743281CFA25A900376004F0A6FF83
:1005F000FFF748FFFF2004F0DFFE62B62068F8BD79
:100600000048E801000000100024F40000366E01EC
:1006100000512502006CDC0200800440FF59620298
:1006200000000140FF2C310100093D0000C00140E5
:10063000FF00FFFF014B18687047C0460000001024
:100640005A4B5B481A6830B501321A600368580784
:1006500005D5584C216801312160052944D019077E
:1006600005D5554B1A6801321A60192A00D030BDE1
:10067000002552481D60C36F514910252A1C0B608C
:100680001A4059D00122111C194000D084E04D4D70
:1006900020202C684C4A204328604C481568046888
:1006A0001160641B082204601A4053D14549402060
:1006B0000D68284308604648464904680D68641977
:1006C00004600A60580753D4434908680130086041
:1006D00027285CD93B4B02251C6825431D601968FF
:1006E00001220A431A60C2E70025344A2560D26914
:1006F000910741D502200321D40700D5011C374CB6
:100700002568681AC50707D52160354902250C6898
:100710002840013C20180860500730D4314C25682F
:1007200001352560C72D3AD8132D98D92E4A146863
:1007300001212143116092E72249086805430D60B9
:100740002248214904680D680A606419046008227F
:100750001A40ABD002221A4015D11A4D80212C68C4
:100760001B48214329601B4904680D68641BA7E7E7
:10077000194B00221A607AE701200021BCE7194AD0
:10078000002111606BE71348012101609AE70328FB
:1007900000D86CE70B4BA2E70B490A60D7E7124A77
:1007A0000221106801431160C1E7C0461800001023
:1007B00020000010440000104C0000100000015008
:1007C0003C0000104800001024000010340000100D
:1007D0001C00001028000010140000103000001051
:1007E00038000010400000102C00001072B6044BBE
:1007F0000322186802401A6062B680107047C04633
:1008000038000010024B002218681A607047C0467A
:100810002C00001000B50E4B912280210D485A503B
:10082000DA679A678368002B02D00B4903220A60BB
:1008300008484368002B04D00748012201684A4059
:1008400002600648064A00230360136000BDC046EC
:10085000004004400000015030000010380000103B
:100860002C000010024B002218681A607047C04626
:1008700034000010024B002218681A607047C0460E
:100880001C000010024B002218681A607047C04616
:1008900048000010094B912280215A509420902149
:1008A0009A67DA6719505A50054A002313600549C0
:1008B0000548064A0B60136003607047004004401F
:1008C00048000010340000101C0000103C00001014
:1008D000014B18687047C0461800001000B5034A65
:1008E000116813685B1A8342FBD300BD1800001027
:1008F00008B5002802D1034B186801E0FFF7E0FDBE
:1009000008BDC0460000001070B572B6294B122118
:100910001A1CFC328E20516584001D5910200122C2
:100920008543254E1D519A670433DE678021A0233D
:10093000DC050B02E558214904262E400D1CA43588
:10094000E650C86128604866E65808253540E550FD
:10095000C8621B488025C458AD001443C45000240D
:1009600044601848C6583543C55080231E01845141
:100970001548212355428A638460C460046104677A
:10098000446185614267C3634260104A104916683A
:10099000301C04F0D3FD0F4D0F49013800020860F0
:1009A0002C60FA24A100301C04F0C8FDFFF76AFD9A
:1009B00062B670BD008004405F2101000040044029
:1009C0000000035000000150000001400000001032
:1009D00000093D001800001000C0014070B58EB045
:1009E000149E12AC257801AC06962371139E074B1A
:1009F00022730391A0710D21201C054A0596657193
:100A0000019304F01FFD0EB070BDC046EFBEADDE19
:100A100050000010F0B55F464D4644465646F0B4CF
:100A2000A74E91B0326881460C1C0792FFF7F2FE88
:100A3000F820010204230020FC253360EF00009120
:100A40002A22011C7F2303F043FA00972A20002169
:100A500054227F2303F03CFA1F2200927F22131CB2
:100A60000021542003F034FA9648FFF737FF201C8A
:100A700003F030FD002003F07BFDC8231D02282277
:100A80000027131C00950A20142103F07BFA3B1C5D
:100A900019218D4A0095019702970F2001F01CFD46
:100AA0005A2003F065FDC820C5002822131C0095BC
:100AB0000A20142103F066FA3B1C1921834A009591
:100AC000019702970F2001F007FDB42003F050FDBD
:100AD00019252822131C00950A20142103F052FA2C
:100AE0003B1C291C7A4A0095019702970F2001F0C0
:100AF000F3FC8721480003F03BFD764A0A2090462C
:100B000000922822131C142103F03CFA4046291CB1
:100B10003B1C714A0090019702970F206F4D01F026
:100B2000DBFC381C03F024FD2021381C0B1C7F2229
:100B3000009503F0AFFB4021381C0B1C7F22009571
:100B400003F0A8FB6021381C0B1C7F22009503F0EA
:100B5000A1FB2020391C021C7F23009503F09AFB87
:100B60004020391C021C7F23009503F093FB60207A
:100B7000391C021C7F23009503F08CFB4020011CD4
:100B800028222B1C02F0D4F902203B1C019702976B
:100B9000011C534A009501F09FFC80210802019737
:100BA0000297504A02230095011C01F095FC4B4628
:100BB0000122BB460697B9460592A0461F1C346821
:100BC000042C0BD1FFF712FE069D47492A1808A8EE
:100BD000069204F083FDFFF715FE0DE0FFF742FEDD
:100BE0008344FFF747FE814440495A464B4608A8D4
:100BF00004F074FDFFF746FE041C012540460190F9
:100C00000C2100970295052008AA002301F064FC3E
:100C100037498A46002C3AD002234D6023402AD01F
:100C200033680097042B0CD1414601910295202195
:100C3000304A0023052001F04FFC0825FFF72AFE6B
:100C40000BE040460190029520212B4A002305200D
:100C500001F042FCFFF7DEFD0425FA22500035606A
:100C6000FFF73CFEFFF7CEFD0028FBD1FFF70AFEA1
:100C70000028F7D10CE02C420AD04446009701949A
:100C8000029516211D4A052001F026FC00E04C606B
:100C900004F06CFB002802D004F028FB05900598B6
:100CA00000288CD154466060404603F013FC079B3B
:100CB000336011B03CBC90469946A246AB46F0BDAD
:100CC00020000010DC050000F0660000F466000063
:100CD000F866000019C80000FC660000CF7B000029
:100CE0000067000008670000126700000D67000041
:100CF00000000350176700001B6700001F6700001B
:100D0000F0B55F4656464D464446F0B485B0884639
:100D1000071C04F0EBFA051C04F0E8FA041C04F0CC
:100D2000E5FA814604F0E2FA834604F0DFFA802314
:100D3000191C0140061C9E438A4603F0FFFD4846ED
:100D40005B462A18E318013A013B281C211C03F0DA
:100D50006DFC03F069FC022E3CD0042E3ED0012E27
:100D60001ED0B54C52462568002A21D1182E2DD907
:100D70004E465F467E43002E1DD0FA20C70005E098
:100D80002368591BB94216D8002E14D004F0EEFA8D
:100D90000028F5D004F08AFA03F032FC013EF3E7B4
:100DA000A64D0027A846A44C5046256800283AD0F6
:100DB0005346802B16D003F021FC03F0B5FD05B09F
:100DC0003CBC90469946A246AB46F0BD9C48B1005B
:100DD00043589F4600229046984FE4E73C1C474604
:100DE000A046E0E7182E00D8EDE04E465F467E4371
:100DF000002EE0D09349FA23DA008946904605E0B8
:100E00002068471B4745D6D8002ED4D004F0AEFA50
:100E10000028F5D004F04AFA484500D1D7E003F0A5
:100E2000EFFB013EF0E74E4659464E43002EC2D03E
:100E3000424680234020A8469A468346A146151C78
:100E400009E04C4623684146FA22581AD400A042D1
:100E5000B1D8002EAFD004F089FA0028F1D004F008
:100E600045FA041C002EA6D05346281C234200D06D
:100E7000381C03F0C5FB012E9DD05946281C214289
:100E800000D0381C03F0BCFB022E94D02022281C7A
:100E9000224200D0381C03F0B3FB032E00D18AE7B6
:100EA000281CE10600D5381C03F0AAFB042E00D153
:100EB00081E7281C220700D5381C03F0A1FB052E72
:100EC00000D178E7281C630700D5381C03F098FB95
:100ED000062E00D16FE7281CA10700D5381C03F0AF
:100EE0008FFB072E00D166E7381CE20700D4281CD0
:100EF00003F086FB083EACE74E465F467E43002E7D
:100F000000D158E7F822FC21FA2090468946C70014
:100F100007E023685A1BBA4200D94CE7002E00D1E3
:100F200049E704F023FA0028F3D004F0DFF9414642
:100F300008400002834604F0D9F94B461840C2002D
:100F4000594611438A4604F0D1F9434618405246A7
:100F5000C008104303F054FB013EDFE74F465846FC
:100F60004743002F00D126E7092E00D148E2082E82
:100F700000D16EE2C0263820B1468046072609E03F
:100F80002168FA234A1BD800824200D913E7002FB8
:100F900000D110E704F0EAF90028F1D004F0A6F936
:100FA000494601408A0053189A0143460340D9003C
:100FB000CB189900114330408200081C104303F005
:100FC0001FFB013FE3E7204AB1005058874604F079
:100FD0008DF98346002800D1EDE604F067F98246DA
:100FE000002E00D1E7E65B46371CDA070DD403F08C
:100FF00007FB771E06E0002800D1DCE6504603F030
:10100000FFFA023F002F00D1D5E6504603F0F8FA70
:10101000781E821B5A44002AEDD1061CF4E64E4687
:101020005F467E43002E00D1C5E6FA21F823CA00B0
:101030009B46914612E0C04618000010FFFF0000DA
:101040007C630000AAAA0000E06300002068471B40
:101050004F4500D9AFE6002E00D1ACE604F086F98A
:101060000028F3D004F022F9AA2800D1BBE05B46A7
:101070001840070204F03AF9824604F037F9524664
:10108000FC2111405B46CA001840C108101C0843EF
:10109000384303F0B5FA013EDDE74F465846474373
:1010A000002F00D187E60722934609E02368FA2043
:1010B000591BC200914200D97DE6002F00D17AE68B
:1010C00004F054F90028F1D004F010F9AA2800D156
:1010D0004FE1082E00D1BDE0092E00D1C8E0C023A9
:1010E00003409900CA1838230340D900CB18920155
:1010F0009B0013435A4610408200181C104303F013
:101100007FFA013FD9E74E465A465643002E00D19A
:1011100051E6A346AA4644460BE05D46296853467D
:10112000FA22C81AD500A84200D944E6002E00D100
:1011300041E604F01BF90028EFD004F0D7F8051EB3
:10114000AA2D00D1A4E0002E00D134E68021201C7D
:10115000294200D0381C03F053FA012E00D12AE6B0
:101160004023201C2B4200D0381C03F049FA022EE9
:1011700000D120E62022201C2A4200D0381C03F097
:101180003FFA032E00D116E6201CEA0600D5381CD3
:1011900003F036FA042E00D10DE6201C2B0700D5F3
:1011A000381C03F02DFA052E00D104E6201C690737
:1011B00000D5381C03F024FAB01F8146002800D166
:1011C000F9E5201CAB0700D5381C03F019FA072EEF
:1011D00000D1F0E5381CEB0700D4201C4E4603F08C
:1011E0000FFA023EA2E704F081F88246002800D1FF
:1011F000E1E504F07BF85F46074004F077F8FC2255
:101200001040C3003F021F4304F070F859460840E5
:10121000C0080743B846002E00D1CCE55246371C23
:10122000D10704D4404603F0EBF9771E0FE04046A7
:1012300003F0E6F97B1E991B5144002900D1DDE043
:10124000002B00D1B7E5404603F0DAF9023F002F4A
:10125000EDD1B0E5E0211823014003400A02590016
:10126000CB18D900CB1A9B0013435A46104043E7D2
:101270001C230340DA00D318DA00E02103230140E5
:101280000340980009021143C2185200081C35E7B8
:1012900004F02CF88046002800D18CE504F026F8F4
:1012A000051C002E00D186E58021014052460191A7
:1012B000402303400292019A59469C46039192466C
:1012C000E3464BE05B46201C002B00D0381C03F0AB
:1012D00097F9012E00D16EE52022201C2A4200D071
:1012E000381C03F08DF9022E00D164E5201CE906BC
:1012F00000D5381C03F084F9032E00D15BE5201CD7
:101300002A0700D5381C03F07BF9042E00D152E5E2
:10131000201C6B0700D5381C03F072F9701F814642
:10132000002800D147E5201CAA0700D5381C03F08F
:1013300067F9062E00D13EE5381CEB0700D4201CCF
:1013400003F05EF901214B4298444E464246023E6C
:10135000002A00D1A6E0002E00D12CE55146201C29
:10136000002900D0381C013E03F04AF9002EA9D113
:1013700021E503F0BBFF8246002800D11BE503F006
:10138000B5FF082E00D192E0092E00D19DE0C021CA
:1013900001408B005A1838230340D900CB18920122
:1013A0009B0013435A461040800003439946002F88
:1013B00000D100E55146B846CA0714D4181C03F002
:1013C0001FF97B1E9846002B0DD1F4E4002800D1B4
:1013D000F1E4484603F014F902214B429844404698
:1013E000002800D1E7E4484603F00AF940460138F6
:1013F000C21B5244002AE9D1071C5EE61E1C2AE6E5
:10140000FA26E0211C23F6008946984607E0226868
:10141000501BB04200D9CEE4002F00D1CBE403F042
:10142000A5FF0028F3D003F061FF49464346014081
:1014300003400A02D900CB18D900114303221040FF
:10144000830018184200081C104303F0D9F8013F2C
:10145000E2E7FA261821E023F6008B469A4607E0D9
:101460002068421BB24200D9A5E4002F00D1A2E4BB
:1014700003F07CFF0028F3D003F038FF5946014009
:101480004B005918CA00531A5246024099001302E1
:101490000722194310408300081C184303F0B0F8DA
:1014A000013FE2E7029D0398AA4683463EE6E02319
:1014B00003401A02182303405900CB18D900CB1A55
:1014C0009B0013435A4610406EE7E0211C23014065
:1014D00003400A02D900CB18DB001343032210405B
:1014E00081000818400060E7F0B55F4656464D465B
:1014F0004446F0B49DB0FFF707FA03F059F8E1490C
:101500000B685A0701D500F081FD1A0701D400F0DD
:1015100073FDDD4F91238021902294207B50DB4C82
:10152000BB67DB49FB673A50BB50DA4FDA4B00250B
:101530002560A3463D6009970A931D600D910D60DB
:10154000D648FFF7D5F9D64CD64A25682868904288
:101550002BD0D54E012500277560D44802F0BAFF84
:101560000A21D34A01230097019702970A2000F02D
:10157000B3FFD049D04BD14A99617760D04E3568DE
:101580003068471B9742FBD9C84E00219623009133
:10159000019102209901A02230230296FFF71EFA42
:1015A0000020311CFFF736FA25682A69686907921E
:1015B000069002F08FFF27687979642900D96421A9
:1015C0000E04701A642103F0B9FFBB4BC5439D6143
:1015D0003A79BC4880255043FFF78AF92068A02655
:1015E000806803F01DFD2768387B03F03BFB24680F
:1015F0002F018020B44DA279F3054400101C196915
:1016000000290BD1D95904200029F8D02E590222E3
:101610000120002EF2D119690029F3D003F0CCFE8D
:10162000AA4AAB4F00230B939146BA4603F05EFEE5
:10163000A32805D903F06EFE03F058FEA328F9D8BD
:10164000A44E84003559AF469F4D2C69002CFBD029
:10165000099A0023494610680F681360B8470A9E2C
:1016600000254C4630682268356090475946002373
:1016700008680B604B4619688847DBE792480669A3
:10168000002EFBD072B6944A032417683C401460C5
:1016900062B64E46B8103568A84754460023206805
:1016A00023604E4632689047C4E755462B680021B8
:1016B0002960002BF9D072B6874A8748176803243F
:1016C0003C40046062B64E46B8103568A8475346A1
:1016D0000021186819604B461A689047AAE7099FCD
:1016E000002438683C604E463568A8470A9B0021B4
:1016F000186837681960B8475C46CFE703F0F6FD15
:10170000062893D8754F80003E58B7460D20B1E7A4
:101710000B9D002D02D1674C674FBC61079806995D
:10172000FFF778F90220BCE76D4803F06BFD81E715
:1017300006980799FEF7F4FD78E707980699F9E708
:1017400003F0D4FD071C03F0D1FD011C381CF1E7A8
:1017500006980799FEF76CFD68E707980699F9E780
:1017600003F0C4FD041C03F0C1FD011C201CF1E7C3
:1017700003F0BCFD061C03F0B9FD051C03F0B6FD2B
:10178000071C03F0B3FD031C06980090301C291CB5
:101790003A1C00F0F5FE49E703F0A8FD061C03F033
:1017A000A5FD051C03F0A2FD071C03F09FFD079992
:1017B000031C0091EAE703F099FD071C03F096FD76
:1017C000061C03F093FD051C03F090FD041C03F0C0
:1017D0006DFD311C00902A1C381C231CD9E703F036
:1017E00085FD071C03F082FD061C03F07FFD051C30
:1017F00003F07CFD069A031C0092381C311C2A1C45
:1018000001F084F812E703F071FD071C03F06EFD90
:10181000061C03F06BFD051C03F068FD031C079814
:101820000090EAE703F062FD071C03F05FFD061C71
:1018300003F05CFD051C03F059FD041C03F036FDAC
:10184000311C00902A1C381C231CD9E703F04EFDE4
:10185000071C03F04BFD061C03F048FD069B021C11
:10186000311C381C01F0D4F9E0E603F03FFD051C03
:1018700003F03CFD041C03F039FD211C021C079BF6
:10188000281CEFE720000010004004404800001032
:101890003C000010340000101C000010006CDC0242
:1018A00004000010EFBEADDE00000350FFFF00009B
:1018B000286700000080FFFF00000140E7030000F0
:1018C0001800001040420F00000001500C000010F2
:1018D0002C0000104464000038000010D4660000A2
:1018E0003867000003F002FD071C03F0FFFC061C34
:1018F00003F0FCFC051C03F0D9FC311C031C2A1C62
:10190000381CAFE703F0F2FC071C03F0EFFC041CEB
:1019100003F0ECFC069B021C211C381C01F008FBA8
:1019200084E603F0E3FC061C03F0E0FC051C03F076
:10193000DDFC291C021C079B301CEFE703F0D6FCE2
:10194000071C03F0D3FC061C03F0D0FC041C03F0BE
:10195000ADFC311C031C221C381CDFE703F0C6FC65
:10196000051C03F0C3FC041C03F0C0FC071C03F0BF
:10197000BDFC061C03F0BAFCEA19A3190699013A4A
:10198000013B00900191281C211C01F0D9FB4DE680
:1019900003F0ACFC051C03F0A9FC041C03F0A6FC3E
:1019A000071C03F0A3FC061C03F0A0FCEA19A31912
:1019B000013A013B00900799E4E703F097FC051C0E
:1019C00003F094FC041C03F091FC804603F08EFCB1
:1019D000071C03F08BFC061C03F068FC4346EA1866
:1019E000E319013A013B00960190CCE703F07EFC3D
:1019F000051C03F07BFC041C03F078FC071C03F0BF
:101A000075FC061C03F072FCEA19A31900900698F5
:101A1000013A013B0190281C211C01F0C3FF05E69F
:101A200003F064FC051C03F061FC041C03F05EFC85
:101A3000071C03F05BFC061C03F058FCEA19A31911
:101A40000090013A013B0798E4E703F04FFC051CC6
:101A500003F04CFC041C03F049FC804603F046FCF8
:101A6000071C03F043FC061C03F020FC4246AA18A6
:101A7000E319013A013B00960190CCE703F036FCF4
:101A8000051C03F033FC041C03F030FC071C03F0BE
:101A90002DFCEA1923180699013A013B0091281CF4
:101AA000211C02F015FAC1E503F020FC051C03F02F
:101AB0001DFC041C03F01AFC061C03F017FCAA19F9
:101AC0002318013A013B0799E8E703F00FFC051CD6
:101AD00003F00CFC041C03F009FC071C03F006FCDB
:101AE000061C03F0E3FBEA19A319013A013B00903D
:101AF000D5E703F0FBFB051C03F0F8FB041C03F027
:101B0000F5FB071C03F0F2FBEA1923180698013ACB
:101B1000013B0090281C211C02F034FA86E503F0FA
:101B2000E5FB051C03F0E2FB041C03F0DFFB061CD5
:101B300003F0DCFBAA192318013A013B0798E8E7F8
:101B400003F0D4FB051C03F0D1FB041C03F0CEFB17
:101B5000071C03F0CBFB061C03F0A8FBEA19A31932
:101B6000013A013B0090D5E703F0C0FB059003F07C
:101B7000BDFB804603F0BAFB059B071C002B00D180
:101B800054E51C1C013C01222240089203F0AEFBEC
:101B9000061C03F0ABFB0699051C00914046391C5E
:101BA000321C2B1C02F076FB002C00D13EE508987D
:101BB000002812D003F09AFB804603F097FB069CA6
:101BC000071C0094301C291C42463B1C02F062FB9F
:101BD000059C4646023C3D1C1CE003F087FB80460A
:101BE00003F084FB069B071C291C4246301C009313
:101BF0003B1C02F04FFB03F079FB061C03F076FB65
:101C0000069A051C00924046391C321C2B1C02F01F
:101C100041FB023C002CE0D108E503F067FB059096
:101C200003F064FB804603F061FB0599071C002963
:101C300000D1FBE40C1C013C01202040089003F083
:101C400055FB061C03F052FB079B051C0093404606
:101C5000391C321C2B1C02F01DFB002C00D1E5E4CA
:101C6000089A002A12D003F041FB804603F03EFBA5
:101C7000079C071C0094301C291C42463B1C02F0A8
:101C800009FB059C4646023C3D1C1CE003F02EFB74
:101C9000804603F02BFB0799071C42463B1C301C77
:101CA0000091291C02F0F6FA03F020FB061C03F059
:101CB0001DFB051C0798391C0090321C40462B1C4C
:101CC00002F0E8FA023C002CE0D1AFE403F0EEFAB7
:101CD000059003F00BFB089003F008FB804603F02F
:101CE00005FB089B071C002B00D19FE41C1C013C3A
:101CF000012222400C9203F0F9FA061C03F0F6FAD6
:101D00000599051C00914046391C321C2B1C02F021
:101D1000C1FA002C00D189E40C98002812D003F0FD
:101D2000E5FA804603F0E2FA059C071C0094301C9B
:101D3000291C42463B1C02F0ADFA089C4646023C78
:101D40003D1C1CE003F0D2FA804603F0CFFA059B5D
:101D5000071C291C4246301C00933B1C02F09AFAD7
:101D600003F0C4FA061C03F0C1FA059A051C0092A0
:101D70004046391C321C2B1C02F08CFA023C002C11
:101D8000E0D153E403F0B2FA061C03F0AFFA051CED
:101D900003F0ACFA041C03F0A9FA0699031C0091A5
:101DA000301C291C221C02F075FA3FE403F09EFA55
:101DB000061C03F09BFA051C03F098FA041C03F0C0
:101DC00095FA031C07980090EAE703F08FFA071CC6
:101DD00003F08CFA061C03F089FA051C03F086FA5E
:101DE000041C03F063FA311C00902A1C381C231CCD
:101DF000D9E703F07BFA071C03F078FA069A011C76
:101E0000381C02F043FB11E403F070FA061C03F0E7
:101E10006DFA079A011C301CF3E703F067FA051C02
:101E200003F064FA041C03F041FA211C021C281C74
:101E3000E7E7069802F04EFBFFF7F8FB0798F9E793
:101E400003F034FAF6E707980699FEF759FFFFF713
:101E5000EDFB07980699FEF7CDFA26203BE403F048
:101E600025FA0690FFF7E2FB03F020FA0790FFF750
:101E7000DDFB03F03BFA02F089FDFFF7D7FB02F030
:101E800091FB03F0CFF9FFF7D5FB02F085FBF8E7F4
:101E900003F02CFA02F06CFBFFF7C8FB03F026FA04
:101EA00002F01EFDFFF7C2FB03F020FA02F026FD50
:101EB000FFF7BCFB03F01AFA02F048FDFFF7B6FB90
:101EC00002F076FBFFF7B2FB03F010FA0B90011E55
:101ED000642900D964210804401A642103F02EFB10
:101EE0004D4EC743B761FFF7A1FB58460368002179
:101EF0000160002BFAD0099A834610681160FFF741
:101F0000F2FB03F0F3F9410757D4030712D5434B13
:101F100091278021902694255F509F670D99DF6758
:101F20005E519F51099B0A9F00245A4614600C6021
:101F30001C603C603A4E3060FFF778FB03F0D6F946
:101F4000384D6843FEF7D4FCFFF770FB03F0CEF981
:101F500002F088FEFFF76AFB03F072F903F060F805
:101F6000FFF764FB03F0C2F903F026FAFFF75EFB0C
:101F700003F01CFA041C03F013FA071C03F00AFA1E
:101F8000061CFEF757FB069A422514926D4410AAD0
:101F900012A92C7010700BAC2348079B0E70119780
:101FA000412627786E440F900D210FA81F4A1393E6
:101FB000377003F047FAFFF739FB184D9124802260
:101FC0001B49AC50EC67AC678B68002B02D0194EF4
:101FD00003273760164D6C68002C07D0154A012383
:101FE0001168144E0491049F7B403360124C00250D
:101FF00052462560156088E7104A114C114D124E6B
:10200000934609940A950D96FFF79AFAFEF702FC9B
:1020100003480368FFF779FA0000014000400440DC
:102020002000001040420F00EFBEADDE5000001057
:10203000000001503000001038000010480000106F
:10204000340000101C0000103C000010F0B5564693
:102050005F464D464446F0B4151CDA008BB09B46F3
:10206000131806930190C548069E0C1C036814992A
:10207000013E8A469E4200D3E1E0C149671E0868DE
:10208000BA18824200D3DAE01F2D00D8D9E05B46AF
:10209000013B0793203D02F051FCBA4EED00079A38
:1020A000AF190597002A00D04FE1019E0198013633
:1020B0000230019B0199019A02960490019E0198B9
:1020C000033304310532251C3F1B063608350593C2
:1020D0000391079207307F23402120220896099020
:1020E00056469846BA46894693462F1C1DE0002B5B
:1020F00000D01CE14846284200D00AE15946294256
:1021000000D0F8E0E90600D5E7E02A0700D5D6E0E0
:102110006B0700D5C5E0A90700D5B4E0EA0700D5F4
:1021200097E00134BC4200D1A9E055462D5D1698D8
:102130002B1C41468B430028D9D00198211C021C3E
:10214000002B00D0A1E1231C02F070FA02F06CFA1F
:10215000159802F055FA02F051FA4A460298211CED
:102160002A4200D089E1021C231C02F05FFA02F02F
:102170005BFA159802F044FA02F040FA04985B46C4
:10218000211C021C2B4200D09EE1231C02F04EFABF
:1021900002F04AFA159802F033FA02F02FFA059885
:1021A000E90600D587E1021C211C231C02F03EFA3F
:1021B00002F03AFA159802F023FA02F01FFA039897
:1021C000211C2A0700D56EE1021C231C02F02EFA06
:1021D00002F02AFA159802F013FA02F00FFA0798A3
:1021E000211C021C6B0700D556E1231C02F01EFACD
:1021F00002F01AFA159802F003FA02F0FFF90898B3
:10220000A90700D530E1021C211C231C02F00EFAA4
:1022100002F00AFA159802F0F3F902F0EFF90998C2
:10222000211CEA0717D4021C231C02F0FFF902F05C
:10223000FBF9159802F0E4F902F0E0F971E70133D7
:10224000019301980BB03CBC90469946A246AB4620
:10225000F0BD0998211C021C231C02F0E7F902F0D2
:10226000E3F9301C02F0CCF902F0C8F959E7029FFB
:102270000599381C089A58440290914270D102F096
:1022800053FB069BDCE70898211C021C231C02F070
:10229000CDF902F0C9F9301C02F0B2F902F0AEF942
:1022A0003CE70798211C021C231C02F0BFF902F036
:1022B000BBF9301C02F0A4F902F0A0F92BE7039857
:1022C000211C021C231C02F0B1F902F0ADF9301CF4
:1022D00002F096F902F092F91AE70598211C021C07
:1022E000231C02F0A3F902F09FF9301C02F088F9D8
:1022F00002F084F909E70498211C021C231C02F057
:1023000095F902F091F9301C02F07AF902F076F9B1
:10231000F8E60298211C021C231C02F087F902F047
:1023200083F9301C02F06CF902F068F9E6E60198D6
:10233000211C021C231C02F079F902F075F9301CF3
:1023400002F05EF902F05AF9D4E60198059D1318DF
:102350000294159C08350133059908950993A04608
:10236000059E01310591079A029937785018009718
:102370000490099D019C082780260FE05010001052
:102380005810001040670000169900293BD1013F0A
:102390002C1C76085D44002F00D168E7009B6A1E64
:1023A0003342F1D0201C049B029902F03FF902F065
:1023B0003BF9281B5B4643439946002B20D01C1C4D
:1023C000013C012121405046039102F019F9002CF3
:1023D00016D0039A002A06D04C465046023C02F022
:1023E0000FF9002C0CD0A9465546281C02F008F91C
:1023F000023C281C02F004F9002CF6D1AA464D46F6
:1024000002F0FCF8C3E7201C0299049B02F00EF9CD
:102410002C1B02F009F95A4662439146002AEFD07C
:10242000141C013C012020400390404602F0E8F8D3
:10243000002CE5D0039B002B06D04C464046023CC6
:1024400002F0DEF8002CDBD04146A8460D1C281C0B
:1024500002F0D6F8023C281C02F0D2F8002CF6D18B
:102460002A1C45469046CBE7021C211C231C02F087
:10247000DDF802F0D9F8301CCDE6021C231C02F076
:10248000D5F802F0D1F8301C74E6231C02F0CEF827
:1024900002F0CAF8301C5CE6231C02F0C7F802F018
:1024A000C3F8301CA7E6021C231C02F0BFF802F0A0
:1024B000BBF8301C8FE6021C211C231C02F0B6F86E
:1024C00002F0B2F8301C76E6231C02F0AFF802F0FE
:1024D000ABF8301C5FE6C046F0B556464D46444664
:1024E0005F46F0B485B00E1C141C1D1C0E9A0F9B89
:1024F0001099904699468A46002D00D101258027E3
:102500003A02904226D080210A02964218D01A4FF1
:102510002278002A0DD04346009349465346019144
:102520000293311C2B1CFFF791FD3A680134904255
:10253000EED905B03CBC90469946A246AB46F0BDEC
:102540000E4EEB0037685A087908891AB942B6412D
:102550000E40DCE7084F38684308201C9B4603F018
:10256000D3F8E90041435A4648083F68131ABB4272
:1025700080411840C7E7C0465010001058100010A6
:10258000F0B55F4656464D464446F0B48DB00590D2
:10259000C6480993059D03680891169C8346AE1AA8
:1025A0009E4200D3E6E0C24F089D3968099EBA46B4
:1025B000AF1B8F4200D3DDE0301C554270430295C3
:1025C0006F00029E0137474376435243BD19069779
:1025D000029F079652004000002604950A920B9035
:1025E0000396002F00DDCCE0301C059A029D059E6D
:1025F000571B089AAD19B9468618B8469F4201D3B1
:10260000581E804601968E4201D34F1E01972F1E01
:102610009F4200D35F1E8E4200D34E1EB84502D8A3
:102620003B1C474698460199B14202D8321C019E94
:10263000019202F083F9381C311C019B424601F0E3
:10264000F5FF01F0F1FF0198434601300133811B92
:10265000DF1B4F43002F19D07E1E01223240201C69
:10266000904601F0CDFF002E10D04046002804D047
:10267000201C01F0C5FFBE1E06E0201C01F0C0FFBB
:10268000201C01F0BDFF023E002EF6D15F4601F096
:10269000B5FF02F049F9089B03993A685E1A914523
:1026A00001D3501E814653461968371E8F4200D30E
:1026B0004F1E954200D3551E8E4200D34E1EA94593
:1026C00002D82A1C4D469146B74202D8301C3E1C07
:1026D000071C02F033F93B1C281C311C4A4601F050
:1026E000A5FF01F0A1FF4B4601370133B91B5D1B6C
:1026F0004D43002D17D06F1E0126201C3E4001F0D7
:102700007FFF002F0FD0002E04D0201C01F078FF97
:10271000AF1E06E0201C01F073FF201C01F070FFCB
:10272000023F002FF6D101F069FF02F0FDF8049A94
:1027300006995000884208DB0B9D029B049F4E19AE
:102740000133BA190293069604920799884208DC6D
:102750000A9B0398049DCE180130AF190390079689
:102760000497029A002A0CDC5E46574633683968A3
:1027700003983AE70DB03CBC90469946A246AB465A
:10278000F0BD039D0898099BE943071C5A1B0E18CE
:102790000137D2075BD4A046059C33E09E4210D29D
:1027A00002F0CCF8311C221C331C201C01F03EFF2F
:1027B00001F03AFF404601F023FF01F01FFF02F055
:1027C000B3F8584602680135013E944218D2534688
:1027D0001B687919894699424FD39E4210D202F064
:1027E000ADF8311C221C331C201C01F01FFF01F02E
:1027F0001BFF404601F004FF01F000FF02F094F8D7
:102800000135013E099BAB42B4D958460268944257
:10281000D7D253461B68791989469942BED202F035
:102820008DF8221C49464B46201C01F0FFFE01F0AA
:10283000FBFE404601F0E4FE01F0E0FE02F074F819
:10284000584602689442BCD251460B68A6E7099DDF
:1028500003998D4200D88DE75846059B0268934244
:1028600007D2039D514609687D198D4234D38E42AB
:1028700020D3039D013E01358DE702F05FF8221C55
:1028800049464B46201C01F0D1FE01F0CDFE4046EA
:1028900001F0B6FE01F0B2FE02F046F858460268BA
:1028A0009442ADD251460B6897E7C04650100010D5
:1028B0005810001002F042F80598311C021C331C1D
:1028C00001F0B4FE01F0B0FE201C01F099FE01F011
:1028D00095FE02F029F8CCE702F030F805982B1CA1
:1028E000021C291C01F0A2FE01F09EFE201C01F03A
:1028F00087FE01F083FE02F017F85846059B026838
:102900009342B6D255462968B1E7C046F0B55F4656
:1029100056464D464446F0B48BB007935B43544251
:1029200005916100051C0131201C5943604352434D
:102930000E1852005B0003910490029608920993CE
:102940000027002C00DD92E0AF48B04982468B465C
:102950008146B846069543E0874212D201F0EEFF69
:10296000321C3B1C391C301C01F060FE5E4601F03D
:102970005BFE149801F044FE01F040FE01F0D4FF2C
:1029800033689D4214D249460A68BA4210D901F010
:10299000D5FF391C2A1C3B1C281C01F047FE01F006
:1029A00043FE149801F02CFE01F028FE01F0BCFF5C
:1029B000029D03986F00874205DB099E013483194D
:1029C000E91803930291049DAF4207DC089F029E21
:1029D000E81901223318904404900293002C44DC3F
:1029E000059F5B46069D3E1C1B6846442D1B0196B9
:1029F0009D4216D251460868864212D201F09EFFCF
:102A000001992A1C0B1C281C01F010FE5F4601F0E6
:102A10000BFE149801F0F4FD01F0F0FD01F084FFCD
:102A20003B68069E05994246A6198F1A9E42A8D277
:102A300075480199006881428ED201F07FFF0199AB
:102A4000321C0B1C301C01F0F1FD01F0EDFD14985F
:102A500001F0D6FD01F0D2FD01F066FF5B461B6878
:102A60009E428ED2684A106876E7069D4746059AD0
:102A7000F9438E1865489346079A634980460123B7
:102A8000D01B3C1C9B448A46C10713D5079CBC4203
:102A900000D882E0434619688D4209D250465A4612
:102AA0000068D419844200D292E0864200D27BE0D2
:102AB0007C1C013E5F4633E09E4210D201F03EFF97
:102AC000311C2A1C331C281C01F0B0FD01F0ACFDA8
:102AD000149801F095FD01F091FD01F025FF4146AC
:102AE0000A680134013E954218D253461B683819D2
:102AF0008346984239D39E4210D201F01FFF311C09
:102B00002A1C331C281C01F091FD01F08DFD149846
:102B100001F076FD01F072FD01F006FF0134013E87
:102B2000079BA34239D941460A689542D7D25346FA
:102B30001B68381981469842BED201F0FFFE494613
:102B40002A1C4B46281C01F071FD01F06DFD149804
:102B500001F056FD01F052FD01F0E6FE41460A6823
:102B60009542BCD250460368A6E701F0E7FE5946FD
:102B70002A1C5B46281C01F059FD01F055FD1498F4
:102B800001F03EFD01F03AFD01F0CEFE41460A683B
:102B90009542C3D250460368ADE70BB03CBC9046AB
:102BA0009946A246AB46F0BD01F0C8FE311C331C6D
:102BB0002A1C281C01F03AFD01F036FD149801F0A2
:102BC0001FFD7C1C01F01AFD013E01F0ADFE71E716
:102BD00001F0B4FE211C231C2A1C281C01F026FD38
:102BE00001F022FD149801F00BFD01F007FD01F04A
:102BF0009BFE434619688D4200D359E75246106840
:102C0000864200D354E7CFE7581000105010001050
:102C1000F0B55F4656464D464446F0B487B0039043
:102C2000C1481C1C039D036804918346AE1A9E4252
:102C300000D36FE1BD4F04983968851A8D4200D3E7
:102C400068E1564205960292002A00DA62E100220B
:102C50000192039F0298049A3D1AC619019FA94642
:102C6000BF189D4201D3581E8146BA468F4201D3F8
:102C70004A1E9246B0469E4201D3013B98468F427F
:102C800000D34F1EC14502D84346C8469946BA45AF
:102C900002D8391C57468A4601F050FE4046391C7E
:102CA0004A46534601F0C2FC01F0BEFC50464B467A
:102CB000414601300133C21B5F1A5743B846002F0B
:102CC00019D0013F012038408146201C01F098FCBA
:102CD000002F10D04A46002A04D0201C01F090FC9E
:102CE000474605E0201C01F08BFC201C01F088FC0D
:102CF000023F002FF6D101F081FC01F015FE58468D
:102D0000049B019902685F1A954200D3551E874BB8
:102D1000BA461868B84201D8411E8A46964200D386
:102D2000561EB84200D8471EB54202D8321C2E1C8F
:102D3000151CBA4502D83B1C57469A4601F0FEFDC9
:102D4000301C391C2A1C534601F070FC01F06CFC4D
:102D5000504601300135C11BAE1B4E43002E17D02B
:102D6000751E0127201C2F4001F04AFC002D0FD0BA
:102D7000002F04D0201C01F043FCB51E06E0201CEF
:102D800001F03EFC201C01F03BFC023D002DF6D181
:102D900001F034FC01F0C8FD039A019B0298D71A98
:102DA000D5185A46049913684618581E8146BB42E6
:102DB00000D9B9465D49B2460A68964201D3501E11
:102DC0008246A8469D4201D3013B9846964200D3D5
:102DD000561EC14502D8C446C846E146B24502D88F
:102DE000331C56469A4601F0A9FD4046311C4A461E
:102DF000534601F01BFC01F017FC51464B4642467E
:102E000001310133881B9E1A4643B046002E19D06B
:102E1000013E01213140201C894601F0F1FB002ECA
:102E200010D04846002804D0201C01F0E9FB46469B
:102E300005E0201C01F0E4FB201C01F0E1FB023E58
:102E4000002EF6D101F0DAFB01F06EFD029A049B30
:102E500059469E1A0A68BA4200D8571E3348B246ED
:102E600003689E4201D3591E8A46954200D3551EDF
:102E70009E4200D35E1EAF4202D82A1C3D1C171C86
:102E8000B24502D8301C5646824601F057FD281C38
:102E9000311C3A1C534601F0C9FB01F0C5FB5346F7
:102EA00001330137991B7D1B4D43002D17D06F1E39
:102EB0000126201C3E4001F0A3FB002F0FD0002E66
:102EC00004D0201C01F09CFBAF1E06E0201C01F08A
:102ED00097FB201C01F094FB023F002FF6D101F07C
:102EE0008DFB01F021FD019A059813180132019222
:102EF000D218059215D40299059D01396E1A771AD8
:102F000002910597019A914204DB084958460368EB
:102F100009689EE607B03CBC90469946A246AB467F
:102F2000F0BD0299EEE7C046501000105810001096
:102F3000F0B55F4656464D464446F0B489B0079317
:102F40005342061C0F1C0693151E00DAEDE07A4A68
:102F500000249346701B05905B461B68059A391B3D
:102F600088469A4216D275480168414512D901F047
:102F7000E5FC05984346021C414601F057FB01F071
:102F800053FB079801F03CFB01F038FB01F0CCFC4F
:102F90005B461B68321B04920499781B8246994257
:102FA00016D2664A1068824512D201F0C7FC049816
:102FB0005346021C514601F039FB01F035FB0798DE
:102FC00001F01EFB01F01AFB01F0AEFC5B461B6832
:102FD000A9198946994216D2584A1068404512D913
:102FE00001F0ACFC434641464A46484601F01EFB10
:102FF00001F01AFB079801F003FB01F0FFFA01F062
:1030000093FC5B461B6831198846994216D24B4A9D
:103010001068824512D201F091FC53465146424657
:10302000404601F003FB01F0FFFA079801F0E8FACF
:1030300001F0E4FA01F078FC5B461B6839198A4616
:10304000994516D23D4A1068814212D201F076FCB1
:10305000534651464A46484601F0E8FA01F0E4FA80
:10306000079801F0CDFA01F0C9FA01F05DFC5B466A
:103070001B68E9198946984516D2304A1068814282
:1030800012D201F05BFC4B4649464246404601F0F5
:10309000CDFA01F0C9FA079801F0B2FA01F0AEFAE0
:1030A00001F042FC5B461B680599994216D2234AFF
:1030B0001068824512D201F041FC05985346021C6B
:1030C000514601F0B3FA01F0AFFA079801F098FA0F
:1030D00001F094FA01F028FC5B461B6804999942C0
:1030E00014D2164A1068814510D201F027FC0498CA
:1030F0004946021C4B4601F099FA01F095FA0798EF
:1031000001F07EFA01F07AFA01F00EFC069BE1185C
:103110000A1C01341219069204D40698013D431B7F
:10312000591B0691A54200DB14E709B03CBC904650
:103130009946A246AB46F0BD501000105810001042
:10314000F0B55F4656464D464446F0B489B0161C6D
:103150000C1C129A1299051C9A460818B31A139F50
:1031600000909B46984208D21299129A5346081929
:10317000991A06900791884206D309B03CBC904644
:103180009946A246AB46F0BDA048009B026899460E
:10319000934201D3501E81469D4B19688C4200D347
:1031A0004C1ED846934501D3013A90468A4501D337
:1031B00001398A46C14500D8E9E3544500D9E2E324
:1031C00001F0BCFB211C4A464046534601F02EFA52
:1031D00001F02AFA4B465046013001334246011BAA
:1031E0009C1A4C43A146002C19D0013C01202040E0
:1031F0008046381C01F004FA002C10D0414600290A
:1032000004D0381C01F0FCF94C4605E0381C01F0F4
:10321000F7F9381C01F0F4F9023C002CF6D101F06A
:10322000EDF901F081FB794B1A68954200D3551EE8
:103230007748069903688946994201D35C1EA146E6
:10324000009C944200D3541E079A92469A4201D39E
:10325000013B9A46A54200D88EE3D14500D887E3CA
:1032600001F06CFB201C2A1C51464B4601F0DEF994
:1032700001F0DAF94946013152460135881A2C1B12
:103280004443002C19D0651E01232B40381C98465E
:1032900001F0B6F9002D10D04146002904D0381CA9
:1032A00001F0AEF9A51E06E0381C01F0A9F9381CA2
:1032B00001F0A6F9023D002DF6D101F09FF901F0D1
:1032C00033FB524A1068441E834500D247E3504BFB
:1032D00006991A688A46914201D3551EAA4686422B
:1032E00000D3461E079D954200D3551EB44202D915
:1032F000201C341C061CAA4500D82CE301F01EFB40
:10330000321C201C291C534601F090F901F08CF965
:10331000524601320136511B341B4C43002C17D04E
:10332000661E0125381C354001F06AF9002E0FD0C9
:10333000002D04D0381C01F063F9A61E06E0381CED
:1033400001F05EF9381C01F05BF9023E002EF6D167
:1033500001F054F901F0E8FA1298129A4342002160
:10336000059302920191002A00DA06E702985E4670
:10337000009C019B251A254A06980395C41A0399B7
:1033800010688B46814201D3431E9B46204AA046CB
:103390001368A34201D8591E8846009D854200D378
:1033A000451EA146A34201D8013B9946AB4502D830
:1033B000281C5D468346C84502D8CC46C146E04637
:1033C00001F0BCFA281C49465A46434601F02EF942
:1033D00001F02AF94346584601334A460130991A0A
:1033E000451B4D43AA46002D1DD0013D01232B4016
:1033F000381C9B4601F004F9002D14D05A46002ACF
:1034000008D0381C01F0FCF8554609E050100010B7
:1034100058100010381C01F0F3F8381C01F0F0F8D7
:10342000023D002DF6D101F0E9F801F07DFA009897
:103430000199069A431AAD48029D04930368551BEF
:10344000049A591E8946934200D99146A848AB4632
:103450000268954201D3511E8B46009880469842DF
:1034600001D3013B9846AA46954201D3013A9246C0
:10347000C14502D8C446C846E146D34502D85346A2
:10348000DA469B4601F05AFA404651464A465B46A8
:1034900001F0CCF801F0C8F85946013152464B46CC
:1034A000881A013341465A1A42439046002A26D0D0
:1034B000012043429946C144012249461140381C2B
:1034C0008A4601F09DF84846002818D05346002B44
:1034D00009D0381C01F094F8022251428946C144B7
:1034E000484600280BD0A3464C46381C01F088F80B
:1034F000023C381C01F084F8002CF6D15C4601F047
:103500007DF801F011FA7949029B08689A19431E67
:1035100090469A46824200D29246754AA346136864
:10352000A34201D8591E8B46B146864201D30138C9
:103530008146A34200D85C1ECA4502D8CC46D1467B
:10354000E246A34502D8201C5C46834601F0F6F90A
:103550004846211C52465B4601F068F801F064F8C9
:103560005A465346484601320133111B1C1A4C433C
:10357000A146002C19D0013C01222240381C924661
:1035800001F03EF8002C10D05146002904D0381C20
:1035900001F036F84C4605E0381C01F031F8381CD3
:1035A00001F02EF8023C002CF6D101F027F801F0D2
:1035B000BBF9019B4D4A981913688146591E8A46EA
:1035C000834200D982464A4CAB462068854201D3EB
:1035D000421E9346341E9C4200D35C1E854200D39B
:1035E000451EA24502D8231C54469A46AB4502D834
:1035F000291C5D468B4601F0A1F9201C291C52466E
:103600005B4601F013F801F00FF8584652460130BE
:103610000132451B131B5D43002D19D06C1E012187
:103620002140381C8A4600F0EBFF002C10D0504699
:10363000002804D0381C00F0E3FFAC1E06E0381C64
:1036400000F0DEFF381C00F0DBFF023C002CF6D15E
:1036500000F0D4FF01F068F9244B079D019A186827
:10366000AC18804501D3411E8846214DA3462A68E7
:10367000A24201D8531E9B46351E854200D3451EEB
:10368000A246A24201D8013A9246A84502D8281C77
:1036900045468046D34502D8D446DA46E34601F093
:1036A0004DF9281C514642465B4600F0BFFF00F032
:1036B000BBFF594640465246013101308B1A451B2B
:1036C0005D43AA46002D1ED0013D01212940381C32
:1036D000884600F095FF002D15D04246002A09D0FB
:1036E000381C00F08DFF55460AE0C046501000100F
:1036F00058100010381C00F083FF381C00F080FFC9
:10370000023D002DF6D100F079FF01F00DF9A3493B
:10371000029B07980A681D184A4501D8531E99460E
:103720009F48AB4603689D4201D3591E8B46B04665
:10373000964201D3013A9046AA469D4201D3013BED
:103740009A46C14502D8C446C846E146D34502D888
:103750005246DA46934601F0F1F8404651464A4651
:103760005B4600F063FF00F05FFF58464A46534651
:10377000414601300132C01A531A43439846002B88
:1037800026D0012042429146C144012349461940B6
:10379000381C8A4600F034FF4846002818D05246AC
:1037A000002A09D0381C00F02BFF02235942894619
:1037B000C144484600280BD0A3464C46381C00F0B4
:1037C0001FFF023C381C00F01BFF002CF6D15C46AA
:1037D00000F014FF01F0A8F8704A039B10688342C0
:1037E00001D3411E03916E4AA2461368A34201D839
:1037F000591E8A46009A9046824201D3013880467B
:10380000A34200D85C1E0398404502D84346039368
:103810008046A24502D8211C54468A4601F08EF803
:10382000211C4046039A534600F000FF00F0FCFEC6
:10383000039B5246013201334146101B5C1A44433C
:10384000A346002C19D0013C01222240381C91468D
:1038500000F0D6FE002C10D04846002804D0381CBA
:1038600000F0CEFE5C4605E0381C00F0C9FE381CB6
:1038700000F0C6FE023C002CF6D100F0BFFE01F0C5
:1038800053F8464B04991A688A4201D8501E049096
:10389000434CA84623689D4201D3591E8846009C8C
:1038A000944200D3541E9D4200D35D1E049AA2424E
:1038B00002D8201C0490141CA84502D82B1C454695
:1038C000984601F03BF8291C201C049A434600F05E
:1038D000ADFE00F0A9FE049A4146013101324D1BB4
:1038E000101B4543002D19D06C1E01232340381CAA
:1038F0009A4600F085FE002C10D05146002904D0D5
:10390000381C00F07DFEAC1E06E0381C00F078FE8E
:10391000381C00F075FE023C002CF6D100F06EFE63
:1039200001F002F8019D059AA818013501952D189E
:1039300005950ED4029B0599013B0293029DCC1A7A
:10394000621B0592281C019B984200DB10E5FFF7E3
:1039500014FC0298F7E72B1C55469A46CEE4104B10
:1039600006991A685C468A46914200D2B7E4B4E4EC
:10397000D446CA46E14673E4231C2C1C1D1CD145C9
:1039800000D96DE4F4E7221C5446924618E4C4467C
:10399000C846E146544500D812E4F4E75010001040
:1039A00058100010F0B55F4656464D464446F0B4F8
:1039B00087B0151C8A46109A1099041C1F1C081801
:1039C000AB1A03900293984208D2109E109A311CB1
:1039D0005144BB1A04910593994206D307B03CBCED
:1039E00090469946A246AB46F0BDA14EA34630682C
:1039F000B046844201D3421E93469E4E04993368DA
:103A00008946994201D35A1E9146844200D3441EEE
:103A100005980190984201D3013B0193A34500D83A
:103A200036E20198814500D82EE200F087FF201C85
:103A30005A4601994B4600F0F9FD00F0F5FD5A4653
:103A40004B46019801330132191A141B4C43A3460B
:103A5000002C1ED0013C012323401198994600F010
:103A6000CFFD002C15D04846002806D05C461198A2
:103A7000023C00F0C5FD002C0BD0AB46119D281C6C
:103A800000F0BEFD023C281C00F0BAFD002CF6D16F
:103A90005D4600F0B3FD00F047FF41460B68039818
:103AA0005A1E9146984200D2CEE13268BB469742F8
:103AB00001D3541EA346029C9C4200D35C1E974235
:103AC00000D3571EA14500D8FAE1BB4500D8EBE171
:103AD00000F034FF391C201C4A465B4600F0A6FD6E
:103AE00000F0A2FD58464A4601300132C71B111BA7
:103AF0004F43002F1BD07C1E012323401198994671
:103B000000F07EFD002C12D04846002805D0119808
:103B1000BC1E00F075FD002C09D0119F381C00F070
:103B20006FFD023C381C00F06BFD002CF6D100F05C
:103B300065FD00F0F9FE424613685C1E9D4200D20E
:103B4000B6E1049930688B46814201D3471EBB46DB
:103B50009D4200D35D1E059F874200D3471EAC42A5
:103B600000D87CE1BB4500D875E100F0E7FE281CD9
:103B7000391C221C5B4600F059FD00F055FD5846EB
:103B800001300134C11B651B4D43002D19D06C1E43
:103B900001271198274000F033FD002C11D0002F91
:103BA00005D01198AC1E00F02BFD002C09D0119D02
:103BB000281C00F025FD023C281C00F021FD002CF3
:103BC000F6D100F01BFD00F0AFFE424613680398EB
:103BD0005D1E984200D249E1316857468A4500D3BC
:103BE0004F1E029C9C4200D35C1E8A4501D30139C2
:103BF0008A46A54200D840E1574500D850E100F080
:103C00009DFE201C51462A1C3B1C00F00FFD013775
:103C100000F00AFD01355046391A2C1B4C43002C8C
:103C200019D0651E012711982F4000F0E9FC002DE6
:103C300011D0002F05D01198A51E00F0E1FC002D39
:103C400009D0119C201C00F0DBFC023D201C00F080
:103C5000D7FC002DF6D100F0D1FC00F065FE109AE3
:103C6000109D534201930024002D00DAB6E603E0D4
:103C700050100010581000100499434603981B6818
:103C80000A1B471B91469F4215D23068904212D9B9
:103C900000F054FE49464B463A1C381C00F0C6FC66
:103CA00000F0C2FC119800F0ABFC00F0A7FC00F0A3
:103CB0003BFE41460B68039A0499101B4A1B009077
:103CC0009346984215D23068824212D200F036FEF6
:103CD00000985B46021C594600F0A8FC00F0A4FCCA
:103CE000119800F08DFC00F089FC00F01DFE4346A9
:103CF0001B6802994A1992469A4215D23068484583
:103D000012D900F01BFE4B4649465246504600F081
:103D10008DFC00F089FC119800F072FC00F06EFC44
:103D200000F002FE43461B6802990A1991469A4226
:103D300015D23068834512D200F000FE5B4659462A
:103D40004A46484600F072FC00F06EFC119800F004
:103D500057FC00F053FC00F0E7FD43461B68059953
:103D60000A1993469A4515D23068824212D200F061
:103D7000E5FD5B4659465246504600F057FC00F0C0
:103D800053FC119800F03CFC00F038FC00F0CCFD36
:103D900043461B6805994A199246994515D23068E1
:103DA000824212D200F0CAFD534651464A46484666
:103DB00000F03CFC00F038FC119800F021FC00F011
:103DC0001DFC00F0B1FD43461B689F4215D23168CF
:103DD0008B4512D200F0B2FD3A1C5B465946381CA6
:103DE00000F024FC474600F01FFC119800F008FC8E
:103DF00000F004FC00F098FD3B68009A9A4213D250
:103E00003068824510D200F099FD00985146021C9E
:103E1000534600F00BFC00F007FC119800F0F0FB9B
:103E200000F0ECFB00F080FD019967183B1C0134A9
:103E30001B19019304D4019A013D501B411B0191B0
:103E4000A54200DB18E7C9E532688146BB469742C8
:103E500000D230E62DE63B1C5F469B4685E62A1CD9
:103E6000251C141CBB4500D97FE6F4E73168051C0E
:103E700057468A4500D2B4E6B2E6221C2C1C151C1B
:103E8000574500D9BBE60BE0494601918146CCE598
:103E90000198231C5C469B46814500D9C5E5F3E7A4
:103EA0005346BA461F1CAAE63B1C5F469B460FE6DC
:103EB000049930682C1C8B46814200D248E645E6C6
:103EC000211C4C468946BB4500D901E6ECE7C046BB
:103ED000F0B547469846294B161C1A6880B4041C56
:103EE0000F1C069D824200D8541E25480168B94225
:103EF00000D84F1EB24200D8561E414501D80139A4
:103F00008846B44202D9231C341C1E1C474502D9E2
:103F10003A1C4746904600F011FD391C201C321C0B
:103F2000434600F083FB00F07FFB40460130013642
:103F3000C71B311B4F43002F18D001237C1E1E1CB2
:103F4000281C264000F05CFB002C0FD0002E04D073
:103F5000281C00F055FBBC1E06E0281C00F050FB9E
:103F6000281C00F04DFB023C002CF6D100F046FB73
:103F700000F0DAFC04BC9046F0BDC04650100010C2
:103F800058100010F0B54D4644465F465646F0B412
:103F90000D1CBE4983B000920A68071C1E1C0C9CB5
:103FA00088468146904201D3501E8146B849AA46B0
:103FB0000B689D4201D3581E82460197974201D358
:103FC000013A0192B3469E4201D3013B9B46019ABE
:103FD000914502D8494601919146DA4502D9D44625
:103FE000DA46E34600F0AAFC514601984A465B4691
:103FF00000F01CFB00F018FB5A4653460132D01A61
:1040000001994A460132531A43439A46002B28D05D
:10401000012042429146D144012349461940201CC7
:104020008B4600F0EDFA484600281AD05A46002A7E
:1040300009D0201C00F0E4FA022359428946D144F9
:10404000484600280DD0AA46251C4C46281C00F0E6
:10405000D7FA023C281C00F0D3FA002CF6D12C1C15
:10406000554600F0CBFA00F05FFC43461868411E4D
:104070000191874200D20197854AB34613689E4258
:1040800001D3591E8B46009A9146824201D30138D2
:104090008146B2469E4201D3013B9A46019848456B
:1040A00002D9494601918146D34502D8D446DA4621
:1040B000E34600F043FC514601984A465B4600F057
:1040C000B5FA00F0B1FA58464A4601995346013014
:1040D0000132C01A531A43439A46002B28D00120BC
:1040E00042429146D144012349461940201C8B4647
:1040F00000F086FA484600281AD05A46002A09D00D
:10410000201C00F07DFA022359428946D1444846DA
:1041100000280DD0AA46251C4C46281C00F070FA39
:10412000023C281C00F06CFA002CF6D12C1C5546E1
:1041300000F064FA00F0F8FB43461868009A411E4C
:104140008A46824200D29246514BAB461A6895424B
:1041500001D3511E8B46009B9946834201D30138FF
:104160008146964200D3561ECA4502D8CC46D14657
:10417000E246B34502D95846B346061C00F0DEFBC2
:104180004846331C5946524600F050FA00F04CFAAB
:104190005346013649465A460133B01A5E1A464321
:1041A000B146002E19D0013E01223240201C924619
:1041B00000F026FA002E10D05046002804D0201C13
:1041C00000F01EFA4E4605E0201C00F019FA201CF3
:1041D00000F016FA023E002EF6D100F00FFA00F0C1
:1041E000A3FB43461A68974200D3571E28492E1C4A
:1041F0000868854200D3461E009B934201D3013AD2
:104200000092854200D3451E009A974202D9391C7C
:104210000091171CAE4202D8281C351C061C00F069
:104220008DFB331C291C009A381C00F0FFF900F0AC
:10423000FBF9009B01360133751BDA1B5543002D3A
:1042400018D001216E1E0F1C201C374000F0D8F939
:10425000002E0FD0002F04D0201C00F0D1F9AE1E8C
:1042600006E0201C00F0CCF9201C00F0C9F9023E49
:10427000002EF6D100F0C2F900F056FB03B03CBCB2
:1042800090469946A246AB46F0BDC046501000107D
:1042900058100010F0B54D46564644465F46F0B4FF
:1042A0001E1C784B914683B0041C0D1C1A684845AF
:1042B00000D19CE0B14200D199E0904200D3541E5D
:1042C000714801688D4200D34D1E914501D3013ADA
:1042D00091468E4200D372E04F46731B01223F1B72
:1042E0000193924600D573E0019A01239B46002A70
:1042F00000DA77E0530079008846009300F01EFB57
:10430000221C291C2B1C201C00F090F900F08CF9B9
:104310000C9800F075F900F071F9019A97422ADDC6
:10432000009B5246DF1B16194C451BD00C98544677
:10433000824600E0161C002F02DB41465D447F1AD6
:10434000009B321C291C301CFF182B1C00F06EF93E
:1043500000F06AF9504600F053F900F04FF93219B5
:10436000B145E7D100F0E0FA03B03CBC9046994675
:10437000A246AB46F0BD4046871AB542F2D00C9B30
:10438000311C5D4446469946884600E00D1C002FCE
:1043900002DB009A5444BF1A291C221C2B1C201C2F
:1043A00000F044F900F040F9484600F029F900F027
:1043B00025F95846BF192918A845E7D1D2E74E1E5E
:1043C0004F46731B01223F1B0193924600D48BE79B
:1043D0000120019A414201237F428A469B46002ADE
:1043E00000DB87E7524258420192834682E79442BB
:1043F00000D3541E244801688D4200D34D1E9145C0
:1044000001D3013A91468E4200D34E1E4C4502D94B
:10441000231C4C469946B5422FD800F08FFA331C26
:104420000136291C751B4E460136201C341B6C437B
:104430004A4600F0FBF800F0F7F8002C1AD00122F1
:10444000671E151C0C983D4000F0DAF8002F11D0C3
:10445000002D05D00C98A71E00F0D2F8002F09D02F
:104460000C9E301C00F0CCF8023F301C00F0C8F865
:10447000002FF6D100F0C2F874E72F1C351C3E1C4B
:10448000CBE7C04650100010581000100F4B70B50D
:10449000041C18680D1C161CA04203D90C490A689C
:1044A000AA4200D870BD00F049FA291C221C2B1C1E
:1044B000201C00F0BBF800F0B7F8301C00F0A0F8AA
:1044C00000F09CF800F030FAECE7C0465010001005
:1044D0005810001038B5041C00F030FA224B234865
:1044E0001A680368013A013B0020002100F09EF8A1
:1044F00000F09AF880252D01201C00F081F8201C86
:1045000000F07EF8201C00F07BF8201C00F078F80A
:10451000201C00F075F8201C00F072F8201C00F040
:104520006FF8201C00F06CF8201C00F069F8201CCB
:1045300000F066F8201C00F063F8201C00F060F822
:10454000201C00F05DF8201C00F05AF8201C00F040
:1045500057F8023D201C00F053F8002DCCD100F09C
:104560004DF800F0E1F938BD50100010581000105F
:1045700008B5064B186000F083F90204110C044BD7
:10458000044A000C1960106008BDC04654100010A9
:104590005810001050100010014B18687047C046AA
:1045A00050100010014B18687047C046581000109A
:1045B00010B5064B0649074800241C6004600C60D7
:1045C00000F0EAF9201CFFF7D3FF10BD50100010D7
:1045D000541000105810001010B5074B8022FF2413
:1045E000802012010021A400800099501951985098
:1045F00099501951985010BD000002507047C046A4
:1046000030B5084B8022FF2412010025010AA400C6
:104610009D5019518021890099509D5018519950F1
:1046200030BDC046000002507047C046F0B55F463E
:10463000444656464D46F0B48F4C9346226883B0AC
:104640000193B42A00D1D6E087256B009A4200D1AD
:1046500088E05A2A47D0894C80268022FF237501A2
:10466000002716019B00422267519946A751E2504C
:1046700080239A00A2519046DA0081236251944629
:104680009A461A1C5B46D21A4B466751A751E25014
:104690004246A251634652466351101A4B46675137
:1046A0006246A751E0504046A051625143226751F3
:1046B0000231A751E250A051634648466351675109
:1046C000A75121504146A1516351019A67510232CD
:1046D000A7512250A151635103B03CBC904699466A
:1046E000A246AB46F0BD654CFF23802580266D01B8
:1046F000002736019A00422367519246A751A350E2
:104700008022904693004246A35199460231D3003D
:10471000524663516751A751A1504946A151635177
:104720009846191C019B67510233A751A3504A4672
:10473000A25143236151514667510230A751635042
:10474000A2515B464246625102336751A751605005
:104750004846A05162516751A7516350A05140464D
:104760006051B9E7454C80258026FF2200276D0166
:1047700036019200422367519146A751A3508022EF
:10478000944693006246A3519846D3006351812218
:104790009C469246131C019A67519B1A4A46A751A0
:1047A000A3504346A351624653466251591A4A46A2
:1047B00043466751A751A150A3516146432361511C
:1047C0006751A751A3504246A251534661515946E1
:1047D0005A1A4B4667514146A751E250624653462A
:1047E000A151181A625141466751A7514F46E051F5
:1047F000A151625170E7214C80228025FF230027C0
:1048000016016D019B00422267519A46A751E25062
:10481000802398469A004346A25191460230DA001E
:10482000534662516751A751E0504846A051904607
:1048300062515A4602326751A751E2504246A05196
:10484000625143226751A751E2504346A051635140
:1048500001988122131A50466751A75123504B46A5
:104860004046A351511A60516751A7515746E15133
:10487000A351605130E7C0465C10001000000250A8
:1048800038B51B2821D01AD9B4281CD08723590049
:1048900088421AD05A281BD000220E4C0E4D80237D
:1048A000226000219C012951002000217F227F23CA
:1048B000FFF7BCFE802210012851084838BD0928A6
:1048C00006D01228E8D1B422E7E787204200E4E7C7
:1048D0005A22E2E75C1000100000025080008000C5
:1048E000054B8022120100219950FF218900585068
:1048F000802081009950704700000250094B8022AF
:10490000802110B55201002409019C505C50FF2405
:10491000A4001851802084005C508021C800985069
:1049200010BDC0460000025080218023024A0801C9
:10493000990150507047C046000002508023024A3F
:1049400000219801115070470000025010B5041C5E
:10495000FFF7F4FF002C0AD15020FFF7CFFF1420FF
:10496000FBF7BCFF2D20FFF7C9FF782009E02C20C2
:10497000FFF7C4FF7820FBF7B1FF5120FFF7BEFF20
:104980001420FBF7ABFFFFF7CFFF10BD08B5FFF713
:10499000D5FFFFF7C9FF08BD70B58023534C18023F
:1049A0002158534A534D11432150665980233243B5
:1049B0006251DE000025A5511420FBF78FFF8020F7
:1049C0004100A1517820FBF789FFFFF7B7FF502086
:1049D000FFF794FF1420FBF781FF2C20FFF78EFFD9
:1049E0001420FBF77BFF0220FFF788FF0120FFF771
:1049F00085FF1420FBF772FF2620FFF77FFF0120C1
:104A0000FFF77CFF1420FBF769FF2620FFF776FFF6
:104A10000920FFF773FF1420FBF760FF2620FFF744
:104A20006DFF0B20FFF76AFF1420FBF757FF2620CE
:104A3000FFF764FF0F20FFF761FF1420FBF74EFF25
:104A40001020FFF75BFF0120FFF758FF2020FFF742
:104A500055FF0220FFF752FF2420FFF74FFF0220EF
:104A6000FFF74CFF2820FFF749FF0120FFF746FF23
:104A70002A20FFF743FFD020FFF740FF3020FFF749
:104A80003DFF281CFFF73AFF3220FFF737FF0E20CB
:104A9000FFF734FF3420FFF731FF0D20FFF72EFF23
:104AA0003620FFF72BFF281CFFF728FF6120FFF7B8
:104AB00025FF4020FFF722FF281CFFF71FFFFFF70D
:104AC00033FF281CFFF7DCFEFFF738FF8024E601E8
:104AD000013EFFF781FD002EFAD15120FFF70EFFB6
:104AE0001420FBF7FBFEFFF71FFF70BD0000025014
:104AF000FF0F0000FC3F0000044B05491A68885472
:104B00001F20013202401A607047C04694180010FE
:104B10007010001000B504490222CB681A42FCD084
:104B20000149886000BDC0460000044000B5A023D4
:104B3000D9050A69002A06D1034920224B691A4285
:104B4000FCD00149086000BD00800040802210B503
:104B5000D4056368802B1DD00FD9A82B26D0B82B85
:104B600011D0902B16D00020294908608021CB0558
:104B700004221A600820986110BD602B01D0702BB0
:104B8000F1D10120F0E7224A1368022B2DD0042036
:104B9000A06107E01E4C2168012918D0802304225F
:104BA000D805826180230820DB05E4E71949184A0B
:104BB00002201060086818490B689842D6D0174A3E
:104BC000D05C0133A0601F2423400B60CEE7144A61
:104BD0008024E305116813489C6844540131490559
:104BE0004C0D042114601960DCE70A490A680A497F
:104BF0000B689A4206D00948C25C0133A2601F24A8
:104C000023400B6080230421DB051960CAE7C046FE
:104C100064100010941800106C1000107010001038
:104C2000601000109010001080210B4B80220802B1
:104C300098508020C3056C2108489961084B0021D9
:104C400001634163596802208143596099582020CB
:104C5000814399507047C04600E100E000400440A5
:104C600000800440F8B556464D465F464446F0B4D1
:104C70002B4B2C4E022530601868284249D02A4917
:104C80002A4C002280270A60B8468023211C180283
:104C900041440860A14626488024E7056C23254C42
:104CA000BB610263426362684146AA436260635823
:104CB0002022934341466350A36F924601229B46B4
:104CC000026342630020FBF713FE594600F036FCF6
:104CD000194900F033FC78610020FBF709FE5946C2
:104CE00000F02CFC144900F029FC386140462158A2
:104CF0005346194321506268802015436560366829
:104D0000FF2475002540030249464422FD600B60E4
:104D10003A603CBC90469946A246AB46F8BDC046B8
:104D200068100010100000106410001000E100E096
:104D3000004004400080044000350C00F8B55F4698
:104D400056464D464446264BF0B40022254F80205F
:104D500080251A60ED05244B802601026C24B95190
:104D6000AC61224C1A635A6362680220824362601B
:104D7000A259884620218A43A2518146A06F012270
:104D80001A6383465A6300208A46FBF7B1FD5946F1
:104D900000F0D4FB164900F0D1FB68610020FBF75E
:104DA000A7FD594600F0CAFB114900F0C7FB286176
:104DB000A35951460B43A3516668484606436660B3
:104DC0000C4CFF212268464653000B40EB603E60CE
:104DD00044272F603CBC90469946A246AB46F8BD9E
:104DE0006410001000E100E0004004400080044036
:104DF00000350C00100000100D4B0321DA6930B5AE
:104E00000A4002D0186A02431A620A4D084A2B6807
:104E1000D468600709D5084C04209168E154D16832
:104E200001335B055B0D0842F7D12B6030BDC046F6
:104E300000000440601000109010001080210F4B03
:104E40008022480398500E4B08215868014359604E
:104E500059680220814359600A4B10211120D96101
:104E6000196659669866084B012059688143596054
:104E700098580649014099507047C04600E100E04B
:104E8000000004400040044000800440FFF7FFFFA2
:104E9000F0B58022284B80204F4651034646C0B4CF
:104EA0001950264B08255C68022725435D605E6823
:104EB0002349BE435E60234A10241126CC610C6650
:104EC0004C668E6655680124A5435560B94617584F
:104ED0001D4DBC462F1C65462F4017504F46CE61D6
:104EE0000E664C668F6651688025214351601658C6
:104EF000290131431150942014501F61C72204240A
:104F000006271A605C605F61DE68344204D00425C5
:104F10009A68D9680D42FBD1084B032018625C687F
:104F20008027054D02227E0322435A602E600CBC6E
:104F300090469946F0BDC04600E100E00000044004
:104F40000040044000800440FFF7FFFF00B5084B1D
:104F50009A6819681007430F022B07D1054B0648C2
:104F60001A688154013251054A0D1A6000BDC046CD
:104F7000008000406010001090100010134AA02321
:104F8000DB0500B598580421014399501B69002B9B
:104F900011D10F49A8230120C8500E4B5A69104265
:104FA00004D001201A6859690842FBD180230A48BD
:104FB0009A03026000BD8022074B90038021044ABF
:104FC00058500020A8215050F4E7C0461C80000033
:104FD000004004400080004000E100E00B4A8021D6
:104FE000802308068021D0508803D050084A002131
:104FF0005160084A1021A420D1611150A8201150FD
:10500000054A0649D0580140D150704700E100E000
:10501000008000400040044000800440FFEFFFFF9C
:10502000164B70B5C218041C1548824205D8154DA0
:1050300015492E680C60F20700D470BD134B9822FE
:105040009E6F00209D58FBF753FC311C00F076FA50
:10505000291C00F073FA211C000900F06FFA0C4CB7
:105060008023E168FF22060A19431040E160666070
:105070002060E0689843E060DFE7C04680DAFFFF29
:10508000C01C0F00681000100800001000800440D1
:1050900000800040F8B580225F46564644464C4B9F
:1050A0004D468021F0B4100680248D031851494AE2
:1050B0001D51494D10230026A4206E60B246D361D5
:1050C000A82613508446454893510159B346444E8F
:1050D0000E4006514349D361A023DB055E580F1CE7
:1050E00004218E43DE51404FB846DF593E1C0E432B
:1050F0004746DE513D4EB0469E59371C0F4346464B
:105100009F513B4F5646B846DF5939434746D95120
:10511000112361465F465350D651025980235901ED
:10512000114301239822334E015183503668324F88
:105130003249F7198F4203D8314F396819422BD1C0
:10514000254C032501230727E56020266360A7601F
:105150006169214A0E42FBD05069C60705D5141C6F
:105160000125226863691D42FBD1A027FE05326933
:10517000002A07D1174C8025154B0121A820AF0329
:1051800021501F608026124932060A603CBC9046BE
:105190009946A246AB46F8BD836F87589A460020D1
:1051A000FBF7A6FB514600F0C9F9391C00F0C6F91F
:1051B000311C000900F0C2F9EA68FF21060A224307
:1051C0000840EA606E602860E868A043E860B7E7DE
:1051D00000E100E000400440008000400080044006
:1051E000FFEFFFFF04800000088000001080000037
:1051F0001C8000000800001080DAFFFFC01C0F00B8
:105200006810001038B5041C0078002806D0044D42
:1052100001342B68984720780028F9D138BDC04662
:105220000C00001038B5054C051C00042368000E66
:105230009847FF2028402168884738BD0C0000109F
:10524000F0B5174C174B21681A689142FCD0164DE7
:10525000685C01314E05770D2760216800061A68E9
:105260009142FCD06E5C01314F05790D21602168BF
:1052700037041A689142FCD06E5C013149054A0D31
:105280002260216836021A689142FCD06B5C0131C1
:105290004D053843690D184330432160F0BDC046C9
:1052A00090180010601000109010001030B50C4CD9
:1052B0000C4B21681A689142FCD00B4D685C01319F
:1052C00049054A0D2260216800021A689142FCD00B
:1052D0006B5C01314D05690D1843216030BDC0463E
:1052E00090180010601000109010001010B5064CBF
:1052F000064922680B689A42FCD00548805C01325E
:105300005205510D216010BD901800106010001062
:10531000901000100F4B70B51868820700D470BD54
:10532000FBF7D6FA0C4C0D4D061C226829688A4200
:10533000F5D0FBF7CDFA831BFA2BF6D972B6084AE3
:10534000084900201060086028602060064C20603A
:1053500062B6E4E768100010941800106C1000109A
:10536000901800106010001064100010074B0848DF
:105370001A68036800B59A4205D800209A4203D201
:10538000802108011218D01A00BDC046601000101C
:1053900090180010014B18687047C04610000010AC
:1053A000014B18687047C04608000010014B186890
:1053B0007047C0466810001038B5041CFFF734FC75
:1053C000FFF73CFDFFF70AFE144B00201860144D58
:1053D0001449154A154B0860186010602860144D78
:1053E000FF2C02D12C68844217D01248012C0ED019
:1053F000042C06D0104A022129600260FFF79EFCAF
:105400000AE00E4B2C600360FFF742FD04E02C60C5
:105410000B4C0460FFF73EFE286838BD9018001062
:1054200094180010601000106C1000106410001030
:10543000681000100C000010F94A0000154B000025
:105440002D4B0000F0B5161C8BB00125002951D062
:1054500072B6E0238024DF01230220CF20C29F42C6
:10546000FBD1F82217018900F7194118884202D0B0
:1054700010C810C7FAE70724322705A80597069435
:1054800007941E4D01A9A8470198002801D00125C5
:105490002FE03423059306940794FBF729FAFA22A8
:1054A000910000F04BF801A9089005A8A8470198C1
:1054B0000028ECD105A805970694079401A9A847F0
:1054C00001980028E3D10796E02780267301332155
:1054D000FC01089305910694FBF70AFAFA22910061
:1054E00000F02CF801A9099005A8A847019D6A1EA3
:1054F000954162B6281C0BB0F0BDC046F11FFF1FDE
:10550000CA1751408B1A17D0C1174A4004B44840FB
:10551000411A48081A0000E052008242FCD90020DB
:1055200000E05208914200D3891A40419A42F8D1D2
:1055300004BC5040801A7047002070470A000FD00A
:105540000300400800E052008242FCD9002000E045
:105550005208934200D39B1A40418A42F8D17047C7
:10556000002070470A0010D00300400800E05200FD
:105570008242FCD9002000E05208934200D39B1ADB
:1055800040418A42F8D11900704700207047C04658
:1055900008B5031C0278002A06D041680878002864
:1055A00005D00131596004E04068804701E00123E3
:1055B000584208BD70B5041C806800280AD02368D2
:1055C00062685D1CAD1A6E1EB5416E423140934259
:1055D00000D2C154E368002B06D020686268904274
:1055E00002D2081C211C984721680131216070BD3E
:1055F000F8B5151C4C1E15D4C6B201231F1C27403C
:10560000101C311CFFF7D6FF013C0CD20AE0281C0D
:10561000311CFFF7CFFF013C281C311CFFF7CAFFEC
:10562000013CF4D2F8BD002FF1D0281C311CFFF74B
:10563000C1FF013CEBD2F5E710B5C30606D4202329
:10564000840500D53023181CFFF7D2FF10BDC046DB
:10565000031C413B002019229A4240417047C0463A
:10566000031C613B002019229A4240417047C0460A
:10567000031C303B002009229A4240417047C0463B
:1056800038B5041C0D1CFFF7F3FF002802D0201CC6
:10569000303811E0201CFFF7E3FF002802D0201C67
:1056A000573809E0201CFFF7D3FF002802D0201C48
:1056B000373801E001204042A84201DB0121484285
:1056C00038BDC04600B5021C093A0123042A03D99B
:1056D000031C203B58424341181C00BD0EB400B5CA
:1056E00086B007AA08CA05920390002304930548D0
:1056F000029001A8079900F00FF806B008BC03B0AB
:105700001847C046FFFFFF7F411C02780130002A86
:10571000FBD1401A7047C046F0B55F4656464D462D
:105720004446F0B48BB00C1C0592002303609946EC
:10573000051C63E2252906D0281CFFF73BFF341C1B
:105740005CE2261C0BE010239A462020804680272E
:105750003A029446802740212C1C4D46A3463078BF
:10576000741C031C203BDAB2102A14D89300C84AD8
:10577000D3589F460D43E4E73D43E2E76646354391
:10578000DFE743461D43DCE752461543D9E7802651
:10579000B0000543D5E75F46AB463D1C5A462A2874
:1057A00005D0011C30394B4609290DD917E0059C5D
:1057B000201D05902368002B03DA5B4210210A4369
:1057C00093467078B41C0AE09E00F3185F003038EE
:1057D0003B1820780134021C303A092AF4D9DE4300
:1057E000F7173B400293CA462E2825D120782A2855
:1057F00005D00134031C303B092B08D917E005986C
:10580000021D059201688A46607802340CE04F461A
:10581000BA00D1194E003038371820780134031CF3
:10582000303B092BF4D9BA465646002E04DB8027BC
:105830007B005A461A43934668280ED12078682880
:1058400006D108275846384383466078023404E07E
:1058500001340426594631438B46782803D8830007
:105860008C4AD658B7468C4F3E68002E00D1C5E111
:105870005146009105AA0192291C5A46029BB04745
:10588000BCE1281C2521FFF795FEB7E10598031D13
:105890000593067802998A4601277A42924458462F
:1058A00051462A1CFFF7C8FE281C311CFFF782FE58
:1058B000D8464046C00600D4A0E1202051462A1C0C
:1058C000FFF796FE9AE15846010706D50598021D96
:1058D000059203682E681E7090E1059B1E1D0596BB
:1058E00019682F680F6089E10598011D0591066808
:1058F000002E00D1694E6A4F5B463B409846301CF3
:10590000FFF702FF071C5A46D20502D5504500DDBD
:1059100057460298C11B8A4640462A1CFFF78CFE58
:10592000002FC6D0B3467B1E01221A400292317866
:10593000281CFFF73FFE0136013F002F00D081E118
:10594000B7E7A346FFE73178281CFFF733FE7178ED
:10595000281CFFF72FFE0236023F002FF3D15C46D2
:10596000A7E7059E371D0597376859460B06DE17D2
:1059700023223240904680235E0031438B4608212B
:105980008A466FE080239E0159460E43090609D4DA
:10599000B346C84609E0C84659460A0605D5414FF0
:1059A000B84602E0B346404FB8465A46D20520D525
:1059B0003B4B5E461E40B3461BE05F463A06D3179C
:1059C00030261E40B046FB0513D5354F5A463A40A7
:1059D00093460EE0C8465B46DA050AD5304A5E4675
:1059E0001640B34605E08021CF015A463A4393461C
:1059F000C84659464B0419D5059B1A1D05921F68C8
:105A00005E46710701D53FB203E0320701D5FF239F
:105A10001F40002F03DA7F422D2290461BE05A469A
:105A2000910613D45E46720613D414E0059F3A1D06
:105A300005923F685B465B0702D53F043F0C0AE0D6
:105A40005E46310707D5FF210F4004E02B2398461F
:105A500001E0202188465E46F10506D510495B46E7
:105A60000B409B465A46D30501D40126B24658380E
:105A7000C0B2202865D882000C4B9E58B7464E46CF
:105A80000720002F33D15FE04E46002F38D15BE076
:105A9000606E0000A46E0000981800100C710000E9
:105AA000FFFDFFFF783000005830000088700000D4
:105AB000002F48D04E468022930159460B400F22BA
:105AC000684884460394002B06D0101C3840644676
:105AD000205C07A9705405E0111C3940624C605CE1
