:10000000E01F0010ED010000F5010000F701000005
:10001000F9010000FB010000FD01000056D4FFEFD4
:10002000000000000000000000000000FF010000D0
:10003000010200000000000003020000D9030000DC
:10004000070200000702000007020000070200008C
:10005000070200000702000007020000070200007C
:10006000070200000702000007020000070200006C
:1000700007020000090200000B020000F91F000047
:100080000F02000011020000130200001502000020
:10009000B5210000BD2200000000000000000000AB
:1000A0001B0200001D0200001F02000000000000F3
:1000B000210200002302000025020000E9220000C6
:1000C0002F49072291438D462E492F480A1A06D000
:1000D0000722914381F30988022282F314882B4876
:1000E0002B492C4A00F039F82B482C492C4A00F0B7
:1000F00034F82C482C492D4A00F02FF82C482D4973
:100100002D4A00F02AF82D482D492E4A00F025F8F6
:100110002D482E492E4A00F020F82E482E49002264
:1001200000F026F82D482E49091A082903DB002281
:100130000260043001601F481F49884205D00268F0
:10014000043003B4904703BCF7E700208646EC4632
:1001500000200021234A9047FEE7884207D0521A28
:1001600005D0037801300B700131013AF9D17047A5
:10017000884202D002700130FAE770471A4870478F
:10018000E01F0010E01F0010E01F00106456000088
:10019000000000102C0000103002000030020000AF
:1001A000A84A000064560000000000100000001083
:1001B000A84A0000A84A0000A84A0000A84A000077
:1001C000A84A0000A84A0000A84A0000A84A000067
:1001D000645600002C0000108418001084180010D1
:1001E00084190010A1100000FFFFFFFF0E480F4907
:1001F000016065E7FEE7FEE7FEE7FEE7FEE7FEE7F4
:10020000FEE7FEE7FEE7FEE7FEE7FEE7FEE7FEE7C6
:10021000FEE7FEE7FEE7FEE7FEE7FEE7FEE7FEE7B6
:10022000FEE7FEE7FEE7FEE7008004400200000074
:10023000094B421E01209A420DD8084B5A60084AC9
:10024000106A0102080AC021090601431162002058
:10025000072298601A607047FFFFFF0010E000E07F
:1002600000ED00E0F8B54F4B4F4C984217D006D840
:100270004E4988420CD04E4A904206D10BE04D4D7B
:10028000A8420FD04C4EB0420FD02060002704E0AF
:10029000206000270BE020604127002208E020605A
:1002A000412704E020604227F7E72060222701224F
:1002B00072B6424B8E2081005D58002A05D0202066
:1002C00085435D500021196202E00326B5435D506D
:1002D000C826C046013E002EFBD101251A645D648C
:1002E0005E645D64596C012634483142FAD0002FB7
:1002F00015D087608E27B90045588026B5434550F4
:10030000D96801202D4F0142FAD0032500263D6710
:1003100078677E6778675F6FF807FCD50DE0026746
:100320004667476746675D6F244FED07FBD58E2014
:1003300081007D58802635437D508E218D00002A16
:1003400002D05A59032001E05A59202002435A5141
:1003500025681B4E1B4BB54201D9022105E01A4FFF
:10036000BD4201D9012100E000210022D960281CF2
:100370001A61164903F058FC154E164B37680138C0
:100380001F4000020743281CFA25A900376003F02C
:100390004BFCFFF74DFFFF2002F058F962B62068D2
:1003A000F8BDC0460048E801040000100024F40035
:1003B00000366E0100512502006CDC020080044012
:1003C000FF59620200000140FF2C310100093D008D
:1003D00000C00140FF00FFFF574B30B51A68574976
:1003E00001321A600878400738D5554C2578013518
:1003F000EBB22370052B31D10023524A2370D2690E
:10040000950700D503230120024200D043404E4C03
:100410002578E81AC0B2C50708D523704B4B0225D2
:100420001C782840013C2018C4B21C70484B50076F
:1004300012D41D780135E8B21870C72805D9454C8B
:10044000022223781343237001E0132806D9414B7D
:1004500001251A782A4300E000221A70097809075A
:1004600068D53D4804780134E3B20370192B61D19B
:1004700000220270334D3948E96F036810240B40A5
:100480000160191C2140364A0AD1364805782C43B0
:1004900004703548147805782D19ECB2047010E01A
:1004A0000121181C08400CD12E4920250C782C4322
:1004B0000C702D4914780D7810702D1BECB20C7057
:1004C00000E0117008211940284A09D1254840252B
:1004D00004782C4304702648147805782D190BE015
:1004E000022119400BD11F48802405782C43047049
:1004F0001F48147805782D1BEDB2057000E001212E
:1005000011701C4A5D0713D411780131C8B2107004
:10051000272805D9134C022225781543257001E0C0
:10052000032807D90F4B012118780843187001E000
:100530000023137030BDC0462C1000103110001085
:100540003E10001000000150351000103710001050
:100550003D10001033100010401000103810001033
:10056000411000103C100010361000103410001024
:10057000301000103210001072B6054B03211A78AB
:10058000101C0A401A7062B643B298107047C046F9
:10059000371000100D4A0E4991230E48CB67D367E0
:1005A00093678268002A02D00B4903230B704068CE
:1005B000002804D0084B01211A784A401A70074BD2
:1005C000074A0020187010707047C0460040044071
:1005D0000440044000000150351000103710001096
:1005E000331000100A4B9122191D9020CA679A6798
:1005F0009031DA671B1808601A60064A00211170F2
:100600000548064B064A0170116019707047C046D4
:10061000004004403C100010361000103010001054
:100620003810001010B505283CD010D804287DD112
:100630003F4A404C0223136021681020014321608F
:1006400023688021480418432060111C1DE00728FE
:1006500040D0FF286AD1364C374A8121216080235F
:10066000082111628B40D05801240143D1503349F5
:10067000304B0C6018682024204318601C688020D0
:100680004004204318600C1C40E0236A294A002BD8
:10069000FBDA14682A4820401060126A1304980D8F
:1006A000912231E0254C234B012121601A68202042
:1006B00002431A601A688021480410431860211C04
:1006C0005A6A1C4C002AFBDA20681D4B0340236049
:1006D000626A16E01B4A174B012111601C688020DA
:1006E00004431C601C688021480420431860111CCE
:1006F000DC6A104A002CFBDA1068114B03401360CF
:10070000D26A1404A00D90220A6010E0586A0949C8
:100710000028FBDA08680A4B03400B60496A802313
:10072000236008040024800D146200E0002010BD46
:100730009040044000C0014000000150944004403B
:1007400000FFFFF898400440094B1A78824309489B
:100750001A7001788A0609D5074BA0201A78C105BE
:10076000002A01D1082300E000230B627047C04635
:1007700042100010311000103F100010014B18689B
:100780007047C0462C100010034B19681A68521AA3
:100790008242FBD37047C0462C10001038B5041CB1
:1007A0000B4D04D101235842A8616C600DE0C3B227
:1007B000642B00D96424E4B2012021046860081B82
:1007C000642103F013FAC243AA61201C38BDC0465D
:1007D0000000014008B5002802D1034B186801E071
:1007E000FFF740FD08BDC0460400001070B572B6AA
:1007F000294B12211A1CFC328E20516584001D5990
:10080000102001228543254E1D519A670433DE676F
:100810008021A023DC050B02E558214904262E4047
:100820000D1CA435E650C86128604866E6580825C6
:100830003540E550C8621B488025C458AD001443BC
:10084000C450002444601848C6583543C55080231E
:100850001E0184511548212355428A638460C46077
:1008600004610467446185614267C3634260104A62
:1008700010491668301C03F0D7F90F4D0F490138A5
:10088000000208602C60FA24A100301C03F0CCF9AF
:10089000FFF7CEFC62B670BD008004405F2101000E
:1008A00000400440000003500000015000000140DF
:1008B0000400001000093D002C10001000C0014091
:1008C000F0B591B016AC257819AC01950591258845
:1008D000694603ACA07117AE087918AF36783F8827
:1008E0002371074B227360710D21201C054A25825C
:1008F000E7816673039301F0BFF911B0F0BDC04604
:10090000EFBEADDE2C000010F0B5674C93B023783D
:100910000E1C272169440B700890FFF73BFE042052
:10092000F822207015020020FC27011C00952A22C5
:100930007F23FC0002F0EAF900942A2000215422CF
:100940007F2302F0E3F97F221F2300935420131C1E
:100950000021002402F0DAF980210802534A3B21E9
:10096000231C00940194029401F08EFF8020452105
:100970004F4A231C009401940294000201F084FF6A
:10098000802210020094019402947621494A0123A6
:10099000012501F079FF079406940595FFF7ECFD1A
:1009A000069F0025C3194448079F027805704348F5
:1009B000D9B2BB1802780691A418D9B2E4B2057076
:1009C00007916F4618231C2160B2DA57CB5700906D
:1009D0003B490AA803F00CFA089A052001272B1CB2
:1009E0000092011C0AAA0196029701F04DFF354BB7
:1009F000354A18781D70117815700843334D3DD075
:100A000002236F6003402DD0274F0AA83B78042BA8
:100A100006D12F4903F0ECF9FFF7E4FD082205E0C9
:100A20002C4903F0E5F9FFF7B5FD042208990120F0
:100A30003A700023009102900196052019210AAA1C
:100A4000FA2701F021FF7800FFF79EFE1D4B0021E1
:100A50001A7819708A42F9D11B4807780270002F62
:100A6000F4D10CE038420AD0089801960090029721
:100A70000F21194A052001F007FF00E0686001F02E
:100A800067FD002802D001F023FD0590059B002B97
:100A900084D16B60301C02F089FD27246C44024E27
:100AA0002578357013B0F0BD31100010A84A000051
:100AB000AE4A0000BC4A0000361000103010001092
:100AC000CA4A0000331000103C1000100000035010
:100AD000DC4A0000E04A0000E44A0000F0B58BB0B8
:100AE0000990081C0F1C069202F060FD069B6946E7
:100AF000D80007901C310A8802240592261C01F0B8
:100B000027FD002831D001F0E3FC051E0A2D05D099
:100B10000D2803D0092808D1202506E0002E10D08A
:100B2000059EA419A4B202260BE0099B01200093A4
:100B300002900197301C211C2A1C069B01F0DEFD4F
:100B4000061C02F095FD864203D305990226621821
:100B500094B2079BE018089002F090FD089981423A
:100B600003DB381C02F022FD0224002DC7D1381C03
:100B700002F01CFD0BB0F0BDF0B585B00091029005
:100B800001F0A6FC019001F0A3FC051C01F0A0FC03
:100B9000061C01F09DFC041C01F09AFC7F23021C42
:100BA0009A43D1B2071C1F40039103F017F8019834
:100BB00029198319013B01399AB201988BB2291C7A
:100BC00002F08AFD022F07D0042F09D0012F10D187
:100BD000B14D002100950BE000250095AE4907E0DE
:100BE0000098029A009B504043405840009381B2C5
:100BF0000291AA48039B02680192002B00D0A3E057
:100C0000251C75430B2F06D8082F3ED27E1E032EBF
:100C100000D96DE015E0182F6AD189E001F098FC49
:100C2000002816D001F054FC2E1C071C083E80241E
:100C3000274209D00298013D02F03AFD6408B5420E
:100C400004D1002DEAD10CE00098F4E7002DEFD19B
:100C500007E0924C019F2268FA20D11BC300994201
:100C6000EFD902F0B1FF05B0F0BD092F1BD11C2454
:100C7000044003227C4310400A267043E1000843ED
:100C8000C0B2C0B202F014FD013D002DE9D001F068
:100C90005FFC002818D001F01BFC082FE5D11826B6
:100CA0000640152304E00A2F08D138260640092300
:100CB0005E430723184030438000E1E7FC220240F6
:100CC000D100C0080843DCE7744A01981168FA2390
:100CD0000E1ADC00A642D8D9C3E701F039FC00287F
:100CE00009D06F4B013D1F68B847C0B202F0E0FC6D
:100CF000002DF2D1B5E7694F019C3868FA22011B3B
:100D0000D600B142F4D9ACE701F022FC002812D0A1
:100D100001F0DEFB01F0DCFBFC273840C40001F0F1
:100D2000D7FBE6B2C1080E43F0B202F0C1FC013DB0
:100D3000002DE9D195E7594801990468FA26621A0D
:100D4000F3009A42F4D98CE70399802900D088E710
:100D5000251C75430B2F07D8082F69D2013F032F9D
:100D600000D9D7E02F1C13E0182F00D0D2E004E107
:100D7000002F09D00399294222D00298013F02F0A6
:100D800097FC6D08B742F3D1013CE4B2002C19D1B5
:100D9000002F00D165E701F0DBFB002826D001F031
:100DA00097FB051EAA2D10D101F092FB041E00D165
:100DB00057E701F08DFB03903E1C083E8025D9E7E4
:100DC0000098DBE7002FF7D14BE73E1C083E80245C
:100DD000254201D0029800E00098013F02F068FC33
:100DE0006408B742D4D0002FF2D13AE72B4E019DD0
:100DF0003468FA22601BD3009842C9D931E7092F21
:100E00002FD11C2101400324794320400A23584359
:100E1000CA000243D3B2DEB22C1C301C02F048FCE4
:100E2000013C0099601B0B18DAB2002A2AD1251C5C
:100E3000002D00D115E701F08BFB002854D001F004
:100E400047FBAA2821D101F043FB0090002800D1E4
:100E500007E701F03DFB082FD1D1182202401526EB
:100E600004E00A2F08D138220240092672430726DF
:100E7000304010438200CDE7FC240440E300C0086A
:100E80000343C8E7002CC8D1D1E7082F0AD11826A0
:100E90000640152117E0C046FFFF00002C1000108F
:100EA00018000010092F09D11C24044003227C43A0
:100EB00010400A267043E300184309E00A2F09D1C5
:100EC0003826064009214E43072108403043800060
:100ED000C0B204E0FC220240D300C0081843C0B2F4
:100EE00002F0E6FB6C1EA2E73448019B0268FA217F
:100EF000D61ACC00A64200D9B3E62C1C97E701F025
:100F000027FB002809D02E4A013D1768B847C0B218
:100F100002F0CEFB002DF2D1A3E6284F019E3C68E3
:100F2000FA21A01BCB009842F4D99AE601F010FBFD
:100F3000002838D0224F3E68B047C0B2AA2822D13C
:100F400001F0C6FA061E00D18BE601F0C1FA01F0ED
:100F5000BFFAFC210840C300DCB201F0B9FAC208B4
:100F60001443E7B22C1C381C013C02F0A1FB611BAE
:100F70007018C3B2002B03D1251C002DD6D170E60A
:100F8000002CF0D1F8E701F0A3FAFC21031C0B4080
:100F9000DA00D4B201F09CFAC7083C43E0B202F098
:100FA00087FB6C1EE8E7054C01982668FA23311A86
:100FB000DA00914200D954E62C1CDDE72C10001019
:100FC00018000010F0B58BB00891171C079001F0C5
:100FD0007FFA041C01F07CFA099001F079FA7F2570
:100FE000C343D9B20540CA09681E05920F2800D92B
:100FF00001250026B74202D101F06AFA061C274BF0
:1010000019680691002F3AD1002E44D001F0A0FAC1
:10101000002816D001F05CFA071C02F029FB84427C
:101020000CD20799089A05980091019202900999AB
:10103000201C3A1C2B1C01F061FB041C013EF6B283
:10104000E2E7164B069F1968FA20CA1BC3009A42B2
:10105000DAD920E001F03CFA061E1CD002F008FBB1
:1010600084420CD2089A0598079F0192029000973B
:10107000201C0999321C2B1C01F040FB041C01F0C0
:1010800067FA0028E6D1054E069A3768FA23B81A9F
:10109000D9008842F3D90BB0F0BDC0462C10001027
:1010A000F0B58BB0FFF7A2FB9C4C9D4B2168181C40
:1010B0008D791968A022D6053769002F2FD002F04C
:1010C000E3FA2068974E0168B14238D0964F9748AE
:1010D000FFF780FB381C02F069FA00250A20011C8A
:1010E000934A012300950195029501F0CDFB322032
:1010F000FFF754FBFA239800FFF746FB9622910175
:101100000095019502950220202230230397FFF7D6
:10111000D7FB281C391CFFF7F7FB02250FE00368FB
:101120005A1A632ACBD880252A01B6580425002EE6
:10113000C0D0804B5D686B1E9D410135BAE72068C9
:101140007D4900794843FFF745FB7C4E37787B07A4
:1011500001D5FFF71FFA3378190701D5FFF742FAD7
:101160002068C2890792018A081C069102F01EFAC3
:1011700027687879FFF712FB2668B06801F0FEF85F
:101180002368187B01F008F82468607B01F0FAF905
:10119000281C002501F05AFA08956148036801F0FF
:1011A00097F90138A22801D900F00FFD02F066FD81
:1011B000A300A800CC00D800DE00330163010D05B8
:1011C0000D050D050D050D050D050D050D056A0136
:1011D000760179017E0183010D050D050D050D05D3
:1011E0000D050D050D050D050D050D050D058801F8
:1011F0008D01920198019D01A201A701B001B501E5
:10120000B901BD01BF01CC01D501E001F501040226
:1012100018023B025A028C02A302B602CE02E50279
:10122000F80210032E03450361037F039603B20304
:10123000C303D003DF03F003FD030D0422043104D4
:1012400046045B046A0482048B048E0492049B04AB
:101250009E040D050D050D050D050D050D050D056E
:101260000D050D050D050D050D050D050D050D05EE
:101270000D050D050D050D050D050D050D050D05DE
:101280000D050D050D050D050D050D050D050D05CE
:101290000D050D050D050D050D050D050D050D05BE
:1012A0000D050D050D050D050D050D050D050D05AE
:1012B0000D050D050D050D050D050D050D050D059E
:1012C0000D050D050D050D050D050D050D05BD04DF
:1012D000A504A804B9040D050D050D050D050D05A2
:1012E0000D050D050D050D050D050D050D05CB04B1
:1012F000D804DF04F504124801F0DCF800F065FCC6
:10130000089B002B02D13220FFF748FA0798069974
:10131000FFF7FAFA0B4F02203E6824E000000010AD
:101320002C100010EFBEADDEFFFF0000006CDC02F1
:10133000EA4A0000FC00015040420F00311000104A
:10134000A94A000020000010D64DD74A2C78116819
:10135000201C884701F0D0F8201CFFF7F5F91CE7A6
:10136000D14E0D203668B04700F02FFC01F0B0F8E8
:101370000138062800D910E702F08AFC0423282E41
:1013800033383F0001F05CF9071C01F053F9061CEB
:1013900001F04AF9C54C051CC549206802F044FC1F
:1013A000C4B201F03BF9089A0799069B009201909C
:1013B00002910393381C311C2A1C231CFFF780FA6E
:1013C000EBE601F085F801F041F9E6E6B94E306848
:1013D000804700F0D3FFE0E601F07AF800F0DCFE91
:1013E000DBE601F075F801F0CDF8D6E601F070F813
:1013F000AF4B5843FFF7EEF9CFE601F069F8071C51
:10140000420701D5FFF7C6F83B0701D5FFF7EAF819
:10141000A9480770C1E601F05BF80138052800D93A
:10142000BBE6A024E30502F033FC030A1E13101BE5
:10143000802422029F58082139409950ADE6186A4D
:10144000994D431E98412E688DE79C4A00211170EA
:1014500080273E02985908210843985119629CE65A
:1014600096480126067080252C021A5908273A430F
:101470001A510021F2E701F02BF8914D2F68FFF788
:10148000D1F82BE001F024F8FF2803D1864E08980C
:10149000366868E7FFF782F908907EE602F0F4F814
:1014A0007BE601F015F802F095FA76E601F010F807
:1014B00002F074FB71E601F00BF802F061FB6CE6E0
:1014C00001F006F802F0A8F867E67D48076802F028
:1014D000CFF803E07A4B1F6802F0D0F8B84774E306
:1014E00000F0F6FF02F06AFA57E676490A6890477C
:1014F000079052E6734D2C68A04706904DE607987A
:1015000006990122FFF7EAFA674F26203E682AE78C
:1015100007980699FFF730FB3FE66A4B186880474B
:1015200000E0079802F042F837E60698FAE700F084
:10153000CFFF051C00F0CCFF6249041C0A689047ED
:10154000211C021C281C10E000F0C2FF061C00F049
:10155000BFFF079A011C301C07E000F0B9FF071C11
:1015600000F0B6FF069A011C381C02F001F814E6E0
:1015700000F0AEFF071C00F0ABFF061C00F0A8FF58
:10158000051C00F0A5FF4F4B041C18688047311C58
:1015900000902A1C381C231C1FE000F099FF071C38
:1015A00000F096FF061C00F093FF041C00F090FF73
:1015B000079A031C00920DE000F08AFF071C00F060
:1015C00087FF061C00F084FF041C00F081FF0699D1
:1015D000031C0091381C311C221C01F013FFDCE5B8
:1015E000384A13689847099000F072FF061C00F013
:1015F0006FFF041C00F06CFF051C002E00D1CCE531
:1016000000F066FF059000F063FF071C0998291C95
:101610000090059A201C3B1C013E01F0F3FEB6B27F
:10162000059C3D1CE9E700F053FF041C00F050FF4F
:10163000051C00F04DFF061C002C00D1ADE500F0AC
:1016400047FF071C00F044FF079905900091281CF4
:10165000311C3A1C059B013C01F0D4FEA4B23D1C98
:10166000059EE9E700F034FF041C00F031FF051C83
:1016700000F02EFF061C002C00D18EE500F028FFA4
:10168000071C00F025FF05900698311C00903A1CBD
:10169000281C059B013C01F0B5FEA4B23D1C059E33
:1016A000E9E7C046421000102000001004000010BE
:1016B00040420F0024000010311000103F100010B5
:1016C000140000101800001000F002FF051C00F0CC
:1016D000FFFE041C00F0FCFE071C00F0F9FE061CD7
:1016E000F34801688847EA19A319013A013B92B20D
:1016F0009BB2009025E000F0EBFE051C00F0E8FE38
:10170000041C00F0E5FE071C00F0E2FEEA192318B5
:10171000013A013B92B29BB2079911E000F0D8FE6A
:10172000051C00F0D5FE041C00F0D2FE071C00F0E2
:10173000CFFEEE192018013E01380699B2B283B2ED
:101740000091281C211C01F039FE26E500F0C0FEA6
:10175000051C00F0BDFE041C00F0BAFE071C00F0E2
:10176000B7FE061CD24801688847EA19A319013A56
:10177000013B92B29BB2009025E000F0A9FE051C4F
:1017800000F0A6FE041C00F0A3FE071C00F0A0FE63
:10179000EA192318013A013B92B29BB2079911E072
:1017A00000F096FE051C00F093FE041C00F090FE75
:1017B000071C00F08DFEEE192018013E0138069935
:1017C000B2B283B20091281C211C01F09FFAE4E41C
:1017D00000F07EFE041C00F07BFE071C00F078FE8B
:1017E000051C00F075FE061C00F072FEB04A059064
:1017F000106880476119BB19059D0139013B8AB208
:1018000001909BB20095201C391C2FE000F060FE77
:10181000051C00F05DFE041C00F05AFE071C00F0E1
:1018200057FE061C00F054FEE919A3190139013BCB
:1018300000908AB29BB2079815E000F049FE051CA3
:1018400000F046FE041C00F043FE071C00F040FEC2
:10185000061C00F03DFEEA19A319013A013B009075
:10186000069892B29BB20190211C281C01F0B8FB93
:1018700093E400F02DFE041C00F02AFE071C00F08B
:1018800027FE051C00F024FE061C00F021FE884AFD
:101890000590106880476319B919059D013B01390E
:1018A0009AB201908BB20095201C391C2FE000F0F9
:1018B0000FFE051C00F00CFE041C00F009FE071CC6
:1018C00000F006FE061C00F003FEEB19A119013B17
:1018D00001399AB200908BB2079815E000F0F8FD3C
:1018E000051C00F0F5FD041C00F0F2FD071C00F0E3
:1018F000EFFD061C00F0ECFDEA19A119013A0139CF
:101900000090069892B28BB20190211C281C01F025
:1019100041FA42E400F0DCFD071C00F0D9FD061C92
:1019200000F0D6FD6249041C0B689847311C031C6B
:10193000221C381C18E000F0CBFD061C00F0C8FD8E
:10194000051C00F0C5FD291C021C079B301C0BE088
:1019500000F0BEFD071C00F0BBFD041C00F0B8FD4C
:10196000069B021C211C381C01F0CAF815E400F08B
:10197000AFFD071C00F0ACFD061C00F0A9FD051C26
:101980004B4802689047311C031C2A1C381C18E085
:1019900000F09EFD051C00F09BFD041C00F098FD6E
:1019A000211C021C079B281C0BE000F091FD071C6A
:1019B00000F08EFD061C00F08BFD069B021C311C06
:1019C000381C01F0A7FAFFF7E8FB00F081FD071CC7
:1019D00000F07EFD061C00F07BFD051C00F078FD8C
:1019E0003349041C0B689847311C00902A1C381C92
:1019F000231C1FE000F06CFD071C00F069FD061CB5
:101A000000F066FD051C00F063FD079A031C0092C0
:101A10000DE000F05DFD071C00F05AFD061C00F013
:101A200057FD051C00F054FD031C06980090381C5F
:101A3000311C2A1C00F074FFFFF7AFFB00F048FDDB
:101A4000071C00F045FD061C00F042FD051C00F0DF
:101A50003FFD1749041C0B689847311C00902A1C55
:101A6000381C231C1FE000F033FD061C00F030FD85
:101A7000051C00F02DFD041C00F02AFD079A031C34
:101A800000920DE000F024FD061C00F021FD051C75
:101A900000F01EFD041C00F01BFD031C06980090C6
:101AA000301C291C221C01F0DFFBFFF776FBC0462F
:101AB00018000010474E316888473368071C984764
:101AC000011C381C04E00798069901E00698079964
:101AD00000220EE03F4C206880472268051C90479A
:101AE000011C281C04E00798069901E00698079954
:101AF0000122FFF767FAFFF750FB37490E681BE03A
:101B0000364C002523782570AB42F9D0324E376829
:101B1000FEF732FDC0B2B847207832682570904792
:101B20000FE02F480469002CFBD02B4C2568FEF7F2
:101B300023FDC0B2A8472668284B002718781F70DD
:101B4000B04704203FE0244F264B002418783D681E
:101B50001C70A847244A3E6810781470B0472CE0E7
:101B6000224C1D4F002120783F68217029E01F4F33
:101B7000002438783C70A042F9D01A49164E0878F3
:101B800033680C709847184D326828782C7090474D
:101B9000387836683C70B04714E0114A1169002962
:101BA000FBD00D4F0F4E002430783B6834709847BF
:101BB0000D4D3A6828782C7090470C493F6808789A
:101BC0000C70B8470820FEF7BFFD00F095FCFFF74A
:101BD000E4FAC04618000010200000103310001076
:101BE0000000015036100010301000103C100010A2
:101BF00000B532238BB00690079105A8059301A983
:101C0000024A904701980BB000BDC046F11FFF1F6C
:101C100000B58BB0332306900020059308920791FE
:101C2000FEF7D8FDFA21890001F0FEFF01A9099015
:101C3000024A05A8904701980BB000BDF11FFF1F95
:101C400000B5031C8BB007208B4210D83422002033
:101C5000059206930791FEF7BDFDFA21890001F078
:101C6000E3FF01A90890034B05A8984701980BB022
:101C700000BDC046F11FFF1F38B5051C0B1C141C0E
:101C8000012000292FD072B6111CE022D20101CA16
:101C900001C1802000028242F9D1F8210A01A01876
:101CA00002CD013B02C0002BFAD10720011CFFF737
:101CB0009FFF002801D0012014E00720011CFFF73E
:101CC000BFFF0028F7D10720011CFFF791FF002874
:101CD000F1D1E023211C8024D8016201FFF798FF95
:101CE000431E984162B638BD044B05491A88885492
:101CF0001F20013202401A807047C0466E18001043
:101D00004B180010024BDA689107FBD598607047BA
:101D10000000044038B5084C051C2368C0B2984741
:101D200028042168000E88472A02100E236898476D
:101D3000280E2568A84738BD2000001038B5074C8C
:101D4000051C2368C0B2984728042168000E884704
:101D50002A02100E2568A84738BDC0462000001092
:101D600038B5044C051C2368C0B29847280A21687E
:101D7000884738BD2000001038B5084C051C236882
:101D8000000E984728022168000E88472A04100E8A
:101D900023689847E8B22568A84738BD200000109E
:101DA00038B5074C051C00022368000E984729042B
:101DB000080E22689047E8B22568A84738BDC0469B
:101DC0002000001038B5044C051C2368000A984711
:101DD000E8B22168884738BD20000010F0B5174BE5
:101DE0001A88174C21888A42FBD016498D5C013233
:101DF0005005460D1E801A882788BA42FCD0885CA0
:101E000001325605720D1A801A8807022088824214
:101E1000FCD08E5C01325205500D188036043E43D2
:101E20001F8822889742FCD0CC5D01377905480D88
:101E30001880200628433043F0BDC0466C180010BF
:101E4000441000104710001070B5114B1A88114C47
:101E500021888A42FBD010498D5C01325005460D25
:101E60001E801A8820888242FCD08E5C0132520586
:101E7000500D18801A88360220888242FCD08C5C73
:101E800001325105200430434A0D28431A8070BDA9
:101E90006C180010441000104710001030B50C4BA7
:101EA0001A880C4908880D1C8242FAD00A498C5CB9
:101EB00001325205500D18801A8828888242FCD0C1
:101EC0008D5C0132510528024A0D20431A8030BD35
:101ED0006C180010441000104710001030B5174B5C
:101EE0001A88174C21888A42FBD016498D5C013232
:101EF0005005420D1A801A882D0620888242FCD097
:101F0000885C01325205520D1A8000041A88284359
:101F10002588AA42FCD08D5C01325205520D1A80F0
:101F20002D021A8828432588AA42FCD08C5C0132F5
:101F300051054A0D20431A8030BDC0466C18001070
:101F4000441000104710001030B5114B1A88114C86
:101F500021888A42FBD010498D5C01325005420D28
:101F60001A801A882D0420888242FCD0885C0132B5
:101F70005205520D1A8000021A8828432588AA4269
:101F8000FCD08C5C013251054A0D20431A8030BDD3
:101F90006C180010441000104710001030B50C4BA6
:101FA0001A880C4908880D1C8242FAD00A498C5CB8
:101FB00001325205500D18801A8820022C88A24246
:101FC000FCD08D5C013251054A0D28431A8030BD8A
:101FD0006C1800104410001047100010A023D90501
:101FE0000A69002A04D1034B59698906FBD5186098
:101FF0007047C04600800040802010B5C40563686B
:10200000221C2E49802B0ED004D8602B09D0702BB7
:102010004DD106E0A82B19D0B82B2CD0902B46D14F
:1020200001E0012044E00B78012B0CD1244A8024EC
:10203000E305118823489C684454013149054C0D3F
:10204000148004222AE0042090612BE00220087012
:102050001D4A1E4908881388984206D01C49C85C4E
:102060000133A0601F24234013808022D005042167
:102070000160082219E00A78022A11D11348124A95
:1020800001881388994206D01148C15C0133A160D0
:102090001F242340138080230422DB051A6001E003
:1020A0000421A16180230822D805826105E0002077
:1020B0000424082308701460936110BD46100010BA
:1020C0004410001047100010481800106E1800103F
:1020D0004B18001080220B4B10028022D8676C2115
:1020E000D005094B81610021084819635963426892
:1020F00002239A4342600430C26F20218A43C267A0
:102100007047C04604E100E0004004400080044005
:10211000F8B51B4B1B4D00261E70FFF7DBFF1A485E
:102120000122AF6F02634263301CFEF753FB391C80
:1021300001F07AFD154901F077FD8024E405606126
:10214000301CFEF747FB391C01F06EFD0F4901F012
:102150006BFD2E1D2061F36F20210B43F3676F6829
:10216000022007436F600A4DFF232A788021560022
:1021700008481E400F024425E66007602560F8BD50
:1021800046100010008004400040044000350C0060
:102190001000001000E100E008B5044B187004487E
:1021A00001788A0701D5FFF7B3FF08BD10000010C2
:1021B000471800100B4A0323D16910B50B4002D019
:1021C000106A0343136208490B88D468640707D573
:1021D000044884680548C45401335B055B0DF4E78B
:1021E0000B8010BD00000440441000104710001088
:1021F00080220F4B5003D8670E48082142680A43DB
:10220000426043680222934343600B48102111232C
:10221000C1610166416683660848012142688A43BC
:1022200042600430C36F064A1A40C2677047C04616
:1022300004E100E00000044000400440008004404D
:10224000FFF7FFFF10B5FFF7D3FF164B1122DA613E
:1022500002211A66144C01225A6699666068134B73
:1022600010436060DC6F802000012043D867104B72
:1022700006241A600F4BC722196104211A605960A5
:102280005C61D8680B4A400701D59268F9E70323DF
:102290001362546802210C435460074B80225003A0
:1022A000186010BD004004400080044004800440D9
:1022B000948004400000044000E100E0074B9A686D
:1022C000186811074B0F022B07D1054B05491A88D7
:1022D000885401325005420D1A807047008000403A
:1022E00044100010471000100E4AA023DB05995837
:1022F0000420014399501A690B4B002A0BD101208D
:1023000018600A4B5A69D10701D51B68F9E780218B
:102310008903074B04E08021064A8803D067002127
:10232000196070471C800000A840044000800040F5
:1023300000E100E004E100E00B4B80228021100668
:102340008A03D867DA67094A094B00205860111CD4
:102350001020D061074BA431A83208601060D86FFC
:10236000054A0240DA67704704E100E0004004409B
:102370000080004004800440FFEFFFFF154B70B564
:10238000C218041C1448824222D8144D14492E78D5
:102390000C60F2071CD5134B134A9E6F0020156882
:1023A000FEF718FA311C01F03FFC291C01F03CFC3F
:1023B000211C000901F038FC0C4C8023E168060A5E
:1023C0001943C0B2E16066602060E2689A43E2604F
:1023D00070BDC04680DAFFFFC01C0F004718001018
:1023E00008000010008004409880044000800040F5
:1023F00038B5FFF7A1FF234B23491022A020DA6153
:10240000C405655804229543204B6550E058204987
:102410001043E05065581F4B15436550E0581E4D62
:102420000243E2501D4A112414601D4C002121601A
:10243000EB6F802042011A431A49EA671A4B0125C3
:102440000D601868FFF79AFF184B03200722D86029
:102450005D609A605D69A906FCD559690120014259
:1024600002D0124D2A68F8E7A023DA051569104951
:10247000002D03D120608024A003086080231A0669
:102480000A6038BD0040044004800000088000005D
:10249000108000001C80000004800440A440044020
:1024A000A8400440988004400800001000800040CC
:1024B00000E100E010B5041C2078002804D0034B94
:1024C000013419688847F7E710BDC04620000010A6
:1024D000064A1388064908888342FBD00549C85C30
:1024E00001335B05590D11807047C0466C18001010
:1024F000441000104710001070B50F4B1878820779
:1025000018D5FEF73BF9061C0C4D0D4C2A88218886
:102510008A420FD0FEF732F9831BFA2BF4D972B638
:102520000849094E00200880308020802880074D0F
:10253000287062B670BDC046471800106E180010B3
:10254000481800106C1800104410001046100010BD
:10255000094B0020197881420CD0084A084B128898
:102560001B889A4204D89A4204D280200101521852
:10257000D31A98B27047C046471800104410001094
:102580006C180010F0B51249124F134E134D144C35
:10259000144A154B00280CD138701448144F306081
:1025A000144E2F602660144D144C0D601460144AB4
:1025B0000CE001203870134F3760134E2E60134D1E
:1025C0002560134C0C6013491160134A1A60F0BD6A
:1025D000140000104A180010180000100C00001021
:1025E00024000010280000101C0000109D1F000097
:1025F000491F0000DD1E0000C51D0000A11D0000D8
:10260000791D00009D1E0000491E0000DD1D000018
:10261000611D00003D1D0000151D0000014B1878D4
:102620007047C0464A180010014B18787047C046E2
:1026300010000010014B18687047C04608000010D9
:10264000014B18787047C0464718001038B5051C74
:10265000FFF752FF1E4C23789A0701D5FFF73AFD8A
:102660002078420701D5FFF7C3FD2178CA0701D5BD
:10267000FFF762FE174A1078FFF784FF164B002021
:102680001880164A164B10801880164A164B108078
:102690001870FF2D02D12578854217D01348012DDF
:1026A0000ED0042D06D0124A022121700260FFF7DD
:1026B0002FFD0AE00F4B25700360FFF7C3FD04E018
:1026C00025700D4D0560FFF793FE207838BDC0469C
:1026D000471800104A1800106C1800104410001021
:1026E000481800106E18001046100010200000104E
:1026F000E91C0000051D0000DD1F0000F0B58FB0D3
:10270000069314AB02911988069B151C15AA148810
:10271000DA0016AE01901018377809910A9481B248
:10272000564C07910B972688079FB74206DC029B01
:102730005349D2180C8890B2A04203DD0136B6B2DC
:10274000019698E01F2D00D895E0069E203D013EA1
:10275000F7B2049701F042FA4A4BED00049CEA18E4
:102760000392002C2BD10398029B015D1D19AEB280
:10277000049100258027019A049853199AB238428F
:1027800006D0101C311C331C00F0A6FF099808E08D
:102790000B99002907D0101C311C331C00F09CFF42
:1027A0000A9800F085FF01357F08082DE3D1013438
:1027B000082CD8D101F008FA079C01945BE003983B
:1027C000029C08300C90039906980E78019A039F9A
:1027D000049D0138C1B2AB1801370D9666180397F6
:1027E0009DB2B7B28023161C08220891029205936D
:1027F0000D980599084221D0301C211C2A1C3B1C35
:1028000000F06AFFA81B3E1B411C01364E43B6B2C6
:10281000002E04D0099800F04BFF013EF7E76A1C38
:10282000089B059896B2029A01335D194108013A56
:10283000ADB205910292002ADAD115E00B9A002A76
:10284000EDD0301C3B1CAE1B211C2A1C00F044FFA9
:10285000731C3E1B01365E43B6B2002EDFD00A98D1
:1028600000F026FF013EF7E7039F0C9E1C19A4B25F
:10287000B742A8D19EE701980FB0F0BD70180010C4
:1028800074180010FA4A0000F0B589B01C1C0EAB99
:102890000E1C1988151C10AB0FAA05911788197802
:1028A00006970791002C00D1012480221702B8421C
:1028B00010D1194F38884308281C049301F0BAFA44
:1028C000E1004143049A4808131A3F8899B2B9427B
:1028D00080410840802213029E4218D10F4EA7006B
:1028E00031884A08D31B9FB28F42B6413E400EE06A
:1028F0000599069B079F00910193311C0297231CA9
:10290000FFF7FCFE044A01351188814202D32A7880
:10291000002AEDD109B0F0BD701800107418001035
:10292000F0B58DB00793089112AB51428DB2041CE3
:10293000188803956E460C270290BB5F07985900D4
:1029400001314143079E5B43484352437643C518D8
:102950000693520077000023059004950A920B9786
:10296000019368460C210D5E002D00DD82E06B4670
:102970000C25EE5A9F88604BA01B089A85B21888D8
:10298000B91809978FB2A84210D95C4A1188B94288
:102990000CD901F023F9281C391C2A1C3B1C00F01F
:1029A0009BFE029800F084FE01F00EF9524B36199E
:1029B0001888B6B2B04210D9504A1188B9420CD921
:1029C00001F00CF9301C391C321C3B1C00F084FE59
:1029D000029800F06DFE01F0F7F8474A089F099B46
:1029E0001188F81A87B2B14210D9444B1888B842FE
:1029F0000CD901F0F3F8301C391C321C3B1C00F0E0
:102A00006BFE029800F054FE01F0DEF83A4E328878
:102A1000AA4210D939490B88BB420CD901F0DEF823
:102A2000281C391C2A1C3B1C00F056FE029800F0A2
:102A30003FFE01F0C9F8049D05986F0087420ADB4C
:102A4000039E059B0B99049801365D18B2B2461996
:102A5000039205950496069A974200DD81E7019F4F
:102A60000A99049855180137BBB246190193069587
:102A7000049676E700256A460420165E079BAF1988
:102A80009F4236DA1C4F3888A04216D9089A01991D
:102A900001321A485618731902889EB2B2420CD9F4
:102AA00001F09CF8201C311C221C331C00F014FE89
:102AB000029800F0FDFD01F087F83F88A74216D983
:102AC0000899019B0D4ACE1A013E701B118887B2EE
:102AD000B9420CD901F082F8201C391C221C3B1C85
:102AE00000F0FAFD029800F0E3FD01F06DF8013509
:102AF000C1E70DB0F0BDC04670180010741800108A
:102B0000F0B58BB0019353420890099198B292B2FC
:102B100000210590049207916F466C4610251C37E2
:102B20002E5F00217B5E9E4200DAE9E068461022BB
:102B3000145A08991C230D1BAEB27249185A0296FA
:102B4000099A0D88029E0694141A0390A7B2B54202
:102B500010D96D4B1888B8420CD901F03FF8029893
:102B6000391C021C3B1C00F0B7FD019800F0A0FDD1
:102B700001F02AF8089A039C099E111B614A069BE2
:102B80001488F01A8DB286B2AC4210D95E490B8817
:102B9000B3420CD901F022F8281C311C2A1C331C2A
:102BA00000F09AFD019800F083FD01F00DF8069801
:102BB000089A544984180B88A4B2A34210D95248E9
:102BC0000288BA420CD901F009F8201C391C221CD9
:102BD0003B1C00F081FD019800F06AFD00F0F4FF5D
:102BE000039F089947487B1802889FB2BA4210D9C0
:102BF00045490B88B3420CD900F0F0FF381C311C5A
:102C00003A1C331C00F068FD019800F051FD00F003
:102C1000DBFF3C49039E09980B88321896B2A34209
:102C200010D939480288B2420CD900F0D7FF201CD5
:102C3000311C221C331C00F04FFD019800F038FDC0
:102C400000F0C2FF2F48069C0999028863189CB2C5
:102C5000BA4210D92C490B88A3420CD900F0BEFF10
:102C6000381C211C3A1C231C00F036FD019800F092
:102C70001FFD00F0A9FF234F029A3888904210D917
:102C800021490B88B3420CD900F0A8FF0298311CEF
:102C9000021C331C00F020FD019800F009FD00F03B
:102CA00093FF184E3788AF4210D917480288A242C6
:102CB0000CD900F093FF281C211C2A1C231C00F0B7
:102CC0000BFD019800F0F4FC00F07EFF039D059CD5
:102CD0006846291901354B199EB2B7B205971430D1
:102CE0000021425E002A07DB049D013DACB2610079
:102CF000731A9EB204940596079F013707970BE756
:102D00000BB0F0BD7018001074180010F7B50E1C51
:102D10001E491C1C08AB071C151C18880A8801904A
:102D2000974201D3571EBFB2194B1888864201D370
:102D3000461EB6B2954201D3551EADB2844201D3B0
:102D4000441EA4B2AF4203D96F407D406F40BFB272
:102D5000A64203D9664074406640B6B200F03EFF1A
:102D6000311C2A1C381C231C00F0B6FCE91BA51BD7
:102D7000013101354D43002D04D0019800F098FC3D
:102D8000013DF8E700F020FFF7BDC04670180010C5
:102D900074180010F0B58FB0151C14AA061C148806
:102DA00015A807882A1B301903979446904200DB28
:102DB000AEE00F190797079A1F1B0697BA4200DB70
:102DC000A6E06746BAB2039F059280B2059A0097C3
:102DD0000490FFF79BFF1C23684618226946595A46
:102DE000135A301C0993049A099B66420097089174
:102DF000A4B2FFF78BFF2A1C099B0097059808993E
:102E0000B5B2FFF783FF0795069400230B936F4637
:102E100018216A462C23C85F9E5EB04278DB6D465F
:102E20001824615B049F2C26781A775B089D82B278
:102E3000EC1B0A910399A6B20C92331C00910C98DA
:102E4000311C049AFFF762FF0498089D0A9CC21B7C
:102E500093B2291B03988DB20D93291C2B1C009053
:102E6000049A0D98FFF752FF0A9A059B0399D4180C
:102E7000A4B2201C331C0091059A311CFFF746FFB9
:102E8000059A0398BE18B6B2291C2B1C0090301C62
:102E9000FFF73CFF099D03997B199DB2201C2B1C59
:102EA0000091059A291CFFF731FF0A9C099A039BA0
:102EB000A01884B2211C301C0093059A231CFFF734
:102EC00025FF039E291C2B1C00960C98049AFFF7E3
:102ED0001DFF039D211C231C00950D98049AFFF7EC
:102EE00015FF07996B467A180137D719B8B284B223
:102EF00007941C26F55E002D07DB069901398AB27E
:102F00005700C01B84B2069207940B9B01337DE7E8
:102F10000FB0F0BDF0B5544289B005900691A0B253
:102F200092B2002107930390029204916F466B4680
:102F300008251037EE5E00217C5EA6424EDB684617
:102F400008221024245A155A059906984B1B22185A
:102F50006E1807999FB2B6B293B2381C321C00911A
:102F6000191CFFF7D3FE069B079A181B83B2191C86
:102F7000381C0092321CFFF7C9FE059E069B371BCA
:102F8000A119E818079A8EB283B2BFB2381C191C77
:102F90000092321CFFF7BAFE069907984D1BABB2A0
:102FA000191C321C0090381CFFF7B0FE039F6946C5
:102FB000E61901343419A5B2ABB203930C22505E6A
:102FC000002807DB029F013FBEB274002D1BABB28D
:102FD00002960393049901310491A7E709B0F0BD6B
:102FE000F0B58FB01F1C14AB84461C8815A8161CA6
:102FF0000D1C624601881319301B03910493059040
:10300000834200DB29E129193B1B994200DB24E1C3
:103010008AB298B203990990089260460091099B80
:10302000111C6246FFF772FE6B461022D05A6946A9
:1030300014235A5A03993B1C0091391C0A900B9295
:10304000FFF764FE039F301C321C0899099B009710
:10305000FFF75CFE039E0A98291C0B9A2B1C009616
:103060006542FFF753FEA4B2AAB20020079206946D
:103070000D906E4618216B463436CF5E0021755E8A
:10308000AF4200DAE9E06C461822105B0A9B342557
:10309000191A8FB2724B2C5B0497089A1988049FF7
:1030A0000C90101B059486B2B94210D96D4D2C8836
:1030B000B4420CD900F092FD0498311C021C331C60
:1030C00000F00AFB039800F0F3FA00F07DFD0A9A85
:1030D00005980C9D131A624A089910884C1B9FB2E0
:1030E000A5B2B84210D95F4B1988A9420CD900F09B
:1030F00075FD381C291C3A1C2B1C00F0EDFA0398B6
:1031000000F0D6FA00F060FD0C9C0B9A544BA0180E
:10311000198884B2A14210D9524A1088B0420CD901
:1031200000F05CFD201C311C221C331C00F0D4FA82
:10313000039800F0BDFA00F047FD059E0B9B484A3E
:10314000F11810888EB2B04210D9464B1988A942A6
:103150000CD900F043FD301C291C321C2B1C00F044
:10316000BBFA039800F0A4FA00F02EFD3C4B059D3D
:10317000099A1988A81885B2A14210D9394A10882D
:10318000A8420CD900F02AFD201C291C221C2B1C53
:1031900000F0A2FA039800F08BFA00F015FD304A17
:1031A0000C9C099B1088E1188CB2B04210D92D4BB1
:1031B0001988A1420CD900F011FD301C211C321CD1
:1031C000231C00F089FA039800F072FA00F0FCFC6E
:1031D000234E04983288824210D9224B1988A94282
:1031E0000CD900F0FBFC0498291C021C2B1C00F0DD
:1031F00073FA039800F05CFA00F0E6FC184D2E8894
:10320000BE4210D9174A1088A0420CD900F0E6FC43
:10321000381C211C3A1C231C00F05EFA039800F0B5
:1032200047FA00F0D1FC059F079C6A463B1901371D
:10323000D9198DB2AEB207961C320021505E00281B
:1032400007DB069F013FBCB26300E91A8DB206940A
:1032500007950D9E01360D960BE70FB0F0BDC046E9
:103260007018001074180010F0B5524D8DB0039313
:1032700012AB041C2E88188806910790A11AB1423F
:1032800000DB94E04C49069F039B0D88F81AA84286
:1032900000DB8CE05642B6B237B27B0003980133B4
:1032A000434303995243494358437F4352004D00DF
:1032B000002305970490C7190A920B95029330B228
:1032C000002835DCB5B2611B88B22A19694608238B
:1032D00095B208905A5A069809921118079A8BB21B
:1032E000191C009208982A1CFFF710FD069B0998EC
:1032F000079A191A8BB20092191C2A1C0898FFF71A
:1033000005FD049B7D009D4206DB04980B99013668
:103310004218B6B20492BF1805988542CFDC029DD0
:103320000A9901354218ABB202930592BF18C6E75D
:1033300000256E460827BA5F0399AB188B4236DA30
:103340001C4F3888A04216D9069E029A01361A48A8
:10335000B318591902888EB2B2420CD900F03EFC63
:10336000201C311C221C331C00F0B6F9079800F019
:103370009FF900F029FC3F88A74216D9069B0299C5
:103380000D4A5E1A013E701B138887B2BB420CD9EE
:1033900000F024FC201C391C221C3B1C00F09CF972
:1033A000079800F085F900F00FFC0135C1E70DB07A
:1033B000F0BDC0467018001074180010F0B585B04C
:1033C0001F1C0AAB1E88051C141C3B1C2A1C0096E3
:1033D0000391FFF79BFC281C391C221C3B1C009608
:1033E000FFF794FC201C0399221C3B1C0096FFF75E
:1033F0008DFC03990096281C221C0B1CFFF786FCF1
:1034000005B0F0BDF0B58DB01E1C12AB051C1888C0
:103410000C1C171C0590954201D0B14208D1059AA9
:10342000281C0092211C3A1C331CFFF76FFC96E00D
:103430004C490A88954201D3551EADB24A4B1888B3
:10344000844201D3441EA4B2974201D3571EBFB297
:10345000864201D3461EB6B2791B8AB293B2301BA4
:10346000039383B2684699B20C3004910021415E07
:1034700001200690002904DA52423C4891B203919F
:1034800006906A4610218A5E01200790002A04DA1D
:103490005B42364A99B2049107926B460C20C15A9E
:1034A00068464A000A91102193B20A5A08935300C1
:1034B00098B20B92099000F091FB211C2A1C231C4E
:1034C000281C00F009F9059800F0F2F869460C2272
:1034D0006B461020525EC15E8A421EDD099E0A9A2A
:1034E000B31A9EB2BD421ED030B2002805DB079948
:1034F000089A6418B61AA4B2B6B2069B0998ED18D9
:10350000ADB281198EB2281C211C2A1C231C00F08C
:10351000E3F8059800F0CCF8E4E7089F0B9ABB1A93
:103520009FB2B44202D100F04FFB18E038B200283D
:1035300005DB0699099A6D18BF1AADB2BFB2079B99
:103540000898E418A4B2C1198FB2281C211C2A1CA7
:10355000231C00F0C1F8059800F0AAF8E1E70DB0CF
:10356000F0BDC0467018001074180010FFFF000076
:103570000C4B70B5051C18880C1C161CA84210D9E1
:1035800009490A88A2420CD900F028FB281C211CFA
:103590002A1C231C00F0A0F8301C00F089F800F071
:1035A00013FB70BD701800107418001038B5041C9F
:1035B00000F014FB164B17481A880188013A0139AC
:1035C00000208BB292B2011C00F086F880252D01FC
:1035D000201C00F06DF8201C00F06AF8201C00F0A0
:1035E00067F8201C00F064F8201C00F061F8201C33
:1035F00000F05EF8013D201C00F05AF8ADB2201C2E
:1036000000F056F8002DE3D100F0DEFA38BDC046D8
:10361000701800107418001008B5124B1B2815D034
:1036200006D80E2812D012280ED0092808D109E099
:10363000B42809D087225100884207D05A2801D0E7
:10364000002205E05A2203E0B42201E08720420074
:103650001A80188800F054F9034B010C18800348B5
:10366000018008BD72180010741800107018001046
:10367000014B18887047C04670180010014B18881D
:103680007047C0467418001010B5064B064907482D
:1036900000241C8004800C8000F0ECF9201CFFF753
:1036A000BBFF10BD701800107218001074180010C5
:1036B00030B5084B8022FF2412010025010AA40026
:1036C0009D5019518021890099509D501851995051
:1036D00030BDC04600000250F0B585B00292864A67
:1036E000019016880091802080210393834A49012C
:1036F00000010024B42E6FD0FF258727AD007F0086
:10370000BE4200D1AFE0009F023303930237422351
:1037100000975450145053515A2E32D08026802393
:10372000B700DE001750565054501450029B7F27AC
:103730007F42FB1ADFB2802357519F00175056502B
:1037400054501450019B7F277F42FB1ADBB2802725
:103750005351BB00135043278023565054501450EC
:1037600057519F0017506B465650545014501B78B9
:103770005351175056500C27545014506C463C5D12
:10378000B2E080268023B700DE0017506B4656500B
:10379000545014501B7853516B4617500C335650ED
:1037A000545014501B7853514323175056505450C3
:1037B000145053511750565054501450019B02331B
:1037C000DBB253511750565054501450029C0234DF
:1037D000E3B2535117508BE0FF239D004226802710
:1037E0008023545014505651BE00DD0016505550E1
:1037F00054501450019F0223BC469C446746FF234B
:10380000FFB29B00D7501650555054501450029F91
:103810000223BC469C446746FBB2FF27BF00D3513E
:1038200043231650555054501450D35116507F27EF
:103830005550545014507B42039F9C46DB1B019310
:103840006F463B79FF27BF00D35116505550545057
:103850001450009C63461F1BFF24FFB2A300D750E7
:103860001650555045E0422654508027145056516A
:103870008026F600BB001350565054501450039B42
:103880007F277F42BC46FF1A03976B461F7B80232E
:1038900057519F001750565054501450009B674684
:1038A000FF1A00976B461F78802357519F001750CF
:1038B000432380275650545014505351BB0013508B
:1038C000565054501450029F6346DB1B00936F46C2
:1038D0003B7880275351BB0013505650545014501E
:1038E000019F6446E31BDCB254518025AF001750A2
:1038F000565005B0F0BDC0467618001000000250CA
:10390000F0B5B42809D087235900884205D0041C9B
:103910005A3C6242544162421040254D254B80265C
:1039200028800022B70180218024FF25DA51490137
:103930002401AD00B4280AD087267700B84206D00B
:10394000802042275A5086001A515F5105E04226D6
:1039500080205A501A515E5186008027F8000227B5
:103960001E51BC4658505A501A515F5181271E5162
:1039700058505A501A515F5143271E5158505A50AF
:103980001A515F5167461E5158505A501A515F5193
:103990001E5158505A501A5181225A511E51802599
:1039A00058508021AE010C019C510348F0BDC04627
:1039B000761800100000025080008000044A802326
:1039C0009801002180231150190111507047C04601
:1039D00000000250F8B5264C8023071C00229801F5
:1039E0008025802622506D01360197421CD1FF228E
:1039F00093005021802280206751A751E15081001F
:103A0000D300A15114206351FCF7BEFEFF20802299
:103A100067518100A75193002D276750A35180263D
:103A2000F700675178201BE0FF23980000212C2726
:103A300061518022A151275080279100FF00A151A0
:103A400078206751FCF7A0FE0023FF22635151202C
:103A5000A3519100802360509800A0516751142019
:103A6000FCF792FE8025802128018A01A050F8BD34
:103A700000000250F0B593B03D494522684600F081
:103A8000CDF93C4C8023180221583B4A3B4D114351
:103A900021506659802732436251FE0000251420D0
:103AA000A551FCF771FE80235800A0517820FCF747
:103AB0006BFE80218A01A5506F46785D3F26013557
:103AC000031CADB2B343802B1ED0C02B33D0402B90
:103AD00034D130402B1C29188AB29A4229D0802632
:103AE00080217201090100266F46FF5CA6506650D6
:103AF000FF26B600A7518027BE0066508021013303
:103B0000CF009BB2A750E6E730402B1C2A1896B294
:103B10009E420ED06F468022FE5C00211701FF22DC
:103B2000E1519100665080260133B2009BB2E25110
:103B3000ECE71D1C02E03040FCF726FE442DBBD90B
:103B40008020C1018023FF2680201F010022B500B4
:103B500083000139E2516251E351E2516251E35174
:103B60009142EFD180240349A2018F5013B0F0BDE0
:103B7000FA51000000000250FF0F0000FC3F00005F
:103B8000054B8022120100219950FF2189005850D5
:103B9000802081009950704700000250094B80221C
:103BA000802110B55201002409019C505C50FF2473
:103BB000A4001851802084005C508021C8009850D7
:103BC00010BDC0460000025080218023024A080137
:103BD000990150507047C046000002508023024AAD
:103BE000002198011150704700000250CA1751403F
:103BF0008B1A17D0C1174A4004B44840411A4808EC
:103C00001A0000E052008242FCD9002000E0520875
:103C1000914200D3891A40419A42F8D104BC5040E5
:103C2000801A7047002070470A000FD00300400838
:103C300000E052008242FCD9002000E0520893428A
:103C400000D39B1A40418A42F8D170470020704748
:103C50000A0010D00300400800E052008242FCD964
:103C6000002000E05208934200D39B1A40418A4250
:103C7000F8D11900704700207047C04603B4714660
:103C8000490840004900095A49008E4403BC704766
:103C900002B4714649084900095C49008E4402BCDF
:103CA0007047C04608B5031C0278002A06D0416858
:103CB0000878002805D00131596004E04068804749
:103CC00001E00123584208BD70B5041C806800283B
:103CD0000AD0236862685D1CAD1A6E1EB5416E4243
:103CE0003140934200D2C154E368002B06D02068D3
:103CF0006268904202D2081C211C98472168013159
:103D0000216070BDF8B5151C4C1E15D4C6B2012338
:103D10001F1C2740101C311CFFF7D6FF013C0CD2A2
:103D20000AE0281C311CFFF7CFFF013C281C311C86
:103D3000FFF7CAFF013CF4D2F8BD002FF1D0281CD8
:103D4000311CFFF7C1FF013CEBD2F5E710B5C3060C
:103D500006D42023840500D53023181CFFF7D2FF9A
:103D600010BDC046031C413B002019229A4240412D
:103D70007047C046031C613B002019229A42404113
:103D80007047C046031C303B002009229A42404144
:103D90007047C04638B5041C0D1CFFF7F3FF002820
:103DA00002D0201C303811E0201CFFF7E3FF002870
:103DB00002D0201C573809E0201CFFF7D3FF002851
:103DC00002D0201C373801E001204042A84201DB2C
:103DD0000121484238BDC046021C093A0123042A89
:103DE00003D9031C203B58424341181C7047C0466E
:103DF0000EB400B586B007AA08CA05920390002346
:103E000004930548029001A8079900F01BF806B03A
:103E100008BC03B01847C046FFFFFF7F8446002A56
:103E200005D00B78037001300131013AF9D16046B9
:103E30007047C046411C02780130002AFBD1401A6D
:103E40007047C046F0B55F4656464D464446F0B40E
:103E50008BB00C1C0592002303609946051C63E29D
:103E6000252906D0281CFFF72FFF341C5CE2261CF6
:103E70000BE010239A462020804680273A02944681
:103E8000802740212C1C4D46A3463078741C031C0F
:103E9000203BDAB2102A14D89300C64AD3589F4662
:103EA0000D43E4E73D43E2E766463543DFE743463B
:103EB0001D43DCE752461543D9E78026B000054391
:103EC000D5E75F46AB463D1C5A462A2805D0011C63
:103ED00030394B4609290DD917E0059C201D059066
:103EE0002368002B03DA5B4210210A439346707863
:103EF000B41C0AE09E00F3185F0030383B182078AD
:103F00000134021C303A092AF4D9DE43F7173B404A
:103F10000293CA462E2825D120782A2805D00134BC
:103F2000031C303B092B08D917E00598021D0592A8
:103F300001688A46607802340CE04F46BA00D11915
:103F40004E003038371820780134031C303B092BE1
:103F5000F4D9BA465646002E04DB80277B005A4629
:103F60001A43934668280ED12078682806D108277E
:103F70005846384383466078023404E0013404260E
:103F8000594631438B46782803D883008A4AD6584D
:103F9000B7468A4F3E68002E00D1C5E151460091D8
:103FA00005AA0192291C5A46029BB047BCE1281C75
:103FB0002521FFF789FEB7E10598031D05930678D3
:103FC00002998A4601277A429244584651462A1C51
:103FD000FFF7BCFE281C311CFFF776FED846404692
:103FE000C00600D4A0E1202051462A1CFFF78AFE1B
:103FF0009AE15846010706D50598021D0592036807
:104000002E681E7090E1059B1E1D059619682F688D
:104010000F6089E10598011D05910668002E00D109
:10402000674E684F5B463B409846301CFFF702FFE7
:10403000071C5A46D20502D5504500DD5746029866
:10404000C11B8A4640462A1CFFF780FE002FC6D0BF
:10405000B3467B1E01221A4002923178281CFFF7DA
:1040600033FE0136013F002F00D081E1B7E7A346C0
:10407000FFE73178281CFFF727FE7178281CFFF72F
:1040800023FE0236023F002FF3D15C46A7E7059ED0
:10409000371D0597376859460B06DE172322324035
:1040A000904680235E0031438B4608218A466FE0AC
:1040B00080239E0159460E43090609D4B346C846DB
:1040C00009E0C84659460A0605D53F4FB84602E002
:1040D000B3463E4FB8465A46D20520D5394B5E46C8
:1040E0001E40B3461BE05F463A06D31730261E40FB
:1040F000B046FB0513D5334F5A463A4093460EE07F
:10410000C8465B46DA050AD52E4A5E461640B346D7
:1041100005E08021CF015A463A439346C8465946A6
:104120004B0419D5059B1A1D05921F685E46710741
:1041300001D53FB203E0320701D5FF231F40002F16
:1041400003DA7F422D2290461BE05A46910613D493
:104150005E46720613D414E0059F3A1D05923F682F
:104160005B465B0702D53F043F0C0AE05E46310721
:1041700007D5FF210F4004E02B23984601E02021C2
:1041800088465E46F10506D50E495B460B409B46C8
:104190005A46D30501D40126B2465838C0B2202869
:1041A00065D882000A4B9E58B7464E460720002F1E
:1041B00033D15FE060520000A45200007818001074
:1041C0000C550000FFFDFFFF783000005830000064
:1041D000885400004E46002F28D14BE0002F48D0D5
:1041E0004E468022930159460B400F226848844670
:1041F0000394002B06D0101C38406446205C07A9AD
:10420000705405E0111C3940624C605C07A9705481
:1042100001363F09EDD1039C2CE0011C39403031BF
:1042200007AAB1540136FF08F7D123E08023190211
:104230005846084003900494041C002C07D0032225
:104240003240032A03D107AB2C2199550136381C83
:104250000A21FFF7FDFC303107A881550136381CD3
:104260000A21FFF7E1FC071EE7D1049C02E04E465D
:1042700000E04E465746BB1BDA43D7171F40029853
:10428000C11B8A1BFF23434580414142521A4346CA
:10429000591E8B41D01A8246584680218A0010420E
:1042A00004D151462A1CFFF751FDCA464346FF2B55
:1042B00003D9190A281CFFF707FD4046002803D040
:1042C000C1B2281CFFF700FD584651462A1CFFF7D3
:1042D0003DFD3020391C2A1CFFF714FD013E1BD484
:1042E00007AFBE196F461B37B91B01228A439046A0
:1042F0003178281CFFF7E8FC013EBE422DD10BE0CF
:104300003178281CFFF7E0FC013E3178281CFFF7CC
:10431000DBFC013EBE42F3D15846C10604D5202045
:1043200051462A1CFFF7EEFC2178661C002900D0BC
:1043300096E5281CAF68002F04D02A686C68A2425A
:1043400000D2B954006801E0012670420BB03CBCB9
:1043500090469946A246AB46F0BD4346002BCFD0CF
:104360003178281CFFF7B0FC013EBE42C8D1D3E72C
:104370000298002800D17AE659464978281CFFF7B0
:10438000A3FC0136013FA346002F00D071E626E6CC
:10439000505200004052000010B5041C0B78002B56
:1043A00005D0431C05D048680138486001E08968A1
:1043B0008847201C10BDC046F0B55F4656464D46A6
:1043C0004446F0B483B08146019193461F1C0123FB
:1043D0005842824600E0A246544601344846FFF760
:1043E00061FC051CFFF7F8FC0028F4D1691C00D122
:1043F0009DE0734E5A4616400C9900293FDD120687
:1044000012D52B2D04D02D2D0BD18024E5002E4369
:10441000544602344846FFF745FC051C0C98013809
:104420000C900C9B002B2ADD302D28D1802291008E
:1044300031438A460C9D013D0C95601C80464846E0
:10444000FFF730FC051C0C9B002B15DD782801D0F4
:10445000582811D1002F01D0102F6FD1594A164082
:10446000B2460C9E013E0C960234A0464846FFF729
:1044700019FC051C102761E0002F5ED05EE0002FC4
:1044800000D10A270C9900292CDD0B19009300227A
:104490009046802188008346E343009A99180120C2
:1044A00008408246281C391CFFF774FC002850DAAB
:1044B0001AE05D462E4343467B43C01880460134D4
:1044C000A2464846FFF7EEFB051C391CFFF762FCCD
:1044D000002864DA08E0281C391CFFF75BFC002880
:1044E000E7DA01E000208046281C4946FFF754FF28
:1044F000B2051FD5F30724D4019F3868021D3A6026
:1045000001689025EB00371C1F409F4202D14046B6
:1045100042429046F30602D543460B7011E0330742
:1045200002D545460D800CE046460E6009E00121AB
:104530004C4206E00224644203E008274446564603
:10454000A0E7201C03B03CBC90469946A246AB466F
:10455000F0BD5D462E4343467B43C218904601346E
:104560004846FFF79FFB051C00998C42BCD0504683
:104570000028B0D0281C391CFFF70CFC0028B3DB46
:104580005D462E4343467B43C2189046013448465D
:10459000FFF788FB051C00998C429CD1A4E75C4680
:1045A000264342467A438118884654460134484699
:1045B000FFF778FB051C009B9C4200D08BE793E73C
:1045C000FFF9FFFFFFFDFFFFF0B55F4656464D4682
:1045D0004446F0B48BB080460D1C09920020049034
:1045E00000210291CB4A934620239A4644460394E5
:1045F000A9464F4638784C460134002800D1CAE11C
:10460000252837D0051CFFF7E7FB002819D02078B4
:104610000134FFF7E1FB0028F9D1013CA146049DDC
:10462000039E00E00135301CFFF73CFB071CFFF741
:10463000D3FB0028F6D10495381C0399FFF7ACFE94
:10464000D7E70398FFF72EFBA84204D1049B013360
:104650000493A146CDE7061C03988146029C301CBA
:104660004946FFF799FE013600D094E1002C00D0B6
:1046700091E182E1797800252A2902D14C46023461
:10468000012500270BE05F4500DD84E1BA00D01969
:104690004100303E8F1900D57DE1564635432678DE
:1046A0000134301CFFF76EFB0028ECD1221C331CB8
:1046B000291C5046284200D1974F4C2B04D1167824
:1046C000541C44250D430CE0682B0AD11678682E43
:1046D00004D110250D435678941C02E0541C082583
:1046E0000D43321C253A532A00D954E193008B49DB
:1046F000C85887460398FFF7D5FA252804D1049FA8
:1047000001370497A14674E7061C03988446029C6F
:10471000301C6146FFF740FE751C00D03BE1002CC9
:1047200000D038E101214B42029334E153462B4241
:1047300000D101270121294088460025002903D105
:10474000099D2E1D09962D68002F00D123E128DD3B
:104750000498C2199146049FFB434B4401210E1C4F
:104760001E40013704970398FFF79CFA421C00D0C3
:1047700019E108E04646FFE7049F01370398FFF779
:1047800091FA431C07D10298002800D003E10123CD
:1047900059420291FFE0002E00D024E1287001353B
:1047A00021E1A1464446002C00D022E7029D0135BC
:1047B00002951EE780222A430097039809A90A233D
:1047C000FFF7FAFD0590BEE080222A430097039888
:1047D00009A90023FFF7F0FD0590B4E0A146EB071F
:1047E00000D506E70998021D09920368E80604D57A
:1047F0006C461020025D1A70FBE62A0705D56F464D
:104800001021CE5B1E80A146F3E6049D1D60A146EB
:10481000EFE680222A430097039809A90823FFF7AF
:10482000CBFD05908FE01E262A1CB243009703980B
:1048300009A91023FFF7C0FD059084E0012672420C
:104840000592A046A946161C039D0136281CFFF7B9
:1048500029FA041CFFF7C0FA0028F6D14D46059648
:10486000231C44469846321C01334ED00121294076
:104870000691089000D084E00998061D0996036807
:1048800008937EE0069C002C01D12E7001357C1C23
:10489000271C0398FFF706FA061C079884421ED0CF
:1048A000731C00D0CAE044460597B04608954D46B3
:1048B00020E0A946059F4646A046089D04E0A9467B
:1048C000059F4646A046089D301CFFF785FA002844
:1048D000D8D044460597B04608954D460AE0444670
:1048E0000597B04608954D4604E044460597B04606
:1048F00008954D4640460399FFF74EFD069A002A5B
:1049000021D10020089908701DE001235F4205971E
:1049100019E0C046CCCCCC0CFFFFFF7F1455000043
:1049200080222A430097039809A90A23FFF744FD30
:10493000059008E080222A430097039809A91023D4
:10494000FFF73AFD0590059E002E09DA029C059FAF
:10495000781C20D1002C1ED10122554202951AE06C
:1049600001273D406A426A41029DA81802900499BD
:10497000059BCE180496A1463BE601214A420292CD
:1049800009E0002FB6DDBF180797059AD143C81973
:10499000C1078ED539E002980BB03CBC90469946D1
:1049A000A246AB46F0BD4246002A01D1287001352F
:1049B0000498484500D1F4E6002E00D1DAE6071C41
:1049C000013704970398FFF76DF9411C00D1DAE62F
:1049D0004346002B01D128700135049946464945CC
:1049E00000D0C9E6DDE6013704970398FFF75AF9CE
:1049F000411C00D1C7E6002E01D128700135049A70
:104A00004A4500D0B8E6B046CBE64046FFF7E4F9A9
:104A1000002800D06EE7069E002E04D14346089F72
:104A20003B7001370897059A013205920398FFF70A
:104A300039F98046431C00D041E75BE7301CFFF7A3
:104A4000CBF9002800D050E7069B002B01D12E7037
:104A50000135671C0398FFF725F9061C411C00D09F
:104A600032E744460597804608954D4642E7C046E2
:104A700038B5041C0D1C00F013F8074B1D60802096
:104A8000044306490C600A1C1468002CFCD100F099
:104A900009F8014D286838BD7C18001080180010F6
:084AA0007047C0467047C04694
:104AA80076302E303500284A616E20203220323090
:104AB800313429007761747465726F74742E636F72
:104AC8006D0050253033692048253033692056253C
:104AD800303369004E415600454E4300707265738D
:104AE80073004E6F20636F6E66696720646174613E
:104AF8002E00000000000000000030787830300000
:104B080030006C6C6C00000000006C6CFE6CFE6C7D
:104B18006C00307CC0780CF8300000C6CC183066C9
:104B2800C600386C3876DCCC76006060C0000000C7
:104B380000001830606060301800603018181830B5
:104B4800600000663CFF3C660000003030FC3030FE
:104B580000000000000000703060000000FC000051
:104B680000000000000000303000060C183060C063
:104B7800800078CCDCFCECCC780030F03030303081
:104B8800FC0078CC0C3860CCFC0078CC0C380CCC11
:104B980078001C3C6CCCFE0C0C00FCC0F80C0CCC57
:104BA80078003860C0F8CCCC7800FCCC0C183060A9
:104BB800600078CCCC78CCCC780078CCCC7C0C1845
:104BC80070000000303000303000000030300070DD
:104BD8003060183060C0603018000000FC00FC0035
:104BE80000006030180C1830600078CC0C183000C9
:104BF80030007CC6DEDEDEC078003078CCCCFCCC61
:104C0800CC00FC66667C6666FC003C66C0C0C0667C
:104C18003C00FC6C6666666CFC00FE626878686244
:104C2800FE00FE6268786860F0003C66C0C0CE6630
:104C38003E00CCCCCCFCCCCCCC0078303030303002
:104C480078001E0C0C0CCCCC7800E6666C786C6690
:104C5800E600F06060606266FE00C6EEFED6C6C67C
:104C6800C600C6E6F6DECEC6C600386CC6C6C66C3A
:104C78003800FC66667C6060F00078CCCCCCDC78D0
:104C88001C00FC66667C786CE60078CCE0381CCCAE
:104C98007800FCB4303030307800CCCCCCCCCCCCE4
:104CA800FC00CCCCCCCCCC783000C6C6C6D6FEEE48
:104CB800C600C6C66C386CC6C600CCCCCC783030C2
:104CC8007800FECC983062C6FE0078606060606054
:104CD8007800C06030180C060200781818181818E8
:104CE800780010386CC600000000000000000000CA
:104CF80000FF30301800000000000000780C7CCC69
:104D08007600E0607C666666BC00000078CCC0CCAB
:104D180078001C0C0C7CCCCC7600000078CCFCC055
:104D28007800386C60F06060F000000076CCCC7CD5
:104D38000CF8E0606C766666E60030007030303063
:104D48007800180078181818D870E060666C786CCD
:104D5800E60070303030303078000000ECFED6C607
:104D6800C6000000F8CCCCCCCC00000078CCCCCC71
:104D780078000000DC66667C60F0000076CCCC7CB5
:104D88000C1E0000D86C6C60F00000007CC0780C31
:104D9800F80010307C30303418000000CCCCCCCC7B
:104DA80076000000CCCCCC7830000000C6C6D6FE19
:104DB8006C000000C66C386CC6000000CCCCCC7C03
:104DC8000CF80000FC983064FC001C3030E03030F7
:104DD8001C001818180018181800E030301C303063
:104DE800E00076DC00000000000010386CC6C6C683
:104DF800FE0078CCC0C0CC78306000CC00CCCCCCE5
:104E08007E00183078CCFCC078007EC33C063E6635
:104E18003F00CC00780C7CCC7E006030780C7CCCD9
:104E28007E003C663C063E663F000078CCC0CC78ED
:104E380030607EC33C667E603C00CC0078CCFCC011
:104E48007800603078CCFCC07800CC00703030300E
:104E580078007CC6381818183C0060307030303044
:104E68007800CC3078CCCCFCCC0030483078CCFC06
:104E7800CC001830FC607860FC0000007F0C7FCC10
:104E88007F003E6CCCFECCCCCE0078CC0078CCCC6D
:104E9800780000CC0078CCCC780060300078CCCC9E
:104EA800780078CC00CCCCCC7E00603000CCCCCC68
:104EB8007E0000CC00CCCCFC0CF8C6007CC6C6C674
:104EC8007C00CC00CCCCCCCC780000007CCED6E6E4
:104ED8007C00386C64F060E6FC003A6CCED6E66C78
:104EE800B8000000CC783078CC000E1B187E18185B
:104EF800D8701830780C7CCC7E0018307030303088
:104F080078000C180078CCCC78000C1800CCCCCCED
:104F18007E0076DC00F8CCCCCC0076DC00ECFCDC47
:104F2800CC003C6C6C3E007E00003C66663C007E1B
:104F3800000030003060C0CC78003C5AA5B9A966A2
:104F48003C00000000FC0C0C0000E66C787E63CE90
:104F5800981FE66C787367CD9F0300180018183CFB
:104F68003C18003366CC6633000000CC663366CC50
:104F78000000228822882288228855AA55AA55AA84
:104F880055AADD77DD77DD77DD771818181818183A
:104F9800181818181818F81818180C183078CCFCA5
:104FA800CC0078843078CCFCCC00C0603078CCFC65
:104FB800CC003C42B9A1B9423C003636F606F6367A
:104FC800363636363636363636360000FE06F6368D
:104FD80036363636F606FE00000018187EC0C07E4B
:104FE8001818CCCC78FC30FC303000000000F818E1
:104FF8001818181818181F00000018181818FF009B
:10500800000000000000FF181818181818181F18BA
:10501800181800000000FF00000018181818FF18E2
:10502800181876DC780C7CCC7E0076DC3078CCFCEA
:10503800CC00363637303F00000000003F303736AE
:1050480036363636F700FF0000000000FF00F7365E
:10505800363636363730373636360000FF00FF0032
:1050680000003636F700F73636360082FE6C6CFEE6
:105078008200D870D80C3C6C3800FC6C66F6666C04
:10508800FC007884FC607860FC00CC00FC607860F0
:10509800FC006030FC607860FC0000C040E000006C
:1050A800000018307830303078007884783030302C
:1050B8007800CC0078303030780018181818F800CC
:1050C8000000000000001F181818FFFFFFFFFFFF77
:1050D800FFFF00000000FFFFFFFF18181800181856
:1050E80018006030783030307800FFFFFFFF000094
:1050F800000018307CC6C6C67C000078CCF8CCF816
:10510800C0C07C827CC6C6C67C0030187CC6C6C6B9
:105118007C0076DC0078CCCC780076DC7CC6C6C611
:105128007C0000666666667C60C000E0786C78602B
:10513800F000F0607C667C60F0001830CCCCCCCC01
:105148007800788400CCCCCC78006030CCCCCCCC47
:105158007800183000CCCCFC0CF81830CCCC783067
:10516800780000FC0000000000001830000000007B
:10517800000000000000FC0000003030FC3030006F
:10518800FC00000000FC00FC0000E62C7833E7CDB2
:105198009F037FDBDB7B1B1B1B007EC378CCCC789B
:1051A8008CF8303000FC00303000000000000000B7
:1051B8003060386C6C380000000000CC0000000043
:1051C80000000000000018000000387818187E0061
:1051D80000000030383C3C38300000666666666681
:1051E8006600007E7E7E7E7E7E000000000000005D
:1051F80000004150D4412CD4420201D4422601D4AB
:10520800422609D442260BD442260FD4421001422A
:105218002002422402422801422AD042300042326F
:105228000E42340D42360041614240004342028141
:10523800434302814151D40030313233343536375B
:1052480038396162636465663031323334353637F4
:105258003839414243444546A03E0000C23E000062
:10526800C23E0000A43E0000C23E0000C23E000054
:10527800C23E0000A83E0000C23E0000C23E000040
:10528800C23E0000AE3E0000C23E0000B43E000038
:10529800C23E0000C23E0000BA3E00004843000083
:1052A800923F0000923F0000923F0000923F0000B2
:1052B800923F0000923F0000923F0000923F0000A2
:1052C800923F0000923F0000923F0000923F000092
:1052D800923F0000923F0000923F0000923F000082
:1052E800923F0000923F0000923F0000923F000072
:1052F800923F0000923F0000923F0000923F000062
:10530800923F0000923F0000923F0000923F000051
:10531800923F0000923F0000923F0000923F000041
:10532800923F0000923F0000923F0000923F000031
:10533800AE3F0000923F0000923F0000923F000005
:10534800923F0000923F0000923F0000923F000011
:10535800923F0000923F0000923F0000923F000001
:10536800923F0000923F0000923F0000923F0000F1
:10537800923F0000923F0000923F0000923F0000E1
:10538800923F0000923F0000923F0000923F0000D1
:10539800923F0000923F0000923F0000923F0000C1
:1053A800923F0000923F0000923F0000923F0000B1
:1053B800923F0000923F0000923F0000923F0000A1
:1053C800923F0000923F0000923F0000923F000091
:1053D800923F0000923F0000923F0000923F000081
:1053E800923F0000923F0000923F0000923F000071
:1053F800923F0000923F0000923F0000B040000042
:10540800923F0000923F0000923F0000923F000050
:10541800923F0000923F0000923F0000923F000040
:10542800923F0000923F0000B83F00001241000088
:10543800923F0000923F0000923F0000923F000020
:1054480012410000923F0000923F0000923F00008E
:10545800923F0000F23F0000E64000008E4000004E
:10546800923F0000923F000014400000923F00006D
:1054780000410000923F0000923F0000C24000003F
:10548800DC4100006E4200006E4200006E420000E7
:105498006E4200006E4200006E4200006E42000044
:1054A8006E4200006E4200006E4200006E42000034
:1054B800D44100006E4200006E4200006E420000BF
:1054C8006E420000D44100006E4200006E420000AF
:1054D8006E4200006E4200006E420000AA410000C9
:1054E800DC4100006E4200006E4200006E42000087
:1054F8006E420000D44100006E4200006E4200007F
:10550800DC410000286E756C6C290000F446000030
:105518009649000096490000964900009649000007
:1055280096490000964900009649000096490000F7
:1055380096490000964900009649000096490000E7
:1055480096490000964900009649000096490000D7
:1055580096490000964900009649000096490000C7
:1055680096490000964900009649000096490000B7
:1055780096490000964900009649000096490000A7
:105588009649000096490000964900009649000097
:105598009649000096490000964900009649000087
:1055A8009649000096490000964900009649000077
:1055B8009649000096490000964900009649000067
:1055C8009649000096490000964900009649000057
:1055D80096490000964900003449000096490000A9
:1055E8009649000096490000964900009649000037
:1055F8009649000096490000964900009649000027
:10560800964900002C470000B44700009649000066
:10561800964900009649000096490000C8470000D6
:1056280096490000964900009649000096490000F6
:10563800DC47000012480000264800009649000098
:10564800964900003C4800009649000020490000A7
:0C5658009649000096490000344900000B
:10566400807F0000001BB70080250000491F000058
:1056740020000000C51D00009D1F0000791D0000D2
:0C568400E91C0000DD1E0000A11D00005C
:04000003000001ED0B
:00000001FF
