:10000000E01F0010ED010000F5010000F701000005
:10001000F9010000FB010000FD01000056D4FFEFD4
:10002000000000000000000000000000FF010000D0
:10003000010200000000000003020000D9030000DC
:10004000070200000702000007020000070200008C
:10005000070200000702000007020000070200007C
:10006000070200000702000007020000070200006C
:1000700007020000090200000B0200002521000019
:100080000F02000011020000130200001502000020
:10009000E1220000E9230000000000000000000051
:1000A0001B0200001D0200001F02000000000000F3
:1000B0002102000023020000250200001524000098
:1000C0002F49072291438D462E492F480A1A06D000
:1000D0000722914381F30988022282F314882B4876
:1000E0002B492C4A00F039F82B482C492C4A00F0B7
:1000F00034F82C482C492D4A00F02FF82C482D4973
:100100002D4A00F02AF82D482D492E4A00F025F8F6
:100110002D482E492E4A00F020F82E482E49002264
:1001200000F026F82D482E49091A082903DB002281
:100130000260043001601F481F49884205D00268F0
:10014000043003B4904703BCF7E700208646EC4632
:1001500000200021234A9047FEE7884207D0521A28
:1001600005D0037801300B700131013AF9D17047A5
:10017000884202D002700130FAE770471A4870478F
:10018000E01F0010E01F0010E01F00107C5700006F
:10019000000000102C0000103002000030020000AF
:1001A000C04B00007C570000000000100000001051
:1001B000C04B0000C04B0000C04B0000C04B000013
:1001C000C04B0000C04B0000C04B0000C04B000003
:1001D0007C5700002C0000108818001088180010B0
:1001E000881900107D110000FFFFFFFF0E480F4926
:1001F000016065E7FEE7FEE7FEE7FEE7FEE7FEE7F4
:10020000FEE7FEE7FEE7FEE7FEE7FEE7FEE7FEE7C6
:10021000FEE7FEE7FEE7FEE7FEE7FEE7FEE7FEE7B6
:10022000FEE7FEE7FEE7FEE7008004400200000074
:10023000094B421E01209A420DD8084B5A60084AC9
:10024000106A0102080AC021090601431162002058
:10025000072298601A607047FFFFFF0010E000E07F
:1002600000ED00E0F8B54F4B4F4C984217D006D840
:100270004E4988420CD04E4A904206D10BE04D4D7B
:10028000A8420FD04C4EB0420FD02060002704E0AF
:10029000206000270BE020604127002208E020605A
:1002A000412704E020604227F7E72060222701224F
:1002B00072B6424B8E2081005D58002A05D0202066
:1002C00085435D500021196202E00326B5435D506D
:1002D000C826C046013E002EFBD101251A645D648C
:1002E0005E645D64596C012634483142FAD0002FB7
:1002F00015D087608E27B90045588026B5434550F4
:10030000D96801202D4F0142FAD0032500263D6710
:1003100078677E6778675F6FF807FCD50DE0026746
:100320004667476746675D6F244FED07FBD58E2014
:1003300081007D58802635437D508E218D00002A16
:1003400002D05A59032001E05A59202002435A5141
:1003500025681B4E1B4BB54201D9022105E01A4FFF
:10036000BD4201D9012100E000210022D960281CF2
:100370001A61164903F0EEFC154E164B376801382A
:100380001F4000020743281CFA25A900376003F02C
:10039000E1FCFFF74DFFFF2002F0EEF962B62068A6
:1003A000F8BDC0460048E801040000100024F40035
:1003B00000366E0100512502006CDC020080044012
:1003C000FF59620200000140FF2C310100093D008D
:1003D00000C00140FF00FFFF574B30B51A68574976
:1003E00001321A600878400738D5554C2578013518
:1003F000EBB22370052B31D10023524A2370D2690E
:10040000950700D503230120024200D043404E4C03
:100410002578E81AC0B2C50708D523704B4B0225D2
:100420001C782840013C2018C4B21C70484B50076F
:1004300012D41D780135E8B21870C72805D9454C8B
:10044000022223781343237001E0132806D9414B7D
:1004500001251A782A4300E000221A70097809075A
:1004600068D53D4804780134E3B20370192B61D19B
:1004700000220270334D3948E96F036810240B40A5
:100480000160191C2140364A0AD1364805782C43B0
:1004900004703548147805782D19ECB2047010E01A
:1004A0000121181C08400CD12E4920250C782C4322
:1004B0000C702D4914780D7810702D1BECB20C7057
:1004C00000E0117008211940284A09D1254840252B
:1004D00004782C4304702648147805782D190BE015
:1004E000022119400BD11F48802405782C43047049
:1004F0001F48147805782D1BEDB2057000E001212E
:1005000011701C4A5D0713D411780131C8B2107004
:10051000272805D9134C022225781543257001E0C0
:10052000032807D90F4B012118780843187001E000
:100530000023137030BDC04630100010351000107D
:10054000421000100000015038100010411000103F
:100550003610001037100010451000103C1000102D
:100560002C100010401000103A1000104410001021
:10057000341000103910001072B6054B03211A78A0
:10058000101C0A401A7062B643B298107047C046F9
:10059000411000100D4A0E4991230E48CB67D367D6
:1005A00093678268002A02D00B4903230B704068CE
:1005B000002804D0084B01211A784A401A70074BD2
:1005C000074A0020187010707047C0460040044071
:1005D0000440044000000150381000104110001089
:1005E000371000100A4B9122191D9020CA679A6794
:1005F0009031DA671B1808601A60064A00211170F2
:100600000548064B064A0170116019707047C046D4
:1006100000400440401000103A1000103410001048
:100620003C10001010B505283CD010D804287DD10E
:100630003F4A404C0223136021681020014321608F
:1006400023688021480418432060111C1DE00728FE
:1006500040D0FF286AD1364C374A8121216080235F
:10066000082111628B40D05801240143D1503349F5
:10067000304B0C6018682024204318601C688020D0
:100680004004204318600C1C40E0236A294A002BD8
:10069000FBDA14682A4820401060126A1304980D8F
:1006A000912231E0254C234B012121601A68202042
:1006B00002431A601A688021480410431860211C04
:1006C0005A6A1C4C002AFBDA20681D4B0340236049
:1006D000626A16E01B4A174B012111601C688020DA
:1006E00004431C601C688021480420431860111CCE
:1006F000DC6A104A002CFBDA1068114B03401360CF
:10070000D26A1404A00D90220A6010E0586A0949C8
:100710000028FBDA08680A4B03400B60496A802313
:10072000236008040024800D146200E0002010BD46
:100730009040044000C0014000000150944004403B
:1007400000FFFFF898400440094B1A78824309489B
:100750001A7001788A0609D5074BA0201A78C105BE
:10076000002A01D1082300E000230B627047C04635
:10077000461000103510001043100010014B18688F
:100780007047C04630100010034B19681A68521A9F
:100790008242FBD37047C0463010001038B5041CAD
:1007A0000B4D04D101235842A8616C600DE0C3B227
:1007B000642B00D96424E4B2012021046860081B82
:1007C000642103F0A9FAC243AA61201C38BDC046C7
:1007D0000000014008B5002802D1034B186801E071
:1007E000FFF740FD08BDC0460400001070B572B6AA
:1007F000294B12211A1CFC328E20516584001D5990
:10080000102001228543254E1D519A670433DE676F
:100810008021A023DC050B02E558214904262E4047
:100820000D1CA435E650C86128604866E6580825C6
:100830003540E550C8621B488025C458AD001443BC
:10084000C450002444601848C6583543C55080231E
:100850001E0184511548212355428A638460C46077
:1008600004610467446185614267C3634260104A62
:1008700010491668301C03F06DFA0F4D0F4901380E
:10088000000208602C60FA24A100301C03F062FA18
:10089000FFF7CEFC62B670BD008004405F2101000E
:1008A00000400440000003500000015000000140DF
:1008B0000400001000093D003010001000C001408D
:1008C000F0B591B016AC257819AC01950591258845
:1008D000694603ACA07117AE087918AF36783F8827
:1008E0002371074B227360710D21201C054A25825C
:1008F000E7816673039301F055FA11B0F0BDC0466D
:10090000EFBEADDE2C000010F0B5674C93B023783D
:100910000E1C272169440B700890FFF73BFE042052
:10092000F822207015020020FC27011C00952A22C5
:100930007F23FC0002F080FA00942A200021542238
:100940007F2302F079FA7F221F2300935420131C87
:100950000021002402F070FA80210802534A3B2152
:10096000231C00940194029402F024F88020452175
:100970004F4A231C009401940294000202F01AF8DA
:10098000802210020094019402947621494A0123A6
:10099000012502F00FF8079406940595FFF7ECFD8A
:1009A000069F0025C3194448079F027805704348F5
:1009B000D9B2BB1802780691A418D9B2E4B2057076
:1009C00007916F4618231C2160B2DA57CB5700906D
:1009D0003B490AA803F098FA089A052001272B1C26
:1009E0000092011C0AAA0196029701F0E3FF354B21
:1009F000354A18781D70117815700843334D3DD075
:100A000002236F6003402DD0274F0AA83B78042BA8
:100A100006D12F4903F078FAFFF7E4FD082205E03C
:100A20002C4903F071FAFFF7B5FD04220899012063
:100A30003A700023009102900196052019210AAA1C
:100A4000FA2701F0B7FF7800FFF79EFE1D4B00214B
:100A50001A7819708A42F9D11B4807780270002F62
:100A6000F4D10CE038420AD0089801960090029721
:100A70000F21194A052001F09DFF00E0686001F098
:100A8000FDFD002802D001F0B9FD0590059B002B6B
:100A900084D16B60301C02F01FFE27246C44024E90
:100AA0002578357013B0F0BD35100010C04B000034
:100AB000C64B0000D44B00003A1000103410001058
:100AC000E24B0000371000104010001000000350EF
:100AD000F44B0000F84B0000FC4B0000F0B58BB06D
:100AE0000990081C0F1C069202F0F6FD069B694651
:100AF000D80007901C310A8802240592261C01F0B8
:100B0000BDFD002831D001F079FD051E0A2D05D06C
:100B10000D2803D0092808D1202506E0002E10D08A
:100B2000059EA419A4B202260BE0099B01200093A4
:100B300002900197301C211C2A1C069B01F074FEB8
:100B4000061C02F02BFE864203D30599022662188A
:100B500094B2079BE018089002F026FE08998142A3
:100B600003DB381C02F0B8FD0224002DC7D1381C6D
:100B700002F0B2FD0BB0F0BDF0B585B0009102906F
:100B800001F03CFD019001F039FD051C01F036FD3E
:100B9000061C01F033FD041C01F030FD7F23021C14
:100BA0009A43D1B2071C1F40039103F0ADF801989E
:100BB00029198319013B01399AB201988BB2291C7A
:100BC00002F020FE022F07D0042F09D0012F10D1F0
:100BD000B84D002100950BE000250095B54907E0D0
:100BE0000098029A009B504043405840009381B2C5
:100BF0000291B148039B02680192002B00D0BFE034
:100C0000251C75430B2F06D8082F44D27E1E032EB9
:100C100000D985E016E0182F00D081E0A4E001F0B3
:100C20002DFD002816D001F0E9FC2E1C071C083E03
:100C30008024274209D00298013D02F0CFFD6408CC
:100C4000B54204D1002DEAD10CE00098F4E7002D64
:100C5000EFD107E0984F019A3C68FA23A01AD90017
:100C60008842EFD903F046F805B0F0BD0A2F3AD11B
:100C7000C02438230440034009217C434B436201D4
:100C80009E000724204032438300101C184380B28A
:100C900002F0A4FD013D002DE4D001F0EFFC00289E
:100CA0002BD001F0ABFC082F0CD10722E026182333
:100CB000064002401521184041433402920022436D
:100CC0008E000EE0092FD1D1032202400A21E02636
:100CD0001C2306404A431840391C41433402224336
:100CE000CE00101C07E0F823FC2203401040C00097
:100CF00019020843DE103043CAE76F4A019B1068AF
:100D0000FA26C11AF400A142C5D9ABE701F0B6FC3E
:100D1000002808D06949013D0F68B84702F05EFD20
:100D2000002DF3D19EE7644F019A3868FA24861AA1
:100D3000E3009E42F4D995E701F0A0FC002816D00C
:100D400001F05CFC071C01F059FCF826FC22104065
:100D500037403B02C4001C4301F050FCC108C8B23C
:100D6000204302F03BFD013D002DE5D17AE75248DA
:100D7000019E0268FA23941BD9008C42F4D971E7D2
:100D80000399802900D06DE7251C75430B2F07D8E8
:100D9000082F7CD2013F032F00D918E12F1C13E04C
:100DA000182F00D013E152E1002F09D003992942F6
:100DB00022D00298013F02F011FD6D08B742F3D135
:100DC000013CE4B2002C19D1002F00D14AE701F018
:100DD00055FC002826D001F011FC051EAA2D10D1CB
:100DE00001F00CFC041E00D13CE701F007FC03906D
:100DF0003E1C083E8025D9E70098DBE7002FF7D19D
:100E000030E73E1C083E8024254201D0029800E0D5
:100E10000098013F02F0E2FC6408B742D4D0002FF2
:100E2000F2D11FE7244E019D3468FA22601BD300E3
:100E30009842C9D916E701F021FC002800D19EE0B4
:100E400001F0DCFBAA285AD101F0D8FB0090002861
:100E500000D107E701F0D2FB082F1BD10726E021C4
:100E6000182406400140152320405843B6000A02CA
:100E70001643800006432C1C301C02F0AFFC013CE2
:100E80000099601B0A18D3B2002B35D1251C002D08
:100E9000D1D1E7E6092F13D10326E0221C23064017
:100EA00002400A2118404E43784314022643C000F2
:100EB000E0E7C046FFFF00003010001018000010EF
:100EC0000A2F0FD1C023034038267B430640092256
:100ED000564359010723B4001840214380000143C1
:100EE0008EB2C8E7F821FC2201401040C60008027B
:100EF0000643CC102643BEE7002CBDD1C6E7082F21
:100F00000CD10722E0211823014002401526184089
:100F100046430C0292002243B1000EE0092F0ED18D
:100F2000032202400A26E0211C230140724318409C
:100F30003E1C46430C022243F100101C1AE00A2F0B
:100F400010D1C02438230440034009267C43734356
:100F500062019900072420400A438300101C1843B3
:100F600080B208E0F823FC2203401040C0001E02BB
:100F70003043D910084302F031FC6C1E86E7454827
:100F8000019B0268FA21D61ACC00A64200D969E674
:100F90002C1C7BE701F072FB002822D03E4F3F4E15
:100FA0003B689847B04218D101F028FB061E00D1DB
:100FB00058E6386880472C1C071C381C013C02F09E
:100FC0000DFC611B7218D3B2002B03D1251C002D20
:100FD000E0D147E6002CF0D1F8E702F0FFFB6C1EF1
:100FE000F4E72C4F019C3E68FA21301BCA00904266
:100FF00000D937E62C1CE9E701F040FB00283ED081
:1010000001F0FCFA061EAA2E27D101F0F7FA061EFF
:1010100000D127E601F0F2FA041C01F0EFFAFC22FD
:10102000031CF820134004402102DF000F4301F0AD
:10103000E5FAC408E2B217432C1C381C013C02F04C
:10104000CDFB631BF018C1B2002903D1251C002D74
:10105000D2D107E6002CF0D1F8E701F0CFFAF8275B
:10106000FC2318403E40C0003402044301F0C6FA9D
:10107000C108C8B2204302F0B1FB6C1EE6E7054C84
:1010800001982668FA21371ACA00974200D9E9E583
:101090002C1CDBE73010001018000010AAAA00007A
:1010A000F0B58BB00891171C079001F0A7FA041C4B
:1010B00001F0A4FA099001F0A1FA7F25C343D9B247
:1010C0000540CA09681E05920F2800D9012500268F
:1010D000B74202D101F092FA061C274B196806911B
:1010E000002F3AD1002E44D001F0C8FA002816D0C3
:1010F00001F084FA071C02F051FB84420CD20799DC
:10110000089A05980091019202900999201C3A1CB6
:101110002B1C01F089FB041C013EF6B2E2E7164BE2
:10112000069F1968FA20CA1BC3009A42DAD920E048
:1011300001F064FA061E1CD002F030FB84420CD28F
:10114000089A0598079F019202900097201C099920
:10115000321C2B1C01F068FB041C01F08FFA0028E4
:10116000E6D1054E069A3768FA23B81AD9008842A4
:10117000F3D90BB0F0BDC04630100010F0B58BB005
:10118000FFF734FBC54CC64B2168181C8D791968D4
:10119000A022D6053769002F2FD002F00BFB206864
:1011A000C04E0168B14238D0BF4FC048FFF712FBB4
:1011B000381C02F091FA00250A20011CBC4A0123C8
:1011C00000950195029501F0F5FB3220FFF7E6FA54
:1011D000FA239800FFF7D8FA96229101009501951D
:1011E00002950220202230230397FFF769FB281C79
:1011F000391CFFF789FB02250FE003685A1A632A9E
:10120000CBD880252B01F6580425002EC0D0A94A42
:1012100055686B1E9D410135BAE72068A6490079E3
:101220004843FFF7D7FAA54E37787B0701D5FFF77C
:10123000B1F93378190701D5FFF7D4F92068C289CD
:101240000792018A081C069102F046FA276878790D
:10125000FFF7A4FA2668B06801F026F92368187B26
:1012600001F030F82468607B01F022FA281C002588
:1012700001F082FA08958A48036801F0BFF937281F
:1012800000D151E300D9ABE0252800D155E245D883
:10129000112800D12FE21ED8042800D18FE10DD8EB
:1012A000022800D170E100D97DE1012801D000F0D1
:1012B00022FD834801F094F900F01DFD062800D1BD
:1012C000D6E100D27FE1072800D101E2102801D049
:1012D00000F011FD03E2202800D119E20DD81328F7
:1012E00000D110E200D209E2142801D000F003FD81
:1012F00001F084F902F0DAFCBDE7222800D112E205
:1013000000D20AE2232800D112E2242801D000F002
:10131000F2FC6C48016888470790ACE72E2800D1A2
:1013200037E226D8292800D115E20DD8272800D188
:1013300008E200D90BE2079801220699FFF7CEFBDD
:10134000614C262022682CE12B2800D109E200D232
:1013500003E22C2800D111E22D2801D000F0CBFCB3
:1013600001F04CF9071C01F049F9069A011C381CE0
:101370000CE2322800D158E213D8302800D11DE207
:1013800000D92FE201F03AF9071C01F037F9061CE9
:1013900001F034F9041C01F031F9031C07980090A6
:1013A0001AE2342800D17EE200D25DE2352800D175
:1013B00090E2362801D000F09EFC01F01FF9051CD8
:1013C00001F01CF9041C01F019F9071C01F016F9D1
:1013D000EB192018013B01389AB2069983B28BE2CF
:1013E000492800D1D5E300D98BE0402800D157E34C
:1013F0003ED83B2800D1E4E217D8392800D1AAE230
:1014000000D9C0E201F0FAF8051C01F0F7F8041C5D
:1014100001F0F4F8071C01F0F1F8EE192118013978
:10142000013E8BB2B2B20799A7E23D2800D1FCE29F
:1014300000D2DDE23E2800D115E33F2801D000F0C4
:101440005AFC01F0DBF8051C01F0D8F8041C01F08F
:10145000D5F8071C01F0D2F8061C01F0CFF8EB1903
:10146000A119013B01399AB200908BB2069810E3A2
:10147000442800D146E329D8422800D121E300D9ED
:101480002FE301F0BBF8051C01F0B8F8041C01F0D3
:10149000B5F8211C021C079B281C1EE3000000104D
:1014A00030100010EFBEADDEFFFF0000006CDC026C
:1014B000024C0000FC00015040420F0035100010AB
:1014C000C14B00001800001020000010462800D179
:1014D00035E300D223E3472800D145E3482801D073
:1014E00000F009FC01F08AF8061C01F087F8051CE1
:1014F00001F084F8071C01F081F8069A031C0092A1
:1015000040E3902800D1A6E325D84D2800D173E30D
:1015100013D84B2800D151E300D964E301F06EF8F1
:10152000061C01F06BF8071C01F068F8041C01F0C0
:1015300065F8031C079800904EE34F2800D162E342
:1015400000D25CE3502800D166E3512800D0D2E3FA
:101550000698079962E3A02800D18AE308D8922868
:1015600000D163E300D25EE3932800D0C3E36EE3CF
:10157000A22800D191E300D288E3A32800D1A2E3FE
:10158000FA2800D0B7E38AE0089B002B02D1322072
:10159000FFF704F907980699FFF7B6F9D94C02202E
:1015A00022689047A7E3D84AD64917780E68381CB6
:1015B000B04701F037F8381CFFF7C6F85BE6D14BAF
:1015C0000D201A68EDE701F019F80138062800D956
:1015D00051E602F0E9FB0423282E33383F0001F0E6
:1015E000C5F8071C01F0BCF8061C01F0B3F8C74BA6
:1015F000051CC749186802F0ADFBC4B201F0A4F89D
:10160000089A069901900798009202900391381C5D
:10161000311C2A1C231CFFF753F92CE600F0EEFFC7
:1016200001F0AAF827E6BB480168884700F03CFFB4
:1016300021E600F0E3FF00F045FE1CE600F0DEFFCF
:1016400001F036F817E600F0D9FFB14F7843FFF705
:10165000C1F810E600F0D2FF071C420701D5FEF7E3
:1016600099FF3B0701D5FEF7BDFFAB4E377002E691
:1016700000F0C4FF0138052800D9FCE5A025EB05E2
:1016800002F092FB030A1E13101B802635025C59E0
:10169000082222405A51EEE5186A431E9841994BA0
:1016A0001A687EE79D4A00241470802001025F586A
:1016B000082217435F501A62DDE59849012008703F
:1016C00080273E029D59082425439D510022F2E7C0
:1016D00000F094FF924A1568FEF7A4FF21E000F0A5
:1016E0008DFFFF2803D1874D08982A6859E7FFF737
:1016F00055F80890BFE502F05DF8BCE500F07EFF0C
:1017000002F0FEF9B7E500F079FF02F0DDFAB2E58C
:1017100000F074FF02F016F8ADE5814F3D6802F06D
:101720003DF8A847E7E27E4E356802F03DF8F8E75D
:1017300000F064FF02F0D8F99DE57A4B1868804705
:10174000069098E507980699FFF716FA93E5754B0A
:101750001868804702E0079800E0069801F0BCFF97
:1017600089E500F04BFF051C00F048FF6D49041CA3
:101770000A689047211C021C281C07E000F03EFF6D
:10178000061C00F03BFF079A011C301C01F086FF8D
:1017900071E500F033FF071C00F030FF061C00F07D
:1017A0002DFF051C00F02AFF5E49041C0A689047C3
:1017B000311C00902A1C381C231C10E000F01EFF76
:1017C000071C00F01BFF061C00F018FF041C00F0B3
:1017D00015FF069A031C0092381C311C221C01F0D4
:1017E000A7FE48E54F4B1F68B847099000F006FF79
:1017F000061C00F003FF041C00F000FF051C002E77
:1018000000D138E500F0FAFE059000F0F7FE0999E6
:10181000071C0091201C291C059A3B1C013E01F06D
:1018200087FEB6B2059C3D1CE9E700F0E7FE041C0C
:1018300000F0E4FE051C00F0E1FE061C002C00D1C7
:1018400019E500F0DBFE071C00F0D8FE05900798B4
:10185000311C00903A1C281C059B013C01F068FEDD
:10186000A4B23D1C059EE9E700F0C8FE041C00F090
:10187000C5FE051C00F0C2FE061C002C00D1FAE4D7
:1018800000F0BCFE071C00F0B9FE069B059000931B
:10189000281C311C3A1C059B013C01F049FEA4B2F6
:1018A0003D1C059EE9E700F0A9FE051C00F0A6FE20
:1018B000041C00F0A3FE071C00F0A0FE061C194843
:1018C00001688847EA19A319013A013B92B29BB219
:1018D000009012E000F092FE051C00F08FFE041C48
:1018E00000F08CFE061C00F089FEAA192718013AA8
:1018F000013F079992B2BBB20091281C211C01F054
:10190000F3FDB8E4200000104610001004000010A1
:1019100040420F002400001035100010431000104A
:10192000140000101800001000F068FE051C00F004
:1019300065FE041C00F062FE071C00F05FFEF04B29
:10194000061C19688847EA19A719013A013F92B2A3
:10195000BBB2009012E000F051FE051C00F04EFEFC
:10196000041C00F04BFE071C00F048FEEA1920188A
:10197000013A0138069992B283B20091281C211CC9
:1019800001F05AFA77E400F039FE041C00F036FE4C
:10199000071C00F033FE051C00F030FE061C00F0B2
:1019A0002DFED74A0590136898476119BD19059E09
:1019B0000139013D8AB20190ABB20096201C391C5E
:1019C0002FE000F01BFE051C00F018FE041C00F0C8
:1019D00015FE071C00F012FE061C00F00FFEEA19AF
:1019E000A119013A0139009092B28BB2079815E023
:1019F00000F004FE051C00F001FE041C00F0FEFDDA
:101A0000071C00F0FBFD061C00F0F8FDE919A31906
:101A10000139013B009006988AB29BB20190211CCB
:101A2000281C01F073FBFFF726FC00F0E7FD041C07
:101A300000F0E4FD071C00F0E1FD051C00F0DEFDF8
:101A4000061C00F0DBFDAE4A05901168884763195B
:101A5000BD19059E013B013D9AB20190ABB20096C3
:101A6000201C391C18E000F0C9FD051C00F0C6FD63
:101A7000041C00F0C3FD071C00F0C0FD061C00F0B4
:101A8000BDFDEA19A319013A013B0090079892B2F3
:101A90009BB20190211C281C01F012FAFFF7EBFB0E
:101AA00000F0ACFD071C00F0A9FD051C00F0A6FD30
:101AB000934A041C11688847291C031C221C381CEB
:101AC0000BE000F09BFD071C00F098FD041C00F0EB
:101AD00095FD069B021C211C381C01F0A7F8FFF79E
:101AE000CAFB00F08BFD071C00F088FD061C00F00F
:101AF00085FD051C824803689847311C031C2A1C7D
:101B0000381C18E000F07AFD071C00F077FD061C79
:101B100000F074FD311C021C079B381C0BE000F028
:101B20006DFD061C00F06AFD041C00F067FD069BBD
:101B3000021C211C301C01F083FAFFF79CFB00F013
:101B40005DFD071C00F05AFD061C00F057FD051C4A
:101B500000F054FD041C6A4803689847311C00904B
:101B60002A1C381C231C10E000F048FD061C00F065
:101B700045FD051C00F042FD071C00F03FFD0799E4
:101B8000031C0091301C291C3A1C00F05FFFFFF77A
:101B900072FB00F033FD071C00F030FD061C00F066
:101BA0002DFD051C00F02AFD041C554802689047D5
:101BB000311C00902A1C381C231C10E000F01EFD74
:101BC000061C00F01BFD071C00F018FD041C00F0B3
:101BD00015FD069A031C0092301C391C221C01F0D2
:101BE000D9FBFFF748FB464E336898473568071C1A
:101BF000A847011C381C04E00798069901E00698E4
:101C0000079900220BE03E4E31688847051C30687A
:101C10008047011C281C01E0079806990122FFF764
:101C20003FFAFFF728FB374C24681BE0364C0025B1
:101C300022782570AA42F9D0324E3768FEF79CFC14
:101C4000C0B2B84720783168257088470FE02F4B25
:101C50001F69002FFBD02B4E3768FEF78DFCC0B2FA
:101C6000B8473468284B002118781970A047042021
:101C70003FE0244D264F002638782C683E70A04760
:101C800024492B6808780E7098472CE01D48224C98
:101C9000002502682078257029E01F4F00243A783B
:101CA0003C70A242F9D01A49164E087833680C707D
:101CB0009847184D326828782C70904738783668E5
:101CC0003C70B04714E011480469002CFBD00D4D66
:101CD0000F4A002610782F681670B8470D492B68F8
:101CE00008780E7098472A680B4D28782E70904718
:101CF0000820FEF729FD00F095FCFFF7BCFAC0466E
:101D000018000010200000103710001000000150D3
:101D10003A100010341000104010001000B53223AB
:101D20008BB00690079105A8059301A9024A904738
:101D300001980BB000BDC046F11FFF1F00B58BB06E
:101D4000332306900020059308920791FEF742FD89
:101D5000FA21890001F0FEFF01A90990024A05A8B5
:101D6000904701980BB000BDF11FFF1F00B5031C89
:101D70008BB007208B4210D83422002005920693A6
:101D80000791FEF727FDFA21890001F0E3FF01A981
:101D90000890034B05A8984701980BB000BDC046BA
:101DA000F11FFF1F38B5051C0B1C141C0120002956
:101DB0002FD072B6111CE022D20101CA01C18020CD
:101DC00000028242F9D1F8210A01A01802CD013B9C
:101DD00002C0002BFAD10720011CFFF79FFF00284B
:101DE00001D0012014E00720011CFFF7BFFF0028ED
:101DF000F7D10720011CFFF791FF0028F1D1E02364
:101E0000211C8024D8016201FFF798FF431E9841EE
:101E100062B638BD044B05491A8888541F20013228
:101E200002401A807047C046721800104F18001008
:101E3000024BDA689107FBD59860704700000440B8
:101E400038B5084C051C2368C0B29847280421689F
:101E5000000E88472A02100E23689847280E25682E
:101E6000A84738BD2000001038B5074C051C236872
:101E7000C0B2984728042168000E88472A02100E35
:101E80002568A84738BDC0462000001038B5044C6E
:101E9000051C2368C0B29847280A2168884738BDC6
:101EA0002000001038B5084C051C2368000E984728
:101EB00028022168000E88472A04100E23689847DC
:101EC000E8B22568A84738BD2000001038B5074C97
:101ED000051C00022368000E98472904080E22689A
:101EE0009047E8B22568A84738BDC04620000010DA
:101EF00038B5044C051C2368000A9847E8B22168ED
:101F0000884738BD20000010F0B5174B1A88174CD1
:101F100021888A42FBD016498D5C01325005460D5E
:101F20001E801A882788BA42FCD0885C0132560588
:101F3000720D1A801A88070220888242FCD08E5CBB
:101F400001325205500D188036043E431F88228806
:101F50009742FCD0CC5D01377905480D18802006EA
:101F600028433043F0BDC0467018001048100010E0
:101F70004B10001070B5114B1A88114C21888A4201
:101F8000FBD010498D5C01325005460D1E801A8829
:101F900020888242FCD08E5C01325205500D1880A0
:101FA0001A88360220888242FCD08C5C01325105AE
:101FB000200430434A0D28431A8070BD7018001069
:101FC000481000104B10001030B50C4B1A880C490B
:101FD00008880D1C8242FAD00A498C5C01325205F5
:101FE000500D18801A8828888242FCD08D5C0132FE
:101FF000510528024A0D20431A8030BD7018001088
:10200000481000104B10001030B5174B1A88174CB1
:1020100021888A42FBD016498D5C01325005420D61
:102020001A801A882D0620888242FCD0885C0132F2
:102030005205520D1A8000041A8828432588AA42A6
:10204000FCD08D5C01325205520D1A802D021A8887
:1020500028432588AA42FCD08C5C013251054A0DE8
:1020600020431A8030BDC046701800104810001080
:102070004B10001030B5114B1A88114C21888A4240
:10208000FBD010498D5C01325005420D1A801A8830
:102090002D0420888242FCD0885C01325205520D0A
:1020A0001A8000021A8828432588AA42FCD08C5C3A
:1020B000013251054A0D20431A8030BD70180010BE
:1020C000481000104B10001030B50C4B1A880C490A
:1020D00008880D1C8242FAD00A498C5C01325205F4
:1020E000500D18801A8820022C88A242FCD08D5CEA
:1020F000013251054A0D28431A8030BD7018001076
:10210000481000104B100010A023D9050A69002ABE
:1021100004D1034B59698906FBD518607047C04646
:1021200000800040802010B5C4056368221C2E4941
:10213000802B0ED004D8602B09D0702B4DD106E037
:10214000A82B19D0B82B2CD0902B46D101E0012020
:1021500044E00B78012B0CD1244A8024E30511883C
:1021600023489C684454013149054C0D14800422D5
:102170002AE0042090612BE0022008701D4A1E49CD
:1021800008881388984206D01C49C85C0133A060B7
:102190001F24234013808022D005042101600822DF
:1021A00019E00A78022A11D11348124A01881388CB
:1021B000994206D01148C15C0133A1601F2423401D
:1021C000138080230422DB051A6001E00421A16151
:1021D00080230822D805826105E00020042408231A
:1021E00008701460936110BD4A1000104810001070
:1021F0004B1000104C180010721800104F180010EF
:1022000080220B4B10028022D8676C21D005094B2D
:1022100081610021084819635963426802239A4387
:1022200042600430C26F20218A43C2677047C046B3
:1022300004E100E00040044000800440F8B51B4B7E
:102240001B4D00261E70FFF7DBFF1A480122AF6FFF
:1022500002634263301CFEF7BDFA391C01F07AFDBF
:10226000154901F077FD8024E4056061301CFEF71C
:10227000B1FA391C01F06EFD0F4901F06BFD2E1D06
:102280002061F36F20210B43F3676F68022007433F
:102290006F600A4DFF232A788021560008481E40AF
:1022A0000F024425E66007602560F8BD4A10001063
:1022B000008004400040044000350C001000001075
:1022C00000E100E008B5044B1870044801788A0763
:1022D00001D5FFF7B3FF08BD100000104B18001028
:1022E0000B4A0323D16910B50B4002D0106A034397
:1022F000136208490B88D468640707D504488468CA
:102300000548C45401335B055B0DF4E70B8010BD39
:1023100000000440481000104B10001080220F4BAA
:102320005003D8670E48082142680A434260436858
:102330000222934343600B4810211123C1610166BF
:10234000416683660848012142688A43426004303E
:10235000C36F064A1A40C2677047C04604E100E0F6
:10236000000004400040044000800440FFF7FFFFED
:1023700010B5FFF7D3FF164B1122DA6102211A665E
:10238000144C01225A6699666068134B10436060D2
:10239000DC6F802000012043D867104B06241A60B0
:1023A0000F4BC722196104211A6059605C61D8681B
:1023B0000B4A400701D59268F9E70323136254687A
:1023C00002210C435460074B80225003186010BD5B
:1023D0000040044000800440048004409480044095
:1023E0000000044000E100E0074B9A6818681107FC
:1023F0004B0F022B07D1054B05491A88885401322F
:102400005005420D1A8070470080004048100010AF
:102410004B1000100E4AA023DB05995804200143FD
:1024200099501A690B4B002A0BD1012018600A4BF6
:102430005A69D10701D51B68F9E780218903074B49
:1024400004E08021064A8803D067002119607047A4
:102450001C800000A84004400080004000E100E033
:1024600004E100E00B4B8022802110068A03D8672C
:10247000DA67094A094B00205860111C1020D0610E
:10248000074BA431A83208601060D86F054A02409B
:10249000DA67704704E100E000400440008000403B
:1024A00004800440FFEFFFFF154B70B5C218041CF9
:1024B0001448824222D8144D14492E780C60F20739
:1024C0001CD5134B134A9E6F00201568FEF782F946
:1024D000311C01F03FFC291C01F03CFC211C0009CF
:1024E00001F038FC0C4C8023E168060A1943C0B2A5
:1024F000E16066602060E2689A43E26070BDC046B9
:1025000080DAFFFFC01C0F004B18001008000010FD
:1025100000800440988004400080004038B5FFF7F8
:10252000A1FF234B23491022A020DA61C40565587E
:1025300004229543204B6550E05820491043E05059
:1025400065581F4B15436550E0581E4D0243E2503D
:102550001D4A112414601D4C00212160EB6F802066
:1025600042011A431A49EA671A4B01250D6018689F
:10257000FFF79AFF184B03200722D8605D609A602E
:102580005D69A906FCD559690120014202D0124DAE
:102590002A68F8E7A023DA0515691049002D03D150
:1025A00020608024A003086080231A060A6038BDDA
:1025B00000400440048000000880000010800000FB
:1025C0001C80000004800440A4400440A840044053
:1025D00098800440080000100080004000E100E006
:1025E00010B5041C2078002804D0034B013419686E
:1025F0008847F7E710BDC04620000010064A138840
:10260000064908888342FBD00549C85C01335B0555
:10261000590D11807047C046701800104810001006
:102620004B10001070B50F4B1878820718D5FEF7C5
:10263000A5F8061C0C4D0D4C2A8821888A420FD023
:10264000FEF79CF8831BFA2BF4D972B60849094EA1
:1026500000200880308020802880074D287062B6D6
:1026600070BDC0464B180010721800104C180010B6
:1026700070180010481000104A100010094B00207C
:10268000197881420CD0084A084B12881B889A425C
:1026900004D89A4204D2802001015218D31A98B269
:1026A0007047C0464B1800104810001070180010FA
:1026B000F0B51249124F134E134D144C144A154BDA
:1026C00000280CD138701448144F3060144E2F601D
:1026D0002660144D144C0D601460144A0CE0012067
:1026E0003870134F3760134E2E60134D2560134C16
:1026F0000C6013491160134A1A60F0BD14000010F9
:102700004E180010180000100C00001024000010DB
:10271000280000101C000010C920000075200000D7
:1027200009200000F11E0000CD1E0000A51E0000C3
:10273000C91F0000751F0000091F00008D1E00004A
:10274000691E0000411E0000014B18787047C0460A
:102750004E180010014B18787047C046100000104A
:10276000014B18687047C04608000010014B1878EC
:102770007047C0464B18001038B5051CFFF752FFD4
:102780001E4C23789A0701D5FFF73AFD20784207BF
:1027900001D5FFF7C3FD2178CA0701D5FFF762FE17
:1027A000174A1078FFF784FF164B00201880164A4E
:1027B000164B10801880164A164B10801870FF2D8B
:1027C00002D12578854217D01348012D0ED0042D53
:1027D00006D0124A022121700260FFF72FFD0AE0A5
:1027E0000F4B25700360FFF7C3FD04E025700D4D0E
:1027F0000560FFF793FE207838BDC0464B180010E7
:102800004E18001070180010481000104C180010DE
:10281000721800104A10001020000010151E000051
:10282000311E000009210000F0B58FB0069314ABF3
:1028300002911988069B151C15AA1488DA0016AE99
:1028400001901018377809910A9481B2564C07917B
:102850000B972688079FB74206DC029B5349D21884
:102860000C8890B2A04203DD0136B6B2019698E022
:102870001F2D00D895E0069E203D013EF7B204973B
:1028800001F042FA4A4BED00049CEA180392002C36
:102890002BD10398029B015D1D19AEB20491002556
:1028A0008027019A049853199AB2384206D0101C16
:1028B000311C331C00F0A6FF099808E00B99002991
:1028C00007D0101C311C331C00F09CFF0A9800F04C
:1028D00085FF01357F08082DE3D10134082CD8D1BC
:1028E00001F008FA079C01945BE00398029C083011
:1028F0000C90039906980E78019A039F049D013865
:10290000C1B2AB1801370D96661803979DB2B7B2E6
:102910008023161C08220891029205930D980599B0
:10292000084221D0301C211C2A1C3B1C00F06AFFED
:10293000A81B3E1B411C01364E43B6B2002E04D0EC
:10294000099800F04BFF013EF7E76A1C089B0598C9
:1029500096B2029A01335D194108013AADB2059170
:102960000292002ADAD115E00B9A002AEDD0301C31
:102970003B1CAE1B211C2A1C00F044FF731C3E1B99
:1029800001365E43B6B2002EDFD00A9800F026FF73
:10299000013EF7E7039F0C9E1C19A4B2B742A8D1D1
:1029A0009EE701980FB0F0BD741800107818001061
:1029B000124C0000F0B589B01C1C0EAB0E1C19881F
:1029C000151C10AB0FAA0591178819780697079167
:1029D000002C00D1012480221702B84210D1194FD7
:1029E00038884308281C049301F0B0FAE100414301
:1029F000049A4808131A3F8899B2B94280410840A6
:102A0000802213029E4218D10F4EA70031884A0837
:102A1000D31B9FB28F42B6413E400EE00599069B04
:102A2000079F00910193311C0297231CFFF7FCFEC6
:102A3000044A01351188814202D32A78002AEDD157
:102A400009B0F0BD7418001078180010F0B58DB002
:102A50000793089112AB51428DB2041C188803955C
:102A60006E460C270290BB5F079859000131414325
:102A7000079E5B43484352437643C5180693520072
:102A800077000023059004950A920B9701936846FE
:102A90000C210D5E002D00DD82E06B460C25EE5A08
:102AA0009F88604BA01B089A85B21888B9180997AF
:102AB0008FB2A84210D95C4A1188B9420CD901F0F2
:102AC00023F9281C391C2A1C3B1C00F09BFE029891
:102AD00000F084FE01F00EF9524B36191888B6B298
:102AE000B04210D9504A1188B9420CD901F00CF902
:102AF000301C391C321C3B1C00F084FE029800F094
:102B00006DFE01F0F7F8474A089F099B1188F81AF3
:102B100087B2B14210D9444B1888B8420CD901F0A1
:102B2000F3F8301C391C321C3B1C00F06BFE029881
:102B300000F054FE01F0DEF83A4E3288AA4210D975
:102B400039490B88BB420CD901F0DEF8281C391C2E
:102B50002A1C3B1C00F056FE029800F03FFE01F0DC
:102B6000C9F8049D05986F0087420ADB039E059B08
:102B70000B99049801365D18B2B246190392059577
:102B80000496069A974200DD81E7019F0A9904980E
:102B900055180137BBB2461901930695049676E79E
:102BA00000256A460420165E079BAF199F4236DA5D
:102BB0001C4F3888A04216D9089A019901321A4848
:102BC0005618731902889EB2B2420CD901F09CF8D3
:102BD000201C311C221C331C00F014FE029800F053
:102BE000FDFD01F087F83F88A74216D90899019B9F
:102BF0000D4ACE1A013E701B118887B2B9420CD91A
:102C000001F082F8201C391C221C3B1C00F0FAFD4C
:102C1000029800F0E3FD01F06DF80135C1E70DB059
:102C2000F0BDC0467418001078180010F0B58BB0D5
:102C3000019353420890099198B292B200210590F5
:102C4000049207916F466C4610251C372E5F0021B9
:102C50007B5E9E4200DAE9E068461022145A089929
:102C60001C230D1BAEB27249185A0296099A0D88A0
:102C7000029E0694141A0390A7B2B54210D96D4B68
:102C80001888B8420CD901F03FF80298391C021C90
:102C90003B1C00F0B7FD019800F0A0FD01F02AF800
:102CA000089A039C099E111B614A069B1488F01A1E
:102CB0008DB286B2AC4210D95E490B88B3420CD9B2
:102CC00001F022F8281C311C2A1C331C00F09AFD4C
:102CD000019800F083FD01F00DF80698089A544918
:102CE00084180B88A4B2A34210D952480288BA4271
:102CF0000CD901F009F8201C391C221C3B1C00F0E7
:102D000081FD019800F06AFD00F0F4FF039F08992F
:102D100047487B1802889FB2BA4210D945490B88B0
:102D2000B3420CD900F0F0FF381C311C3A1C331CA4
:102D300000F068FD019800F051FD00F0DBFF3C4918
:102D4000039E09980B88321896B2A34210D93948CD
:102D50000288B2420CD900F0D7FF201C311C221C83
:102D6000331C00F04FFD019800F038FD00F0C2FF69
:102D70002F48069C0999028863189CB2BA4210D960
:102D80002C490B88A3420CD900F0BEFF381C211C33
:102D90003A1C231C00F036FD019800F01FFD00F0E6
:102DA000A9FF234F029A3888904210D921490B88F5
:102DB000B3420CD900F0A8FF0298311C021C331C4E
:102DC00000F020FD019800F009FD00F093FF184E7F
:102DD0003788AF4210D917480288A2420CD900F0B8
:102DE00093FF281C211C2A1C231C00F00BFD0198BA
:102DF00000F0F4FC00F07EFF039D059C6846291955
:102E000001354B199EB2B7B2059714300021425ECE
:102E1000002A07DB049D013DACB26100731A9EB22B
:102E200004940596079F013707970BE70BB0F0BD99
:102E30007418001078180010F7B50E1C1E491C1CE1
:102E400008AB071C151C18880A880190974201D30B
:102E5000571EBFB2194B1888864201D3461EB6B220
:102E6000954201D3551EADB2844201D3441EA4B293
:102E7000AF4203D96F407D406F40BFB2A64203D935
:102E8000664074406640B6B200F03EFF311C2A1C1A
:102E9000381C231C00F0B6FCE91BA51B01310135D1
:102EA0004D43002D04D0019800F098FC013DF8E757
:102EB00000F020FFF7BDC04674180010781800100D
:102EC000F0B58FB0151C14AA061C148815A8078825
:102ED0002A1B301903979446904200DBAEE00F198D
:102EE0000797079A1F1B0697BA4200DBA6E06746C2
:102EF000BAB2039F059280B2059A00970490FFF73B
:102F00009BFF1C23684618226946595A135A301CE5
:102F10000993049A099B664200970891A4B2FFF7AF
:102F20008BFF2A1C099B009705980899B5B2FFF7FB
:102F300083FF0795069400230B936F4618216A467A
:102F40002C23C85F9E5EB04278DB6D461824615B1F
:102F5000049F2C26781A775B089D82B2EC1B0A919D
:102F60000399A6B20C92331C00910C98311C049A60
:102F7000FFF762FF0498089D0A9CC21B93B2291BAD
:102F800003988DB20D93291C2B1C0090049A0D9868
:102F9000FFF752FF0A9A059B0399D418A4B2201C8C
:102FA000331C0091059A311CFFF746FF059A0398E0
:102FB000BE18B6B2291C2B1C0090301CFFF73CFF3A
:102FC000099D03997B199DB2201C2B1C0091059A29
:102FD000291CFFF731FF0A9C099A039BA01884B2B1
:102FE000211C301C0093059A231CFFF725FF039E2C
:102FF000291C2B1C00960C98049AFFF71DFF039DBB
:10300000211C231C00950D98049AFFF715FF0799C2
:103010006B467A180137D719B8B284B207941C26C8
:10302000F55E002D07DB069901398AB25700C01BF7
:1030300084B2069207940B9B01337DE70FB0F0BD7D
:10304000F0B5544289B005900691A0B292B2002129
:1030500007930390029204916F466B460825103740
:10306000EE5E00217C5EA6424EDB684608221024FC
:10307000245A155A059906984B1B22186E18079961
:103080009FB2B6B293B2381C321C0091191CFFF7E4
:10309000D3FE069B079A181B83B2191C381C00929A
:1030A000321CFFF7C9FE059E069B371BA119E818C5
:1030B000079A8EB283B2BFB2381C191C0092321C20
:1030C000FFF7BAFE069907984D1BABB2191C321CCC
:1030D0000090381CFFF7B0FE039F6946E6190134E3
:1030E0003419A5B2ABB203930C22505E002807DB63
:1030F000029F013FBEB274002D1BABB20296039338
:10310000049901310491A7E709B0F0BDF0B58FB083
:103110001F1C14AB84461C8815A8161C0D1C624687
:1031200001881319301B039104930590834200DB3F
:1031300029E129193B1B994200DB24E18AB298B2AC
:1031400003990990089260460091099B111C624600
:10315000FFF772FE6B461022D05A694614235A5A62
:1031600003993B1C0091391C0A900B92FFF764FEF7
:10317000039F301C321C0899099B0097FFF75CFEE7
:10318000039E0A98291C0B9A2B1C00966542FFF798
:1031900053FEA4B2AAB20020079206940D906E4688
:1031A00018216B463436CF5E0021755EAF4200DADF
:1031B000E9E06C461822105B0A9B3425191A8FB27D
:1031C000724B2C5B0497089A1988049F0C90101B73
:1031D000059486B2B94210D96D4D2C88B4420CD9F1
:1031E00000F092FD0498311C021C331C00F00AFB15
:1031F000039800F0F3FA00F07DFD0A9A05980C9D03
:10320000131A624A089910884C1B9FB2A5B2B842A3
:1032100010D95F4B1988A9420CD900F075FD381CF4
:10322000291C3A1C2B1C00F0EDFA039800F0D6FA8A
:1032300000F060FD0C9C0B9A544BA018198884B2C6
:10324000A14210D9524A1088B0420CD900F05CFD5E
:10325000201C311C221C331C00F0D4FA039800F00F
:10326000BDFA00F047FD059E0B9B484AF1181088F7
:103270008EB2B04210D9464B1988A9420CD900F041
:1032800043FD301C291C321C2B1C00F0BBFA039898
:1032900000F0A4FA00F02EFD3C4B059D099A198818
:1032A000A81885B2A14210D9394A1088A8420CD971
:1032B00000F02AFD201C291C221C2B1C00F0A2FA65
:1032C000039800F08BFA00F015FD304A0C9C099B26
:1032D0001088E1188CB2B04210D92D4B1988A14248
:1032E0000CD900F011FD301C211C321C231C00F0F5
:1032F00089FA039800F072FA00F0FCFC234E04985F
:103300003288824210D9224B1988A9420CD900F088
:10331000FBFC0498291C021C2B1C00F073FA039878
:1033200000F05CFA00F0E6FC184D2E88BE4210D981
:10333000174A1088A0420CD900F0E6FC381C211C6A
:103340003A1C231C00F05EFA039800F047FA00F0E4
:10335000D1FC059F079C6A463B190137D9198DB2EC
:10336000AEB207961C320021505E002807DB069F94
:10337000013FBCB26300E91A8DB2069407950D9E19
:1033800001360D960BE70FB0F0BDC0467418001063
:1033900078180010F0B5524D8DB0039312AB041C99
:1033A0002E88188806910790A11AB14200DB94E09C
:1033B0004C49069F039B0D88F81AA84200DB8CE05D
:1033C0005642B6B237B27B000398013343430399A8
:1033D0005243494358437F4352004D000023059711
:1033E0000490C7190A920B95029330B2002835DC7D
:1033F000B5B2611B88B22A196946082395B20890B4
:103400005A5A069809921118079A8BB2191C009201
:1034100008982A1CFFF710FD069B0998079A191AAD
:103420008BB20092191C2A1C0898FFF705FD049B1B
:103430007D009D4206DB04980B9901364218B6B216
:103440000492BF1805988542CFDC029D0A99013588
:103450004218ABB202930592BF18C6E700256E462C
:103460000827BA5F0399AB188B4236DA1C4F3888AD
:10347000A04216D9069E029A01361A48B318591965
:1034800002888EB2B2420CD900F03EFC201C311CE6
:10349000221C331C00F0B6F9079800F09FF900F0E9
:1034A00029FC3F88A74216D9069B02990D4A5E1A4D
:1034B000013E701B138887B2BB420CD900F024FC7C
:1034C000201C391C221C3B1C00F09CF9079800F0C2
:1034D00085F900F00FFC0135C1E70DB0F0BDC04625
:1034E0007418001078180010F0B585B01F1C0AABD6
:1034F0001E88051C141C3B1C2A1C00960391FFF718
:103500009BFC281C391C221C3B1C0096FFF794FCDA
:10351000201C0399221C3B1C0096FFF78DFC03998D
:103520000096281C221C0B1CFFF786FC05B0F0BD82
:10353000F0B58DB01E1C12AB051C18880C1C171C96
:103540000590954201D0B14208D1059A281C0092FD
:10355000211C3A1C331CFFF76FFC96E04C490A888B
:10356000954201D3551EADB24A4B1888844201D30F
:10357000441EA4B2974201D3571EBFB2864201D364
:10358000461EB6B2791B8AB293B2301B039383B244
:10359000684699B20C3004910021415E01200690EA
:1035A000002904DA52423C4891B2039106906A46DF
:1035B00010218A5E01200790002A04DA5B42364A15
:1035C00099B2049107926B460C20C15A68464A0092
:1035D0000A91102193B20A5A0893530098B20B92A1
:1035E000099000F091FB211C2A1C231C281C00F0D0
:1035F00009F9059800F0F2F869460C226B46102094
:10360000525EC15E8A421EDD099E0A9AB31A9EB2BC
:10361000BD421ED030B2002805DB0799089A641815
:10362000B61AA4B2B6B2069B0998ED18ADB28119CC
:103630008EB2281C211C2A1C231C00F0E3F80598DC
:1036400000F0CCF8E4E7089F0B9ABB1A9FB2B44293
:1036500002D100F04FFB18E038B2002805DB0699D4
:10366000099A6D18BF1AADB2BFB2079B0898E4184B
:10367000A4B2C1198FB2281C211C2A1C231C00F0E3
:10368000C1F8059800F0AAF8E1E70DB0F0BDC0461A
:103690007418001078180010FFFF00000C4B70B574
:1036A000051C18880C1C161CA84210D909490A8848
:1036B000A2420CD900F028FB281C211C2A1C231C28
:1036C00000F0A0F8301C00F089F800F013FB70BD8A
:1036D000741800107818001038B5041C00F014FBA2
:1036E000164B17481A880188013A013900208BB21D
:1036F00092B2011C00F086F880252D01201C00F0FC
:103700006DF8201C00F06AF8201C00F067F8201CFF
:1037100000F064F8201C00F061F8201C00F05EF856
:10372000013D201C00F05AF8ADB2201C00F056F804
:10373000002DE3D100F0DEFA38BDC0467418001049
:103740007818001008B5124B1B2815D006D80E2883
:1037500012D012280ED0092808D109E0B42809D0C7
:1037600087225100884207D05A2801D0002205E064
:103770005A2203E0B42201E0872042001A80188810
:1037800000F054F9034B010C18800348018008BD78
:10379000761800107818001074180010014B188863
:1037A0007047C04674180010014B18887047C04617
:1037B0007818001010B5064B0649074800241C80F5
:1037C00004800C8000F0ECF9201CFFF7BBFF10BD5B
:1037D00074180010761800107818001030B5084BD7
:1037E0008022FF2412010025010AA4009D501951D6
:1037F0008021890099509D501851995030BDC04684
:1038000000000250F0B585B00292864A01901688F9
:103810000091802080210393834A49010001002404
:10382000B42E6FD0FF258727AD007F00BE4200D1A8
:10383000AFE0009F023303930237422300975450B6
:10384000145053515A2E32D080268023B700DE0008
:103850001750565054501450029B7F277F42FB1A3A
:10386000DFB2802357519F001750565054501450C8
:10387000019B7F277F42FB1ADBB280275351BB009D
:1038800013504327802356505450145057519F00D3
:1038900017506B465650545014501B7853511750C4
:1038A00056500C27545014506C463C5DB2E08026B4
:1038B0008023B700DE0017506B465650545014500A
:1038C0001B7853516B4617500C33565054501450BC
:1038D0001B78535143231750565054501450535192
:1038E0001750565054501450019B0233DBB25351C1
:1038F0001750565054501450029C0234E3B25351A6
:1039000017508BE0FF239D004226802780235450D0
:1039100014505651BE00DD001650555054501450EE
:10392000019F0223BC469C446746FF23FFB29B00D5
:10393000D7501650555054501450029F0223BC4685
:103940009C446746FBB2FF27BF00D3514323165068
:10395000555054501450D35116507F275550545041
:1039600014507B42039F9C46DB1B01936F463B79BF
:10397000FF27BF00D3511650555054501450009C8F
:1039800063461F1BFF24FFB2A300D75016505550AB
:1039900045E0422654508027145056518026F600A8
:1039A000BB001350565054501450039B7F277F4246
:1039B000BC46FF1A03976B461F7B802357519F001D
:1039C0001750565054501450009B6746FF1A0097EA
:1039D0006B461F78802357519F0017504323802741
:1039E0005650545014505351BB001350565054501D
:1039F0001450029F6346DB1B00936F463B78802781
:103A00005351BB001350565054501450019F6446FC
:103A1000E31BDCB254518025AF001750565005B05F
:103A2000F0BDC0467A18001000000250F0B5B4286E
:103A300009D087235900884205D0041C5A3C6242B1
:103A4000544162421040254D254B8026288000229B
:103A5000B70180218024FF25DA5149012401AD00FE
:103A6000B4280AD087267700B84206D080204227A3
:103A70005A5086001A515F5105E0422680205A5064
:103A80001A515E5186008027F80002271E51BC465D
:103A900058505A501A515F5181271E5158505A5050
:103AA0001A515F5143271E5158505A501A515F51B5
:103AB00067461E5158505A501A515F511E51585066
:103AC0005A501A5181225A511E5180255850802136
:103AD000AE010C019C510348F0BDC0467A1800109D
:103AE0000000025080008000044A802398010021D9
:103AF00080231150190111507047C0460000025038
:103B0000F8B5264C8023071C0022980180258026CA
:103B100022506D01360197421CD1FF2293005021A3
:103B2000802280206751A751E1508100D300A1512C
:103B300014206351FCF728FEFF208022675181008A
:103B4000A75193002D276750A3518026F700675196
:103B500078201BE0FF23980000212C276151802250
:103B6000A151275080279100FF00A1517820675173
:103B7000FCF70AFE0023FF2263515120A35191005C
:103B8000802360509800A05167511420FCF7FCFD81
:103B90008025802128018A01A050F8BD0000025034
:103BA000F0B593B03D494522684600F0C3F93C4C5E
:103BB0008023180221583B4A3B4D1143215066593E
:103BC000802732436251FE0000251420A551FCF7E6
:103BD000DBFD80235800A0517820FCF7D5FD802123
:103BE0008A01A5506F46785D3F260135031CADB2B2
:103BF000B343802B1ED0C02B33D0402B34D1304068
:103C00002B1C29188AB29A4229D080268021720161
:103C1000090100266F46FF5CA6506650FF26B600DD
:103C2000A7518027BE00665080210133CF009BB290
:103C3000A750E6E730402B1C2A1896B29E420ED0C1
:103C40006F468022FE5C00211701FF22E1519100A6
:103C5000665080260133B2009BB2E251ECE71D1C96
:103C600002E03040FCF790FD442DBBD98020C1011B
:103C70008023FF2680201F010022B5008300013928
:103C8000E2516251E351E2516251E3519142EFD16D
:103C900080240349A2018F5013B0F0BD12530000DD
:103CA00000000250FF0F0000FC3F0000054B802287
:103CB000120100219950FF21890058508020810075
:103CC0009950704700000250094B8022802110B5A6
:103CD0005201002409019C505C50FF24A40018519B
:103CE000802084005C508021C800985010BDC046E0
:103CF0000000025080218023024A0801990150509F
:103D00007047C046000002508023024A00219801FB
:103D10001150704700000250CA1751408B1A17D03B
:103D2000C1174A4004B44840411A48081A0000E04C
:103D300052008242FCD9002000E05208914200D398
:103D4000891A40419A42F8D104BC5040801A704709
:103D5000002070470A000FD00300400800E0520026
:103D60008242FCD9002000E05208934200D39B1A03
:103D700040418A42F8D17047002070470A0010D0B5
:103D80000300400800E052008242FCD9002000E01D
:103D90005208934200D39B1A40418A42F8D119003D
:103DA000704700207047C04602B471464908490078
:103DB000095C49008E4402BC7047C04608B5031C2C
:103DC0000278002A06D041680878002805D0013121
:103DD000596004E04068804701E00123584208BD73
:103DE00070B5041C806800280AD0236862685D1CD6
:103DF000AD1A6E1EB5416E423140934200D2C1549D
:103E0000E368002B06D020686268904202D2081C4A
:103E1000211C984721680131216070BDF8B5151C3F
:103E20004C1E15D4C6B201231F1C2740101C311C88
:103E3000FFF7D6FF013C0CD20AE0281C311CFFF72B
:103E4000CFFF013C281C311CFFF7CAFF013CF4D214
:103E5000F8BD002FF1D0281C311CFFF7C1FF013C39
:103E6000EBD2F5E710B5C30606D42023840500D5B0
:103E70003023181CFFF7D2FF10BDC046031C413B86
:103E8000002019229A4240417047C046031C613B02
:103E9000002019229A4240417047C046031C303B23
:103EA000002009229A4240417047C04638B5041CA0
:103EB0000D1CFFF7F3FF002802D0201C303811E062
:103EC000201CFFF7E3FF002802D0201C573809E030
:103ED000201CFFF7D3FF002802D0201C373801E058
:103EE00001204042A84201DB0121484238BDC046C2
:103EF000021C093A0123042A03D9031C203B58421F
:103F00004341181C7047C0460EB400B586B007AADE
:103F100008CA05920390002304930548029001A863
:103F2000079900F01BF806B008BC03B01847C0465C
:103F3000FFFFFF7F8446002A05D00B780370013015
:103F40000131013AF9D160467047C046411C027800
:103F50000130002AFBD1401A7047C046F0B55F46D9
:103F600056464D464446F0B48BB00C1C05920023D7
:103F700003609946051C63E2252906D0281CFFF73B
:103F80002FFF341C5CE2261C0BE010239A462020F5
:103F9000804680273A029446802740212C1C4D46BB
:103FA000A3463078741C031C203BDAB2102A14D8C4
:103FB0009300C64AD3589F460D43E4E73D43E2E7EA
:103FC00066463543DFE743461D43DCE7524615436B
:103FD000D9E78026B0000543D5E75F46AB463D1CD8
:103FE0005A462A2805D0011C30394B4609290DD9DB
:103FF00017E0059C201D05902368002B03DA5B4227
:1040000010210A4393467078B41C0AE09E00F3180E
:104010005F0030383B1820780134021C303A092AFE
:10402000F4D9DE43F7173B400293CA462E2825D128
:1040300020782A2805D00134031C303B092B08D9ED
:1040400017E00598021D059201688A4660780234DF
:104050000CE04F46BA00D1194E003038371820789E
:104060000134031C303B092BF4D9BA465646002EC6
:1040700004DB80277B005A461A43934668280ED1FA
:104080002078682806D10827584638438346607848
:10409000023404E001340426594631438B46782823
:1040A00003D883008A4AD658B7468A4F3E68002E06
:1040B00000D1C5E15146009105AA0192291C5A463A
:1040C000029BB047BCE1281C2521FFF789FEB7E120
:1040D0000598031D0593067802998A4601277A42BE
:1040E0009244584651462A1CFFF7BCFE281C311C3E
:1040F000FFF776FED8464046C00600D4A0E1202057
:1041000051462A1CFFF78AFE9AE15846010706D558
:104110000598021D059203682E681E7090E1059BAC
:104120001E1D059619682F680F6089E10598011D0D
:1041300005910668002E00D1674E684F5B463B40F4
:104140009846301CFFF702FF071C5A46D20502D5DD
:10415000504500DD57460298C11B8A4640462A1C3E
:10416000FFF780FE002FC6D0B3467B1E01221A4007
:1041700002923178281CFFF733FE0136013F002FF1
:1041800000D081E1B7E7A346FFE73178281CFFF7AD
:1041900027FE7178281CFFF723FE0236023F002F0E
:1041A000F3D15C46A7E7059E371D0597376859464A
:1041B0000B06DE1723223240904680235E003143F7
:1041C0008B4608218A466FE080239E0159460E43A4
:1041D000090609D4B346C84609E0C84659460A0646
:1041E00005D53F4FB84602E0B3463E4FB8465A4663
:1041F000D20520D5394B5E461E40B3461BE05F46D4
:104200003A06D31730261E40B046FB0513D5334F70
:104210005A463A4093460EE0C8465B46DA050AD550
:104220002E4A5E461640B34605E08021CF015A462D
:104230003A439346C84659464B0419D5059B1A1D67
:1042400005921F685E46710701D53FB203E0320751
:1042500001D5FF231F40002F03DA7F422D22904615
:104260001BE05A46910613D45E46720613D414E03E
:10427000059F3A1D05923F685B465B0702D53F04E8
:104280003F0C0AE05E46310707D5FF210F4004E0EE
:104290002B23984601E0202188465E46F10506D58D
:1042A0000E495B460B409B465A46D30501D4012676
:1042B000B2465838C0B2202865D882000A4B9E58B2
:1042C000B7464E460720002F33D15FE078530000F9
:1042D000BC5300007C18001024560000FFFDFFFFB7
:1042E0007830000058300000A05500004E46002FE6
:1042F00028D14BE0002F48D04E46802293015946EA
:104300000B400F22684884460394002B06D0101CF3
:1043100038406446205C07A9705405E0111C394000
:10432000624C605C07A9705401363F09EDD1039CD3
:104330002CE0011C3940303107AAB1540136FF0886
:10434000F7D123E0802319025846084003900494D3
:10435000041C002C07D003223240032A03D107ABF0
:104360002C2199550136381C0A21FFF707FD303101
:1043700007A881550136381C0A21FFF7EBFC071E00
:10438000E7D1049C02E04E4600E04E465746BB1B78
:10439000DA43D7171F400298C11B8A1BFF234345EE
:1043A00080414142521A4346591E8B41D01A8246DF
:1043B000584680218A00104204D151462A1CFFF73A
:1043C00051FDCA464346FF2B03D9190A281CFFF7A3
:1043D00007FD4046002803D0C1B2281CFFF700FDAE
:1043E000584651462A1CFFF73DFD3020391C2A1C37
:1043F000FFF714FD013E1BD407AFBE196F461B37F4
:10440000B91B01228A4390463178281CFFF7E8FC4B
:10441000013EBE422DD10BE03178281CFFF7E0FCB5
:10442000013E3178281CFFF7DBFC013EBE42F3D190
:104430005846C10604D5202051462A1CFFF7EEFC41
:104440002178661C002900D096E5281CAF68002F53
:1044500004D02A686C68A24200D2B954006801E016
:10446000012670420BB03CBC90469946A246AB4632
:10447000F0BD4346002BCFD03178281CFFF7B0FCAD
:10448000013EBE42C8D1D3E70298002800D17AE6A7
:1044900059464978281CFFF7A3FC0136013FA34683
:1044A000002F00D071E626E6685300005853000044
:1044B00010B5041C0B78002B05D0431C05D04868B0
:1044C0000138486001E089688847201C10BDC0465B
:1044D000F0B55F4656464D464446F0B483B081463B
:1044E000019193461F1C01235842824600E0A246D8
:1044F000544601344846FFF761FC051CFFF7F8FC01
:104500000028F4D1691C00D19DE0734E5A46164034
:104510000C9900293FDD120612D52B2D04D02D2D2C
:104520000BD18024E5002E43544602344846FFF761
:1045300045FC051C0C9801380C900C9B002B2ADDC7
:10454000302D28D18022910031438A460C9D013DB7
:104550000C95601C80464846FFF730FC051C0C9B00
:10456000002B15DD782801D0582811D1002F01D05B
:10457000102F6FD1594A1640B2460C9E013E0C9640
:104580000234A0464846FFF719FC051C102761E0DD
:10459000002F5ED05EE0002F00D10A270C99002981
:1045A0002CDD0B1900930022904680218800834661
:1045B000E343009A9918012008408246281C391CC0
:1045C000FFF774FC002850DA1AE05D462E4343469C
:1045D0007B43C01880460134A2464846FFF7EEFBF5
:1045E000051C391CFFF762FC002864DA08E0281C6F
:1045F000391CFFF75BFC0028E7DA01E00020804669
:10460000281C4946FFF754FFB2051FD5F30724D4F1
:10461000019F3868021D3A6001689025EB00371C45
:104620001F409F4202D1404642429046F30602D5C7
:1046300043460B7011E0330702D545460D800CE070
:1046400046460E6009E001214C4206E00224644225
:1046500003E0082744465646A0E7201C03B03CBCB4
:1046600090469946A246AB46F0BD5D462E43434672
:104670007B43C218904601344846FFF79FFB051C58
:1046800000998C42BCD050460028B0D0281C391C60
:10469000FFF70CFC0028B3DB5D462E4343467B430B
:1046A000C218904601344846FFF788FB051C009964
:1046B0008C429CD1A4E75C46264342467A4381184B
:1046C0008846544601344846FFF778FB051C009B9A
:1046D0009C4200D08BE793E7FFF9FFFFFFFDFFFF50
:1046E000F0B55F4656464D464446F0B48BB0804622
:1046F0000D1C09920020049000210291CB4A9346A0
:1047000020239A4644460394A9464F4638784C469F
:104710000134002800D1CAE1252837D0051CFFF755
:10472000E7FB002819D020780134FFF7E1FB0028CF
:10473000F9D1013CA146049D039E00E00135301CE7
:10474000FFF73CFB071CFFF7D3FB0028F6D10495CD
:10475000381C0399FFF7ACFED7E70398FFF72EFB51
:10476000A84204D1049B01330493A146CDE7061C63
:1047700003988146029C301C4946FFF799FE01369A
:1047800000D094E1002C00D091E182E179780025FD
:104790002A2902D14C460234012500270BE05F454F
:1047A00000DD84E1BA00D0194100303E8F1900D5F8
:1047B0007DE15646354326780134301CFFF76EFB09
:1047C0000028ECD1221C331C291C5046284200D161
:1047D000974F4C2B04D11678541C44250D430CE004
:1047E000682B0AD11678682E04D110250D4356780F
:1047F000941C02E0541C08250D43321C253A532A10
:1048000000D954E193008B49C85887460398FFF7B5
:10481000D5FA252804D1049F01370497A14674E7EF
:10482000061C03988446029C301C6146FFF740FE3C
:10483000751C00D03BE1002C00D038E101214B4237
:10484000029334E153462B4200D101270121294034
:1048500088460025002903D1099D2E1D09962D6843
:10486000002F00D123E128DD0498C2199146049F4E
:10487000FB434B4401210E1C1E4001370497039853
:10488000FFF79CFA421C00D019E108E04646FFE71A
:10489000049F01370398FFF791FA431C07D1029850
:1048A000002800D003E1012359420291FFE0002ECD
:1048B00000D024E12870013521E1A1464446002CB6
:1048C00000D022E7029D013502951EE780222A438F
:1048D0000097039809A90A23FFF7FAFD0590BEE0A7
:1048E00080222A430097039809A90023FFF7F0FDCF
:1048F0000590B4E0A146EB0700D506E70998021D34
:1049000009920368E80604D56C461020025D1A700F
:10491000FBE62A0705D56F461021CE5B1E80A14617
:10492000F3E6049D1D60A146EFE680222A4300972E
:10493000039809A90823FFF7CBFD05908FE01E26F9
:104940002A1CB2430097039809A91023FFF7C0FD62
:10495000059084E0012672420592A046A946161CE5
:10496000039D0136281CFFF729FA041CFFF7C0FA43
:104970000028F6D14D460596231C44469846321C25
:1049800001334ED0012129400691089000D084E0E7
:104990000998061D0996036808937EE0069C002C82
:1049A00001D12E7001357C1C271C0398FFF706FAF5
:1049B000061C079884421ED0731C00D0CAE04446EF
:1049C0000597B04608954D4620E0A946059F464606
:1049D000A046089D04E0A946059F4646A046089DBE
:1049E000301CFFF785FA0028D8D044460597B0461A
:1049F00008954D460AE044460597B04608954D4651
:104A000004E044460597B04608954D464046039954
:104A1000FFF74EFD069A002A21D100200899087060
:104A20001DE001235F42059719E0C046CCCCCC0CB9
:104A3000FFFFFF7F2C56000080222A430097039837
:104A400009A90A23FFF744FD059008E080222A43C4
:104A50000097039809A91023FFF73AFD0590059EDA
:104A6000002E09DA029C059F781C20D1002C1ED153
:104A70000122554202951AE001273D406A426A41EF
:104A8000029DA81802900499059BCE180496A14691
:104A90003BE601214A42029209E0002FB6DDBF1831
:104AA0000797059AD143C819C1078ED539E00298F6
:104AB0000BB03CBC90469946A246AB46F0BD424680
:104AC000002A01D1287001350498484500D1F4E648
:104AD000002E00D1DAE6071C013704970398FFF790
:104AE0006DF9411C00D1DAE64346002B01D1287054
:104AF000013504994646494500D0C9E6DDE601374F
:104B000004970398FFF75AF9411C00D1C7E6002E1D
:104B100001D128700135049A4A4500D0B8E6B04664
:104B2000CBE64046FFF7E4F9002800D06EE7069E8A
:104B3000002E04D14346089F3B7001370897059A21
:104B4000013205920398FFF739F98046431C00D0E3
:104B500041E75BE7301CFFF7CBF9002800D050E7B6
:104B6000069B002B01D12E700135671C0398FFF7BF
:104B700025F9061C411C00D032E7444605978046C3
:104B800008954D4642E7C04638B5041C0D1C00F0A0
:104B900013F8074B1D608020044306490C600A1C73
:104BA0001468002CFCD100F009F8014D286838BDCC
:104BB00080180010841800107047C0467047C04627
:104BC00076302E303600284A756E2020382032305C
:104BD000313429007761747465726F74742E636F59
:104BE0006D00502530336920482530336920562523
:104BF000303369004E415600454E43007072657374
:104C000073004E6F20636F6E666967206461746124
:104C10002E000000000000000000307878303000E6
:104C200030006C6C6C00000000006C6CFE6CFE6C64
:104C30006C00307CC0780CF8300000C6CC183066B0
:104C4000C600386C3876DCCC76006060C0000000AE
:104C5000000018306060603018006030181818309C
:104C6000600000663CFF3C660000003030FC3030E5
:104C700000000000000000703060000000FC000038
:104C800000000000000000303000060C183060C04A
:104C9000800078CCDCFCECCC780030F03030303068
:104CA000FC0078CC0C3860CCFC0078CC0C380CCCF8
:104CB00078001C3C6CCCFE0C0C00FCC0F80C0CCC3E
:104CC00078003860C0F8CCCC7800FCCC0C18306090
:104CD000600078CCCC78CCCC780078CCCC7C0C182C
:104CE00070000000303000303000000030300070C4
:104CF0003060183060C0603018000000FC00FC001C
:104D000000006030180C1830600078CC0C183000AF
:104D100030007CC6DEDEDEC078003078CCCCFCCC47
:104D2000CC00FC66667C6666FC003C66C0C0C06663
:104D30003C00FC6C6666666CFC00FE62687868622B
:104D4000FE00FE6268786860F0003C66C0C0CE6617
:104D50003E00CCCCCCFCCCCCCC00783030303030E9
:104D600078001E0C0C0CCCCC7800E6666C786C6677
:104D7000E600F06060606266FE00C6EEFED6C6C663
:104D8000C600C6E6F6DECEC6C600386CC6C6C66C21
:104D90003800FC66667C6060F00078CCCCCCDC78B7
:104DA0001C00FC66667C786CE60078CCE0381CCC95
:104DB0007800FCB4303030307800CCCCCCCCCCCCCB
:104DC000FC00CCCCCCCCCC783000C6C6C6D6FEEE2F
:104DD000C600C6C66C386CC6C600CCCCCC783030A9
:104DE0007800FECC983062C6FE007860606060603B
:104DF0007800C06030180C060200781818181818CF
:104E0000780010386CC600000000000000000000B0
:104E100000FF30301800000000000000780C7CCC4F
:104E20007600E0607C666666BC00000078CCC0CC92
:104E300078001C0C0C7CCCCC7600000078CCFCC03C
:104E40007800386C60F06060F000000076CCCC7CBC
:104E50000CF8E0606C766666E6003000703030304A
:104E60007800180078181818D870E060666C786CB4
:104E7000E60070303030303078000000ECFED6C6EE
:104E8000C6000000F8CCCCCCCC00000078CCCCCC58
:104E900078000000DC66667C60F0000076CCCC7C9C
:104EA0000C1E0000D86C6C60F00000007CC0780C18
:104EB000F80010307C30303418000000CCCCCCCC62
:104EC00076000000CCCCCC7830000000C6C6D6FE00
:104ED0006C000000C66C386CC6000000CCCCCC7CEA
:104EE0000CF80000FC983064FC001C3030E03030DE
:104EF0001C001818180018181800E030301C30304A
:104F0000E00076DC00000000000010386CC6C6C669
:104F1000FE0078CCC0C0CC78306000CC00CCCCCCCB
:104F20007E00183078CCFCC078007EC33C063E661C
:104F30003F00CC00780C7CCC7E006030780C7CCCC0
:104F40007E003C663C063E663F000078CCC0CC78D4
:104F500030607EC33C667E603C00CC0078CCFCC0F8
:104F60007800603078CCFCC07800CC0070303030F5
:104F700078007CC6381818183C006030703030302B
:104F80007800CC3078CCCCFCCC0030483078CCFCED
:104F9000CC001830FC607860FC0000007F0C7FCCF7
:104FA0007F003E6CCCFECCCCCE0078CC0078CCCC54
:104FB000780000CC0078CCCC780060300078CCCC85
:104FC000780078CC00CCCCCC7E00603000CCCCCC4F
:104FD0007E0000CC00CCCCFC0CF8C6007CC6C6C65B
:104FE0007C00CC00CCCCCCCC780000007CCED6E6CB
:104FF0007C00386C64F060E6FC003A6CCED6E66C5F
:10500000B8000000CC783078CC000E1B187E181841
:10501000D8701830780C7CCC7E001830703030306E
:1050200078000C180078CCCC78000C1800CCCCCCD4
:105030007E0076DC00F8CCCCCC0076DC00ECFCDC2E
:10504000CC003C6C6C3E007E00003C66663C007E02
:10505000000030003060C0CC78003C5AA5B9A96689
:105060003C00000000FC0C0C0000E66C787E63CE77
:10507000981FE66C787367CD9F0300180018183CE2
:105080003C18003366CC6633000000CC663366CC37
:105090000000228822882288228855AA55AA55AA6B
:1050A00055AADD77DD77DD77DD7718181818181821
:1050B000181818181818F81818180C183078CCFC8C
:1050C000CC0078843078CCFCCC00C0603078CCFC4C
:1050D000CC003C42B9A1B9423C003636F606F63661
:1050E000363636363636363636360000FE06F63674
:1050F00036363636F606FE00000018187EC0C07E32
:105100001818CCCC78FC30FC303000000000F818C7
:105110001818181818181F00000018181818FF0081
:10512000000000000000FF181818181818181F18A1
:10513000181800000000FF00000018181818FF18C9
:10514000181876DC780C7CCC7E0076DC3078CCFCD1
:10515000CC00363637303F00000000003F30373695
:1051600036363636F700FF0000000000FF00F73645
:10517000363636363730373636360000FF00FF0019
:1051800000003636F700F73636360082FE6C6CFECD
:105190008200D870D80C3C6C3800FC6C66F6666CEB
:1051A000FC007884FC607860FC00CC00FC607860D7
:1051B000FC006030FC607860FC0000C040E0000053
:1051C0000000183078303030780078847830303013
:1051D0007800CC0078303030780018181818F800B3
:1051E0000000000000001F181818FFFFFFFFFFFF5E
:1051F000FFFF00000000FFFFFFFF1818180018183D
:1052000018006030783030307800FFFFFFFF00007A
:10521000000018307CC6C6C67C000078CCF8CCF8FC
:10522000C0C07C827CC6C6C67C0030187CC6C6C6A0
:105230007C0076DC0078CCCC780076DC7CC6C6C6F8
:105240007C0000666666667C60C000E0786C786012
:10525000F000F0607C667C60F0001830CCCCCCCCE8
:105260007800788400CCCCCC78006030CCCCCCCC2E
:105270007800183000CCCCFC0CF81830CCCC78304E
:10528000780000FC00000000000018300000000062
:10529000000000000000FC0000003030FC30300056
:1052A000FC00000000FC00FC0000E62C7833E7CD99
:1052B0009F037FDBDB7B1B1B1B007EC378CCCC7882
:1052C0008CF8303000FC003030000000000000009E
:1052D0003060386C6C380000000000CC000000002A
:1052E00000000000000018000000387818187E0048
:1052F00000000030383C3C38300000666666666668
:105300006600007E7E7E7E7E7E0000000000000043
:1053100000004150D4412CD4420201D4422601D491
:10532000422609D442260BD442260FD44210014211
:105330002002422402422801422AD0423000423256
:105340000E42340D42360041614240004342028128
:10535000434302814151D400303132333435363742
:1053600038396162636465663031323334353637DB
:105370003839414243444546B83F0000DA3F000017
:10538000DA3F0000BC3F0000DA3F0000DA3F0000D7
:10539000DA3F0000C03F0000DA3F0000DA3F0000C3
:1053A000DA3F0000C63F0000DA3F0000CC3F0000BB
:1053B000DA3F0000DA3F0000D23F00006044000006
:1053C000AA400000AA400000AA400000AA40000035
:1053D000AA400000AA400000AA400000AA40000025
:1053E000AA400000AA400000AA400000AA40000015
:1053F000AA400000AA400000AA400000AA40000005
:10540000AA400000AA400000AA400000AA400000F4
:10541000AA400000AA400000AA400000AA400000E4
:10542000AA400000AA400000AA400000AA400000D4
:10543000AA400000AA400000AA400000AA400000C4
:10544000AA400000AA400000AA400000AA400000B4
:10545000C6400000AA400000AA400000AA40000088
:10546000AA400000AA400000AA400000AA40000094
:10547000AA400000AA400000AA400000AA40000084
:10548000AA400000AA400000AA400000AA40000074
:10549000AA400000AA400000AA400000AA40000064
:1054A000AA400000AA400000AA400000AA40000054
:1054B000AA400000AA400000AA400000AA40000044
:1054C000AA400000AA400000AA400000AA40000034
:1054D000AA400000AA400000AA400000AA40000024
:1054E000AA400000AA400000AA400000AA40000014
:1054F000AA400000AA400000AA400000AA40000004
:10550000AA400000AA400000AA400000AA400000F3
:10551000AA400000AA400000AA400000C8410000C4
:10552000AA400000AA400000AA400000AA400000D3
:10553000AA400000AA400000AA400000AA400000C3
:10554000AA400000AA400000D04000002A4200000B
:10555000AA400000AA400000AA400000AA400000A3
:105560002A420000AA400000AA400000AA40000011
:10557000AA4000000A410000FE410000A6410000D0
:10558000AA400000AA4000002C410000AA400000F0
:1055900018420000AA400000AA400000DA410000C2
:1055A000F44200008643000086430000864300006A
:1055B00086430000864300008643000086430000C7
:1055C00086430000864300008643000086430000B7
:1055D000EC42000086430000864300008643000042
:1055E00086430000EC420000864300008643000032
:1055F000864300008643000086430000C24200004C
:10560000F442000086430000864300008643000009
:1056100086430000EC420000864300008643000001
:10562000F4420000286E756C6C2900000C480000E4
:10563000AE4A0000AE4A0000AE4A0000AE4A00008A
:10564000AE4A0000AE4A0000AE4A0000AE4A00007A
:10565000AE4A0000AE4A0000AE4A0000AE4A00006A
:10566000AE4A0000AE4A0000AE4A0000AE4A00005A
:10567000AE4A0000AE4A0000AE4A0000AE4A00004A
:10568000AE4A0000AE4A0000AE4A0000AE4A00003A
:10569000AE4A0000AE4A0000AE4A0000AE4A00002A
:1056A000AE4A0000AE4A0000AE4A0000AE4A00001A
:1056B000AE4A0000AE4A0000AE4A0000AE4A00000A
:1056C000AE4A0000AE4A0000AE4A0000AE4A0000FA
:1056D000AE4A0000AE4A0000AE4A0000AE4A0000EA
:1056E000AE4A0000AE4A0000AE4A0000AE4A0000DA
:1056F000AE4A0000AE4A00004C4A0000AE4A00002C
:10570000AE4A0000AE4A0000AE4A0000AE4A0000B9
:10571000AE4A0000AE4A0000AE4A0000AE4A0000A9
:10572000AE4A000044480000CC480000AE4A0000E9
:10573000AE4A0000AE4A0000AE4A0000E048000059
:10574000AE4A0000AE4A0000AE4A0000AE4A000079
:10575000F44800002A4900003E490000AE4A00001B
:10576000AE4A000054490000AE4A0000384A00002A
:0C577000AE4A0000AE4A00004C4A0000A7
:10577C00807F0000001BB700802500007520000012
:10578C0020000000F11E0000C9200000A51E000032
:0C579C00151E000009200000CD1E0000BA
:04000003000001ED0B
:00000001FF
