:10000000E01F0010ED010000F5010000F701000005
:10001000F9010000FB010000FD01000056D4FFEFD4
:10002000000000000000000000000000FF010000D0
:10003000010200000000000003020000D9030000DC
:10004000070200000702000007020000070200008C
:10005000070200000702000007020000070200007C
:10006000070200000702000007020000070200006C
:1000700007020000090200000B020000BD22000080
:100080000F02000011020000130200001502000020
:10009000792400008125000000000000000000001D
:1000A0001B0200001D0200001F02000000000000F3
:1000B000210200002302000025020000AD250000FF
:1000C0002F49072291438D462E492F480A1A06D000
:1000D0000722914381F30988022282F314882B4876
:1000E0002B492C4A00F039F82B482C492C4A00F0B7
:1000F00034F82C482C492D4A00F02FF82C482D4973
:100100002D4A00F02AF82D482D492E4A00F025F8F6
:100110002D482E492E4A00F020F82E482E49002264
:1001200000F026F82D482E49091A082903DB002281
:100130000260043001601F481F49884205D00268F0
:10014000043003B4904703BCF7E700208646EC4632
:1001500000200021234A9047FEE7884207D0521A28
:1001600005D0037801300B700131013AF9D17047A5
:10017000884202D002700130FAE770471A4870478F
:10018000E01F0010E01F0010E01F00106C60000076
:10019000000000102C0000103002000030020000AF
:1001A000305400006C6000000000001000000010DF
:1001B000305400003054000030540000305400002F
:1001C000305400003054000030540000305400001F
:1001D0006C6000002C000010A4180010A41800107F
:1001E000A41900103D120000FFFFFFFF0E480F4949
:1001F000016065E7FEE7FEE7FEE7FEE7FEE7FEE7F4
:10020000FEE7FEE7FEE7FEE7FEE7FEE7FEE7FEE7C6
:10021000FEE7FEE7FEE7FEE7FEE7FEE7FEE7FEE7B6
:10022000FEE7FEE7FEE7FEE7008004400200000074
:10023000094B421E01209A420DD8084B5A60084AC9
:10024000106A0102080AC021090601431162002058
:10025000072298601A607047FFFFFF0010E000E07F
:1002600000ED00E0F8B54F4B4F4C984217D006D840
:100270004E4988420CD04E4A904206D10BE04D4D7B
:10028000A8420FD04C4EB0420FD02060002704E0AF
:10029000206000270BE020604127002208E020605A
:1002A000412704E020604227F7E72060222701224F
:1002B00072B6424B8E2081005D58002A05D0202066
:1002C00085435D500021196202E00326B5435D506D
:1002D000C826C046013E002EFBD101251A645D648C
:1002E0005E645D64596C012634483142FAD0002FB7
:1002F00015D087608E27B90045588026B5434550F4
:10030000D96801202D4F0142FAD0032500263D6710
:1003100078677E6778675F6FF807FCD50DE0026746
:100320004667476746675D6F244FED07FBD58E2014
:1003300081007D58802635437D508E218D00002A16
:1003400002D05A59032001E05A59202002435A5141
:1003500025681B4E1B4BB54201D9022105E01A4FFF
:10036000BD4201D9012100E000210022D960281CF2
:100370001A61164904F026F9154E164B37680138F4
:100380001F4000020743281CFA25A900376004F02B
:1003900019F9FFF74DFFFF2002F0BAFA62B62068A4
:1003A000F8BDC0460048E801040000100024F40035
:1003B00000366E0100512502006CDC020080044012
:1003C000FF59620200000140FF2C310100093D008D
:1003D00000C00140FF00FFFF024B1A6801321A60A3
:1003E0007047C0462C000010094A8121131C90332D
:1003F00010B51960074B002080241862210258585C
:1004000008242043585094320123136010BDC04685
:10041000004004400000015010B505283CD010D821
:1004200004287DD13F4A404C0223136021681020EC
:100430000143216023688021480418432060111C77
:100440001DE0072840D0FF286AD1364C374A812169
:1004500021608023082111628B40D0580124014380
:10046000D1503349304B0C60186820242043186069
:100470001C6880204004204318600C1C40E0236A64
:10048000294A002BFBDA14682A4820401060126ABF
:100490001304980D912231E0254C234B012121605A
:1004A0001A68202002431A601A6880214804104309
:1004B0001860211C5A6A1C4C002AFBDA20681D4B6C
:1004C00003402360626A16E01B4A174B012111604A
:1004D0001C68802004431C601C6880214804204361
:1004E0001860111CDC6A104A002CFBDA1068114BF2
:1004F00003401360D26A1404A00D90220A6010E039
:10050000586A09490028FBDA08680A4B03400B6067
:10051000496A8023236008040024800D146200E0EF
:10052000002010BD9040044000C001400000015078
:100530009440044000FFFFF898400440084B1A78AC
:1005400010431870074801788A0607D5064BA0208B
:100550001A78C105002A00D008220A627047C046F6
:10056000361000103000001035100010094B1A78BA
:10057000824309481A7001788A0609D5074BA020E2
:100580001A78C105002A01D1082300E000230B627C
:100590007047C046361000103000001035100010B3
:1005A000014B18687047C0462C000010034B1968B7
:1005B0001A68521A8242FBD37047C0462C000010C2
:1005C00038B5041C0B4D04D101235842A8616C605E
:1005D0000DE0C3B2642B00D96424E4B201202104ED
:1005E0006860081B642103F0CFFFC243AA61201C8E
:1005F00038BDC04600000140274AF8B5274E082301
:1006000013623168202421433160356880277B04E0
:100610002B433360151C341C626A204B002AFBDA22
:100620001E681F490E401E605F6A1E683A0420273C
:100630003E431E601F68802676043E431E60920D76
:100640000B1C676A1549002FFBDA0C68154F234015
:100650000B604E6A00232B623504A90D8A4213D128
:10066000C8246423A600B24203D80A23642A00D90E
:10067000D3083D785919CAB25408844201D83C7055
:1006800000E03870387803E03A78002A02D13870F8
:10069000FFF796FF3878F8BD0000015000C0014018
:1006A00000FFFFF83410001008B5002802D1034BFA
:1006B000186801E0FFF7D6FD08BDC0460400001031
:1006C00070B572B6294B12211A1CFC328E2051656E
:1006D00084001D59102001228543254E1D519A6723
:1006E0000433DE678021A023DC050B02E558214995
:1006F00004262E400D1CA435E650C86128604866CB
:10070000E65808253540E550C8621B488025C45886
:10071000AD001443C450002444601848C658354303
:10072000C55080231E0184511548212355428A63F8
:100730008460C46004610467446185614267C36387
:100740004260104A10491668301C03F03BFF0F4D01
:100750000F490138000208602C60FA24A100301C07
:1007600003F030FFFFF764FD62B670BD0080044007
:100770005F210100004004400000035000000150D0
:10078000000001400400001000093D002C00001092
:1007900000C00140F0B593B0029318AB041C187868
:1007A0000091019219A91AAA1BAF0D7816883F88EB
:1007B000039003F0A9FC016842680A9181680B92DA
:1007C000C26805AB0C9101690D925D7342696D467B
:1007D0000E911F82DE81009F2E790C210F9280697D
:1007E0004A5D9C7108256C461E7307972E5D064F67
:1007F00010905A71181C0D21044A1E71059701F0C2
:100800009DFB13B0F0BDC046EFBEADDE340000105E
:10081000F0B593B00591664A06A90B1C071C31CAB6
:1008200031C331CA31C303F0FFFD03F093FC03F081
:100830007FFC002826D0059803F05CF8002001908A
:1008400002900A200097011C5A4A012302F086F9FF
:1008500003F06EFCC82815D903F07CFCF8E701F022
:10086000D9FF002800D093E0049902292BD9049BDA
:10087000FF2B00D191E006A80CA903F0C9FB0028CA
:1008800000D18AE0059803F035F8B42003F070F841
:10089000494E4A4D002480212A1C0223080200965A
:1008A00082210194029402F059F9201C03F060F8AF
:1008B0008022100200960194029482212A1C0223B5
:1008C00002F04CF90494049B06ADDC002E19285B61
:1008D000B1880F223B1C02F089FA295BB388081CFF
:1008E0000A3803398AB280B2191C009702F026FF39
:1008F0002A5BB388D11C0A3288B292B2191C0097C5
:1009000002F01CFFB3882A5B181C0A38033B81B233
:100910009BB2101C009702F011FFB3882A5BD91C10
:100920000A339BB2101C89B2009702F007FF03F054
:1009300011FC03F097FA03F0CBFD1C4B1A4A03F0AD
:100940001BFE00288BD0F823285BB1881B020422F1
:1009500002F068FCC8225000FFF728FE285BB1882F
:100960000F22059B02F05EFC03F0EEFB0CAD605124
:1009700003F0E4FB049E2C1901366060F0B2049091
:1009800003F0D6FBC82800D869E703F0E3FBF7E7DC
:1009900001F000FF002800D066E703F045FD059850
:1009A00002F0A8FF13B0F0BD0000000000C07240CC
:1009B0003054000048540000108400005C540000D3
:1009C000F0B55A4C95B023782F226A4413700690E4
:1009D000079103F029FDFFF707FD1220F821207091
:1009E0000D020020FC26011C00956A22EF23F7006F
:1009F00002F012FB1F246A200021D422EF2300976B
:100A000002F00AFBD4200021494AEF23009400257C
:100A100002F002FB802318027321464A2B1C00952A
:100A20000195029502F09AF8802210027D21424A37
:100A30002B1C00950195029502F090F88020E6218C
:100A400000950195029500023C4A012302F086F8C8
:100A500001212E1C0A950995059103F07BFB03F0FB
:100A600001FA374D089000282AD003F069FA041CD7
:100A700003F0FEF9099B071C9C4202D10A9A90429E
:100A80001AD0201C391C0422069B02F0CBFB0898CC
:100A90002C490090221C231C0CA803F06DFE069923
:100AA000079B01220520009101930292011C0CAAD0
:100AB000002302F053F80A9701276F60099401E0C0
:100AC000089F6F60194C2078C20619D51E490B6823
:100AD0009A1B632A14D964200E68FFF78DFD1B4909
:100AE000021C0CA803F048FE069F079C0120029000
:100AF0000097019405200F210CAA002302F02EF884
:100B000001F088FE002802D001F044FE059005990E
:100B10000029A2D16960079802F0ECFE2F236B44F4
:100B2000024D1A782A7015B0F0BDC0463000001092
:100B30003F010000685400006E5400007C54000027
:100B4000000003508A5400002C0000109C54000048
:100B5000F0B58BB00990081C0F1C069202F0CAFE7B
:100B6000069B6946D80007901C310A88022405922A
:100B7000261C01F04FFE002831D001F00BFE051EAF
:100B80000A2D05D00D2803D0092808D1202506E01C
:100B9000002E10D0059EA419A4B202260BE0099BDA
:100BA0000120009302900197301C211C2A1C069BF7
:100BB00001F006FF061C02F007FF864203D30599E9
:100BC0000226621894B2079BE018089002F002FF18
:100BD0000899814203DB381C02F08CFE0224002DB0
:100BE000C7D1381C02F086FE0BB0F0BDF0B5B04E98
:100BF00087B001913168049088473268029090472D
:100C0000336805909847041C30688047051C01F044
:100C1000C1FD7F21071C8F43FAB2071C0F400392CE
:100C200003F018F9029B059918194B190138013B7B
:100C300082B29BB2029802F011FF02F0F9FE022F7D
:100C400007D0042F0AD0012F11D19A490191002118
:100C50000CE0984A00200190049208E00198049A60
:100C6000019B504043405840019381B20491924B04
:100C7000039819680291002800D0BDE065430B2F4E
:100C800006D8082F44D2013F032F00D984E016E094
:100C9000182F00D080E0A3E001F0BCFD002816D0A2
:100CA00001F078FD2E1C071C083E8024274209D045
:100CB0000498013D02F0A8FE6408B54204D1002D5D
:100CC000EAD10CE00198F4E7002DEFD107E07A4E6D
:100CD00002993468FA20621AC3009A42EFD903F0ED
:100CE000AFF807B0F0BD0A2F3AD1C024382604402F
:100CF000064009217C434E436201B3000724204093
:100D00001A438600101C304380B202F07DFE013D84
:100D1000002DE4D001F07EFD00282BD001F03AFD3B
:100D2000082F0CD10722E02318260340024015218A
:100D3000304041431C02920022438B000EE0092FF9
:100D4000D1D1032202400A21E0231C2603404A435A
:100D50003040391C41431C022243CB00101C07E0E9
:100D6000F821FC2201401040C0000E023043CB109D
:100D70001843CAE7504902980A68FA23161ADC0099
:100D8000A642C5D9ABE701F045FD002807D037687A
:100D9000B84702F039FE013D002DF4D19FE7464FE0
:100DA000029A3868FA23841AD9008C42F4D996E75B
:100DB00001F030FD002816D001F0ECFC071C01F01A
:100DC000E9FCFC26F822174030403B02C4001C43DB
:100DD00001F0E0FCC108C8B2204302F015FE013D5D
:100DE000002DE5D17BE7344E029A3068FA23841A4D
:100DF000D9008C42F4D972E7039A802A00D06EE7BA
:100E000065430B2F08D8082F00D383E07C1E032CEA
:100E100000D917E12F1C13E0182F00D012E151E187
:100E2000002F09D0039B2B4222D00498013F02F0EF
:100E3000EBFD6D08B742F3D1013CE4B2002C19D1AF
:100E4000002F00D14BE701F0E5FC002826D001F08F
:100E5000A1FC051EAA2D10D101F09CFC041E00D19E
:100E60003DE701F097FC03903E1C083E8025D9E742
:100E70000198DBE7002FF7D131E73E1C083E8024C4
:100E8000254201D0049800E00198013F02F0BCFD2A
:100E90006408B742D4D0002FF2D120E7064D029B60
:100EA0002E68FA20F11AC2009142C9D917E7C0464C
:100EB00018000010FFFF00002C00001001F0AAFC39
:100EC000002800D197E001F065FCAA2853D101F079
:100ED00061FC0190002800D101E701F05BFC082FC4
:100EE0001BD10726E023182406400340152120408B
:100EF0004843B6001A021643800006432C1C301CDF
:100F000002F082FD013C019B601B1A18D1B200293E
:100F10002ED1251C002DD1D1E1E6092F0CD10326BD
:100F2000E0221C21064002400A2308405E43784329
:100F300014022643C000E0E70A2F0FD1C021014070
:100F4000382379430340092253434E0107219C0073
:100F50000840264380000643B6B2CFE7F823FC22C0
:100F600003401040C60018020643DC102643C5E7C4
:100F7000002CC4D1CDE7082F0CD10722E02318267E
:100F8000034002401521304041431C02920022439D
:100F90008B000EE0092F0ED1032202400A21E0232C
:100FA0001C2603404A433040391C41431C02224363
:100FB000CB00101C1AE00A2F10D1C02438260440A0
:100FC000064009217C434E436201B30007242040C0
:100FD0001A438600101C304380B208E0F821FC223E
:100FE00001401040C0000E023043CB10184302F005
:100FF0000BFD6C1E8DE74549029A0868FA23861A94
:10100000DC00A64200D96AE62C1C82E701F002FC53
:10101000002821D03768B8473D4A904218D101F0E6
:10102000B9FB071E00D15AE6306880472C1C01909E
:101030000198013C02F0E8FC631BF918CAB2002ACF
:1010400003D1251C002DE1D149E6002CF0D1F8E7B1
:1010500002F0DAFC6C1EF4E72C4F02983C68FA238D
:10106000221AD9008A4200D939E62C1CE9E701F09E
:10107000D1FB00283ED001F08DFB061EAA2E27D101
:1010800001F088FB061E00D129E601F083FB041C59
:1010900001F080FBFC21021CF8200A4004402302DE
:1010A000D7001F4301F076FBC408E1B20F432C1CAC
:1010B000381C013C02F0A8FC621BB018C3B2002B24
:1010C00003D1251C002DD2D109E6002CF0D1F8E780
:1010D00001F060FBFC221040C700F820064001F040
:1010E00059FB3402C3083C43D8B2204302F08CFCC5
:1010F0006C1EE6E7054E029F3468FA23E01BD90018
:10110000884200D9EBE52C1CDBE7C0462C00001020
:10111000AAAA0000F0B5474D8BB005922A68089145
:10112000079090472B68061C041C98470990049070
:1011300001F030FBC143CFB2FD097F22071C1740ED
:10114000781E06951D2800D90127059B0025AB4276
:1011500002D101F01FFB051C80210A0296420CD12E
:1011600002F032FCFE006E4344087010231A9EB257
:1011700002F02AFC8642A4413440099A80210802E8
:1011800082420BD102F026FCBB004608F11A8EB257
:1011900002F020FC8642804106400496264A059BC8
:1011A0001668002B39D1002D42D001F033FB002806
:1011B00016D001F0EFFA059002F006FC84420CD242
:1011C00007990898069A009101900292201C0499B0
:1011D000059A3B1C01F0F4FB041C013DEDB2E2E773
:1011E000154BFA221968D300881B9842DBD91FE0FF
:1011F00001F0D0FA051E1BD002F0E6FB84420CD2AF
:1012000007990898069A009101900292201C04996F
:101210002A1C3B1C01F0D4FB041C01F0FBFA002843
:10122000E6D1054DFA222968D300881B9842F4D9EB
:101230000BB0F0BD180000102C000010F0B58DB000
:10124000FFF73EFAB44CB54B2168181C8D7919682C
:10125000A022D6053769002F33D002F0C1FB2068E9
:10126000AF4E0168B1423CD0AE4FAF48FFF71CFA19
:10127000381C002502F03EFB0A20AC4A011C012369
:1012800000950195029501F069FC3220FFF798F96D
:10129000FA239800FFF78AF9281C391CFFF7B8FADF
:1012A000962291010095019502950220202230237B
:1012B0000397FFF76FFA281C391CFFF781FB022503
:1012C0000FE003685A1A632AC7D880252B01F65805
:1012D0000425002EBCD0964F7D686B1E9D410135C4
:1012E000B6E72068934900794843FFF7DDF9924E4D
:1012F0003778BE0701D503F097F82668776AB16999
:101300007069F269336A0097B76A0197F66A0296C4
:1013100002F0FEFE2368DA890792188A059002F02F
:10132000E9FA21684879FFF74BF92768B86801F0B6
:1013300087F92668307B01F091F82468607B01F022
:1013400083FA281C002501F0E3FA09950A950B950C
:101350000895724B784F1C683A78D1060DD501F08C
:1013600059FA002809D10998744E211AB14204D9BA
:101370000898FFF741F9099408903B7802252B4221
:1013800015D00B9F0A98E21B824207D302F0E2FEBF
:101390000B94002802D0281CFFF7D0F801F03AFA8D
:1013A000002802D10A220A92D3E732240A9401F0DB
:1013B000F1F9372800D163E300D9C7E0252800D12F
:1013C00070E245D8112800D138E21ED8042800D197
:1013D00098E10DD8022800D179E100D986E10128F1
:1013E00001D000F05CFD564801F0C6F900F057FD51
:1013F000062800D1DFE100D288E1072800D10AE207
:10140000102801D000F04BFD0CE2202800D122E290
:101410000DD8132800D119E200D212E2142801D00D
:1014200000F03DFD01F0B6F902F0E6FC91E722285C
:1014300000D11BE200D213E2232800D11BE22428B2
:1014400001D000F02CFD3F4803689847079080E7E3
:101450002E2800D153E227D8292800D130E20DD818
:10146000272800D123E200D926E207980599012216
:10147000FFF76EFB344A2620116835E12B2800D196
:1014800024E200D21EE22C2800D12CE22D2801D02B
:1014900000F005FD2B4E336898473568071CA847B8
:1014A000059A011C381C27E2322800D173E213D8B8
:1014B000244D302800D137E200D949E22E68B047E8
:1014C0002968071C8847061C286880472B68041C6D
:1014D0009847079D031C34E2342800D19DE200D2D6
:1014E0007AE2352800D1B2E2362801D000F0D7FCEC
:1014F000144C226890472768061CB8472168051CD1
:101500008847071C20688047F3192C18013B013CD1
:101510009AB20599A3B2ADE2000000102C000010B1
:10152000EFBEADDEFFFF0000006CDC02A554000042
:10153000FC00015040420F0030000010F301000099
:10154000695400001800001020000010492800D144
:10155000DAE377D8402800D158E341D83B2800D1BE
:10156000DEE218D8C64C392800D1A3E200D9B9E28E
:10157000206880472368061C98472168051C884717
:101580002268071C9047F41928180138013C83B2DF
:10159000A2B20798A0E23D2800D1F9E200D2D8E239
:1015A0003E2800D113E33F2801D000F078FCB44C72
:1015B0002668B0472268051C90472768061CB84774
:1015C0002368071C9847216804908847EC19049FFA
:1015D000013CF319013B0090A2B29BB205980EE3C7
:1015E000442800D146E312D8A54C422800D11EE37E
:1015F00000D92FE32568A847061C20688047226889
:10160000071C9047391C021C079B301C1BE3462813
:1016100000D14EE300D23BE3472800D15EE34828E7
:1016200001D000F03CFC964C236898472568071CC5
:10163000A847061C206880472268051C904705992A
:10164000031C59E3802800D1A7E326D84D2800D1F8
:101650008CE313D88A4C4B2800D16AE300D97DE390
:10166000226890472168071C88472368061C984712
:10167000051C20688047031C079867E34F2800D1AA
:101680007BE300D275E3502800D17FE3512801D0DD
:1016900000F005FC059807997AE3842800D18FE3D0
:1016A00009D8784B822800D184E300D984E31C68F0
:1016B00002F046FCA0E3862800D19FE300D289E334
:1016C000872800D1DAE3FA2800D0E8E38AE0089F0F
:1016D000002F02D13220FEF773FF07980599FFF71C
:1016E0006FF9694A022011688847D8E36749664B59
:1016F0000E781D68301CA84701F060F8301CFEF71A
:1017000035FF26E6604C33202168EDE701F042F812
:101710000138062800D91CE602F07EFF0423282E9B
:1017200033383F0001F0EEF8071C01F0E5F8061C25
:1017300001F0DCF8564A051C5649106802F042FFD9
:10174000C4B201F0CDF80899059B0190079800916B
:1017500002900393381C311C2A1C231CFFF71AF833
:10176000F7E501F017F801F0D3F8F2E54A4E3368D7
:10177000984700F065FFECE501F00CF800F06EFE14
:10178000E7E501F007F801F05FF8E2E501F002F8A3
:1017900040494843FEF788FFDBE500F0FBFF061CED
:1017A000870701D502F040FEF10601D5FEF71CFEC9
:1017B0003A4F3E70CDE500F0EDFF0138052800D925
:1017C000C7E5A025EC0502F027FF030A1E13101B36
:1017D00080273D026259082111406151B9E5206A14
:1017E000431E9841284D29687EE72D4A002111703B
:1017F00080200302E65808210E43E6502162A8E546
:10180000274B0120187080263702E559082215431E
:10181000E5510021F2E700F0BDFF1A4C2568FEF704
:10182000FBFD21E000F0B6FFFF2803D11648016858
:10183000089859E7FEF7C4FE08908AE502F0D0F850
:1018400087E500F0A7FF02F0E5F982E500F0A2FFCE
:1018500002F0E0FA7DE500F09DFF02F089F878E5FE
:10186000084E356802F0B0F8A84718E3054F3D6808
:1018700002F0B0F8F8E700F08DFF02F0A7F968E594
:101880001800001014000010200000103610001086
:101890000400001040420F0024000010300000102F
:1018A00035100010EA4A1768B847059051E50798C7
:1018B0000599FFF79BF94CE5E54C2068804702E06D
:1018C000079800E0059802F015F842E5E04F386807
:1018D00080473B68041C98473A68051C9047291CC0
:1018E000021C201C08E0DA4C226890472168061C84
:1018F0008847079A011C301C01F0DCFF29E5D44C15
:1019000022689047071C2068804723680490984706
:101910002168061C88472468051CA047049900908C
:10192000321C381C2B1C10E02A6890472968071CC1
:101930008847061C286880472B68041C9847059D2B
:10194000031C0095381C311C221C01F0F7FE00E539
:101950002F68B847069000F01DFF2A68041C9047C6
:101960002D680490A847051C002C00D1F1E4B84E66
:10197000013C31688847071C30688047069B061C7D
:101980000093291C04983A1C331C01F0D7FEA4B222
:101990000497351CE8E700F0FDFEAD4D041C2A68F5
:1019A00090472E680490B047051C002C00D1D0E46D
:1019B000A74E013C306880473368071C9847079959
:1019C000061C00910498291C3A1C331C01F0B6FE39
:1019D000A4B20497351CE8E700F0DCFE9C4E041C22
:1019E0003268904735680490A847051C002C00D148
:1019F000AFE4974E013C3768B847071C3068804712
:101A0000059B061C0093291C04983A1C331C01F00A
:101A100095FEA4B20497351CE8E78D4C21688847F1
:101A20002268051C90472768061CB847071C2068D9
:101A300080472368049098470499EC197718013C73
:101A4000013F0090A2B2BBB2281C311C15E0804CB3
:101A5000226890472568061CA8472768051CB847D8
:101A6000071C20688047F3192918013B01399AB2F5
:101A70008BB207990091301C291C01F03BFE68E4F1
:101A8000734C226890472768051CB8472168061CDC
:101A900088472368071C984704902068804704996A
:101AA000EC197718013C013F0090A2B2BBB2281C90
:101AB000311C14E0206880472568061CA84722686E
:101AC000051C90472368071C9847F1192C18013909
:101AD000013C05988AB2A3B20090291C301C01F089
:101AE0009BFA36E42668B0472568061CA847236899
:101AF000051C98472168071C884722680490904776
:101B000024680690A047F319049F069CE919013B3D
:101B100001399AB201908BB20094301C291C33E039
:101B20004B4C2668B0472368051C9847061C206864
:101B300080472268071C9047216804908847049BCF
:101B4000EC19F718013C013F0090A2B2BBB2079814
:101B500017E03F4C2668B0472268051C9047236871
:101B6000061C9847071C2068804721680490884716
:101B7000049BEC19F718013C013F00900598A2B2B4
:101B8000BBB20190311C281C01F0B2FBFFF7E1FB56
:101B90002F4C2568A8472268061C90472168051C21
:101BA00088472368071C984704902068804724686A
:101BB0000690A0470499F219069C6F18013A013F5C
:101BC000019092B2BBB20094301C291C1AE0204C48
:101BD0002568A8472268051C90472168061C88478D
:101BE0002368071C98470490206880470499EC19E3
:101BF0007718013C013F00900798A2B2BBB2019058
:101C0000311C281C01F04EFAFFF7A3FB104C25688D
:101C1000A8472168071C88472368061C9847051CAD
:101C200020688047311C031C2A1C381C0BE02068EC
:101C300080472268071C90472168061C8847059B3F
:101C4000021C311C381C01F0D1F8FFF782FBC046A2
:101C500018000010216888472368071C98472568EA
:101C6000061CA8472468051CA047311C031C2A1C1D
:101C7000381C1AE08C4C23689847071C2068804762
:101C80002268061C9047311C021C079B381C0CE084
:101C9000854C2768B8472568061CA8472168071C9B
:101CA0008847059B021C391C301C01F0BBFAFFF76A
:101CB00050FB7D4C23689847071C206880472268AA
:101CC000049090472568061CA8472168051C884792
:101CD00004990090321C381C2B1C11E0724C2368B4
:101CE00098472668071CB047061C20688047226872
:101CF000051C90470799031C0091381C311C2A1CB5
:101D000000F078FFFFF725FB674C226890472168B9
:101D1000071C8847236804909847061C2068804762
:101D20002468051CA04704990090321C381C2B1C09
:101D300010E0226890472168071C88472368061C2A
:101D400098472468051CA047031C05980090311C87
:101D5000381C2A1C01F020FCFFF7FBFA2768B84763
:101D60002568061CA847011C301C04E0079805994B
:101D700001E00598079900220BE04B4F3A68904725
:101D80003968061C8847011C301C01E0079805993A
:101D90000122FFF7BFF9FFF7DCFA444F3D6802F07C
:101DA000CFF8A8473E6802F063F8B0473C6802F0FD
:101DB00059F821E01C681DE01C6802F0B9F91BE02D
:101DC00002F050F800280FD102F0C4F90520FEF708
:101DD000EDFBF5E702F0ACF9002805D002F0BAF906
:101DE0000520FEF7E3FBF5E7304F3E6802F0A8F868
:101DF000B0473C6802F03CF8A0474DE002F098F98B
:101E0000002805D102F0A6F90520FEF7CFFBF5E783
:101E100002F096F8051C02F02BF8041C02F088F979
:101E2000002805D002F096F90520FEF7BFFBF5E784
:101E300002F086F8061C02F01BF8B54203D9AA1B73
:101E40000123132A07DCB54201D3002303E0711BF1
:101E50001329FADD0223844204D9251A132D01DD4A
:101E6000042005E0844204D2041B132C01DD082069
:101E700003430F4FD8B23E68B0470DE0089C002CDA
:101E800002D13220FEF79CFB07980599FEF7C0FCB3
:101E9000074807688720B8470220FEF767FB00F075
:101EA0008DFCFFF756FAC046180000101400001011
:101EB0002000001000B532238BB00690079105A8D2
:101EC000059301A9024A904701980BB000BDC04696
:101ED000F11FFF1F00B58BB0332306900020059340
:101EE00008920791FEF7E0FBFA21890002F06AFBF5
:101EF00001A90990024A05A8904701980BB000BDBE
:101F0000F11FFF1F00B5031C8BB007208B4210D8B8
:101F100034220020059206930791FEF7C5FBFA21B3
:101F2000890002F04FFB01A90890034B05A89847D0
:101F300001980BB000BDC046F11FFF1F38B5051C4E
:101F40000B1C141C012000292FD072B6111CE0229A
:101F5000D20101CA01C1802000028242F9D1F821D8
:101F60000A01A01802CD013B02C0002BFAD10720C4
:101F7000011CFFF79FFF002801D0012014E007207B
:101F8000011CFFF7BFFF0028F7D10720011CFFF756
:101F900091FF0028F1D1E023211C8024D8016201A7
:101FA000FFF798FF431E984162B638BD044B0549C0
:101FB0001A8888541F20013202401A807047C04698
:101FC000621800103F180010024BDA689107FBD529
:101FD000986070470000044038B5084C051C236821
:101FE000C0B2984728042168000E88472A02100EC4
:101FF00023689847280E2568A84738BD20000010A0
:1020000038B5074C051C2368C0B2984728042168DE
:10201000000E88472A02100E2568A84738BDC04622
:102020002000001038B5044C051C2368C0B2984746
:10203000280A2168884738BD2000001038B5084CB0
:10204000051C2368000E984728022168000E884767
:102050002A04100E23689847E8B22568A84738BDBF
:102060002000001038B5074C051C00022368000E44
:1020700098472904080E22689047E8B22568A847C7
:1020800038BDC0462000001038B5044C051C23683C
:10209000000A9847E8B22168884738BD2000001040
:1020A000F0B5174B1A88174C21888A42FBD0164985
:1020B0008D5C01325005460D1E801A882788BA4271
:1020C000FCD0885C01325605720D1A801A8807020E
:1020D00020888242FCD08E5C01325205500D18805F
:1020E00036043E431F8822889742FCD0CC5D0137DE
:1020F0007905480D1880200628433043F0BDC046BE
:1021000060180010381000103B10001070B5114B13
:102110001A88114C21888A42FBD010498D5C01320B
:102120005005460D1E801A8820888242FCD08E5CA5
:1021300001325205500D18801A88360220888242DA
:10214000FCD08C5C01325105200430434A0D2843F9
:102150001A8070BD60180010381000103B1000107D
:1021600030B50C4B1A880C4908880D1C8242FAD0F5
:102170000A498C5C01325205500D18801A88288853
:102180008242FCD08D5C0132510528024A0D204369
:102190001A8030BD60180010381000103B1000107D
:1021A00030B5174B1A88174C21888A42FBD0164944
:1021B0008D5C01325005420D1A801A882D06208848
:1021C0008242FCD0885C01325205520D1A80000414
:1021D0001A8828432588AA42FCD08D5C013252051A
:1021E000520D1A802D021A8828432588AA42FCD055
:1021F0008C5C013251054A0D20431A8030BDC04627
:1022000060180010381000103B10001030B5114B52
:102210001A88114C21888A42FBD010498D5C01320A
:102220005005420D1A801A882D0420888242FCD065
:10223000885C01325205520D1A8000021A88284328
:102240002588AA42FCD08C5C013251054A0D2043FE
:102250001A8030BD60180010381000103B100010BC
:1022600030B50C4B1A880C4908880D1C8242FAD0F4
:102270000A498C5C01325205500D18801A882002E0
:102280002C88A242FCD08D5C013251054A0D2843B6
:102290001A8030BD60180010381000103B1000107C
:1022A000A023D9050A69002A04D1034B596989067C
:1022B000FBD518607047C04600800040802010B5F4
:1022C000C4056368221C2E49802B0ED004D8602BD5
:1022D00009D0702B4DD106E0A82B19D0B82B2CD0EB
:1022E000902B46D101E0012044E00B78012B0CD16A
:1022F000244A8024E305118823489C684454013112
:1023000049054C0D148004222AE0042090612BE042
:10231000022008701D4A1E4908881388984206D07A
:102320001C49C85C0133A0601F2423401380802215
:10233000D00504210160082219E00A78022A11D18F
:102340001348124A01881388994206D01148C15C8B
:102350000133A1601F242340138080230422DB0566
:102360001A6001E00421A16180230822D80582615E
:1023700005E000200424082308701460936110BD58
:102380003A100010381000103B1000103C180010DC
:10239000621800103F18001080220B4B10028022A0
:1023A000D8676C21D005094B816100210848196369
:1023B0005963426802239A4342600430C26F20216D
:1023C0008A43C2677047C04604E100E00040044011
:1023D00000800440F8B51B4B1B4D00261E70FFF714
:1023E000DBFF1A480122AF6F02634263301CFEF725
:1023F0005BF9391C02F0E6F8154902F0E3F8802495
:10240000E4056061301CFEF74FF9391C02F0DAF880
:102410000F4902F0D7F82E1D2061F36F20210B43E6
:10242000F3676F68022007436F600A4DFF232A7825
:102430008021560008481E400F024425E6600760D0
:102440002560F8BD3A1000100080044000400440B0
:1024500000350C001000001000E100E008B5044B4E
:102460001870044801788A0701D5FFF7B3FF08BD4B
:10247000100000103B1800100B4A0323D16910B55F
:102480000B4002D0106A0343136208490B88D468DA
:10249000640707D5044884680548C45401335B05C4
:1024A0005B0DF4E70B8010BD0000044038100010F5
:1024B0003B10001080220F4B5003D8670E480821B4
:1024C00042680A43426043680222934343600B48D8
:1024D00010211123C161016641668366084801210C
:1024E00042688A4342600430C36F064A1A40C2679A
:1024F0007047C04604E100E0000004400040044092
:1025000000800440FFF7FFFF10B5FFF7D3FF164B25
:102510001122DA6102211A66144C01225A66996668
:102520006068134B10436060DC6F80200001204323
:10253000D867104B06241A600F4BC722196104217B
:102540001A6059605C61D8680B4A400701D59268EF
:10255000F9E703231362546802210C435460074BCC
:1025600080225003186010BD0040044000800440E9
:1025700004800440948004400000044000E100E036
:10258000074B9A68186811074B0F022B07D1054BB0
:1025900005491A88885401325005420D1A80704747
:1025A00000800040381000103B1000100E4AA0239D
:1025B000DB0599580420014399501A690B4B002AF6
:1025C0000BD1012018600A4B5A69D10701D51B684D
:1025D000F9E780218903074B04E08021064A88033C
:1025E000D0670021196070471C800000A84004409B
:1025F0000080004000E100E004E100E00B4B80229D
:10260000802110068A03D867DA67094A094B00203F
:102610005860111C1020D061074BA431A83208600B
:102620001060D86F054A0240DA67704704E100E0A5
:10263000004004400080004004800440FFEFFFFFA2
:10264000154B70B5C218041C1448824222D8144D90
:1026500014492E780C60F2071CD5134B134A9E6F59
:1026600000201568FEF720F8311C01F0ABFF291C93
:1026700001F0A8FF211C000901F0A4FF0C4C8023ED
:10268000E168060A1943C0B2E16066602060E26852
:102690009A43E26070BDC04680DAFFFFC01C0F00A5
:1026A0003B1800100800001000800440988004408F
:1026B0000080004038B5FFF7A1FF234B23491022CB
:1026C000A020DA61C405655804229543204B65506B
:1026D000E05820491043E05065581F4B15436550A2
:1026E000E0581E4D0243E2501D4A112414601D4C57
:1026F00000212160EB6F802042011A431A49EA67EA
:102700001A4B01250D601868FFF79AFF184B03203C
:102710000722D8605D609A605D69A906FCD5596999
:102720000120014202D0124D2A68F8E7A023DA0501
:1027300015691049002D03D120608024A003086092
:1027400080231A060A6038BD00400440048000005F
:1027500008800000108000001C80000004800440FD
:10276000A4400440A84004409880044008000010A1
:102770000080004000E100E010B5041C2078002833
:1027800004D0034B013419688847F7E710BDC046F1
:1027900020000010064A1388064908888342FBD0AF
:1027A0000549C85C01335B05590D11807047C0466F
:1027B00060180010381000103B10001070B50F4B5F
:1027C0001878820718D5FDF7EBFE061C0C4D0D4C52
:1027D0002A8821888A420FD0FDF7E2FE831BFA2B5C
:1027E000F4D972B60849094E002008803080208054
:1027F0002880074D287062B670BDC0463B18001097
:10280000621800103C1800106018001038100010FA
:102810003A100010094B0020197881420CD0084A68
:10282000084B12881B889A4204D89A4204D280200E
:1028300001015218D31A98B27047C0463B180010D5
:102840003810001060180010F0B51249124F134EE6
:10285000134D144C144A154B00280CD138701448F1
:10286000144F3060144E2F602660144D144C0D60D0
:102870001460144A0CE001203870134F3760134E77
:102880002E60134D2560134C0C6013491160134AE0
:102890001A60F0BD140000103E180010180000105F
:1028A0000C00001024000010280000101C00001074
:1028B000612200000D220000A121000089200000FB
:1028C000652000003D200000612100000D21000076
:1028D000A12000002520000001200000D91F0000D9
:1028E000014B18787047C0463E180010014B18780D
:1028F0007047C04610000010014B18687047C04672
:1029000008000010014B18787047C0463B180010B3
:1029100038B5051CFFF752FF1E4C23789A0701D5E6
:10292000FFF73AFD2078420701D5FFF7C3FD217874
:10293000CA0701D5FFF762FE174A1078FFF784FF38
:10294000164B00201880164A164B10801880164A25
:10295000164B10801870FF2D02D12578854217D0B4
:102960001348012D0ED0042D06D0124A02212170E9
:102970000260FFF72FFD0AE00F4B25700360FFF7A1
:10298000C3FD04E025700D4D0560FFF793FE207830
:1029900038BDC0463B1800103E18001060180010EB
:1029A000381000103C180010621800103A10001087
:1029B00020000010AD1F0000C91F0000A122000070
:1029C000F0B58FB0069314AB02911988069B151CC5
:1029D00015AA1488DA0016AE0190101837780991FC
:1029E0000A9481B25A4C07910B972688079FB742E9
:1029F00006DC029B5749D2180C8890B2A04203DD36
:102A00000136B6B20196A0E01F2D00D89DE0069ECB
:102A1000203D013EF7B2049701F01CFA4E4BED0049
:102A2000049CEA180392002C2FD10398029B015DAD
:102A30001D19AEB2049100258027019A04985319FC
:102A40009AB2384208D0101C311C331C01F006F831
:102A500000F0EEFF09980AE00B99002909D0101C3C
:102A6000311C331C00F0FAFF00F0E2FF0A9800F07E
:102A7000CBFF01357F08082DDFD10134082CD4D1DC
:102A800001F0DEF9079C01945FE00398029C083096
:102A90000C90039906980E78019A039F049D0138C3
:102AA000C1B2AB1801370D96661803979DB2B7B245
:102AB0008023161C08220891029205930D9805990F
:102AC000084223D0301C211C2A1C3B1C00F0C6FFEE
:102AD00000F0AEFFA81B3E1B411C01364E43B6B2B0
:102AE000002E04D0099800F08FFF013EF7E76A1C22
:102AF000089B059896B2029A01335D194108013A84
:102B0000ADB205910292002AD8D117E00B9A002AA3
:102B1000EDD0301C3B1C211C2A1CAE1B00F09EFF7C
:102B200000F086FF731C3E1B01365E43B6B2002EDA
:102B3000DDD00A9800F068FF013EF7E7039F0C9E86
:102B40001C19A4B2B742A4D19AE701980FB0F0BD06
:102B50006418001068180010B5540000F0B589B072
:102B60001C1C0EAB0E1C1988151C10AB0FAA05916E
:102B70001788197806970791002C00D1012480222C
:102B80001702B84210D1194F38884308281C049303
:102B900001F014FEE1004143049A4808131A3F88EB
:102BA00099B2B94280410840802213029E4218D156
:102BB0000F4EA70031884A08D31B9FB28F42B641FF
:102BC0003E400EE00599069B079F00910193311C42
:102BD0000297231CFFF7F4FE044A01351188814255
:102BE00002D32A78002AEDD109B0F0BD6418001094
:102BF00068180010F0B58DB00793089112AB5142E0
:102C00008DB2041C188803956E460C270290BB5F9A
:102C10000798590001314143079E5B4348435243A3
:102C20007643C5180693520077000023059004955B
:102C30000A920B97019368460C210D5E002D00DD72
:102C40008AE06B460C25EE5A9F88664BA01B089ABB
:102C500085B21888B91809978FB2A84212D9624A6A
:102C60001188B9420ED901F0F5F8281C391C2A1C2C
:102C70003B1C00F0F3FE00F0DBFE029800F0C4FE07
:102C800001F0DEF8574B36191888B6B2B04212D9A7
:102C9000554A1188B9420ED901F0DCF8301C391CB4
:102CA000321C3B1C00F0DAFE00F0C2FE029800F07D
:102CB000ABFE01F0C5F84B4A089F099B1188F81A32
:102CC00087B2B14212D9484B1888B8420ED901F0E8
:102CD000C1F8301C391C321C3B1C00F0BFFE00F058
:102CE000A7FE029800F090FE01F0AAF83D4E32884F
:102CF000AA4212D93C490B88BB420ED901F0AAF86E
:102D0000281C391C2A1C3B1C00F0A8FE00F090FE79
:102D1000029800F079FE01F093F8049D05986F0089
:102D200087420ADB039E059B0B99049801365D18C8
:102D3000B2B24619039205950496069A974200DDB1
:102D400079E7019F0A99049855180137BBB24619D3
:102D50000193069504966EE700256A460420165EE8
:102D6000079BAF199F423ADA1E4F3888A04218D904
:102D7000089A019901321C485618731902889EB2AC
:102D8000B2420ED901F066F8201C311C221C331C03
:102D900000F064FE00F04CFE029800F035FE01F0F9
:102DA0004FF83F88A74218D90899019B0E4ACE1ABE
:102DB000013E701B118887B2B9420ED901F04AF862
:102DC000201C391C221C3B1C00F048FE00F030FE89
:102DD000029800F019FE01F033F80135BDE70DB09F
:102DE000F0BDC0466418001068180010F0B58BB034
:102DF000019353420890099198B292B20021059034
:102E0000049207916F466C4610251C372E5F0021F7
:102E10007B5E9E4200DAF9E068461022145A089957
:102E20001C230D1BAEB27A49185A0296099A0D88D6
:102E3000029E0694141A0390A7B2B54212D9754B9C
:102E40001888B8420ED901F005F80298391C021C06
:102E50003B1C00F003FE00F0EBFD019800F0D4FDF8
:102E600000F0EEFF089A039C099E111B684A069B1E
:102E70001488F01A8DB286B2AC4212D965490B881B
:102E8000B3420ED900F0E6FF281C311C2A1C331C6B
:102E900000F0E4FD00F0CCFD019800F0B5FD00F07D
:102EA000CFFF0698089A5A4984180B88A4B2A34207
:102EB00012D958480288BA420ED900F0CBFF201C24
:102EC000391C221C3B1C00F0C9FD00F0B1FD01982B
:102ED00000F09AFD00F0B4FF039F08994C487B185E
:102EE00002889FB2BA4212D94A490B88B3420ED91E
:102EF00000F0B0FF381C311C3A1C331C00F0AEFD52
:102F000000F096FD019800F07FFD00F099FF404928
:102F1000039E09980B88321896B2A34212D93D48F5
:102F20000288B2420ED900F095FF201C311C221CF1
:102F3000331C00F093FD00F07BFD019800F064FD70
:102F400000F07EFF3248069C0999028863189CB203
:102F5000BA4212D92F490B88A3420ED900F07AFF4A
:102F6000381C211C3A1C231C00F078FD00F060FD89
:102F7000019800F049FD00F063FF254F029A388860
:102F8000904212D923490B88B3420ED900F062FF58
:102F90000298311C021C331C00F060FD00F048FD5B
:102FA000019800F031FD00F04BFF194E3788AF4219
:102FB00012D918480288A2420ED900F04BFF281CF3
:102FC000211C2A1C231C00F049FD00F031FD019852
:102FD00000F01AFD00F034FF039D059C6846291996
:102FE00001354B199EB2B7B2059714300021425EED
:102FF000002A07DB049D013DACB26100731A9EB24A
:1030000004940596079F01370797FBE60BB0F0BDC8
:103010006418001068180010F7B50E1C1F491C1C1E
:1030200008AB071C151C18880A880190974201D329
:10303000571EBFB21A4B1888864201D3461EB6B23D
:10304000954201D3551EADB2844201D3441EA4B2B1
:10305000AF4203D96F407D406F40BFB2A64203D953
:10306000664074406640B6B200F0F4FE311C2A1C83
:10307000381C231C00F0F2FC00F0DAFCE91BA51B55
:10308000013101354D43002D04D0019800F0BCFC06
:10309000013DF8E700F0D4FEF7BDC046641800100B
:1030A00068180010F0B58FB0151C14AA061C1488FF
:1030B00015A807882A1B301903979446904200DB15
:1030C000AEE00F190797079A1F1B0697BA4200DB5D
:1030D000A6E06746BAB2039F059280B2059A0097B0
:1030E0000490FFF799FF1C23684618226946595A35
:1030F000135A301C0993049A099B66420097089161
:10310000A4B2FFF789FF2A1C099B0097059808992C
:10311000B5B2FFF781FF0795069400230B936F4626
:1031200018216A462C23C85F9E5EB04278DB6D464C
:103130001824615B049F2C26781A775B089D82B265
:10314000EC1B0A910399A6B20C92331C00910C98C7
:10315000311C049AFFF760FF0498089D0A9CC21B6B
:1031600093B2291B03988DB20D93291C2B1C009040
:10317000049A0D98FFF750FF0A9A059B0399D418FB
:10318000A4B2201C331C0091059A311CFFF744FFA8
:10319000059A0398BE18B6B2291C2B1C0090301C4F
:1031A000FFF73AFF099D03997B199DB2201C2B1C48
:1031B0000091059A291CFFF72FFF0A9C099A039B8F
:1031C000A01884B2211C301C0093059A231CFFF721
:1031D00023FF039E291C2B1C00960C98049AFFF7D2
:1031E0001BFF039D211C231C00950D98049AFFF7DB
:1031F00013FF07996B467A180137D719B8B284B212
:1032000007941C26F55E002D07DB069901398AB26A
:103210005700C01B84B2069207940B9B01337DE7D5
:103220000FB0F0BDF0B5544289B005900691A0B240
:1032300092B2002107930390029204916F466B466D
:1032400008251037EE5E00217C5EA6424EDB684604
:1032500008221024245A155A059906984B1B221847
:103260006E1807999FB2B6B293B2381C321C009107
:10327000191CFFF7D1FE069B079A181B83B2191C75
:10328000381C0092321CFFF7C7FE059E069B371BB9
:10329000A119E818079A8EB283B2BFB2381C191C64
:1032A0000092321CFFF7B8FE069907984D1BABB28F
:1032B000191C321C0090381CFFF7AEFE039F6946B4
:1032C000E61901343419A5B2ABB203930C22505E57
:1032D000002807DB029F013FBEB274002D1BABB27A
:1032E00002960393049901310491A7E709B0F0BD58
:1032F000F0B58FB01F1C14AB84461C8815A8161C93
:103300000D1C624601881319301B0391049305902C
:10331000834200DB39E129193B1B994200DB34E190
:103320008AB298B203990990089260460091099B6D
:10333000111C6246FFF770FE6B461022D05A694698
:1033400014235A5A03993B1C0091391C0A900B9282
:10335000FFF762FE039F301C321C0899099B0097FF
:10336000FFF75AFE039E0A98291C0B9A2B1C009605
:103370006542FFF751FEA4B2AAB20020079206945C
:103380000D906E4618216B463436CF5E0021755E77
:10339000AF4200DAF9E06C461822105B0A9B342534
:1033A000191A8FB27A4B2C5B0497089A1988049FDC
:1033B0000C90101B059486B2B94212D9754D2C8819
:1033C000B4420ED900F046FD0498311C021C331C97
:1033D00000F044FB00F02CFB039800F015FB00F01C
:1033E0002FFD0A9A05980C9D131A694A08991088AE
:1033F0004C1B9FB2A5B2B84212D9664B1988A9429C
:103400000ED900F027FD381C291C3A1C2B1C00F09B
:1034100025FB00F00DFB039800F0F6FA00F010FD1C
:103420000C9C0B9A5A4BA018198884B2A14212D94D
:10343000584A1088B0420ED900F00CFD201C311CF7
:10344000221C331C00F00AFB00F0F2FA039800F093
:10345000DBFA00F0F5FC059E0B9B4D4AF118108835
:103460008EB2B04212D94B4B1988A9420ED900F046
:10347000F1FC301C291C321C2B1C00F0EFFA00F070
:10348000D7FA039800F0C0FA00F0DAFC404B059D33
:10349000099A1988A81885B2A14212D93D4A108804
:1034A000A8420ED900F0D6FC201C291C221C2B1C83
:1034B00000F0D4FA00F0BCFA039800F0A5FA00F08E
:1034C000BFFC334A0C9C099B1088E1188CB2B042B7
:1034D00012D9304B1988A1420ED900F0BBFC301C28
:1034E000211C321C231C00F0B9FA00F0A1FA039849
:1034F00000F08AFA00F0A4FC254E0498328882423B
:1035000012D9244B1988A9420ED900F0A3FC0498C3
:10351000291C021C2B1C00F0A1FA00F089FA039868
:1035200000F072FA00F08CFC194D2E88BE4212D9C0
:10353000184A1088A0420ED900F08CFC381C211CBF
:103540003A1C231C00F08AFA00F072FA039800F08B
:103550005BFA00F075FC059F079C6A463B19013732
:10356000D9198DB2AEB207961C320021505E0028E8
:1035700007DB069F013FBCB26300E91A8DB20694D7
:1035800007950D9E01360D96FBE60FB0F0BDC046C7
:103590006418001068180010F0B5544D8DB00393F6
:1035A00012AB041C2E88188806910790A11AB1420C
:1035B00000DB98E04E49069F039B0D88F81AA8424D
:1035C00000DB90E05642B6B237B27B00039801337D
:1035D000434303995243494358437F4352004D00AC
:1035E000002305970490C7190A920B95029330B2F5
:1035F000002835DCB5B2611B88B22A196946082358
:1036000095B208905A5A069809921118079A8BB2E7
:10361000191C009208982A1CFFF7FEFC069B0998CB
:10362000079A191A8BB20092191C2A1C0898FFF7E6
:10363000F3FC049B7D009D4206DB04980B99013648
:103640004218B6B20492BF1805988542CFDC029D9D
:103650000A9901354218ABB202930592BF18C6E72A
:1036600000256E460827BA5F0399AB188B423ADAF9
:103670001E4F3888A04218D9069E029A01361C486F
:10368000B318591902888EB2B2420ED900F0E2FB8B
:10369000201C311C221C331C00F0E0F900F0C8F99A
:1036A000079800F0B1F900F0CBFB3F88A74218D98A
:1036B000069B02990E4A5E1A013E701B138887B260
:1036C000BB420ED900F0C6FB201C391C221C3B1C3F
:1036D00000F0C4F900F0ACF9079800F095F900F09B
:1036E000AFFB0135BDE70DB0F0BDC046641800105A
:1036F00068180010F0B585B01F1C0AAB1E88051CA9
:10370000141C3B1C2A1C00960391FFF785FC281C07
:10371000391C221C3B1C0096FFF77EFC201C0399E1
:10372000221C3B1C0096FFF777FC03990096281C8F
:10373000221C0B1CFFF770FC05B0F0BDF0B58DB07E
:103740001E1C12AB051C18880C1C171C05909542FA
:1037500001D0B14208D1059A281C0092211C3A1CC4
:10376000331CFFF759FC9CE04F490A88954201D36E
:10377000551EADB24D4B1888844201D3441EA4B2ED
:10378000974201D3571EBFB2864201D3461EB6B23E
:10379000791B8AB293B2301B039383B2684699B205
:1037A0000C3004910021415E01200690002904DACA
:1037B00052423F4891B2039106906A4610218A5EB8
:1037C00001200790002A04DA5B42394A99B2049139
:1037D00007926B460C20C15A68464A000A91102194
:1037E00093B20A5A0893530098B20B92099000F0D2
:1037F00031FB211C2A1C231C281C00F02FF900F08F
:1038000017F9059800F000F969460C226B46102064
:10381000525EC15E8A4220DD099E0A9AB31A9EB2A8
:10382000BD4220D030B2002805DB0799089A641801
:10383000B61AA4B2B6B2069B0998ED18ADB28119BA
:103840002A1C281C231C8EB2211C00F007F900F052
:10385000EFF8059800F0D8F8E2E7089F0B9ABB1A3A
:103860009FB2B44202D100F0EBFA1AE038B200285D
:1038700005DB0699099A6D18BF1AADB2BFB2079B56
:103880000898E418A4B2C1192A1C281C231C8FB262
:10389000211C00F0E3F800F0CBF8059800F0B4F834
:1038A000DFE70DB0F0BDC0466418001068180010C6
:1038B000FFFF00000D4B70B5051C18880C1C161C72
:1038C000A84212D90A490A88A2420ED900F0C2FAC7
:1038D000281C211C2A1C231C00F0C0F800F0A8F8AA
:1038E000301C00F091F800F0ABFA70BD64180010C5
:1038F0006818001038B5041C00F0ACFA174B1848D3
:103900001A880188013A002001398BB292B2011C59
:1039100000F0A4F800F08CF89625AD01201C00F012
:1039200073F8201C00F070F8201C00F06DF8201CCB
:1039300000F06AF8201C00F067F8201C00F064F822
:10394000013D201C00F060F8ADB2201C00F05CF8D6
:10395000002DE3D100F074FA38BDC04664180010A1
:1039600068180010014B18887047C0466618001090
:1039700008B5124B1B2815D006D80E2812D01228D5
:103980000ED0092808D109E0B42809D087225100B7
:10399000884207D05A2801D0002205E05A2203E0CD
:1039A000B42201E0872042001A80188800F098F8BD
:1039B000034B010C18800348018008BD66180010F5
:1039C0006818001064180010014B18887047C04632
:1039D00064180010014B18887047C0466818001022
:1039E00010B5064B0649074800241C8004800C8053
:1039F00000F060F9201CFFF7BBFF10BD6418001039
:103A0000661800106818001030B5084B8022FF249B
:103A100012010025010AA4009D501951802189003E
:103A200099509D501851995030BDC0460000025029
:103A3000094B8022802152010020090110B59850C5
:103A40005850FF202C2480001C508024A000585087
:103A50008021CC009C5010BD00000250F0B585B014
:103A60000190029280271D4A8020FF2600930001CA
:103A70000024B6007F012A258023D451145095518B
:103A80009D008023DB0015509C46D3510B0A145037
:103A9000935115501450915115501450009B190A10
:103AA000915115506146145093512B231550D45108
:103AB000145093511550D1511450019F3B0A93510A
:103AC0001550145097511550145002990F0A9751E0
:103AD000155014509151155005B0F0BD0000025022
:103AE000F0B585B0B4280AD08723590088420DD09C
:103AF0005A280ED0C820F0220390029203E0182327
:103B0000F02103930291A022500008E0A82503951C
:103B100001E068240394A02677000297F0202A4B46
:103B200080240021A5018027FF24802659513A01D5
:103B3000A500760136279951802499505F5180273E
:103B4000A400FF009C509F519950039F5F51471E56
:103B50009C50BFB20397029F0004013FBFB2019780
:103B60002A27995199505F518027FF009C509F51FF
:103B7000995059519C50995059519C509950019FBE
:103B80003F0A5F519C509950019F5F512B279C50D9
:103B9000995199505F518027FF009C509F51995037
:103BA00059519C50995059519C509950039F3E0A2D
:103BB0005E519C50995080215F518D019C505A510B
:103BC000029B184305B0F0BD0000025070B5802282
:103BD00080250F4B9101802600246A01FF255C504F
:103BE0003101AE008025AD00A04203D1985058505D
:103BF000202002E09C5021205C50802498515D5090
:103C0000E1009950802580221601A8011E5070BD48
:103C100000000250F8B5264C8023071C00229801B2
:103C20008025802622506D01360197421CD1FF224B
:103C300093002821802280206751A751E150810004
:103C4000D300A15114206351FCF7B0FCFF20802267
:103C500067518100A751930010276750A351802618
:103C6000F700675178201BE0FF23980000211127FF
:103C700061518022A151275080279100FF00A1515E
:103C800078206751FCF792FC0023FF226351292022
:103C9000A3519100802360509800A05167511420D7
:103CA000FCF784FC8025802128018A01A050F8BD02
:103CB00000000250F0B5A9B003AE4A499322301C6F
:103CC00000F070FD484C80210F02E359474A13432E
:103CD000E351474BE0580243E250464A2020D55971
:103CE0000543D551D15880270843FF000025D05007
:103CF0001420E551FCF75AFC80235A007820E25149
:103D0000FCF754FC802081016550705D3F27013530
:103D1000031CADB2BB43802B1FD0C02B33D0402B34
:103D200034D1384001902B1C019AA81881B29942D5
:103D300027D0802780217A0109010027F05CA75055
:103D40006750FF27BF00E051802087006750802127
:103D50000133C8009BB2A050E6E738402B1C2A185C
:103D600097B29F420DD0802212010021F75CA15032
:103D7000FF218900675080270133B9009BB2A15011
:103D8000EDE71D1C02E03840FCF710FC922DBCD979
:103D900080268020730102010021E150FF25A150FF
:103DA00080212C27AE008800A751A0508022D70088
:103DB000E75096235E028025FF2080232F010021FB
:103DC00082009D00013EE151A150E551E151A15019
:103DD000E5518E42EFD180240349A6018F5129B0CD
:103DE000F0BDC046B55B000000000250FF0F0000B0
:103DF000FC3F000000000350054B8022120100210F
:103E00009950FF21890058508020810099507047B7
:103E100000000250094B8022802110B5520100247D
:103E200009019C505C50FF24A4001851802084009C
:103E30005C508021C800985010BDC0460000025060
:103E400080218023024A0801990150507047C046E2
:103E5000000002508023024A00219801115070474F
:103E600000000250014B18887047C04670180010BF
:103E700038B52948294B02881C88294DA24217D001
:103E8000284B048059681A682888624348431018F0
:103E90009A689969801800F095FB234900238842AD
:103EA00004D8031C2148834200D9031C204A1380F4
:103EB00020482D880188A94215D01A4B0580DA6860
:103EC000586962431C69996965435519281800F0BF
:103ED00079FB19490023884203D8031EEF2B00D930
:103EE000EF23164A1380FFF73DFD87246500A842A3
:103EF00001D10F480EE0B42803D1104CEF222388E3
:103F000004E05A2805D10A49084A0B88D51AA8B2F4
:103F100001E00A48008838BD94180010721800109B
:103F200074180010781800107F0200003F01000094
:103F30006C18001096180010DF0100006E180010B9
:103F400038B52948294B02881C88294DA24217D030
:103F5000284B048059681A6828886243484310181F
:103F60009A689969801800F02DFB23490023884244
:103F700004D8031C2148834200D9031C204A138023
:103F800020482D880188A94215D01A4B0580DA688F
:103F9000586962431C69996965435519281800F0EE
:103FA00011FB19490023884203D8031EEF2B00D9C7
:103FB000EF23164A1380FFF7D5FC87246500A8423B
:103FC00003D1124CEF22238804E0B42805D10C4918
:103FD0000A4A0B88D51AA8B205E05A2801D10B4825
:103FE00000E00748008838BD9418001072180010CF
:103FF00074180010781800107F0200003F010000C4
:104000006C18001096180010DF0100006E180010E8
:10401000F0B5021C0F6908688BB04D69CE68C41BEF
:10402000844688684968059406964C1B761B04955F
:10403000059DC31B0793754363430396EE1A314BEB
:104040000290089109949E610120002E57D01068BB
:1040500011699468451A661A0998039C70436C4369
:10406000241A1C600598079C464365431068751B1D
:1040700066464E4378435D60351A966802987E43E3
:104080004143069C711A6543089C96686143691810
:104090001568041C604670436C43251A049C5068E4
:1040A0006543491999605169D268461A0196019C85
:1040B000039E551A66430396099E039C6E43A61BF6
:1040C000059CDE606543019E079C744366462D1B7C
:1040D0003C1C4E434443341B029E57437143791AA0
:1040E000674670437A431D61069D821A6C43089DA2
:1040F0000498694342436418A6185E6100200BB01F
:10410000F0BDC046781800100048704778180010BD
:1041100010B5064C20606160E3600398029B04992F
:10412000A26023616061A16110BDC04678180010D3
:10413000014B18887047C0466A180010014B188858
:104140007047C04674180010014B18887047C0466D
:1041500072180010A749F0B5A74B02248020CC6745
:1041600000021A580127A2431A50A44A85B09D584C
:10417000A5439D508C671E588125BE431E509C58F8
:10418000A026BC439C504D67F40527588026360175
:10419000374327508027BF01E651994C994FE56777
:1041A0001E5804252E431E50002018613C68BC4652
:1041B00025433D603E68802568043043386067468B
:1041C000BC699048002CFADA06688F4D2E400660D4
:1041D000876906683C0402273E430660A50D8026D9
:1041E000046877043C43046060464669854C002EB1
:1041F000FADA2068844F3840206066693004834EC4
:10420000870DB819451BAFB20297814EC82F00D851
:10421000C1E008256F46E85B3080022680208E676B
:10422000A8401F580125AF431F509E580227AE4398
:10423000734D9E50EF671E580427BE431E509D5875
:104240008126BD43A0279D504E67FD052E5880272F
:104250003F013E432E508026B601AF518125CD67E8
:104260001F58022637431F500020986027680825F2
:104270002F4327602668802047043E43266064461B
:10428000E5696048002DFADA06685F4F3E40066037
:10429000C469604E0768A509082435402743019585
:1042A00007600568802677043D4305606046C56960
:1042B000544C002DFADA2668534F019D3E4026608B
:1042C000E069002D02D10024029469E08609514F73
:1042D00001983E40B042F6D102258027A0264D67C6
:1042E0003802F60537584C4D2F403750B7583D40EF
:1042F000B5500225CD671E58AE431E509F5801266B
:10430000AF4381259F508D671F5837431F503C4F47
:104310005E60FD671E5804252E431E500020186164
:1043200027683D432560266880256804064326608B
:104330006446A7693348002FFADA0668324D354FD4
:104340002E40066084690568042635430560A4098B
:104350003C40802507686E04374307606746BD69A7
:104360002848002DFADA0768274E37400760806931
:10437000002CA8D0274F85093D40AC42A3D16D4603
:10438000AE882648264F0680082568463C802E5A6F
:10439000244C268004E023480024348004800294C6
:1043A0009124A02780204C670002FD052F581A4E4B
:1043B00037402F50AF583E40AE50CC671E580225B4
:1043C000AE431E509F58AF439F508C671D5801212C
:1043D0008D431D509F580A4D8F439F50EC671C58CA
:1043E00004218C431C50985888439850029805B07B
:1043F000F0BDC0460040044000000150FC3F0000FA
:104400000440044000C0014000FFFFF8FF0300002B
:104410006A180010FE030000FFF7FFFF721800107B
:1044200074180010701800101D4A1E4870B5002343
:104430001D4C138003801D491D4D1E4E1E4A1F48F2
:1044400023801F4C0B802B803380138003808021BE
:104450009120A02360670902DB055E58194D1A4AB6
:104460002E405E509E5835409D50184BE0675E5878
:104470000225AE435E509E58AE439E50A0675E58E4
:104480000125AE435E509E580434AE439E50E06713
:104490005C58042084435C5099588143995070BD06
:1044A0006A18001074180010961800107218001086
:1044B00094180010701800106E1800106C1800107E
:1044C00000400440FFF7FFFFFC3F000000000150E8
:1044D000004201D4044A10474042F44600F006F876
:1044E0000122D20711436047ED440000422212012D
:1044F000033A004208D002D4013A0018FCD5120554
:10450000C30A4005991870470021704770B401260E
:1045100036054C005D00E6421CD8EE421AD82E004B
:1045200026430643164323D0904201D199421FD01F
:104530000E005E4008D4994200D1904204D3D817AF
:104540000126304370BC7047D817C0430126304362
:1045500070BC70470126094200D130431B4200D194
:10456000324336054400E64202D85400E642DFD921
:10457000002070BC7047C04600B5FFF7C7FF012898
:1045800000D0002000BDC046CA1751408B1A17D07A
:10459000C1174A4004B44840411A48081A0000E0D4
:1045A00052008242FCD9002000E05208914200D320
:1045B000891A40419A42F8D104BC5040801A704791
:1045C000002070470A000FD00300400800E05200AE
:1045D0008242FCD9002000E05208934200D39B1A8B
:1045E00040418A42F8D17047002070470A0010D03D
:1045F0000300400800E052008242FCD9002000E0A5
:104600005208934200D39B1A40418A42F8D11900C4
:10461000704700207047C04602B4714649084900FF
:10462000095C49008E4402BC7047C04608B5031CB3
:104630000278002A06D041680878002805D00131A8
:10464000596004E04068804701E00123584208BDFA
:1046500070B5041C806800280AD0236862685D1C5D
:10466000AD1A6E1EB5416E423140934200D2C15424
:10467000E368002B06D020686268904202D2081CD2
:10468000211C984721680131216070BDF8B5151CC7
:104690004C1E15D4C6B201231F1C2740101C311C10
:1046A000FFF7D6FF013C0CD20AE0281C311CFFF7B3
:1046B000CFFF013C281C311CFFF7CAFF013CF4D29C
:1046C000F8BD002FF1D0281C311CFFF7C1FF013CC1
:1046D000EBD2F5E710B5C30606D42023840500D538
:1046E0003023181CFFF7D2FF10BDC046031C413B0E
:1046F000002019229A4240417047C046031C613B8A
:10470000002019229A4240417047C046031C303BAA
:10471000002009229A4240417047C04638B5041C27
:104720000D1CFFF7F3FF002802D0201C303811E0E9
:10473000201CFFF7E3FF002802D0201C573809E0B7
:10474000201CFFF7D3FF002802D0201C373801E0DF
:1047500001204042A84201DB0121484238BDC04649
:10476000021C093A0123042A03D9031C203B5842A6
:104770004341181C7047C0460EB400B586B007AA66
:1047800008CA05920390002304930548029001A8EB
:10479000079900F01BF806B008BC03B01847C046E4
:1047A000FFFFFF7F8446002A05D00B78037001309D
:1047B0000131013AF9D160467047C046411C027888
:1047C0000130002AFBD1401A7047C046F0B55F4661
:1047D00056464D464446F0B48BB00C1C059200235F
:1047E00003609946051C63E2252906D0281CFFF7C3
:1047F0002FFF341C5CE2261C0BE010239A4620207D
:10480000804680273A029446802740212C1C4D4642
:10481000A3463078741C031C203BDAB2102A14D84B
:104820009300C64AD3589F460D43E4E73D43E2E771
:1048300066463543DFE743461D43DCE752461543F2
:10484000D9E78026B0000543D5E75F46AB463D1C5F
:104850005A462A2805D0011C30394B4609290DD962
:1048600017E0059C201D05902368002B03DA5B42AE
:1048700010210A4393467078B41C0AE09E00F31896
:104880005F0030383B1820780134021C303A092A86
:10489000F4D9DE43F7173B400293CA462E2825D1B0
:1048A00020782A2805D00134031C303B092B08D975
:1048B00017E00598021D059201688A466078023467
:1048C0000CE04F46BA00D1194E0030383718207826
:1048D0000134031C303B092BF4D9BA465646002E4E
:1048E00004DB80277B005A461A43934668280ED182
:1048F0002078682806D108275846384383466078D0
:10490000023404E001340426594631438B467828AA
:1049100003D883008A4AD658B7468A4F3E68002E8D
:1049200000D1C5E15146009105AA0192291C5A46C1
:10493000029BB047BCE1281C2521FFF789FEB7E1A7
:104940000598031D0593067802998A4601277A4245
:104950009244584651462A1CFFF7BCFE281C311CC5
:10496000FFF776FED8464046C00600D4A0E12020DE
:1049700051462A1CFFF78AFE9AE15846010706D5E0
:104980000598021D059203682E681E7090E1059B34
:104990001E1D059619682F680F6089E10598011D95
:1049A00005910668002E00D1674E684F5B463B407C
:1049B0009846301CFFF702FF071C5A46D20502D565
:1049C000504500DD57460298C11B8A4640462A1CC6
:1049D000FFF780FE002FC6D0B3467B1E01221A408F
:1049E00002923178281CFFF733FE0136013F002F79
:1049F00000D081E1B7E7A346FFE73178281CFFF735
:104A000027FE7178281CFFF723FE0236023F002F95
:104A1000F3D15C46A7E7059E371D059737685946D1
:104A20000B06DE1723223240904680235E0031437E
:104A30008B4608218A466FE080239E0159460E432B
:104A4000090609D4B346C84609E0C84659460A06CD
:104A500005D53F4FB84602E0B3463E4FB8465A46EA
:104A6000D20520D5394B5E461E40B3461BE05F465B
:104A70003A06D31730261E40B046FB0513D5334FF8
:104A80005A463A4093460EE0C8465B46DA050AD5D8
:104A90002E4A5E461640B34605E08021CF015A46B5
:104AA0003A439346C84659464B0419D5059B1A1DEF
:104AB00005921F685E46710701D53FB203E03207D9
:104AC00001D5FF231F40002F03DA7F422D2290469D
:104AD0001BE05A46910613D45E46720613D414E0C6
:104AE000059F3A1D05923F685B465B0702D53F0470
:104AF0003F0C0AE05E46310707D5FF210F4004E076
:104B00002B23984601E0202188465E46F10506D514
:104B10000E495B460B409B465A46D30501D40126FD
:104B2000B2465838C0B2202865D882000A4B9E5839
:104B3000B7464E460720002F33D15FE0685C000087
:104B4000AC5C000098180010145F0000FFFDFFFF30
:104B50007830000058300000905E00004E46002F74
:104B600028D14BE0002F48D04E4680229301594671
:104B70000B400F22684884460394002B06D0101C7B
:104B800038406446205C07A9705405E0111C394088
:104B9000624C605C07A9705401363F09EDD1039C5B
:104BA0002CE0011C3940303107AAB1540136FF080E
:104BB000F7D123E08023190258460840039004945B
:104BC000041C002C07D003223240032A03D107AB78
:104BD0002C2199550136381C0A21FFF707FD303189
:104BE00007A881550136381C0A21FFF7EBFC071E88
:104BF000E7D1049C02E04E4600E04E465746BB1B00
:104C0000DA43D7171F400298C11B8A1BFF23434575
:104C100080414142521A4346591E8B41D01A824666
:104C2000584680218A00104204D151462A1CFFF7C1
:104C300051FDCA464346FF2B03D9190A281CFFF72A
:104C400007FD4046002803D0C1B2281CFFF700FD35
:104C5000584651462A1CFFF73DFD3020391C2A1CBE
:104C6000FFF714FD013E1BD407AFBE196F461B377B
:104C7000B91B01228A4390463178281CFFF7E8FCD3
:104C8000013EBE422DD10BE03178281CFFF7E0FC3D
:104C9000013E3178281CFFF7DBFC013EBE42F3D118
:104CA0005846C10604D5202051462A1CFFF7EEFCC9
:104CB0002178661C002900D096E5281CAF68002FDB
:104CC00004D02A686C68A24200D2B954006801E09E
:104CD000012670420BB03CBC90469946A246AB46BA
:104CE000F0BD4346002BCFD03178281CFFF7B0FC35
:104CF000013EBE42C8D1D3E70298002800D17AE62F
:104D000059464978281CFFF7A3FC0136013FA3460A
:104D1000002F00D071E626E6585C0000485C0000D9
:104D200010B5041C0B78002B05D0431C05D0486837
:104D30000138486001E089688847201C10BDC046E2
:104D4000F0B55F4656464D464446F0B483B08146C2
:104D5000019193461F1C01235842824600E0A2465F
:104D6000544601344846FFF761FC051CFFF7F8FC88
:104D70000028F4D1691C00D19DE0734E5A461640BC
:104D80000C9900293FDD120612D52B2D04D02D2DB4
:104D90000BD18024E5002E43544602344846FFF7E9
:104DA00045FC051C0C9801380C900C9B002B2ADD4F
:104DB000302D28D18022910031438A460C9D013D3F
:104DC0000C95601C80464846FFF730FC051C0C9B88
:104DD000002B15DD782801D0582811D1002F01D0E3
:104DE000102F6FD1594A1640B2460C9E013E0C96C8
:104DF0000234A0464846FFF719FC051C102761E065
:104E0000002F5ED05EE0002F00D10A270C99002908
:104E10002CDD0B19009300229046802188008346E8
:104E2000E343009A9918012008408246281C391C47
:104E3000FFF774FC002850DA1AE05D462E43434623
:104E40007B43C01880460134A2464846FFF7EEFB7C
:104E5000051C391CFFF762FC002864DA08E0281CF6
:104E6000391CFFF75BFC0028E7DA01E000208046F0
:104E7000281C4946FFF754FFB2051FD5F30724D479
:104E8000019F3868021D3A6001689025EB00371CCD
:104E90001F409F4202D1404642429046F30602D54F
:104EA00043460B7011E0330702D545460D800CE0F8
:104EB00046460E6009E001214C4206E002246442AD
:104EC00003E0082744465646A0E7201C03B03CBC3C
:104ED00090469946A246AB46F0BD5D462E434346FA
:104EE0007B43C218904601344846FFF79FFB051CE0
:104EF00000998C42BCD050460028B0D0281C391CE8
:104F0000FFF70CFC0028B3DB5D462E4343467B4392
:104F1000C218904601344846FFF788FB051C0099EB
:104F20008C429CD1A4E75C46264342467A438118D2
:104F30008846544601344846FFF778FB051C009B21
:104F40009C4200D08BE793E7FFF9FFFFFFFDFFFFD7
:104F5000F0B55F4656464D464446F0B48BB08046A9
:104F60000D1C09920020049000210291CB4A934627
:104F700020239A4644460394A9464F4638784C4627
:104F80000134002800D1CAE1252837D0051CFFF7DD
:104F9000E7FB002819D020780134FFF7E1FB002857
:104FA000F9D1013CA146049D039E00E00135301C6F
:104FB000FFF73CFB071CFFF7D3FB0028F6D1049555
:104FC000381C0399FFF7ACFED7E70398FFF72EFBD9
:104FD000A84204D1049B01330493A146CDE7061CEB
:104FE00003988146029C301C4946FFF799FE013622
:104FF00000D094E1002C00D091E182E17978002585
:105000002A2902D14C460234012500270BE05F45D6
:1050100000DD84E1BA00D0194100303E8F1900D57F
:105020007DE15646354326780134301CFFF76EFB90
:105030000028ECD1221C331C291C5046284200D1E8
:10504000974F4C2B04D11678541C44250D430CE08B
:10505000682B0AD11678682E04D110250D43567896
:10506000941C02E0541C08250D43321C253A532A97
:1050700000D954E193008B49C85887460398FFF73D
:10508000D5FA252804D1049F01370497A14674E777
:10509000061C03988446029C301C6146FFF740FEC4
:1050A000751C00D03BE1002C00D038E101214B42BF
:1050B000029334E153462B4200D1012701212940BC
:1050C00088460025002903D1099D2E1D09962D68CB
:1050D000002F00D123E128DD0498C2199146049FD6
:1050E000FB434B4401210E1C1E40013704970398DB
:1050F000FFF79CFA421C00D019E108E04646FFE7A2
:10510000049F01370398FFF791FA431C07D10298D7
:10511000002800D003E1012359420291FFE0002E54
:1051200000D024E12870013521E1A1464446002C3D
:1051300000D022E7029D013502951EE780222A4316
:105140000097039809A90A23FFF7FAFD0590BEE02E
:1051500080222A430097039809A90023FFF7F0FD56
:105160000590B4E0A146EB0700D506E70998021DBB
:1051700009920368E80604D56C461020025D1A7097
:10518000FBE62A0705D56F461021CE5B1E80A1469F
:10519000F3E6049D1D60A146EFE680222A430097B6
:1051A000039809A90823FFF7CBFD05908FE01E2681
:1051B0002A1CB2430097039809A91023FFF7C0FDEA
:1051C000059084E0012672420592A046A946161C6D
:1051D000039D0136281CFFF729FA041CFFF7C0FACB
:1051E0000028F6D14D460596231C44469846321CAD
:1051F00001334ED0012129400691089000D084E06F
:105200000998061D0996036808937EE0069C002C09
:1052100001D12E7001357C1C271C0398FFF706FA7C
:10522000061C079884421ED0731C00D0CAE0444676
:105230000597B04608954D4620E0A946059F46468D
:10524000A046089D04E0A946059F4646A046089D45
:10525000301CFFF785FA0028D8D044460597B046A1
:1052600008954D460AE044460597B04608954D46D8
:1052700004E044460597B04608954D4640460399DC
:10528000FFF74EFD069A002A21D1002008990870E8
:105290001DE001235F42059719E0C046CCCCCC0C41
:1052A000FFFFFF7F1C5F000080222A4300970398C6
:1052B00009A90A23FFF744FD059008E080222A434C
:1052C0000097039809A91023FFF73AFD0590059E62
:1052D000002E09DA029C059F781C20D1002C1ED1DB
:1052E0000122554202951AE001273D406A426A4177
:1052F000029DA81802900499059BCE180496A14619
:105300003BE601214A42029209E0002FB6DDBF18B8
:105310000797059AD143C819C1078ED539E002987D
:105320000BB03CBC90469946A246AB46F0BD424607
:10533000002A01D1287001350498484500D1F4E6CF
:10534000002E00D1DAE6071C013704970398FFF717
:105350006DF9411C00D1DAE64346002B01D12870DB
:10536000013504994646494500D0C9E6DDE60137D6
:1053700004970398FFF75AF9411C00D1C7E6002EA5
:1053800001D128700135049A4A4500D0B8E6B046EC
:10539000CBE64046FFF7E4F9002800D06EE7069E12
:1053A000002E04D14346089F3B7001370897059AA9
:1053B000013205920398FFF739F98046431C00D06B
:1053C00041E75BE7301CFFF7CBF9002800D050E73E
:1053D000069B002B01D12E700135671C0398FFF747
:1053E00025F9061C411C00D032E74446059780464B
:1053F00008954D4642E7C04638B5041C0D1C00F028
:1054000013F8074B1D608020044306490C600A1CFA
:105410001468002CFCD100F009F8014D286838BD53
:105420009C180010A01800107047C0467047C04676
:1054300014000000140000002C010000780000009F
:10544000A0000000DC00000052656C6561736520FF
:10545000546F75636870616E656C2E0043616C6992
:1054600062726174696F6E0076302E303600284AA1
:10547000756E202038203230313429007761747401
:1054800065726F74742E636F6D0058253033692018
:105490005925303369205A25303369004C44522055
:1054A00025303369004E6F20636F6E666967206434
:1054B0006174612E00000000000000000030787868
:1054C00030300030006C6C6C00000000006C6CFE32
:1054D0006CFE6C6C00307CC0780CF8300000C6CCE0
:1054E000183066C600386C3876DCCC76006060C058
:1054F0000000000000183060606030180060301854
:10550000181830600000663CFF3C66000000303038
:10551000FC3030000000000000007030600000002F
:10552000FC000000000000000000303000060C18F5
:105530003060C0800078CCDCFCECCC780030F030FF
:10554000303030FC0078CC0C3860CCFC0078CC0CCF
:10555000380CCC78001C3C6CCCFE0C0C00FCC0F869
:105560000C0CCC78003860C0F8CCCC7800FCCC0CAB
:10557000183060600078CCCC78CCCC780078CCCC7B
:105580007C0C18700000003030003030000000301B
:105590003000703060183060C0603018000000FCCF
:1055A00000FC0000006030180C1830600078CC0C53
:1055B00018300030007CC6DEDEDEC078003078CCEB
:1055C000CCFCCCCC00FC66667C6666FC003C66C00D
:1055D000C0C0663C00FC6C6666666CFC00FE6268DF
:1055E000786862FE00FE6268786860F0003C66C021
:1055F000C0CE663E00CCCCCCFCCCCCCC00783030DD
:1056000030303078001E0C0C0CCCCC7800E6666C88
:10561000786C66E600F06060606266FE00C6EEFED2
:10562000D6C6C6C600C6E6F6DECEC6C600386CC60E
:10563000C6C66C3800FC66667C6060F00078CCCC36
:10564000CCDC781C00FC66667C786CE60078CCE0EC
:10565000381CCC7800FCB4303030307800CCCCCC66
:10566000CCCCCCFC00CCCCCCCCCC783000C6C6C6E4
:10567000D6FEEEC600C6C66C386CC6C600CCCCCC16
:105680007830307800FECC983062C6FE00786060DA
:105690006060607800C06030180C0602007818184E
:1056A000181818780010386CC600000000000000C0
:1056B00000000000FF3030180000000000000078FB
:1056C0000C7CCC7600E0607C666666BC00000078EE
:1056D000CCC0CC78001C0C0C7CCCCC7600000078C4
:1056E000CCFCC07800386C60F06060F000000076A0
:1056F000CCCC7C0CF8E0606C766666E6003000701E
:105700003030307800180078181818D870E06066CB
:105710006C786CE60070303030303078000000EC8F
:10572000FED6C6C6000000F8CCCCCCCC0000007879
:10573000CCCCCC78000000DC66667C60F0000076A3
:10574000CCCC7C0C1E0000D86C6C60F00000007C9F
:10575000C0780CF80010307C30303418000000CCD9
:10576000CCCCCC76000000CCCCCC7830000000C68D
:10577000C6D6FE6C000000C66C386CC6000000CCBB
:10578000CCCC7C0CF80000FC983064FC001C303061
:10579000E030301C001818180018181800E03030DD
:1057A0001C3030E00076DC00000000000010386C97
:1057B000C6C6C6FE0078CCC0C0CC78306000CC0035
:1057C000CCCCCC7E00183078CCFCC078007EC33CBA
:1057D000063E663F00CC00780C7CCC7E00603078C2
:1057E0000C7CCC7E003C663C063E663F000078CCDC
:1057F000C0CC7830607EC33C667E603C00CC0078D4
:10580000CCFCC07800603078CCFCC07800CC007054
:1058100030303078007CC6381818183C0060307082
:105820003030307800CC3078CCCCFCCC00304830F4
:1058300078CCFCCC001830FC607860FC0000007F65
:105840000C7FCC7F003E6CCCFECCCCCE0078CC0064
:1058500078CCCC780000CC0078CCCC7800603000DC
:1058600078CCCC780078CC00CCCCCC7E00603000FA
:10587000CCCCCC7E0000CC00CCCCFC0CF8C6007CA0
:10588000C6C6C67C00CC00CCCCCCCC780000007C5A
:10589000CED6E67C00386C64F060E6FC003A6CCE54
:1058A000D6E66CB8000000CC783078CC000E1B181F
:1058B0007E1818D8701830780C7CCC7E00183070A8
:1058C00030303078000C180078CCCC78000C180000
:1058D000CCCCCC7E0076DC00F8CCCCCC0076DC00E6
:1058E000ECFCDCCC003C6C6C3E007E00003C666650
:1058F0003C007E000030003060C0CC78003C5AA5EF
:10590000B9A9663C00000000FC0C0C0000E66C78B5
:105910007E63CE981FE66C787367CD9F03001800F6
:1059200018183C3C18003366CC6633000000CC6687
:105930003366CC0000228822882288228855AA5506
:10594000AA55AA55AADD77DD77DD77DD7718181817
:10595000181818181818181818F81818180C1830DB
:1059600078CCFCCC0078843078CCFCCC00C06030A3
:1059700078CCFCCC003C42B9A1B9423C003636F6AA
:1059800006F636363636363636363636360000FECB
:1059900006F63636363636F606FE00000018187E55
:1059A000C0C07E1818CCCC78FC30FC303000000031
:1059B00000F8181818181818181F000000181818E0
:1059C00018FF00000000000000FF18181818181831
:1059D000181F18181800000000FF00000018181801
:1059E00018FF18181876DC780C7CCC7E0076DC303A
:1059F00078CCFCCC00363637303F00000000003F4A
:105A000030373636363636F700FF0000000000FF2C
:105A100000F736363636363730373636360000FF42
:105A200000FF0000003636F700F73636360082FEFB
:105A30006C6CFE8200D870D80C3C6C3800FC6C6634
:105A4000F6666CFC007884FC607860FC00CC00FC9E
:105A5000607860FC006030FC607860FC0000C04052
:105A6000E00000000018307830303078007884781A
:105A70003030307800CC007830303078001818188A
:105A800018F8000000000000001F181818FFFFFFA2
:105A9000FFFFFFFFFF00000000FFFFFFFF181818C7
:105AA00000181818006030783030307800FFFFFFA1
:105AB000FF0000000018307CC6C6C67C000078CC11
:105AC000F8CCF8C0C07C827CC6C6C67C0030187C8E
:105AD000C6C6C67C0076DC0078CCCC780076DC7C50
