:10000000C41D0010ED010000F5010000F701000023
:10001000F9010000FB010000FD01000072D6FFEFB6
:10002000000000000000000000000000FF010000D0
:10003000010200000000000003020000C9030000EC
:10004000070200000702000007020000070200008C
:10005000070200000702000007020000070200007C
:10006000070200000702000007020000070200006C
:1000700007020000090200000B020000F935000031
:100080000F02000011020000130200001502000020
:10009000B5370000BD38000000000000000000007F
:1000A0001B0200001D0200001F02000000000000F3
:1000B000210200002302000025020000ED380000AC
:1000C0002F49072291438D462E492F480A1A06D000
:1000D0000722914381F30988022282F314882B4876
:1000E0002B492C4A00F039F82B482C492C4A00F0B7
:1000F00034F82C482C492D4A00F02FF82C482D4973
:100100002D4A00F02AF82D482D492E4A00F025F8F6
:100110002D482E492E4A00F020F82E482E49002264
:1001200000F026F82D482E49091A082903DB002281
:100130000260043001601F481F49884205D00268F0
:10014000043003B4904703BCF7E700208646EC4632
:1001500000200021234A9047FEE7884207D0521A28
:1001600005D0037801300B700131013AF9D17047A5
:10017000884202D002700130FAE770471A4870478F
:10018000C41D0010C41D0010C41D001074590000CF
:10019000000000102C0000103002000030020000AF
:1001A000384D0000745900000000001000000010DD
:1001B000384D0000384D0000384D0000384D00002B
:1001C000384D0000384D0000384D0000384D00001B
:1001D000745900002C000010C4180010C41800103E
:1001E000C419001091110000FFFFFFFF0E480F49D6
:1001F000016065E7FEE7FEE7FEE7FEE7FEE7FEE7F4
:10020000FEE7FEE7FEE7FEE7FEE7FEE7FEE7FEE7C6
:10021000FEE7FEE7FEE7FEE7FEE7FEE7FEE7FEE7B6
:10022000FEE7FEE7FEE7FEE7008004400200000074
:10023000564BF7B5564C984217D006D855498842C8
:100240000CD0554A904206D10BE0544DA8420FD035
:10025000534EB0420FD02060002704E020600027FA
:100260000BE020604127002208E02060412704E0E5
:1002700020604227F7E720602227012272B6494B0F
:100280008E2081005D58002A05D0202085435D50D6
:100290000021196202E00326B5435D50C826C0461E
:1002A000013E002EFBD101251A645D645E645D642D
:1002B000596C01263B483142FAD0002F15D0876097
:1002C0008E27B90045588026B5434550D96801208E
:1002D000344F0142FAD0032500263D6778677E67D8
:1002E00078675F6FF807FCD50DE0026746674767E0
:1002F00046675D6F2B4FED07FBD58E2081007D5843
:10030000802635437D508E218D00002A02D05A5917
:10031000032001E05A59202002435A512568224EF9
:10032000224BB54201D9022105E0214FBD4201D93E
:10033000012100E0002100261E4FD9601E613A68AD
:10034000281C1D49019203F0B7FD019A1B49013891
:10035000030211401943281CFA253960A90003F053
:10036000ABFD174F174B01387860186AC0250102A2
:100370000A0A280610431862BE6007263E60FF2066
:1003800003F0B2FC62B62068FEBDC0460048E8013A
:10039000040000100024F40000366E010051250214
:1003A000006CDC0200800440FF5962020000014042
:1003B000FF2C310100C0014000093D00FF00FFFF9C
:1003C00010E000E000ED00E0024B1A6801321A6014
:1003D0007047C0462C00001000B505281ED0072825
:1003E00034D004284ED1284A02231360274B102012
:1003F0001968014319601868802149040143196094
:10040000111C186A214A0028FBDA1068204B0340AF
:100410001360126A91231004800D31E01D4A1B4BBA
:10042000012111601968202001431960186880219A
:10043000490401431960111C586A144A0028FBDA68
:100440001068134B03401360526A16E0124A0F4BB8
:10045000012111601968802001431960186880210A
:10046000490401431960111CD86A084A0028FBDAC4
:100470001068074B03401360D26A1204900D90235A
:100480000B6000E0002000BD9040044000C001402F
:1004900000FFFFF89440044098400440014B186866
:1004A0007047C0462C00001000B5034B19681A684D
:1004B000521A8242FBD300BD2C00001008B56428FC
:1004C00000D9642003046421181A03F0F5FC0249E2
:1004D000C043886108BDC04600000140254B812211
:1004E00070B51A60244A0821802411628C4010598A
:1004F000224E234B014301251151356019682024F8
:1005000021431960186880256E0406431E601C1C78
:10051000616A1B4B0029FBDA1D681A4805401D6003
:100520005E6A1D683104202635431D601E688025E3
:100530006D0435431D60890D031C666A1048002E4A
:10054000FBDA046823400360456A00241462AA09A8
:100550009305980D81420BD1C8266424B500A942A9
:1005600003D80A24642900D95C0E201CFFF7A6FFDB
:10057000201C70BD90400440000001509440044095
:1005800000C0014000FFFFF808B5002802D1034B6E
:10059000186801E0FFF74CFE08BDC04604000010DB
:1005A00070B572B62F4B12211A1CFC328E20516589
:1005B00084001D591020012285432B4E1D519A673E
:1005C0000433DE678021A023DC050B02E5582749B0
:1005D00004262E400D1CA435E650C86128604866EC
:1005E000E65808253540E550C86221488025C458A2
:1005F000AD001443C450002444601E48C65835431F
:10060000C55080231E0184511B48554221238A6313
:100610008460C46004610467446185614267C363A8
:100620004260164A16491668301C03F045FC154D09
:1006300015490138FA23000208602C609900301C2B
:1006400003F03AFC114E124A01387060106AC02360
:1006500001020D0A180628431062B46007243460B2
:1006600062B670BD008004405F210100004004407C
:100670000000035000000150000001400400001081
:1006800000093D002C00001000C0014010E000E017
:1006900000ED00E0F0B591B0009316AB041C1878A3
:1006A0000D1C17A9161C0F78019002F0FFFA0268C2
:1006B000416809920A918268C1680B920C910269A3
:1006C0004169806903AB0D920E91199A18990F90A8
:1006D0009C7109486C465F730595277825790892C7
:1006E000079103900D21181C044A1E735D711F7140
:1006F00003F08AFB11B0F0BDEFBEADDE300000109C
:10070000F0B593B005915D4A06A90B1C071C31CAD0
:1007100031C331CA31C302F059FC02F0EDFA02F0E4
:10072000D9FA002826D0059802F01EF90020019081
:1007300002900A200097011C514A012301F06EFB30
:1007400002F0C8FAC82815D902F0D6FAF8E703F083
:1007500053FA002800D084E0049C022C2BD9494E87
:10076000049BB34200D181E006A80CA902F022FA52
:1007700000287BD0059802F0F7F8B42002F02EF99B
:10078000414E424D002480212A1C0223080200967B
:1007900082210194029401F041FB201C02F01EF919
:1007A0008022100200960194029482212A1C0223C6
:1007B00001F034FB0494049B06ADDC002E19605953
:1007C00071680F223B1C01F041FC62597368101CD8
:1007D000191C0A38033A009702F01AF86259736834
:1007E000D01C191C0A32009702F012F87368625983
:1007F000191C101C0A39033B009702F009F86259D2
:100800007368101CD91C00970A3302F001F802F03B
:1008100073FA02F015F9002899D0F823605971682D
:1008200004221B0201F0D0FDC8204000FFF73CFE6F
:1008300071680F226059059B01F0C6FD02F056FA5F
:100840000CAD605102F04CFA049A2919013248604B
:10085000049202F03FFAC82800D878E702F04CFA78
:10086000F7E703F039F9002800D075E702F0AEFB96
:10087000059802F079F813B0F0BDC046384D00007D
:10088000504D00009A02000010840000644D0000EA
:10089000F0B5924B93B0089018680F1CF8210A022B
:1008A0000990FC240020011CE5000092EF236A223D
:1008B00001F0C0FC1F2600956A200021D422EF23FE
:1008C00001F0B8FC0021864AEF230096D42001F005
:1008D000B1FC8448FFF7E8FD381C02F045F8002021
:1008E00002F07CF8C8231C0228220026131C009466
:1008F0000A20142101F068FF19217B4A331C00945F
:10090000019602960F2001F089FA5A2002F066F84B
:10091000C820C5002822131C00950A20142101F0CC
:1009200053FF1921714A331C0095019602960F203E
:1009300001F074FAB42002F051F819242822131C93
:1009400000940A20142101F03FFF211C684A331C47
:100950000094019602960F2001F060FA872148006A
:10096000644D02F03BF82822131C0A201421009544
:1009700001F02AFF211C604A331C00950196029663
:100980000F205E4C01F04AFA301C02F027F850218B
:100990000B1C301C524A009401F03AFFA0210B1CA2
:1009A000301C4F4A009401F033FFF0210B1C301C27
:1009B0004B4A009401F02CFF5020021C311CEF2305
:1009C000009401F025FFA020021C311CEF230094AD
:1009D00001F01EFFF020021C311CEF23009401F0F7
:1009E00017FFA02078212822231C01F02FFB0220D2
:1009F000011C434A331C00940196029601F00EFA42
:100A0000802210020223009401960296011C3D4AA6
:100A100001F004FA012305960796049302F06CF99D
:100A200002F00EF8384E069000282AD002F068F83E
:100A3000041C02F00BF80799051C8C4202D1059AA0
:100A400090421AD0069B31490093221C2B1C0AA805
:100A500003F016FB08980121009002910AAA0221D6
:100A600000230197502001F0D9F9F823201C291CFC
:100A700004221B0201F0A8FC05950125756007946E
:100A800001E006987060154C2268D20612D5FFF777
:100A900025FD021E0ED01E490AA803F0F1FA08989F
:100AA000012100900C2002910197011C0AAA002349
:100AB00001F0B4F903F0A0F8002802D003F00CF81C
:100AC0000490049B002BA9D17360381C01F04CFFEB
:100AD000024F099E3E6013B0F0BDC04630100010BA
:100AE0003F010000DC050000704D0000744D000067
:100AF000784D000019C800007C4D0000CF7B00003D
:100B0000804D0000884D0000000003508D4D000016
:100B1000A34D0000F0B589B00790081C0F1C05928A
:100B200001F022FF059B0224D8000490261C03F04C
:100B300063F800282FD002F0CFFF051E0A2D05D044
:100B40000D2803D0092807D1202505E0002E0FD05D
:100B5000049A0226A4180BE007990123009102933E
:100B6000301CEAB20197211C059B01F09DF8061C80
:100B700001F046FF864202D3049EA419022604987F
:100B80002118069101F042FF069B834203D3381CD3
:100B900001F0EAFE0224002DC9D1381C01F0E4FE68
:100BA00009B0F0BDF0B5A64E87B003913168019051
:100BB0008847326802909047336804909847051C34
:100BC00030688047041C02F087FF8021071C0F401B
:100BD0000597071C8F4302F079FC0499029A0B19C0
:100BE0005219013A013B029802F06EFA02F056FAED
:100BF000022F08D0042F0BD0012F0DD1914B0020D4
:100C00000393019008E08F4800230393019003E0D1
:100C1000019A0399039201918B4A059B11680291F5
:100C2000002B00D0B3E065430A2F06D8082F48D226
:100C3000013F032F00D97AE016E0182F00D076E0AC
:100C400099E002F0D9FF002816D002F045FF2E1CD3
:100C5000071C083E8024274209D00198013D02F07C
:100C600009FA6408B54204D1002DEAD10CE00398DA
:100C7000F4E7002DEFD107E0734E029C3268FA23AF
:100C8000101BD9008842EFD902F016FC07B0F0BD66
:100C900002F0B2FF002838D002F01EFF082F13D157
:100CA0001823034015246343E022024016029900F2
:100CB000072210400E438300301C184302F0DAF97B
:100CC000013D002DE4D1DFE7092F0DD11C230340A6
:100CD000E0210140DE000A02F4180321E30008408D
:100CE0000A24134344430DE0C02202400A235A431E
:100CF00038240440E10056010A19930033430726C3
:100D000030408400181C2043D8E74F4A029B1068EB
:100D1000FA26C11AF400A142D3D9B5E702F06CFF5C
:100D2000002807D03768B84702F0A4F9013D002D2C
:100D3000F4D1A9E7444F029C3868FA22011BD30082
:100D40009942F4D9A0E702F057FF002816D002F02C
:100D5000C3FEF8242040070202F0BEFEFC21061C60
:100D60000E4002F0B9FEF60004403E43E008304376
:100D700002F080F9013D002DE5D185E7324E029C5D
:100D80003068FA22011BD3009942F4D97CE7059818
:100D9000802800D078E765430A2F07D8082F70D243
:100DA0007C1E032C00D9F6E02F1C12E0182F00D077
:100DB000F1E031E1002F09D0049A224221D00198BC
:100DC000013F02F057F96408AF42F3D1013E002E13
:100DD00019D1002F00D157E702F00EFF002826D0CE
:100DE00002F07AFE051EAA2D10D102F075FE061E35
:100DF00000D149E702F070FE04903D1C083D8024BC
:100E0000DAE70398DCE7002FF7D13DE73E1C083E08
:100E10008024254201D0019800E00398013F02F0B0
:100E200029F96408B742D4D0002FF2D12CE7064D3F
:100E3000029A2E68FA23B11AD8008142C9D923E751
:100E40001C000010FFFF00002C000010092F35D1FE
:100E50001C240440E3001919E022032402400A2361
:100E6000204058431602CA00164306432C1C301C6F
:100E700002F000F9013C019B601BC218002A2CD132
:100E8000251C002D00D1FFE602F0B6FE00285CD044
:100E900002F022FEAA2823D102F01EFE01900028B3
:100EA00000D1F1E602F018FE082FCFD1E02618217C
:100EB0000640014015223602514308E0C0220A21B3
:100EC00002404A4338240440E3005601191907241C
:100ED000890020400E438000C7E7002CC7D1CFE730
:100EE000082F0ED11823034015214B43E02606405E
:100EF00032029C000726304022438300101C184316
:100F00001FE0092F0DD11C230340E0240440D90029
:100F10002602CA180324D30020400A223343424346
:100F20000DE0C02101400A23594338220240D40079
:100F30004E01A1188B003343072630408200181C55
:100F4000104302F097F86C1E9AE7474902980B6825
:100F5000FA261C1AF200944200D995E62C1C8FE761
:100F600002F04AFE002820D03768B8473F4988423F
:100F700017D102F0B1FD071E00D185E63068804729
:100F80002C1C01900198013C02F074F8631BDA19E3
:100F9000002A03D1251C002DE2D175E6002CF1D1E9
:100FA000F8E702F067F86C1EF4E72F4F029C3968EF
:100FB000FA23081BDA00904200D965E62C1CE9E709
:100FC00002F01AFE002843D03768B847AA2829D172
:100FD00002F082FD071E00D156E602F07DFDF824E6
:100FE00020400002019002F077FDFC23019A184096
:100FF000C1000A43019202F06FFD04400198E40829
:10100000204301902C1C0198013C02F033F8631B33
:10101000D919002903D1251C002DD1D134E6002C8B
:10102000F1D1F8E7F82738400102019102F054FDB0
:10103000041C02F051FDFC231C40E2000740019912
:10104000101CFF083843084302F014F86C1EE2E756
:10105000054C02992768FA23781ADA00904200D9E1
:1010600012E62C1CD7E7C0462C000010AAAA0000EC
:10107000F0B5454D8BB009912968161C089088473A
:101080002B68041C9847059002F026FD0127C20931
:101090003D1C954307957F250540681E1D2800D9F6
:1010A0003D1C002E02D102F017FD069080210B029C
:1010B0009C420CD101F0A4FC069AEF00574344086F
:1010C0007808271A01F09CFC8742A4413C40059A0D
:1010D00080210B029A420AD101F098FCAF0040082F
:1010E000C71B01F093FC874289410F400597274BAE
:1010F0001F68002E3BD1069A002A43D002F07CFDE7
:10110000002817D002F0E8FC061C01F079FC8442AC
:101110000CD208980999079B009001910293201C1A
:10112000F2B205992B1C00F0BFFD041C069A013A8F
:101130000692E0E7154EFA233068DA00C11B9142AF
:10114000D9D91FE002F0C8FC061E1BD001F058FCE4
:1011500084420CD208980999079B00900191029350
:10116000201CF2B205992B1C00F09EFD041C02F01D
:1011700043FD0028E6D1054EFA213268CB00D01B92
:101180009842F4D90BB0F0BD1C0000102C000010E8
:10119000F0B58DB0FFF704FA01F03EFCA94B1868DA
:1011A000810701D501F012FFA748FFF7EDF9A74D20
:1011B000A74C29680A68A2422BD0A64F01267E6060
:1011C000A54E0024301C01F0CFFB0A20A34A011CCD
:1011D000012300940194029400F020FE3220FFF7D6
:1011E0006DF9FA2398007C60FFF75EF9201C311C32
:1011F000FFF786FA96210220890100940194029457
:101200000396A0223023FFF745FA201C311CFFF77C
:101210003FFB2F68BE6AF969B8693A6A7B6A009633
:10122000FC6A01943F6B8E4C029701F043FD2868E5
:1012300043690269181C0792069301F095FB29681F
:101240004879FFF73BF92E6830796043FFF79CF946
:101250002F68B86802F096FB2868007B02F09CFAC1
:101260002A68507B02F0DCFC2D68AC79201CA0239E
:10127000D9050E69002E0CD1802630010B580420B0
:10128000002BF4D0774D02246A680120002AEED0AA
:10129000ECE7002402F028FD09940A940894694FB1
:1012A0003868810713D5704D0A9B2A68099ED11AA8
:1012B000B14203D32C680A9401F01EFD02F09CFC9D
:1012C000002802D10A270997E9E7322009903D68F2
:1012D000E9060ED502F090FC00280AD1624B0B996A
:1012E0001A68624C561AA64203D918680B90FFF789
:1012F000F5F802F0F1FB0138862801D900F0CEFCA8
:1013000002F004FE87008C009B00BA00CDFF0901AB
:10131000CC04CC04CC04CC04CC04CC04CC04CC044D
:10132000CC04110117011A011F012401CC04CC04C3
:10133000CC04CC04CC04CC04CC04CC04CC04CC042D
:10134000CC0429012E01330138013D01420147013E
:101350005001550159015D015F016C017801820165
:101360009701AC01BB01DE01FE011E0236024802FC
:101370005F0277028902AC02C902E002FC02190393
:1013800030034C035D036B037B038C039A03AA03B6
:10139000BF03CE03E403F90308041E0427042A0450
:1013A0002E0437043A04CC04CC04CC04CC04CC0482
:1013B000CC04CC04CC04CC04CC04CC04CC04CC04AD
:1013C000CC04CC04CC04CC04CC04CC04CC04CC049D
:1013D000CC04CC04CC04CC04CC04CC04CC04CC048D
:1013E000CC04CC04CC04CC04CC04CC04CC04CC047D
:1013F000CC04CC04CC04CC04CC04CC04CC04CC046D
:10140000CC0441044E04530456045B04650479047F
:10141000BE04174802F052FB00F040FC089C002C70
:1014200002D13220FFF74AF807980699FFF730FA01
:10143000104902200B6800F030FC0E4A132013689C
:1014400000F02BFC30100010006CDC0200000010DB
:10145000EFBEADDE00000350FFFF0000AC4D00000A
:1014600040420F00FC0001502C000010E703000078
:10147000834D00002400001002F02EFB01380628E6
:1014800000D90CE702F04CFD0422272D32373E0034
:1014900002F024FC071C02F01BFC051C02F012FCED
:1014A000061CE848047802F007FC08ABF9B2F2B277
:1014B0001F78C6B2069B0798039302900097081CFA
:1014C0000196291C231CFFF7E5F8E8E602F004FB6F
:1014D00002F00AFCE3E6DC4F3B68984702F052FA60
:1014E000DDE602F0F9FA02F057F9D8E602F0F4FA74
:1014F00002F096FBD3E602F0EFFAD4494843FFF737
:1015000043F8CCE602F0E8FA051C820701D501F0A9
:101510005DFD3D60C3E6CE4A146802F0DDFAFEF7D9
:101520005BFFA047BBE602F0D7FA0890FEF7C6FFC4
:10153000B5E601F071FAB2E602F0CEFA01F0ACFEC7
:10154000ADE602F0C9FA01F0A1FFA8E602F0C4FA84
:1015500001F08EFFA3E602F0BFFA01F03FFA9EE62B
:10156000BB4D2C6801F04CFA43E3B948046801F024
:101570004DFA3EE302F0B0FA01F06AFE8FE6B54B99
:101580001E68B04707908AE6B2490F68B8470690D0
:1015900085E6079806990122FFF7BCFAAE4C262093
:1015A00023687AE307980699FFF7FCFA77E6A94DD6
:1015B0002A68904700E0079801F0D6F96FE6069890
:1015C000FAE7A44C216888472368071C9847061C43
:1015D00020688047311C021C381C08E09D4E306892
:1015E00080473268051C9047079A011C281C01F0AF
:1015F0009BF954E6974C216888472368071C984755
:10160000069A011C381CF2E7924C2768B8472668F6
:10161000071CB04725680490A847061C206880472F
:101620002268051C904704990090321C381C2B1C22
:1016300011E0884C206880472268071C9047216889
:10164000061C88472368051C9847079C031C0094C8
:10165000381C311C2A1C01F0DBF820E67D4C206888
:1016600080472268071C90472168061C884723682A
:10167000051C9847069C031CE9E7764F39688847A4
:10168000059002F029FA3B68041C984704903868DA
:101690008047051C002C00D101E66E4E013C3268EB
:1016A00090473168071C8847059B061C0093291C3E
:1016B00004983A1C331C01F0ABF8351C0497E9E799
:1016C00002F00AFA634F041C3A68904739680490A4
:1016D0008847051C002C00D1E1E55E4E013C3368D3
:1016E0009847071C30688047079A061C0092291CFF
:1016F00004983A1C331C01F08BF8351C0497E9E779
:1017000002F0EAF9534D041C286880472A680490C7
:101710009047051C002C00D1C1E54E4E013C3168BC
:1017200088473368071C9847061C0698291C0090B8
:101730003A1C0498331C01F06BF8351C0497E9E758
:10174000444C2568A8472668051CB04704902068CB
:1017500080472268071C90472168061C8847049C24
:10176000EB19A7195A1E00907B1E281C211C25E08E
:10177000384C2668B047061C206880472268051C44
:1017800090472168071C8847F3195A1E2B18013B04
:10179000079C10E02F4C2568A847061C206880474E
:1017A0002268051C90472168071C8847F3195A1EB8
:1017B000069C2B18013B0094301C291C01F004F8F6
:1017C0006DE5244C2668B047051C206880472268D8
:1017D000049090472368071C98472168061C884797
:1017E000EC19049F0090BB19621E013B281C391C98
:1017F00025E0184C206880472568061CA847226809
:10180000051C90472368071C9847F1192B184A1E9E
:10181000013B079C10E00F4C206880472568061CA0
:10182000A8472268051C90472368071C9847F119B0
:101830002B18069C4A1E013B0094301C291C00F00A
:10184000F9FC2CE5040000101400001040420F00C9
:10185000180000101C00001024000010EB4C206841
:10186000804725680490A8472768051CB847226868
:10187000071C90472368061C9847216805908847F5
:10188000049C0599E719AE19009101907A1E731E08
:10189000201C291C2FE0DD4C2568A8472168051C69
:1018A000884726680490B0472268071C9047236841
:1018B000061C9847EC19049F0090B919621E4B1E34
:1018C000079815E0D14C2568A847051C206880477B
:1018D0002368049098472168071C88472268061CE3
:1018E0009047EC19049F0090BB190698621E013BBB
:1018F0000190391C281C00F0BBFDD0E4C34C2568C6
:10190000A8472268049090472768051CB847071C21
:10191000206880472368061C9847216805908847FF
:10192000049C0190E219AF19059E013A7B1E0096B6
:10193000201C291C2FE0B54C2568A8472268051CEF
:10194000904726680490B047071C206880472368AA
:10195000061C9847E919049F4A1EBC19631E009093
:10196000079915E0A94C236898472268051C904701
:1019700027680490B8472168071C8847061C206820
:101980008047EC19049F0699BB19621E013B009029
:101990000191281C391C00F089FC80E49B4C2268D2
:1019A00090472168071C88472568061CA847051C26
:1019B00020688047311C031C2A1C381C1AE0934CF9
:1019C0002568A847071C206880472368061C98479D
:1019D000311C021C079B381C0CE08C4C2368984778
:1019E0002268071C90472168061C8847069B021C3A
:1019F000311C381C00F02AFB51E4844C22689047CB
:101A00002168071C88472568061CA847051C206814
:101A10008047311C031C2A1C381C1AE07B4C2568AB
:101A2000A847071C206880472368061C9847311C7C
:101A3000021C079B381C0CE0744C236898472268F2
:101A4000071C90472168061C8847069B021C311C16
:101A5000381C00F0B9FC22E46C4C2768B8472668B3
:101A6000071CB04725680490A8472168061C8847D2
:101A7000051C2068804704990090321C381C2B1CE0
:101A800020E0624C21688847071C20688047236853
:101A9000061C98472268051C9047079C031C0DE014
:101AA0005A4C21688847071C206880472368061C19
:101AB00098472268051C9047069C031C0094381C1C
:101AC000311C2A1C00F0ECF9FFF7E9FB4F4C2668AB
:101AD000B0472568071CA847049020688047236802
:101AE000061C98472268051C904704990090321CF8
:101AF000381C2B1C20E0454C2768B8472368071C7E
:101B000098472268061C90472168051C8847031CDB
:101B100007980DE03D4C2668B0472368071C98479E
:101B20002268061C90472168051C8847031C0698FC
:101B30000090311C381C2A1C00F0BCFDFFF7AFFBE5
:101B4000324C21688847051C20688047011C281CEE
:101B500004E00798069901E00698079900220EE034
:101B60002A4C236898472268071C9047011C381CA0
:101B700004E00798069901E0069807990122FFF70B
:101B800077FAFFF78CFB224F3D6800F0B9FFA847BA
:101B90003E6800F05BFFB0473C6800F051FF28E072
:101BA0001B48046800F0ACFF23E019490C681EE0F4
:101BB000174A146801F08EF81BE000F041FF00287E
:101BC0000FD101F099F80520FEF76EFCF5E701F062
:101BD00081F8002805D001F08FF80520FEF764FC9D
:101BE000F5E70B4F3E6800F08BFFB0473C6800F014
:101BF0002DFFA04752E001F06DF800280AD101F056
:101C00007BF80520FEF750FCF5E7C0461C000010ED
:101C10001800001000F074FF051C00F017FF041CF2
:101C200001F058F8002805D001F066F80520FEF70D
:101C30003BFCF5E700F064FF061C00F007FFB5422F
:101C400003D9AA1B0127132A07D8B54201D30027BD
:101C500003E0711B1329FAD90227844204D9251AFB
:101C6000132D01D9042005E0844204D2041B132C57
:101C700001D9082007430B4B381C1E68B0470DE004
:101C8000089F002F02D13220FEF718FC0798069912
:101C9000FEF736FD034D87202B68984701F080FF43
:101CA000FFF7FDFA24000010F0B5151C1C1CDA002B
:101CB000574B8BB0071C0E1C111818680691013980
:101CC000814205D2534B711E8A1819688A4201D38A
:101CD000471C9AE01F2D00D897E0601E0790203D1A
:101CE00001F0F4FB4C4AED000799AB180293002970
:101CF00038D1341C08340494351C029A3B1C901BC8
:101D0000415D08338022039105933C1C01920398A6
:101D10000199084209D0201C291C221C2B1C01F00F
:101D2000D3F901F0BBF910980BE0129B002B0AD0FD
:101D3000201C291C221C2B1C01F0C6F901F0AEF955
:101D4000119801F097F9019A059950080134019012
:101D50008C42DCD1049C0135A542CED101F0ACFB14
:101D6000069F52E00298019608300990029E029A5E
:101D7000357801990132631E0895079D58187E1C1D
:101D8000029280230822751905903E1C0392049349
:101D9000089804996A1E08421CD0301C0199059BC2
:101DA00001F092F901F07AF9AE1B6643002E04D0DF
:101DB000109801F05FF9013EF8E70399049A0139A0
:101DC00003912B192E1C039D50080490002D14D054
:101DD0001D1CDDE7129B002BEFD0301C0199059BE9
:101DE00001F072F901F05AF9AE1B6643002EE4D0FF
:101DF000119801F03FF9013EF8E7019A0299099B19
:101E0000101901909942B1D1A8E7381C0BB0F0BD70
:101E1000341000103C100010BC4D0000F0B50E1C3A
:101E200087B0151C1C1E00D1012480231902884292
:101E30000FD1194F3A6850080590281C02F042F95A
:101E4000E3004343059A59083F68531ABB42804157
:101E5000184080210A02964218D1104EE3003768DC
:101E60005A087908891AB942B6410E400EE00C9F13
:101E70000D9B0E99009701930291231C311CFFF7D3
:101E800013FF054A01351768B84202D82A78002A9C
:101E9000EDD107B0F0BDC046341000103C1000106A
:101EA000F0B58BB007935B43564206917100041C5A
:101EB0000131301C5943704352430D1852005B00EE
:101EC0000027049105900295089209930397002E2C
:101ED0007EDCA51B5B480195039F06990368019A68
:101EE0007D189A4212D2584F39688D420ED201F0B5
:101EF000EDFA0198291C021C2B1C01F0E5F801F0F9
:101F0000CDF8109801F0B6F801F0D6FA4D4837191F
:101F100003689F4212D24C4A11688D420ED201F0E2
:101F2000D5FA381C291C3A1C2B1C01F0CDF801F005
:101F3000B5F8109801F09EF801F0BEFA414B069DED
:101F400003981A682D1A974212D23F4908688542B1
:101F50000ED201F0BBFA381C291C3A1C2B1C01F0D4
:101F6000B3F801F09BF8109801F084F801F0A4FA9E
:101F7000344F019A3B689A4212D23349086885422D
:101F80000ED201F0A3FA0198291C021C2B1C01F0AF
:101F90009BF801F083F8109801F06CF801F08CFACE
:101FA000029D049B6F009F4205DB099A0136991838
:101FB000681804910290059DAF4288DC089B039F3E
:101FC0000299EA18013788180397059202907EE774
:101FD000039D013507996E1E8E4231D2194F386824
:101FE000844214D2184B069A1968AE188E420ED24B
:101FF00001F06CFA201C311C221C331C01F064F827
:1020000001F04CF8109801F035F801F055FA3F68EE
:10201000BC42DED20C4A06981368461B9E42D8D2B8
:1020200001F054FA201C311C221C331C01F04CF826
:1020300001F034F8109801F01DF801F03DFAC8E7FE
:102040000BB0F0BD341000103C100010F0B589B09A
:102050000791514206900293059101920024019A42
:10206000A24200DADFE071490698019B079E0A68E8
:10207000C51A0395371B954212D26D4803689F42DB
:102080000ED201F023FA0398391C021C3B1C01F00C
:102090001BF801F003F8029800F0ECFF01F00CFAD5
:1020A0006248069D079E019903682A1B0492761ACE
:1020B0009A4212D25E4D2A6896420ED201F006FA7A
:1020C0000498311C021C331C00F0FEFF00F0E6FFF8
:1020D000029800F0CFFF01F0EFF9544B01990698F8
:1020E0001A680D18954212D25149086887420ED2DB
:1020F00001F0ECF9281C391C2A1C3B1C00F0E4FF01
:1021000000F0CCFF029800F0B5FF01F0D5F9474B85
:10211000069F1A68E719974212D245490868864215
:102120000ED201F0D3F9381C311C3A1C331C00F0DC
:10213000CBFF00F0B3FF029800F09CFF01F0BCF968
:102140003A4B079E1A68A619954212D23849086878
:1021500086420ED201F0BAF9281C311C2A1C331C0D
:1021600000F0B2FF00F09AFF029800F083FF01F048
:10217000A3F92E4A019D079B1168ED188F4212D2D8
:102180002B4803689D420ED201F0A0F9381C291C8F
:102190003A1C2B1C00F098FF00F080FF029800F022
:1021A00069FF01F089F9214F039A39688A4212D2F6
:1021B0001F4803689E420ED201F088F90398311C33
:1021C000021C331C00F080FF00F068FF029800F052
:1021D00051FF01F071F9154E04993768B94212D2D6
:1021E000134A106885420ED201F070F90498291C38
:1021F000021C2B1C00F068FF00F050FF029800F05A
:1022000039FF01F059F9059D2B191E1C01343619AF
:10221000059600D523E7019F0599013FCA1BD01BF6
:10222000019705901BE709B0F0BDC04634100010BF
:102230003C100010F8B51D1C1A4B141C1A68061C23
:102240000F1C904200D3561E174801688F4200D3DE
:102250004F1E944200D3541E8D4200D34D1EA64201
:1022600002D9664074406640AF4202D96F407D405B
:102270006F4001F02BF92B1C301C221C391C01353E
:10228000013400F021FFA61B00F008FFEB1B5E43AA
:10229000002E04D0069800F0EDFE013EF8E701F0B4
:1022A0000BF9F8BD341000103C100010F0B58DB0E3
:1022B000129C061C2718101B151C0390874200D384
:1022C00080E06218181B0592069082427AD2139A17
:1022D000381C0092039AFFF7ADFF139B301C00934C
:1022E00005993A1C069BFFF7A5FF13992A1C00913C
:1022F00003980599069B6642FFF79CFF0025079609
:10230000AC425FDB05981399421B0492009104993B
:102310003B1B181C08933A1C0B1CFFF78BFF059EF8
:102320001398361B7B1B311C0B9300903A1C181C16
:10233000331CFFF77FFF039A139BA118081C099118
:1023400004990093039A0B1CFFF774FF03981399E9
:102350002A18101C331C0A920091039A311CFFF7B3
:1023600069FF069E139BAE19311C00930998331C1C
:10237000039AFFF75FFF0698139A2318191C00921F
:102380000A98039A0493FFF755FF1399331C0091A1
:102390000898311C3A1CFFF74DFF139E04990B98C7
:1023A0003A1C0B1C0096FFF745FF079B5819021CAF
:1023B000013552190792A3D40799013C0E1B331B18
:1023C00007939DE70DB0F0BDF0B587B00593264BA0
:1023D00002900391811A1868814242D2234E039CD5
:1023E0003768A51ABD423CD251420491151C002405
:1023F000A54236DB029A039B0598571BE318AE18DB
:10240000191C321C0090381CFFF714FF0399059A21
:102410000B1B381C191C0092321CFFF70BFF029E8D
:10242000039B0598371BEB18A619191C321C00904A
:10243000381CFFF7FFFE0399059A4B1B0092381CCE
:10244000191C321CFFF7F6FE049F3E19331C0134A1
:102450001B190493CCD40498013D411B4A1B0492E0
:10246000C6E707B0F0BDC046341000103C100010A5
:10247000F0B58BB0109C8446161C2018121B0D1C46
:102480001F1C05900692904200D30DE16319391B81
:10249000079308918B4200D306E111986246191CFC
:1024A0000090089B6046FFF7C5FE119A391C3B1C43
:1024B00000920598069AFFF7BDFE119F301C321C52
:1024C0000799089B0097FFF7B5FE119E2B1C291C4E
:1024D00000960598069AFFF7ADFE65420023099520
:1024E000029302998C4200DADEE0704D0598079F56
:1024F000029E2B68021B0392BF1B9A4212D26C49A8
:10250000086887420ED200F0E1FF0398391C021CD4
:102510003B1C00F0D9FD00F0C1FD119800F0AAFDB0
:1025200000F0CAFF6149029E059A079B0868951B47
:1025300004951E1B854212D25D4A1568AE420ED22A
:1025400000F0C4FF0498311C021C331C00F0BCFDD9
:1025500000F0A4FD119800F08DFD00F0ADFF53498F
:10256000069B0868E518854212D2514A13689F42BB
:102570000ED200F0ABFF281C391C2A1C3B1C00F0BB
:10258000A3FD00F08BFD119800F074FD00F094FFA6
:102590004648029F069902687F18974212D2444B20
:1025A00019688E420ED200F091FF381C311C3A1C83
:1025B000331C00F089FD00F071FD119800F05AFD08
:1025C00000F07AFF394A029E0898136836189D4237
:1025D00012D23749086886420ED200F077FF281CD5
:1025E000311C2A1C331C00F06FFD00F057FD1198C0
:1025F00000F040FD00F060FF2C4A089D136865194B
:102600009F4212D22A49086885420ED200F05EFF2E
:10261000381C291C3A1C2B1C00F056FD00F03EFD16
:10262000119800F027FD00F047FF204F039A3B6808
:102630009A4212D21E49086886420ED200F046FF26
:102640000398311C021C331C00F03EFD00F026FDF7
:10265000119800F00FFD00F02FFF144E049B376817
:10266000BB4212D2124A11688D420ED200F02EFFE8
:102670000498291C021C2B1C00F026FD00F00EFD06
:10268000119800F0F7FC00F017FF0298099D2E1832
:10269000013002908019099000D522E7099F013C82
:1026A0003B1B1A1B09921CE70BB0F0BD3410001045
:1026B0003C100010F0B58BB00593414B041C049105
:1026C000811A1868814278D23E49049D059E0B68A4
:1026D000AF1B9F4271D2059E554276436F00013772
:1026E000281C5243774368437100520002970390BD
:1026F0003F18089209910026002D26DC04981099B5
:10270000631B069333182A1900910698191C079227
:10271000FFF790FD049A1098931B191C0090079ADC
:102720000698FFF787FD02997B008B4204DB099A2C
:102730000135881802903F18039A9342DCDC089B0D
:102740000136D11803917F18D6E7751C059E6B1EC4
:10275000B34232D21A4F3868844214D21949049ACB
:102760000B68AE189E420ED200F0B0FE201C311C49
:10277000221C331C00F0A8FC00F090FC109800F024
:1027800079FC00F099FE3F68BC4214D20D4A0498CF
:102790001168461B8E420ED200F098FE201C311CA0
:1027A000221C331C00F090FC00F078FC109800F024
:1027B00061FC00F081FE0135C8E70BB0F0BDC046FA
:1027C000341000103C100010F7B51F1C089B061CAD
:1027D000151C0093321C3B1C0C1CFFF72BFD0898AA
:1027E000391C2A1C3B1C0090301CFFF723FD089964
:1027F000281C2A1C3B1C0091211CFFF71BFD089A7A
:10280000301C0092211C2A1C231CFFF713FDF7BD6E
:10281000F0B589B0051C0C1C02920393904201D0C4
:10282000994208D10E98211C0090029A281C039B03
:10283000FFF700FD71E03A4B1A68904200D3551E35
:1028400038480668B44200D3741E0299914201D3FD
:10285000013A0292039FB74201D3013E0396029BC5
:10286000039A01205F1B161B0490002F02DA4342DB
:102870007F42049301220592002E02DA50427642F2
:102880000590790073000691079300F01FFE281C45
:10289000211C2A1C231C00F017FC00F0FFFB0E98E3
:1028A00000F0E8FBB7421ADD079AD71B0298854271
:1028B0001AD0002F03DB0599069B6418FF1A049EAB
:1028C000079AAD19281C211C231CBF182A1C00F0D4
:1028D000FBFB00F0E3FB0E9800F0CCFBE6E7069F65
:1028E000BE1B039A944202D100F0E6FD15E0002ED3
:1028F00003DB049807992D18761A059B281CE41809
:10290000069F211C2A1C231C00F0DEFB00F0C6FBE6
:102910000E98F61900F0AEFBE3E709B0F0BDC04633
:10292000341000103C1000100D4B70B5051C1868D9
:102930000C1C161C854212D20A490A6894420ED217
:1029400000F0C4FD281C211C2A1C231C00F0BCFB29
:1029500000F0A4FB301C00F08DFB00F0ADFD70BD5D
:10296000341000103C10001038B5041C00F0AEFD0F
:10297000154B16481A6803680020013A013B011CF8
:1029800000F0A2FB00F08AFB9625AD01201C00F0B0
:1029900071FB201C00F06EFB201C00F06BFB201C68
:1029A00000F068FB201C00F065FB201C00F062FBBF
:1029B000201C00F05FFB013D201C00F05BFB002DA4
:1029C000E4D100F079FD38BD341000103C10001047
:1029D000014B18687047C0463810001008B5054B09
:1029E000186000F0B3FB0449044B82B2000C0A608B
:1029F000186008BD381000103C1000103410001092
:102A0000014B18687047C04634100010014B18681D
:102A10007047C0463C10001010B5064B06490748E9
:102A200000241C6004600C6000F086FC201CFFF792
:102A3000D5FF10BD34100010381000103C100010ED
:102A4000014B18687047C0464C10001038B5244838
:102A5000244B01681C68244D8C4212D0234B046027
:102A6000596818682A6860434A4380189A689969C7
:102A7000801801F021FA1E4B984200D9181C1D49FC
:102A800008601D482D680268954210D0174B0560FC
:102A9000D86860431C69654341195D6948199969A3
:102AA00001F00AFAEF2800D9EF20144A1060FFF76E
:102AB0008FFF87235C00A04201D10E480DE0B428AF
:102AC00003D10E4BEF221D6804E05A2804D10949B6
:102AD000074A0D68501B01E00848006838BDC04631
:102AE00074100010501000105410001058100010F6
:102AF0003F01000044100010781000104810001032
:102B000038B52448244B01681C68244D8C4212D0EF
:102B1000234B0460596818682A6860434A43801848
:102B20009A689969801801F0C7F91E4B984200D93C
:102B3000181C1D4908601D482D680268954210D078
:102B4000174B0560D86860431C69654341195D698E
:102B50004819996901F0B0F9EF2800D9EF20144A1B
:102B60001060FFF735FF87235C00A04203D1104BB4
:102B7000EF221D6804E0B42804D10B49094A0D680E
:102B8000501B05E05A2801D1094800E006480068BA
:102B900038BDC046741000105010001054100010C2
:102BA000581000103F010000441000107810001071
:102BB00048100010F0B5021C0F6908688BB04D6911
:102BC000CE68C41B844688684968059406964C1BE9
:102BD000761B0495059DC31B0793754363430396BA
:102BE000EE1A314B0290089109949E610120002E4B
:102BF00057D0106811699468451A661A0998039CA1
:102C000070436C43241A1C600598079C4643654337
:102C10001068751B66464E4378435D60351A9668AA
:102C200002987E434143069C711A6543089C96684E
:102C3000614369181568041C604670436C43251A8B
:102C4000049C50686543491999605169D268461AD5
:102C50000196019C039E551A66430396099E039CA8
:102C60006E43A61B059CDE606543019E079C744372
:102C700066462D1B3C1C4E434443341B029E574367
:102C80007143791A674670437A431D61069D821A23
:102C90006C43089D0498694342436418A6185E611A
:102CA00000200BB0F0BDC04658100010004870471F
:102CB0005810001010B5064C20606160E360039866
:102CC000029B0499A26023616061A16110BDC046AE
:102CD00058100010014B18687047C0464010001093
:102CE000014B18687047C04654100010014B18681B
:102CF0007047C04650100010F0B5A748A74A0168B9
:102D0000A74B0225802485B00391D56721025E5828
:102D1000A44CAE435E501F59AF431F5195675E5898
:102D20000125AE435E501F59AF431F518125A02797
:102D30005567FD056E5880273F013E436E50802643
:102D4000B446B601AF51984D8127EF675D58042610
:102D500035435D500021196107683E4306600568F0
:102D600066467104294301608446271C60468469D5
:102D70008949002CFADA0D688C4E35400D6088695F
:102D80000D68022635430D600404802508686E0432
:102D90003043A40D086061464D697F48002DFADA82
:102DA0000168824E3140016045692904804D8E0DD5
:102DB00071190C1B0294029E7E4DC82E00D8BBE0F8
:102DC0002E6002248025946729025E580124A643C0
:102DD0005E50DD590226A543734CDD51E6675E580F
:102DE0000425AE435E50DC598126AC43A025DC515E
:102DF000ED0556676C5880263601264300946E50C8
:102E0000802480262401B601AC518125D5675E5807
:102E1000022434435C50002199600568082635433C
:102E20000560016880246504294301606046C66925
:102E30005949002EFADA0D685C4C25400D60C869CE
:102E40005D4D0C68860908202E40044300960C60F6
:102E50000E6880256C0426430E606146CE694E489C
:102E6000002EFADA0568514C009E25400560C169C4
:102E7000002E65D0504D8C092C40A64260D1022610
:102E8000A024802156670902E5056C584B4E34405A
:102E90006C50EC592640EE510225D5675C5802264D
:102EA000B4435C50DD598124B543DD5194675E58CD
:102EB00001252E435E503C4E5D60F4675D5804244E
:102EC00025435D500021196106683443046005689C
:102ED000802461040D430560604686692E49002EFA
:102EE000FADA0D68314C344E25400D6088690C6863
:102EF00004252C430C608009304080240E68650452
:102F00002E430E606646B4692349002CFADA0E6837
:102F1000264D2E400E608969002811D0264E8C095E
:102F20003440A0420CD1264C264D00992060029ED0
:102F300025482960066003E02349002028600860D6
:102F4000039D912061468026A0240D60E405506712
:102F500031026658194D2E406650E6593540E5510C
:102F6000D0675D580224A5435D50DE59A643DE516B
:102F700090675C58012294435C50DE590A4C96439A
:102F8000DE51E0675858042290435850D959914374
:102F9000D95105B0F0BDC04600C00140004004401A
:102FA00000000150FC3F00000440044000FFFFF817
:102FB000FF03000040100010FE030000FFF7FFFFBA
:102FC00054100010501000104C1000101D4A1E48E4
:102FD00070B500231D4C136003601D491D4D1E4E2E
:102FE0001E4A1F4823601F4C0B602B601360036058
:102FF00033609120A023802160670902DB055E58C1
:10300000194D1A4A2E405E509E5835409D50184B1F
:10301000E0675E580225AE435E509E58AE439E5018
:10302000A0675E580125AE435E509E580434AE43FF
:103030009E50E0675C58042084435C50995881435B
:10304000995070BD401000105410001078100010FE
:1030500050100010741000104C1000104810001098
:103060004410001000400440FFF7FFFFFC3F000049
:103070000000015030B5084B8022FF2412010025CA
:10308000010AA4009D5019518021890099509D503A
:103090001851995030BDC04600000250094B8022A3
:1030A000802152010020090110B598505850FF208E
:1030B0002C2480001C508024A00058508021CC007B
:1030C0009C5010BD00000250F0B585B001900292F6
:1030D00080271D4A8020FF26009300010024B600AF
:1030E0007F012A258023D451145095519D008023BF
:1030F000DB0015509C46D3510B0A145093511550C8
:103100001450915115501450009B190A91511550AB
:103110006146145093512B231550D45114509351A0
:103120001550D1511450019F3B0A93511550145022
:1031300097511550145002990F0A97511550145079
:103140009151155005B0F0BD00000250F0B585B0AA
:103150001B281AD004D809281ED0122808D10DE047
:10316000B4280BD08723590088420ED05A2813D098
:10317000F020A0220290C826500012E0F027A023E1
:1031800018210297580003910CE0A0225400A825B2
:103190000294F020039505E0A02465000295F0203C
:1031A00068260396294B80260021B70180228024BF
:1031B000FF25D951AD0056013627220199518024AF
:1031C00099505F518027A400FF009C509F51995057
:1031D000039F5F519C50471E0397029F0004013FCD
:1031E00001972A27995199505F518027FF009C50E1
:1031F0009F51995059519C50995059519C509950F8
:10320000019F3F0A5F519C509950019F5F512B27AE
:103210009C50995199505F518027FF009C509F51BD
:10322000995059519C50995059519C509950039F15
:103230003E0A5E519C50995080215F518D019C50F7
:103240005A51029B184305B0F0BDC0460000025021
:1032500070B5802280250F4B9101802600246A01E1
:10326000FF255C503101AE008025AD00A04203D1A6
:1032700098505850202002E09C5021205C5080241F
:1032800098515D50E1009950802580221601A801D7
:103290001E5070BD00000250F8B5264C8023071C5C
:1032A000002298018025802622506D013601974228
:1032B0001CD1FF2293002821802280206751A75132
:1032C000E1508100D300A15114206351FDF7ECF8C7
:1032D000FF20802267518100A7519300102767507B
:1032E000A3518026F700675178201BE0FF23980048
:1032F0000021112761518022A15127508027910080
:10330000FF00A15178206751FDF7CEF80023FF227E
:1033100063512920A3519100802360509800A0514F
:1033200067511420FDF7C0F88025802128018A010B
:10333000A050F8BD00000250F0B5A9B003AE474957
:103340009322301C00F0B2FE454C80210F02E3595D
:10335000444A1343E351444BE0580243E250434A8A
:103360002020D5590543D551D15880270843FF0067
:103370000025D0501420E551FDF796F880235A001F
:103380007820E251FDF790F8802081016550705D52
:103390003F27031C0135BB43802B1DD0C02B2FD0F2
:1033A000402B30D1384001902B1C019AA81898422C
:1033B00024D080214A01802100270901F05CA75018
:1033C0006750FF27BF00E0518020870067508021B1
:1033D000C8000133A050E8E738402B1C2A189A4255
:1033E0000CD0802212010021F75CA150FF2189003E
:1033F00067508027B9000133A150EFE71D1C02E0A0
:103400003840FDF751F8922DC1D9802680217301F3
:103410000A010027E750FF25A75080272C20AE0087
:10342000B900A051A1508022D000E05096235E0246
:103430008025FF2280202F01002193008500013E7E
:10344000E151E150E551E151E150E5518E42EFD1BA
:1034500080240349A6018F5129B0F0BDBC5400005F
:1034600000000250FF0F0000FC3F0000000003506E
:10347000054B8022120100219950FF2189005850EC
:10348000802081009950704700000250094B802233
:10349000802110B55201002409019C505C50FF248A
:1034A000A4001851802084005C508021C8009850EE
:1034B00010BDC0460000025080218023024A08014E
:1034C000990150507047C046000002508023024AC4
:1034D000002198011150704700000250044B05492B
:1034E0001A6888541F20013202401A607047C04693
:1034F000B41800109010001000B5034BDA68910763
:10350000FBD5986000BDC0460000044038B5084CAB
:10351000051C2368C0B2984728042168000E88471C
:103520002A02100E23689847280E2568A84738BD40
:103530002400001038B5074C051C2368C0B298471A
:1035400028042168000E88472A02100E2568A84723
:1035500038BDC0462400001038B5054C051C236852
:10356000C0B298472804000E2168884738BDC0467D
:103570002400001038B5084C051C2368000E98473D
:1035800028022168000E88472A04100E23689847F5
:10359000E8B22568A84738BD2400001038B5074CAC
:1035A000051C00022368000E98472904080E2268B3
:1035B0009047E8B22568A84738BDC04624000010EF
:1035C00038B5054C051C00042368000E9847E8B286
:1035D0002168884738BDC0462400001000B5A023EC
:1035E000D9050A69002A04D1024B59698906FBD51D
:1035F000186000BD00800040802010B5C4056368DD
:10360000221C2E49802B0ED004D8602B09D0702BA1
:103610004DD106E0A82B19D0B82B2CD0902B46D139
:1036200001E0012044E00B68012B0CD1244A8024E6
:10363000E305116823489C684454013149054C0D49
:10364000146004222AE0042090612BE0022008602C
:103650001D4A1E4908681368984206D01C49C85C78
:103660000133A0601F24234013608022D005042171
:103670000160082219E00A68022A11D11348124A8F
:1036800001681368994206D01148C15C0133A160FA
:103690001F242340136080230422DB051A6001E00D
:1036A0000421A16180230822D805826105E0002061
:1036B0000424082308601460936110BD801000107A
:1036C0007C100010B010001088100010B41800100A
:1036D0009010001080220B4B10028022D8676C21C2
:1036E000D005094B8161002108481963596342687C
:1036F00002239A4342600430C26F20218A43C2678A
:103700007047C04604E100E00040044000800440EF
:10371000F8B51B4B1B4D00261E60FFF7DBFF1A4858
:103720000122AF6F02634263301CFCF72DFF391C8E
:1037300000F0C2FB154900F0BFFB8024E405606186
:10374000301CFCF721FF391C00F0B6FB0F4900F0DC
:10375000B3FB2E1D2061F36F20210B43F3676F68CD
:10376000022007436F600A4DFF232A68802156001C
:1037700008481E400F024425E66007602560F8BD3A
:1037800080100010008004400040044000350C0010
:103790001000001000E100E008B5044B1860044878
:1037A00001688A0701D5FFF7B3FF08BD10000010BC
:1037B000841000100B4A0323D16910B50B4002D0CE
:1037C000106A0343136208490B68D468640707D57D
:1037D000044884680548C45401335B055B0DF4E775
:1037E0000B6010BD000004407C100010B0100010F1
:1037F00080220F4B5003D8670E48082142680A43C5
:10380000426043680222934343600B481021112316
:10381000C1610166416683660848012142688A43A6
:1038200042600430C36F064A1A40C2677047C04600
:1038300004E100E000000440004004400080044037
:10384000FFF7FFFF10B5FFF7D3FF164B1122DA6128
:1038500002211A66144C01225A6699666068134B5D
:1038600010436060DC6F802000012043D867104B5C
:1038700006241A600F4BC722196104211A6059608F
:103880005C61D8680B4A400701D59268F9E70323C9
:103890001362546802210C435460074B802250038A
:1038A000186010BD004004400080044004800440C3
:1038B000948004400000044000E100E000B5084BA3
:1038C0009A68186811074B0F022B07D1054B064960
:1038D0001A68885401325005420D1A6000BDC04676
:1038E000008000407C100010B01000100F4AA02390
:1038F000DB0500B599580420014399501A690C4B17
:10390000002A0BD1012018600A4B5A69D10701D552
:103910001B68F9E780218903074B04E08021074AEF
:103920008803D0670021196000BDC0461C800000DC
:10393000A84004400080004000E100E004E100E015
:103940000B4B8022802110068A03D867DA67094A68
:10395000094B00205860111C1020D061074BA43186
:10396000A83208601060D86F054A0240DA677047D5
:1039700004E100E000400440008000400480044076
:10398000FFEFFFFF154B70B5C218041C14488242AC
:1039900022D8144D14492E680C60F2071CD5134B25
:1039A000134A9E6F00201568FCF7EEFD311C00F0F5
:1039B00083FA291C00F080FA211C000900F07CFA2F
:1039C0000C4C8023E168060A1943C0B2E1606660CE
:1039D0002060E2689A43E26070BDC04680DAFFFF73
:1039E000C01C0F008410001008000010008004406C
:1039F000988004400080004038B5FFF7A1FF234BBA
:103A000023491022A020DA61C40565580422954399
:103A1000204B6550E05820491043E05065581F4B3B
:103A200015436550E0581E4D0243E2501D4A1124D3
:103A300014601D4C00212160EB6F802042011A436D
:103A40001A49EA671A4B01250D601868FFF79AFFBB
:103A5000184B03200722D8605D609A605D69A90653
:103A6000FCD559690120014202D0124D2A68F8E7BD
:103A7000A023DA0515691049002D03D120608024A8
:103A8000A003086080231A060A6038BD0040044085
:103A90000480000008800000108000001C800000EE
:103AA00004800440A4400440A8400440988004409E
:103AB000080000100080004000E100E010B5041C88
:103AC0002078002804D0034B013419688847F7E7B1
:103AD00010BDC0462400001000B5064A1368064910
:103AE00008688342FBD00549C85C01335B05590D6A
:103AF000116000BDB01800107C100010B010001054
:103B000010B5FFF7E9FF0402FFF7E6FF204310BD01
:103B100038B5FFF7E1FF0504FFF7DEFF0402FFF70A
:103B2000DBFF2C43204338BD70B5FFF7D5FF0506FA
:103B3000FFF7D2FF061CFFF7CFFF041CFFF7CCFFF7
:103B400031040D4328432202104370BD10B5FFF726
:103B5000C3FF041CFFF7C0FF0002204310BD38B5AF
:103B6000FFF7BAFF041CFFF7B7FF051CFFF7B4FF10
:103B7000290200040843204338BD38B5FFF7ACFFE5
:103B8000051CFFF7A9FF041CFFF7A6FF2402000491
:103B90000443FFF7A1FF2C430006204338BD00007B
:103BA0000F4B70B51868820718D5FCF777FC061C18
:103BB0000C4D0D4C2A6821688A420FD0FCF76EFC30
:103BC000831BFA2BF4D972B6084A09490020106009
:103BD000086020602860074D286062B670BDC0464E
:103BE00084100010B418001088100010B0180010D5
:103BF0007C10001080100010074B08481A680368FA
:103C000000B59A4205D800209A4203D280210801CB
:103C10001218D01A00BDC0467C100010B018001059
:103C2000F0B51249124F134E134D144C144A154B54
:103C300000280CD138601448144F3060144E2F60A7
:103C40002660144D144C0D601460144A0CE00120E1
:103C50003860134F3760134E2E60134D2560134CA0
:103C60000C6013491160134A1A60F0BD180000106F
:103C70008C1000101C0000100C000010140000102C
:103C80002800001020000010013B0000113B000044
:103C9000293B0000C13500009D350000753500004E
:103CA0004D3B00005F3B00007B3B000059350000AE
:103CB000353500000D350000014B18687047C046CF
:103CC0008C100010014B18687047C046100000109F
:103CD000014B18687047C04608000010014B186877
:103CE0007047C0468410001038B5041CFFF7F2FC82
:103CF000FFF77EFDFFF724FE164B00201860164DDF
:103D00001649174A174B0860186010602860164D56
:103D1000FF2C02D12C6884421BD014480068FFF7A6
:103D20007FFF1349012C0ED0042C06D0114B022228
:103D30002A600B60FFF7ECFC0AE02C600E4C0C6074
:103D4000FFF780FD04E00D482C600860FFF754FE8B
:103D5000286838BDB0180010B41800107C1000108E
:103D60008810001080100010841000108C100010BB
:103D700024000010DD340000F9340000DD350000BF
:103D800000B532238BB00690079105A8059301A9D1
:103D9000024A904701980BB000BDC046F11FFF1FBB
:103DA00000B58BB03323069000200593089207914D
:103DB000FCF7EAFBFA21890000F07EF801A90990DE
:103DC000024A05A8904701980BB000BDF11FFF1FE4
:103DD00000B5031C8BB007208B4210D83422002082
:103DE000059206930791FCF7CFFBFA21890000F0BA
:103DF00063F801A90890034B05A8984701980BB0F8
:103E000000BDC046F11FFF1F38B5141C0125002955
:103E100031D072B6E023DB0120CB20C280252D02F9
:103E2000AB42F9D1F82213018900E3184118884206
:103E300002D004C804C3FAE70720011CFFF7A0FF63
:103E4000002801D0012515E00720011CFFF7C0FF65
:103E50000028F7D10720011CFFF792FF0028F1D1BD
:103E6000211CE0208024C0016201FFF799FF051C9E
:103E7000681E854162B6281C38BD0000CA17514033
:103E80008B1A17D0C1174A4004B44840411A480859
:103E90001A0000E052008242FCD9002000E05208E3
:103EA000914200D3891A40419A42F8D104BC504053
:103EB000801A7047002070470A000FD003004008A6
:103EC00000E052008242FCD9002000E052089342F8
:103ED00000D39B1A40418A42F8D1704700207047B6
:103EE0000A0010D00300400800E052008242FCD9D2
:103EF000002000E05208934200D39B1A40418A42BE
:103F0000F8D11900704700207047C04603B47146CD
:103F1000490840004900095E49008E4403BC7047CF
:103F200002B4714649084900095C49008E4402BC4C
:103F30007047C04608B5031C0278002A06D04168C5
:103F40000878002805D00131596004E040688047B6
:103F500001E00123584208BD70B5041C80680028A8
:103F60000AD0236862685D1CAD1A6E1EB5416E42B0
:103F70003140934200D2C154E368002B06D0206840
:103F80006268904202D2081C211C984721680131C6
:103F9000216070BDF8B5151C4C1E15D4C6B20123A6
:103FA0001F1C2740101C311CFFF7D6FF013C0CD210
:103FB0000AE0281C311CFFF7CFFF013C281C311CF4
:103FC000FFF7CAFF013CF4D2F8BD002FF1D0281C46
:103FD000311CFFF7C1FF013CEBD2F5E710B5C3067A
:103FE00006D42023840500D53023181CFFF7D2FF08
:103FF00010BDC046031C413B002019229A4240419B
:104000007047C046031C613B002019229A42404180
:104010007047C046031C303B002009229A424041B1
:104020007047C04638B5041C0D1CFFF7F3FF00288D
:1040300002D0201C303811E0201CFFF7E3FF0028DD
:1040400002D0201C573809E0201CFFF7D3FF0028BE
:1040500002D0201C373801E001204042A84201DB99
:104060000121484238BDC04600B5021C093A01236F
:10407000042A03D9031C203B58424341181C00BDAD
:104080000EB400B586B007AA08CA059203900023B3
:1040900004930548029001A8079900F01BF806B0A8
:1040A00008BC03B01847C046FFFFFF7F8446002AC4
:1040B00005D00B78037001300131013AF9D1604627
:1040C0007047C046411C02780130002AFBD1401ADB
:1040D0007047C046F0B55F4656464D464446F0B47C
:1040E0008BB00C1C0592002303609946051C63E20B
:1040F000252906D0281CFFF72FFF341C5CE2261C64
:104100000BE010239A462020804680273A029446EE
:10411000802740212C1C4D46A3463078741C031C7C
:10412000203BDAB2102A14D89300C84AD3589F46CD
:104130000D43E4E73D43E2E766463543DFE74346A8
:104140001D43DCE752461543D9E78026B0000543FE
:10415000D5E75F46AB463D1C5A462A2805D0011CD0
:1041600030394B4609290DD917E0059C201D0590D3
:104170002368002B03DA5B4210210A4393467078D0
:10418000B41C0AE09E00F3185F0030383B1820781A
:104190000134021C303A092AF4D9DE43F7173B40B8
:1041A0000293CA462E2825D120782A2805D001342A
:1041B000031C303B092B08D917E00598021D059216
:1041C00001688A46607802340CE04F46BA00D11983
:1041D0004E003038371820780134031C303B092B4F
:1041E000F4D9BA465646002E04DB80277B005A4697
:1041F0001A43934668280ED12078682806D10827EC
:104200005846384383466078023404E0013404267B
:10421000594631438B46782803D883008C4AD658B8
:10422000B7468C4F3E68002E00D1C5E15146009143
:1042300005AA0192291C5A46029BB047BCE1281CE2
:104240002521FFF789FEB7E10598031D0593067840
:1042500002998A4601277A429244584651462A1CBE
:10426000FFF7BCFE281C311CFFF776FED8464046FF
:10427000C00600D4A0E1202051462A1CFFF78AFE88
:104280009AE15846010706D50598021D0592036874
:104290002E681E7090E1059B1E1D059619682F68FB
:1042A0000F6089E10598011D05910668002E00D177
:1042B000694E6A4F5B463B409846301CFFF702FF51
:1042C000071C5A46D20502D5504500DD57460298D4
:1042D000C11B8A4640462A1CFFF780FE002FC6D02D
:1042E000B3467B1E01221A4002923178281CFFF748
:1042F00033FE0136013F002F00D081E1B7E7A3462E
:10430000FFE73178281CFFF727FE7178281CFFF79C
:1043100023FE0236023F002FF3D15C46A7E7059E3D
:10432000371D0597376859460B06DE1723223240A2
:10433000904680235E0031438B4608218A466FE019
:1043400080239E0159460E43090609D4B346C84648
:1043500009E0C84659460A0605D5414FB84602E06D
:10436000B346404FB8465A46D20520D53B4B5E4631
:104370001E40B3461BE05F463A06D31730261E4068
:10438000B046FB0513D5354F5A463A4093460EE0EA
:10439000C8465B46DA050AD5304A5E461640B34643
:1043A00005E08021CF015A463A439346C846594614
:1043B0004B0419D5059B1A1D05921F685E467107AF
:1043C00001D53FB203E0320701D5FF231F40002F84
:1043D00003DA7F422D2290461BE05A46910613D401
:1043E0005E46720613D414E0059F3A1D05923F689D
:1043F0005B465B0702D53F043F0C0AE05E4631078F
:1044000007D5FF210F4004E02B23984601E020212F
:1044100088465E46F10506D510495B460B409B4633
:104420005A46D30501D40126B2465838C0B22028D6
:1044300065D882000C4B9E58B7464E460720002F89
:1044400033D15FE04E46002F38D15BE0705500005D
:10445000B4550000B81800101C580000FFFDFFFF05
:10446000783000005830000098570000002F48D0E6
:104470004E468022930159460B400F2268488446DD
:104480000394002B06D0101C38406446205C07A91A
:10449000705405E0111C3940624C605C07A97054EF
:1044A00001363F09EDD1039C2CE0011C394030312D
:1044B00007AAB1540136FF08F7D123E0802319027F
:1044C0005846084003900494041C002C07D0032293
:1044D0003240032A03D107AB2C2199550136381CF1
:1044E0000A21FFF7FDFC303107A881550136381C41
:1044F0000A21FFF7E1FC071EE7D1049C02E04E46CB
:1045000000E04E465746BB1BDA43D7171F400298C0
:10451000C11B8A1BFF23434580414142521A434637
:10452000591E8B41D01A8246584680218A0010427B
:1045300004D151462A1CFFF751FDCA464346FF2BC2
:1045400003D9190A281CFFF707FD4046002803D0AD
:10455000C1B2281CFFF700FD584651462A1CFFF740
:104560003DFD3020391C2A1CFFF714FD013E1BD4F1
:1045700007AFBE196F461B37B91B01228A4390460D
:104580003178281CFFF7E8FC013EBE422DD10BE03C
:104590003178281CFFF7E0FC013E3178281CFFF73A
:1045A000DBFC013EBE42F3D15846C10604D52020B3
:1045B00051462A1CFFF7EEFC2178661C002900D02A
:1045C00096E5281CAF68002F04D02A686C68A242C8
:1045D00000D2B954006801E0012670420BB03CBC27
:1045E00090469946A246AB46F0BD4346002BCFD03D
:1045F0003178281CFFF7B0FC013EBE42C8D1D3E79A
:104600000298002800D17AE659464978281CFFF71D
:10461000A3FC0136013FA346002F00D071E626E639
:10462000605500005055000010B5041C0B78002B9D
:1046300005D0431C05D048680138486001E089680E
:104640008847201C10BDC046F0B55F4656464D4613
:104650004446F0B483B08146019193461F1C012368
:104660005842824600E0A246544601344846FFF7CD
:1046700061FC051CFFF7F8FC0028F4D1691C00D18F
:104680009DE0734E5A4616400C9900293FDD1206F4
:1046900012D52B2D04D02D2D0BD18024E5002E43D7
:1046A000544602344846FFF745FC051C0C98013877
:1046B0000C900C9B002B2ADD302D28D180229100FC
:1046C00031438A460C9D013D0C95601C804648464E
:1046D000FFF730FC051C0C9B002B15DD782801D062
:1046E000582811D1002F01D0102F6FD1594A1640F0
:1046F000B2460C9E013E0C960234A0464846FFF797
:1047000019FC051C102761E0002F5ED05EE0002F31
:1047100000D10A270C9900292CDD0B1900930022E7
:104720009046802188008346E343009A991801202F
:1047300008408246281C391CFFF774FC002850DA18
:104740001AE05D462E4343467B43C0188046013441
:10475000A2464846FFF7EEFB051C391CFFF762FC3A
:10476000002864DA08E0281C391CFFF75BFC0028ED
:10477000E7DA01E000208046281C4946FFF754FF95
:10478000B2051FD5F30724D4019F3868021D3A6093
:1047900001689025EB00371C1F409F4202D1404624
:1047A00042429046F30602D543460B7011E03307B0
:1047B00002D545460D800CE046460E6009E0012119
:1047C0004C4206E00224644203E008274446564671
:1047D000A0E7201C03B03CBC90469946A246AB46DD
:1047E000F0BD5D462E4343467B43C21890460134DC
:1047F0004846FFF79FFB051C00998C42BCD05046F1
:104800000028B0D0281C391CFFF70CFC0028B3DBB3
:104810005D462E4343467B43C218904601344846CA
:10482000FFF788FB051C00998C429CD1A4E75C46ED
:10483000264342467A438118884654460134484606
:10484000FFF778FB051C009B9C4200D08BE793E7A9
:10485000FFF9FFFFFFFDFFFFF0B55F4656464D46EF
:104860004446F0B48BB080460D1C099200200490A1
:1048700000210291CB4A934620239A464446039452
:10488000A9464F4638784C460134002800D1CAE189
:10489000252837D0051CFFF7E7FB002819D0207822
:1048A0000134FFF7E1FB0028F9D1013CA146049D4A
:1048B000039E00E00135301CFFF73CFB071CFFF7AF
:1048C000D3FB0028F6D10495381C0399FFF7ACFE02
:1048D000D7E70398FFF72EFBA84204D1049B0133CE
:1048E0000493A146CDE7061C03988146029C301C28
:1048F0004946FFF799FE013600D094E1002C00D024
:1049000091E182E1797800252A2902D14C460234CE
:10491000012500270BE05F4500DD84E1BA00D019D6
:104920004100303E8F1900D57DE15646354326784B
:104930000134301CFFF76EFB0028ECD1221C331C25
:10494000291C5046284200D1974F4C2B04D1167891
:10495000541C44250D430CE0682B0AD11678682EB0
:1049600004D110250D435678941C02E0541C0825F0
:104970000D43321C253A532A00D954E193008B4948
:10498000C85887460398FFF7D5FA252804D1049F15
:1049900001370497A14674E7061C03988446029CDD
:1049A000301C6146FFF740FE751C00D03BE1002C37
:1049B00000D038E101214B42029334E153462B42AF
:1049C00000D101270121294088460025002903D173
:1049D000099D2E1D09962D68002F00D123E128DDA9
:1049E0000498C2199146049FFB434B4401210E1CBD
:1049F0001E40013704970398FFF79CFA421C00D031
:104A000019E108E04646FFE7049F01370398FFF7E6
:104A100091FA431C07D10298002800D003E101233A
:104A200059420291FFE0002E00D024E128700135A8
:104A300021E1A1464446002C00D022E7029D013529
:104A400002951EE780222A430097039809A90A23AA
:104A5000FFF7FAFD0590BEE080222A4300970398F5
:104A600009A90023FFF7F0FD0590B4E0A146EB078C
:104A700000D506E70998021D09920368E80604D5E7
:104A80006C461020025D1A70FBE62A0705D56F46BA
:104A90001021CE5B1E80A146F3E6049D1D60A14659
:104AA000EFE680222A430097039809A90823FFF71D
:104AB000CBFD05908FE01E262A1CB2430097039879
:104AC00009A91023FFF7C0FD059084E0012672427A
:104AD0000592A046A946161C039D0136281CFFF727
:104AE00029FA041CFFF7C0FA0028F6D14D460596B6
:104AF000231C44469846321C01334ED001212940E4
:104B00000691089000D084E00998061D0996036874
:104B100008937EE0069C002C01D12E7001357C1C90
:104B2000271C0398FFF706FA061C079884421ED03C
:104B3000731C00D0CAE044460597B04608954D4620
:104B400020E0A946059F4646A046089D04E0A946E8
:104B5000059F4646A046089D301CFFF785FA0028B1
:104B6000D8D044460597B04608954D460AE04446DD
:104B70000597B04608954D4604E044460597B04673
:104B800008954D4640460399FFF74EFD069A002AC8
:104B900021D10020089908701DE001235F4205978C
:104BA00019E0C046CCCCCC0CFFFFFF7F245800009E
:104BB00080222A430097039809A90A23FFF744FD9E
:104BC000059008E080222A430097039809A9102342
:104BD000FFF73AFD0590059E002E09DA029C059F1D
:104BE000781C20D1002C1ED10122554202951AE0DA
:104BF00001273D406A426A41029DA818029004992B
:104C0000059BCE180496A1463BE601214A4202923A
:104C100009E0002FB6DDBF180797059AD143C819E0
:104C2000C1078ED539E002980BB03CBC904699463E
:104C3000A246AB46F0BD4246002A01D1287001359C
:104C40000498484500D1F4E6002E00D1DAE6071CAE
:104C5000013704970398FFF76DF9411C00D1DAE69C
:104C60004346002B01D12870013504994646494539
:104C700000D0C9E6DDE6013704970398FFF75AF93B
:104C8000411C00D1C7E6002E01D128700135049ADD
:104C90004A4500D0B8E6B046CBE64046FFF7E4F917
:104CA000002800D06EE7069E002E04D14346089FE0
:104CB0003B7001370897059A013205920398FFF778
:104CC00039F98046431C00D041E75BE7301CFFF711
:104CD000CBF9002800D050E7069B002B01D12E70A5
:104CE0000135671C0398FFF725F9061C411C00D00D
:104CF00032E744460597804608954D4642E7C04650
:104D000038B5041C0D1C00F013F8074B1D60802003
:104D1000044306490C600A1C1468002CFCD100F006
:104D200009F8014D286838BDBC180010C0180010E3
:084D30007047C0467047C04601
:104D380014000000140000002C010000780000009E
:104D4800A0000000DC00000052656C6561736520FE
:104D5800546F75636870616E656C2E0043616C6991
:104D680062726174696F6E00302020003930200053
:104D78003138300032373000465720302E3033007B
:104D88005465737400205820253033692059202534
:104D9800303369205A2025303369004C445220258D
:104DA800303369004E6F20636F6E666967206461F7
:104DB80074612E0000000000000000003078783098
:104DC800300030006C6C6C00000000006C6CFE6CF5
:104DD800FE6C6C00307CC0780CF8300000C6CC1833
:104DE8003066C600386C3876DCCC76006060C0006F
:104DF800000000001830606060301800603018183B
:104E08001830600000663CFF3C660000003030FC53
:104E1800303000000000000000703060000000FC2E
:104E2800000000000000000000303000060C1830C0
:104E380060C0800078CCDCFCECCC780030F03030FE
:104E48003030FC0078CC0C3860CCFC0078CC0C38C6
:104E58000CCC78001C3C6CCCFE0C0C00FCC0F80C94
:104E68000CCC78003860C0F8CCCC7800FCCC0C189E
:104E78003060600078CCCC78CCCC780078CCCC7C16
:104E88000C18700000003030003030000000303066
:104E980000703060183060C0603018000000FC00FE
:104EA800FC0000006030180C1830600078CC0C183A
:104EB800300030007CC6DEDEDEC078003078CCCC36
:104EC800FCCCCC00FC66667C6666FC003C66C0C018
:104ED800C0663C00FC6C6666666CFC00FE62687826
:104EE8006862FE00FE6268786860F0003C66C0C0D8
:104EF800CE663E00CCCCCCFCCCCCCC00783030306C
:104F0800303078001E0C0C0CCCCC7800E6666C783F
:104F18006C66E600F06060606266FE00C6EEFED673
:104F2800C6C6C600C6E6F6DECEC6C600386CC6C61D
:104F3800C66C3800FC66667C6060F00078CCCCCC2F
:104F4800DC781C00FC66667C786CE60078CCE0387F
:104F58001CCC7800FCB4303030307800CCCCCCCCD1
:104F6800CCCCFC00CCCCCCCCCC783000C6C6C6D6D9
:104F7800FEEEC600C6C66C386CC6C600CCCCCC7873
:104F880030307800FECC983062C6FE0078606060F1
:104F980060607800C06030180C0602007818181895
:104FA8001818780010386CC60000000000000000D7
:104FB800000000FF30301800000000000000780CEE
:104FC8007CCC7600E0607C666666BC00000078CC2D
:104FD800C0CC78001C0C0C7CCCCC7600000078CCC3
:104FE800FCC07800386C60F06060F000000076CC9F
:104FF800CC7C0CF8E0606C766666E60030007030B9
:1050080030307800180078181818D870E060666C8E
:10501800786CE60070303030303078000000ECFEFC
:10502800D6C6C6000000F8CCCCCCCC00000078CCAA
:10503800CCCC78000000DC66667C60F0000076CCA2
:10504800CC7C0C1E0000D86C6C60F00000007CC0AA
:10505800780CF80010307C30303418000000CCCCCC
:10506800CCCC76000000CCCCCC7830000000C6C692
:10507800D6FE6C000000C66C386CC6000000CCCCB4
:10508800CC7C0CF80000FC983064FC001C3030E04C
:1050980030301C001818180018181800E030301CA0
:1050A8003030E00076DC00000000000010386CC6EC
:1050B800C6C6FE0078CCC0C0CC78306000CC00CC2E
:1050C800CCCC7E00183078CCFCC078007EC33C067F
:1050D8003E663F00CC00780C7CCC7E006030780CBB
:1050E8007CCC7E003C663C063E663F000078CCC027
:1050F800CC7830607EC33C667E603C00CC0078CCC7
:10510800FCC07800603078CCFCC07800CC007030EF
:10511800303078007CC6381818183C006030703081
:1051280030307800CC3078CCCCFCCC0030483078AB
:10513800CCFCCC001830FC607860FC0000007F0CD0
:105148007FCC7F003E6CCCFECCCCCE0078CC0078F7
:10515800CCCC780000CC0078CCCC780060300078DB
:10516800CCCC780078CC00CCCCCC7E00603000CCA5
:10517800CCCC7E0000CC00CCCCFC0CF8C6007CC6A5
:10518800C6C67C00CC00CCCCCCCC780000007CCE51
:10519800D6E67C00386C64F060E6FC003A6CCED64B
:1051A800E66CB8000000CC783078CC000E1B187E76
:1051B8001818D8701830780C7CCC7E0018307030F5
:1051C800303078000C180078CCCC78000C1800CC63
:1051D800CCCC7E0076DC00F8CCCCCC0076DC00ECC5
:1051E800FCDCCC003C6C6C3E007E00003C66663CFF
:1051F800007E000030003060C0CC78003C5AA5B971
:10520800A9663C00000000FC0C0C0000E66C787EEF
:1052180063CE981FE66C787367CD9F03001800185B
:10522800183C3C18003366CC6633000000CC66336B
:1052380066CC0000228822882288228855AA55AA8E
:1052480055AA55AADD77DD77DD77DD7718181818A8
:105258001818181818181818F81818180C1830787A
:10526800CCFCCC0078843078CCFCCC00C0603078A2
:10527800CCFCCC003C42B9A1B9423C003636F6061B
:10528800F636363636363636363636360000FE06CA
:10529800F63636363636F606FE00000018187EC09A
:1052A800C07E1818CCCC78FC30FC303000000000F0
:1052B800F8181818181818181F00000018181818C7
:1052C800FF00000000000000FF1818181818181830
:1052D8001F18181800000000FF0000001818181800
:1052E800FF18181876DC780C7CCC7E0076DC3078D9
:1052F800CCFCCC00363637303F00000000003F3091
:10530800373636363636F700FF0000000000FF005B
:10531800F736363636363730373636360000FF0041
:10532800FF0000003636F700F73636360082FE6C8E
:105338006CFE8200D870D80C3C6C3800FC6C66F6A9
:10534800666CFC007884FC607860FC00CC00FC6033
:105358007860FC006030FC607860FC0000C040E0D1
:1053680000000000183078303030780078847830C9
:1053780030307800CC0078303030780018181818A1
:10538800F8000000000000001F181818FFFFFFFFBA
:10539800FFFFFFFF00000000FFFFFFFF18181800C5
:1053A800181818006030783030307800FFFFFFFFA1
:1053B8000000000018307CC6C6C67C000078CCF817
:1053C800CCF8C0C07C827CC6C6C67C0030187CC6BF
:1053D800C6C67C0076DC0078CCCC780076DC7CC64F
:1053E800C6C67C0000666666667C60C000E0786CB5
:1053F8007860F000F0607C667C60F0001830CCCCFF
:10540800CCCC7800788400CCCCCC78006030CCCC84
:10541800CCCC7800183000CCCCFC0CF81830CCCCB4
:105428007830780000FC0000000000001830000010
:105438000000000000000000FC0000003030FC30DC
:105448003000FC00000000FC00FC0000E62C783373
:10545800E7CD9F037FDBDB7B1B1B1B007EC378CC68
:10546800CC788CF8303000FC0030300000000000B0
:1054780000003060386C6C380000000000CC000080
:10548800000000000000000018000000387818181C
:105498007E0000000030383C3C383000006666660C
:1054A80066666600007E7E7E7E7E7E0000000000CE
:1054B800000000004128D441CF8300833041ED84AF
:1054C8006403128141E88385017941CB85392C0039
:1054D800340241F7812041EA82000041C08126411F
:1054E800C1811141C582353E41C781BE41B18200AB
:1054F8001B41F281084126810141E08F1F1A180AD9
:105508000F064587320A070207050041E18F00258B
:10551800270510093A784D05180D383A1F41B68409
:105528000A82270041B78107413A8155413681C82F
:10553800412A8200008200EF412B82000082013F55
:105548004111FCFC4129D40030313233343536372F
:1055580038396162636465663031323334353637E1
:105568003839414243444546304100005241000029
:1055780052410000344100005241000052410000F5
:1055880052410000384100005241000052410000E1
:10559800524100003E4100005241000044410000D9
:1055A80052410000524100004A410000D845000025
:1055B8002242000022420000224200002242000053
:1055C8002242000022420000224200002242000043
:1055D8002242000022420000224200002242000033
:1055E8002242000022420000224200002242000023
:1055F8002242000022420000224200002242000013
:105608002242000022420000224200002242000002
:1056180022420000224200002242000022420000F2
:1056280022420000224200002242000022420000E2
:1056380022420000224200002242000022420000D2
:105648003E420000224200002242000022420000A6
:1056580022420000224200002242000022420000B2
:1056680022420000224200002242000022420000A2
:105678002242000022420000224200002242000092
:105688002242000022420000224200002242000082
:105698002242000022420000224200002242000072
:1056A8002242000022420000224200002242000062
:1056B8002242000022420000224200002242000052
:1056C8002242000022420000224200002242000042
:1056D8002242000022420000224200002242000032
:1056E8002242000022420000224200002242000022
:1056F8002242000022420000224200002242000012
:1057080022420000224200002242000040430000E2
:1057180022420000224200002242000022420000F1
:1057280022420000224200002242000022420000E1
:10573800224200002242000048420000A24300002A
:1057480022420000224200002242000022420000C1
:10575800A243000022420000224200002242000030
:105768002242000082420000764300001E430000EF
:105778002242000022420000A4420000224200000F
:1057880090430000224200002242000052430000E1
:105798006C440000FE440000FE440000FE4400008B
:1057A800FE440000FE440000FE440000FE440000E9
:1057B800FE440000FE440000FE440000FE440000D9
:1057C80044440000FE440000FE440000FE44000083
:1057D800FE44000044440000FE440000FE44000073
:1057E800FE440000FE440000FE4400003A4400006D
:1057F8006C440000FE440000FE440000FE4400002B
:10580800FE44000044440000FE440000FE44000042
:105818006C440000286E756C6C29000084490000F7
:10582800264C0000264C0000264C0000264C0000A8
:10583800264C0000264C0000264C0000264C000098
:10584800264C0000264C0000264C0000264C000088
:10585800264C0000264C0000264C0000264C000078
:10586800264C0000264C0000264C0000264C000068
:10587800264C0000264C0000264C0000264C000058
:10588800264C0000264C0000264C0000264C000048
:10589800264C0000264C0000264C0000264C000038
:1058A800264C0000264C0000264C0000264C000028
:1058B800264C0000264C0000264C0000264C000018
:1058C800264C0000264C0000264C0000264C000008
:1058D800264C0000264C0000264C0000264C0000F8
:1058E800264C0000264C0000C44B0000264C00004B
:1058F800264C0000264C0000264C0000264C0000D8
:10590800264C0000264C0000264C0000264C0000C7
:10591800264C0000BC490000444A0000264C000008
:10592800264C0000264C0000264C0000584A000077
:10593800264C0000264C0000264C0000264C000097
:105948006C4A0000A24A0000B64A0000264C00003B
:10595800264C0000CC4A0000264C0000B04B00004A
:0C596800264C0000264C0000C44B000040
:10597400807F0000001BB70080250000113B000061
:10598400A0000000293B0000C1350000013B0000DD
:0C59940075350000DD3400009D3500007A
:04000003000001ED0B
:00000001FF
