:10000000DC1D0010ED010000F5010000F70100000B
:10001000F9010000FB010000FD0100005AD6FFEFCE
:10002000000000000000000000000000FF010000D0
:100030000102000000000000030200005D06000055
:10004000070200000702000007020000070200008C
:10005000070200000702000007020000070200007C
:10006000070200000702000007020000070200006C
:1000700007020000090200000B020000A554000066
:100080000F02000011020000130200001502000020
:1000900051570000A55800000000000000000000BB
:1000A0001B0200001D0200001F02000000000000F3
:1000B000210200002302000025020000D5580000A4
:1000C0002F49072291438D462E492F480A1A06D000
:1000D0000722914381F30988022282F314882B4876
:1000E0002B492C4A00F039F82B482C492C4A00F0B7
:1000F00034F82C482C492D4A00F02FF82C482D4973
:100100002D4A00F02AF82D482D492E4A00F025F8F6
:100110002D482E492E4A00F020F82E482E49002264
:1001200000F026F82D482E49091A082903DB002281
:100130000260043001601F481F49884205D00268F0
:10014000043003B4904703BCF7E700208646EC4632
:1001500000200021234A9047FEE7884207D0521A28
:1001600005D0037801300B700131013AF9D17047A5
:10017000884202D002700130FAE770471A4870478F
:10018000DC1D0010DC1D0010DC1D0010AC7B00002D
:1001900000000010140000103002000030020000C7
:1001A000EC6C0000AC7B00000000001000000010B0
:1001B000EC6C0000EC6C0000EC6C0000EC6C0000DF
:1001C000EC6C0000EC6C0000EC6C0000EC6C0000CF
:1001D000AC7B000014000010DC180010DC180010CC
:1001E000DC19001031160000FFFFFFFF0E480F4919
:1001F000016065E7FEE7FEE7FEE7FEE7FEE7FEE7F4
:10020000FEE7FEE7FEE7FEE7FEE7FEE7FEE7FEE7C6
:10021000FEE7FEE7FEE7FEE7FEE7FEE7FEE7FEE7B6
:10022000FEE7FEE7FEE7FEE7008004400200000074
:10023000F0B556464D4644465F46F0B489B0079146
:10024000069005F0DFFC804605F0DCFC824605F0F8
:10025000F9FC7F210140C2090123934389460139FA
:1002600005931D2901D90120814605F0EBFC80256D
:10027000041C2E02B04531D080263702BA453FD04B
:10028000264DFA262F68F600002C07D005F01AFD3F
:1002900000280AD12968CA1BB242F5D909B03CBC72
:1002A00090469946A246AB46F0BD05F0CBFC83468E
:1002B00004F0CAFA404501D8013CE5E75B460698E0
:1002C0000799DAB2059B009001910293404651468E
:1002D0004B4602F00DF8013C8046D5E704F0B4FA35
:1002E0004A466243D300470859087D1A04F0ACFA25
:1002F0008542804105408026A8463702BA45BFD1D5
:1003000004F0A8FA4A4641089300CD1A04F0A2FA74
:10031000854280410540AA46B2E7C046141000104D
:10032000F0B55F4656464D464446F0B487B08B461E
:10033000059005F067FC804605F064FC824605F0F8
:1003400081FC7F210140C209012393438946013981
:1003500004931D2901D90120814680242502A84546
:100360002CD0802213029A4535D0214CFA272668DA
:10037000FD0005F0A7FC00280AD12268931BAB42C0
:10038000F7D907B03CBC90469946A246AB46F0BDB3
:1003900005F058FC071EF4D004F056FA4045E8D9A1
:1003A0000599049B58460091019002934046FAB289
:1003B00051464B4601F09CFF8046DAE704F044FAD0
:1003C000460804F041FA8642BF413E408022B046D2
:1003D00013029A45C9D104F03DFA41084846840009
:1003E0000D1B04F037FA8542B6413540AA46BCE7FA
:1003F00014100010F0B54F464646C0B4814685B093
:10040000081C0F1C022404F0B7F90123251C984690
:1004100005F058FC00282BD005F014FC061E0A2E0F
:1004200005D00D2803D0092806D1202604E0002D90
:100430000ED0083402250BE0484641460090029158
:10044000281CF2B20197211C012301F051FF051C69
:1004500004F0FAF9854201D30834022504F0FAF9D0
:10046000221C0832824203D3381C04F085F902248E
:10047000002ECDD1381C04F07FF905B00CBC90469D
:100480009946F0BD00B5044A0449106813681B1A68
:100490008B42FBD900BDC046141000108F01000034
:1004A0000B4A00B5012390420FD80A4B0A4A013883
:1004B0005860106A0102080AC0210906014311624E
:1004C000072000229A6018600023181C00BDC04657
:1004D000FFFFFF0010E000E000ED00E0F8B54F4B3B
:1004E0004F4C984217D006D84E4988420CD04E4AFD
:1004F000904206D10BE04D4DA8420FD04C4EB04279
:100500000FD02060002104E0206000210BE020607B
:100510004121002208E02060412104E020604221C6
:10052000F7E720602221012272B6424B8E2087001D
:10053000DD59002A05D020208543DD5100271F62A8
:1005400002E00326B543DD51C826C046013E002E19
:10055000FBD101251A645D645E645D642E1C5F6CD2
:10056000344801253742FAD0002915D08E26816003
:10057000B10046588027BE434650DE682D49012011
:100580002E42FAD0032500270D6748674F6748675A
:10059000596F0142FCD00DE002674567416745672E
:1005A000596F24482942FBD08E26B700C5598021B7
:1005B0000D43C5518E26B500002A02D05A5903209A
:1005C00001E05A59202002435A5125681A4F1B4B0B
:1005D000BD4201D9022605E019498D4201D9012603
:1005E00000E000260022DE60281C1A61154905F093
:1005F00051FC154E154B376801381F400002074368
:10060000281CFA25A900376005F044FCFFF748FFD5
:10061000FF2005F07DFB62B62068F8BD0048E801C8
:10062000040000100024F40000366E010051250281
:10063000006CDC0200800440FF59620200000140AF
:10064000FF2C310100093D0000C00140FF00FFFF09
:10065000014B18687047C046040000105A4B5B48B5
:100660001A6830B501321A600368580705D5584C2E
:10067000216801312160052944D0190705D5554B62
:100680001A6801321A60192A00D030BD002552487C
:100690001D60C36F514910252A1C0B601A4059D0A8
:1006A0000122111C194000D084E04D4D20202C68FF
:1006B0004C4A204328604C48156804681160641B4C
:1006C000082204601A4053D1454940200D68284350
:1006D00008604648464904680D68641904600A6069
:1006E000580753D4434908680130086027285CD96B
:1006F0003B4B02251C6825431D60196801220A43F3
:100700001A60C2E70025344A2560D269910741D5B5
:1007100002200321D40700D5011C374C2568681A34
:10072000C50707D52160354902250C682840013CE2
:1007300020180860500730D4314C256801352560F9
:10074000C72D3AD8132D98D92E4A14680121214378
:10075000116092E72249086805430D60224821494B
:1007600004680D680A606419046008221A40ABD05E
:1007700002221A4015D11A4D80212C681B482143B2
:1007800029601B4904680D68641BA7E7194B002208
:100790001A607AE701200021BCE7194A00211160A4
:1007A0006BE71348012101609AE7032800D86CE742
:1007B0000B4BA2E70B490A60D7E7124A02211068E7
:1007C00001431160C1E7C046141000101C10001056
:1007D0003010001034100010000001503C100010C8
:1007E00040100010241000102010001018100010ED
:1007F0004C100010441000102C1000103810001085
:10080000481000102810001038B52B4A2B4D8121BC
:10081000902308208024D150286221026B58284C54
:100820001843685001259420155022682021114357
:10083000216025688023580428432060616A204A8B
:100840000029FBDA14681F4D25401560536A1168B2
:1008500020250D4318041560840D80231068590469
:1008600001431160506A164D0028FBDA2A68154BC7
:10087000124813402B606D6A0021AA09930501629A
:100880000025990D8C4201D0281C38BDC825A80030
:1008900084420BD8642C0CD95D0E2A04501B6421B1
:1008A00005F0F8FAC443084B9C61EDE7074C64255A
:1008B000F9E7074C0A25F6E7004004400000015024
:1008C00000C0014000FFFFF8000001400000FFFFF2
:1008D00066E6FFFF014B18687047C0461410001011
:1008E00000B5034A116813685B1A8342FBD300BD4D
:1008F0001410001008B5002802D1034B186801E05D
:10090000FFF7ECFD08BDC0460400001070B572B6DC
:10091000294B12211A1CFC328E20516584001D596E
:10092000102001228543254E1D519A670433DE674E
:100930008021A023DC050B02E558214904262E4026
:100940000D1CA435E650C86128604866E6580825A5
:100950003540E550C8621B488025C458AD0014439B
:10096000C450002444601848C6583543C5508023FD
:100970001E0184511548212355428A638460C46056
:1009800004610467446185614267C3634260104A41
:1009900010491668301C05F07DFA0F4D0F490138DB
:1009A000000208602C60FA24A100301C05F072FAE5
:1009B000FFF776FD62B670BD008004405F21010044
:1009C00000400440000003500000015000000140BE
:1009D0000400001000093D001410001000C0014088
:1009E000F0B54F464646C0B48FB01D1C16AB8846C6
:1009F00091461E78071C04F097F8016842688368E6
:100A000007910892C168026909934369806901AC42
:100A10000A910B921899179A0D90A77140460A4FA8
:100A20000C93069105924B4603900D21201C074A1A
:100A3000237366712571019705F0B0F90FB00CBCF6
:100A400090469946F0BDC046EFBEADDE14000010E2
:100A5000F0B54E4657464546E0B490B04E4B04AC18
:100A6000221C071C894623CB23C261CB61C204F040
:100A700005FA4A4EB246484603F07EFE484EB42080
:100A800003F0CEFE002580208221524602230096EC
:100A900001950295000201F071FE281C03F0C0FED2
:100AA0008021080200960195029582215246022378
:100AB00001F064FEA8464346DD006619605971687E
:100AC0000F223B1C02F086FB62597368101C191C34
:100AD0000A38033A009703F02FFD62597368D01C5F
:100AE000191C0A32009703F027FD73686259191C1C
:100AF000101C0A39033B009703F01EFD625973680E
:100B0000101CD91C00970A3303F016FD04F032F8CC
:100B100003F0BAFE00281FD0F82371686059042240
:100B20001B0202F0C7F9FFF7ADFC71680F224B46BC
:100B3000605902F0BFF904F017F80AAEA85104F0AA
:100B40000DF8721950600120804404F001F8C828A3
:100B500002D904F00FF8F8E705F0B4F8002803D143
:100B600041460229A7D90CE005F06CF80028F7D11E
:100B7000484603F001FE10B01CBC90469946A246C0
:100B8000F0BD084DA845F3D0201C0AA903F03EFF94
:100B9000002800D06FE7EBE7F06F0000087000005E
:100BA000108400009A020000F0B55F4656464D469C
:100BB0004446F0B4964E91B0F8233268069018027D
:100BC000009000200C1C0792011C6A22EF2303F006
:100BD000D1FAFC21CD0000956A200021D422EF2318
:100BE0001F2703F0C7FA00218A4AEF230097D42079
:100BF00003F0C0FA8848FFF773FE201C03F0BCFD29
:100C0000002003F00DFEC82215022822131C0095B7
:100C10000A20142103F008FB009500252B1C192144
:100C20007E4A019502950F2001F0A8FD5A2003F09D
:100C3000F7FDC823DF002822131C00970A20142187
:100C400003F0F2FA2B1C1921754A009701950295C1
:100C50000F2001F093FDB42003F0E2FD19272822B4
:100C6000131C00970A20142103F0DEFA391C2B1CF8
:100C70006C4A0097019502950F2001F07FFD8720B7
:100C8000400003F0CDFD68492822131C88460091DE
:100C90000A20142103F0C8FA4346391C634A009322
:100CA00001952B1C02950F20614F01F067FD281C58
:100CB00003F0B6FD5021281C0B1C564A009703F088
:100CC0003BFCA021281C0B1C524A009703F034FC6B
:100CD000F021281C0B1C4F4A009703F02DFC5020DC
:100CE000291C021CEF23009703F026FCA020291CDE
:100CF000021CEF23009703F01FFCF020291C021CAC
:100D0000EF23009703F018FCA020782128223B1C39
:100D100002F060FA02202B1C01950295011C454A45
:100D2000009701F02BFD80200002019502950097AD
:100D3000011C414A0223B146404E01F01FFD0495BB
:100D400005950125B246AB4603F014FF03F09CFD68
:100D5000804600282BD003F0FBFD061C03F09AFD13
:100D6000071C0598864202D104998F421AD0424648
:100D700000923349321C3B1C08A805F05BF9069B26
:100D8000584600930290022108AA002301945020A3
:100D900001F0F4FCF823301C391C04221B0202F081
:100DA00089F804975F4651464F60059601E0534627
:100DB00058604E463268D20612D5FFF725FD021E56
:100DC0000ED0204908A805F035F906985B4600903A
:100DD0000C2002930194011C08AA002301F0CEFC10
:100DE00004F070FF002802D004F02CFF051C002D39
:100DF000AAD1124F201C7D6003F0BEFC079C49461F
:100E00000C6011B03CBC90469946A246AB46F0BD82
:100E10001C1000103F010000DC05000014700000F1
:100E2000187000001C70000019C80000207000003D
:100E3000CF7B0000247000002C70000000000350E5
:100E40003170000047700000F0B55F4656464D46D1
:100E50004446F0B485B08846071C04F0D3FE051C58
:100E600004F0D0FE041C04F0CDFE814604F0CAFE5E
:100E7000834604F0E7FE8023191C0140061C9E43B4
:100E80008A4604F0A5F948465B462A18E318013A59
:100E9000013B281C211C04F083F804F06BF8022E9F
:100EA0003CD0042E3ED0012E1ED0B54C52462568B3
:100EB000002A21D1182E2DD94E465F467E43002EA2
:100EC0001DD0FA20C70005E02368591BB94216D887
:100ED000002E14D004F0F6FE0028F5D004F092FEA7
:100EE00004F034F8013EF3E7A64D0027A846A44CD1
:100EF0005046256800283AD05346802B16D004F07F
:100F000023F804F05BF905B03CBC90469946A24634
:100F1000AB46F0BD9C48B10043589F460022904626
:100F2000984FE4E73C1C4746A046E0E7182E00D85F
:100F3000EDE04E465F467E43002EE0D09349FA2313
:100F4000DA008946904605E02068471B4745D6D819
:100F5000002ED4D004F0B6FE0028F5D004F052FEE6
:100F6000484500D1D7E003F0F1FF013EF0E74E46DF
:100F700059464E43002EC2D0424680234020A84608
:100F80009A468346A146151C09E04C462368414613
:100F9000FA22581AD400A042B1D8002EAFD004F0E3
:100FA00091FE0028F1D004F04DFE041C002EA6D0C6
:100FB0005346281C234200D0381C03F0C7FF012EE3
:100FC0009DD05946281C214200D0381C03F0BEFF9A
:100FD000022E94D02022281C224200D0381C03F07C
:100FE000B5FF032E00D18AE7281CE10600D5381C86
:100FF00003F0ACFF042E00D181E7281C220700D5A6
:10100000381C03F0A3FF052E00D178E7281C6307E6
:1010100000D5381C03F09AFF062E00D16FE7281C7C
:10102000A10700D5381C03F091FF072E00D166E719
:10103000381CE20700D4281C03F088FF083EACE708
:101040004E465F467E43002E00D158E7F822FC2131
:10105000FA2090468946C70007E023685A1BBA4227
:1010600000D94CE7002E00D149E704F02BFE002800
:10107000F3D004F0E7FD414608400002834604F047
:10108000E1FD4B461840C200594611438A4604F020
:10109000D9FD434618405246C008104303F056FF9E
:1010A000013EDFE74F4658464743002F00D126E771
:1010B000092E00D148E2082E00D16EE2C026382069
:1010C000B1468046072609E02168FA234A1BD8006A
:1010D000824200D913E7002F00D110E704F0F2FD9F
:1010E0000028F1D004F0AEFD494601408A005318B3
:1010F0009A0143460340D900CB1899001143304070
:101100008200081C104303F021FF013FE3E7204A5F
:10111000B1005058874604F095FD8346002800D161
:10112000EDE604F06FFD8246002E00D1E7E65B4657
:10113000371CDA070DD403F009FF771E06E00028FC
:1011400000D1DCE6504603F001FF023F002F00D142
:10115000D5E6504603F0FAFE781E821B5A44002A58
:10116000EDD1061CF4E64E465F467E43002E00D1CC
:10117000C5E6FA21F823CA009B46914612E0C04614
:1011800014100010FFFF0000EC6C0000AAAA000081
:10119000506D00002068471B4F4500D9AFE6002E78
:1011A00000D1ACE604F08EFD0028F3D004F02AFD57
:1011B000AA2800D1BBE05B461840070204F042FDBC
:1011C000824604F03FFD5246FC2111405B46CA00B6
:1011D0001840C108101C0843384303F0B7FE013E15
:1011E000DDE74F4658464743002F00D187E60722E8
:1011F000934609E02368FA20591BC200914200D9A6
:101200007DE6002F00D17AE604F05CFD0028F1D0E5
:1012100004F018FDAA2800D14FE1082E00D1BDE04E
:10122000092E00D1C8E0C02303409900CA18382312
:101230000340D900CB1892019B0013435A4610403B
:101240008200181C104303F081FE013FD9E74E468F
:101250005A465643002E00D151E6A346AA464446BC
:101260000BE05D4629685346FA22C81AD500A84209
:1012700000D944E6002E00D141E604F023FD002809
:10128000EFD004F0DFFC051EAA2D00D1A4E0002E53
:1012900000D134E68021201C294200D0381C03F004
:1012A00055FE012E00D12AE64023201C2B4200D0FF
:1012B000381C03F04BFE022E00D120E62022201C19
:1012C0002A4200D0381C03F041FE032E00D116E65E
:1012D000201CEA0600D5381C03F038FE042E00D18D
:1012E0000DE6201C2B0700D5381C03F02FFE052E21
:1012F00000D104E6201C690700D5381C03F026FE47
:10130000B01F8146002800D1F9E5201CAB0700D5AD
:10131000381C03F01BFE072E00D1F0E5381CEB074C
:1013200000D4201C4E4603F011FE023EA2E704F05A
:1013300089FC8246002800D1E1E504F083FC5F4689
:10134000074004F07FFCFC221040C3003F021F4313
:1013500004F078FC59460840C0080743B846002E00
:1013600000D1CCE55246371CD10704D4404603F0E7
:10137000EDFD771E0FE0404603F0E8FD7B1E991B54
:101380005144002900D1DDE0002B00D1B7E54046F3
:1013900003F0DCFD023F002FEDD1B0E5E021182382
:1013A000014003400A025900CB18D900CB1A9B0018
:1013B00013435A46104043E71C230340DA00D31876
:1013C000DA00E021032301400340980009021143A1
:1013D000C2185200081C35E704F034FC804600288F
:1013E00000D18CE504F02EFC051C002E00D186E512
:1013F0008021014052460191402303400292019A0C
:1014000059469C4603919246E3464BE05B46201CBE
:10141000002B00D0381C03F099FD012E00D16EE5A1
:101420002022201C2A4200D0381C03F08FFD022EFF
:1014300000D164E5201CE90600D5381C03F086FDC8
:10144000032E00D15BE5201C2A0700D5381C03F0D1
:101450007DFD042E00D152E5201C6B0700D5381C01
:1014600003F074FD701F8146002800D147E5201C61
:10147000AA0700D5381C03F069FD062E00D13EE511
:10148000381CEB0700D4201C03F060FD01214B4207
:1014900098444E464246023E002A00D1A6E0002E65
:1014A00000D12CE55146201C002900D0381C013EFB
:1014B00003F04CFD002EA9D121E504F0C3FB8246C8
:1014C000002800D11BE504F0BDFB082E00D192E0FE
:1014D000092E00D19DE0C02101408B005A1838230D
:1014E0000340D900CB1892019B0013435A46104089
:1014F000800003439946002F00D100E55146B846CD
:10150000CA0714D4181C03F021FD7B1E9846002B3B
:101510000DD1F4E4002800D1F1E4484603F016FDB3
:1015200002214B4298444046002800D1E7E4484657
:1015300003F00CFD40460138C21B5244002AE9D199
:10154000071C5EE61E1C2AE6FA26E0211C23F60094
:101550008946984607E02268501BB04200D9CEE485
:10156000002F00D1CBE404F0ADFB0028F3D004F051
:1015700069FB49464346014003400A02D900CB18A3
:10158000D900114303221040830018184200081CA0
:10159000104303F0DBFC013FE2E7FA261821E023C9
:1015A000F6008B469A4607E02068421BB24200D9FB
:1015B000A5E4002F00D1A2E404F084FB0028F3D0BE
:1015C00004F040FB594601404B005918CA00531A19
:1015D000524602409900130207221943104083002B
:1015E000081C184303F0B2FC013FE2E7029D039898
:1015F000AA4683463EE6E02303401A02182303402E
:101600005900CB18D900CB1A9B0013435A461040FF
:101610006EE7E0211C23014003400A02D900CB18E9
:10162000DB0013430322104081000818400060E7EC
:10163000F0B544465F4656464D46F0B4A1B0FFF7BC
:1016400065F903F00DF9D94908688846820701D584
:1016500000F033FED648FFF74DF9D64DD64B2C6837
:1016600026689E4201D000F0F6FDD44FA66A226A99
:10167000A069E169636A0096E66A0196246B0294A8
:1016800003F056FA286841690369081C0B930A9114
:1016900003F072F82E687279642A00D96422140467
:1016A000A01A642104F0F6FBC54BC0439861317960
:1016B000C448A0244843FFF71DF92E68B06804F021
:1016C0005BF92A688026107B03F078FF2D68802064
:1016D000AA79BD4DE30501017400101C1A69002AA6
:1016E0000BD15A580420002AF8D02E59022201208A
:1016F000002EF2D11A69002AF3D004F009FB434608
:101700000021002502201C6889468A4610958346E0
:101710005E4626420CD03C685246A31A99451BD916
:1017200004F0D0FA00281FD0454632202C688146AC
:10173000E10601D500F04EFD04F084FA872818D99F
:1017400004F094FA464634685E462642F0D03C687F
:101750005246A31A9945E3D839688A4603F00AFA33
:1017600004F0B0FA0028DFD140460A210468894617
:10177000CEE7850095484659B74603F0FBF93A682D
:1017800039688B1A042BFBD903F07EF80028F4D0BB
:1017900003F0DEF804F0F2F903F07CF804F0EEF95F
:1017A000CEE703F0E7F939683B685C1A042CFBD9F3
:1017B00003F0CEF90028F4D003F0CAF8051C03F0BA
:1017C00069F8041C06E003F0D5F938683E68321A5F
:1017D000042AFBD903F0BCF90028F4D103F0B8F8CF
:1017E000061C03F057F8031CB54201D800F012FDA7
:1017F000AA1B092A01D800F00DFD092605220120A7
:101800009C4201D800F0FAFCE51A092D01D800F03D
:10181000F5FC101C6E4B1968884704F027FA444603
:10182000246875E703F0A6F93D683868461B042E66
:10183000FBD903F08DF90028F4D103F089F804F006
:101840009DF903F027F804F099F904F00FFA4446E3
:1018500024685DE704F0F6F90628E0D85D4E8000C4
:101860003458A7465C4804F079F9EEE70B980A99DA
:10187000FEF7DEFCD3E704F0C5F9051C04F0C2F95D
:10188000011C281CFEF7D4FC4046046840E704F025
:10189000B9F9061C04F0B6F9051C04F0B3F9041CF0
:1018A00004F0B0F9031C0A980090291C301C221C7B
:1018B00000F0B8FFCBE704F0A5F9061C04F0A2F98C
:1018C000051C04F09FF9041C04F09CF9031C0B9800
:1018D000EAE704F097F9061C04F094F9099004F083
:1018E00091F9051C04F08EF9041C04F08BF9099998
:1018F00000902A1C301C231C00F094FFC4E704F065
:1019000081F9061C04F07EF9051C04F07BF9041C27
:1019100004F078F90A9A031C0092301C291C221C3E
:1019200001F046F993E704F06DF9061C04F06AF93A
:10193000051C04F067F9041C04F064F90B9A031CFD
:10194000EAE704F05FF9061C04F05CF9099004F082
:1019500059F9051C04F056F9041C04F053F90999CF
:1019600000902A1C301C231C01F022F957E704F0D8
:1019700049F9061C04F046F9051C04F043F9291C3A
:10198000021C0A9B301C01F095FA7DE704F03AF93D
:10199000061C04F037F9041C04F034F9211C021C65
:1019A0000B9B301C01F086FA51E7C0461C1000105A
:1019B000006CDC0200000010EFBEADDE1410001061
:1019C0000000014040420F0000000150B46D0000D3
:1019D0000C000010D46F00006070000004F012F9D9
:1019E000061C04F00FF9051C04F00CF9041C04F0AB
:1019F00009F9291C031C221C301C01F05BFAA1E62A
:101A000004F000F9061C04F0FDF8051C04F0FAF8D7
:101A1000291C021C0A9B301C01F0DCFBFFE604F0D1
:101A2000F1F8061C04F0EEF8041C04F0EBF8211C9D
:101A3000021C0B9B301C01F0CDFB25E704F0E2F803
:101A4000061C04F0DFF8051C04F0DCF8041C04F0AC
:101A5000D9F8291C031C221C301C01F0BBFBF6E644
:101A600004F0D0F8041C04F0CDF8051C04F0CAF80A
:101A7000061C04F0C7F8099004F0C4F80999A219EB
:101A80006B1800900A98013A013B0190291C201C18
:101A900001F0A8FC56E604F0B5F8041C04F0B2F816
:101AA000051C04F0AFF8061C04F0ACF8099004F033
:101AB000A9F8099BA219EB180090013A013B0B9879
:101AC000E3E704F09FF8051C04F09CF8041C04F004
:101AD00099F8061C04F096F8099004F093F80C901D
:101AE00004F090F80999AA190C9E63180190013A24
:101AF000013B0096281C211CCAE704F083F8041C53
:101B000004F080F8051C04F07DF8061C04F07AF857
:101B1000099004F077F8099BA219EB1800900A9835
:101B2000013A013B0190291C201C02F08DF809E6C6
:101B300004F068F8041C04F065F8051C04F062F871
:101B4000061C04F05FF8099004F05CF80999A219EA
:101B50006B180090013A013B0B98E3E704F052F850
:101B6000051C04F04FF8041C04F04CF8061C04F0AB
:101B700049F8099004F046F80C9004F043F8099BEA
:101B80000C99AA19E31800910190013A013B281C15
:101B9000211CCAE704F036F8051C04F033F8041CD5
:101BA00004F030F8061C04F02DF8AA1923180A983E
:101BB000013A013B0090211C281C02F0DBFAC1E530
:101BC00004F020F8051C04F01DF8041C04F01AF8B9
:101BD000061C04F017F8AA192318013A013B0B98C8
:101BE000E8E704F00FF8041C04F00CF8051C04F0FE
:101BF00009F8061C04F006F8099004F003F8099BA4
:101C0000A219EB180090013A013B201C291CD4E7D3
:101C100003F0F8FF051C03F0F5FF041C03F0F2FFCE
:101C2000061C03F0EFFFAA1923180A99013A013B99
:101C30000091281C211C02F0F7FA83E503F0E2FF73
:101C4000051C03F0DFFF041C03F0DCFF061C03F09F
:101C5000D9FFAA192318013A013B0B99E8E703F0D1
:101C6000D1FF041C03F0CEFF051C03F0CBFF061CC4
:101C700003F0C8FF099003F0C5FF099BA219EB18F8
:101C80000090013A013B201C291CD4E703F0DAFF45
:101C9000099003F0B7FF0C9003F0B4FF099C0D907E
:101CA000002C00D1BBE5013C012222400F9203F041
:101CB000A9FF061C03F0A6FF051C0A980D990090C9
:101CC000321C0C982B1C02F037FC002C00D1A6E52E
:101CD0000F99002900D1B1E203F094FF0C9003F0BA
:101CE00091FF0A9C0D900094301C291C0C9A0D9BAE
:101CF00002F022FC099C0C9E023C0D9D002C00D1A0
:101D00008DE55346484609930C90BA4603F07AFF96
:101D1000814603F077FF0A9B071C291C4A46301CAA
:101D200000933B1C02F008FC03F06CFF061C03F060
:101D300069FF0A9A051C00924846391C321C2B1C6C
:101D4000023C02F0F9FB002CE0D10C9C099EA1465C
:101D50005746B24663E503F075FF099003F052FF62
:101D60000C9003F04FFF099C0D90002C00D156E51C
:101D7000013C012626400F9603F044FF061C03F0A9
:101D800041FF051C0B980D990090321C0C982B1CE0
:101D900002F0D2FB002C00D141E50F99002900D1BF
:101DA00047E203F02FFF0C9003F02CFF0B9C0D90EB
:101DB0000094301C291C0C9A0D9B02F0BDFB099C61
:101DC0000C9E023C0D9D002C00D128E55346484650
:101DD00009930C90BA4603F015FF814603F012FFF9
:101DE0000B9B071C291C4A46301C00933B1C02F02D
:101DF000A3FB03F007FF061C03F004FF0B9A051C6E
:101E000000924846391C321C2B1C023C02F094FB09
:101E1000002CE0D10C9C5746A146099E99E703F09F
:101E2000F1FE099003F00EFF0C9003F0EBFE0F9013
:101E300003F0E8FE0C9C0D90002C00D1EFE4013C77
:101E400001252540119503F0DDFE061C03F0DAFEA6
:101E5000051C09980D990090321C0F982B1C02F05C
:101E60006BFB002C00D1DAE41199002900D1EAE1E2
:101E700003F0C8FE0D9003F0C5FE099C0F9000947E
:101E8000301C291C0D9A0F9B02F056FB0C9C0D9EDA
:101E9000023C0F9D002C00D1C1E4534648460C93F0
:101EA0000D90BA4603F0AEFE814603F0ABFE099BEF
:101EB000071C291C4A46301C00933B1C02F03CFBCB
:101EC00003F0A0FE061C03F09DFE099A051C00927B
:101ED0004846391C321C2B1C023C02F02DFB002C06
:101EE000E0D10D9C0C9E5746A146B24697E403F004
:101EF00089FE061C03F086FE051C03F083FE041C0D
:101F000003F080FE031C0A980090291C301C221C40
:101F100002F012FB9BE403F075FE061C03F072FE58
:101F2000051C03F06FFE041C03F06CFE031C0B98F1
:101F3000EAE703F067FE061C03F064FE099003F075
:101F400061FE051C03F05EFE041C03F05BFE0999B4
:101F500000902A1C301C231C02F0EEFA94E403F0DB
:101F600051FE061C03F04EFE0A9A011C301C02F0C2
:101F7000DFFB6CE403F046FE051C03F043FE0B9A06
:101F8000011C281C02F0D4FBFFF7DCFB03F03AFE37
:101F9000061C03F037FE041C03F034FE211C021C57
:101FA000301C02F0C5FB3AE40A9802F0E5FB6BE452
:101FB0000B9802F0E1FB4AE403F024FE02F0DCFBA4
:101FC000FFF7C0FB0B980A99FEF73EFF27E40B983A
:101FD0000A99FEF70FFABB4926200B68984703F0D1
:101FE00045FE51E403F00EFE0A90FFF7ABFB03F051
:101FF00009FE0B9013E403F025FE03F011F943E40E
:1020000002F028FC1FE402F01FFCFFF7C7FB03F0FF
:1020100019FE02F005FCFFF702FC03F013FE03F0CB
:10202000A9F831E403F00EFE03F0B2F80FE402F079
:102030008FFD03F0A3FDFFF7F0FB02F02BFC03F094
:102040009DFDCCE702F084FCFFF7FDFB02F080FC75
:1020500003F094FD02F01EFC03F090FD02F014FC6E
:10206000FFF79CFB0A980B99FEF75AF9FFF7D7FB8D
:102070000B980A99FEF754F906E403F0C3FD041C1B
:1020800003F0C0FD011C201CFEF74AF9FFF7DFFB3F
:102090000A980B99FEF7CCF8FFF754FB03F0D2FD3A
:1020A00003F09EF8FFF74EFB02F0DAFBFFF7B7FBF9
:1020B00003F0C8FD1090021E642A00D964221004A7
:1020C000801A642103F0E6FE7F4EC543B561FFF739
:1020D000DBFB109C002C02D17C497B4B99610B9857
:1020E0000A99FEF7B5FC774A87201568A847FFF7DD
:1020F00027FB744E0320336870E71099002902D142
:10210000724A714B9A610B980A99FEF74DFD6D4D1D
:1021100002202D68A847FFF713FB03F093FD5946F3
:10212000041C014200D093E043461C60FFF7F0FA24
:1021300003F088FD664A5043FEF7DCFBFFF76FFBB8
:1021400003F080FD03F03AFAFFF79EFB03F024FD55
:1021500003F012FCFFF77BFB03F074FD03F0D8FDE6
:10216000FFF7F0FA03F0CEFD041C03F0C5FD051CDB
:1021700003F0BCFD061CFEF76BFA099002F0D4FCDC
:102180000168436882681991C1681A931B920369B8
:1021900042691C9115950A9952256D4480691D93D9
:1021A0001E920B9B16AA18912C7009A910AC1F90B7
:1021B000167051200A78267868441793454D14AB61
:1021C00006701A7013A80D21434A139503F0E6FD1B
:1021D000FFF725FB03F076FD002801D0FFF7ACFAEE
:1021E0003E680E9C3D4B321B9A4201D8FFF7A4FA81
:1021F00039680E91FEF708FBFFF79EFA9C4201D367
:10220000FFF708FB1C1B092C01D8FFF703FB301C50
:10221000FFF700FBB54207D2711B092904D90A2632
:1022200006220220FFF7ECFA082604220020FFF71E
:10223000E7FA5346484609930C90CBE55346484687
:1022400009930C9061E5534648460C930D9028E69F
:1022500002F014FE68E7224F012400267C6021482A
:1022600002F08AFA0A21204A01230096019602967A
:102270000A2000F083FA1549134A184B91617E60D9
:102280001A4F38683C68261A9E42FBD9154C00202C
:10229000211CFEF7DDFB00219622009101910294A2
:1022A00091010220A0223023FEF79AFB211C00207E
:1022B000FEF77AFC2C68FFF7D9F902F0DFFDFFF793
:1022C000C9F9C0460C000010000001400080FFFF6B
:1022D00040420F00EFBEADDE14000010E703000027
:1022E00000000350FFFF00005070000014100010A9
:1022F000F0B556465F464D464446F0B4151CDA002C
:102300008BB09B46131806930190C548069E0C1C83
:1023100003681499013E8A469E4200D3E1E0C14918
:10232000671E0868BA18824200D3DAE01F2D00D871
:10233000D9E05B46013B0793203D02F049FFBA4ECE
:10234000ED00079AAF190597002A00D04FE1019ED2
:10235000019801360230019B0199019A029604907E
:10236000019E0198033304310532251C3F1B0636BC
:10237000083505930391079207307F2340212022DF
:102380000896099056469846BA46894693462F1CA9
:102390001DE0002B00D01CE14846284200D00AE195
:1023A0005946294200D0F8E0E90600D5E7E02A07BF
:1023B00000D5D6E06B0700D5C5E0A90700D5B4E08D
:1023C000EA0700D597E00134BC4200D1A9E05546A8
:1023D0002D5D16982B1C41468B430028D9D00198BF
:1023E000211C021C002B00D0A1E1231C02F0D8FD0F
:1023F00002F0C0FD159802F0A9FD02F0A5FD4A46C5
:102400000298211C2A4200D089E1021C231C02F000
:10241000C7FD02F0AFFD159802F098FD02F094FDA3
:1024200004985B46211C021C2B4200D09EE1231C19
:1024300002F0B6FD02F09EFD159802F087FD02F055
:1024400083FD0598E90600D587E1021C211C231CA9
:1024500002F0A6FD02F08EFD159802F077FD02F065
:1024600073FD0398211C2A0700D56EE1021C231C72
:1024700002F096FD02F07EFD159802F067FD02F075
:1024800063FD0798211C021C6B0700D556E1231C35
:1024900002F086FD02F06EFD159802F057FD02F085
:1024A00053FD0898A90700D530E1021C211C231C0C
:1024B00002F076FD02F05EFD159802F047FD02F095
:1024C00043FD0998211CEA0717D4021C231C02F0C3
:1024D00067FD02F04FFD159802F038FD02F034FD63
:1024E00071E70133019301980BB03CBC90469946CB
:1024F000A246AB46F0BD0998211C021C231C02F029
:102500004FFD02F037FD301C02F020FD02F01CFDF3
:1025100059E7029F0599381C089A58440290914245
:1025200070D102F04BFE069BDCE70898211C021CD0
:10253000231C02F035FD02F01DFD301C02F006FDEB
:1025400002F002FD3CE70798211C021C231C02F04C
:1025500027FD02F00FFD301C02F0F8FC02F0F4FC45
:102560002BE70398211C021C231C02F019FD02F02A
:1025700001FD301C02F0EAFC02F0E6FC1AE70598C7
:10258000211C021C231C02F00BFD02F0F3FC301C8A
:1025900002F0DCFC02F0D8FC09E70498211C021CC4
:1025A000231C02F0FDFC02F0E5FC301C02F0CEFC26
:1025B00002F0CAFCF8E60298211C021C231C02F05F
:1025C000EFFC02F0D7FC301C02F0C0FC02F0BCFCB7
:1025D000E6E60198211C021C231C02F0E1FC02F03B
:1025E000C9FC301C02F0B2FC02F0AEFCD4E601984B
:1025F000059D13180294159C08350133059908951B
:102600000993A046059E01310591079A02993778F2
:10261000501800970490099D019C082780260FE020
:102620005010001058100010687000001699002912
:102630003BD1013F2C1C76085D44002F00D168E798
:10264000009B6A1E3342F1D0201C049B029902F0C9
:10265000A7FC02F08FFC281B5B4643439946002BE6
:1026600020D01C1C013C012121405046039102F066
:102670006DFC002C16D0039A002A06D04C4650461A
:10268000023C02F063FC002C0CD0A9465546281CE5
:1026900002F05CFC023C281C02F058FC002CF6D135
:1026A000AA464D4602F050FCC3E7201C0299049B49
:1026B00002F076FC2C1B02F05DFC5A466243914608
:1026C000002AEFD0141C013C01202040039040461A
:1026D00002F03CFC002CE5D0039B002B06D04C46BE
:1026E0004046023C02F032FC002CDBD04146A846BA
:1026F0000D1C281C02F02AFC023C281C02F026FCBF
:10270000002CF6D12A1C45469046CBE7021C211C22
:10271000231C02F045FC02F02DFC301CCDE6021C0F
:10272000231C02F03DFC02F025FC301C74E6231C47
:1027300002F036FC02F01EFC301C5CE6231C02F0AA
:102740002FFC02F017FC301CA7E6021C231C02F031
:1027500027FC02F00FFC301C8FE6021C211C231CFE
:1027600002F01EFC02F006FC301C76E6231C02F090
:1027700017FC02F0FFFB301C5FE6C046F0B5564682
:102780004D4644465F46F0B485B00E1C141C1D1C1B
:102790000E9A0F9B1099904699468A46002D00D1BB
:1027A000012580273A02904226D080210A029642D3
:1027B00018D01A4F2278002A0DD04346009349467C
:1027C000534601910293311C2B1CFFF791FD3A688F
:1027D00001349042EED905B03CBC90469946A246E1
:1027E000AB46F0BD0E4EEB0037685A087908891ADF
:1027F000B942B6410E40DCE7084F38684308201C58
:102800009B4603F039FCE90041435A4648083F68BB
:10281000131ABB4280411840C7E7C0465010001051
:1028200058100010F0B55F4656464D464446F0B489
:102830008DB00590C6480993059D03680891169CC4
:102840008346AE1A9E4200D3E6E0C24F089D396827
:10285000099EBA46AF1B8F4200D3DDE0301C5542C3
:10286000704302956F00029E0137474376435243FF
:10287000BD190697029F0796520040000026049556
:102880000A920B900396002F00DDCCE0301C059AD5
:10289000029D059E571B089AAD19B9468618B84681
:1028A0009F4201D3581E804601968E4201D34F1E8F
:1028B00001972F1E9F4200D35F1E8E4200D34E1EF3
:1028C000B84502D83B1C474698460199B14202D808
:1028D000321C019E019202F07BFC381C311C019BD2
:1028E000424602F05DFB02F045FB01984346013091
:1028F0000133811BDF1B4F43002F19D07E1E0122A5
:102900003240201C904602F021FB002E10D04046A1
:10291000002804D0201C02F019FBBE1E06E0201C7B
:1029200002F014FB201C02F011FB023E002EF6D137
:102930005F4602F009FB02F041FC089B03993A68EC
:102940005E1A914501D3501E814653461968371EC1
:102950008F4200D34F1E954200D3551E8E4200D3A6
:102960004E1EA94502D82A1C4D469146B74202D8B0
:10297000301C3E1C071C02F02BFC3B1C281C311C8D
:102980004A4602F00DFB02F0F5FA4B4601370133DF
:10299000B91B5D1B4D43002D17D06F1E0126201C57
:1029A0003E4002F0D3FA002F0FD0002E04D0201C9E
:1029B00002F0CCFAAF1E06E0201C02F0C7FA201C81
:1029C00002F0C4FA023F002FF6D102F0BDFA02F085
:1029D000F5FB049A06995000884208DB0B9D029B88
:1029E000049F4E190133BA1902930696049207996F
:1029F000884208DC0A9B0398049DCE180130AF1969
:102A0000039007960497029A002A0CDC5E4657460C
:102A10003368396803983AE70DB03CBC9046994654
:102A2000A246AB46F0BD039D0898099BE943071CED
:102A30005A1B0E180137D2075BD4A046059C33E021
:102A40009E4210D202F0C4FB311C221C331C201CFD
:102A500002F0A6FA02F08EFA404602F077FA02F08F
:102A600073FA02F0ABFB584602680135013E94420E
:102A700018D253461B687919894699424FD39E4212
:102A800010D202F0A5FB311C221C331C201C02F0CA
:102A900087FA02F06FFA404602F058FA02F054FA50
:102AA00002F08CFB0135013E099BAB42B4D958467C
:102AB00002689442D7D253461B68791989469942D5
:102AC000BED202F085FB221C49464B46201C02F078
:102AD00067FA02F04FFA404602F038FA02F034FA90
:102AE00002F06CFB584602689442BCD251460B6817
:102AF000A6E7099D03998D4200D88DE75846059BAE
:102B00000268934207D2039D514609687D198D42A0
:102B100034D38E4220D3039D013E01358DE702F070
:102B200057FB221C49464B46201C02F039FA02F0A2
:102B300021FA404602F00AFA02F006FA02F03EFBE1
:102B4000584602689442ADD251460B6897E7C0469A
:102B5000501000105810001002F03AFB0598311C7C
:102B6000021C331C02F01CFA02F004FA201C02F0D2
:102B7000EDF902F0E9F902F021FBCCE702F028FBC5
:102B800005982B1C021C291C02F00AFA02F0F2F92B
:102B9000201C02F0DBF902F0D7F902F00FFB5846D7
:102BA000059B02689342B6D255462968B1E7C046F4
:102BB000F0B55F4656464D464446F0B48BB0079399
:102BC0005B43544205916100051C0131201C5943AF
:102BD000604352430E1852005B000391049002962A
:102BE000089209930027002C00DD92E0AF48B0491D
:102BF00082468B468146B846069543E0874212D20C
:102C000002F0E6FA321C3B1C391C301C02F0C8F9F9
:102C10005E4602F0AFF9149802F098F902F094F9C8
:102C200002F0CCFA33689D4214D249460A68BA428F
:102C300010D902F0CDFA391C2A1C3B1C281C02F0CA
:102C4000AFF902F097F9149802F080F902F07CF9DC
:102C500002F0B4FA029D03986F00874205DB099EDB
:102C600001348319E91803930291049DAF4207DCF4
:102C7000089F029EE81901223318904404900293A1
:102C8000002C44DC059F5B46069D3E1C1B684644A9
:102C90002D1B01969D4216D251460868864212D2DB
:102CA00002F096FA01992A1C0B1C281C02F078F9F4
:102CB0005F4602F05FF9149802F048F902F044F917
:102CC00002F07CFA3B68069E05994246A6198F1AC7
:102CD0009E42A8D275480199006881428ED202F0C6
:102CE00077FA0199321C0B1C301C02F059F902F0E2
:102CF00041F9149802F02AF902F026F902F05EFA7E
:102D00005B461B689E428ED2684A106876E7069D35
:102D10004746059AF9438E1865489346079A6349D2
:102D200080460123D01B3C1C9B448A46C10713D517
:102D3000079CBC4200D882E0434619688D4209D204
:102D400050465A460068D419844200D292E0864226
:102D500000D27BE07C1C013E5F4633E09E4210D2F5
:102D600002F036FA311C2A1C331C281C02F018F918
:102D700002F000F9149802F0E9F802F0E5F802F028
:102D80001DFA41460A680134013E954218D2534665
:102D90001B6838198346984239D39E4210D202F0FC
:102DA00017FA311C2A1C331C281C02F0F9F802F017
:102DB000E1F8149802F0CAF802F0C6F802F0FEF941
:102DC0000134013E079BA34239D941460A68954226
:102DD000D7D253461B68381981469842BED202F0BA
:102DE000F7F949462A1C4B46281C02F0D9F802F094
:102DF000C1F8149802F0AAF802F0A6F802F0DEF981
:102E000041460A689542BCD250460368A6E702F0E4
:102E1000DFF959462A1C5B46281C02F0C1F802F073
:102E2000A9F8149802F092F802F08EF802F0C6F9B0
:102E300041460A689542C3D250460368ADE70BB0DD
:102E40003CBC90469946A246AB46F0BD02F0C0F9A4
:102E5000311C331C2A1C281C02F0A2F802F08AF84C
:102E6000149802F073F87C1C02F06EF8013E02F038
:102E7000A5F971E702F0ACF9211C231C2A1C281CBF
:102E800002F08EF802F076F8149802F05FF802F083
:102E90005BF802F093F9434619688D4200D359E775
:102EA00052461068864200D354E7CFE7581000100E
:102EB00050100010F0B55F4656464D464446F0B4FB
:102EC00087B00390C1481C1C039D0368049183468E
:102ED000AE1A9E4200D36FE1BD4F04983968851A3F
:102EE0008D4200D368E1564205960292002A00DA2C
:102EF00062E100220192039F0298049A3D1AC619CA
:102F0000019FA946BF189D4201D3581E8146BA466B
:102F10008F4201D34A1E9246B0469E4201D3013BE6
:102F200098468F4200D34F1EC14502D84346C8463B
:102F30009946BA4502D8391C57468A4602F048F9E4
:102F40004046391C4A46534602F02AF802F012F86D
:102F500050464B46414601300133C21B5F1A57436E
:102F6000B846002F19D0013F012038408146201C6F
:102F700001F0ECFF002F10D04A46002A04D0201C9C
:102F800001F0E4FF474605E0201C01F0DFFF201CB4
:102F900001F0DCFF023F002FF6D101F0D5FF02F077
:102FA0000DF95846049B019902685F1A954200D3B7
:102FB000551E874BBA461868B84201D8411E8A464A
:102FC000964200D3561EB84200D8471EB54202D8DA
:102FD000321C2E1C151CBA4502D83B1C57469A467B
:102FE00002F0F6F8301C391C2A1C534601F0D8FFB9
:102FF00001F0C0FF504601300135C11BAE1B4E43EE
:10300000002E17D0751E0127201C2F4001F09EFFB7
:10301000002D0FD0002F04D0201C01F097FFB51E0B
:1030200006E0201C01F092FF201C01F08FFF023D02
:10303000002DF6D101F088FF02F0C0F8039A019B41
:103040000298D71AD5185A46049913684618581E7C
:103050008146BB4200D9B9465D49B2460A689642EC
:1030600001D3501E8246A8469D4201D3013B98469B
:10307000964200D3561EC14502D8C446C846E14612
:10308000B24502D8331C56469A4602F0A1F8404693
:10309000311C4A46534601F083FF01F06BFF514655
:1030A0004B46424601310133881B9E1A4643B046C7
:1030B000002E19D0013E01213140201C894601F02B
:1030C00045FF002E10D04846002804D0201C01F0F7
:1030D0003DFF464605E0201C01F038FF201C01F0B2
:1030E00035FF023E002EF6D101F02EFF02F066F809
:1030F000029A049B59469E1A0A68BA4200D8571E83
:103100003348B24603689E4201D3591E8A4695420F
:1031100000D3551E9E4200D35E1EAF4202D82A1C29
:103120003D1C171CB24502D8301C5646824602F0A0
:103130004FF8281C311C3A1C534601F031FF01F0B6
:1031400019FF534601330137991B7D1B4D43002D59
:1031500017D06F1E0126201C3E4001F0F7FE002F05
:103160000FD0002E04D0201C01F0F0FEAF1E06E0B0
:10317000201C01F0EBFE201C01F0E8FE023F002FB6
:10318000F6D101F0E1FE02F019F8019A0598131842
:1031900001320192D218059215D40299059D013988
:1031A0006E1A771A02910597019A914204DB084939
:1031B0005846036809689EE607B03CBC90469946AD
:1031C000A246AB46F0BD0299EEE7C0465010001093
:1031D00058100010F0B55F4656464D464446F0B4D0
:1031E00089B007935342061C0F1C0693151E00DA84
:1031F000EDE07A4A00249346701B05905B461B68FD
:10320000059A391B88469A4216D27548016841458D
:1032100012D901F0DDFF05984346021C414601F03A
:10322000BFFE01F0A7FE079801F090FE01F08CFEB2
:1032300001F0C4FF5B461B68321B04920499781BA3
:103240008246994216D2664A1068824512D201F02F
:10325000BFFF04985346021C514601F0A1FE01F045
:1032600089FE079801F072FE01F06EFE01F0A6FFE4
:103270005B461B68A9198946994216D2584A1068BC
:10328000404512D901F0A4FF434641464A4648460C
:1032900001F086FE01F06EFE079801F057FE01F086
:1032A00053FE01F08BFF5B461B683119884699423B
:1032B00016D24B4A1068824512D201F089FF53465C
:1032C00051464246404601F06BFE01F053FE07981E
:1032D00001F03CFE01F038FE01F070FF5B461B6818
:1032E00039198A46994516D23D4A1068814212D250
:1032F00001F06EFF534651464A46484601F050FEE3
:1033000001F038FE079801F021FE01F01DFE01F0EA
:1033100055FF5B461B68E9198946984516D2304A25
:103320001068814212D201F053FF4B464946424693
:10333000404601F035FE01F01DFE079801F006FE43
:1033400001F002FE01F03AFF5B461B6805999942C5
:1033500016D2234A1068824512D201F039FF05982F
:103360005346021C514601F01BFE01F003FE079874
:1033700001F0ECFD01F0E8FD01F020FF5B461B6869
:103380000499994214D2164A1068814510D201F06E
:103390001FFF04984946021C4B4601F001FE01F054
:1033A000E9FD079801F0D2FD01F0CEFD01F006FF26
:1033B000069BE1180A1C01341219069204D40698DF
:1033C000013D431B591B0691A54200DB14E709B0E0
:1033D0003CBC90469946A246AB46F0BD501000104A
:1033E00058100010F0B55F4656464D464446F0B4BE
:1033F00089B0161C0C1C129A1299051C9A460818C2
:10340000B31A139F00909B46984208D21299129AC1
:1034100053460819991A06900791884206D309B0B5
:103420003CBC90469946A246AB46F0BDA048009BE6
:1034300002689946934201D3501E81469D4B1968FC
:103440008C4200D34C1ED846934501D3013A904696
:103450008A4501D301398A46C14500D8E9E354457C
:1034600000D9E2E301F0B4FE211C4A46404653462F
:1034700001F096FD01F07EFD4B46504601300133D0
:103480004246011B9C1A4C43A146002C19D0013C1A
:10349000012020408046381C01F058FD002C10D03F
:1034A0004146002904D0381C01F050FD4C4605E08F
:1034B000381C01F04BFD381C01F048FD023C002C8B
:1034C000F6D101F041FD01F079FE794B1A68954281
:1034D00000D3551E7748069903688946994201D35F
:1034E0005C1EA146009C944200D3541E079A92464B
:1034F0009A4201D3013B9A46A54200D88EE3D145BA
:1035000000D887E301F064FE201C2A1C51464B467C
:1035100001F046FD01F02EFD4946013152460135CC
:10352000881A2C1B4443002C19D0651E01232B4004
:10353000381C984601F00AFD002D10D041460029A4
:1035400004D0381C01F002FDA51E06E0381C01F075
:10355000FDFC381C01F0FAFC023D002DF6D101F013
:10356000F3FC01F02BFE524A1068441E834500D242
:1035700047E3504B06991A688A46914201D3551E7B
:10358000AA46864200D3461E079D954200D3551E8B
:10359000B44202D9201C341C061CAA4500D82CE3D6
:1035A00001F016FE321C201C291C534601F0F8FCC9
:1035B00001F0E0FC524601320136511B341B4C43F2
:1035C000002C17D0661E0125381C354001F0BEFCCA
:1035D000002E0FD0002D04D0381C01F0B7FCA61E21
:1035E00006E0381C01F0B2FC381C01F0AFFC023ED2
:1035F000002EF6D101F0A8FC01F0E0FD1298129A1D
:1036000043420021059302920191002A00DA06E765
:1036100002985E46009C019B251A254A0698039550
:10362000C41A039910688B46814201D3431E9B46FE
:10363000204AA0461368A34201D8591E8846009D1F
:10364000854200D3451EA146A34201D8013B9946BD
:10365000AB4502D8281C5D468346C84502D8CC46F7
:10366000C146E04601F0B4FD281C49465A4643468F
:1036700001F096FC01F07EFC4346584601334A4671
:103680000130991A451B4D43AA46002D1DD0013D1E
:1036900001232B40381C9B4601F058FC002D14D010
:1036A0005A46002A08D0381C01F050FC554609E063
:1036B0005010001058100010381C01F047FC381C46
:1036C00001F044FC023D002DF6D101F03DFC01F07B
:1036D00075FD00980199069A431AAD48029D04931E
:1036E0000368551B049A591E8946934200D9914696
:1036F000A848AB460268954201D3511E8B460098FC
:103700008046984201D3013B9846AA46954201D390
:10371000013A9246C14502D8C446C846E146D3455F
:1037200002D85346DA469B4601F052FD40465146C8
:103730004A465B4601F034FC01F01CFC594601315D
:1037400052464B46881A013341465A1A4243904624
:10375000002A26D0012043429946C144012249460D
:103760001140381C8A4601F0F1FB4846002818D069
:103770005346002B09D0381C01F0E8FB02225142CD
:103780008946C144484600280BD0A3464C46381C05
:1037900001F0DCFB023C381C01F0D8FB002CF6D118
:1037A0005C4601F0D1FB01F009FD7949029B0868F4
:1037B0009A19431E90469A46824200D29246754A12
:1037C000A3461368A34201D8591E8B46B1468642D0
:1037D00001D301388146A34200D85C1ECA4502D8F5
:1037E000CC46D146E246A34502D8201C5C4683461F
:1037F00001F0EEFC4846211C52465B4601F0D0FB2E
:1038000001F0B8FB5A465346484601320133111BBA
:103810001C1A4C43A146002C19D0013C0122224025
:10382000381C924601F092FB002C10D05146002922
:1038300004D0381C01F08AFB4C4605E0381C01F02E
:1038400085FB381C01F082FB023C002CF6D101F014
:103850007BFB01F0B3FC019B4D4A9819136881462C
:10386000591E8A46834200D982464A4CAB4620689C
:10387000854201D3421E9346341E9C4200D35C1EF7
:10388000854200D3451EA24502D8231C54469A46C1
:10389000AB4502D8291C5D468B4601F099FC201CE3
:1038A000291C52465B4601F07BFB01F063FB584646
:1038B000524601300132451B131B5D43002D19D0C8
:1038C0006C1E01212140381C8A4601F03FFB002C70
:1038D00010D05046002804D0381C01F037FBAC1E35
:1038E00006E0381C01F032FB381C01F02FFB023CD3
:1038F000002CF6D101F028FB01F060FC244B079D61
:10390000019A1868AC18804501D3411E8846214DA4
:10391000A3462A68A24201D8531E9B46351E854203
:1039200000D3451EA246A24201D8013A9246A845BC
:1039300002D8281C45468046D34502D8D446DA46EC
:10394000E34601F045FC281C514642465B4601F027
:1039500027FB01F00FFB594640465246013101302A
:103960008B1A451B5D43AA46002D1ED0013D012147
:103970002940381C884601F0E9FA002D15D042464E
:10398000002A09D0381C01F0E1FA55460AE0C04689
:103990005010001058100010381C01F0D7FA381CD5
:1039A00001F0D4FA023D002DF6D101F0CDFA01F07C
:1039B00005FCA349029B07980A681D184A4501D8CF
:1039C000531E99469F48AB4603689D4201D3591E3A
:1039D0008B46B046964201D3013A9046AA469D4294
:1039E00001D3013B9A46C14502D8C446C846E146C8
:1039F000D34502D85246DA46934601F0E9FB4046E9
:103A000051464A465B4601F0CBFA01F0B3FA5846FC
:103A10004A465346414601300132C01A531A4343C5
:103A20009846002B26D0012042429146C1440123F2
:103A300049461940381C8A4601F088FA4846002851
:103A400018D05246002A09D0381C01F07FFA022310
:103A500059428946C144484600280BD0A3464C46EB
:103A6000381C01F073FA023C381C01F06FFA002C8C
:103A7000F6D15C4601F068FA01F0A0FB704A039BA6
:103A80001068834201D3411E03916E4AA246136817
:103A9000A34201D8591E8A46009A9046824201D319
:103AA00001388046A34200D85C1E0398404502D8E6
:103AB000434603938046A24502D8211C54468A46B9
:103AC00001F086FB211C4046039A534601F068FA38
:103AD00001F050FA039B5246013201334146101B5C
:103AE0005C1A4443A346002C19D0013C0122224019
:103AF000381C914601F02AFA002C10D048460028C4
:103B000004D0381C01F022FA5C4605E0381C01F0B4
:103B10001DFA381C01F01AFA023C002CF6D101F013
:103B200013FA01F04BFB464B04991A688A4201D8FC
:103B3000501E0490434CA84623689D4201D3591E51
:103B40008846009C944200D3541E9D4200D35D1EC3
:103B5000049AA24202D8201C0490141CA84502D842
:103B60002B1C4546984601F033FB291C201C049A67
:103B7000434601F015FA01F0FDF9049A414601317E
:103B800001324D1B101B4543002D19D06C1E012323
:103B90002340381C9A4601F0D9F9002C10D0514628
:103BA000002904D0381C01F0D1F9AC1E06E0381C05
:103BB00001F0CCF9381C01F0C9F9023C002CF6D117
:103BC00001F0C2F901F0FAFA019D059AA818013531
:103BD00001952D1805950ED4029B0599013B029382
:103BE000029DCC1A621B0592281C019B984200DBA7
:103BF00010E5FFF714FC0298F7E72B1C55469A4690
:103C0000CEE4104B06991A685C468A46914200D26F
:103C1000B7E4B4E4D446CA46E14673E4231C2C1C42
:103C20001D1CD14500D96DE4F4E7221C5446924690
:103C300018E4C446C846E146544500D812E4F4E707
:103C40005010001058100010F0B55F4656464D4613
:103C50004446F0B487B0151C8A46109A1099041C8B
:103C60001F1C0818AB1A03900293984208D2109EAA
:103C7000109A311C5144BB1A04910593994206D302
:103C800007B03CBC90469946A246AB46F0BDA14E5B
:103C9000A3463068B046844201D3421E93469E4EEE
:103CA000049933688946994201D35A1E9146844249
:103CB00000D3441E05980190984201D3013B019323
:103CC000A34500D836E20198814500D82EE201F0E4
:103CD0007FFA201C5A4601994B4601F061F901F028
:103CE00049F95A464B46019801330132191A141BFF
:103CF0004C43A346002C1ED0013C012323401198C5
:103D0000994601F023F9002C15D04846002806D02A
:103D10005C461198023C01F019F9002C0BD0AB461F
:103D2000119D281C01F012F9023C281C01F00EF92B
:103D3000002CF6D15D4601F007F901F03FFA41464B
:103D40000B6803985A1E9146984200D2CEE1326821
:103D5000BB46974201D3541EA346029C9C4200D30B
:103D60005C1E974200D3571EA14500D8FAE1BB451F
:103D700000D8EBE101F02CFA391C201C4A465B46C6
:103D800001F00EF901F0F6F858464A4601300132CA
:103D9000C71B111B4F43002F1BD07C1E0123234048
:103DA0001198994601F0D2F8002C12D0484600280C
:103DB00005D01198BC1E01F0C9F8002C09D0119F44
:103DC000381C01F0C3F8023C381C01F0BFF8002C8D
:103DD000F6D101F0B9F801F0F1F9424613685C1E22
:103DE0009D4200D2B6E1049930688B46814201D3EE
:103DF000471EBB469D4200D35D1E059F874200D3F0
:103E0000471EAC4200D87CE1BB4500D875E101F00B
:103E1000DFF9281C391C221C5B4601F0C1F801F0B7
:103E2000A9F8584601300134C11B651B4D43002DD4
:103E300019D06C1E01271198274001F087F8002C3B
:103E400011D0002F05D01198AC1E01F07FF8002C86
:103E500009D0119D281C01F079F8023C281C01F0C2
:103E600075F8002CF6D101F06FF801F0A7F9424681
:103E7000136803985D1E984200D249E131685746A5
:103E80008A4500D34F1E029C9C4200D35C1E8A458B
:103E900001D301398A46A54200D840E1574500D8F0
:103EA00050E101F095F9201C51462A1C3B1C01F001
:103EB00077F8013701F05EF801355046391A2C1BAE
:103EC0004C43002C19D0651E012711982F4001F09A
:103ED0003DF8002D11D0002F05D01198A51E01F03E
:103EE00035F8002D09D0119C201C01F02FF8023D5F
:103EF000201C01F02BF8002DF6D101F025F801F07F
:103F00005DF9109A109D534201930024002D00DAB0
:103F1000B6E603E050100010581000100499434614
:103F200003981B680A1B471B91469F4215D23068B5
:103F3000904212D901F04CF949464B463A1C381CC4
:103F400001F02EF801F016F8119800F0FFFF00F0D4
:103F5000FBFF01F033F941460B68039A0499101BEB
:103F60004A1B00909346984215D23068824212D282
:103F700001F02EF900985B46021C594601F010F83A
:103F800000F0F8FF119800F0E1FF00F0DDFF01F014
:103F900015F943461B6802994A1992469A4215D26E
:103FA0003068484512D901F013F94B46494652464C
:103FB000504600F0F5FF00F0DDFF119800F0C6FF5D
:103FC00000F0C2FF01F0FAF843461B6802990A1993
:103FD00091469A4215D23068834512D201F0F8F822
:103FE0005B4659464A46484600F0DAFF00F0C2FFF9
:103FF000119800F0ABFF00F0A7FF01F0DFF8434697
:104000001B6805990A1993469A4515D23068824271
:1040100012D201F0DDF85B4659465246504600F098
:10402000BFFF00F0A7FF119800F090FF00F08CFF99
:1040300001F0C4F843461B6805994A199246994510
:1040400015D23068824212D201F0C2F8534651466E
:104050004A46484600F0A4FF00F08CFF119800F09B
:1040600075FF00F071FF01F0A9F843461B689F42FD
:1040700015D231688B4512D201F0AAF83A1C5B4682
:104080005946381C00F08CFF474600F073FF11982A
:1040900000F05CFF00F058FF01F090F83B68009AD8
:1040A0009A4213D23068824510D201F091F80098FC
:1040B0005146021C534600F073FF00F05BFF11985D
:1040C00000F044FF00F040FF01F078F80199671814
:1040D0003B1C01341B19019304D4019A013D501B70
:1040E000411B0191A54200DB18E7C9E53268814612
:1040F000BB46974200D230E62DE63B1C5F469B460E
:1041000085E62A1C251C141CBB4500D97FE6F4E774
:104110003168051C57468A4500D2B4E6B2E6221C37
:104120002C1C151C574500D9BBE60BE049460191F4
:104130008146CCE50198231C5C469B46814500D90D
:10414000C5E5F3E75346BA461F1CAAE63B1C5F468B
:104150009B460FE6049930682C1C8B46814200D2A6
:1041600048E645E6211C4C468946BB4500D901E698
:10417000ECE7C046F0B547469846294B161C1A682E
:1041800080B4041C0F1C069D824200D8541E254892
:104190000168B94200D84F1EB24200D8561E4145B0
:1041A00001D801398846B44202D9231C341C1E1C94
:1041B000474502D93A1C4746904601F009F8391C98
:1041C000201C321C434600F0EBFE00F0D3FE4046BC
:1041D00001300136C71B311B4F43002F18D001237C
:1041E0007C1E1E1C281C264000F0B0FE002C0FD0A8
:1041F000002E04D0281C00F0A9FEBC1E06E0281CDE
:1042000000F0A4FE281C00F0A1FE023C002CF6D118
:1042100000F09AFE00F0D2FF04BC9046F0BDC0460C
:104220005010001058100010F0B54D4644465F463F
:104230005646F0B40D1CBE4983B000920A68071CB4
:104240001E1C0C9C88468146904201D3501E81461C
:10425000B849AA460B689D4201D3581E8246019771
:10426000974201D3013A0192B3469E4201D3013BEA
:104270009B46019A914502D8494601919146DA45FB
:1042800002D9D446DA46E34600F0A2FF514601982F
:104290004A465B4600F084FE00F06CFE5A465346E8
:1042A0000132D01A01994A460132531A43439A46C1
:1042B000002B28D0012042429146D1440123494697
:1042C0001940201C8B4600F041FE484600281AD0B9
:1042D0005A46002A09D0201C00F038FE0223594219
:1042E0008946D144484600280DD0AA46251C4C4694
:1042F000281C00F02BFE023C281C00F027FE002C9E
:10430000F6D12C1C554600F01FFE00F057FF434627
:104310001868411E0191874200D20197854AB34631
:1043200013689E4201D3591E8B46009A91468242E1
:1043300001D301388146B2469E4201D3013B9A46E1
:104340000198484502D9494601918146D34502D892
:10435000D446DA46E34600F03BFF514601984A4610
:104360005B4600F01DFE00F005FE58464A460199E6
:10437000534601300132C01A531A43439A46002B68
:1043800028D0012042429146D14401234946194098
:10439000201C8B4600F0DAFD484600281AD05A4609
:1043A000002A09D0201C00F0D1FD02235942894681
:1043B000D144484600280DD0AA46251C4C46281C4E
:1043C00000F0C4FD023C281C00F0C0FD002CF6D11A
:1043D0002C1C554600F0B8FD00F0F0FE434618686E
:1043E000009A411E8A46824200D29246514BAB4609
:1043F0001A68954201D3511E8B46009B9946834211
:1044000001D301388146964200D3561ECA4502D8D0
:10441000CC46D146E246B34502D95846B346061CBF
:1044200000F0D6FE4846331C5946524600F0B8FD0F
:1044300000F0A0FD5346013649465A460133B01AF2
:104440005E1A4643B146002E19D0013E0122324089
:10445000201C924600F07AFD002E10D05046002815
:1044600004D0201C00F072FD4E4605E0201C00F038
:104470006DFD201C00F06AFD023E002EF6D100F01A
:1044800063FD00F09BFE43461A68974200D3571E17
:1044900028492E1C0868854200D3461E009B934283
:1044A00001D3013A0092854200D3451E009A9742FB
:1044B00002D9391C0091171CAE4202D8281C351CA9
:1044C000061C00F085FE331C291C009A381C00F0E5
:1044D00067FD00F04FFD009B01360133751BDA1BB1
:1044E0005543002D18D001216E1E0F1C201C374093
:1044F00000F02CFD002E0FD0002F04D0201C00F067
:1045000025FDAE1E06E0201C00F020FD201C00F062
:104510001DFD023E002EF6D100F016FD00F04EFE0D
:1045200003B03CBC90469946A246AB46F0BDC0469F
:104530005010001058100010F0B54D465646444635
:104540005F46F0B41E1C784B914683B0041C0D1CD2
:104550001A68484500D19CE0B14200D199E09042F0
:1045600000D3541E714801688D4200D34D1E914501
:1045700001D3013A91468E4200D372E04F46731B3D
:1045800001223F1B0193924600D573E0019A01235B
:104590009B46002A00DA77E05300790088460093B2
:1045A00000F016FE221C291C2B1C201C00F0F8FC1D
:1045B00000F0E0FC0C9800F0C9FC00F0C5FC019A8A
:1045C00097422ADD009B5246DF1B16194C451BD033
:1045D0000C985446824600E0161C002F02DB414630
:1045E0005D447F1A009B321C291C301CFF182B1CB9
:1045F00000F0D6FC00F0BEFC504600F0A7FC00F036
:10460000A3FC3219B145E7D100F0D8FD03B03CBCA2
:1046100090469946A246AB46F0BD4046871AB54241
:10462000F2D00C9B311C5D4446469946884600E01A
:104630000D1C002F02DB009A5444BF1A291C221CB7
:104640002B1C201C00F0ACFC00F094FC484600F051
:104650007DFC00F079FC5846BF192918A845E7D120
:10466000D2E74E1E4F46731B01223F1B0193924619
:1046700000D48BE70120019A414201237F428A4600
:104680009B46002A00DB87E752425842019283464C
:1046900082E7944200D3541E244801688D4200D31F
:1046A0004D1E914501D3013A91468E4200D34E1ED4
:1046B0004C4502D9231C4C469946B5422FD800F0F0
:1046C00087FD331C0136291C751B4E460136201C04
:1046D000341B6C434A4600F063FC00F04BFC002C9A
:1046E0001AD00122671E151C0C983D4000F02EFCCC
:1046F000002F11D0002D05D00C98A71E00F026FC2D
:10470000002F09D00C9E301C00F020FC023F301C12
:1047100000F01CFC002FF6D100F016FC74E72F1CF3
:10472000351C3E1CCBE7C04650100010581000103E
:104730000F4B70B5041C18680D1C161CA04203D941
:104740000C490A68AA4200D870BD00F041FD291C3E
:10475000221C2B1C201C00F023FC00F00BFC301C46
:1047600000F0F4FB00F0F0FB00F028FDECE7C046A1
:10477000501000105810001038B5041C00F028FD2F
:10478000224B23481A680368013A013B00200021AC
:1047900000F006FC00F0EEFB9625AD01201C00F0B9
:1047A000D5FB201C00F0D2FB201C00F0CFFB201C0E
:1047B00000F0CCFB201C00F0C9FB201C00F0C6FB65
:1047C000201C00F0C3FB201C00F0C0FB201C00F0EC
:1047D000BDFB201C00F0BAFB201C00F0B7FB201C26
:1047E00000F0B4FB201C00F0B1FB201C00F0AEFB7D
:1047F000201C00F0ABFB023D201C00F0A7FB002DAD
:10480000CCD100F0A1FB00F0D9FC38BD5010001055
:1048100058100010014B18687047C0465410001023
:1048200008B5064B186000F007FC0204110C044B9D
:10483000044A000C1960106008BDC04654100010F6
:104840005810001050100010014B18687047C046F7
:1048500050100010014B18687047C04658100010E7
:1048600010B5064B0649074800241C6004600C6024
:1048700000F0E4FC201CFFF7D3FF10BD5010001027
:104880005410001058100010014B18687047C046B3
:104890006810001038B52648264B02681D689542FE
:1048A00037D0254B254C5A68056024681868624348
:1048B0006843811898680818996901F0EBFA204B51
:1048C000984224D81F4A10601F49086884420FD0BC
:1048D000194B0C60D9681A69694354435D694819DA
:1048E0000019996901F0D6FAEF280ED8174C20600C
:1048F000FFF790FF8723590088420DD0B4280DD0D0
:104900005A2810D0114D286838BDEF20EEE7181C4A
:10491000D8E70A490C68D7E70A4DF4E70B4BEF24B8
:104920001A68A01AF0E70748054C0268A01AEBE7DE
:10493000901000106C100010741000107010001017
:104940003F0100006010001094100010641000106F
:1049500038B52648264B02681D68954237D0254B4E
:10496000254C5A68056024681868624368438118BA
:1049700098680818996901F08DFA204B984224D85C
:104980001F4A10601F49086884420FD0194B0C6001
:10499000D9681A69694354435D69481900199969CE
:1049A00001F078FAEF280ED8174C2060FFF732FF9D
:1049B0008723590088420DD0B42810D05A2813D02C
:1049C0000F4D286838BDEF20EEE7181CD8E70A49DC
:1049D0000C68D7E70C4BEF241A68A01AF2E70848D6
:1049E000064C0268A01AEDE7074DEAE790100010A8
:1049F0006C10001074100010701000103F010000C7
:104A0000601000109410001064100010F0B55F46A4
:104A100056464D464446F0B40C690D68CB684F6964
:104A20008E6889B0021C281B49680390BC46D81BBD
:104A30000493331B0590069360460F1A059B8B4623
:104A40000698039978435943364B07970F1A9F618D
:104A50000120002F5FD0116810690F1A916802972A
:104A60000F1A0299059848438046079841467843B3
:104A7000081A1860039806997843029F79431769CA
:104A8000401A11686F4361435860781A049F116996
:104A90004743906871436043B946411A5F46906846
:104AA0007943176868437743381A6746784349441F
:104AB0000918996050685169D268471A0290501AD3
:104AC0008246059801977843079F804650464743A2
:104AD0004046C71BDF60039F504647430198B946D5
:104AE000069F47434846C71B1F61029F281C484337
:104AF000674371435443C71B0498641A594647439C
:104B00004C433C19029F55437E43751B66467543D3
:104B100062195A61002009B03CBC90469946A246F1
:104B2000AB46F0BD741000100048704774100010C0
:104B300010B5064C20606160E3600398029B049905
:104B4000A26023616061A16110BDC04674100010B5
:104B5000014B18687047C0465C100010014B186884
:104B60007047C04670100010014B18687047C0466F
:104B70006C100010F0B556465F464D464446F0B402
:104B8000B249B34CB34B0226802208681202E66792
:104B90009D588246B543B0489D501F58B7431F509B
:104BA000A6679D580126B5439D501F58B7431F5017
:104BB0008126A0206667C505AF588020BC46070146
:104BC00060463843A850802080012F5080256651D0
:104BD0009E58042426439E5000221A610B688020B0
:104BE0001C430C600F6845043D430D608C69974E73
:104BF000002CFBDA3168994A02240A403260B3691A
:104C0000356880222C43346031681F0453040B4301
:104C1000B80D336077698D49002FFBDA0E688F4D30
:104C20008F4F35400D604C692204930DDE19341A04
:104C3000C82C00D898E0864D8A4A022314609B460F
:104C4000AB678026834B32029E58012086439E50DC
:104C5000814E071C9859B8438027BC4698515F463F
:104C600060462F509F58B84640460427B843985096
:104C70009859B84398518126A0206E67B446C6055E
:104C8000B7588020B94607014846B8460743B75091
:104C90008027B801474637506646EE679D5858460C
:104CA0002843985000229A600F6808233B430B600A
:104CB0000E688025680430430860CF69634A002F7E
:104CC000FBDA1168654B68480B401360D6691768BA
:104CD000082139431160B50980231668054058043E
:104CE00030431060D7695949002FFBDA0A685B4EE0
:104CF00016400E60CB69002D04D05B4F98093840F8
:104D0000854237D05248514C91275346A0218022EA
:104D100023604767CC0511026658544D4E4A2E4019
:104D20006650A3581D404B4BA550C7675C580225E1
:104D3000AC435C509E58AE439E5087675E58012539
:104D4000AE435E509C58AC4380259C5047515F5801
:104D5000042087435F509958814399503CBC90464A
:104D60009946A246AB46F0BD3E49414D0020086041
:104D70002860C7E7364E022272679446A020802240
:104D80001202C705BB46394BBF5858461F408750D3
:104D9000314F9846C3594746181C2F4B38405F4641
:104DA000F8502C4B6746F7679858B8432A4F9850ED
:104DB000D859071C6046874327481F508127B7678B
:104DC000B9469F58012007439F5058604F468020A6
:104DD00037509F58042637439F5000221A610B68B2
:104DE00080271E430E6008687E0406430E608B69B0
:104DF000164A002BFBDA116818481B4B084010605C
:104E00009769116804200843BE09106017681E40A6
:104E1000802359043943116097690C48002FFBDA4D
:104E200002680E4B134003608169002E00D169E7D0
:104E30000D4F88093840864200D063E70D4A15605F
:104E40000D4D2E600A4E34605CE7C04600C0014044
:104E50000040044000000150FC3F000000FFFFF84C
:104E6000FF0300005C100010FE030000FFF7FFFFCF
:104E7000681000106C100010701000101D4A1E48C1
:104E800070B500231D4C136003601D491D4D1E4E5F
:104E90001E4A1F4823601F4C0B602B601360036089
:104EA00033609120A023802160670902DB055E58F2
:104EB000194D1A4A2E405E509E5835409D50184B51
:104EC000E0675E580225AE435E509E58AE439E504A
:104ED000A0675E580125AE435E509E580434AE4331
:104EE0009E50E0675C58042084435C50995881438D
:104EF000995070BD5C1000107010001094100010DC
:104F00006C10001090100010681000106410001059
:104F10006010001000400440FFF7FFFFFC3F00005E
:104F20000000015010B5074B8022FF2480201201A1
:104F30000021A4008000995019519850995019519E
:104F4000985010BD000002507047C04630B5084B65
:104F50008022FF2412010025010AA4009D5019514E
:104F60008021890099509D501851995030BDC046FC
:104F700000000250094B80228021520100200901CB
:104F800010B598505850FF202C2480001C508024CD
:104F9000A00058508021CC009C5010BD0000025051
:104FA000F0B556465F464D464446F0B49946214C0E
:104FB000944680258022FF232D0100269B008B46EE
:104FC00052012A278021A6506651E7508F00802188
:104FD000C90067518846A1505946090A6651E150F7
:104FE000594667516651E1504946090A6751665171
:104FF000E150494667516651E1502B216751A65057
:105000006651E15041466751A150020A6651E25093
:1050100067516651E0506046010A67516651E150A0
:1050200067516651E05067513CBC90469946A24694
:10503000AB46F0BD00000250F0B55F4656464D4607
:105040004446F0B483B01B2800D172E060D9B42884
:1050500062D08723590088426BD05A2800D174E06F
:10506000404C414E01200022EF2580469246A44646
:10507000A9460196C827BB463C4B802000218201EF
:1050800080248025FF27995066012A013620BD0023
:10509000802480279951A4009950FF005851584608
:1050A0009C509F51995058512A209C509951995089
:1050B000585150469C509F51995059519C5099506D
:1050C00059519C509950585148469C5099505851AC
:1050D0002B209C509951995058519C509F514646B5
:1050E000995059519C50995059519C5099505E512A
:1050F0009C50995001996046595180259C50AC01B3
:105100001A5103B03CBC90469946A246AB46F0BD4E
:1051100009281AD01228A3D1124F134901250026BD
:10512000EF231824A846B246BC4699460191A346EF
:10513000A2E70F4C0C4D00200122EF26804692463C
:10514000A446A9460196A82795E7094906480027DD
:105150000123EF226824B8469A468C468146019284
:10516000A34689E7F00040013F0100000000025023
:105170004001F000054B8022120100219950FF21CF
:1051800089005850802081009950704700000250DB
:10519000094B8022802110B55201002409019C5046
:1051A0005C50FF24A4001851802084005C508021B2
:1051B000C800985010BDC0460000025080218023D6
:1051C000024A0801990150507047C0460000025041
:1051D0008023024A002198011150704700000250BC
:1051E00010B5041CFFF7F4FF002C0AD12820FFF7AC
:1051F000CFFF1420FBF774FB1020FFF7C9FF7820C6
:1052000009E01120FFF7C4FF7820FBF769FB292094
:10521000FFF7BEFF1420FBF763FBFFF7CFFF10BDC6
:1052200010B5041CFFF7D4FF2020002C00D0212053
:10523000FFF7AEFFFFF7C2FF10BDC046F0B58021FB
:105240007E4D0C022B597E4A7E4F13432B51E85959
:105250007D4B0243EA511959202631431951DC593B
:1052600080223443DC51D700002489B0EC51142053
:10527000FBF736FB80204300EB517820FBF730FB37
:10528000FFF7A6FF2820FFF783FF1420FBF728FB7A
:10529000CF20FFF77DFF201CFFF76CFF8320FFF777
:1052A00069FF3020FFF766FFED20FFF771FF6420F4
:1052B000FFF760FF0320FFF75DFF1220FFF75AFFA3
:1052C0008120FFF757FFE820FFF762FF8520FFF7F7
:1052D00051FF0120FFF74EFF7920FFF74BFFCB2056
:1052E000FFF756FF3920FFF745FF2C20FFF742FF5D
:1052F000201CFFF73FFF3420FFF73CFF0220FFF7A1
:1053000039FFF720FFF744FF301CFFF733FFEA2097
:10531000FFF73EFF201CFFF72DFF201CFFF72AFFA1
:10532000C020FFF735FF2620FFF724FFC120FFF73D
:105330002FFF1120FFF71EFFC520FFF729FF3520A3
:10534000FFF718FF3E20FFF715FFC720FFF720FFEC
:10535000BE20FFF70FFFB120FFF71AFF201CFFF759
:1053600009FF1B20FFF706FFF220FFF711FF0820BF
:10537000FFF700FF2620FFF70BFF0120FFF7FAFEE3
:10538000E020FFF705FF314D6846291C0F2200F091
:1053900067FE2E1C6946085D0134FFF7EBFE0F2CFB
:1053A000F8D1E120FFF7F4FE04AF311C221C1031CC
:1053B000381C00F055FE0024385D0134FFF7DAFE9A
:1053C0000F2CF9D1B620FFF7E3FE0A20FFF7D2FE3B
:1053D0008220FFF7CFFE2720FFF7CCFE0020FFF74B
:1053E000C9FEB720FFF7D4FE0720FFF7C3FE3A201F
:1053F000FFF7CEFE5520FFF7BDFEFFF7DFFE0020D2
:10540000FFF71AFEFFF7E4FEFFF7B4FD9622550200
:10541000013DFFF787FD002DFAD11120FFF7B8FEFF
:105420007820FBF75DFA2920FFF7B2FE1420FBF786
:1054300057FAFFF7C3FE09B0F0BDC04600000250A6
:10544000FF0F0000FC3F00000000035068770000E1
:10545000044B05491A6888541F20013202401A6023
:105460007047C046CC180010A810001000B50449C1
:105470000222CB681A42FCD00149886000BDC046B8
:105480000000044000B5A023D9050A69002A06D10E
:10549000034920224B691A42FCD00149086000BD33
:1054A00000800040802210B5D4056368802B1DD099
:1054B0000FD9A82B26D0B82B11D0902B16D00020B6
:1054C000294908608021CB0504221A6008209861D0
:1054D00010BD602B01D0702BF1D10120F0E7224AE2
:1054E0001368022B2DD00420A06107E01E4C216818
:1054F000012918D080230422D80582618023082046
:10550000DB05E4E71949184A0220106008681849C9
:105510000B689842D6D0174AD05C0133A0601F2494
:1055200023400B60CEE7144A8024E305116813483A
:105530009C684454013149054C0D042114601960E4
:10554000DCE70A490A680A490B689A4206D009480A
:10555000C25C0133A2601F2423400B60802304211E
:10556000DB051960CAE7C0469C100010CC1800107B
:10557000A4100010A810001098100010C8100010FF
:1055800080210B4B8022080298508020C3056C219B
:1055900008489961084B0021016341635968022062
:1055A0008143596099582020814399507047C046E3
:1055B00000E100E00040044000800440F8B5564699
:1055C0004D465F464446F0B42B4B2C4E02253060CE
:1055D0001868284249D02A492A4C002280270A60AC
:1055E000B8468023211C180241440860A146264881
:1055F0008024E7056C23254CBB610263426362682B
:105600004146AA4362606358202293434146635057
:10561000A36F924601229B46026342630020FBF780
:1056200069F9594600F036FC194900F033FC7861FD
:105630000020FBF75FF9594600F02CFC144900F0FC
:1056400029FC38614046215853461943215062686D
:105650008020154365603668FF24750025400302ED
:1056600049464422FD600B603A603CBC9046994636
:10567000A246AB46F8BDC046A010001010000010B6
:105680009C10001000E100E0004004400080044055
:1056900000350C00F8B55F4656464D464446264B4D
:1056A000F0B40022254F802080251A60ED05244BA0
:1056B000802601026C24B951AC61224C1A635A63F2
:1056C0006268022082436260A259884620218A4390
:1056D000A2518146A06F01221A6383465A630020BB
:1056E0008A46FBF707F9594600F0D4FB164900F04B
:1056F000D1FB68610020FBF7FDF8594600F0CAFBBA
:10570000114900F0C7FB2861A35951460B43A3512F
:1057100066684846064366600C4CFF212268464690
:1057200053000B40EB603E6044272F603CBC90462A
:105730009946A246AB46F8BD9C10001000E100E07F
:10574000004004400080044000350C0010000010B0
:105750000D4B0321DA6930B50A4002D0186A0243C2
:105760001A620A4D084A2B68D468600709D5084CAC
:1057700004209168E154D16801335B055B0D084258
:10578000F7D12B6030BDC0460000044098100010D7
:10579000C810001080210F4B8022480398500E4BF8
:1057A00008215868014359605968022081435960B3
:1057B0000A4B10211120D961196659669866084B69
:1057C0000120596881435960985806490140995011
:1057D0007047C04600E100E0000004400040044083
:1057E00000800440FFF7FFFFF0B58022284B8020A7
:1057F0004F4651034646C0B41950264B08255C68F5
:10580000022725435D605E682349BE435E60234AEC
:1058100010241126CC610C664C668E6655680124F6
:10582000A5435560B94617581D4DBC462F1C65460B
:105830002F4017504F46CE610E664C668F665168FA
:10584000802521435160165829013143115094207D
:1058500014501F61C722042406271A605C605F6130
:10586000DE68344204D004259A68D9680D42FBD121
:10587000084B032018625C688027054D02227E03D6
:1058800022435A602E600CBC90469946F0BDC0463B
:1058900000E100E0000004400040044000800440BB
:1058A000FFF7FFFF00B5084B9A6819681007430F10
:1058B000022B07D1054B06481A6881540132510565
:1058C0004A0D1A6000BDC0460080004098100010CC
:1058D000C8100010134AA023DB0500B59858042116
:1058E000014399501B69002B11D10F49A8230120B6
:1058F000C8500E4B5A69104204D001201A685969E9
:105900000842FBD180230A489A03026000BD80222E
:10591000074B90038021044A58500020A821505082
:10592000F4E7C0461C8000000040044000800040B6
:1059300000E100E00B4A8021802308068021D0503E
:105940008803D050084A00215160084A1021A42041
:10595000D1611150A8201150054A0649D058014084
:10596000D150704700E100E000800040004004405A
:1059700000800440FFEFFFFF164B70B5C218041CF7
:105980001548824205D8154D15492E680C60F2075E
:1059900000D470BD134B98229E6F00209D58FAF7DB
:1059A000A9FF311C00F076FA291C00F073FA211CC3
:1059B000000900F06FFA0C4C8023E168FF22060A10
:1059C00019431040E16066602060E0689843E06041
:1059D000DFE7C04680DAFFFFC01C0F00A0100010F8
:1059E000080000100080044000800040F8B58022CC
:1059F0005F46564644464C4B4D468021F0B4100657
:105A000080248D031851494A1D51494D1023002609
:105A1000A4206E60B246D361A82613508446454840
:105A200093510159B346444E0E4006514349D36148
:105A3000A023DB055E580F1C04218E43DE51404F2E
:105A4000B846DF593E1C0E434746DE513D4EB04638
:105A50009E59371C0F4346469F513B4F5646B8460A
:105A6000DF5939434746D951112361465F465350A8
:105A7000D651025980235901114301239822334EF4
:105A8000015183503668324F3249F7198F4203D89B
:105A9000314F396819422BD1254C032501230727A3
:105AA000E56020266360A7606169214A0E42FBD051
:105AB0005069C60705D5141C0125226863691D427B
:105AC000FBD1A027FE053269002A07D1174C80259B
:105AD000154B0121A820AF0321501F6080261249D9
