:10000000E01F0010ED010000F5010000F701000005
:10001000F9010000FB010000FD01000056D4FFEFD4
:10002000000000000000000000000000FF010000D0
:10003000010200000000000003020000D9030000DC
:10004000070200000702000007020000070200008C
:10005000070200000702000007020000070200007C
:10006000070200000702000007020000070200006C
:1000700007020000090200000B02000055210000E9
:100080000F02000011020000130200001502000020
:1000900011230000192400000000000000000000EF
:1000A0001B0200001D0200001F02000000000000F3
:1000B0002102000023020000250200004524000068
:1000C0002F49072291438D462E492F480A1A06D000
:1000D0000722914381F30988022282F314882B4876
:1000E0002B492C4A00F039F82B482C492C4A00F0B7
:1000F00034F82C482C492D4A00F02FF82C482D4973
:100100002D4A00F02AF82D482D492E4A00F025F8F6
:100110002D482E492E4A00F020F82E482E49002264
:1001200000F026F82D482E49091A082903DB002281
:100130000260043001601F481F49884205D00268F0
:10014000043003B4904703BCF7E700208646EC4632
:1001500000200021234A9047FEE7884207D0521A28
:1001600005D0037801300B700131013AF9D17047A5
:10017000884202D002700130FAE770471A4870478F
:10018000E01F0010E01F0010E01F0010285E0000BC
:10019000000000102C0000103002000030020000AF
:1001A000EC510000285E000000000010000000106C
:1001B000EC510000EC510000EC510000EC5100004B
:1001C000EC510000EC510000EC510000EC5100003B
:1001D000285E00002C000010A4180010A4180010C5
:1001E000A41900104D110000FFFFFFFF0E480F493A
:1001F000016065E7FEE7FEE7FEE7FEE7FEE7FEE7F4
:10020000FEE7FEE7FEE7FEE7FEE7FEE7FEE7FEE7C6
:10021000FEE7FEE7FEE7FEE7FEE7FEE7FEE7FEE7B6
:10022000FEE7FEE7FEE7FEE7008004400200000074
:10023000094B421E01209A420DD8084B5A60084AC9
:10024000106A0102080AC021090601431162002058
:10025000072298601A607047FFFFFF0010E000E07F
:1002600000ED00E0F8B54F4B4F4C984217D006D840
:100270004E4988420CD04E4A904206D10BE04D4D7B
:10028000A8420FD04C4EB0420FD02060002704E0AF
:10029000206000270BE020604127002208E020605A
:1002A000412704E020604227F7E72060222701224F
:1002B00072B6424B8E2081005D58002A05D0202066
:1002C00085435D500021196202E00326B5435D506D
:1002D000C826C046013E002EFBD101251A645D648C
:1002E0005E645D64596C012634483142FAD0002FB7
:1002F00015D087608E27B90045588026B5434550F4
:10030000D96801202D4F0142FAD0032500263D6710
:1003100078677E6778675F6FF807FCD50DE0026746
:100320004667476746675D6F244FED07FBD58E2014
:1003300081007D58802635437D508E218D00002A16
:1003400002D05A59032001E05A59202002435A5141
:1003500025681B4E1B4BB54201D9022105E01A4FFF
:10036000BD4201D9012100E000210022D960281CF2
:100370001A61164903F0FAFF154E164B376801381B
:100380001F4000020743281CFA25A900376003F02C
:10039000EDFFFFF74DFFFF2002F006FA62B620687E
:1003A000F8BDC0460048E801040000100024F40035
:1003B00000366E0100512502006CDC020080044012
:1003C000FF59620200000140FF2C310100093D008D
:1003D00000C00140FF00FFFF024B1A6801321A60A3
:1003E0007047C0462C000010094A8121131C90332D
:1003F00010B51960074B002080241862210258585C
:1004000008242043585094320123136010BDC04685
:10041000004004400000015010B505283CD010D821
:1004200004287DD13F4A404C0223136021681020EC
:100430000143216023688021480418432060111C77
:100440001DE0072840D0FF286AD1364C374A812169
:1004500021608023082111628B40D0580124014380
:10046000D1503349304B0C60186820242043186069
:100470001C6880204004204318600C1C40E0236A64
:10048000294A002BFBDA14682A4820401060126ABF
:100490001304980D912231E0254C234B012121605A
:1004A0001A68202002431A601A6880214804104309
:1004B0001860211C5A6A1C4C002AFBDA20681D4B6C
:1004C00003402360626A16E01B4A174B012111604A
:1004D0001C68802004431C601C6880214804204361
:1004E0001860111CDC6A104A002CFBDA1068114BF2
:1004F00003401360D26A1404A00D90220A6010E039
:10050000586A09490028FBDA08680A4B03400B6067
:10051000496A8023236008040024800D146200E0EF
:10052000002010BD9040044000C001400000015078
:100530009440044000FFFFF898400440084B1A78AC
:1005400010431870074801788A0607D5064BA0208B
:100550001A78C105002A00D008220A627047C046F6
:10056000361000103000001035100010094B1A78BA
:10057000824309481A7001788A0609D5074BA020E2
:100580001A78C105002A01D1082300E000230B627C
:100590007047C046361000103000001035100010B3
:1005A000014B18687047C0462C000010034B1968B7
:1005B0001A68521A8242FBD37047C0462C000010C2
:1005C00038B5041C0B4D04D101235842A8616C605E
:1005D0000DE0C3B2642B00D96424E4B201202104ED
:1005E0006860081B642103F0A3FEC243AA61201CBB
:1005F00038BDC04600000140274AF8B5274E082301
:1006000013623168202421433160356880277B04E0
:100610002B433360151C341C626A204B002AFBDA22
:100620001E681F490E401E605F6A1E683A0420273C
:100630003E431E601F68802676043E431E60920D76
:100640000B1C676A1549002FFBDA0C68154F234015
:100650000B604E6A00232B623504A90D8A4213D128
:10066000C8246423A600B24203D80A23642A00D90E
:10067000D3083D785919CAB25408844201D83C7055
:1006800000E03870387803E03A78002A02D13870F8
:10069000FFF796FF3878F8BD0000015000C0014018
:1006A00000FFFFF83410001008B5002802D1034BFA
:1006B000186801E0FFF7D6FD08BDC0460400001031
:1006C00070B572B6294B12211A1CFC328E2051656E
:1006D00084001D59102001228543254E1D519A6723
:1006E0000433DE678021A023DC050B02E558214995
:1006F00004262E400D1CA435E650C86128604866CB
:10070000E65808253540E550C8621B488025C45886
:10071000AD001443C450002444601848C658354303
:10072000C55080231E0184511548212355428A63F8
:100730008460C46004610467446185614267C36387
:100740004260104A10491668301C03F00FFE0F4D2E
:100750000F490138000208602C60FA24A100301C07
:1007600003F004FEFFF764FD62B670BD0080044034
:100770005F210100004004400000035000000150D0
:10078000000001400400001000093D002C00001092
:1007900000C00140F0B593B0029318AB041C187868
:1007A0000091019219A91AAA1BAF0D7816883F88EB
:1007B000039003F0D9FB016842680A9181680B92AB
:1007C000C26805AB0C9101690D925D7342696D467B
:1007D0000E911F82DE81009F2E790C210F9280697D
:1007E0004A5D9C7108256C461E7307972E5D064F67
:1007F00010905A71181C0D21044A1E71059701F0C2
:10080000E9FA13B0F0BDC046EFBEADDE3400001013
:10081000F0B593B00591614A06A90B1C071C31CABB
:1008200031C331CA31C303F02FFD03F0C3FB03F022
:10083000AFFB002826D0059802F0A8FF0020019009
:1008400002900A200097011C554A012302F0D2F8B9
:1008500003F09EFBC82815D903F0ACFBF8E701F0C4
:1008600025FF002800D08DE0049902292BD9049B94
:10087000FF2B00D18BE006A80CA903F0F9FA0028A1
:1008800000D184E0059802F081FFB42002F0BCFFA3
:10089000444E454D002480212A1C02230802009664
:1008A00082210194029402F0A5F8201C02F0ACFF12
:1008B0008022100200960194029482212A1C0223B5
:1008C00002F098F80494049B06ADDC002E19285B16
:1008D000B1880F223B1C02F0D5F9295BB388081CB4
:1008E0000A3803398AB280B2191C009702F072FEEE
:1008F0002A5BB388D11C0A3288B292B2191C0097C5
:1009000002F068FEB3882A5B181C0A38033B81B2E8
:100910009BB2101C009702F05DFEB3882A5BD91CC5
:100920000A3389B29BB2101C009702F053FE03F009
:1009300041FB03F0E3F9002891D0F823285BB1884C
:100940001B02042202F0BAFBC8225000FFF72EFE61
:10095000285BB1880F22059B02F0B0FB03F024FB5B
:100960000CAD605103F01AFB049E2C190136606037
:10097000F0B2049003F00CFBC82800D86FE703F036
:1009800019FBF7E701F052FE002800D06CE703F0F6
:100990007BFC059802F0FAFE13B0F0BDEC510000AC
:1009A000045200001084000018520000F0B55A4CA8
:1009B00095B023782F226A4413700690079103F0B4
:1009C00063FCFFF711FD1220F82120700D020020BA
:1009D000FC26011C00956A22EF23F70002F068FA5A
:1009E0001F246A200021D422EF23009702F060FA2E
:1009F000D4200021494AEF230094002502F058FA40
:100A0000802318027321464A2B1C009501950295FC
:100A100001F0F0FF802210027D21424A2B1C00953C
:100A20000195029501F0E6FF8020E62100950195F1
:100A3000029500023C4A012301F0DCFF01212E1C3B
:100A40000A950995059103F0B5FA03F057F9374D6A
:100A5000089000282AD003F0B1F9041C03F054F9DF
:100A6000099B071C9C4202D10A9A90421AD0201C72
:100A7000391C0422069B02F021FB08982C490090A7
:100A8000221C231C0CA803F055FD0699079B01228C
:100A90000520009101930292011C0CAA002301F091
:100AA000A9FF0A9701276F60099401E0089F6F6012
:100AB000194C2078C20619D51E490B689A1B632A67
:100AC00014D964200E68FFF797FD1B49021C0CA87F
:100AD00003F030FD069F079C0120029000970194CF
:100AE00005200F210CAA002301F084FF01F0DEFD98
:100AF000002802D001F09AFD059005990029A2D1A5
:100B00006960079802F042FE2F236B44024D1A7869
:100B10002A7015B0F0BDC046300000103F01000043
:100B2000245200002A5200003852000000000350F6
:100B3000465200002C00001058520000F0B58BB057
:100B40000990081C0F1C069202F020FE069B6946C5
:100B5000D80007901C310A8802240592261C01F057
:100B6000A5FD002831D001F061FD051E0A2D05D03C
:100B70000D2803D0092808D1202506E0002E10D02A
:100B8000059EA419A4B202260BE0099B0120009344
:100B900002900197301C211C2A1C069B01F05CFE70
:100BA000061C02F05DFE864203D3059902266218F8
:100BB00094B2079BE018089002F058FE0899814211
:100BC00003DB381C02F0E2FD0224002DC7D1381CE3
:100BD00002F0DCFD0BB0F0BDF0B5A24E87B0019184
:100BE00031680490884732680290904733680590D6
:100BF0009847041C30688047051C01F017FD7F21D1
:100C0000071C8F43FAB2071C0F40039203F06EF8E3
:100C1000029B059918194B190138013B82B29BB20E
:100C2000029802F067FE02F04FFE022F07D0042F59
:100C30000AD0012F11D18C49019100210CE08A4A80
:100C400000200190049208E00198049A019B504012
:100C500043405840019381B20491844B0398196832
:100C60000291002800D0A2E065430B2F06D8082F80
:100C70003ED2013F032F00D96CE015E0182F69D157
:100C800089E001F013FD002816D001F0CFFC2E1CE6
:100C9000071C083E8024274209D00498013D02F039
:100CA000FFFD6408B54204D1002DEAD10CE00198A3
:100CB000F4E7002DEFD107E06C4E02993468FA2377
:100CC000621AD8008242EFD903F006F807B0F0BDEF
:100CD000092F1BD11C2101400322794310400A2611
:100CE0007043CB001843C3B2D8B202F0D9FD013D26
:100CF000002DE9D001F0DAFC002818D001F096FCB4
:100D0000082FE5D118260640152404E00A2F08D143
:100D100038260640092466430724204030438000DB
:100D2000E1E7FC210140CA00C3081343DCE74F4957
:100D3000029B0A68FA26D01AF400A042D8D9C3E769
:100D400001F0B4FC002808D03768B847C0B202F000
:100D5000A7FD013D002DF3D1B6E7444F0299386855
:100D6000FA23421ADC00A242F4D9ADE701F09EFC5E
:100D7000002813D001F05AFC01F058FCFC27061C97
:100D80003E40F000C4B201F051FCC1080C43E0B297
:100D900002F086FD013D002DE8D195E7334E029922
:100DA0003068FA23421ADC00A242F4D98CE7039A95
:100DB000802A00D088E765430B2F07D8082F70D210
:100DC0007C1E032C00D9D6E02F1C13E0182F00D076
:100DD000D1E004E1002F09D0039B2B4222D00498DC
:100DE000013F02F05DFD6D08B742F3D1013CE4B272
:100DF000002C19D1002F00D166E701F057FC002824
:100E000026D001F013FC051EAA2D10D101F00EFC16
:100E1000041E00D158E701F009FC03903E1C083E77
:100E20008025D9E70198DBE7002FF7D14CE73E1C7E
:100E3000083E8024254201D0049800E00198013F3B
:100E400002F02EFD6408B742D4D0002FF2D13BE768
:100E5000064D029B2E68FA20F11AC2009142C9D9B0
:100E600032E7C04618000010FFFF00002C00001001
:100E7000092F2FD11C23034003247B4320400A2148
:100E80004843DA000243D1B2CEB22C1C301C02F02F
:100E900007FD013C019B601B1918CAB2002A2AD128
:100EA000251C002D00D10FE701F000FC00284DD0DB
:100EB00001F0BCFBAA2821D101F0B8FB0190002869
:100EC00000D101E701F0B2FB082FD1D11822024076
:100ED000152604E00A2F08D1382202400926724361
:100EE0000726304010438200CDE7FC240440E10097
:100EF000C0080143C8E7002CC8D1D1E7082F03D1AF
:100F000018260640152310E0092F09D11C2404409F
:100F100003227C4310400A267043E100084309E0A5
:100F20000A2F09D13826064009235E4307231840BB
:100F300030438000C0B204E0FC210140CA00C00878
:100F40001043C0B202F0ACFC6C1EA9E73449029A0F
:100F50000868FA23861ADC00A64200D9B4E62C1CE5
:100F60009EE701F0A3FB002808D03768B847C0B25D
:100F700002F096FC013D002DF3D1A5E6284F029822
:100F80003C68FA23211ADA009142F4D99CE601F078
:100F90008DFB002839D030688047C1B2AA2924D1FE
:100FA00001F044FB071E00D18EE601F03FFB01F08B
:100FB0003DFBFC21021C0A40D300DCB201F036FBF1
:100FC000C0080443E1B201912C1C0198013C02F0DD
:100FD00067FC621BBB18D8B2002803D1251C002D6A
:100FE000D5D171E6002CF0D1F8E701F01FFBFC220F
:100FF000031C1340DF0001F019FBFCB2C0080443DE
:10100000E0B202F04DFC6C1EE8E7054C0299206846
:10101000FA23421ADF00BA4200D955E62C1CDDE75C
:101020002C000010F0B5474D8BB005922A6808914E
:10103000079090472B68061C041C98470990049061
:1010400001F0F4FAC143CFB2FD097F22071C17401B
:10105000781E06951D2800D90127059B0025AB4267
:1010600002D101F0E3FA051C80210A0296420CD15C
:1010700002F0F6FBFE006E4344087010231A9EB285
:1010800002F0EEFB8642A4413440099A8021080216
:1010900082420BD102F0EAFBBB004608F11A8EB285
:1010A00002F0E4FB8642804106400496264A059BF6
:1010B0001668002B39D1002D42D001F0F7FA002834
:1010C00016D001F0B3FA059002F0CAFB84420CD2AC
:1010D00007990898069A009101900292201C0499A1
:1010E000059A3B1C01F0B8FB041C013DEDB2E2E7A0
:1010F000154BFA221968D300881B9842DBD91FE0F0
:1011000001F094FA051E1BD002F0AAFB84420CD217
:1011100007990898069A009101900292201C049960
:101120002A1C3B1C01F098FB041C01F0BFFA0028AC
:10113000E6D1054DFA222968D300881B9842F4D9DC
:101140000BB0F0BD180000102C000010F0B58DB0F1
:10115000FFF7B6FAA44CA54B2168181C8D791968C5
:10116000A022D6053769002F33D002F085FB206816
:101170009F4E0168B1423CD09E4F9F48FFF794FAC2
:10118000381C002502F002FB0A209C4A011C0123A6
:1011900000950195029501F02DFC3220FFF710FA21
:1011A000FA239800FFF702FA281C391CFFF730FBDE
:1011B000962291010095019502950220202230236C
:1011C0000397FFF7E7FA281C391CFFF7EFFB02250E
:1011D0000FE003685A1A632AC7D880252A01B3583A
:1011E0000425002BBCD0864E75686B1E9D410135D1
:1011F000B6E72068834900794843FFF755FA824EE5
:101200003778BE0701D503F03FF82668776AB169E1
:101210007069F269336A0097B76A0197F66A0296B5
:1012200002F0A6FE2368DA890792188A059002F078
:10123000ADFA21684879FFF7C3F92768B86801F06B
:101240004BF92668307B01F055F82468607B01F08B
:1012500047FA281C002501F0A7FA09950A950B9575
:101260000895624B684F1C683A78D1060DD501F09D
:101270001DFA002809D10998644E211AB14204D9F7
:101280000898FFF7B9F9099408903B7802252B429A
:1012900015D00B9F0A98E21B824207D302F08AFE08
:1012A0000B94002802D0281CFFF748F901F0FEF942
:1012B000002802D10A270A97D3E732240A9401F0C2
:1012C000B5F90138862801D900F036FD03F078F829
:1012D0008700A200B000BC00C2001701470134051E
:1012E00034053405340534053405340534054E0120
:1012F0005A015D0162016701340534053405340586
:1013000034053405340534053405340534056C01E1
:10131000710176017C01810186018B0194019901A3
:101320009D01A101A301B001BA01C601DB01EA01DF
:10133000FF012302560277029102A502BE02D802E3
:10134000EC02050324033D035B037A039303B1031B
:10135000C203D003E103F20300041104260438049D
:101360004E04630472048804910494049804A10454
:10137000A404340534053405340534053405340536
:101380003405340534053405340534053405340595
:101390003405340534053405340534053405340585
:1013A0003405340534053405340534053405340575
:1013B0003405340534053405340534053405340565
:1013C0003405340534053405340534053405AB04DF
:1013D000B804BD04C004C504CF04E30423050C48CD
:1013E00001F016F900F0A8FC000000102C0000101D
:1013F000EFBEADDEFFFF0000006CDC0261520000BA
:10140000FC00015040420F0030000010F3010000CA
:10141000255200000898002802D13220FFF7D0F8AA
:1014200007980599FFF7C2FACB4E022034680EE008
:10143000CA4AC94914780B68201C984701F00AF978
:10144000201CFFF793F80CE7C34D33202C68A0470E
:1014500000F072FC01F0EAF80138062800D900E734
:1014600002F0B8FF0423282E33383F0001F096F92C
:10147000071C01F08DF9061C01F084F9B84A051C1F
:10148000B849106802F072FFC4B201F075F908990A
:10149000059B01900798009102900393381C311C22
:1014A0002A1C231CFFF776F9DBE601F0BFF801F0F8
:1014B0007BF9D6E6AC4B1C68A04701F00DF8D0E6EE
:1014C00001F0B4F800F016FFCBE601F0AFF801F040
:1014D00007F9C6E601F0AAF8A24D6843FFF7E4F861
:1014E000BFE601F0A3F8061C870701D502F0CCFE89
:1014F000F10601D5FEF778FF9C4F3E70B1E601F092
:1015000095F80138052800D9ABE6A026F50502F0CC
:1015100061FF030A1E13101B80263702E8590821B9
:101520000140E9519DE6286A8B4A431E98411468A0
:101530008DE78F490020087080273B02EC58082176
:101540000C43EC5029628CE6894C012323708022E5
:101550001602AF5908200743AF510021F2E701F00E
:1015600065F8844A1768FEF757FF2BE001F05EF834
:10157000FF2803D1784C0898246868E7FFF720F823
:1015800008906EE602F078F96BE601F04FF802F091
:101590008DFA66E601F04AF802F088FB61E601F098
:1015A00045F802F075FB5CE601F040F802F02CF91A
:1015B00057E6704B1F6802F053F903E06D4D2F683A
:1015C00002F054F9B847B7E301F030F802F04AFAF4
:1015D00047E6694E31688847079042E666480268E8
:1015E000904705903DE6079805990122FFF7A6FA76
:1015F000594F26203C682AE707980599FFF7ECFA2F
:101600002FE65D4D2B68984700E0079802F0BEF882
:1016100027E60598FAE7584F386880473A68041C6F
:1016200090473968061C8847311C021C201C12E0B8
:10163000514C2668B0472368051C9847079A011C3F
:10164000281C08E04C4C226890472168071C8847FA
:10165000059A011C381C02F079F802E6464C27680E
:10166000B8472668071CB04725680490A847236838
:10167000061C9847051C2068804704990090321C7E
:10168000381C2B1C20E03C4C23689847071C206822
:1016900080472268061C90472168051C8847079CE4
:1016A000031C0DE0344C23689847071C20688047D2
:1016B0002268061C90472168051C8847059C031C6E
:1016C0000094381C311C2A1C01F084FFC9E52A4F04
:1016D0003A689047069000F0A9FF3968041C8847D3
:1016E0003B6804909847051C002C00D1B9E5224EB8
:1016F000013C306880473268071C90470699061CF9
:1017000000910498291C3A1C331C01F063FFA4B219
:101710000497351CE8E700F089FF174F041C386870
:1017200080473A6804909047051C002C00D198E54A
:10173000114E013C316888473368071C9847061CE6
:101740000798291C00903A1C0498331C01F042FFB2
:10175000A4B20497351CE8E72000001036100010F2
:101760000400001040420F00240000103000001060
:1017700035100010140000101800001000F056FF83
:10178000EE4D041C286880472E680490B047051C65
:10179000002C00D165E5E94E013C32689047316884
:1017A000071C8847059B061C0093291C04983A1CBB
:1017B000331C01F00FFFA4B20497351CE8E7DF4C9F
:1017C0002568A8472668051CB0472268061C904774
:1017D0002368071C9847216804908847EC19049FE8
:1017E000013CF319013B0090A2B29BB2281C311CB2
:1017F00029E0D24C2668B0472268061C904727682B
:10180000051CB8472368071C9847F11928180138A8
:10181000013983B28AB2079812E0C84C2568A847FC
:101820002268061C9047051C206880472368071C17
:101830009847F1192C180139013C05988AB2A3B2D6
:101840000090291C301C01F0A1FE0AE5BB4C266863
:10185000B0472268051C90472768061CB847071C3C
:1018600020688047236804909847049CE919371939
:101870000139013F8AB20090BBB2281C311C29E01B
:10188000AE4C2668B0472568061CA8472268051C90
:101890009047071C20688047F3192918013B01393C
:1018A0009AB2079C8BB212E0A44C2668B047256818
:1018B000061CA8472268051C9047071C2068804723
:1018C000F3192918013B0139059C9AB28BB2009497
:1018D000301C291C01F0ECFAC3E4984C2668B04790
:1018E0002568061CA8472268051C90472368071C2A
:1018F0009847049020688047216806908847F4192B
:10190000049F0699EB19013C013B00910190A2B2A2
:101910009BB2301C291C33E0884C2568A8472268FC
:10192000051C90472168061C88472368071C9847B8
:101930000490206880470499EC197718013C013F16
:101940000090A2B2BBB2079817E07C4C2668B04763
:101950002268051C9047061C206880472368071CE6
:101960009847216804908847EC19049F013CF319BB
:10197000013B00900598A2B29BB20190311C281C3B
:1019800001F002FC6DE46D4C2668B0472568061C2A
:10199000A8472268051C9047071C206880472168DB
:1019A00004908847236806909847F419049F013CE7
:1019B000A2B2E919069C01398BB201900094301C47
:1019C000291C33E05D4C2568A8472268051C904718
:1019D000061C206880472368071C984721680490EC
:1019E0008847EC19049F013CF319013BA2B29BB25A
:1019F0000090079917E0514C236898472268051C0E
:101A000090472768061CB8472168071C8847049040
:101A100020688047049BEC19F718013C013F0599A9
:101A2000A2B2BBB200900191281C311C01F086FAD1
:101A300017E4424C226890472168071C88472568B4
:101A4000061CA847051C20688047311C031C2A1C63
:101A5000381C1AE0394C2568A847061C20688047C6
:101A60002368071C9847391C021C079B301C0CE09C
:101A7000324C236898472268071C90472168061C4F
:101A80008847059B021C311C381C01F0FBF8FFF74E
:101A9000E8FB2A4C226890472168071C8847256884
:101AA000061CA847051C20688047311C031C2A1C03
:101AB000381C1AE0214C2568A847061C206880477E
:101AC0002368071C9847391C021C079B301C0CE03C
:101AD0001A4C236898472268061C90472168071C07
:101AE0008847059B021C391C301C01F0E7FAFFF700
:101AF000B8FB124C2768B8472668071CB047256812
:101B00000490A8472168061C8847051C2068804768
:101B100004990090321C381C2B1C23E0074C2168D0
:101B20008847071C206880472368061C984722685E
:101B3000051C9047079C031C10E0C04618000010CD
:101B40007F4C21688847071C206880472368061C53
:101B500098472268051C9047059C031C0094381C7C
:101B6000311C2A1C00F092FFFFF77BFB744C2768A6
:101B7000B8472568071CA847049020688047236859
:101B8000061C98472268051C904704990090321C57
:101B9000381C2B1C20E06A4C236898472668071CD9
:101BA000B0472268061C90472168051C8847031C23
:101BB00007980DE0624C236898472668071CB047D9
:101BC0002268061C90472168051C8847031C05985D
:101BD0000090311C381C2A1C01F02AFCFFF741FB45
:101BE000574F39688847051C38688047011C281CF6
:101BF00004E00798059901E00598079900220EE096
:101C00004F4C236898472268061C9047011C301CE3
:101C100004E00798059901E0059807990122FFF76C
:101C200001FAFFF71EFB474E356802F0C7F8A847D8
:101C3000376802F069F8B847346802F05FF828E0C6
:101C40004048046802F0BAF823E03E490C681EE000
:101C50003C4A146802F09CF91BE002F04FF800289F
:101C60000FD102F0A7F90520FEF7A0FCF5E702F07E
:101C70008FF9002805D002F09DF90520FEF796FCAB
:101C8000F5E7304E376802F099F8B847346802F04B
:101C90003BF8A0474DE002F07BF9002805D102F0A7
:101CA00089F90520FEF782FCF5E702F087F8051CAC
:101CB00002F02AF8041C02F06BF9002805D002F0AB
:101CC00079F90520FEF772FCF5E702F077F8071CBA
:101CD00002F01AF8BD4203D9EA1B0121132A07DCDE
:101CE000BD4201D3002103E07D1B132DFADD02214B
:101CF000844204D9261A132E01DD042405E084420F
:101D000004D2001B132801DD082421430E4BC8B266
:101D10001F68B8470DE00899002902D13220FEF76C
:101D20004FFC07980599FEF773FD074E872033682F
:101D300098470220FEF71AFC00F08CFCFFF791FA9E
:101D400018000010140000102000001000B532230D
:101D50008BB00690079105A8059301A9024A904708
:101D600001980BB000BDC046F11FFF1F00B58BB03E
:101D7000332306900020059308920791FEF794FC08
:101D8000FA21890002F0F2FA01A90990024A05A895
:101D9000904701980BB000BDF11FFF1F00B5031C59
:101DA0008BB007208B4210D8342200200592069376
:101DB0000791FEF779FCFA21890002F0D7FA01A910
:101DC0000890034B05A8984701980BB000BDC0468A
:101DD000F11FFF1F38B5051C0B1C141C0120002926
:101DE0002FD072B6111CE022D20101CA01C180209D
:101DF00000028242F9D1F8210A01A01802CD013B6C
:101E000002C0002BFAD10720011CFFF79FFF00281A
:101E100001D0012014E00720011CFFF7BFFF0028BC
:101E2000F7D10720011CFFF791FF0028F1D1E02333
:101E3000211C8024D8016201FFF798FF431E9841BE
:101E400062B638BD044B05491A8888541F200132F8
:101E500002401A807047C046621800103F180010F8
:101E6000024BDA689107FBD5986070470000044088
:101E700038B5084C051C2368C0B29847280421686F
:101E8000000E88472A02100E23689847280E2568FE
:101E9000A84738BD2000001038B5074C051C236842
:101EA000C0B2984728042168000E88472A02100E05
:101EB0002568A84738BDC0462000001038B5044C3E
:101EC000051C2368C0B29847280A2168884738BD96
:101ED0002000001038B5084C051C2368000E9847F8
:101EE00028022168000E88472A04100E23689847AC
:101EF000E8B22568A84738BD2000001038B5074C67
:101F0000051C00022368000E98472904080E226869
:101F10009047E8B22568A84738BDC04620000010A9
:101F200038B5044C051C2368000A9847E8B22168BC
:101F3000884738BD20000010F0B5174B1A88174CA1
:101F400021888A42FBD016498D5C01325005460D2E
:101F50001E801A882788BA42FCD0885C0132560558
:101F6000720D1A801A88070220888242FCD08E5C8B
:101F700001325205500D188036043E431F882288D6
:101F80009742FCD0CC5D01377905480D18802006BA
:101F900028433043F0BDC0466018001038100010D0
:101FA0003B10001070B5114B1A88114C21888A42E1
:101FB000FBD010498D5C01325005460D1E801A88F9
:101FC00020888242FCD08E5C01325205500D188070
:101FD0001A88360220888242FCD08C5C013251057E
:101FE000200430434A0D28431A8070BD6018001049
:101FF000381000103B10001030B50C4B1A880C49FB
:1020000008880D1C8242FAD00A498C5C01325205C4
:10201000500D18801A8828888242FCD08D5C0132CD
:10202000510528024A0D20431A8030BD6018001067
:10203000381000103B10001030B5174B1A88174CA1
:1020400021888A42FBD016498D5C01325005420D31
:102050001A801A882D0620888242FCD0885C0132C2
:102060005205520D1A8000041A8828432588AA4276
:10207000FCD08D5C01325205520D1A802D021A8857
:1020800028432588AA42FCD08C5C013251054A0DB8
:1020900020431A8030BDC046601800103810001070
:1020A0003B10001030B5114B1A88114C21888A4220
:1020B000FBD010498D5C01325005420D1A801A8800
:1020C0002D0420888242FCD0885C01325205520DDA
:1020D0001A8000021A8828432588AA42FCD08C5C0A
:1020E000013251054A0D20431A8030BD601800109E
:1020F000381000103B10001030B50C4B1A880C49FA
:1021000008880D1C8242FAD00A498C5C01325205C3
:10211000500D18801A8820022C88A242FCD08D5CB9
:10212000013251054A0D28431A8030BD6018001055
:10213000381000103B100010A023D9050A69002AAE
:1021400004D1034B59698906FBD518607047C04616
:1021500000800040802010B5C4056368221C2E4911
:10216000802B0ED004D8602B09D0702B4DD106E007
:10217000A82B19D0B82B2CD0902B46D101E00120F0
:1021800044E00B78012B0CD1244A8024E30511880C
:1021900023489C684454013149054C0D14800422A5
:1021A0002AE0042090612BE0022008701D4A1E499D
:1021B00008881388984206D01C49C85C0133A06087
:1021C0001F24234013808022D005042101600822AF
:1021D00019E00A78022A11D11348124A018813889B
:1021E000994206D01148C15C0133A1601F242340ED
:1021F000138080230422DB051A6001E00421A16121
:1022000080230822D805826105E0002004240823E9
:1022100008701460936110BD3A100010381000105F
:102220003B1000103C180010621800103F180010FE
:1022300080220B4B10028022D8676C21D005094BFD
:1022400081610021084819635963426802239A4357
:1022500042600430C26F20218A43C2677047C04683
:1022600004E100E00040044000800440F8B51B4B4E
:102270001B4D00261E70FFF7DBFF1A480122AF6FCF
:1022800002634263301CFEF70FFA391C02F06EF84D
:10229000154902F06BF88024E4056061301CFEF7FC
:1022A00003FA391C02F062F80F4902F05FF82E1DA4
:1022B0002061F36F20210B43F3676F68022007430F
:1022C0006F600A4DFF232A788021560008481E407F
:1022D0000F024425E66007602560F8BD3A10001043
:1022E000008004400040044000350C001000001045
:1022F00000E100E008B5044B1870044801788A0733
:1023000001D5FFF7B3FF08BD100000103B18001007
:102310000B4A0323D16910B50B4002D0106A034366
:10232000136208490B88D468640707D50448846899
:102330000548C45401335B055B0DF4E70B8010BD09
:1023400000000440381000103B10001080220F4B9A
:102350005003D8670E48082142680A434260436828
:102360000222934343600B4810211123C16101668F
:10237000416683660848012142688A43426004300E
:10238000C36F064A1A40C2677047C04604E100E0C6
:10239000000004400040044000800440FFF7FFFFBD
:1023A00010B5FFF7D3FF164B1122DA6102211A662E
:1023B000144C01225A6699666068134B10436060A2
:1023C000DC6F802000012043D867104B06241A6080
:1023D0000F4BC722196104211A6059605C61D868EB
:1023E0000B4A400701D59268F9E70323136254684A
:1023F00002210C435460074B80225003186010BD2B
:102400000040044000800440048004409480044064
:102410000000044000E100E0074B9A6818681107CB
:102420004B0F022B07D1054B05491A8888540132FE
:102430005005420D1A80704700800040381000108F
:102440003B1000100E4AA023DB05995804200143DD
:1024500099501A690B4B002A0BD1012018600A4BC6
:102460005A69D10701D51B68F9E780218903074B19
:1024700004E08021064A8803D06700211960704774
:102480001C800000A84004400080004000E100E003
:1024900004E100E00B4B8022802110068A03D867FC
:1024A000DA67094A094B00205860111C1020D061DE
:1024B000074BA431A83208601060D86F054A02406B
:1024C000DA67704704E100E000400440008000400B
:1024D00004800440FFEFFFFF154B70B5C218041CC9
:1024E0001448824222D8144D14492E780C60F20709
:1024F0001CD5134B134A9E6F00201568FEF7D4F8C5
:10250000311C01F033FF291C01F030FF211C0009B0
:1025100001F02CFF0C4C8023E168060A1943C0B27D
:10252000E16066602060E2689A43E26070BDC04688
:1025300080DAFFFFC01C0F003B18001008000010DD
:1025400000800440988004400080004038B5FFF7C8
:10255000A1FF234B23491022A020DA61C40565584E
:1025600004229543204B6550E05820491043E05029
:1025700065581F4B15436550E0581E4D0243E2500D
:102580001D4A112414601D4C00212160EB6F802036
:1025900042011A431A49EA671A4B01250D6018686F
:1025A000FFF79AFF184B03200722D8605D609A60FE
:1025B0005D69A906FCD559690120014202D0124D7E
:1025C0002A68F8E7A023DA0515691049002D03D120
:1025D00020608024A003086080231A060A6038BDAA
:1025E00000400440048000000880000010800000CB
:1025F0001C80000004800440A4400440A840044023
:1026000098800440080000100080004000E100E0D5
:1026100010B5041C2078002804D0034B013419683D
:102620008847F7E710BDC04620000010064A13880F
:10263000064908888342FBD00549C85C01335B0525
:10264000590D11807047C0466018001038100010F6
:102650003B10001070B50F4B1878820718D5FDF7A6
:102660009FFF061C0C4D0D4C2A8821888A420FD0F2
:10267000FDF796FF831BFA2BF4D972B60849094E71
:1026800000200880308020802880074D287062B6A6
:1026900070BDC0463B180010621800103C180010B6
:1026A00060180010381000103A100010094B00207C
:1026B000197881420CD0084A084B12881B889A422C
:1026C00004D89A4204D2802001015218D31A98B239
:1026D0007047C0463B1800103810001060180010FA
:1026E000F0B51249124F134E134D144C144A154BAA
:1026F00000280CD138701448144F3060144E2F60ED
:102700002660144D144C0D601460144A0CE0012036
:102710003870134F3760134E2E60134D2560134CE5
:102720000C6013491160134A1A60F0BD14000010C8
:102730003E180010180000100C00001024000010BB
:10274000280000101C000010F9200000A520000047
:1027500039200000211F0000FD1E0000D51E0000D2
:10276000F91F0000A51F0000391F0000BD1E00005A
:10277000991E0000711E0000014B18787047C0467A
:102780003E180010014B18787047C046100000102A
:10279000014B18687047C04608000010014B1878BC
:1027A0007047C0463B18001038B5051CFFF752FFB4
:1027B0001E4C23789A0701D5FFF73AFD207842078F
:1027C00001D5FFF7C3FD2178CA0701D5FFF762FEE7
:1027D000174A1078FFF784FF164B00201880164A1E
:1027E000164B10801880164A164B10801870FF2D5B
:1027F00002D12578854217D01348012D0ED0042D23
:1028000006D0124A022121700260FFF72FFD0AE074
:102810000F4B25700360FFF7C3FD04E025700D4DDD
:102820000560FFF793FE207838BDC0463B180010C6
:102830003E18001060180010381000103C180010EE
:10284000621800103A10001020000010451E000011
:10285000611E000039210000F0B58FB0069314AB63
:1028600002911988069B151C15AA1488DA0016AE69
:1028700001901018377809910A9481B25A4C079147
:102880000B972688079FB74206DC029B5749D21850
:102890000C8890B2A04203DD0136B6B20196A0E0EA
:1028A0001F2D00D89DE0069E203D013EF7B2049703
:1028B00001F01CFA4E4BED00049CEA180392002C28
:1028C0002FD10398029B015D1D19AEB20491002522
:1028D0008027019A049853199AB2384208D0101CE4
:1028E000311C331C01F006F800F0EEFF09980AE0F5
:1028F0000B99002909D0101C311C331C00F0FAFF81
:1029000000F0E2FF0A9800F0CBFF01357F08082DA8
:10291000DFD10134082CD4D101F0DEF9079C0194F9
:102920005FE00398029C08300C90039906980E789B
:10293000019A039F049D0138C1B2AB1801370D966F
:10294000661803979DB2B7B28023161C082208911F
:10295000029205930D980599084223D0301C211C42
:102960002A1C3B1C00F0C6FF00F0AEFFA81B3E1B5C
:10297000411C01364E43B6B2002E04D0099800F037
:102980008FFF013EF7E76A1C089B059896B2029AF2
:1029900001335D194108013AADB205910292002A56
:1029A000D8D117E00B9A002AEDD0301C3B1C211C1B
:1029B0002A1CAE1B00F09EFF00F086FF731C3E1B1E
:1029C00001365E43B6B2002EDDD00A9800F068FFF3
:1029D000013EF7E7039F0C9E1C19A4B2B742A4D195
:1029E0009AE701980FB0F0BD641800106818001045
:1029F00071520000F0B589B01C1C0EAB0E1C19887A
:102A0000151C10AB0FAA0591178819780697079126
:102A1000002C00D1012480221702B84210D1194F96
:102A200038884308281C049301F0A6FDE1004143C7
:102A3000049A4808131A3F8899B2B9428041084065
:102A4000802213029E4218D10F4EA70031884A08F7
:102A5000D31B9FB28F42B6413E400EE00599069BC4
:102A6000079F00910193311C0297231CFFF7F4FE8E
:102A7000044A01351188814202D32A78002AEDD117
:102A800009B0F0BD6418001068180010F0B58DB0E2
:102A90000793089112AB51428DB2041C188803951C
:102AA0006E460C270290BB5F0798590001314143E5
:102AB000079E5B43484352437643C5180693520032
:102AC00077000023059004950A920B9701936846BE
:102AD0000C210D5E002D00DD8AE06B460C25EE5AC0
:102AE0009F88664BA01B089A85B21888B918099769
:102AF0008FB2A84212D9624A1188B9420ED901F0A8
:102B0000F5F8281C391C2A1C3B1C00F0F3FE00F0D1
:102B1000DBFE029800F0C4FE01F0DEF8574B3619D8
:102B20001888B6B2B04212D9554A1188B9420ED9A6
:102B300001F0DCF8301C391C321C3B1C00F0DAFEC2
:102B400000F0C2FE029800F0ABFE01F0C5F84B4A5F
:102B5000089F099B1188F81A87B2B14212D9484BD5
:102B60001888B8420ED901F0C1F8301C391C321C4B
:102B70003B1C00F0BFFE00F0A7FE029800F090FEA4
:102B800001F0AAF83D4E3288AA4212D93C490B887E
:102B9000BB420ED901F0AAF8281C391C2A1C3B1C88
:102BA00000F0A8FE00F090FE029800F079FE01F01F
:102BB00093F8049D05986F0087420ADB039E059BEE
:102BC0000B99049801365D18B2B246190392059527
:102BD0000496069A974200DD79E7019F0A990498C6
:102BE00055180137BBB246190193069504966EE756
:102BF00000256A460420165E079BAF199F423ADA09
:102C00001E4F3888A04218D9089A019901321C48F1
:102C10005618731902889EB2B2420ED901F066F8B6
:102C2000201C311C221C331C00F064FE00F04CFE02
:102C3000029800F035FE01F04FF83F88A74218D9FE
:102C40000899019B0E4ACE1A013E701B118887B26B
:102C5000B9420ED901F04AF8201C391C221C3B1C39
:102C600000F048FE00F030FE029800F019FE01F07E
:102C700033F80135BDE70DB0F0BDC0466418001053
:102C800068180010F0B58BB0019353420890099179
:102C900098B292B200210590049207916F466C465B
:102CA00010251C372E5F00217B5E9E4200DAF9E082
:102CB00068461022145A08991C230D1BAEB27A499B
:102CC000185A0296099A0D88029E0694141A0390C7
:102CD000A7B2B54212D9754B1888B8420ED901F087
:102CE00005F80298391C021C3B1C00F003FE00F0A2
:102CF000EBFD019800F0D4FD00F0EEFF089A039C74
:102D0000099E111B684A069B1488F01A8DB286B280
:102D1000AC4212D965490B88B3420ED900F0E6FFE8
:102D2000281C311C2A1C331C00F0E4FD00F0CCFDF3
:102D3000019800F0B5FD00F0CFFF0698089A5A49B7
:102D400084180B88A4B2A34212D958480288BA4208
:102D50000ED900F0CBFF201C391C221C3B1C00F0BC
:102D6000C9FD00F0B1FD019800F09AFD00F0B4FF3C
:102D7000039F08994C487B1802889FB2BA4212D927
:102D80004A490B88B3420ED900F0B0FF381C311C01
:102D90003A1C331C00F0AEFD00F096FD019800F0E7
:102DA0007FFD00F099FF4049039E09980B88321877
:102DB00096B2A34212D93D480288B2420ED900F021
:102DC00095FF201C311C221C331C00F093FD00F0E9
:102DD0007BFD019800F064FD00F07EFF3248069C08
:102DE0000999028863189CB2BA4212D92F490B88FC
:102DF000A3420ED900F07AFF381C211C3A1C231C78
:102E000000F078FD00F060FD019800F049FD00F051
:102E100063FF254F029A3888904212D923490B88C4
:102E2000B3420ED900F062FF0298311C021C331C21
:102E300000F060FD00F048FD019800F031FD00F069
:102E40004BFF194E3788AF4212D918480288A24268
:102E50000ED900F04BFF281C211C2A1C231C00F05B
:102E600049FD00F031FD019800F01AFD00F034FF3B
:102E7000039D059C6846291901354B199EB2B7B2CE
:102E8000059714300021425E002A07DB049D013DB6
:102E9000ACB26100731A9EB204940596079F013785
:102EA0000797FBE60BB0F0BD64180010681800101F
:102EB000F7B50E1C1F491C1C08AB071C151C1888F5
:102EC0000A880190974201D3571EBFB21A4B188847
:102ED000864201D3461EB6B2954201D3551EADB20D
:102EE000844201D3441EA4B2AF4203D96F407D4057
:102EF0006F40BFB2A64203D9664074406640B6B286
:102F000000F0F4FE311C2A1C381C231C00F0F2FCDB
:102F100000F0DAFCE91BA51B013101354D43002D02
:102F200004D0019800F0BCFC013DF8E700F0D4FEAD
:102F3000F7BDC0466418001068180010F0B58FB0D7
:102F4000151C14AA061C148815A807882A1B3019FA
:102F500003979446904200DBAEE00F190797079A5B
:102F60001F1B0697BA4200DBA6E06746BAB2039F72
:102F7000059280B2059A00970490FFF799FF1C23F1
:102F8000684618226946595A135A301C0993049A04
:102F9000099B664200970891A4B2FFF789FF2A1C9B
:102FA000099B009705980899B5B2FFF781FF07952F
:102FB000069400230B936F4618216A462C23C85FA2
:102FC0009E5EB04278DB6D461824615B049F2C2620
:102FD000781A775B089D82B2EC1B0A910399A6B21E
:102FE0000C92331C00910C98311C049AFFF760FF7F
:102FF0000498089D0A9CC21B93B2291B03988DB2AA
:103000000D93291C2B1C0090049A0D98FFF750FF7C
:103010000A9A059B0399D418A4B2201C331C009172
:10302000059A311CFFF744FF059A0398BE18B6B203
:10303000291C2B1C0090301CFFF73AFF099D0399B7
:103040007B199DB2201C2B1C0091059A291CFFF7AF
:103050002FFF0A9C099A039BA01884B2211C301CE4
:103060000093059A231CFFF723FF039E291C2B1CAA
:1030700000960C98049AFFF71BFF039D211C231C4C
:1030800000950D98049AFFF713FF07996B467A187D
:103090000137D719B8B284B207941C26F55E002D0B
:1030A00007DB069901398AB25700C01B84B2069229
:1030B00007940B9B01337DE70FB0F0BDF0B5544290
:1030C00089B005900691A0B292B2002107930390B7
:1030D000029204916F466B4608251037EE5E002180
:1030E0007C5EA6424EDB684608221024245A155AFC
:1030F000059906984B1B22186E1807999FB2B6B215
:1031000093B2381C321C0091191CFFF7D1FE069BAC
:10311000079A181B83B2191C381C0092321CFFF747
:10312000C7FE059E069B371BA119E818079A8EB2A9
:1031300083B2BFB2381C191C0092321CFFF7B8FED4
:10314000069907984D1BABB2191C321C0090381C15
:10315000FFF7AEFE039F6946E61901343419A5B2A4
:10316000ABB203930C22505E002807DB029F013FA5
:10317000BEB274002D1BABB20296039304990131C9
:103180000491A7E709B0F0BDF0B58FB01F1C14ABD8
:1031900084461C8815A8161C0D1C6246018813194C
:1031A000301B039104930590834200DB39E1291918
:1031B0003B1B994200DB34E18AB298B20399099033
:1031C000089260460091099B111C6246FFF770FE51
:1031D0006B461022D05A694614235A5A03993B1C55
:1031E0000091391C0A900B92FFF762FE039F301C7E
:1031F000321C0899099B0097FFF75AFE039E0A9814
:10320000291C0B9A2B1C00966542FFF751FEA4B2B5
:10321000AAB20020079206940D906E4618216B46C4
:103220003436CF5E0021755EAF4200DAF9E06C46BD
:103230001822105B0A9B3425191A8FB27A4B2C5B2B
:103240000497089A1988049F0C90101B059486B265
:10325000B94212D9754D2C88B4420ED900F046FD02
:103260000498311C021C331C00F044FB00F02CFBC2
:10327000039800F015FB00F02FFD0A9A05980C9DAD
:10328000131A694A089910884C1B9FB2A5B2B8421C
:1032900012D9664B1988A9420ED900F027FD381CB7
:1032A000291C3A1C2B1C00F025FB00F00DFB039899
:1032B00000F0F6FA00F010FD0C9C0B9A5A4BA01887
:1032C000198884B2A14212D9584A1088B0420ED946
:1032D00000F00CFD201C311C221C331C00F00AFBEA
:1032E00000F0F2FA039800F0DBFA00F0F5FC059E1E
:1032F0000B9B4D4AF11810888EB2B04212D94B4B3D
:103300001988A9420ED900F0F1FC301C291C321C8E
:103310002B1C00F0EFFA00F0D7FA039800F0C0FA87
:1033200000F0DAFC404B059D099A1988A81885B26F
:10333000A14212D93D4A1088A8420ED900F0D6FC0D
:10334000201C291C221C2B1C00F0D4FA00F0BCFA13
:10335000039800F0A5FA00F0BFFC334A0C9C099BCF
:103360001088E1188CB2B04212D9304B1988A142B2
:103370000ED900F0BBFC301C211C321C231C00F0B9
:10338000B9FA00F0A1FA039800F08AFA00F0A4FC60
:10339000254E04983288824212D9244B1988A942BA
:1033A0000ED900F0A3FC0498291C021C2B1C00F071
:1033B000A1FA00F089FA039800F072FA00F08CFC90
:1033C000194D2E88BE4212D9184A1088A0420ED933
:1033D00000F08CFC381C211C3A1C231C00F08AFADB
:1033E00000F072FA039800F05BFA00F075FC059F9C
:1033F000079C6A463B190137D9198DB2AEB20796C0
:103400001C320021505E002807DB069F013FBCB242
:103410006300E91A8DB2069407950D9E01360D964C
:10342000FBE60FB0F0BDC04664180010681800102D
:10343000F0B5544D8DB0039312AB041C2E88188840
:1034400006910790A11AB14200DB98E04E49069F11
:10345000039B0D88F81AA84200DB90E05642B6B2F2
:1034600037B27B00039801334343039952434943E6
:1034700058437F4352004D00002305970490C7191D
:103480000A920B95029330B2002835DCB5B2611B6D
:1034900088B22A196946082395B208905A5A0698A4
:1034A00009921118079A8BB2191C009208982A1CCD
:1034B000FFF7FEFC069B0998079A191A8BB2009237
:1034C000191C2A1C0898FFF7F3FC049B7D009D4201
:1034D00006DB04980B9901364218B6B20492BF1865
:1034E00005988542CFDC029D0A9901354218ABB29E
:1034F00002930592BF18C6E700256E460827BA5FFB
:103500000399AB188B423ADA1E4F3888A04218D97B
:10351000069E029A01361C48B318591902888EB2C9
:10352000B2420ED900F0E2FB201C311C221C331CDD
:1035300000F0E0F900F0C8F9079800F0B1F900F0E8
:10354000CBFB3F88A74218D9069B02990E4A5E1A08
:10355000013E701B138887B2BB420ED900F0C6FB38
:10356000201C391C221C3B1C00F0C4F900F0ACF9F3
:10357000079800F095F900F0AFFB0135BDE70DB0FD
:10358000F0BDC0466418001068180010F0B585B092
:103590001F1C0AAB1E88051C141C3B1C2A1C009611
:1035A0000391FFF785FC281C391C221C3B1C00964C
:1035B000FFF77EFC201C0399221C3B1C0096FFF7A2
:1035C00077FC03990096281C221C0B1CFFF770FC4B
:1035D00005B0F0BDF0B58DB01E1C12AB051C1888EF
:1035E0000C1C171C0590954201D0B14208D1059AD8
:1035F000281C0092211C3A1C331CFFF759FC9CE04C
:103600004F490A88954201D3551EADB24D4B1888DB
:10361000844201D3441EA4B2974201D3571EBFB2C5
:10362000864201D3461EB6B2791B8AB293B2301BD2
:10363000039383B2684699B20C3004910021415E35
:1036400001200690002904DA52423F4891B20391CA
:1036500006906A4610218A5E01200790002A04DA4B
:103660005B42394A99B2049107926B460C20C15AC9
:1036700068464A000A91102193B20A5A08935300EF
:1036800098B20B92099000F031FB211C2A1C231CDC
:10369000281C00F02FF900F017F9059800F000F948
:1036A00069460C226B461020525EC15E8A4220DDC4
:1036B000099E0A9AB31A9EB2BD4220D030B20028A9
:1036C00005DB0799089A6418B61AA4B2B6B2069B2D
:1036D0000998ED18ADB281192A1C281C231C8EB242
:1036E000211C00F007F900F0EFF8059800F0D8F879
:1036F000E2E7089F0B9ABB1A9FB2B44202D100F0D6
:10370000EBFA1AE038B2002805DB0699099A6D1821
:10371000BF1AADB2BFB2079B0898E418A4B2C11992
:103720002A1C281C231C8FB2211C00F0E3F800F097
:10373000CBF8059800F0B4F8DFE70DB0F0BDC04657
:103740006418001068180010FFFF00000D4B70B5E2
:10375000051C18880C1C161CA84212D90A490A8894
:10376000A2420ED900F0C2FA281C211C2A1C231CDC
:1037700000F0C0F800F0A8F8301C00F091F800F05C
:10378000ABFA70BD641800106818001038B5041C3E
:1037900000F0ACFA174B18481A880188013A00204B
:1037A00001398BB292B2011C00F0A4F800F08CF841
:1037B0009625AD01201C00F073F8201C00F070F875
:1037C000201C00F06DF8201C00F06AF8201C00F0AE
:1037D00067F8201C00F064F8013D201C00F060F840
:1037E000ADB2201C00F05CF8002DE3D100F074FABB
:1037F00038BDC0466418001068180010014B1888C6
:103800007047C0466618001008B5124B1B2815D02B
:1038100006D80E2812D012280ED0092808D109E0A7
:10382000B42809D087225100884207D05A2801D0F5
:10383000002205E05A2203E0B42201E08720420082
:103840001A80188800F098F8034B010C1880034880
:10385000018008BD66180010681800106418001078
:10386000014B18887047C04664180010014B188837
:103870007047C0466818001010B5064B0649074847
:1038800000241C8004800C8000F060F9201CFFF7ED
:10389000BBFF10BD641800106618001068180010F7
:1038A00030B5084B8022FF2412010025010AA40034
:1038B0009D5019518021890099509D50185199505F
:1038C00030BDC04600000250094B802280215201C9
:1038D0000020090110B598505850FF202C2480007A
:1038E0001C508024A00058508021CC009C5010BD5A
:1038F00000000250F0B585B00190029280271D4A69
:103900008020FF26009300010024B6007F012A25B5
:103910008023D451145095519D008023DB00155015
:103920009C46D3510B0A1450935115501450915189
:1039300015501450009B190A9151155061461450AE
:1039400093512B231550D451145093511550D151EC
:103950001450019F3B0A9351155014509751155024
:10396000145002990F0A9751155014509151155047
:1039700005B0F0BD00000250F0B585B0B4280AD003
:103980008723590088420DD05A280ED0C820F02233
:103990000390029203E01823F02103930291A022E6
:1039A000500008E0A825039501E068240394A026B0
:1039B00077000297F0202A4B80240021A501802760
:1039C000FF24802659513A01A500760136279951E6
:1039D000802499505F518027A400FF009C509F5184
:1039E0009950039F5F51471E9C50BFB20397029F9F
:1039F0000004013FBFB201972A27995199505F51A6
:103A00008027FF009C509F51995059519C509950CC
:103A100059519C509950019F3F0A5F519C509950B9
:103A2000019F5F512B279C50995199505F518027DE
:103A3000FF009C509F51995059519C509950595199
:103A40009C509950039F3E0A5E519C509950802192
:103A50005F518D019C505A51029B184305B0F0BD37
:103A60000000025070B5802280250F4B9101802606
:103A700000246A01FF255C503101AE008025AD00B5
:103A8000A04203D198505850202002E09C502120A1
:103A90005C50802498515D50E1009950802580222F
:103AA0001601A8011E5070BD00000250F8B5264C4A
:103AB0008023071C002298018025802622506D015A
:103AC000360197421CD1FF229300282180228020BA
:103AD0006751A751E1508100D300A15114206351D7
:103AE000FCF764FDFF20802267518100A7519300FD
:103AF00010276750A3518026F700675178201BE0FC
:103B0000FF2398000021112761518022A1512750E5
:103B100080279100FF00A15178206751FCF746FDF6
:103B20000023FF2263512920A3519100802360507C
:103B30009800A05167511420FCF738FD80258021A2
:103B400028018A01A050F8BD00000250F0B5A9B0CC
:103B500003AE4A499322301C00F002FD484C8021FC
:103B60000F02E359474A1343E351474BE0580243DE
:103B7000E250464A2020D5590543D551D1588027D7
:103B80000843FF000025D0501420E551FCF70EFD3E
:103B900080235A007820E251FCF708FD8020810143
:103BA0006550705D3F270135031CADB2BB43802BD0
:103BB0001FD0C02B33D0402B34D1384001902B1C68
:103BC000019AA81881B2994227D0802780217A01D2
:103BD00009010027F05CA7506750FF27BF00E051A4
:103BE00080208700675080210133C8009BB2A0501D
:103BF000E6E738402B1C2A1897B29F420DD080224E
:103C000012010021F75CA150FF2189006750802735
:103C10000133B9009BB2A150EDE71D1C02E0384012
:103C2000FCF7C4FC922DBCD98026802073010201D0
:103C30000021E150FF25A15080212C27AE008800F3
:103C4000A751A0508022D700E75096235E0280251E
:103C5000FF2080232F01002182009D00013EE151C1
:103C6000A150E551E151A150E5518E42EFD18024A0
:103C70000349A6018F5129B0F0BDC046715900001B
:103C800000000250FF0F0000FC3F00000000035046
:103C9000054B8022120100219950FF2189005850C4
:103CA000802081009950704700000250094B80220B
:103CB000802110B55201002409019C505C50FF2462
:103CC000A4001851802084005C508021C8009850C6
:103CD00010BDC0460000025080218023024A080126
:103CE000990150507047C046000002508023024A9C
:103CF000002198011150704700000250014B1888B4
:103D00007047C0467018001038B52448244B02880C
:103D10001C88244DA24212D0234B048059681A6893
:103D200028886243484310189A689969801800F0FF
:103D30001DFB1E4B984200D9181C1D4908801D48C8
:103D40002D880288AA4210D0174B0580D86860439E
:103D50001C69654341195D694819996900F006FBC2
:103D6000EF2800D9EF20144A1080FFF747FD872382
:103D70005C00A04201D10E480EE0B42803D10E4BE6
:103D8000EF221D8804E05A2805D10949074A0D8809
:103D9000541BA0B201E00848008838BD94180010F8
:103DA0007218001074180010781800103F010000FD
:103DB0006C180010961800106E18001038B52448C2
:103DC000244B02881C88244DA24212D0234B04802D
:103DD00059681A6828886243484310189A68996994
:103DE000801800F0C3FA1E4B984200D9181C1D49D8
:103DF00008801D482D880288AA4210D0174B0580E4
:103E0000D86860431C69654341195D69481999691F
:103E100000F0ACFAEF2800D9EF20144A1080FFF729
:103E2000EDFC87235C00A04203D1104BEF221D88DC
:103E300004E0B42805D10B49094A0D88541BA0B2EF
:103E400005E05A2801D1094800E00648008838BD3D
:103E500094180010721800107418001078180010D0
:103E60003F0100006C180010961800106E1800102A
:103E7000F0B5021C0F6908688BB04D69CE68C41B91
:103E8000844688684968059406964C1B761B049501
:103E9000059DC31B0793754363430396EE1A314B8D
:103EA0000290089109949E610120002E57D010685D
:103EB00011699468451A661A0998039C70436C430B
:103EC000241A1C600598079C464365431068751BBF
:103ED00066464E4378435D60351A966802987E4385
:103EE0004143069C711A6543089C966861436918B2
:103EF0001568041C604670436C43251A049C506886
:103F00006543491999605169D268461A0196019C26
:103F1000039E551A66430396099E039C6E43A61B97
:103F2000059CDE606543019E079C744366462D1B1D
:103F30003C1C4E434443341B029E57437143791A41
:103F4000674670437A431D61069D821A6C43089D43
:103F50000498694342436418A6185E6100200BB0C0
:103F6000F0BDC0467818001000487047781800105F
:103F700010B5064C20606160E3600398029B0499D1
:103F8000A26023616061A16110BDC0467818001075
:103F9000014B18887047C0466A180010014B1888FA
:103FA0007047C04674180010014B18887047C0460F
:103FB00072180010A749F0B5A74B02248020CC67E7
:103FC00000021A580127A2431A50A44A85B09D58EE
:103FD000A5439D508C671E588125BE431E509C589A
:103FE000A026BC439C504D67F40527588026360117
:103FF000374327508027BF01E651994C994FE56719
:104000001E5804252E431E50002018613C68BC46F3
:1040100025433D603E68802568043043386067462C
:10402000BC699048002CFADA06688F4D2E40066075
:10403000876906683C0402273E430660A50D80267A
:10404000046877043C43046060464669854C002E52
:10405000FADA2068844F3840206066693004834E65
:10406000870DB819451BAFB20297814EC82F00D8F3
:10407000C1E008256F46E85B3080022680208E670D
:10408000A8401F580125AF431F509E580227AE433A
:10409000734D9E50EF671E580427BE431E509D5817
:1040A0008126BD43A0279D504E67FD052E588027D1
:1040B0003F013E432E508026B601AF518125CD678A
:1040C0001F58022637431F50002098602768082594
:1040D0002F4327602668802047043E4326606446BD
:1040E000E5696048002DFADA06685F4F3E400660D9
:1040F000C469604E0768A509082435402743019527
:1041000007600568802677043D4305606046C56901
:10411000544C002DFADA2668534F019D3E4026602C
:10412000E069002D02D10024029469E08609514F14
:1041300001983E40B042F6D102258027A0264D6767
:104140003802F60537584C4D2F403750B7583D4090
:10415000B5500225CD671E58AE431E509F5801260C
:10416000AF4381259F508D671F5837431F503C4FE9
:104170005E60FD671E5804252E431E500020186106
:1041800027683D432560266880256804064326602D
:104190006446A7693348002FFADA0668324D354F76
:1041A0002E40066084690568042635430560A4092D
:1041B0003C40802507686E04374307606746BD6949
:1041C0002848002DFADA0768274E374007608069D3
:1041D000002CA8D0274F85093D40AC42A3D16D46A5
:1041E000AE882648264F0680082568463C802E5A11
:1041F000244C268004E02348002434800480029468
:104200009124A02780204C670002FD052F581A4EEC
:1042100037402F50AF583E40AE50CC671E58022555
:10422000AE431E509F58AF439F508C671D580121CD
:104230008D431D509F580A4D8F439F50EC671C586B
:1042400004218C431C50985888439850029805B01C
:10425000F0BDC0460040044000000150FC3F00009B
:104260000440044000C0014000FFFFF8FF030000CD
:104270006A180010FE030000FFF7FFFF721800101D
:1042800074180010701800101D4A1E4870B50023E5
:104290001D4C138003801D491D4D1E4E1E4A1F4894
:1042A00023801F4C0B802B80338013800380802160
:1042B0009120A02360670902DB055E58194D1A4A58
:1042C0002E405E509E5835409D50184BE0675E581A
:1042D0000225AE435E509E58AE439E50A0675E5886
:1042E0000125AE435E509E580434AE439E50E067B5
:1042F0005C58042084435C5099588143995070BDA8
:104300006A18001074180010961800107218001027
:1043100094180010701800106E1800106C1800101F
:1043200000400440FFF7FFFFFC3F00000000015089
:10433000CA1751408B1A17D0C1174A4004B44840DD
:10434000411A48081A0000E052008242FCD90020BD
:1043500000E05208914200D3891A40419A42F8D1B4
:1043600004BC5040801A7047002070470A000FD0EC
:104370000300400800E052008242FCD9002000E027
:104380005208934200D39B1A40418A42F8D17047A9
:10439000002070470A0010D00300400800E05200DF
:1043A0008242FCD9002000E05208934200D39B1ABD
:1043B00040418A42F8D11900704700207047C0463A
:1043C00003B47146490840004900095A49008E4427
:1043D00003BC704702B4714649084900095C4900B2
:1043E0008E4402BC7047C04608B5031C0278002A00
:1043F00006D041680878002805D00131596004E0F2
:104400004068804701E00123584208BD70B5041C94
:10441000806800280AD0236862685D1CAD1A6E1E91
:10442000B5416E423140934200D2C154E368002B43
:1044300006D020686268904202D2081C211C98476E
:1044400021680131216070BDF8B5151C4C1E15D4D2
:10445000C6B201231F1C2740101C311CFFF7D6FFDA
:10446000013C0CD20AE0281C311CFFF7CFFF013CB5
:10447000281C311CFFF7CAFF013CF4D2F8BD002F05
:10448000F1D0281C311CFFF7C1FF013CEBD2F5E74E
:1044900010B5C30606D42023840500D53023181C8C
:1044A000FFF7D2FF10BDC046031C413B002019227C
:1044B0009A4240417047C046031C613B00201922CC
:1044C0009A4240417047C046031C303B00200922FD
:1044D0009A4240417047C04638B5041C0D1CFFF796
:1044E000F3FF002802D0201C303811E0201CFFF719
:1044F000E3FF002802D0201C573809E0201CFFF7FA
:10450000D3FF002802D0201C373801E001204042B0
:10451000A84201DB0121484238BDC046021C093ACD
:104520000123042A03D9031C203B58424341181C91
:104530007047C0460EB400B586B007AA08CA0592F7
:104540000390002304930548029001A8079900F006
:104550001BF806B008BC03B01847C046FFFFFF7F3A
:104560008446002A05D00B78037001300131013AEE
:10457000F9D160467047C046411C02780130002ADC
:10458000FBD1401A7047C046F0B55F4656464D46CF
:104590004446F0B48BB00C1C05920023036099468E
:1045A000051C63E2252906D0281CFFF72FFF341CC9
:1045B0005CE2261C0BE010239A46202080468027D0
:1045C0003A029446802740212C1C4D46A346307861
:1045D000741C031C203BDAB2102A14D89300C64A7C
:1045E000D3589F460D43E4E73D43E2E76646354333
:1045F000DFE743461D43DCE752461543D9E78026F3
:10460000B0000543D5E75F46AB463D1C5A462A2815
:1046100005D0011C30394B4609290DD917E0059CFE
:10462000201D05902368002B03DA5B4210210A430A
:1046300093467078B41C0AE09E00F3185F0030388F
:104640003B1820780134021C303A092AF4D9DE43A1
:10465000F7173B400293CA462E2825D120782A28F6
:1046600005D00134031C303B092B08D917E005980D
:10467000021D059201688A46607802340CE04F46BC
:10468000BA00D1194E003038371820780134031C95
:10469000303B092BF4D9BA465646002E04DB80275E
:1046A0007B005A461A43934668280ED12078682822
:1046B00006D108275846384383466078023404E020
:1046C00001340426594631438B46782803D88300A9
:1046D0008A4AD658B7468A4F3E68002E00D1C5E1B7
:1046E0005146009105AA0192291C5A46029BB047E7
:1046F000BCE1281C2521FFF789FEB7E10598031DC1
:104700000593067802998A4601277A4292445846D0
:1047100051462A1CFFF7BCFE281C311CFFF776FE11
:10472000D8464046C00600D4A0E1202051462A1CAD
:10473000FFF78AFE9AE15846010706D50598021D43
:10474000059203682E681E7090E1059B1E1D05965C
:1047500019682F680F6089E10598011D05910668A9
:10476000002E00D1674E684F5B463B409846301C98
:10477000FFF702FF071C5A46D20502D5504500DD5F
:1047800057460298C11B8A4640462A1CFFF780FE06
:10479000002FC6D0B3467B1E01221A400292317808
:1047A000281CFFF733FE0136013F002F00D081E1C6
:1047B000B7E7A346FFE73178281CFFF727FE71789B
:1047C000281CFFF723FE0236023F002FF3D15C4680
:1047D000A7E7059E371D0597376859460B06DE1774
:1047E00023223240904680235E0031438B460821CD
:1047F0008A466FE080239E0159460E43090609D47C
:10480000B346C84609E0C84659460A0605D53F4F93
:10481000B84602E0B3463E4FB8465A46D20520D5C8
:10482000394B5E461E40B3461BE05F463A06D3173F
:1048300030261E40B046FB0513D5334F5A463A404A
:1048400093460EE0C8465B46DA050AD52E4A5E4618
:104850001640B34605E08021CF015A463A439346BD
:10486000C84659464B0419D5059B1A1D05921F6869
:104870005E46710701D53FB203E0320701D5FF2341
:104880001F40002F03DA7F422D2290461BE05A463C
:10489000910613D45E46720613D414E0059F3A1DA8
:1048A00005923F685B465B0702D53F043F0C0AE078
:1048B0005E46310707D5FF210F4004E02B239846C1
:1048C00001E0202188465E46F10506D50E495B468B
:1048D0000B409B465A46D30501D40126B2465838B0
:1048E000C0B2202865D882000A4B9E58B7464E4673
:1048F0000720002F33D15FE0245A0000685A0000DF
:1049000098180010D05C0000FFFDFFFF7830000019
:10491000583000004C5C00004E46002F28D14BE080
:10492000002F48D04E468022930159460B400F225B
:10493000684884460394002B06D0101C3840644617
:10494000205C07A9705405E0111C3940624C605C82
:1049500007A9705401363F09EDD1039C2CE0011CDE
:104960003940303107AAB1540136FF08F7D123E0AE
:10497000802319025846084003900494041C002C1C
:1049800007D003223240032A03D107AB2C219955CB
:104990000136381C0A21FFF7FDFC303107A881558C
:1049A0000136381C0A21FFF7E1FC071EE7D1049C01
:1049B00002E04E4600E04E465746BB1BDA43D7178F
:1049C0001F400298C11B8A1BFF234345804141427F
:1049D000521A4346591E8B41D01A824658468021AE
:1049E0008A00104204D151462A1CFFF751FDCA46E5
:1049F0004346FF2B03D9190A281CFFF707FD404641
:104A0000002803D0C1B2281CFFF700FD58465146CC
:104A10002A1CFFF73DFD3020391C2A1CFFF714FD2E
:104A2000013E1BD407AFBE196F461B37B91B0122CD
:104A30008A4390463178281CFFF7E8FC013EBE42CD
:104A40002DD10BE03178281CFFF7E0FC013E3178D6
:104A5000281CFFF7DBFC013EBE42F3D15846C106DD
:104A600004D5202051462A1CFFF7EEFC2178661C55
:104A7000002900D096E5281CAF68002F04D02A68D2
:104A80006C68A24200D2B954006801E0012670426D
:104A90000BB03CBC90469946A246AB46F0BD43469F
:104AA000002BCFD03178281CFFF7B0FC013EBE426E
:104AB000C8D1D3E70298002800D17AE65946497850
:104AC000281CFFF7A3FC0136013FA346002F00D0AE
:104AD00071E626E6145A0000045A000010B5041CC2
:104AE0000B78002B05D0431C05D04868013848607E
:104AF00001E089688847201C10BDC046F0B55F46BC
:104B000056464D464446F0B483B0814601919346E3
:104B10001F1C01235842824600E0A246544601343D
:104B20004846FFF761FC051CFFF7F8FC0028F4D1AC
:104B3000691C00D19DE0734E5A4616400C9900291D
:104B40003FDD120612D52B2D04D02D2D0BD1802444
:104B5000E5002E43544602344846FFF745FC051C49
:104B60000C9801380C900C9B002B2ADD302D28D19D
:104B70008022910031438A460C9D013D0C95601CBA
:104B800080464846FFF730FC051C0C9B002B15DDCA
:104B9000782801D0582811D1002F01D0102F6FD1C3
:104BA000594A1640B2460C9E013E0C960234A0466D
:104BB0004846FFF719FC051C102761E0002F5ED066
:104BC0005EE0002F00D10A270C9900292CDD0B197B
:104BD000009300229046802188008346E343009A98
:104BE0009918012008408246281C391CFFF774FCE4
:104BF000002850DA1AE05D462E4343467B43C01836
:104C000080460134A2464846FFF7EEFB051C391CDE
:104C1000FFF762FC002864DA08E0281C391CFFF763
:104C20005BFC0028E7DA01E000208046281C4946AA
:104C3000FFF754FFB2051FD5F30724D4019F38684E
:104C4000021D3A6001689025EB00371C1F409F420F
:104C500002D1404642429046F30602D543460B70CD
:104C600011E0330702D545460D800CE046460E6044
:104C700009E001214C4206E00224644203E00827D7
:104C800044465646A0E7201C03B03CBC90469946DB
:104C9000A246AB46F0BD5D462E4343467B43C21859
:104CA000904601344846FFF79FFB051C00998C4253
:104CB000BCD050460028B0D0281C391CFFF70CFC93
:104CC0000028B3DB5D462E4343467B43C218904623
:104CD00001344846FFF788FB051C00998C429CD1A3
:104CE000A4E75C46264342467A43811888465446E8
:104CF00001344846FFF778FB051C009B9C4200D01E
:104D00008BE793E7FFF9FFFFFFFDFFFFF0B55F467D
:104D100056464D464446F0B48BB080460D1C099271
:104D20000020049000210291CB4A934620239A460A
:104D300044460394A9464F4638784C46013400282F
:104D400000D1CAE1252837D0051CFFF7E7FB002872
:104D500019D020780134FFF7E1FB0028F9D1013C9C
:104D6000A146049D039E00E00135301CFFF73CFB8B
:104D7000071CFFF7D3FB0028F6D10495381C0399D4
:104D8000FFF7ACFED7E70398FFF72EFBA84204D14C
:104D9000049B01330493A146CDE7061C039881468A
:104DA000029C301C4946FFF799FE013600D094E181
:104DB000002C00D091E182E1797800252A2902D1E6
:104DC0004C460234012500270BE05F4500DD84E1FD
:104DD000BA00D0194100303E8F1900D57DE156460A
:104DE000354326780134301CFFF76EFB0028ECD1E8
:104DF000221C331C291C5046284200D1974F4C2BB3
:104E000004D11678541C44250D430CE0682B0AD1BC
:104E10001678682E04D110250D435678941C02E0B4
:104E2000541C08250D43321C253A532A00D954E15D
:104E300093008B49C85887460398FFF7D5FA252871
:104E400004D1049F01370497A14674E7061C039818
:104E50008446029C301C6146FFF740FE751C00D062
:104E60003BE1002C00D038E101214B42029334E1B8
:104E700053462B4200D101270121294088460025B5
:104E8000002903D1099D2E1D09962D68002F00D100
:104E900023E128DD0498C2199146049FFB434B444B
:104EA00001210E1C1E40013704970398FFF79CFA5E
:104EB000421C00D019E108E04646FFE7049F013795
:104EC0000398FFF791FA431C07D10298002800D0FD
:104ED00003E1012359420291FFE0002E00D024E1BA
:104EE0002870013521E1A1464446002C00D022E77C
:104EF000029D013502951EE780222A430097039800
:104F000009A90A23FFF7FAFD0590BEE080222A4393
:104F10000097039809A90023FFF7F0FD0590B4E07E
:104F2000A146EB0700D506E70998021D0992036820
:104F3000E80604D56C461020025D1A70FBE62A07CD
:104F400005D56F461021CE5B1E80A146F3E6049D79
:104F50001D60A146EFE680222A430097039809A925
:104F60000823FFF7CBFD05908FE01E262A1CB243D5
:104F70000097039809A91023FFF7C0FD059084E06E
:104F8000012672420592A046A946161C039D0136D1
:104F9000281CFFF729FA041CFFF7C0FA0028F6D1F5
:104FA0004D460596231C44469846321C01334ED08C
:104FB000012129400691089000D084E00998061D3F
:104FC0000996036808937EE0069C002C01D12E70A0
:104FD00001357C1C271C0398FFF706FA061C07986E
:104FE00084421ED0731C00D0CAE044460597B046E8
:104FF00008954D4620E0A946059F4646A046089DD7
:1050000004E0A946059F4646A046089D301CFFF7D0
:1050100085FA0028D8D044460597B04608954D46F5
:105020000AE044460597B04608954D4604E04446DC
:105030000597B04608954D4640460399FFF74EFD4B
:10504000069A002A21D10020089908701DE001234A
:105050005F42059719E0C046CCCCCC0CFFFFFF7F28
:10506000D85C000080222A430097039809A90A23EC
:10507000FFF744FD059008E080222A43009703983B
:1050800009A91023FFF73AFD0590059E002E09DAC5
:10509000029C059F781C20D1002C1ED10122554274
:1050A00002951AE001273D406A426A41029DA81814
:1050B00002900499059BCE180496A1463BE6012177
:1050C0004A42029209E0002FB6DDBF180797059A01
:1050D000D143C819C1078ED539E002980BB03CBC4A
:1050E00090469946A246AB46F0BD4246002A01D101
:1050F000287001350498484500D1F4E6002E00D10F
:10510000DAE6071C013704970398FFF76DF9411C95
:1051100000D1DAE64346002B01D12870013504990D
:105120004646494500D0C9E6DDE6013704970398B5
:10513000FFF75AF9411C00D1C7E6002E01D12870B3
:105140000135049A4A4500D0B8E6B046CBE6404661
:10515000FFF7E4F9002800D06EE7069E002E04D188
:105160004346089F3B7001370897059A0132059224
:105170000398FFF739F98046431C00D041E75BE70D
:10518000301CFFF7CBF9002800D050E7069B002B1E
:1051900001D12E700135671C0398FFF725F9061C15
:1051A000411C00D032E744460597804608954D469D
:1051B00042E7C04638B5041C0D1C00F013F8074B3D
:1051C0001D608020044306490C600A1C1468002CF2
:1051D000FCD100F009F8014D286838BD9C1800107A
:0C51E000A01800107047C0467047C04681
:1051EC0014000000140000002C01000078000000E6
:1051FC00A0000000DC00000052656C656173652046
:10520C00546F75636870616E656C2E0043616C69D8
:10521C0062726174696F6E0076302E303500284AE8
:10522C00616E202032203230313429007761747461
:10523C0065726F74742E636F6D005825303369205E
:10524C005925303369205A25303369004C4452209B
:10525C0025303369004E6F20636F6E66696720647A
:10526C006174612E000000000000000000307878AE
:10527C0030300030006C6C6C00000000006C6CFE78
:10528C006CFE6C6C00307CC0780CF8300000C6CC26
:10529C00183066C600386C3876DCCC76006060C09E
:1052AC00000000000018306060603018006030189A
:1052BC00181830600000663CFF3C6600000030307F
:1052CC00FC30300000000000000070306000000076
:1052DC00FC000000000000000000303000060C183C
:1052EC003060C0800078CCDCFCECCC780030F03046
:1052FC00303030FC0078CC0C3860CCFC0078CC0C16
:10530C00380CCC78001C3C6CCCFE0C0C00FCC0F8AF
:10531C000C0CCC78003860C0F8CCCC7800FCCC0CF1
:10532C00183060600078CCCC78CCCC780078CCCCC1
:10533C007C0C187000000030300030300000003061
:10534C003000703060183060C0603018000000FC15
:10535C0000FC0000006030180C1830600078CC0C99
:10536C0018300030007CC6DEDEDEC078003078CC31
:10537C00CCFCCCCC00FC66667C6666FC003C66C053
:10538C00C0C0663C00FC6C6666666CFC00FE626825
:10539C00786862FE00FE6268786860F0003C66C067
:1053AC00C0CE663E00CCCCCCFCCCCCCC0078303023
:1053BC0030303078001E0C0C0CCCCC7800E6666CCF
:1053CC00786C66E600F06060606266FE00C6EEFE19
:1053DC00D6C6C6C600C6E6F6DECEC6C600386CC655
:1053EC00C6C66C3800FC66667C6060F00078CCCC7D
:1053FC00CCDC781C00FC66667C786CE60078CCE033
:10540C00381CCC7800FCB4303030307800CCCCCCAC
:10541C00CCCCCCFC00CCCCCCCCCC783000C6C6C62A
:10542C00D6FEEEC600C6C66C386CC6C600CCCCCC5C
:10543C007830307800FECC983062C6FE0078606020
:10544C006060607800C06030180C06020078181894
:10545C00181818780010386CC60000000000000006
:10546C0000000000FF303018000000000000007841
:10547C000C7CCC7600E0607C666666BC0000007834
:10548C00CCC0CC78001C0C0C7CCCCC76000000780A
:10549C00CCFCC07800386C60F06060F000000076E6
:1054AC00CCCC7C0CF8E0606C766666E60030007064
:1054BC003030307800180078181818D870E0606612
:1054CC006C786CE60070303030303078000000ECD6
:1054DC00FED6C6C6000000F8CCCCCCCC00000078C0
:1054EC00CCCCCC78000000DC66667C60F0000076EA
:1054FC00CCCC7C0C1E0000D86C6C60F00000007CE6
:10550C00C0780CF80010307C30303418000000CC1F
:10551C00CCCCCC76000000CCCCCC7830000000C6D3
:10552C00C6D6FE6C000000C66C386CC6000000CC01
:10553C00CCCC7C0CF80000FC983064FC001C3030A7
:10554C00E030301C001818180018181800E0303023
:10555C001C3030E00076DC00000000000010386CDD
:10556C00C6C6C6FE0078CCC0C0CC78306000CC007B
:10557C00CCCCCC7E00183078CCFCC078007EC33C00
:10558C00063E663F00CC00780C7CCC7E0060307808
:10559C000C7CCC7E003C663C063E663F000078CC22
:1055AC00C0CC7830607EC33C667E603C00CC00781A
:1055BC00CCFCC07800603078CCFCC07800CC00709B
:1055CC0030303078007CC6381818183C00603070C9
:1055DC003030307800CC3078CCCCFCCC003048303B
:1055EC0078CCFCCC001830FC607860FC0000007FAC
:1055FC000C7FCC7F003E6CCCFECCCCCE0078CC00AB
:10560C0078CCCC780000CC0078CCCC780060300022
:10561C0078CCCC780078CC00CCCCCC7E0060300040
:10562C00CCCCCC7E0000CC00CCCCFC0CF8C6007CE6
:10563C00C6C6C67C00CC00CCCCCCCC780000007CA0
:10564C00CED6E67C00386C64F060E6FC003A6CCE9A
:10565C00D6E66CB8000000CC783078CC000E1B1865
:10566C007E1818D8701830780C7CCC7E00183070EE
:10567C0030303078000C180078CCCC78000C180046
:10568C00CCCCCC7E0076DC00F8CCCCCC0076DC002C
:10569C00ECFCDCCC003C6C6C3E007E00003C666696
:1056AC003C007E000030003060C0CC78003C5AA535
:1056BC00B9A9663C00000000FC0C0C0000E66C78FC
:1056CC007E63CE981FE66C787367CD9F030018003D
:1056DC0018183C3C18003366CC6633000000CC66CE
:1056EC003366CC0000228822882288228855AA554D
:1056FC00AA55AA55AADD77DD77DD77DD771818185E
:10570C00181818181818181818F81818180C183021
:10571C0078CCFCCC0078843078CCFCCC00C06030E9
:10572C0078CCFCCC003C42B9A1B9423C003636F6F0
:10573C0006F636363636363636363636360000FE11
:10574C0006F63636363636F606FE00000018187E9B
:10575C00C0C07E1818CCCC78FC30FC303000000077
:10576C0000F8181818181818181F00000018181826
:10577C0018FF00000000000000FF18181818181877
:10578C00181F18181800000000FF00000018181847
:10579C0018FF18181876DC780C7CCC7E0076DC3080
:1057AC0078CCFCCC00363637303F00000000003F90
:1057BC0030373636363636F700FF0000000000FF73
:1057CC0000F736363636363730373636360000FF89
:1057DC0000FF0000003636F700F73636360082FE42
:1057EC006C6CFE8200D870D80C3C6C3800FC6C667B
:1057FC00F6666CFC007884FC607860FC00CC00FCE5
:10580C00607860FC006030FC607860FC0000C04098
:10581C00E000000000183078303030780078847860
:10582C003030307800CC00783030307800181818D0
:10583C0018F8000000000000001F181818FFFFFFE8
:10584C00FFFFFFFFFF00000000FFFFFFFF1818180D
:10585C0000181818006030783030307800FFFFFFE7
:10586C00FF0000000018307CC6C6C67C000078CC57
:10587C00F8CCF8C0C07C827CC6C6C67C0030187CD4
:10588C00C6C6C67C0076DC0078CCCC780076DC7C96
:10589C00C6C6C67C0000666666667C60C000E078A2
:1058AC006C7860F000F0607C667C60F0001830CCA6
:1058BC00CCCCCC7800788400CCCCCC78006030CCCC
:1058CC00CCCCCC7800183000CCCCFC0CF81830CCFC
:1058DC00CC7830780000FC0000000000001830008C
:1058EC00000000000000000000FC0000003030FC54
:1058FC00303000FC00000000FC00FC0000E62C78BE
:10590C0033E7CD9F037FDBDB7B1B1B1B007EC37848
:10591C00CCCC788CF8303000FC003030000000002B
:10592C000000003060386C6C380000000000CC00C7
:10593C00000000000000000000180000003878187B
:10594C00187E0000000030383C3C383000006666A1
:10595C006666666600007E7E7E7E7E7E00000000AF
:10596C0000000000004128D441CF8300833041ED7A
:10597C00846403128141E88385017941CB85392CFC
:10598C0000340241F7812041EA82000041C08126A7
:10599C0041C1811141C582353E41C781BE41B182B1
:1059AC00001B41F281084126810141E08F1F1A182A
:1059BC000A0F064587320A070207050041E18F00EE
:1059CC0025270510093A784D05180D383A1F41B6B0
:1059DC00840A82270041B78107413A8155413681BB
:1059EC00C8412A8200008200EF412B820000820114
:1059FC003F4111FCFC4129D4303132333435363738
:105A0C003839616263646566303132333435363728
:105A1C003839414243444546E445000006460000FF
:105A2C0006460000E8450000064600000646000059
:105A3C0006460000EC450000064600000646000045
:105A4C0006460000F245000006460000F84500003E
:105A5C000646000006460000FE4500008C4A000089
:105A6C00D6460000D6460000D6460000D6460000BA
:105A7C00D6460000D6460000D6460000D6460000AA
:105A8C00D6460000D6460000D6460000D64600009A
:105A9C00D6460000D6460000D6460000D64600008A
:105AAC00D6460000D6460000D6460000D64600007A
:105ABC00D6460000D6460000D6460000D64600006A
:105ACC00D6460000D6460000D6460000D64600005A
