:10000000E01F00100B010000D5000000D700000029
:1000100000000000000000000000000000000000E0
:10002000000000000000000000000000D9000000F7
:100030000000000000000000DB000000992100002B
:10004000DF000000DF000000DF000000DF00000034
:10005000DF000000DF000000DF000000DF00000024
:10006000DF000000DF000000DF000000DF00000014
:10007000DF000000DF000000DF000000810500005D
:10008000DF000000DF000000DF000000DF000000F4
:100090003D0700004D0800000000000000000000C7
:1000A000DF000000DF000000DF00000000000000B3
:1000B000DF000000DF000000DF0000007D0800001E
:1000C000D05A0000000000102C0000002C0000108E
:1000D000401A0000FEE7FEE7FEE7FEE7FEE7FEE768
:1000E000002330B55D181C18934200D330BD24683E
:1000F00004332C60F6E7002310B51C001A188B425D
:1001000000D310BD14600433F8E710B50B4C0C4B52
:100110009C4205D30B4B9C4209D303F085FDFEE7BF
:10012000A26861682068FFF7DBFF0C34EFE76168C5
:100130002068FFF7E0FF0834ECE7C046C00000008D
:10014000CC000000D4000000322300B58BB0059332
:100150000690079105A8034B01A9984701980BB099
:1001600000BDC046F11FFF1F342300B58BB00690C1
:1001700000200593079102F00FFAFA21890005F09B
:1001800006F8044B089001A905A8984701980BB000
:1001900000BDC046F11FFF1F332300B58BB0069092
:1001A000002005930892079102F0F6F9FA218900E0
:1001B00004F0EDFF034B099001A905A898470198A9
:1001C0000BB000BDF11FFF1F70B50500140001202A
:1001D00000291ED072B61A4AE023A0188022DB0143
:1001E00012021E00366804331E509342F9D1F822E1
:1001F000002312018900A218E858D05004338B4222
:10020000FAD107210800FFF79FFF002802D0012044
:1002100062B670BD07210800FFF7A6FF0028F6D1DF
:1002200007210800FFF790FF0028F0D18022E0208E
:1002300021005201C001FFF7AFFF431E9841E7E7DD
:10024000FC8FFFFF044A10B51188044C4B1C60540E
:100250001F210B40138010BD5408001034080010FB
:100260000222034BD9681142FCD098607047C04607
:100270000000044070B50400074DC0B22B689847D9
:10028000200A2B68C0B29847200C2B68C0B2984750
:100290002B68200E984770BD2000001070B5040038
:1002A000064DC0B22B689847200A2B68C0B2984709
:1002B000200C2B68C0B2984770BDC04620000010CB
:1002C00070B50400034DC0B22B6898472B68200A14
:1002D000984770BD2000001070B50400074D000E57
:1002E0002B689847200C2B68C0B29847200A2B68CF
:1002F000C0B298472B68E0B2984770BD200000104C
:1003000070B50400064D000C2B68C0B29847200A57
:100310002B68C0B298472B68E0B2984770BDC046C2
:100320002000001070B50400034D000A2B689847A8
:100330002B68E0B2984770BD20000010194BF0B553
:100340001888194980B20A889042FCD0421C520594
:10035000164C520D1A80265C188880B20A8890428A
:10036000FCD0421C5205520D1A80275C1A883F02AD
:1003700092B208888242FCD0551C6D05A05C6D0DC0
:100380001D801A8800043843304392B20D88AA4277
:10039000FCD0511CA25C4905490D1206104319807E
:1003A000F0BDC04632080010300800102F000010C9
:1003B000134A70B51088134980B20B889842FCD05C
:1003C000431C5B05104E5B0D1380345C108880B2BB
:1003D0000B889842FCD0431C5B055B0D1380355C99
:1003E00013882D029BB208888342FCD0F05C591C14
:1003F000490500042843490D2043118070BDC046C3
:1004000032080010300800102F00001030B50D4CDD
:100410000D4D228892B22B889A42FCD0531C5B056A
:100420000A485B0D2380815C228892B22B889A4215
:10043000FCD0805C531C5B055B0D000208432380ED
:1004400030BDC04632080010300800102F000010E8
:10045000194BF0B51A88194F92B239888A42FCD0EC
:10046000511C4905164E490D1980B55C1C882D0696
:10047000A4B23A889442FCD0611C4905490D325D12
:100480001980188812042A4380B239888842FCD027
:10049000411C4905490D1980355C1C882D02A4B208
:1004A00039888C42FCD0305D611C4905490D1043F0
:1004B00028431980F0BDC0463208001030080010F3
:1004C0002F000010134B30B51988134D89B22A88BC
:1004D0009142FCD04A1C5205104C520D1A80605CAF
:1004E0001988000489B22A889142FCD04A1C52051E
:1004F000615C520D09021A800843198889B22A8862
:100500009142FCD04A1C5205615C520D08431A808E
:1005100030BDC04632080010300800102F00001017
:100520000D4930B50A880D4D92B22B889A42FCD005
:10053000531C5B050A4C5B0D0B80A05C0A88000213
:1005400092B22B889A42FCD0531C5B05A25C5B0DD7
:1005500010430B8030BDC046320800103008001038
:100560002F000010A023DB051B69002B05D12022E2
:10057000024B59691142FCD018607047008000405E
:100580008022D205536830B52E49A82B40D012D80E
:10059000802B28D00AD810208343602B08D1012358
:1005A0000B70033313600433936130BD902B1AD06A
:1005B00000230B703CE0B82BFAD10B78022B3DD115
:1005C000214B22491C880B8898B29C4206D0204CB3
:1005D000431C205C90601F2213400B808023042268
:1005E000DB051A600FE00B78012B27D18022194917
:1005F000D20508889568431C5B055B0D0B800423BE
:10060000154C2554136080230822DB059A61CCE742
:1006100002230B700C4B0D491C880B8898B29C422E
:1006200006D00B4C431C205C90601F2213400B80B3
:1006300080230422DB051A609218E7E70423936104
:10064000E1E7C0462E0000105408001056080010C4
:1006500034080010300800102F00001080220B4BCF
:100660001202DA6780236C22DB059A6100220221E4
:10067000074B1A635A63074B5A6804338A431A605C
:10068000DA6F1E318A43DA677047C04604E100E042
:100690000040044000800440F8B500271A4B1B4D71
:1006A0001F70FFF7DBFF0122194BAE6F38001A6392
:1006B0005A6301F071FF310004F069FD802415498F
:1006C00004F065FDE4056061380001F065FF31006C
:1006D00004F05DFD0F4904F05AFD202320612A1D1E
:1006E000D16F0B43D36702236A681343FF226B6009
:1006F000094B1B785B0013408022E360074B12021A
:100700001A6044232360F8BD2E00001000800440CE
:100710000040044000350C000000001000E100E043
:1007200010B5044B1870044B1B789B0701D5FFF7DD
:10073000B3FF10BD000000102D0000100D4A032172
:10074000D06970B503000B40084202D0116A0B4318
:10075000136204240848094D03889BB2D1682142E2
:1007600001D1038070BD9668591CEE544B055B0D9A
:10077000F4E7C04600000440300800102F000010CD
:1007800080220F4B5203DA6708220E4B59680A4346
:1007900002215A605A688A435A6010220A4B013972
:1007A000DA611A665A6601329A66084B5A6804334F
:1007B0008A431A60DA6F06490A40DA677047C04612
:1007C00004E100E0000004400040044000800440D8
:1007D000FFF7FFFF10B5FFF7D3FF11220221154BE2
:1007E0001548DA611A66103A5A66996643681343E7
:1007F0004360802311481B01C46F2343C367104B20
:100800001A60104BC63219611A600431C33A5A603B
:100810005961D96811420AD103221A625968013A12
:100820000A435A608022084B52031A6010BD99682F
:10083000EFE7C046004004400080044004800440CC
:10084000948004400000044000E100E0084A10B534
:10085000936814681B075B0F022B07D1054A0648F3
:1008600011884B1C5B055B0D4454138010BDC046C2
:1008700000800040300800102F000010A023042248
:100880000D49DB05585802435A501A690B4B002A90
:100890000CD101321A600A4B5969114204D18022ED
:1008A000084B92031A6070471968F5E78021064AE1
:1008B0008903D1670022F5E71C800000A8400440AE
:1008C0000080004000E100E004E100E080220B4BEA
:1008D0001206DA6780229203DA670022084B5A6018
:1008E000084B10321900DA61A431A8330A601A608B
:1008F000054A0649D36F0B40D367704704E100E017
:10090000008000400040044004800440FFEFFFFFEF
:10091000154B70B5C218154B04009A4222D8144BDF
:100920001860144B1B78DB071CD5134B00209E6FFF
:10093000124B1D6801F030FE310004F028FC290044
:1009400004F025FC2100000904F021FC80210C4B5F
:10095000DA680A43DA60020AC0B25A601860DA68DC
:100960008A43DA6070BDC04680DAFFFFC01C0F000A
:10097000040000102D000010008004409880044006
:100980000080004070B5FFF7A1FF1022224B2348E2
:10099000DA61A023DB0519580C3A9143195020481D
:1009A000204C19580125114319501F48195811435B
:1009B00019501E49585802435A5011221C4B1A60B4
:1009C0000023236080231B4A5B01D16F0B43D36755
:1009D000194B1D60194B1868FFF79AFF0322184B3B
:1009E000DA6004325D609A60193259691142FCD0B4
:1009F0000122596911420DD1A023DB051969114B60
:100A0000002903D12260802292031A6080221206FC
:100A10001A6070BD1968ECE70040044004800000D3
:100A200008800000A8400440108000001C800000E6
:100A3000A440044004800440988004400400001056
:100A40000080004000E100E010B50400207800289C
:100A500000D110BD024B01341B689847F6E7C04631
:100A600020000010064907480A8892B20388934282
:100A7000FCD0531C04485B055B0D805C0B80704709
:100A800032080010300800102F00001070B50F4B16
:100A90001B789B0718D501F051FD04000C4E0D4D3D
:100AA00032882B889A420FD001F048FD001BFA28AB
:100AB000F4D972B60023084A1380084A1380084A02
:100AC0002B801370338062B670BDC0462D000010BD
:100AD00054080010560800103208001030080010AA
:100AE0002E000010002010B50B4B1B78834209D05C
:100AF0000A4B0B4A1C881188A3B28AB28C4202D9D5
:100B00009B1A98B210BD9342FCD2802109015B1858
:100B1000981A80B2F6E7C0462D0000103008001089
:100B200032080010F0B51249124F134E134D144CF9
:100B3000144A154B00280DD1387014483060144801
:100B40002860144820601448086014491160144A51
:100B50001A60F0BD012038701248306012482860D9
:100B6000124820601248086012491160124AEFE7EB
:100B7000140000102C000010080000100C000010E1
:100B800010000010180000101C00001021050000CB
:100B9000C50400005104000025030000010300000B
:100BA000D90200000D040000B10300003D03000065
:100BB000C10200009D02000075020000014B187880
:100BC0007047C0462C000010014B18787047C04693
:100BD00000000010014B18687047C0460400001068
:100BE000014B18787047C0462D00001070B5040006
:100BF000FFF74CFF1E4D2B789B0701D5FFF72EFD0D
:100C00002B785B0701D5FFF7BBFD2B78DB0701D500
:100C1000FFF75CFE174B1878FFF784FF0023164A96
:100C20001380164A1380164A1380164A1380164AF8
:100C30001370FF2C02D12C789C420BD0134B012C4B
:100C400010D0042C08D002222A70114A1A60FFF733
:100C500023FD2C78200070BD0E4A2C701A60FFF71F
:100C6000B9FDF6E70C4A2C701A60FFF78BFEF0E72F
:100C70002D0000102C000010320800103008001069
:100C800056080010540800102E000010200000101C
:100C9000450200006102000065050000F0B58DB05E
:100CA000140012AA12880F00079213AA128800904B
:100CB000089214AA12780992DA00111889B20691E2
:100CC000554908880699884205D2013083B20093BD
:100CD00000980DB0F0BD5149D219098892B29142E5
:100CE000F3D31F2CF4D9013BDBB20293203C01F07B
:100CF00033FA4B4AE400A3180393029B002B33D131
:100D00001E00009B08339BB20493039BBD199B5D9F
:100D1000009C02938023ADB20193019B029A13427F
:100D200017D020002B002200290000F077FF079841
:100D300000F060FF019B01345B080193049BA4B2A7
:100D40009C42EAD10136082EDFD101F0FBF9069B67
:100D5000BDE7099B002BEDD020002B0022002900CD
:100D600000F05CFF0898E3E7039B019308330A93C4
:100D7000019B009D1B780B936B461B890593029B7F
:100D8000DE19082304937833B6B20393059B0B9ABC
:100D90005C19039BA4B2134228D03300220039000F
:100DA000280000F03BFF641BF31B013401335C435C
:100DB000A4B2002C15D1059B0133ED18191C039B1F
:100DC000ADB25B080393049B013B0493002BDDD180
:100DD000019B0A9A7F180133BFB201939342C7D196
:100DE000B3E7079800F006FF013CE1E7099B002B01
:100DF000E1D0330022003900280000F00FFF641B0F
:100E0000F31B013401335C43A4B2002CD3D0089807
:100E100000F0F0FE013CF7E75C08001058080010F5
:100E2000E0520000F0B589B015000EAA12880C003F
:100E300005920FAA12881E1C069210AA1278079219
:100E4000002B00D101268023F6B21B02984210D15C
:100E5000184F388843082800049303F02BFE704392
:100E6000049BC0004008181A3B8880B298429B41FE
:100E7000184080231B029C4208D10F4BB1001B88F5
:100E80005C08641AA4B29C429B411C402A78002A48
:100E90000ED0079B21000293069B01350193059B11
:100EA00000933300FFF7FAFE024B1B888342EDD21A
:100EB00009B0F0BD5C08001058080010F0B58DB006
:100EC000069312AB1B8857423FB2079101930699D4
:100ED0007B0001334B4359433B007B430393059114
:100EE0000B00039952438C466344049353000A93C6
:100EF000069B00905B435B000B93002302936B46C1
:100F00001B890893002F0ADD029B029A5E1C069B38
:100F1000B4B236B2934200DD8BE00DB0F0BDBBB28F
:100F20000993009BBAB29C1A079B089AA4B29D1819
:100F3000594BADB21B88A34210D9584B1B88AB420A
:100F40000CD901F009F92B0022002900200000F043
:100F500065FE019800F04EFE01F0F4F8009ABBB275
:100F60009E184D4BB6B21B88B34210D94B4B1B8811
:100F7000AB420CD901F0F0F82B0032002900300010
:100F800000F04CFE019800F035FE01F0DBF8079B05
:100F9000089A9D1A404BADB21B88B34210D93F4B03
:100FA0001B88AB420CD901F0D7F82B003200290086
:100FB000300000F033FE019800F01CFE01F0C2F892
:100FC000354B1B88A34210D9344B1B88AB420CD93C
:100FD00001F0C2F82B0022002900200000F01EFEC4
:100FE000019800F007FE01F0ADF8049B059A5B0044
:100FF0009A420BDC0B99099F8C4662440592059935
:10100000049A8C46013762443FB20492039A9A4292
:1010100000DA74E7089B01331BB2029313000A9AAB
:10102000944663440393039A049B94466344049355
:1010300065E7194F009A3B8893422BD9079B1D19EE
:10104000164BADB21B88AB4210D901F085F8009A5F
:101050002B001000290000F0E1FD019800F0CAFD0E
:1010600001F070F83B88009A934213D9079B1C1B30
:101070000A4BA4B21B88A3420CD901F06DF8009A68
:1010800023001000210000F0C9FD019800F0B2FD1E
:1010900001F058F8029637E75C0800105808001075
:1010A000F0B58BB0089100211D0053421BB206938E
:1010B00013B207900593059B8B4201DA0BB0F0BD8C
:1010C0006B469B8A0493049A079B9B1A9BB20193DD
:1010D0008BB20293029A089B9C1A714B019A1B884F
:1010E000A4B2934210D96F4B1B88A3420CD901F0D4
:1010F00033F8019A23001000210000F08FFD280032
:1011000000F078FD01F01EF8029A079B9B1A9BB233
:10111000049A0093089B9F1A614B009A1B88BFB2E8
:10112000934210D95F4B1B88BB420CD901F014F8D5
:10113000009A3B001000390000F070FD280000F01C
:1011400059FD00F0FFFF049B079A9E18544BB6B25E
:101150001B88B34210D9534B1B88A3420CD900F013
:10116000FBFF230032002100300000F057FD280073
:1011700000F040FD00F0E6FF029B009A5B009BB28E
:1011800009939B189BB20393454B039A1B88934288
:1011900010D9444B1B88BB420CD900F0DDFF039AE9
:1011A0003B001000390000F039FD280000F022FD5E
:1011B00000F0C8FF099B1C19394BA4B21B88B3422D
:1011C00010D9384B1B88A3420CD900F0C5FF23006F
:1011D00032002100300000F021FD280000F00AFD5F
:1011E00000F0B0FF049B089A9E182D4B039A1B88B1
:1011F000B6B2934210D92B4B1B88B3420CD900F0E6
:10120000ABFF039A33001000310000F007FD280007
:1012100000F0F0FC00F096FF214B019A1B889342EE
:1012200010D9204B1B88A3420CD900F095FF019ADE
:1012300023001000210000F0F1FC280000F0DAFC8F
:1012400000F080FF164B009A1B88934210D9154B73
:101250001B88B3420CD900F07FFF009A33001000C6
:10126000310000F0DBFC280000F0C4FC00F06AFF55
:10127000029B029A591C069B09B20133D318D3185A
:101280001AB298B206921B0400D514E7049A013AE8
:1012900093B25B00C31A12B21BB2059206930AE71F
:1012A0005C08001058080010F7B51C0008AB1B883C
:1012B000150001931B4B07001A880E00824201D8CB
:1012C000571EBFB2184B1B88B34201D85E1EB6B280
:1012D000AA4201D8013A95B2A34201D8013B9CB27F
:1012E000AF4202D93B002F001D00A64202D93300B5
:1012F00026001C0000F030FF2A00380023003100D7
:1013000000F08CFCEF1BA51B013701357D43002D40
:1013100002D100F017FFF7BD019800F06BFC013D12
:10132000F5E7C0465C08001058080010F0B589B019
:10133000049353421BB2069313B205930023079004
:101340000391059A9A4201DA09B0F0BD6A469CB24F
:10135000958A039B079A1919561B049BAF18B6B2BE
:1013600089B2BFB23A00300000930B00FFF79CFF38
:10137000039B3A00191B049B89B2300000930B00B9
:10138000FFF792FF079B66001F1B039BBFB2E91884
:10139000BE19049B89B2B6B23200380000930B002C
:1013A000FFF782FF039B3200591B049B89B2009315
:1013B00038000B00FFF778FF069A631C0132A21871
:1013C000A41821B21BB2A2B206912104B9D4013DE6
:1013D000A9B24900521A28B212B205900692B0E79B
:1013E000F0B515008DB012AA148813AA1288060051
:1013F000029200192A1B944690422DDA1A1B0F19EB
:101400000592974228DA82B20392624692B204921F
:10141000029A03980092049AFFF746FFBBB2069324
:101420006B469B8A30000793029B039A06990093B0
:10143000079BFFF739FF029B2A0000930699079B41
:101440000498FFF731FF63421BB2099323B208935C
:101450000023089A9A4201DA0DB0F0BD6A46128C58
:101460009FB205920599039A069B521ADE1B92B20F
:10147000029BB6B20A923100039A0A980093330095
:10148000FFF712FF039B059ADB1B9BB20B93069B96
:101490000B989D1A029BADB22900039A00932B0072
:1014A000FFF702FF049B059A31009C18029BA4B22F
:1014B0002000049A00933300FFF7F6FE049B2900F6
:1014C000DE19029BB6B23000049A00932B00FFF79E
:1014D000EBFE079B2000DD19029BADB22900049AA8
:1014E00000932B00FFF7E0FE079B059A30009C1845
:1014F000029BA4B22100049A00932300FFF7D4FEBC
:10150000029B2900039A0A9800932B00FFF7CCFE58
:10151000029B2100039A00930B982300FFF7C4FE5F
:10152000099A7B1C0132BA18BF1839B21BB2BAB281
:101530000991390400D58CE7059C013CA1B2490012
:10154000521A20B212B20890099282E7F0B58FB019
:10155000039314AB1B8808910993544B07001B8815
:10156000811A99422DDA0399089B5B1A5049098820
:101570008B4226DA544224B20399630001334B4371
:10158000594323006343059307910B000599524388
:101590008C466344069353000C93039B5B435B00B0
:1015A0000D93002304936B461B8A0A93002C0ADDDB
:1015B000049B049A5E1C33B20593039BB4B293421E
:1015C00042DC0FB0F0BDA3B20A9A0B93FD1A089B40
:1015D000ADB29918A3B2DE19099B89B2B6B2320036
:1015E000280000930B00FFF75FFE089B0A9A280073
:1015F000991A099B89B2320000930B00FFF754FE41
:10160000069B079A5B009A420CDC0D990B9A8C465C
:10161000013214B2079A624407920799069A8C46DF
:1016200062440692059A9A42BDDB0A9B01331BB2C3
:10163000049313000C9A944663440593059A069B01
:10164000944663440693AEE7184E3388BB422AD9CA
:10165000089B1D19164BADB21B88AB420FD900F089
:101660007BFD2B003A002900380000F0D7FA0998DA
:1016700000F0C0FA00F066FD3388BB4213D9089B26
:101680001C1B0B4BA4B21B88A3420CD900F064FDB9
:1016900023003A002100380000F0C0FA099800F059
:1016A000A9FA00F04FFD059B049381E75C08001048
:1016B00058080010F0B58DB0029312AB1C8813AB24
:1016C0001F8803190393131B0493031916000D00BD
:1016D000121B934231DA029B0A191B1B9A422CDA25
:1016E00092B206929BB20200069900970793FFF709
:1016F000DBFD6B469B8908936B461B8A0898099310
:10170000029B099A19000097FFF7CEFD32003000C6
:10171000079B06990097FFF7C7FD2B00099A290040
:1017200008980097FFF7C0FD002263421BB20B939D
:1017300023B20A930A9B934201DA0DB0F0BD6B46C7
:101740001B8D05930599089B5B1A9BB2039393B27B
:101750000293029A069B9E1A6E4B039A1B88B6B29E
:10176000934210D96C4B1B88B3420CD900F0F4FCA7
:10177000039A33001000310000F050FA380000F0F6
:1017800039FA00F0DFFC029A089B9B1A9BB2059A7B
:101790000493069B9D1A5F4B049A1B88ADB293423B
:1017A00010D95D4B1B88AB420CD900F0D5FC049AD4
:1017B0002B001000290000F031FA380000F01AFA6E
:1017C00000F0C0FC099B059A9C18524BA4B21B88E0
:1017D000A34210D9504B1B88B3420CD900F0BCFC7B
:1017E000330022003100200000F018FA380000F029
:1017F00001FA00F0A7FC099B029A9E18454BB6B26D
:101800001B88B34210D9444B1B88AB420CD900F063
:10181000A3FC2B0032002900300000F0FFF9380053
:1018200000F0E8F900F08EFC079B029A9D18394BF6
:10183000ADB21B88A34210D9374B1B88AB420CD9E1
:1018400000F08AFC2B0022002900200000F0E6F9BD
:10185000380000F0CFF900F075FC079B059A9C1842
:101860002C4BA4B21B88B34210D92B4B1B88A3422C
:101870000CD900F071FC230032002100300000F090
:10188000CDF9380000F0B6F900F05CFC214B039A6A
:101890001B88934210D9204B1B88AB420CD900F017
:1018A0005BFC039A2B001000290000F0B7F9380008
:1018B00000F0A0F900F046FC164B049A1B889342F6
:1018C00010D9154B1B88A3420CD900F045FC049A93
:1018D00023001000210000F0A1F9380000F08AF97F
:1018E00000F030FC029B02995A1C0B9B12B2013390
:1018F000CB18CB1818B299B20B901B0400D519E77E
:10190000059C013CA3B25B00CB1A20B21BB20A902B
:101910000B930FE75C08001058080010F0B51F008B
:10192000160004000D0085B00AAB1B88020003936B
:1019300000933B00FFF7B8FC039B32003900200006
:1019400000933B00FFF7B0FC039B320029003000FE
:1019500000933B00FFF7A8FC039B32000093290093
:101960002B002000FFF7A0FC05B0F0BDF0B58DB056
:101970001E0012AB1B8805000C0017000493904258
:1019800001D0B14209D1049B3A00009321003300F9
:101990002800FFF789FC0DB0F0BD444B1A88824245
:1019A00001D8551EADB2424B1B88A34201D85C1E24
:1019B000A4B2BA4201D8013A97B2B34201D8013B6E
:1019C0009EB27B1B1AB20792321B12B20392012203
:1019D00008921B0405D5EB1B1BB2079301235B4246
:1019E000089301230993039B002B05DAA31B1BB269
:1019F000039301235B4209936B469B8B0A935B0025
:101A00009BB205936B469B890B935B009BB206933D
:101A100000F0A2FB23002A002100280000F0FEF8BD
:101A2000049800F0E7F8079B039A934220DD069B99
:101A30000A9A9E1A36B2BD4202D100F083FBAAE791
:101A4000002E05DB099BE418059BA4B2F61A36B2FA
:101A5000089B2100ED18069BADB228002A009E19B4
:101A6000230000F0DBF8049836B200F0C3F8E2E798
:101A7000059B0B9A9F1A3FB2B442DED0002F05DBC4
:101A8000089BED18069BADB2FF1A3FB2099B2800D8
:101A9000E418059BA4B22A002100DF19230000F0FE
:101AA000BDF804983FB200F0A5F8E5E75C08001027
:101AB000580800100C4B70B51B8804000D00160070
:101AC000834210D9094B1B888B420CD900F044FB90
:101AD0002B0022002900200000F0A0F8300000F0C8
:101AE00089F800F02FFB70BD5C080010580800104A
:101AF00070B5040000F030FB0021164B164A1B881D
:101B00001288013B013A080080259BB292B200F096
:101B100085F82D01200000F06DF8200000F06AF833
:101B2000200000F067F8200000F064F8200000F0CA
:101B300061F8200000F05EF8013D200000F05AF846
:101B4000ADB2200000F056F8002DE3D100F0FAFA13
:101B500070BDC046580800105C08001010B5124B4C
:101B60001B281DD007D80E281AD0122816D00928F5
:101B700009D15A2208E0B42810D08722520090429E
:101B80000ED05A28F5D000221A80188800F04AF9A1
:101B9000064B1880064B000C188010BDB422F3E7EA
:101BA00087225200F0E7C0465A080010580800107B
:101BB0005C080010014B18887047C0465C08001094
:101BC000014B18887047C0465808001010B5002413
:101BD000054B1C80054B1C80054B1C8000F0FCF95C
:101BE0002000FFF7BBFF10BD5C0800105808001074
:101BF0005A08001030B58022FF240025064B120140
:101C0000010AA4009D5019518021890099509D50CE
:101C10001851995030BDC04600000250F0B5DBB2FB
:101C200085B00293CBB20393D3B280210093C3B2A9
:101C300080207A4C7A4A2688019349010001B42E0B
:101C400000D170E08727FF2500247F00AD00BE4251
:101C500000D1A9E0029B039F023302934223023783
:101C600003975450145053515A2E30D0802680235D
:101C70007F27B600DB0016505350009B7F42FB1AB3
:101C8000DBB25450145053518023DB001650535094
:101C9000019B5450FF1AFFB2802314505751432721
:101CA000DB00165053505450145057516F463F7B31
:101CB00016505350545014505751165053505450BE
:101CC00014506C46247A54511650535029E06B46F8
:101CD000802780261B7BBF00F600175056505450BB
:101CE000145053516B461B7A175056505450145091
:101CF0005351432317505650545014505351019B85
:101D000017500233DBB25650545014505351009BBD
:101D100017500233DBB256505450145053511750E1
:101D2000565005B0F0BDFF278026802300244225B1
:101D3000BF00B600DB0054501450D551165053501C
:101D4000019B54500233DBB21450D3518023DB008B
:101D500016505350009B54500233DBB21450D351F1
:101D60008023DB0016505350432354501450D3515A
:101D70008023DB00165053507F23029D5B429C461C
:101D80005B1BDBB254501450D3518023DB00165040
:101D90005350634654501450039C1B1BDBB2D35169
:101DA00080231650DB0090E7802342269B0080278B
:101DB0009C465450145056511350029BC13EF31A86
:101DC000FF00DBB257505450145053516346135028
:101DD000039B5750F31ADBB25450145053516346CF
:101DE0001350BE3BFF3B5750545014505351634661
:101DF0001350009B5750F31ADBB2545014505351F8
:101E000063461350019B5750F61A6346F6B254507E
:101E1000145056511350575083E7C0465E080010C7
:101E200000000250F0B5B42806D087235B0098422A
:101E300002D05A2800D0002080210022354B890191
:101E40001880354B8024FF255A50802124014901F8
:101E5000AD00B42857D087267600B04253D05A50F0
:101E6000F2361A515A282BD042200227585180208E
:101E7000BC46C0001E5158505A501A515F517F370E
:101E80001E5158505A501A515F513E3F1E515850E2
:101E90005A501A515F5167461E5158505A501A51A4
:101EA0005F511E5158505A501A5181325A511E5189
:101EB0008022585080219201090118489950F0BDA4
:101EC0004220585102278020BC46C0001E51585065
:101ED0005A501A515F517F371E5158505A501A515B
:101EE0005F513E3F1E5158505A501A515F5167463C
:101EF0001E5158505A501A515F511E5158505A5045
:101F00001A518122D2E7422080265A50B6001A5137
:101F10005851D7E75E080010000002508000800092
:101F200080230021034A9B01D15080210901D15017
:101F30007047C04600000250F8B58023002280257B
:101F40008026244C9B010700E2506D01360190422F
:101F500023D1FF225023802192006051A051A35031
:101F6000B133FF33C900A3511420615100F0ECFAE2
:101F7000FF222D238021782092006751A751A35082
:101F8000D433FF33C900A351615100F0DDFA80233F
:101F900080229B011201E250F8BD0023FF22802124
:101FA000802763519200A35189002C33FF00A35076
:101FB0007820A151675100F0C7FA0023FF22802149
:101FC00063519200A35189005133A3501420A151B1
:101FD0006751DAE700000250F0B595B04522434959
:101FE00002A801F027FE802180260025404C09022E
:101FF0006258404BF6001A4362503F4A1420A158E1
:1020000080270B43A350A55100F09EFA80235B006C
:10201000A351782000F098FA80239B01E5502B0013
:102020003F0102AAD05C5D1C3F220300ADB2934386
:10203000802B3ED0C02B53D0402B08D110408022A3
:10204000030029005201002B1CD12D18ADB2442DE4
:1020500016D980218023FF258020C9011B01AD00F6
:10206000800000220139E2506251E050E25062519A
:10207000E0509142F5D180229201A35015B0F0BDFD
:102080002B00CEE74E1C019602AE715C013B8C46E4
:102090000021A150E151FF21664689006650FD39BB
:1020A000FF39E1518021C900A15069469BB289885E
:1020B000C9E73F238021184003002A008900002B34
:1020C000C3D0561CB44602AEB25C0026E651FF26D1
:1020D000B600A2516246013BE1519BB292B2EEE7DB
:1020E0003F23184000F030FAB1E7C046E059000045
:1020F00000000250FF0F0000FC3F00008022002182
:10210000044B12019950FF2189005850FD39FF39C5
:1021100099507047000002508022802110B50024A1
:10212000074B520109019C505C50FF24A400185138
:102130008020800058508021C900995010BDC046B1
:102140000000025080238021024A9B010901D150E6
:102150007047C0460000025080230021014A9B01C5
:10216000D150704700000250802301385B04984230
:102170000DD2C021064A090650600648036A1B02B8
:102180001B0A0B43036200239360073313607047FD
:1021900010E000E000ED00E05B4A30B51368013369
:1021A00013605A4A13785B0737D559490B780133C6
:1021B000DBB2052B01D00B702FE000230B705549CB
:1021C000C869810700D503330121084200D04B4084
:1021D000514D2C78E41AE1B2E40709D52B700223A3
:1021E0004E4D0B402C7864B2013C1B195BB22B7036
:1021F0004B4943071CD40B780133DBB20B70C72B60
:1022000009D902234749087803430B700123454944
:1022100008780343CFE7132BF8D813781B076FD543
:10222000414A13780133DBB2192B03D0137067E0F6
:102230000023C0E7002313703C4A364BD96F136864
:1022400011600B401C001021394A0C400B422FD169
:10225000384805782943017037481578017814709B
:10226000491949B2017008211C00344A0C400B4244
:1022700032D130483831057829430170304815781B
:102280000178491949B2017014702E4A5B0738D49D
:1022900013780133DBB21370272B2FD90223254A81
:1022A00011780B4313700123224A11780B43BDE7C9
:1022B0000121180008400B420CD11E4C1F3125781B
:1022C000294321701C4C157821781070491B49B2A4
:1022D0002170C8E71170C6E702211C000C400B42B8
:1022E00009D18025134801782943017014481578D5
:1022F0000178491BC6E701211170C6E7032BD2D82C
:1023000030BD002392E7C0466C180010650800102D
:1023100064080010000001506108001060080010FF
:1023200063080010620800107A180010741800107A
:102330006818001078180010701800106918001044
:102340007B1800107918001072B60323034A107826
:1023500040B20340137062B68010704760080010EE
:1023600091230D4A0D49CB67D36793670C4B9A684D
:10237000002A02D003210B4A11705B68002B04D0A5
:102380000123084A11784B4013700023064A13704A
:10239000064A13707047C0460040044004400440A1
:1023A0000000015061080010600800106208001071
:1023B00091229020094B191DCA679A679031DA67FC
:1023C0001B1808601A600023054A1370054A137031
:1023D000054A1370054A13607047C0460040044028
:1023E00078180010701800107B1800107418001076
:1023F00010B5072862D005D804282CD0052844D071
:10240000002010BDFF28FBD18122394B80211A60AA
:102410000823384A090213625058034353500123DA
:10242000354936480B6004681F332343036080231B
:1024300004685B0423430360436A002BFCDA0368EF
:102440002F4C234003608023406A0B60002300046C
:10245000800D1362D5E70223102225490B60274B1C
:10246000186802431A6080221868520402431A60F6
:102470001A6A002AFCDA1A68214802401A60186AAF
:1024800091230004800D0B60BBE7012320221A4931
:102490000B601A4B186802431A60802218685204B5
:1024A00002431A605A6A002AFCDA1A681448024089
:1024B0001A60586A90230004800DE4E70123114A52
:1024C0000E49136008687F3303430B60802308685C
:1024D0005B0403430B60CB6A002BFCDA0B680848F3
:1024E00003400B609023C86A13600004800D88E7E6
:1024F00090400440000001509440044000C001405E
:1025000000FFFFF898400440094A13788343137092
:10251000084B1B789B0607D5074B1A78A023DB05D1
:10252000002A02D108321A6270470022FBE7C04637
:102530007C180010650800106A180010014B18681C
:102540007047C0466C180010034A116813685B1A84
:102550008342FBD37047C0466C18001070B50C4A1C
:10256000041E0C4D03D190636860200070BD031CF5
:10257000642800D96423DCB201232004936364211E
:102580006B60001B02F000FEC043A861EDE7C0468F
:102590000040044000000140F8B54E4C002801D135
:1025A0002068F8BD4C4B984272D061D84B4B984292
:1025B00067D04B4B984268D000212060002272B651
:1025C0008E20484B80001D58002A67D02026B54336
:1025D0001D5000201862C825C046013D002DFBD1CA
:1025E00001201A6458645D6458645D6C0542FCD037
:1025F000002957D08E208025996080001958A94362
:1026000019500121D8680842FCD003201867002027
:102610005967586759670121586F0842FCD08E21CD
:1026200089005858002A4CD0032202435A5025688A
:102630002D4A2E4B954246D90222DA60002228000C
:102640001A612B4902F0A3FDFA212A4E2A4B376862
:1026500001381F400002384389003060280002F032
:1026600096FDFFF781FDFF20FEF7C0FA62B697E7FF
:10267000224B98420FD0224B98429DD122212060BC
:1026800001E000212060012299E74121206095E7C7
:1026900041212060F7E7422120608FE70326B54300
:1026A0001D5098E71A675867596701215867586F96
:1026B0000842FCD08E20802180001D5829431950EB
:1026C000ADE72022B1E70F4A954201D90122B4E7D4
:1026D0000022B2E7240000100048E8010024F400C2
:1026E00000366E0100800440FF5962020000014084
:1026F00000093D0000C00140FF00FFFF005125021E
:10270000006CDC02FF2C310170B572B6294B12212E
:102710001A008E20FC325165102280001958A02426
:10272000914319500121244899670433D8678023C5
:1027300004251B02E405E05808262840E0501F4805
:102740000500A435C2612A604266E5583540E5506F
:10275000C2621B4A0024D0580843D05080205460E5
:10276000184A8000D5582843D05080231B01D450EC
:102770000122154B52429C60DC601C611C675C614D
:102780009A6122325967DA635960104B10491D680B
:10279000280002F0FCFC0138B040FA210D4B890002
:1027A00018600D4B28001C6002F0F1FCFFF7DCFC08
:1027B00062B670BD008004405F210100004004400B
:1027C00000000350000001500000014024000010F0
:1027D00000093D0000C001406C180010F0B591B038
:1027E00016AC257817AC267818AC278819AC248845
:1027F0000193A446634603AC2382019B2273237199
:10280000064B0591A0710D212000054AE7816673F2
:1028100065710393FDF7D8FC11B0F0BDEFBEADDEDE
:1028200068080010F0B5664D93B02B780890DBB2C5
:1028300005910993FFF794FD04232B70F8230021E1
:102840001B0208002A2200937F23FEF72DFDFC23A4
:10285000DB00542200212A2000937F23FEF724FD71
:102860001F23009360331A00002154200024FEF738
:102870001BFD802023003B21524A029401940094C6
:102880000002FEF7CFFA8020230045214E4A029431
:10289000019400940002FEF7C5FA8020052501236B
:1028A00076214A4A0294019400940002FEF7BAFA93
:1028B00007940694FFF748FD00260127069B444A2B
:1028C000C01843B2069313781670079A41499B18B3
:1028D000414A5BB2079313780AA81C1964B21670B8
:1028E000079B069A009402F089F8059B2900019342
:1028F000089B0AAA0093280033000297FEF792FA79
:10290000364B19781E70364B1A781E700A43354EB6
:1029100054D00221130077600B400A4240D0284F68
:102920003B78042B34D130490AA802F067F8FFF74E
:102930003FFD08233B7001230293059B0AAA0193E4
:10294000089B1921009328000023FEF76BFAFA2058
:1029500000274000FFF7F8FD204A214B117817703F
:10296000C8B20029FAD1197818700029F6D1FEF7FB
:10297000B9F800289ED0FEF775F800289AD170604B
:102980000598FFF7B5F80E4B099A1A7013B0F0BD11
:1029900016490AA802F032F8FFF7E2FC0423C9E75F
:1029A00001210A42E3D0059A02910192089A280077
:1029B00000920E310E4AFEF735FAD8E77260D6E77C
:1029C00065080010255A00002B5A0000395A0000F3
:1029D00070180010475A00007B18001062080010A1
:1029E0007818001000000350595A00005D5A00008A
:1029F000615A0000F0B50224250089B00690080055
:102A00000E000492FFF774F8049BDB000793049B0D
:102A1000DB000593FEF766F80028FBD0FEF722F8EE
:102A200007000A2811D00D280FD0092800D120272F
:102A300001230293069B280000933A002100049B87
:102A40000196FEF72BF9050005E0002D03D00225C5
:102A5000059B1C19A4B2FFF7ADF8A84203D80225C4
:102A6000059B1C19A4B2FFF7ABF8079BE318834240
:102A700003DB3000FFF73CF80224002FCAD13000FE
:102A8000FFF736F809B0F0BDF0B585B0019106004A
:102A9000FDF7E8FF83B20093FDF7E4FF87B2FDF78F
:102AA000E1FF0290FDF7DEFF7F240390FDF7DAFFE0
:102AB00004400500FFF750FB0299039B009AFB18A6
:102AC0005218013B013A390000989BB292B2FFF7CD
:102AD000A5F8022C36D0042C04D0012C36D0019B52
:102AE00001961E00AC4B039F1B680093029B5F4343
:102AF0002B0600D5C6E00B2C4DD878231D4228D0DC
:102B0000FA25FC26ED00F600002F40D0FDF7EAFF85
:102B1000002800D190E0FDF7A5FF0300082C64D148
:102B20001C2100029A00400B0A4040031043182267
:102B30001A40152353439B00184380B2FFF75AF8FD
:102B4000013FE1E70026954B0193CBE70023934E2D
:102B5000FAE7013C032C00D98AE0002F17D0FDF7DB
:102B6000C1FF002838D0FDF77DFF3B000500802421
:102B7000083B029301982C4200D13000FFF73AF84D
:102B8000029B013F6408BB42E7D0002FF2D1FFF760
:102B9000D9FA05B0F0BD182C6AD1FA26F600002F3C
:102BA000F5D0FDF79FFF002865D0FDF75BFF05001E
:102BB000FDF758FF0400FDF755FFFC23E400DB00A0
:102BC0001C40C01004432802C00AC002204380B247
:102BD000FFF710F8013FE2E76F4B009A1B689B1A62
:102BE000FA22D2009342B8D9D1E7092C0CD10002C5
:102BF000400B032241030A201A4050431C22134079
:102C000063430843DB0097E70A2C0DD1C02038212D
:102C100009221840194060434A4340019200104382
:102C20001C229B00134087E70002DA00C00AC002A2
:102C300032401043DB107FE7574B009A1B689B1A0A
:102C4000AB4200D860E7A2E7FDF74CFF002808D0B0
:102C5000534B013F1B689847FEF7CCFF002FF3D181
:102C600095E74D4B009A1B689B1AA342F6D98EE755
:102C7000FA24E400F2E7484B009A1B689B1AB3421F
:102C80008DD984E70B2C38D878231D4200D0B7E0CB
:102C9000013C032C00D949E1002F00D177E7FDF773
:102CA00021FF00286ED0FDF7DDFE3B00083B04004D
:102CB00080250293AA2857D1FDF7D4FE041E00D127
:102CC00065E7FDF7CFFE03903B008025083B0293AC
:102CD000039B01981D4200D13000FEF78BFF029B41
:102CE000013F6D08BB4201D0002FF1D1013CE4B29D
:102CF000002CD1D0002FE7D149E7182C00D015E1E6
:102D0000002F00D143E7FDF7EDFE002800D133E1AD
:102D1000FDF7A8FE0400AA2800D019E1FDF7A2FEE5
:102D2000061E00D133E7FDF79DFE0400FDF79AFE75
:102D30000500FDF797FEFC23ED00DB0024021D409B
:102D4000C010E40A0543E4022C433D00A4B2200075
:102D5000013DFEF74FFFEB1BF318DBB2002B01D058
:102D6000002DF4D12F00CBE70198254200D130008F
:102D7000FEF740FF029B013F6D08BB428CD0002F45
:102D8000F2D104E7044B009A1B689B1AFA22D20086
:102D9000934200D880E7FAE66C180010FFFF0000AD
:102DA00008000010FDF79EFE002800D194E0FDF71A
:102DB00059FE0300AA2852D1FDF754FE01900028C5
:102DC00000D1E4E6FDF74EFE082C1CD11C220502C2
:102DD00083006D0B13406D031D4318230340152022
:102DE000584380003E000543ADB22800FEF702FFC5
:102DF000013E019AF31BD318DBB2002B2CD1370014
:102E0000002FCFD1C3E6092C0CD105026D0B6B034B
:102E100003250A22054055431D431C2318406043E7
:102E2000C000DFE70A2C0DD1C02538220923054058
:102E30000240654353436D019B001D431C238000EA
:102E40001840CFE7FC220502C300ED0AD200ED02D4
:102E500013401D43C010C5E7002EC6D1CFE7082C94
:102E600011D11C2100029A00400B0A40400310437C
:102E700018221A40152353439B00184380B2FEF7D3
:102E8000B9FE7E1EBBE7092C0CD10002400B0322C9
:102E900041030A201A4050431C2213406343084355
:102EA000DB00EAE70A2C0DD1C020382109221840A6
:102EB000194060434A434001920010431C229B008A
:102EC0001340DAE7FC210002DA00C00AC900C002A0
:102ED0000A401043DB10D0E72D4B009A1B689B1A69
:102EE000FA22D200934200D951E63E0087E7FDF76F
:102EF000F9FD002821D0274C23689847264B98429B
:102F000017D1FDF7AFFD051E00D140E623689847B5
:102F10003C0006003000013CFEF76CFEE31BEB18A2
:102F2000DBB2002B01D0002CF4D12700002FDED122
:102F30002DE6FEF75FFE7C1EF7E7154B009A1B6837
:102F40009B1AFA22D200934200D920E63C00ECE71B
:102F5000FDF788FD0500FDF785FDFC232402E40A4A
:102F6000C010E4020443DB00E8001840204380B2B4
:102F7000FEF740FE7D1EF5E6054B009A1B689B1A86
:102F8000FA22D200934200D901E63D00EAE6C046AB
:102F90006C18001008000010AAAA0000F0B58BB051
:102FA000170009910890FDF75DFD84B2FDF75AFD09
:102FB00083B20593FDF756FDC34305007F20DBB2C6
:102FC000DB09054006936B1E0F2B00D90125002657
:102FD000B74202D1FDF746FD0600274B1B68079359
:102FE000002F35D0FA27FF00FDF77CFD00283CD0EC
:102FF000FDF738FD061E36D0FEF7DCFDA042F3D902
:10300000069B20000293099B32000193089B0599BF
:1030100000932B00FDF742FE0400E5E7FDF762FD9B
:10302000002818D0FDF71EFD0700FEF7C3FDA042E3
:103030000CD9069B20000293099B3A000193089B40
:10304000059900932B00FDF729FE0400013EF6B21E
:10305000002EE3D107E0084B079A1B689B1AFA225F
:10306000D2009342F4D90BB0F0BD034B079A1B6812
:103070009B1ABB42B8D9F6E76C180010F0B58BB0BC
:10308000FFF742FB8026A0210427A14DA14A2B680F
:1030900010689C79C90536010B69002B00D10FE13E
:1030A000FEF794FD2A689C4B12689A4227D09B4EEB
:1030B0009B48FFF771FA3000FEF71AFD00240A2141
:1030C00001230800974A029401940094FDF7AAFE98
:1030D0003220FFF743FAFA208000FFF735FA9621F5
:1030E0003023202202200294019400948901039647
:1030F000FFF774FB20003100FFF794FB02342B68CC
:103100001879894B5843FFF747FA884E33785B07A5
:1031100001D5FFF725F933781B0701D5FFF748F9EB
:103120002B68DA8906921B8A18000593FEF7E0FCEB
:103130002B685879FFF712FA2B689868FDF7E8FBBF
:103140002B68187BFDF7ECFA2B68587BFDF7EAFC3F
:103150002000FDF74BFD002307936E4B1B68FDF726
:1031600081FCA32800D92AE1002800D12AE10138F6
:10317000A22800D926E102F096F828012C013B0193
:1031800048014C01A101D901250125012501250195
:103190002501250125012501E101ED01F001F501E0
:1031A000FA01FF0102022501250125012501250162
:1031B000250125012501250105020B02100215023A
:1031C0001A021F0224022D02320238023A023C0285
:1031D0004B0254025D027502A502B602DA02FA023F
:1031E0001A0335034B035E0379038F03A203C30362
:1031F000DB03F10313042B044104550462046F0440
:1032000083049304A004B904CB04DC04F50407058B
:103210001805250529052D05360538052501250143
:10322000250125012501250125012501250125016E
:10323000250125012501250125012501250125015E
:10324000250125012501250125012501250125014E
:10325000250125012501250125012501250125013E
:10326000250125012501250125012501250125012E
:10327000250125012501250125012501250125011E
:10328000250125012501250125012501250125010E
:10329000250125012501250103013A050C01FF0047
:1032A00025012501250125012501250125012501EE
:1032B0002501250125012501B7004305E700B300DD
:1032C00013681B1A632B00D9EAE68B593C00002BCC
:1032D00000D1E1E6164B5C68631E9C410134DBE6DD
:1032E000144A1369002BFCD00024134D134B18789B
:1032F0001C702B689847124B18781C702B689847E5
:10330000104A2B6810781470C0B200F080FCC046E0
:10331000280000106C180010EFBEADDEFFFF0000AB
:10332000006CDC02675A000040420F006508001084
:10333000FC00015000000150200000107018001027
:103340007B180010781800100025CF4C2A1C237819
:103350002270002BFBD0CD4ECD4B18781D703368FA
:103360009847CC4B18781D7033689847207833689D
:10337000C0B2257000F04BFCC74A1369002BFCD08B
:10338000C24C2568FEF7E0FFC0B2A847236800F0F2
:1033900030FC0025C14C2A1C23782270002BFBD066
:1033A000BA4E3768FEF7D0FFC0B2B847207833680E
:1033B000C0B2257098470420FFF7A6F802E0FA286B
:1033C00000D195E0FDF762FBC7E6B548FDF73CFB91
:1033D000F8E7079B002B02D13220FFF7BFF80698D1
:1033E0000599FFF71FFA0220A84B1B689847E9E7E9
:1033F000AC4B1C78A54BE4B220001B689847FDF746
:1034000045FB2000FFF780F8A7E6A04B0D201B68C6
:10341000ECE7FDF727FB0138062800D99DE601F00F
:1034200032FF0423282E33383F00FDF7D9FB040078
:10343000FDF7D0FB0500FDF7C7FB9B4B06009B4942
:10344000186801F0A4FEC7B2FDF7B8FB059B019018
:103450000393069B32000293079B290000932000F0
:103460003B00FFF7BBF978E6FDF7FCFAFDF7BEFB82
:1034700073E68F4B1B689847FDF74AFA6DE6FDF738
:10348000F1FAFDF74DF968E6FDF7ECFAFDF74AFBB6
:1034900063E6FDF7E7FA854B5843FFF77DF85CE6F6
:1034A000FDF7E0FA0400430701D5FEF759FF2307B3
:1034B00001D5FEF77DFF7F4B1C704EE6FDF7D2FA7B
:1034C0000138052800D948E601F0DDFE030C251877
:1034D00015228022A02008211202C00583580B402B
:1034E00083503AE6A023DB05186A431E9841C0B218
:1034F000664B1B687AE700226F4B1A708021A02070
:103500000822C0050902435813434350026224E6CF
:103510000122694B1A708022A0200823C0051202E4
:1035200081580B4383500023036216E6FDF79AFA95
:10353000624B1C68FEF75CFFA04743E7FDF792FA79
:10354000FF2803D1514B07981B684FE7FFF706F898
:10355000079002E6FEF73AFBFFE5FDF783FAFEF778
:10356000EBFCFAE5FDF77EFAFEF7D6FDF5E5FDF793
:1035700079FAFEF7C3FDF0E5FEF7EEFDEDE5FEF7A7
:10358000E1FDEAE5FDF76EFA80B2FEF7E7FAE4E561
:103590004A4B1C68FEF70EFBCEE7484B1C68FEF753
:1035A0000FFBC9E7FDF75EFAFEF7BAFCD5E5444B21
:1035B0001B6898470690D0E5414B1B6898470590DB
:1035C000CBE5069801220599FFF714FA2F4B262028
:1035D0001B680BE705990698FFF756FABDE5384BCF
:1035E0001B689847FEF784FAB7E50698FAE705984E
:1035F000F8E7FDF737FA0400FDF734FA304B050021
:103600001B689847A9B20200A0B2FEF753FAA4E5DE
:10361000FDF728FA0400FDF725FA069A81B2A0B258
:10362000F3E7FDF71FFA0400FDF71CFA059A81B2D3
:10363000A0B2EAE7FDF716FA0400FDF713FA050059
:10364000FDF710FA0600FDF70DFA1D4B07001B6889
:103650009847A4B200902000BBB2B2B2A9B2FEF764
:1036600085F97AE5FDF7FEF90400FDF7FBF90500A1
:10367000FDF7F8F90600FDF7F5F983B2A0B2069C54
:10368000B2B2A9B20094EAE7781800102000001046
:10369000701800107B180010000001506208001024
:1036A000265A00007C1800102400001040420F0031
:1036B00010000010650800106A18001014000010B7
:1036C00008000010FDF7CEF90400FDF7CBF9050066
:1036D000FDF7C8F90600FDF7C5F9B2B283B2A9B289
:1036E000A0B2059CCEE7ED4B1B6898470990FDF70B
:1036F000B9F984B2FDF7B6F983B20893FDF7B2F9D0
:1037000085B2002C00D128E5FDF7ACF986B2FDF7B3
:10371000A9F9099B87B22900009332003B00089861
:10372000013CFEF723F93D00A4B20896E9E7FDF756
:1037300099F984B2FDF796F985B2FDF793F986B24F
:10374000002C00D109E5FDF78DF983B20893FDF750
:1037500089F9069B87B2310028000093089A3B0044
:10376000013CFEF703F93E00089DA4B2E8E7FDF72F
:1037700079F984B2FDF776F985B2FDF773F986B26F
:10378000002C00D1E9E4FDF76DF983B20893FDF751
:1037900069F9059B87B2310028000093089A3B0025
:1037A000013CFEF7E3F83E00089DA4B2E8E7FDF710
:1037B00059F986B2FDF756F987B2FDF753F90400BF
:1037C000FDF750F9B54B05001B689847390000908C
:1037D00030007D193419013D013CABB2A2B2FEF7B5
:1037E0009DF8BAE4FDF73EF985B2FDF73BF986B2E4
:1037F000FDF738F90400FDF735F92C193318013BB2
:10380000013C06999BB2A2B2009128003100E6E784
:10381000FDF728F985B2FDF725F986B2FDF722F903
:103820000400FDF71FF92C193318013B013C0599E1
:103830009BB2A2B2E8E7FDF715F986B2FDF712F9DF
:1038400087B2FDF70FF90400FDF70CF9934B050063
:103850001B6898473900009030007D193419013DEC
:10386000013CABB2A2B2FDF71FFD76E4FDF7FAF81A
:1038700085B2FDF7F7F886B2FDF7F4F80400FDF71E
:10388000F1F82C193318013B013C06999BB2A2B206
:10389000009128003100E6E7FDF7E4F885B2FDF776
:1038A000E1F886B2FDF7DEF80400FDF7DBF82C192D
:1038B0003318013B013C05999BB2A2B2E8E7FDF742
:1038C000D1F886B2FDF7CEF887B2FDF7CBF8040049
:1038D000FDF7C8F80500FDF7C5F8704B08901B68A8
:1038E000984769467D1934190190013D013C088CC7
:1038F000ABB2A2B2009039003000FDF7DBFE2CE441
:10390000FDF7B0F886B2FDF7ADF887B2FDF7AAF87B
:103910000400FDF7A7F8050034197D19FDF7A2F89A
:10392000013D013C0699ABB2A2B2019180B2E1E740
:10393000FDF798F886B2FDF795F887B2FDF792F893
:103940000400FDF78FF8050034197D19013D013C95
:10395000FDF788F80599ABB2A2B2E6E7FDF782F869
:1039600086B2FDF77FF887B2FDF77CF80400FDF71B
:1039700079F80500FDF776F8484B08901B689847E2
:1039800069467D1934190190013D013C088CABB2A8
:10399000A2B2009039003000FDF722FDFFF7DDFBF9
:1039A000FDF760F886B2FDF75DF887B2FDF75AF8CB
:1039B0000400FDF757F8050034197D19FDF752F89A
:1039C000013D013C0699ABB2A2B2019180B2E0E7A1
:1039D000FDF748F886B2FDF745F887B2FDF742F8E3
:1039E0000400FDF73FF8050034197D19013D013C45
:1039F000FDF738F80599ABB2A2B2E6E7FDF732F869
:103A00000400FDF72FF80500FDF72CF8234B060006
:103A10001B689847B2B20300A9B2A0B2FDF740FB01
:103A2000FFF79BFBFDF71EF80400FDF71BF80500F0
:103A3000FDF718F8069B82B2A9B2A0B2EEE7FDF737
:103A400011F80400FDF70EF80500FDF70BF8059BD3
:103A500082B2A9B2A0B2E1E7FDF704F80400FDF7D5
:103A600001F80500FCF7FEFF0C4B06001B689847A9
:103A7000B2B20300A9B2A0B2FDF758FCFFF76DFB8C
:103A8000FCF7F0FF0400FCF7EDFF0500FCF7EAFF90
:103A9000069B82B2A9B2A0B2EEE7C04608000010B1
:103AA000FCF7E0FF0400FCF7DDFF0500FCF7DAFFA0
:103AB000059B82B2A9B2A0B2DEE7FCF7D3FF0400F7
:103AC000FCF7D0FF0500FCF7CDFF0600FCF7CAFFAE
:103AD000514B07001B689847A4B200902000BBB26E
:103AE000B2B2A9B2FDF7EAF9FFF737FBFCF7BAFF6C
:103AF0000400FCF7B7FF0500FCF7B4FF0600FCF775
:103B0000B1FF83B2A0B2069CB2B2A9B20094E9E7B9
:103B1000FCF7A8FF0400FCF7A5FF0500FCF7A2FFD7
:103B20000600FCF79FFFB2B283B2A9B2A0B2059C17
:103B3000ECE7FCF797FF0400FCF794FF0500FCF7A7
:103B400091FF0600FCF78EFF334B07001B68984778
:103B5000A4B200902000BBB2B2B2A9B2FDF7F6FC4D
:103B6000FFF7FBFAFCF77EFF0400FCF77BFF050084
:103B7000FCF778FF0600FCF775FF83B2A0B2069C45
:103B8000B2B2A9B20094E9E7FCF76CFF0400FCF7BD
:103B900069FF0500FCF766FF0600FCF763FFB2B2A1
:103BA00083B2A9B2A0B2059CECE71B4D2B689847E5
:103BB0002B6804009847002201002000FFF7EEF96F
:103BC000FFF7CBFA002205990698F7E7002206993D
:103BD0000598F3E7104D2B6898472B680400984729
:103BE00001220100E9E70122EDE70122EFE70B4B9B
:103BF0001B6800210A4A10781170C0B2FFF7DAFB87
:103C00000021084A054B10781B68C0B21170984714
:103C10000820FFF7D1FBC04608000010200000106C
:103C2000620800107818001010B500F007F8FFF7D0
:103C300025FA10BD10B501F0FBFA10BD37B5184CD0
:103C400018492200002001F02DF8802380225B001B
:103C500000212000D20000F007FF134C134D22007A
:103C60002900012001F01EF8802380225B00002142
:103C70002000D20000F0F8FE0D4B1B680193022BD0
:103C80000DDD0C4C29002200022001F00BF88023EE
:103C90008022002120005B00D20000F0E5FE37BD4D
:103CA0008C180010775A0000C8180010795A0000CC
:103CB000CC5A00000419001000207047F0B5CFB0B6
:103CC0000A92559A0400089200220B93549B069284
:103CD00018785A1C0792002802D106984FB0F0BD00
:103CE000252839D104228021002502279446079BEC
:103CF000243889001A00167801332B2E4FD046D86D
:103D0000202E4ED0232E4FD02A2E4FD1089980C975
:103D1000002F02DA01207F42454002321E780792CE
:103D20000891FB43DB173B40149300230C932E2E8A
:103D300057D1079B1E782A2E45D00A210133320025
:103D4000303AD0B20793092846D80C981E784843D9
:103D500012180C920133F2E7069B0B9A5D1CDB17DD
:103D60009A4204DC0CD10A9B069A934208D9A368B4
:103D7000013BA360002B06DB23685A1C22601870ED
:103D8000079B0695A4E7210000F0E4FEF8E72D2E3E
:103D900003D0302EB8D10D43ACE70543AAE73D432D
:103DA000A8E762461543A5E70822FBE700270A209B
:103DB0003200303AD1B207930929B2D847431E786E
:103DC000D7190133F4E7089B04CB0C92079A0893A8
:103DD00013005678023307930C9B002B18DB10233B
:103DE0001D436C2E09D1079B1E786C2E13D15E7873
:103DF00060231D43079B023307934C2E01D0712E85
:103E00000FD1079B1E7860231D43079B013314E0ED
:103E100000230C93E5E7079B0133079320231D4301
:103E2000EBE7682E70D1079B1E78682E07D18023A0
:103E30005B001D43079B5E780233079304E0079BFA
:103E40000133079380231D43782E09DC572E67DC4E
:103E5000412E00D1FDE200DD89E0002E00D1EDE031
:103E6000149B0122013B0C932B0013403993069BBA
:103E700015421DD130233893AB0501D4202338934C
:103E8000069B0C9D2293DB172393013D00D48EE00B
:103E900000239F4200DD0C9B069A9B18149A911EEA
:103EA0000022974202DD14980132121A52180C9225
:103EB0000B995A1C0692DA17914203DC0CD10A9A2C
:103EC0009A4209D9A368013BA360002B00DA8FE076
:103ED00023685A1C22601E70399B089F002B10D04B
:103EE000069B0C9D2093DB172193013D00D484E0B9
:103EF0000C9B0C9ADB43DB171340069AD3180693EE
:103F0000089F069D08973BE76A2E04D140231D4376
:103F1000079B1E787AE77A2EFAD0742E94D1F7E7B1
:103F20003000583820289BD801F0B5F966019AFF77
:103F30009AFF9AFF9AFF9AFF9AFF9AFF9AFF9302BD
:103F40009AFF3D0059022700270027009AFF5902D7
:103F50009AFF9AFF9AFF9AFF8C00C801BE019AFF50
:103F60009AFFAC009AFFF0019AFF9AFF9501022395
:103F700032009A43452A00D072E78023DB002B43AE
:103F8000EA0601D406220C921D000022002307211C
:103F9000049205930023089F389307378F4303CF7C
:103FA0004490459188E1089B40CB089358E70B9BD0
:103FB000239A934204DC0DD10A9B229A934209D999
:103FC000A368013BA360002B0DDB23685A1C226011
:103FD000389A1A700120229A239B002112184B4113
:103FE0002292239351E72100389800F0B3FDF1E7C6
:103FF0002100300000F0AEFD6EE70B9B219A93424A
:1040000004DC0DD10A9B209A934209D9A368013B95
:10401000A360002B0DDB23685A1C226020221A703B
:104020000120209A219B002112184B4120922193BC
:104030005BE72100202000F08DFDF1E7079B013BAD
:1040400007935DE7089B1F1D6B0606D5089B069A24
:104050001B681A60D2175A6053E7AB0604D5089B59
:10406000069A1B681A604CE7EB0504D5089B069A74
:104070001B681A7045E72B06F1D5089B069A1B684A
:104080001A803EE7089F08CF3893002B01D1C64B1A
:104090003893389800F00EFD0600EB0603D50C9B14
:1040A000984200DD1E00149B2A009B1B08930123ED
:1040B0001A4014921D4218D12F330C93AB0501D432
:1040C00020230C93069B089D1E93DB171F93013D35
:1040D0002CD5089B089ADB43DB171340069AD218AD
:1040E0000692089A013AD31A08930025069B249356
:1040F000DB172593B5423ADBF043069BC017064019
:104100009B190693149B002B00D1FAE6069B089D91
:104110002893DB172993013D4DD5089B089ADB4373
:10412000DB171340069AD3180693EAE60B9B1F9AF7
:10413000934204DC0DD10A9B1E9A934209D9A368CD
:10414000013BA360002B0DDB23685A1C22600C9AF4
:104150001A7001201E9A1F9B002112184B411E92BB
:104160001F93B4E721000C9800F0F4FCF1E70B9BDF
:10417000259A934204DC0ED10A9B249A93420AD9D1
:10418000A368013BA360002B0FDB23685A1C22604D
:10419000389A525D1A700120249A259B002112182A
:1041A0004B41013524922593A4E7389B2100585DAB
:1041B00000F0D0FCEFE70B9B299A934204DC0DD171
:1041C0000A9B289A934209D9A368013BA360002B5C
:1041D0000DDB23685A1C226020221A700120289AC5
:1041E000299B002112184B412892299393E7210023
:1041F000202000F0AFFCF1E740232A00089F1A407E
:104200001D421DD00722073797430CCF0492059318
:1042100080232A001A401D4216D06B461B8A049345
:1042200000230593614B9C462B0701D4604B9C46B1
:10423000604B3893EB0600D48AE05F490D4087E07D
:1042400008CF05920493E3E7EB05EBD56B461B7CA7
:1042500005920493E6E740232A00089F1A401D4276
:1042600017D00722073797430CCF0492059380237A
:104270002A001A401D4210D06B461B8A049300236B
:1042800005934E4B9C462B0701D4494B9C464C4B07
:10429000CFE708CF05920493E9E7EB05F1D56B462C
:1042A0001B7C05920493ECE7089F08CF049300233E
:1042B0000593434B3893414B9C4649E040232A00E9
:1042C000089F1A401D4216D00722073797430CCF8C
:1042D0000492059380232A001A401D420FD06B469A
:1042E0001B8A049300230593364B9C462B0700D56D
:1042F000ADE02F4B8FE008CF05920493EAE7EB0582
:10430000F2D56B461B7C05920493EDE740232A000F
:10431000089F1A401D4257D00722073797430CCFFA
:104320000492059380232A001A401D4250D06B4608
:104330001B8A04930023059310212B001C480B407B
:10434000844638930D4203D01B4B1D400023389305
:10435000069B0A980B993E93DB173F933E9A3F9B2F
:10436000801A994101220C9B524240936346089067
:1043700009914292439255200022419346A95054FC
:104380000132202AFBD18222D200154201D1012222
:1043900040926E2E65DC472E00DD92E0402E00DD5F
:1043A00083E000230C9392E07B5A0000825A0000C5
:1043B000C95A0000905A0000FFFDFFFF855A000017
:1043C000A15A0000885A000008CF05920493A9E77B
:1043D000EB05B1D56B461B7C05920493ACE7089FB7
:1043E0006B061AD50722073797430CCF0E920F930F
:1043F0002B0617D56B4638229B5E0E93DB170F9367
:104400000F9B002B16DA0E980F99002342428B4126
:1044100004920593C54B9C4619E008CF0E93DB1719
:104420000F93E5E7EB05EBD56B4638229B181B781D
:104430005BB2E2E70E9A0F9B04920593BC4B9C463D
:10444000AB0704D4BB4B9C466B0700D451E7002359
:10445000EFE610231D4200D08FE51D43033B0C9374
:104460008BE530006F3809289BD800F014FFCC0092
:10447000B2009AFF9AFF9AFF9AFF47019AFF9AFFAC
:10448000B20000F008FFA6008EFF8EFF8EFF8EFFA9
:104490008EFF8EFF8EFF8EFF3D018EFF8EFF3B0154
:1044A0003D013D013D018EFF3B0132000123413AB8
:1044B0009340512218001040134200D020E10C908C
:1044C00005E03000002358380C931128D9D98023F7
:1044D0002A00DB001A403A921D4200D11FE100235E
:1044E0004093429B002B01DD013B4093439B002BFB
:1044F00003DD409A013BD31840930C9B409A4198AE
:104500009E1800F0D7FA149B9E1B331A3893012390
:104510002B403B93884B1D4200D13CE1002312937A
:10452000DB171393419B129E5A1C41921B781493E4
:10453000002B00D032E13B9B002B15D13033399357
:10454000AB0501D420233993F317389D1A961B939A
:10455000013D00D443E1389B38995A1EDB43DB17F9
:104560000B40D21A3892F6183A9B002B00D08FE1FC
:10457000F31710961193409B109E013B4093002B24
:1045800000DBD7E1F3171D930C9B1C965D1E002BDF
:1045900000DDF0E10C9BD843C017184086197BE181
:1045A0000F23049E1E40389B9E5D059B56541B079F
:1045B0009C46049B01321B091800059B1E0963469B
:1045C000034304930596049E059B0C921E43E7D17A
:1045D0007DE7002246A9F6E70721049808400599DF
:1045E000303049078C4604999854CE080599013318
:1045F000C8086146314304910590049805990C93CD
:104600000843E9D163E7002346AAF6E7059B049A2D
:10461000DB0752081A43059B32925B083393049AD6
:10462000059B92089B071A43059B34929B08359380
:1046300034983599329A339B12184B411907100957
:10464000084319092C902D912C982D9912184B4143
:104650001906100A0843190A2E902F912E982F99A7
:1046600012184B411904100C0843190C3090319169
:104670003098319912184B4100213C933D913C9860
:104680003D9912184B415907D00808432A90002140
:104690000620DB082B93049A059B12184B412A989D
:1046A0002B990C920D930A22002300F0AAFD0C9A7C
:1046B0000D9B121A8B411000190002091B071A43A7
:1046C0000B0936923793369837992A9A2B9B801884
:1046D00059410A224243049B0490059130339B1AAE
:1046E0009C4628233CAAD218634693550136049B66
:1046F000059A0C96134300D088E7E8E60026F6E713
:1047000043AB039342AB029340AB019341AB0093A5
:1047100030002B00569E46AA44A9B047CFE6409BE6
:104720000C9A9B1A00D4E7E63A9BE5E68A5A000009
:104730008E5A00008C5A000001020000099B159A55
:10474000934204DC0DD1089B149A934209D9A368C3
:10475000013BA360002B19DB23685A1C2260202236
:104760001A700120149A159B002112184B411492C3
:104770001593389B5A1E149BD31ADFD5389B389952
:10478000DB43DB170B40D21A3892C8E62100202009
:1047900000F0E0F9E5E700220023E8E7099B139A1F
:1047A000934204DC0DD1089B129A934209D9A36865
:1047B000013BA360002B0DDB23685A1C2260149A76
:1047C0001A700120129A139B002112184B41129269
:1047D0001393A7E62100149800F0BCF9F1E7099BB8
:1047E0001B9A934204DC0DD1089B1A9A934209D973
:1047F000A368013BA360002B0DDB23685A1C2260D9
:10480000399A1A7001201A9A1B9B002112184B41E9
:104810001A921B939CE62100399800F09BF9F1E76E
:10482000149A46ABD05CF3173C2825D03E286BD1B8
:1048300016961793439B169D013B4393002B23DB56
:10484000099B179A934204DC0DD1089B169A934258
:1048500009D9A368013BA360002B50DB23685A1CD5
:10486000226030221A700120169A179B002112181C
:104870004B4116921793DDE718961993429B189DAA
:10488000013B4293002B19DA2E00149B0133149341
:104890000C9B149A9342C3DC3B9B002B0BD0F31769
:1048A000389D26962793013D00D486E0389BD84357
:1048B000C01718403618069B9B1935E4099B199AB6
:1048C000934204DC0DD1089B189A934209D9A3683E
:1048D000013BA360002B0DDB23685A1C22603022B1
:1048E0001A700120189A199B002112184B41189236
:1048F0001993C3E72100302000F02CF9F1E72100E3
:10490000302000F027F9AEE7099A751C934203DBCB
:10491000BAD1089BB342B7D9A368013BA360002B6F
:1049200004DB23685A1C22601870ADE7210000F0F8
:1049300011F9A9E7099B119A934204DC0DD1089B58
:10494000109A934209D9A368013BA360002B0DDBA9
:1049500023685A1C226030221A700120109A119B81
:10496000002112184B411092119304E621003020CF
:1049700000F0F0F8F1E7099B1D9A934204DC0ED198
:10498000089B1C9A93420AD9A36846AA013B505D32
:10499000A360002B0DDB23685A1C226018700120D5
:1049A0001C9A1D9B002112184B411C921D932B0039
:1049B000ECE5210000F0CEF8F1E7099B279A93423D
:1049C00004DC0DD1089B269A934209D9A368013BC8
:1049D000A360002B0DDB23685A1C226020221A7072
:1049E0000120269A279B002112184B4126922793DB
:1049F00059E72100202000F0ADF8F1E70EB430B502
:104A000096B019AB20CB04003C22002107A80693E6
:104A100000F07CF80A2301220A93114B00950993B8
:104A2000104B52420293069B07A801930C4B07942C
:104A3000FFF744F9099B04000593013B0993002B00
:104A400008DB0023079A1370200016B030BC08BCA6
:104A500003B0184707A9002000F07CF8F4E7C0462F
:104A6000FFFFFF7FB93C0000F0B5C56804000120DE
:104A7000AE070CD080208000824213D08020C0007E
:104A8000824205D08020400082420BD0FF38F0BD2A
:104A90002100012324312A43002021612160E361A8
:104AA000E260F4E7024F5E1E0120BE42F3D9EEE75A
:104AB000FEFFFF00032310B5411C0200184217D16E
:104AC000104C1368104818189843204217D0DCB2D5
:104AD000501C002C11D0FF242402901C23420CD027
:104AE000FF2000040340581E8341D318D81C04E063
:104AF0000130421E1278002ADFD1401A10BD043264
:104B0000DFE7C04680808080FFFEFEFE10B500F02B
:104B1000A5FB10BD2023C26810B59A43C26083690B
:104B2000826A040093420CD000F0F6F8E368074A6A
:104B30001A4010231343E360A36AA3612369E3626D
:104B40002360E268024B1340E36010BDEFCFFFFF2C
:104B5000BFBFFFFFF8B5CA684F4B050013400C00FC
:104B6000CB60930602D50800FFF7D4FFA268E66881
:104B7000531C0FDAB3050DD402235B429B1AA360CA
:104B800090235B021E432368E6605A1C22601D705E
:104B9000E8B20AE0414A3240022A07D00023A3606B
:104BA00080331E43E66001204042F8BD80213C4B2B
:104BB000090233408B420AD10021200000F0ECF9B9
:104BC000E3689B0602D52000FFF7A4FFE668902368
:104BD000F0225B0233431201E360164210D1606998
:104BE00000F070FB002821D073051FD5230024336B
:104BF000236123600123E36192235B023343E3607B
:104C000090210901226826690B4225D0E36A9A4265
:104C100000D91300991BB34217D1731CE3622360C0
:104C2000E3695A1EA26023633570B1E780277F00D5
:104C3000380000F051F99423E2685B0233431A43D1
:104C400020612060E761E260DAE72200300000F0D6
:104C500093F80028E1D0A6E7511CE8B2216010705B
:104C6000E26A21688A4200D91100E269891B226345
:104C70005B0504D40A2802D08A4200DD88E70023BD
:104C800022003000E6622660A36000F075F800287C
:104C900000D088E77CE7C046FFFFF7FF8A100000DE
:104CA00010A00000F7B50D0001901000140000F0F6
:104CB00023F92B78722B1CD0772B1DD0612B26D19A
:104CC000144A593B0220691C032784460426012507
:104CD00008782B2813D0622816D0E260019A62610E
:104CE0001B0704D502220021200000F055F9200006
:104CF000FEBD00230122E5E704230222E2E760462D
:104D00003A4303430131E3E732432B43FAE70024FC
:104D1000EDE7C04602800000C368154A70B51A402E
:104D2000C2608222040005690168C66A1A40022A2C
:104D300002D00120404270BD802218005202104073
:104D40001342F8D0B14200D231008D4208D1002088
:104D5000E268084BE56213402560A060E360EAE783
:104D600022002800491B00F007F80028EFD0E0E7F8
:104D7000FFFFF7FFFFFFFEFFF7B5D5680F00140038
:104D800056690190EB0205D5102330001D4300F059
:104D900096FAA061104B1D420FD03000A16900F0BF
:104DA00097FA002806DA80230120E2684042134384
:104DB000E3600FE0094B1D40E56001993A003000C7
:104DC00000F08CFA4100A3694908791A5918A161C9
:104DD0000028E8D1FEBDC04610000200EFFFFDFF35
:104DE000F7B50027304BC21C1C689508B84217D095
:104DF0002B000A3380210193EB1C9C464905002CB3
:104E000010D10C3000F06EF9431C09D080239B05B3
:104E1000036045608460002F44D1234B18601AE082
:104E20000020FEBD23688B4239D1A7686368002F3C
:104E300009D03E688E4206D17E680333F318636062
:104E4000BB68A360F1E7AB4207DB634505DC802369
:104E50009B05236020000C30E3E7019EB34211D98B
:104E6000802189052160032120008A4380210C30A4
:104E70005B1B82184905033B6560A26011605360AB
:104E80009760CEE7002F0AD19B00C01A00F02AF9E4
:104E9000431CC5D080239B0523606560DAE72700AB
:104EA000A468ACE7B860D6E78418001010B50028F5
:104EB00011D080210C38490501608268002A0AD08F
:104EC00013688B4207D14368546803331B1943604E
:104ED00093688360F1E710BD10B5FFF781FF041EF2
:104EE00005D11722034900F0F9F900F0E4F9200098
:104EF00010BDC046B25A0000F0B5C568040089B0C4
:104F0000AB0722D02B0718D44769066900F022F8B6
:104F1000380000F0D1F92B0502D53000FFF7C6FFAD
:104F20000B4BAD0DAD059D4207D120226846216A8D
:104F300000F0D1F9684600F0CBF83C2200212000B7
:104F4000FFF7E4FD002009B0F0BD01204042FAE780
:104F5000000080AD73B5002813D000F0E5F805001F
:104F6000280076BD30006043094BC01800F0DCF823
:104F7000002801D001256D420134019BA342F1DCE0
:104F8000EEE7044B04001B6805003C260193F4E7A0
:104F90008C180010CC5A0000F7B5394BC6680400D5
:104FA0000D0000921E4202D102273800FEBD436967
:104FB0001800019300F086F9071EF5D1009B012B24
:104FC00005D0022B2CD0002B05D00237EDE72000B6
:104FD00000F05AF82D18002DE6DBB30404D5236841
:104FE000E26A9A4200D2E362A169A9420EDCE26A57
:104FF0002368934200D21300226958180092801A45
:10500000A84203DB206B0A18AA4228DC20231E4397
:105010000023A562A36063601A4B1E40E660C4E7EC
:10502000019800F04CF9E268002804DA8023134369
:105030000127E360B9E7E16A2368994200D90B00D0
:10504000A1695B1821695B1A920603D5A26A934293
:1050500000DA1300834200DA0300ED18BBE76D1A93
:10506000B20701D5281AA060F20703D5009A9B1A4F
:10507000EB1A6360009B5D19202325609E43CBE7FC
:1050800003001000BFCFF7FFC268930705D12122AC
:1050900001200E4B40421A60704720231340120338
:1050A0000AD5002B02D0806A0138F5E703688269CF
:1050B00000699B18181AF7E7002B01D0806AEBE70C
:1050C0000368826900699B18181AE5E788180010C0
:1050D00010B50400FFF7EEFC0100200000F0F5F829
:1050E00010BDFFFF70B50D4D04002B68002B01D1E2
:1050F0000B4B2B6003232E6803349C433419200090
:1051000000F036F8002802D12C60300070BD0C226F
:105110000126044B76421A60F7E7C046801800105B
:105120006C1A001088180010C36870B503221E00A6
:1051300004001640134211D09B0611D5856AFFF773
:10514000E9FCE268094B20001340E360FFF7E4FD4F
:105150000022060029002000FFF71EFF300070BD6E
:10516000036882699D180369ED1AEAE7FFCFFFFF24
:1051700003000448002803D000228342524110005B
:105180007047C0460000000003000B4321D40029F3
:1051900031D00122D207030901E009011209994225
:1051A000FBD9430801E0490052089942FBD900E0CD
:1051B0004908401A07D35241FAD3014610467047B6
:1051C00049084018F7D29218FAD340180146104601
:1051D0007047CB0F00D04942021000D540425340E7
:1051E00008B5FFF7D4FF0CBC521000D34042002A90
:1051F00000D549421847F446002000F001F8604706
:10520000704710B543435143C918040C130C5C4359
:10521000091992B2040C544380B243435043220410
:10522000240C801861411A041B0C8018594110BDD0
:105230008446830708D18B0706D1131F04D304C902
:1052400004C0043BFBD21A1D524205D0891A801AB1
:105250008B5C83540132FBD1604670478446043A2C
:1052600009D3830707D109060B0A19430B0C19430D
:10527000043A02C0FCD2043203D001700130013A7A
:10528000FBD1604670478C4671460139095C490084
:105290008E44614670478C46411E7144095E490048
:1052A0008E44614670478C46411E7144095A49003C
:1052B0008E4461467047FEE701204042704701205E
:1052C00040427047012040427047012040427047F1
:1052D0000120404270470120404270471000704753
:1052E000000000000000000030787830300030000E
:1052F0006C6C6C00000000006C6CFE6CFE6C6C0052
:10530000307CC0780CF8300000C6CC183066C6007F
:10531000386C3876DCCC76006060C000000000009D
:105320001830606060301800603018181830600065
:1053300000663CFF3C660000003030FC303000006E
:105340000000000000703060000000FC0000000061
:105350000000000000303000060C183060C08000F3
:1053600078CCDCFCECCC780030F030303030FC0015
:1053700078CC0C3860CCFC0078CC0C380CCC7800A5
:105380001C3C6CCCFE0C0C00FCC0F80C0CCC780067
:105390003860C0F8CCCC7800FCCC0C1830606000D1
:1053A00078CCCC78CCCC780078CCCC7C0C18700045
:1053B00000003030003030000000303000703060CD
:1053C000183060C0603018000000FC00FC000000D5
:1053D0006030180C1830600078CC0C1830003000A9
:1053E0007CC6DEDEDEC078003078CCCCFCCCCC00D5
:1053F000FC66667C6666FC003C66C0C0C0663C001D
:10540000FC6C6666666CFC00FE6268786862FE0092
:10541000FE6268786860F0003C66C0C0CE663E0000
:10542000CCCCCCFCCCCCCC007830303030307800D8
:105430001E0C0C0CCCCC7800E6666C786C66E60032
:10544000F06060606266FE00C6EEFED6C6C6C600AC
:10545000C6E6F6DECEC6C600386CC6C6C66C3800D8
:10546000FC66667C6060F00078CCCCCCDC781C00FC
:10547000FC66667C786CE60078CCE0381CCC780062
:10548000FCB4303030307800CCCCCCCCCCCCFC0070
:10549000CCCCCCCCCC783000C6C6C6D6FEEEC6008E
:1054A000C6C66C386CC6C600CCCCCC783030780020
:1054B000FECC983062C6FE00786060606060780064
:1054C000C06030180C0602007818181818187800F8
:1054D00010386CC60000000000000000000000FF53
:1054E00030301800000000000000780C7CCC760002
:1054F000E0607C666666BC00000078CCC0CC7800BA
:105500001C0C0C7CCCCC7600000078CCFCC0780065
:10551000386C60F06060F000000076CCCC7C0CF859
:10552000E0606C766666E6003000703030307800FF
:10553000180078181818D870E060666C786CE6006F
:1055400070303030303078000000ECFED6C6C60037
:105550000000F8CCCCCCCC00000078CCCCCC7800CF
:105560000000DC66667C60F0000076CCCC7C0C1E13
:105570000000D86C6C60F00000007CC0780CF80073
:1055800010307C30303418000000CCCCCCCC76000D
:105590000000CCCCCC7830000000C6C6D6FE6C0033
:1055A0000000C66C386CC6000000CCCCCC7C0CF87B
:1055B0000000FC983064FC001C3030E030301C00EF
:1055C0001818180018181800E030301C3030E000AF
:1055D00076DC00000000000010386CC6C6C6FE0075
:1055E00078CCC0C0CC78306000CC00CCCCCC7E0075
:1055F000183078CCFCC078007EC33C063E663F0085
:10560000CC00780C7CCC7E006030780C7CCC7E00AA
:105610003C663C063E663F000078CCC0CC783060EB
:105620007EC33C667E603C00CC0078CCFCC0780039
:10563000603078CCFCC07800CC007030303078001E
:105640007CC6381818183C00603070303030780054
:10565000CC3078CCCCFCCC0030483078CCFCCC00C2
:105660001830FC607860FC0000007F0C7FCC7F006D
:105670003E6CCCFECCCCCE0078CC0078CCCC780084
:1056800000CC0078CCCC780060300078CCCC7800AE
:1056900078CC00CCCCCC7E00603000CCCCCC7E0072
:1056A00000CC00CCCCFC0CF8C6007CC6C6C67C0086
:1056B000CC00CCCCCCCC780000007CCED6E67C00F4
:1056C000386C64F060E6FC003A6CCED6E66CB8004C
:1056D0000000CC783078CC000E1B187E1818D870DB
:1056E0001830780C7CCC7E00183070303030780068
:1056F0000C180078CCCC78000C1800CCCCCC7E00F8
:1057000076DC00F8CCCCCC0076DC00ECFCDCCC0009
:105710003C6C6C3E007E00003C66663C007E0000F7
:1057200030003060C0CC78003C5AA5B9A9663C0076
:10573000000000FC0C0C0000E66C787E63CE981F25
:10574000E66C787367CD9F0300180018183C3C186E
:10575000003366CC6633000000CC663366CC0000B4
:10576000228822882288228855AA55AA55AA55AA95
:10577000DD77DD77DD77DD77181818181818181819
:1057800018181818F81818180C183078CCFCCC0019
:1057900078843078CCFCCC00C0603078CCFCCC0075
:1057A0003C42B9A1B9423C003636F606F6363636EA
:1057B00036363636363636360000FE06F63636369D
:1057C0003636F606FE00000018187EC0C07E181897
:1057D000CCCC78FC30FC303000000000F8181818F1
:1057E000181818181F00000018181818FF000000DB
:1057F00000000000FF181818181818181F1818189B
:1058000000000000FF00000018181818FF181818F2
:1058100076DC780C7CCC7E0076DC3078CCFCCC005E
:10582000363637303F00000000003F30373636361E
:105830003636F700FF0000000000FF00F73636366E
:1058400036363730373636360000FF00FF000000AE
:105850003636F700F73636360082FE6C6CFE820074
:10586000D870D80C3C6C3800FC6C66F6666CFC009A
:105870007884FC607860FC00CC00FC607860FC0000
:105880006030FC607860FC0000C040E00000000078
:1058900018307830303078007884783030307800C4
:1058A000CC0078303030780018181818F800000054
:1058B000000000001F181818FFFFFFFFFFFFFFFF89
:1058C00000000000FFFFFFFF18181800181818004C
:1058D0006030783030307800FFFFFFFF00000000BC
:1058E00018307CC6C6C67C000078CCF8CCF8C0C0A6
:1058F0007C827CC6C6C67C0030187CC6C6C67C00CE
:1059000076DC0078CCCC780076DC7CC6C6C67C0021
:1059100000666666667C60C000E0786C7860F000C7
:10592000F0607C667C60F0001830CCCCCCCC780089
:10593000788400CCCCCC78006030CCCCCCCC780057
:10594000183000CCCCFC0CF81830CCCC7830780077
:1059500000FC000000000000183000000000000003
:1059600000000000FC0000003030FC303000FC0083
:10597000000000FC00FC0000E62C7833E7CD9F031C
:105980007FDBDB7B1B1B1B007EC378CCCC788CF8C9
:10599000303000FC003030000000000000003060BB
:1059A000386C6C380000000000CC000000000000E3
:1059B0000000000018000000387818187E00000071
:1059C0000030383C3C38300000666666666666002B
:1059D000007E7E7E7E7E7E000000000000000000D3
:1059E0004150D4412CD4420201D4422601D4422653
:1059F00009D442260BD442260FD442100142200281
:105A0000422402422801422AD042300042320E4251
:105A1000340D42360041614240004342028143431B
:105A200002814151D476302E3038002846656220FC
:105A30002031203230323229007761747465726F00
:105A400074742E636F6D0050253033692048253003
:105A50003369205625303369004E415600454E4388
:105A6000007072657373004E6F20636F6E666967B6
:105A700020646174612E0072007700286E756C6C72
:105A8000290030580030780030002D0020002B0015
:105A90003031323334353637383941424344454664
:105AA00000303132333435363738396162636465FA
:105AB00066002A2A2A205F437379735F616C6C6FDA
:105AC00063206661696C65640A00FFFF08000000DE
:105AD00020FFFFFF8025000021050000C504000015
