:10000000E01F0010150200001D0200001F0200008A
:1000100021020000230200002502000066D3FFEF4A
:1000200000000000000000000000000027020000A7
:1000300029020000000000002B0200000104000063
:100040002F0200002F0200002F0200002F020000EC
:100050002F0200002F0200002F0200002F020000DC
:100060002F0200002F0200002F0200002F020000CC
:100070002F02000031020000330200003123000093
:1000800037020000390200003B0200003D02000080
:10009000F524000001260000000000000000000020
:1000A000430200004502000047020000000000007B
:1000B000490200004B0200004D0200003126000002
:1000C0003449072291438D46334934480A1A06D0F1
:1000D0000722914381F30988022282F31488304871
:1000E0003049314A00F043F830483149314A00F094
:1000F0003EF831483149324A00F039F83148324946
:10010000324A00F034F832483249334A00F02FF8CE
:1001100032483349334A00F02AF833483349344AE5
:1001200000F025F833483449002200F02BF833481A
:100130003349002200F026F832483349091A0829C9
:1001400003DB00220260043001601F481F4988421F
:1001500005D00268043003B4904703BCF7E70020E1
:100160008646EC4600200021284A9047FEE7884258
:1001700007D0521A05D0037801300B700131013AD3
:10018000F9D17047884202D002700130FAE7704717
:100190001F487047E01F0010E01F0010E01F001014
:1001A000D86D0000000000102C0000105802000064
:1001B0005802000000610000D86D0000000000102F
:1001C00000000010006100000061000000610000FC
:1001D000006100000061000000610000006100009B
:1001E00000610000D86D0000046E00002C000010BB
:1001F0002C0000102C0000109C1800109C180010FF
:10020000A0180010A0180010A01900106112000022
:10021000FFFFFFFF0E480F49016051E7FEE7FEE7D1
:10022000FEE7FEE7FEE7FEE7FEE7FEE7FEE7FEE7A6
:10023000FEE7FEE7FEE7FEE7FEE7FEE7FEE7FEE796
:10024000FEE7FEE7FEE7FEE7FEE7FEE7FEE7FEE786
:080250000080044002000000E0
:10025800094B421E01209A420DD8084BC0215A6012
:10026800074A0906106A0002000A014311620020C9
:10027800072298601A607047FFFFFF0010E000E057
:1002880000ED00E0F8B54F4B4F4C984217D006D818
:100298004E4B98420CD04E4B98420CD005E04D4B3B
:1002A80098420FD04C4B98420FD02060002104E0B8
:1002B800206000210BE020604121002208E020603E
:1002C800412104E020604221F7E720602221012239
:1002D80072B6424B8E2080001D58002A05D0202679
:1002E800B5431D500020186202E00326B5431D5097
:1002F800C820C04601380028FBD101251A645D6476
:1003080058645D645E6C012534482E42FAD0002999
:1003180015D081608E21890045588026B543455007
:10032800DD6801202D490542FAD003250D67002517
:1003380048674D674867596FC807FCD50DE00267E5
:10034800456741674567596F2448CD07FBD58E211E
:10035800890045588026354345508E218900002A5A
:1003680002D05A58032001E05A58202002435A501C
:1003780025681B4A1B4B954201D9022205E01A4AFF
:10038800954201D9012200E00022DA6000221A61B8
:10039800281C164904F066FC154E164B37680138C0
:1003A8001F4000020743FA2189003760281C04F027
:1003B80059FCFFF74DFFFF2002F0E8FA62B620680B
:1003C800F8BDC0460048E801040000100024F4000D
:1003D80000366E0100512502006CDC0200800440EA
:1003E800FF59620200000140FF2C310100093D0065
:1003F80000C00140FF00FFFF024B1A6801321A607B
:100408007047C0462C000010094A8121131C903304
:1004180010B51960074B002119628021090258584C
:1004280008242043585094320123136010BDC0465D
:10043800004004400000015010B505283CD010D8F9
:1004480004287DD13F4A022313603F4B10201968CE
:100458000143196018688021490401431960111C7F
:100468001DE0072840D0FF286AD1364B81221A6048
:10047800364A0821802311628B40D058202401433A
:10048800D150334901230B602F4B18682043186063
:100498001C6880204004204318600C1C40E0186A47
:1004A800294A0028FBDA10682A4B03401360106AB7
:1004B80091230004800D31E0254A01231360224B6B
:1004C80020201968014319601868802149040143F4
:1004D8001960111C586A1C4A0028FBDA10681D4B69
:1004E80003401360506A16E01B4A01231360164B41
:1004F8008020196801431960186880214904014364
:100508001960111CD86A104A0028FBDA1068114BD0
:1005180003401360D06A0004800D90230B6010E044
:10052800586A09490028FBDA08680A4B03400B603F
:10053800486A8023236000040023800D136200E0D2
:10054800002010BD9040044000C001400000015050
:100558009440044000FFFFF898400440084B1A7884
:1005680010431870074B1B789A0608D5064B1A7863
:10057800A023D2B2DB05002A00D008221A627047F5
:10058800361000103000001035100010094B1A7892
:1005980082431A70084B1B789A0609D5074B1A78BC
:1005A800A023DB05002A01D1082200E000221A62FC
:1005B8007047C0463610001030000010351000108B
:1005C800014B18687047C0462C000010034B19688F
:1005D8001A68521A8242FBD37047C0462C0000109A
:1005E80038B50C4A041C0C4D02D1906368600EE0CB
:1005F800031C642800D96423DCB22004012393631C
:10060800001B6B60642104F00FFBC043A861201C31
:1006180038BDC0460040044000000140274AF8B5F4
:1006280008231362264B20241968151C21431960DE
:100638001C6880214904214319601C1C626A204BF4
:10064800002AFBDA1A681F4920270A401A605A6AEA
:100658001E6812043E431E601F68802676043E43CF
:100668001E60920D0B1C666A1549002EFBDA0C6899
:1006780023400B604B6A00211B0429629B0D124C1E
:100688009A4213D1C821642389008A4203D80A23D5
:10069800642A00D9D30822789B18DBB25B0883420E
:1006A80001D8237000E02070207803E02378002B25
:1006B80002D12070FFF794FF2078F8BD00000150A8
:1006C80000C0014000FFFFF83410001008B50028F2
:1006D80002D1034B186801E0FFF7D4FD08BDC046FE
:1006E8000400001070B572B6294B12211A1CFC3296
:1006F80051658E2189005858102290435850012185
:10070800244899670433D867A02480231B02E40592
:10071800E55804202840E0501F48051CA435C26154
:100728002A604266E65808253540E550C2621B4AF1
:100738000024D0580843D0505460194A8020D55816
:1007480080002843D05080231B01D450154B4A42C7
:100758009C60DC601C611C675C619A61212259679E
:10076800DA635960104B11491D68281C04F07AFAA5
:100778000F4B0138000218600E4BFA211C608900EB
:10078800281C04F06FFAFFF763FD62B670BDC0461F
:10079800008004405F210100004004400000035035
:1007A80000000150000001400400001000093D0055
:1007B80000C001402C000010F0B593B0029318ABB4
:1007C8001B78041C039319AB1D781AAB1E881BAB4E
:1007D8001F880091019203F0A5FC026805AB0A92FC
:1007E80042680D210B9282689C710C92C268DE816E
:1007F8000D9202695D730E92426980690F92019AA7
:1008080010901A73009A181C0792039A1F825A7143
:10081800029A1A71034A0592034A01F0A7FB13B022
:10082800F0BDC046EFBEADDE340000100000000091
:10083800F0B593B00591664A06A90B1C071C31CA8E
:1008480031C313CA13C303F0F7FD03F091FC03F09F
:100858007DFC002826D0059803F05CF800230A20C8
:10086800019302930097011C5A4A012302F0AAF946
:1008780003F06CFCC82815D903F07AFCF8E702F0FD
:1008880007F8002800D093E0049C022C2BD9049D83
:10089800FF2D00D191E006A80CA903F0C9FB0028A0
:1008A80000D18AE0059803F035F8B42003F070F819
:1008B800494E4A4D0024802082212A1C022300969A
:1008C80001940294000202F07DF9201C03F060F804
:1008D8008020009601940294000282212A1C02239F
:1008E80002F070F90494049806ADC4002E19285B30
:1008F800B1880F223B1C02F0A9FA2A5BB388101CAE
:100908000A38033A191C80B292B2009702F02EFFFF
:100918002A5BB388D01C0A32191C80B292B20097A5
:1009280002F024FFB3882A5B191C0A39033B101C08
:1009380089B29BB2009702F019FFB3882A5BD91CD1
:100948000A339BB2101C89B2009702F00FFF03F024
:100958000FFC03F097FA03F0C3FD1C4B1A4A04F08E
:10096800D1F800288BD0F823285BB18804221B0219
:1009780002F0C6FBC8204000FFF728FE285BB188BC
:100988000F22059B02F0BCFB03F0ECFB0CAD6051A1
:1009980003F0E2FB2C196060049C0134E4B2049477
:1009A80003F0D4FBC82800D869E703F0E1FBF7E7B8
:1009B80001F02EFF002800D066E703F03DFD059802
:1009C80002F0A8FF13B0F0BD0000000000C07240A4
:1009D8000061000018610000108400002C61000014
:1009E800F0B5594C95B023780690DBB207910B937C
:1009F80003F022FDFFF708FD12232370F8230020DF
:100A08001B02011C00936A22EF2302F033FBFC2334
:100A1800DB0000936A200021D422EF2302F02AFB96
:100A28001F2340220093D4200021FF32EF2300240B
:100A380002F020FB80207321444A231C0094019477
:100A48000294000202F0BEF880207D21404A231C57
:100A5800009401940294000202F0B4F880203D4A08
:100A68000094019402940002E621012302F0AAF8FE
:100A78000122261C0A940994059203F079FB03F0DD
:100A880001FA354D089000282AD003F069FA041CB1
:100A980003F0FEF9099B071C9C4202D10A9A904276
:100AA8001AD0201C391C0422069B02F029FB089B43
:100AB8002A490093221C231C0CA804F083F9079BE5
:100AC800069A01930520012300920293011C0CAAA7
:100AD800002302F077F80A9701236B60099401E07C
:100AE800089A6A60184B1B78DA0619D51C4B1A68E5
:100AF800921B632A14D964201E68FFF78FFD1949D9
:100B0800021C0CA804F05EF9069B079A00930123C7
:100B18000192029305200F210CAA002302F052F83B
:100B280001F0B6FE002802D001F072FE0590059B88
:100B3800002BA2D16B60079802F0ECFE024B0B9AD7
:100B48001A7015B0F0BDC0463000001038610000C2
:100B58003E6100004C610000000003505A61000033
:100B68002C0000106C610000F0B589B00790081CDB
:100B780005920F1C02F0CEFE059A0224D20093B211
:100B880006920493261C01F083FE00282FD001F062
:100B98003FFE051E0A2D05D00D2803D0092808D1CF
:100BA800202506E0002E10D0049A0226A418A4B22C
:100BB8000BE0079B301C0093012302930197211C33
:100BC8002A1C059B01F03AFF061C02F00DFF864225
:100BD80003D3049A0226A418A4B202F00BFF069AC3
:100BE800A318834203DB381C02F094FE0224002D74
:100BF800C9D1381C02F08EFE09B0F0BDF0B5B04E78
:100C080087B0019131680490884732680290904714
:100C18003368059098473168041C8847051C01F023
:100C2800F7FD7F23021C9A43D2B2071C1F40039290
:100C380003F020F9029B05991A194B19013A013B57
:100C480092B29BB2029802F019FF02F001FF022F44
:100C580007D0042F0AD0012F10D19A4A00230192FD
:100C68000BE0984A00210191049207E00199049B46
:100C78004B4059404B4001919BB20493924B1A68E8
:100C8800039B0292002B00D0BEE065430B2F05D8D2
:100C9800082F44D27B1E032B18D984E02C1C182F54
:100CA80000D1A5E07FE001F0F3FD002816D001F0A7
:100CB800AFFD2E1C071C083E8024274209D004984B
:100CC800013D02F0B1FE6408B54204D1002DEAD11D
:100CD8000CE00198F4E7002DEFD1F7E77A49029B81
:100CE8000A68D21AFA23DB009A42EFD903F0B8F85F
:100CF80007B0F0BD0A2F3AD1C02238230240034082
:100D080009217A434B4352019B001A430723184099
:100D18008300101C184380B202F086FE013D002DAE
:100D2800E4D001F0B5FD00282BD001F071FD082FAB
:100D38000CD10722E023024003401B0292001A4311
:100D480018231840152343439B000EE0092FD1D1E7
:100D5800032202400A235A43E02303401B021A439A
:100D68001C2318403B1C4343DB00101C07E0FC22FB
:100D7800F82303401040C0001A021043DB10184348
:100D8800CAE75149029B0A68D21AFA23DB009A4241
:100D9800C5D9ABE701F07CFD002807D0316888474A
:100DA80002F042FE013D002DF4D19FE7464B029927
:100DB8001A68FA23521ADB009A42F4D996E701F02E
:100DC80067FD002817D001F023FD061C01F020FD67
:100DD800FC23051C1D40F8231E4001F019FDED0001
:100DE8003602C0083543C0B2284302F01DFE013C5C
:100DF800002CE4D17AE7344B02991A68FA23521A84
:100E0800DB009A42F4D971E7039A802A00D06DE793
:100E180065430B2F07D8082F00D383E07B1E2F1CB8
:100E2800032B15D916E10195182F00D153E111E1D3
:100E3800002F09D0039B2B4222D00498013F02F0D7
:100E4800F3FD6D08B742F3D1013CE4B2002C19D18F
:100E5800002F00D14AE701F01BFD002827D001F040
:100E6800D7FC051EAA2D11D101F0D2FC041E00D119
:100E78003CE701F0CDFC03903E1C083E8025D9E7F5
:100E88000198DBE7002FF7D10027E1E73E1C083E79
:100E98008024254201D0049800E00198013F02F027
:100EA800C3FD6408B742D3D0002FF2D1ECE706495E
:100EB800029B0A68D21AFA23DB009A42C8D915E7BE
:100EC80018000010FFFF00002C00001001F0E0FCEB
:100ED800002800D197E001F09BFCAA2853D101F02B
:100EE80097FC0190002800D100E701F091FC082F41
:100EF8001BD10726E023064003401B02B6001E4311
:100F08001823184015235843800006432C1C301C16
:100F180002F08AFD013C0199631BCB18DBB2002B60
:100F28002ED1251C002DD1D1E0E6092F0CD10326A6
:100F380006400A235E43E02303401B021E431C2392
:100F480018407843C000E0E70A2F0FD1C0263823A5
:100F58000640034009227E43534376019B001E430B
:100F68000723184080000643B6B2CFE7FC26F823D3
:100F7800034030401A02C6001643DB101E43C5E783
:100F8800002CC4D1CDE7082F0CD10722E023024062
:100F980003401B0292001A431823184015234343A9
:100FA8009B000EE0092F0ED1032202400A235A4368
:100FB800E02303401B021A431C2318403B1C4343F5
:100FC800DB00101C1AE00A2F10D1C022382302407F
:100FD800034009217A434B4352019B001A430723DC
:100FE80018408300101C184380B208E0FC22F82344
:100FF80003401040C0001A021043DB10184302F0EF
:1010080013FD6C1E8DE7464B02991A68FA23521A93
:10101800DB009A4200D969E62C1C82E701F038FC13
:10102800002821D0326890473E4B984218D101F0F1
:10103800EFFB071E00D159E6336898472C1C019036
:101048000198013C02F0F0FC631BFB18DBB2002B9B
:1010580003D1251C002DE1D148E6002CF0D1F8E79A
:1010680002F0E2FC6C1EF4E72D49029B0A68D21AD2
:10107800FA23DB009A4200D938E62C1CE9E701F094
:1010880007FC002841D001F0C3FB041EAA2C29D17B
:1010980001F0BEFB051E00D128E601F0B9FB041CD7
:1010A80001F0B6FBFC23061C1E40F8231C4001F08F
:1010B800AFFB2402F600C0082643C0B2019C0643D9
:1010C800301C02F0B1FC0199013C631AEB18DBB249
:1010D800002B04D10194019A002AD0D106E6002CF5
:1010E800EED1F7E701F094FBFC231840F8231C40ED
:1010F800C0002402044301F08BFBC008C0B22043A7
:1011080002F092FC019C013CE4E7054B02991A6845
:10111800FA23521ADB009A4200D9E7E5019CD9E785
:101128002C000010AAAA0000F0B5494D8BB0069219
:101138002A680891079090472B680490041C9847E8
:101148000990071C01F064FBC343DBB2DB0905937C
:10115800061C7F231E40731E1D2B00D90126069BEB
:101168000025AB4202D101F053FB051C049A8023F1
:101178001B029A420CD102F037FCF3006B4344087F
:101188005B10E41A02F030FCA4B2844280410440AF
:10119800099A80231B029A420AD102F02BFCB30061
:1011A8004008C01A87B202F025FC874280410740F8
:1011B800284B1B680493069B002B3AD1002D44D082
:1011C80001F066FB002816D001F022FB069002F021
:1011D8000BFC84420CD2079A089B0092059A019353
:1011E8000292201C391C069A331C01F027FC041CAF
:1011F800013DEDB2E2E7174B1A68049BD21AFA23B5
:10120800DB009A42DAD920E001F002FB051E1CD06F
:1012180002F0EAFB84420CD2079A089B0092059AD6
:1012280001930292201C391C2A1C331C01F006FC75
:10123800041C01F02DFB0028E6D1064B1A68049B1C
:10124800D21AFA23DB009A42F3D90BB0F0BDC0469C
:10125800180000102C000010F0B58FB0FFF742FA0C
:10126800B74CB84B2168181C8D791968A023DB0589
:101278001A69002A33D002F0C3FB23681A68B24BFC
:101288009A423DD0B14EB248FFF720FA301C0025F3
:1012980002F040FB0A20AF4A0123011C009501958A
:1012A800029501F08FFC3220FFF79AF9FA208000AE
:1012B800FFF78CF9281C311CFFF7BAFA9621009524
:1012C8000195029504208901202230230396FFF717
:1012D80073FA281C311CFFF783FB042510E0026811
:1012E800521A632AC7D8802212019B58002B01D1B9
:1012F8000425BBE7984B5D686B1E9D410135B5E73A
:101308002268964E10797043FFF7E0F9944B1B78EA
:101318009E0701D503F090F82668776AF269B169EB
:101328007069336A0097B76A0197F66A029602F005
:10133800FDFE2368DE8908961B8A0026181C069382
:1013480002F0E8FA27687879FFF74AF9236898687D
:1013580001F0B4F92168087B01F0BAF82368587BDA
:1013680001F0B0FA281C01F011FB0A960D960C96B4
:101378000996744B7A4D1C682B78D9060ED501F066
:1013880087FA00280AD10A9EF423FF33A21B9A4247
:1013980004D90998FFF742F90A9409902B78022694
:1013A800334217D00C9FE31B0D9FBB4207D302F0BB
:1013B800DFFE002804D0301CFFF7D0F800E00C9CBA
:1013C80001F066FA0C94002802D10A270D97D0E79D
:1013D80032260D9601F01CFA372800D168E300D9AF
:1013E800C6E0252800D16FE245D8112800D138E29F
:1013F8001ED8042800D198E10DD8022800D178E140
:1014080000D985E1012801D000F061FD554801F0BF
:10141800F1F900F05CFD062800D1DEE100D288E198
:10142800072800D10AE2102800D10EE200F04FFD93
:10143800202800D122E20DD8132800D119E200D2C9
:1014480012E2142801D000F042FD01F0E1F902F0A7
:10145800E3FC8EE7222800D11BE200D213E2232806
:1014680000D11BE2242801D000F031FD3E4B1B685F
:10147800984708907DE72E2800D152E227D82928DE
:1014880000D12FE20DD8272800D122E200D925E289
:10149800089806990122FFF767FB344B26201B6842
:1014A80034E12B2800D123E200D21DE22C2800D100
:1014B8002BE22D2801D000F00AFD2B4C2768B847F5
:1014C8002368051C9847069A011C281C26E2322826
:1014D80000D174E213D8244D302800D136E200D967
:1014E80048E22A6890472B68071C98472968061C19
:1014F80088472B68041C9847089A031C33E2342851
:1015080000D1A2E200D27DE2352800D1B7E2362828
:1015180001D000F0DCFC144C216888472268061CC6
:1015280090472368051C98472368071C9847F219B9
:101538002B18013A013B92B29BB2069FB2E2C04619
:10154800000000102C000010EFBEADDEFFFF000011
:10155800006CDC0275610000FC00015040420F0085
:101568003000001039610000180000102000001041
:10157800492800D1E0E377D8402800D15EE341D87C
:101588003B2800D1E4E218D8C74C392800D1A9E299
:1015980000D9BFE2216888472268061C9047236863
:1015A800051C98472368071C9847F2192B18013A1D
:1015B800013B92B29BB2089FA6E23D2800D1FFE210
:1015C80000D2DEE23E2800D119E33F2801D000F026
:1015D8007EFCB54C216888472268051C9047236823
:1015E800061C98472168071C884723680590984778
:1015F800EA19059F013AF319013B92B29BB2009098
:10160800069F14E3442800D14CE312D8A64C422884
:1016180000D124E300D935E32668B0472768061CC3
:10162800B8472368051C9847291C021C089B301CD6
:1016380021E3462800D154E300D241E3472800D1F2
:1016480064E3482801D000F042FC974C236898478F
:101658002668071CB0472168061C88472368051CB4
:101668009847069A031C5FE3802800D1ADE326D88B
:101678004D2800D192E313D88B4C4B2800D170E34E
:1016880000D983E3236898472668071CB047216878
:10169800061C88472368051C9847089A031C6DE3B5
:1016A8004F2800D181E300D27BE3502800D185E3A5
:1016B800512801D000F00BFC0698089980E3842893
:1016C80000D195E309D8794B822800D18AE300D963
:1016D8008AE31C6802F044FCA6E3862800D1A5E34F
:1016E80000D28FE3872800D1E0E3FA2800D18CE00C
:1016F800EDE3099F002F02D13220FEF771FF089811
:101708000699FFF76DF96A4B02201B689847DEE3DC
:10171800684B1C78664BE4B2201C1B68984701F0A4
:101728008BF8201CFEF732FF23E6614B33201B6841
:10173800ECE701F06DF80138062800D919E603F046
:10174800C5FA0423282E33383F0001F019F9071C85
:1017580001F010F9061C01F007F9574B051C574911
:10176800186803F07FFAC4B201F0F8F80999089AEA
:10177800069B0091019002920393381C311C2A1C8D
:10178800231CFFF719F8F4E501F042F801F0FEF820
:10179800EFE54B4B1B68984700F090FFE9E501F037
:1017A80037F800F095FEE4E501F032F801F08AF828
:1017B800DFE501F02DF8414E7043FEF787FFD8E5CD
:1017C80001F026F8041C870701D502F035FEE10672
:1017D80001D5FEF719FE2C70CBE501F019F8013898
:1017E800052800D9C5E5A023DB0503F06FFA030A35
:1017F8001F14111C80221202985808210140995088
:10180800B7E5186A431E9841C0B2294B1B687DE7AB
:101818002C4A0021117080210902585808221043CF
:1018280058501A62A5E5274A012111708022120238
:1018380099580820014399500022F2E700F0E8FF88
:101848001A4B1C68FEF7F8FD21E000F0E1FFFF28C5
:1018580003D1174B09981B6858E7FEF7C1FE09909A
:1018680087E502F0CDF884E500F0D2FF02F0E2F956
:101878007FE500F0CDFF02F0DDFA7AE500F0C8FF61
:1018880002F086F875E5094B1C6802F0ADF8A04730
:101898001DE3064B1C6802F0ADF8F8E700F0B8FF4E
:1018A80002F0A4F965E5C046180000101400001005
:1018B80020000010361000100400001040420F00F5
:1018C8002400001035100010ED4B1B689847069057
:1018D8004FE508980699FFF791F94AE5E84B1B6828
:1018E800984702E0089800E0069802F013F840E5EF
:1018F800E34C226890472368061C98472368051C18
:101908009847291C021C301C08E0DD4C2668B047AB
:101918002368051C9847089A011C281C01F0DAFF67
:1019280027E5D74C216888472268071C9047236819
:10193800059098472168061C88472368051C984726
:1019480005990090321C381C2B1C10E02B68984716
:101958002E68071CB0472968061C88472B68041C9A
:101968009847069A031C0092381C311C221C01F06F
:10197800FDFEFEE42B689847079000F049FF2E68AB
:101988000B90B0472B68059098470024051C0B9EC8
:10199800A3B29E4200D1ECE4B94F013439688847BC
:1019A8003B68061C9847079A071C0092291C059853
:1019B800321C3B1C01F0DAFE3D1C0596E7E700F0FF
:1019C80027FFAF4D07902F68B8472B6805909847B9
:1019D8000024051C079EA3B29E4200D1C9E4A84F6B
:1019E8000134396888473B68061C9847089A071CE1
:1019F8000092291C0598321C3B1C01F0B7FE3D1CC7
:101A08000596E7E700F004FF9D4D07902F68B8475B
:101A18002B68059098470024051C079EA3B29E4298
:101A280000D1A6E4964F0134396888473B68061C04
:101A38009847069A071C0092291C0598321C3B1CE3
:101A480001F094FE3D1C0596E7E78D4C2768B847E2
:101A58002168051C88472268061C90472368071CD4
:101A68009847236805909847EA19059F013AF319A2
:101A7800013B009092B29BB2281C311C15E0804CAF
:101A8800216888472268061C90472368051C9847E8
:101A98002368071C9847F2192B18013A013B089F45
:101AA80092B29BB20097301C291C01F03BFE60E407
:101AB800734C216888472268051C90472368061CD8
:101AC80098472168071C8847236805909847EA19B2
:101AD800059F013AF319013B009092B29BB2281C72
:101AE800311C14E0216888472268061C9047236847
:101AF800051C98472368071C9847F2192B18013AC8
:101B0800013B069F92B29BB20097301C291C01F042
:101B1800B1FA2EE4216888472268061C904723689A
:101B2800051C98472168071C88472268059090473C
:101B3800236807909847F219059F013AEB19079F08
:101B4800013B019092B29BB20097301C291C33E0F4
:101B58004B4C216888472268051C90472368061C5F
:101B680098472168071C8847236805909847EA1911
:101B7800059F013AF319013B92B29BB20090089F6E
:101B880017E03F4C216888472268051C9047236866
:101B9800061C98472168071C8847236805909847C2
:101BA800EA19059F013AF319013B069F92B29BB2CD
:101BB80000900197281C311C01F06AFCFFF7D9FB43
:101BC8002F4C216888472268061C90472368051C0B
:101BD80098472168071C8847226805909047236822
:101BE80007909847F219059F013AEB19079F013BA7
:101BF800019092B29BB20097301C291C1AE0204C2D
:101C0800216888472268051C90472368061C984766
:101C18002168071C8847236805909847EA19059F9B
:101C2800013AF319013B089F92B29BB200900197C9
:101C3800281C311C01F0C3FAFFF79BFB104C2168EC
:101C480088472268071C90472368061C9847236822
:101C5800051C9847311C031C2A1C381C0BE0216802
:101C680088472268061C90472368051C9847069BEE
:101C7800021C291C301C01F0E9F8FFF77AFBC0466A
:101C880018000010236898472668071CB047216889
:101C9800061C88472368051C9847311C031C2A1C0E
:101CA800381C1AE08C4C226890472368061C984719
:101CB8002368051C9847291C021C089B301C0CE053
:101CC800854C2668B0472768061CB8472368051C5A
:101CD8009847069B021C291C301C01F011FAFFF7DB
:101CE80048FB7D4C216888472268071C9047236879
:101CF800059098472168061C88472368051C984763
:101D080005990090321C381C2B1C11E0724C22687B
:101D180090472368071C98472168061C8847236852
:101D2800051C9847089A031C0092381C311C2A1C71
:101D380000F094FFFFF71DFB674C2368984726685F
:101D4800071CB0472168059088472268061C904701
:101D58002368051C984705990090321C381C2B1CD9
:101D680010E0236898472668071CB0472168061CBE
:101D780088472368051C9847069A031C0092381C5C
:101D8800311C2A1C01F0D8FAFFF7F3FA23689847A8
:101D98002368051C9847011C281C04E0089806992C
:101DA80001E00698089900220BE04B4C2668B047E2
:101DB8002368051C9847011C281C01E0089806990F
:101DC8000122FFF7B1F9FFF7D4FA444C256802F075
:101DD800C7F8A847256802F05BF8A847246802F00E
:101DE80051F821E01C681DE01C6802F0AFF91BE007
:101DF80002F048F800280FD102F0BAF90520FEF7E2
:101E0800E5FBF5E702F0A2F9002805D002F0B0F9E9
:101E18000520FEF7DBFBF5E7304C256802F0A0F85B
:101E2800A847246802F034F8A0474DE002F08EF984
:101E3800002805D102F09CF90520FEF7C7FBF5E75D
:101E480002F08EF8051C02F023F8041C02F07EF95B
:101E5800002805D002F08CF90520FEF7B7FBF5E75E
:101E680002F07EF8061C02F013F8B54203D9AA1B4B
:101E78000123132A07DC0023B54204D2751B022371
:101E8800132D00DC0023844204D9221A132A01DD11
:101E9800042205E0844204D2041B132C01DD08222D
:101EA8001343D8B20E4B1A6890470DE0099F002FD4
:101EB80002D13220FEF794FB08980699FEF7B8FC89
:101EC800074B87201B6898470220FEF75FFB00F04E
:101ED800B3FCFFF74EFAC0461800001014000010BB
:101EE8002000001000B532238BB0059306900791AF
:101EF80005A801A9024B984701980BB000BDC04640
:101F0800F11FFF1F00B58BB0332306900020059307
:101F180008920791FEF7DAFBFA21890002F0A2FE87
:101F280001A90990024B05A8984701980BB000BD7C
:101F3800F11FFF1F00B5031C8BB007208B4210D880
:101F480034220020059206930791FEF7BFFBFA2181
:101F5800890002F087FE01A90890034B05A898475D
:101F680001980BB000BDC046F11FFF1F38B5051C16
:101F7800141C0120002935D072B6E023DB011A4871
:101F8800E218121818680433106080221202934273
:101F9800F5D189000023F820E21800011218E8584A
:101FA800043310608B42F6D10720011CFFF79AFF1B
:101FB800002801D0012014E00720011CFFF7BAFF18
:101FC8000028F7D10720011CFFF78CFF0028F1D16A
:101FD800E0208022C001211C5201FFF793FF431E1D
:101FE800984162B638BDC0460090FFFF054B10B55A
:101FF8001A88054C92B2511CA0541F220A401A801C
:1020080010BDC046621800103F180010024BDA6875
:102018009107FBD5986070470000044038B5084C1C
:10202800051C2368C0B2984728042368000E984707
:1020380028022368000E9847280E2368984738BD61
:102048002000001038B5074C051C2368C0B298471B
:10205800280423682D02000E9847280E2368984705
:1020680038BDC0462000001038B5044C051C236854
:10207800C0B29847280A2368984738BD2000001046
:1020880038B5084C051C2368000E984728022368B9
:10209800000E984728042368000E9847E8B2236882
:1020A800984738BD2000001038B5074C051C0002C1
:1020B8002368000E984728042368000E9847E8B262
:1020C8002368984738BDC0462000001038B5044C36
:1020D800051C2368000A9847E8B22368984738BD6A
:1020E80020000010194B70B51A8892B2184C21883C
:1020F8008A42FBD01749501C8D5C4205520D1A804C
:102108001A8892B220888242FCD0561C885C7205DC
:10211800520D1A801A88000292B22688B242FCD068
:10212800561C76058A5C760D12041E8010431A88A8
:10213800284392B22588AA42FCD0541C8A5C6105C7
:10214800490D19801306184370BDC0466018001069
:10215800381000103B100010134B70B51A8892B25B
:10216800124C21888A42FBD01149501C8D5C4205D3
:10217800520D1A801A8892B220888242FCD0561CCE
:10218800885C7205520D1A801A88000292B226885D
:10219800B242FCD0541C8A5C6105490D19801304B5
:1021A8001843284370BDC04660180010381000104E
:1021B8003B1000100D4B30B51A8892B20C490888B4
:1021C8000D1C8242FAD00B49501C8C5C4205520D02
:1021D8001A801A8892B228888242FCD0551C885CE2
:1021E8006A05520D000220431A8030BD60180010A5
:1021F800381000103B100010194BF0B51A8892B235
:10220800184C21888A42FBD01749501C8E5C420525
:10221800520D1A801A88360692B220888242FCD063
:10222800551C885C6A05520D1A801A88000492B2FF
:102238002588AA42FCD0571C8D5C7A05520D1A805D
:102248001A882D0292B22788BA42FCD0541C8A5CA4
:1022580030436105490D104328431980F0BDC0463D
:1022680060180010381000103B100010134B30B5E8
:102278001A8892B2124C21888A42FBD01149551C07
:10228800885C6A05520D1A801A88000492B2258863
:10229800AA42FCD0551C6D058A5C6D0D12021D808A
:1022A80010431A8892B22588AA42FCD0541C8A5C32
:1022B8006105490D1043198030BDC04660180010F3
:1022C800381000103B1000100D4B30B51A8892B230
:1022D8000C4908880D1C8242FAD00B49541C885CB2
:1022E8006205520D1A801A88000292B22C88A24206
:1022F800FCD0541C8A5C6105490D1043198030BD1F
:1023080060180010381000103B100010A023DB05E7
:102318001B69002B04D1034B5A699106FBD5186041
:102328007047C046008000408020C005436830B533
:10233800021C3049802B0ED004D8602B09D0702B9A
:1023480007D04FE0A82B1AD0B82B2ED0902B49D10C
:1023580001E0012347E00B78012B0DD1264A8023A9
:102368001188DB0589B29D68244C481C65544105D9
:10237800490D118004222CE0042393612DE00223EF
:102388000B701F4A1F4B198813889BB2994206D0BD
:102398001D4C591CE35C83601F230B401380802372
:1023A8000422DB051A6008221AE00B78022B12D1EE
:1023B800144B134A198813889BB2994206D0124CC1
:1023C800591CE35C83601F230B4013808023042285
:1023D800DB051A6001E00423836180230822DB0502
:1023E8009A6105E000230B700423136008239361AE
:1023F80030BDC0463A100010381000103B100010D5
:102408003C180010621800103F1800100B4B802277
:102418001202DA6780236C22DB059A61084B0022DE
:102428001A635A63074B02215A6804338A431A60B5
:10243800DA6F20218A43DA677047C04604E100E07A
:102448000040044000800440F8B51B4B1B4D00269B
:102458001E70FFF7DBFF1A4B0122AF6F301C1A63A7
:102468005A63FEF733F9391C02F0FCFB154902F0F8
:10247800F9FB8024E4056061301CFEF727F9391C5C
:1024880002F0F0FB0F4902F0EDFB2B1D2061DA6F23
:1024980020210A43DA676B68022213436B600A4BF8
:1024A800FF221B785B001340E3608022074B120277
:1024B8001A6044232360F8BD3A10001000800440DD
:1024C8000040044000350C001000001000E100E05E
:1024D80008B5044B1870044B1B789A0701D5FFF711
:1024E800B3FF08BD100000103B1800100C4A03236E
:1024F800D16930B50B4002D0116A0B431362094908
:102508000B889BB2D068440707D5054C581CA568B2
:10251800054CE55443055B0DF4E70B8030BDC04620
:1025280000000440381000103B1000100F4B8022B0
:102538005203DA670E4B08215A680A435A605A68F0
:1025480002218A435A600B4B1022DA611A665A66D6
:1025580011229A66084B01215A6804338A431A608B
:10256800D96F064A0A40DA677047C04604E100E0BE
:10257800000004400040044000800440FFF7FFFFD3
:1025880010B5FFF7D3FF164B1122DA6102211A6644
:1025980001225A669966134B586810435860124BCB
:1025A8008020DC6F00012043D867104B1A60104B65
:1025B800C72219611A6004225A6006225A61D96832
:1025C8000B4A480701D59268F9E703231362536859
:1025D80002210B435360074B802252031A6010BD3F
:1025E800004004400080044004800440948004407B
:1025F8000000044000E100E010B5084B9A681C6830
:1026080013075B0F022B08D1054B06481A8892B2B4
:10261800511C84544A05520D1A8010BD0080004098
:10262800381000103B1000100E4AA023DB05995803
:102638000420014399501A690B4B002A0BD101223F
:102648001A600A4B5A69D10701D51B68F9E780223D
:102658009203074B04E0074A80218903D1670022CF
:102668001A6070471C800000A840044000800040A9
:1026780000E100E004E100E00B4B80221206DA677B
:1026880080229203DA67094B00225A60084A102315
:10269800111CD361A431A8320B601360054B064AA4
:1026A800D96F0A40DA67704704E100E00080004013
:1026B8000040044004800440FFEFFFFF154B70B555
:1026C800C218154B041C9A4222D8144B1860144B9C
:1026D8001B78DA071CD5134B00209E6F124B1D6820
:1026E800FDF7F4FF311C02F0BDFA291C02F0BAFA1A
:1026F800211C000902F0B6FA0C4B8022D96811435C
:10270800D960010AC0B259601860D9689143D9608C
:1027180070BDC04680DAFFFFC01C0F000800001023
:102728003B1800100080044098800440008000405E
:1027380038B5FFF7A1FF234B1022DA612249A02305
:10274800DB0558580422904358502049204C5858CB
:102758000125104358501F495858104358501E49D6
:10276800585802435A501D4B11221A600023236007
:102778001B4B8022D96F52010A43DA67194B1D603F
:10278800194B1868FFF79AFF184B0322DA600722E3
:102798005D609A605A699106FCD559690122114217
:1027A80002D0124A1268F8E7A023DB051969104B1A
:1027B800002903D12260802292031A608022120627
:1027C8001A6038BD00400440048000000880000002
:1027D800A8400440108000001C800000A440044071
:1027E80004800440988004400800001000800040E5
:1027F80000E100E010B5041C2078002804D0034B49
:1028080001341B689847F7E710BDC0462000001048
:10281800064A13889BB2064909888B42FBD00548B3
:10282800591CC05C4B055B0D138070476018001085
:10283800381000103B10001070B50F4B1B789A072A
:1028480018D5FDF7BDFE061C0C4D0D4C2A882388B3
:102858009A420FD0FDF7B4FE801BFA28F4D972B65D
:10286800084A00231380084A1380084A23801370FB
:102878002B8062B670BDC0463B180010621800106D
:102888003C18001060180010381000103A100010A2
:10289800094B00201B7883420DD0084B1A88084B3F
:1028A80092B21B889BB29A4203D804D280210901B4
:1028B8005218D31A98B270473B18001038100010FD
:1028C80060180010F0B51249124F134E134D144CF6
:1028D800144A154B00280CD138701448306014483D
:1028E8002860144820601448086014491160144A8C
:1028F8000CE00120387013483060134828601348F2
:1029080020601348086013491160134A1A60F0BD2B
:10291800140000103E180010180000100C000010E1
:1029280024000010280000101C000010D122000014
:102938007522000001220000D5200000B12000000F
:1029480089200000BD21000061210000ED20000069
:10295800712000004D20000025200000014B187850
:102968007047C0463E180010014B18787047C046A3
:1029780010000010014B18687047C046080000108E
:10298800014B18787047C0463B18001038B5051C35
:10299800FFF752FF1E4C23789A0701D5FFF736FD43
:1029A80023785A0701D5FFF7C1FD2378DA0701D547
:1029B800FFF762FE174B1878FFF784FF164B0020CD
:1029C8001880164B1880164B1880164B1880164B1B
:1029D8001870FF2D02D12578854217D0134B012D91
:1029E8000ED0042D06D002222270114A1A60FFF779
:1029F8002BFD0AE00F4A25701A60FFF7C1FD04E0BD
:102A08000D4A25701A60FFF793FE207838BDC0463E
:102A18003B1800103E180010601800103810001005
:102A28003C180010621800103A1000102000001026
:102A3800F51F00001520000015230000F0B58DB02B
:102A4800151C12AA12880291079213AA12880390E1
:102A5800089214AA12780992DA00111889B206911C
:102A6800554908880699814206DC0299521853494B
:102A780092B209888A4202DD013080B29AE0039856
:102A88001F2D00D896E05F1E203D01F0F3F94C4B56
:102A9800ED00EB18FFB20193002F2FD13C1C019BD6
:102AA800029A1B5D1619B6B2049300258027039875
:102AB8000499421992B2394208D0101C311C331CB7
:102AC80000F0DCFF00F0C4FF07980AE0099B002B28
:102AD80009D0101C311C331C00F0D0FF00F0B8FFE7
:102AE800089800F0A1FF01357F08082DDFD10134D7
:102AF800082CD4D101F0B4F906985BE001980830AD
:102B08000A900199039A0978029B0B91BC18DD1968
:102B180008208021A4B2ADB2161C049005910B9A2E
:102B2800059B1A4223D0301C2B1C0299221C00F052
:102B3800A5FF00F08DFF0298A61B2B1A0136013362
:102B48005E43B6B2002E04D0079800F06DFF013E38
:102B5800F7E70599049A7B1C661C4908E418013AB2
:102B6800B6B2A4B205910492002AD8D118E0099B04
:102B7800002BEED0301C2B1C0299221C00F07EFF8B
:102B880000F066FF0298A61B2B1A013601335E433C
:102B9800B6B2002EDDD0089800F046FF013EF7E7F8
:102BA800019901350A9AADB201310295019191421C
:102BB800A7D19FE70DB0F0BD641800106818001089
:102BC80085610000F0B589B01D1C0EAB1B880C1C7C
:102BD80005930FAB1B88161C069310AB1B78079345
:102BE800002D00D1012580231B02984210D1194FD6
:102BF800301C3B885B08049302F01AF9EB00584339
:102C0800049B4008181A3B8880B298429B411840A0
:102C180080231B029C4218D10F4BAC001B885A081A
:102C2800141BA4B29C429B411C400EE0059B211C36
:102C38000093069B01360193079B02932B1CFFF719
:102C4800FDFE044B1B88834202D33278002AEDD163
:102C580009B0F0BD6418001068180010F0B58DB008
:102C6800049312AB1B880090019353429BB20593C7
:102C78001BB2049806915900013141435B43484314
:102C88000393C718049B52435B4352005B00002127
:102C980002900A920B930791059803B2002B00DD6E
:102CA80089E0059A009B92B29D1A0798654B069990
:102CB80080B21B884418ADB208920990A4B2AB4206
:102CC80012D9614B1B88A3420ED901F0D3F8281CF6
:102CD800211C2A1C231C00F0D1FE00F0B9FE01982B
:102CE80000F0A2FE01F0BCF8009B089AD618554BDC
:102CF800B6B21B88B34212D9534B1B88A3420ED9D4
:102D080001F0B8F8301C211C321C231C00F0B6FE60
:102D180000F09EFE019800F087FE01F0A1F8494BF3
:102D2800069809991B88441AA4B2B34212D9464B93
:102D38001B88A3420ED901F09DF8301C211C321CBF
:102D4800231C00F09BFE00F083FE019800F06CFE4F
:102D580001F086F83B4B1B88AB4212D93A4B1B88D3
:102D6800A3420ED901F086F8281C211C2A1C231C1A
:102D780000F084FE00F06CFE019800F055FE01F0B2
:102D88006FF8029A7B00934208DB089A02980B9925
:102D98000132401892B2059202903F18039A93426A
:102DA80000DD79E7099B01339BB207930A9BD21890
:102DB8000392BF1870E700260798B5B284B22B19A2
:102DC80004991BB28B423BDA1E4B00991B888B423D
:102DD80017D9069F1C4B0137E719EF191B88BFB29B
:102DE800BB420ED901F046F80098391C021C3B1C66
:102DF80000F044FE00F02CFE019800F015FE01F0F2
:102E08002FF8104B009A1B88934217D9069B1C1B5E
:102E18000D4B013C651B1B88ADB2AB420ED901F0CE
:102E280029F80098291C021C2B1C00F027FE00F032
:102E38000FFE019800F0F8FD01F012F80136BBE72B
:102E48000DB0F0BD6418001068180010F0B51C1C17
:102E58008BB0534208919BB292B200210790059320
:102E68000992069109990BB206990AB2934200DABF
:102E7800F9E0099A079992B28B1A9BB20492069AC2
:102E88000193089B92B29F1A784B01991B88029272
:102E9800BFB28B4212D9764B1B88BB420ED900F0C9
:102EA800E9FF0198391C021C3B1C00F0E7FD00F00B
:102EB800CFFD201C00F0B8FD00F0D2FF079A029960
:102EC800531A9BB20393089A049B0399D61A674B2B
:102ED800B6B21B888B4212D9654B1B88B3420ED9F8
:102EE80000F0C8FF0398311C021C331C00F0C6FD1B
:102EF80000F0AEFD201C00F097FD00F0B1FF079B2D
:102F0800049AD518594BADB21B88AB4212D9584B0D
:102F18001B88BB420ED900F0ADFF281C391C2A1CA7
:102F28003B1C00F0ABFD00F093FD201C00F07CFD85
:102F380000F096FF0299079A4C4B8F181B88BFB276
:102F4800BB4212D94A4B1B88B3420ED900F092FFFC
:102F5800381C311C3A1C331C00F090FD00F078FD41
:102F6800201C00F061FD00F07BFF029B08995E18B1
:102F78003E4BB6B21B88AB4212D93D4B1B88B342BD
:102F88000ED900F077FF281C311C2A1C331C00F0D6
:102F980075FD00F05DFD201C00F046FD00F060FFAF
:102FA800089B049AD518314BADB21B88BB4212D985
:102FB8002F4B1B88AB420ED900F05CFF381C291C34
:102FC8003A1C2B1C00F05AFD00F042FD201C00F0BA
:102FD8002BFD00F045FF254B01991B888B4212D928
:102FE800234B1B88B3420ED900F044FF0198311CD3
:102FF800021C331C00F042FD00F02AFD201C00F0EA
:1030080013FD00F02DFF194B039A1B88934212D928
:10301800174B1B88AB420ED900F02CFF0398291CD4
:10302800021C2B1C00F02AFD00F012FD201C00F0F1
:10303800FBFC00F015FF029B05995A180133D218C2
:1030480092B293B205931BB2002B08DB049B013BA1
:103058009BB2D21A99B2D31A9BB209910593069AD8
:1030680001320692FEE60BB0F0BDC04664180010AF
:1030780068180010F7B51C1C08AB1B88151C0193B9
:103088001D4B071C1A880E1C904201D3571EBFB255
:103098001A4B1B889E4201D35E1EB6B2954201D3DD
:1030A800551EADB29C4201D35C1EA4B2AF4203D9F7
:1030B8006F407D406F40BFB2A64203D9664074405E
:1030C8006640B6B200F0D6FE2A1C231C381C311C00
:1030D80000F0D4FC00F0BCFCED1BA41B013501344E
:1030E8006C43002C04D0019800F09EFC013CF8E7EA
:1030F80000F0B6FEF7BDC04664180010681800104E
:10310800F0B5544289B0A4B292B2059104900693E6
:103118000294079200210391079A039913B20AB205
:1031280093424ADB079A039995B2049B059A8CB29D
:103138005F1B0699EE18A318BFB2B6B29BB2381C33
:10314800321C0091191CFFF795FF059A0699131B6D
:103158009BB2381C321C0091191CFFF78BFF049A94
:103168000599171BA6186B18069A9BB2BFB2B6B280
:10317800191C0092381C321CFFF77CFF0599069A2F
:103188004B1B9BB2191C0092381C321CFFF772FFB4
:103198000299631801341C19A4B2A2B213B20292A4
:1031A800002B07DB013DADB2641BABB2651BADB2B2
:1031B8000793029503990131ADE709B0F0BDF0B569
:1031C8008FB0151C14AA148815AA1288061C03921D
:1031D80000192A1B9446904200DBABE00F190797B1
:1031E800079A1F1B0697BA4200DBA3E06746BFB2E7
:1031F8000597039F80B20097059A0490FFF73AFF5E
:10320800079F301CBFB20997069F0999BFB20A975A
:10321800039F049A00970A9BFFF72CFF00976742C9
:10322800BFB2059809992A1C0A9BA4B2FFF722FF8E
:1032380007970B94002708970B9F3BB2089F3AB259
:10324800934277DB0B9F0499BFB2CB1B089A9BB2C2
:103258000C93099B069797B2DE1B0399B6B2331CF1
:1032680000910C98311C049AFFF704FF049A069900
:10327800D31B9BB20D93099B039A5D1AADB2291C0F
:103288002B1C00920D98049AFFF7F4FE069B0599F3
:10329800039A5C18A4B2201C311C331C0092059AB6
:1032A800FFF7E8FE059B0399FE18B6B21A1C0091B9
:1032B8002B1C291C301CFFF7DDFE0A9A039BBD1846
:1032C800ADB2201C0093291C059A2B1CFFF7D2FED7
:1032D80006990A9A039B8C18A4B20093301C211CEF
:1032E800059A231CFFF7C6FE03990C980091049ACF
:1032F800291C2B1CFFF7BEFE039A211C0092231CDD
:10330800049A0D98FFF7B6FE07997B180137DF1965
:10331800BFB2BAB213B20792002B08DB069B013B7F
:103328009BB2FF1A99B2FB1A9BB20B910793089FA5
:10333800013780E70FB0F0BDF0B58FB0049314AB40
:103348001B8806910793504B03901B88811A99425A
:1033580000DB97E004990698431A4C4909888B4288
:1033680000DB8FE05642B6B233B2049859000131FF
:103378004143051C5B434D430593EC18031C524322
:10338800434352005B0000210C920D93089133B225
:10339800002B32DC0398B2B2831A08999BB20A93C5
:1033A80009921318069A8FB29BB20B930798BB1811
:1033B8009BB2191C00900B9A0A98FFF75BFE0699BE
:1033C800079ACB1B9BB20092191C0A980B9AFFF71D
:1033D80051FE6300AB4205DB099E0D9801362D189E
:1033E800B6B2641905998B42D1DC0C9A0137891859
:1033F800BFB2089705916418C9E70026089BB5B2C3
:103408009CB22B1904981BB283423BDA1E4B0398DB
:103418001B88834217D9069F1C4B0137E719EF1900
:103428001B88BFB2BB420ED900F024FD0398391C9B
:10343800021C3B1C00F022FB00F00AFB079800F07E
:10344800F3FA00F00DFD104B03991B888B4217D936
:10345800069A0E4B141B013C651B1B88ADB2AB4290
:103468000ED900F007FD0398291C021C2B1C00F044
:1034780005FB00F0EDFA079800F0D6FA00F0F0FC32
:103488000136BBE70FB0F0BD6418001068180010D3
:10349800F0B58FB01F1C14AB1C8815AB1B880D1C16
:1034A800161C0119121B844603930491059291423C
:1034B80000DB31E12A193B1B9A4200DB2CE19BB26D
:1034C8000A93039B92B2111C0992009362460A9BCD
:1034D800FFF7D0FD0499039B059A89B292B2081CA4
:1034E8000B910093391C3B1C0C92FFF7C3FD039909
:1034F800301C0091321C09990A9BFFF7BBFD039A07
:103508002B1C00920B98291C0C9AFFF7B3FD634201
:103518009BB20793A4B200230D9408930D990BB2A4
:1035280008990AB2934200DAF6E00D990B9A89B22B
:10353800531A9BB20493089B069109999BB2CE1A21
:103548000593764B049A1B88B6B2934212D9744BF2
:103558001B88B3420ED900F08DFC0498311C021C64
:10356800331C00F08BFA00F073FA039800F05CFA51
:1035780000F076FC0B9B0599099A5F1A069BBFB26F
:10358800D51A664BADB21B88BB4212D9644B1B8857
:10359800AB420ED900F06EFC381C291C3A1C2B1CBF
:1035A80000F06CFA00F054FA039800F03DFA00F0CD
:1035B80057FC06990C9A594B8C181B88A4B2A34245
:1035C80012D9574B1B88B3420ED900F053FC201C6C
:1035D800311C221C331C00F051FA00F039FA039810
:1035E80000F022FA00F03CFC059B0C995E184B4B4E
:1035F800B6B21B88B34212D9494B1B88AB420ED9CD
:1036080000F038FC301C291C321C2B1C00F036FA48
:1036180000F01EFA039800F007FA00F021FC0A9B5C
:10362800059AD5183D4BADB21B88A34212D93C4B25
:103638001B88AB420ED900F01DFC201C291C221C43
:103648002B1C00F01BFA00F003FA039800F0ECF9C9
:1036580000F006FC314B06990A9A1B888C18A4B214
:10366800B34212D92E4B1B88A3420ED900F002FC9C
:10367800301C211C321C231C00F000FA00F0E8F971
:10368800039800F0D1F900F0EBFB244B04991B8858
:103698008B4212D9224B1B88AB420ED900F0EAFBB1
:1036A8000498291C021C2B1C00F0E8F900F0D0F942
:1036B800039800F0B9F900F0D3FB184B1B88BB4204
:1036C80012D9174B1B88A3420ED900F0D3FB381C24
:1036D800211C3A1C231C00F0D1F900F0B9F9039819
:1036E80000F0A2F900F0BCFB059B07995A180133BA
:1036F800D21892B293B207931BB2002B08DB069B39
:10370800013B9BB2D21A99B2D31A9BB20D9107937F
:10371800089A0132089201E70FB0F0BD6418001052
:1037280068180010F0B585B01F1C0AAB1E88051C70
:10373800141C3B1C2A1C00960391FFF79BFC281CB9
:10374800391C221C3B1C0096FFF794FC201C039993
:10375800221C3B1C0096FFF78DFC03990096281C41
:10376800221C0B1CFFF786FC05B0F0BDF0B58DB030
:103778001E1C12AB1B88051C0C1C171C05939042C1
:1037880001D0B14208D10598211C00903A1C281C90
:10379800331CFFF76FFC94E04B4B1A88904201D31F
:1037A800551EADB2494B1B889C4201D35C1EA4B286
:1037B800974201D3571EBFB29E4201D35E1EB6B2D6
:1037C8007A1B331B92B29BB291B298B203910490C8
:1037D80009B201200690002904DA52423C4992B20B
:1037E800039206910498012102B20791002A04DA93
:1037F8005B42374A9BB204930792039B04989BB29F
:103808000A935B0080B29BB2089343009BB20B9073
:10381800099300F02FFB211C2A1C231C281C00F0F4
:103828002DF900F015F9059800F0FEF803990498B1
:103838000AB203B29A4220DD09990A9A8E1AB6B2E0
:10384800BD4220D033B2002B05DB079B0898E41853
:10385800361AA4B2B6B20699099A6D18ADB2281CE8
:10386800211C231C96192A1C00F008F900F0F0F816
:103878000598B6B200F0D8F8E2E7089B0B981F1A33
:10388800BFB2B44202D100F0EBFA1AE03BB2002B0F
:1038980005DB0699099A6D18BF1AADB2BFB2079B2E
:1038A8000898E418A4B2211C2A1C231CC719281C38
:1038B80000F0E4F800F0CCF80598BFB200F0B4F8D6
:1038C800DFE70DB0F0BDC04664180010681800109E
:1038D800FFFF00000D4B70B51B88051C0C1C161C47
:1038E800834212D90A4B1B888B420ED900F0C2FAC8
:1038F800281C211C2A1C231C00F0C0F800F0A8F882
:10390800301C00F091F800F0ABFA70BD641800109C
:103918006818001038B5041C00F0ACFA174B0020EA
:103928001A88174B013A1B8892B2013B9BB2011CC3
:1039380000F0A4F800F08CF89625AD01201C00F0EA
:1039480073F8201C00F070F8201C00F06DF8201CA3
:1039580000F06AF8201C00F067F8201C00F064F8FA
:10396800013D201C00F060F8ADB2201C00F05CF8AE
:10397800002DE3D100F074FA38BDC0466418001079
:1039880068180010014B18887047C0466618001068
:1039980008B5124B1B2815D006D80E2812D01228AD
:1039A8000ED0092808D109E0B42809D0872252008E
:1039B800904207D05A2801D0002205E05A2203E09D
:1039C800B42201E0872252001A80188800F098F883
:1039D800034B1880034B000C188008BD66180010B4
:1039E8006818001064180010014B18887047C0460A
:1039F80064180010014B18887047C04668180010FA
:103A0800064B10B500241C80054B1C80054B1C8000
:103A180000F060F9201CFFF7BBFF10BD6418001010
:103A2800681800106618001030B5084B8022FF2473
:103A380012010025010AA4009D5019518021890016
:103A480099509D501851995030BDC0460000025001
:103A5800094B8022802152010020090110B598509D
:103A68005850FF202C2480001C5080208000585083
:103A78008021C900995010BD00000250F0B585B0F2
:103A88000190029280271D4A8020FF260001002411
:103A9800B6007F012A250093D451802314509551F4
:103AA8008025AD00DB0015509C46D3510B0A1450FD
:103AB800935115501450915115501450009B190AE8
:103AC800915115506146145093512B231550D451E0
:103AD800145093511550D151145001990B0A935118
:103AE8001550145091511550145002990B0A9351C6
:103AF800155014509151155005B0F0BD00000250FA
:103B0800F0B585B0B4280AD087235B0098420DD061
:103B18005A280ED0C821F0220391029203E01823FC
:103B2800F02703930297A020400008E0A821039102
:103B380001E068220392A02040000290F0202A4B66
:103B4800802780268022FF2512010021AD00760102
:103B5800BF013624D9519951802799505C5180244E
:103B6800A400FF009C509F519950039F5F51471E2E
:103B78009C50BFB20397029F0004013FBFB2019758
:103B88002A27995199505F518027FF009C509F51D7
:103B9800995059519C50995059519C509950019F96
:103BA8003F0A5F519C509950019F5F512B279C50B1
:103BB800995199505F518027FF009C509F5199500F
:103BC80059519C50995059519C509950039F3E0A05
:103BD8005E519C509950802189015F519C505A50E8
:103BE800029A104305B0F0BD00000250104B80222D
:103BF80070B5920100249C5080218022FF268025E8
:103C080052010901B600AD00A04203D198505850A6
:103C1800202002E09C5021205C5098515D5080216A
:103C2800C90099508021802209019201995070BDE4
:103C380000000250F8B5264C80239B010022802505
:103C48008026071CE2506D01360190421CD1FF22EC
:103C5800282392006051A051A350802380229B000A
:103C6800D200A35114206251FCF7B0FCFF221023AC
:103C780092006751A751A350802380229B00D20055
:103C8800A351782062511BE00023FF226351920068
:103C9800A3511123A350802780239B00FF00A35129
:103CA80078206751FCF792FC00226251A251FF2252
:103CB80029239200A35080239B00A351142067510D
:103CC800FCF784FC8022802312019B01E250F8BD9E
:103CD80000000250F0B5A7B001AE4A499322301C4B
:103CE80001F09AF8484C802109026358474A802716
:103CF80013436350464BFF00E0580243E250454AE5
:103D08002020555805435550D15800250843D05018
:103D18001420E551FCF75AFC80235B00E35178201E
:103D2800FCF754FC80239B01E5502B1CF05C01350B
:103D38003F23021CADB29A43802A1FD0C02A33D039
:103D4800402A34D118402B1C2A1892B29A4229D002
:103D58005A1C944680218022520100270901F35CF5
:103D6800A7506750FF27BF00E35180239B00635093
:103D78008023DB00A350624693B2E5E718402B1C72
:103D88002A1892B29A420DD08022F75C591C12016F
:103D98000023A350FF239B00E75080239B00A350E0
:103DA8008BB2EDE71D1C02E01840FCF70FFC922DCA
:103DB800BBD980238022002112015B01E150A15070
:103DC800FF2189002C20605080218900A150802289
:103DD800D2009621E25049028023FF2580201B0152
:103DE8000022AD0080000139E2506251E050E250FB
:103DF8006251E0509142EFD10349802292018B50E9
:103E080027B0F0BD8568000000000250FF0F0000D9
:103E1800FC3F000000000350054B802212010021E6
:103E28009950FF2189005850802189009950704786
:103E380000000250094B8022802110B55201002455
:103E480009019C505C50FF24A40018518020800078
:103E580058508021C900995010BDC046000002503A
:103E6800034A8021802309019B01D1507047C04635
:103E780000000250024A802300219B01D150704764
:103E880000000250014B18887047C0467018001097
:103E980038B52B4B2B4D1C882B4B1A88A24218D0B7
:103EA8001C802A4B288859681A68484362431018AE
:103EB8009A689969801800F0D5FE254A0023904237
:103EC80005D84022FF32031E934200D9131C214A11
:103ED8001380214B2A881988914216D01A801B4BCF
:103EE8001969D8684A43604380185A6999698018E3
:103EF80000F0B8FEE022FF320023904203D8031EF0
:103F0800EF2B00D9EF23154A1380FFF73BFD8723DA
:103F18005B00984201D10F4B0FE0B42803D10F4B3F
:103F2800EF201B8805E05A2806D10A4B40201B8841
:103F3800FF30C01A80B201E0084B188838BDC0466F
:103F480072180010741800109418001078180010D7
:103F58007F0200006C180010961800106E180010F0
:103F680038B52B4B2B4D1C882B4B1A88A24218D0E6
:103F78001C802A4B288859681A68484362431018DD
:103F88009A689969801800F06DFE254A00239042CE
:103F980005D84022FF32031E934200D9131C214A40
:103FA8001380214B2A881988914216D01A801B4BFE
:103FB8001969D8684A43604380185A699969801812
:103FC80000F050FEE022FF320023904203D8031E87
:103FD800EF2B00D9EF23154A1380FFF7D3FC872373
:103FE8005B00984203D1114BEF201B8805E0B428F1
:103FF80006D10C4B40201B88FF30C01A80B205E068
:104008005A2801D1094B00E0064B188838BDC04634
:104018007218001074180010941800107818001006
:104028007F0200006C180010961800106E1800101F
:10403800F0B5021C0F6908688BB0CC684D69C31BCA
:104048008446886849680493661B059407914C1B4D
:104058000499C31B069371436343C91A304B0190FB
:1040680003950296089499610120002956D0146896
:10407800906816690299A51B861B089869437043C6
:10408800081A1860069904984D434643761B15692B
:104098005E6066466E433D1C6543751B059E106950
:1040A80075430199966841437E43711A079E0198AA
:1040B800714369189568444360466843039E201A13
:1040C80070430918996050685169029ED268441A71
:1040D80009946643089C551A6C43361B049CDE60A1
:1040E8006543099E069C74432D1B1D613C1C654657
:1040F8004D4344432C1B059D019E6C433D1C554379
:104108007043714366467243691A079D821A039881
:10411800694342436418A4185C6100200BB0F0BDE9
:1041280078180010004870477818001010B5064C31
:10413800E360029B20602361039B61606361049BD1
:10414800A260A36110BDC04678180010014B188802
:104158007047C0466A180010014B18887047C0465F
:1041680074180010014B18887047C0467218001068
:10417800A449F0B5A44B02248020CC6700021A5849
:104188008026A2431A50A14A36019D5885B0A543FE
:104198009D508C671D580124A5431D509D58A5436B
:1041A8009D50A02481254D67E405275837432750A3
:1041B8008027BF01E651964CE5671E5804252E431B
:1041C8001E500020186193480668844635430560F0
:1041D800066880256D04354305606546AC698D48E1
:1041E800002CFADA05688C4C0227254005608569A1
:1041F80006682D043E430660066880277F043E4318
:10420800AD0D066066467069824C0028FADA2068AF
:10421800814F824E3840206060690004800D80190B
:10422800451BADB202957E48C82D00D8BBE005807D
:1042380002208867802000021E580125AE431E50C8
:104248009E588127AE439E50714E0225F5671E5831
:104258000425AE431E509E58AE43A0259E50ED0542
:104268004F672E5880273F013E432E508026B601C7
:10427800AF518127CF671D58022635431D500020B6
:1042880098602068082528432060206880256D04F0
:10429800284320606746FC695E48002CFADA046807
:1042A8005D4D08262C400460C5695E4CAD0925406B
:1042B8000195056835430560056880267604354311
:1042C80005606646F069534C0028FADA2068524FB8
:1042D800019D38402060E069002D02D10026029639
:1042E80066E0504F019D800938408542F6D102268C
:1042F8004E678020A0260002F60537584A4D2F4009
:104308003750B7583D40B5500225CD671E58AE43CB
:104318001E509E58AE4381259E508D671F5801261A
:1043280037431F505E603A4EF5671E5804252E43EA
:104338001E500020186120680543256020688025EC
:104348006D04284320606746BC693248002CFADABD
:104358000468314D334E2C40046084690568A40913
:1043680034400426354305600568802676043543C5
:1043780005606746BD692748002DFADA0568264EAC
:10438800354005608069002CA8D0264F8009384048
:104398008442A3D12548019D029E058024480480BB
:1043A8002448068004E00024048022480294048003
:1043B8009124A02580204C670002ED052F581A4E45
:1043C80037402F50AF583E40AE50CC671E5802259C
:1043D800AE431E509E580E4FAE439E508C671D58DC
:1043E80001218D431D509D588D439D50FC671C58DD
:1043F80004218C431C50985888439850029805B063
:10440800F0BDC0460040044000000150FC3F0000E1
:104418000440044000C0014000FFFFF8FF03000013
:104428006A180010FE030000FFF7FFFF7218001063
:1044380074180010701800101D4A002370B51380FE
:104448001C4A1D4C13801D4A912013801C4A802150
:1044580013801C4A090213801B4A1C4D13801C4AF6
:10446800043413801B4A1380A0232067DB055A58A5
:104478002A405A50184A9E5835409D50174BA067FD
:104488005E580225AE435E509E58AE439E5060670C
:104498005E580125AE435E509E58AE439E50E0677D
:1044A8005C58042084435C5099588143995070BDEE
:1044B8006A180010741800100040044072180010A8
:1044C800961800109418001070180010FFF7FFFFDE
:1044D8006E1800106C180010FC3F0000000001501E
:1044E800004201D4044A10474042F44600F006F85E
:1044F8000122D207114360470545000042221201FC
:10450800033A004208D002D4013A0018FCD512053B
:10451800C30A400599187047002170470B000343F0
:104528002BD0CA0FD200043212023D32094203D501
:10453800002349424042994102D101000020203A1B
:1045480001231B04994204D2103A0904030C1943AD
:104558000004094203D4013A00184941FBD58446B6
:10456800C00A4B051843C90A120563465B055B413F
:1045780002D3012B00235841514170470B000343DC
:1045880005D0042212023D320942014B18477047F8
:10459800414500004B001BD25A0D01239B02D21A41
:1045A800013215D452423F3215DBC902430D19437B
:1045B800C0020123DB071943202A02D30800002187
:1045C800203AD141D04048409140D14048407047BE
:1045D8000020002170470021013908007047C046BB
:1045E800F0B40125ED07694007E0F0B40125ED07B7
:1045F8006B4002E0F0B40125ED070F005F405AD48C
:104608008B4200D1824205D9504042405040594027
:104618004B4059404E18760DDF187F0D3BD0741C67
:10462800640529D0F41B352C26D80E0DDB022B434C
:10463800DB0AC9022943C9121700202C1ED2E74100
:10464800E2405740E3415A40A340E3405A40002427
:10465800801859410AD3B21C520521D0C207012F34
:10466800624117004008CB07184349080136360550
:104678004208AF4160417141F0BC7047203C06D010
:104688001F00E741E3405F400024012A6741C0184A
:104698006141EBD3DFE7002EEED129400020EBE7A4
:1046A800013631050020E7E7E742E5D10020C143A4
:1046B800090DC904E0E76B400E00871A9E4104D239
:1046C8006E40C01BB141D21973414E18DF18AC0AB5
:1046D800E642E9D2760D7F0D31D0F41B362CCBD8CB
:1046E800B4460E0DDB022B43DB0AC9022943C90A73
:1046F800012C32D804D1D4075208DF073A435B08AB
:10470800EF0A6442904199411ED0002239424DD1AE
:104718002419404149410124394204D10134001887
:1047280049413942FAD06246A24204D9361B013EB9
:1047380036058919A0E7F10AC90700209CE7364227
:104748009AD10020002197E70200224394D0B84272
:10475800DED2010020002024E3D1202C13DD203CF0
:10476800E2411700A240E2405740E3415A40A340CB
:10477800E3405A40012FBF410137174300227C42D2
:10478800984191410CE01700E741E2405740E3416E
:104798005A40A340E3405A407C429041994100224C
:1047A8000F0303D2013E241940414941013E360519
:1047B8004708AC4150417141F0BC704708D10042F4
:1047C80006D1F54204D801D3124201D16D0D09D1A9
:1047D8000020C143090DC904F0BDF9D11242F7D137
:1047E800640DF5D00020C14349054908A6E0002022
:1047F8006146F0BDF0B50127FF070E005E403E4060
:10480800B446BE0A4C18DD18F442D7D2F542E4D2B9
:10481800640DECD06D0DEAD06419C9023943460D18
:10482800C0023143DB023B43DB0A10B48E4685B23B
:1048380097B26F43140C6C433E0CA419260C240445
:10484800BFB227439CB26C43A419190C6943250CC9
:10485800A4B249190D04090C6419000C95B245431A
:104868003E0C76193743BFB2360C150C4543AD19CB
:10487800A6B2240CAD192E0437432E0C36199DB25E
:104888004543AD19ACB22E0C89191D0C45436D1862
:104898002E04290C3443704680B295B245433E0C31
:1048A80076193743BFB2360C150C4543AD19A6B27D
:1048B800AD19240C2E0437432E0C36199DB24543EE
:1048C800AD19ACB22E0C89191D0C45436D182E0478
:1048D8003443290C75462D0C90B268433E0C801960
:1048E8000604BFB23E43070CA0B23F18120C6A433D
:1048F800D019020C80B2240CA4189AB26A43121977
:1049080014042043120C89181B0C6B43C91810BCE3
:1049180001273D05294203D1B61940414941013CCF
:10492800FF077D0D013D641B0BDB6D00AC4209DA0E
:10493800240500254208BE4168416141664631436D
:10494800F0BD54E74EE7C046F0B40125ED070C0072
:104958005C402C40A446AE0A4C18DF18F4423DD205
:10496800F74245D2640D4CD07F0D3CD0E41BC90200
:104978002943CF0ADB022B43DB0A0600B61A9F4104
:1049880004D2013CB6197F41B6185F416812800D08
:10499800241838DD0018844225D8E80C0021B619FF
:1049A8007F41B61A9F4103D340414941F7D304E000
:1049B800B6185F4100184941F1D32405B6197F4163
:1049C800B61A9F4105D33743C20717430022012F68
:1049D8005041614162461143F0BC70470CD100421E
:1049E8000AD1F74208D20020C143490D0905F1E771
:1049F800124201D1F74206D00020C143090DC90473
:104A0800EAE77F0DF8D000206146E5E770B401269B
:104A180076054C005D00E6420CD8EE420AD82543E4
:104A28000543154303D0994204D1904202D1012095
:104A380070BC7047002070BC7047C04630B4012578
:104A48006D054C00E54215D85C00E54212D80C0013
:104A58001C436400044314430FD005D282428B41A7
:104A68008041013030BC704790429941804101300B
:104A780030BC7047002030BC7047012030BC704704
:104A880030B401256D054C00E54215D85C00E542BF
:104A980012D80C001C436400044314430FD005D201
:104AA800904299418041013030BC704782428B412D
:104AB8008041013030BC7047002030BC7047012075
:104AC80030BC704730B401256D054C00E54215D85F
:104AD8005C00E54212D80C001C43640004431443F4
:104AE8000CD005D2904299418041404230BC704779
:104AF80082428B418041404230BC7047002030BC2C
:104B08007047C04630B401256D054C00E54215D804
:104B18005C00E54212D80C001C43640004431443B3
:104B28000CD005D282428B418041404230BC704754
:104B3800904299418041404230BC7047002030BCCF
:104B48007047C046C80FC0077047C0460128494192
:104B58000348814201D000207047012070470000BF
:104B68000000E0FF012849410348814201D80020A4
:104B780070470120704700000000E0FF01D24008A4
:104B8800704740082749401870470121084206D15C
:104B980001D240087047400822494018704703D2A4
:104BA800400820494918704740081E4940184918CC
:104BB8007047F0B500240025012600278B4200D15C
:104BC800824211D892185B4102D2B6197F41F5D9B9
:104BD80003B41846FFF7D9FF034603BC03B41046D5
:104BE800FFF7CCFF024603BC994200D1904203D3A1
:104BF800801A9941A4197D417F0803B43046FFF714
:104C0800C4FF064603BC07D25B0803B41046FFF78F
:104C1800B5FF024603BCE7E702460B462046294695
:104C2800F0BD000000000080CA1751408B1A17D051
:104C3800C1174A4004B44840411A48081A0000E025
:104C480052008242FCD9002000E05208914200D371
:104C5800891A40419A42F8D104BC5040801A7047E2
:104C6800002070470A000FD00300400800E05200FF
:104C78008242FCD9002000E05208934200D39B1ADC
:104C880040418A42F8D1704700207047CA17514006
:104C98008B1A19D0C11706B44840411A48081A009F
:104CA80000E052008242FCD9002000E05208914204
:104CB80000D3891A40419A42F8D10CBC534058405D
:104CC800C01A5140891A70470020704702B47146D3
:104CD80049084900095C49008E4402BC7047C04637
:104CE800F8B5041C0027002801DA44420127002CEB
:104CF80012DD104B0E4A104D0126264207D0101C1B
:104D0800191C2A686B68FFF775FD021C0B1C6410E0
:104D18000835002CF1DC01E0064B054A101C191C73
:104D2800002F03D003490248FFF70EFEF8BDC04626
:104D3800000000000000F03F20690000C046C046A7
:104D480070B5041C806800280AD0236862685D1C5E
:104D5800AD1A6E1EB5416D422940934200D2C1542E
:104D6800E368002B06D020686268904202D2081CD3
:104D7800211C984723680133236070BD70B5151C4A
:104D88004C1E06D4C6B2281C311CFFF7D9FF013CC3
:104D9800F9D270BD10B5C30606D42023840500D50A
:104DA8003023181CFFF7EAFF10BDC046C317C01810
:104DB8005840704700B500F0EBFF014BC01800BD2C
:104DC800080000000EB400B586B007AA08CA05920C
:104DD800039000230493054B029301A8079900F060
:104DE8002FF806B008BC03B01847C046FFFFFF7F86
:104DF8000378002B0AD000290AD0031C013301399B
:104E08001A78002A05D00029F8D102E0031C00E036
:104E1800031C181A7047C0468446002A05D00B7830
:104E2800037001300131013AF9D160467047C0463C
:104E3800411C02780130002AFBD1401A7047C04655
:104E4800F0B55F4656464D464446F0B493B08346A7
:104E5800099200230360039100F052FF25290DD128
:104E68000026C749102082462022914680235B01F4
:104E7800984680231B029C46802706E05846FFF789
:104E88005FFF039500F03CFF251C6C1C2878031C71
:104E9800203BDAB23E2A17D89300CB589F464023CE
:104EA8001E43F1E73E43EFE760460643ECE7424620
:104EB8001643E9E74B461E43E6E750460643E3E759
:104EC800802292001643DFE72A2805D00023021C1F
:104ED800303A092A0CD917E0099B191D09911B685A
:104EE800002B02DA5B4210210E43AC1C68780BE001
:104EF8009A00D3185B0030381B180134621E1078F2
:104F0800021C303A092AF3D99846DB43DB1741469D
:104F180019408846002292462E2824D120782A2833
:104F280005D00134031C303B092B08D918E0099B34
:104F38001A1D09921A689246607802340DE0131C13
:104F48009A00D3185B0030381B180134621E1078A1
:104F5800021C303A092AF3D99A465346002B02DB41
:104F680080235B001E43742801D07A2803D1601C7B
:104F7800039020782CE06A2805D102231E43611C87
:104F88000391207824E06C280DD120786C2805D175
:104F980002231E43A21C0392607819E00134039493
:104FA80001231E4314E04C2802D101231E4316E0BE
:104FB800039468280CD12078682805D108231E435B
:104FC800A31C0393607803E00134039404231E4375
:104FD800782803D883006B4AD3589F46039C6A4BB2
:104FE8001D68002D01D100F08AFE5146009109ABE1
:104FF80001935946321C4346A847039400F080FEAB
:1050080058462521FFF79CFE00F07AFE099B1A1DE1
:1050180009921C784546013D301C291C5A46FFF769
:10502800B9FE5846211CFFF78BFE07E0049405954E
:105038004D46B346464601235B420693F20601D429
:1050480000F05EFE2020291C5A46FFF797FE00F06C
:1050580057FE330708D5099B1A1D09921B685C4641
:1050680024681C7000F04CFEB0070AD5099B1A1D75
:1050780009921B6859460968196000225A6000F0B5
:105088003FFE099B1A1D09921B685A4612681A604E
:1050980000F036FE099B1A1D09921B680493331C05
:1050A800049C002C01D1394E0496394A1E1C164026
:1050B800D80505D504985146FFF79AFE041C03E06D
:1050C8000498FFF7B5FE041C41460D1B301C291C33
:1050D8005A46FFF75FFE621E0692002CAED0B0461D
:1050E800A946271C049C059D5E46231C013419789B
:1050F800301CFFF725FE013F002FF6D196E7099BEC
:105108001A1D09921C680021221C0B1C049205938D
:1051180033062324DB17211C1940894680235B00B2
:105128001E430822924600F01CFD80239B01334356
:1051380034060AD41E1C0021894609E00022914643
:10514800330605D5134CA14602E01E1C12498946B8
:10515800F20528D50E4B1E4025E033063024DB1718
:10516800211C19408946F2051DD5094B1E401AE03D
:1051780000239946F40516D5054B1E4013E0C0469A
:105188008C690000886A0000981800102C6D0000D7
:10519800FFFDFFFF78300000583000008023DB015E
:1051A8001E430022914673043DD5B4070BD5099BD5
:1051B8000733072293431A1C0832099219685A6860
:1051C8000491059208E0099B1A1D09921B68D917DA
:1051D8001A1C0B1C04920593720708D56C46102103
:1051E8000B5FD9171A1C0B1C0492059309E03107B1
:1051F80007D5FF24049A14400021221C0B1C04929A
:105208000593059B002B09DA049B059C0022594253
:10521800A241049105922D24A14636E0B1062FD46F
:10522800720630D431E0B3070BD5099B0733072248
:1052380093431A1C0832099219685A680491059216
:1052480008E0099B1A1D09921C680021221C0B1CEE
:1052580004920593720708D5049C23041C0C0021B2
:10526800221C0B1C049205930FE031070DD5FF2477
:10527800049A14400021221C0B1C0492059304E09C
:105288002B23994601E02024A146F10501D400F022
:105298006AFC974B1E4000F064FC80239B011E4370
:1052A8008023DB00334399460EE080239B011E4395
:1052B80080231B013343994606E080239B011E434C
:1052C800C0231B0133439946099B073307229343A5
:1052D8001A1C083209921D685C682A1C231C049257
:1052E80005934A46D2050CD55346002B0BD1C02353
:1052F8001B014E4633407F481B18594259418A4684
:1053080001E006229246281C211CFFF71FFC0028FA
:1053180020D0281C211C714B6F4AFFF7D3FB0028B3
:1053280007D04B469B0401D5734B00E0734B0493A5
:105338000CE04C46A40401D5714B00E0714B4E467D
:10534800B60601D5049301E0013304936E4B484639
:105358000340A5E6281C211CFFF704FC00280AD0FE
:105368004946890401D5694B00E0694B0493664BB3
:105378004A46134094E6281C211CFFF7E3FB00284B
:1053880009D060234E461E43B1462A1C80200006E1
:10539800231804920593049C059D201C291C11AA1E
:1053A80000F0FAFC119B5800C0180A21FFF73CFCDA
:1053B8001190201C291C494B474AFFF727FB00285E
:1053C80003D01DE0119B0133119311980130FFF7B1
:1053D80087FC021C0B1C201C291CFFF793FB0028D0
:1053E800F0D102E0119B013B11931198FFF778FC73
:1053F800021C0B1C201C291CFFF764FB0028F1D1A0
:10540800C0231B014E461E408023DB009E420AD06B
:10541800C0231B019E4200D07EE1119B9A4502DD0C
:10542800043300DB78E111989A235B00984208D195
:10543800201C291C2A4A2B4BFFF786FA0490059159
:105448000AE04042FFF74CFC021C0B1C201C291CE4
:10545800FFF7D0F904900591049C059D201C291C98
:105468001E4B1D4AFFF7D2FA002800D085E0201C09
:10547800291CFFF76BFB00280AD1049C059D201C02
:10548800291C194A194BFFF7FBFA002842D157E0AB
:10549800201C291C114B104AFFF714FB002807D0C9
:1054A8004946890401D5144B00E0144B04930CE0E1
:1054B8004A46920401D5124B00E0124B4C46A40612
:1054C80001D5049301E0013304930F4B4E4633405A
:1054D800E6E5C046C046C0460000000000000000E7
:1054E800A0C8EB85F3CCE17F000000000000244059
:1054F800FFFDFFFF00F4FFFF046D00000C6D0000CE
:10550800146D00001C6D0000FFFEFFFF246D0000FD
:10551800286D0000119F01370797201C291CD54BC7
:10552800D34AFFF711FA041C0D1C0137D14BD04A9E
:10553800FFF7A6FA0028EFD104940595079C11946B
:10554800049C059D201C291CCB4ACC4BFFF7BAFABA
:10555800002812D0119F013F201C291CC54BC44AAA
:10556800FFF748F9041C0D1CC34AC44BFFF7AAFAFD
:105578000028F0D10494059511975046002805D0CD
:10558800C54973185A425341C01A8246049C059D66
:1055980052465042FFF7A4FBB94ABA4BFFF72AF923
:1055A800021C0B1C201C291CFFF724F8041C0D1CD2
:1055B80004940595AF4BAE4AFFF762FA00280AD06B
:1055C800119B01331193201C291CAA4BA84AFFF7F1
:1055D800BBF9049005915346002B00D1ABE3882218
:1055E80012014C46224080231B019A4200D0B0E3AE
:1055F8005646102E01DD10208246049C059D50461B
:10560800FFF76EFB021C0B1C201C291CFFF7F2F88D
:10561800FEF7C0FF051C0C1C0B1C034300D186E3DE
:105628005246002A00D186E30A220023FFF7C1FA76
:105638001A4300D08DE35646013E281C211C0A223D
:105648000023FFF7B6FA051C0C1C002E00D171E3ED
:105658000A220023FFF7ADFA1A43EDD0B24678E3E9
:1056680001235B42984401274C46E40431D5119C40
:10567800201C0321FFF70AFB0231042903D8890003
:10568800864B5B589F46069F1EE004980599794B08
:10569800774AFFF7AFF804900591013C1194012671
:1056A8007642B04402270FE004980599764A774B72
:1056B800FFF7A0F804900591023C119402204042A3
:1056C8008044032700E001275146CB43DB171940EC
:1056D8008A4660234A4613405A1E93414446E41AB8
:1056E800A0461198FFF762FB632802DD0126764287
:1056F800B04404980599FEF74DFF041C0D1CFEF7F5
:105708003DFF021C0B1C04980599FEF76EFF0490E0
:10571800059156460696F1E05646069648464005D7
:1057280038D5119B002606960E2B33DCDB435344F9
:105738000693102B01DD102606964846000629D44C
:10574800069E002E26D0524E524F0698824650464C
:10575800FFF7C6FA021C0B1C201C291CFFF74AF88D
:10576800474A484BFEF746FF00F08AFB414B404A48
:1057780000F0DAFB321C3B1CFFF748F9002807D081
:10578800012149428A445246002AE0D1069201E0AA
:1057980056460696424B4E461E40089611981038BB
:1057A800069E734298420EDBFFF79AFA0122524294
:1057B80000F026FB021C0B1C201C291CFEF71AFFFC
:1057C800049005910EE0181CFFF78AFA0122524254
:1057D80000F016FB021C0B1C201C291CFEF70AFFFC
:1057E80004900591049E059F11980130FFF778FAFF
:1057F800021C0B1C301C391CFFF784F9002802D04E
:10580800119B01331193119B002B28DB102B13DD07
:10581800103B11935842FFF763FA021C0B1C301C13
:10582800391CFEF7E7FFFEF7B5FE041C0D1C1848EF
:1058380018490490059135E0301C391CFEF7AAFE82
:10584800041C0D1CFEF79AFE021C0B1C301C391C94
:10585800FEF7CBFE049005910023119322E000236C
:10586800119300240025012731E0C046C046C046F8
:105878000000000000002440000000000000F03F8D
:10588800000000000000E03F000000000000594058
:10589800000000000000000000F4FFFF6C6C000036
:1058A800FFFBFFFF002D02D110D1092C0ED9BA4BF6
:1058B80010330127013708331A1C083A5168A942E6
:1058C80005D8F7D11268A242F4D900E00127069E54
:1058D800F31911981B184146C91A8846002E02D19F
:1058E8004A46120602D501235B42984460234E467D
:1058F80033405A1E93414046C01A80464146CB4326
:10590800DB171940884684239B00089E1E420ED14F
:1059180000290CD00E1CB8465F46013E381C2021D9
:10592800FFF70EFA002EF8D1BB464746B046089E50
:10593800B60608D52B21089E760600D52D21584697
:10594800FFF7FEF906E0089E760603D558462021A3
:10595800FFF7F6F9089EF6060FD4404600280CD04B
:105968004646B8465F46013E381C3021FFF7E8F945
:10597800002EF8D1BB464746B0467B1EDB00864A60
:10598800D61830218946013F32687368AB420DD87A
:1059980001D1A2420AD849460131C9B2A41A9D418F
:1059A800AB4204D8F8D1A242F6D900E0494658469D
:1059B800FFF7C6F9083E002FE5D180242401089E90
:1059C80034400DD0119B002B0ADD5D46013B11933D
:1059D800281C3021FFF7B4F9119B002BF6DCAB46ED
:1059E800069E002E04D1089E360600D5BBE16BE06A
:1059F80058462E21FFF7A4F9069B102B00DD102333
:105A08009A46DB43DB1750461840824606995246B1
:105A18008E1A002C10D0049C059D119BD01AFFF7FC
:105A28005FF9021C0B1C201C291CFEF7E3FEFEF785
:105A3800B1FD041C0D1C0EE0049C059D5046FFF7AB
:105A48004FF9021C0B1C201C291CFEF7D3FEFEF785
:105A5800A1FD041C0D1C5046002828D05346013BCC
:105A6800DB004D4FFF18069030239A46C146B046DA
:105A7800061C013E3A687B68AB420DD801D1A242B0
:105A88000AD851460131C9B2A41A9D41AB4204D883
:105A9800F8D1A242F6D900E051465846FFF750F92E
:105AA800083F002EE5D106964646C84601E0504616
:105AB8000690002E08D05C46013E201C3021FFF7DE
:105AC8003FF9002EF8D1A346089C64053AD5652114
