:10000000E01F00100B010000D5000000D700000029
:1000100000000000000000000000000000000000E0
:10002000000000000000000000000000D9000000F7
:100030000000000000000000DB00000011210000B3
:10004000DF000000DF000000DF000000DF00000034
:10005000DF000000DF000000DF000000DF00000024
:10006000DF000000DF000000DF000000DF00000014
:10007000DF000000DF000000DF000000810500005D
:10008000DF000000DF000000DF000000DF000000F4
:100090003D0700004D0800000000000000000000C7
:1000A000DF000000DF000000DF00000000000000B3
:1000B000DF000000DF000000DF0000007D0800001E
:1000C00020620000000000102C0000002C00001036
:1000D000581A0000FEE7FEE7FEE7FEE7FEE7FEE750
:1000E000002330B55D181C18934200D330BD24683E
:1000F00004332C60F6E7002310B51C001A188B425D
:1001000000D310BD14600433F8E710B50B4C0C4B52
:100110009C4205D30B4B9C4209D304F0EDF8FEE75B
:10012000A26861682068FFF7DBFF0C34EFE76168C5
:100130002068FFF7E0FF0834ECE7C046C00000008D
:10014000CC000000D4000000322300B58BB0059332
:100150000690079105A8034B01A9984701980BB099
:1001600000BDC046F11FFF1F342300B58BB00690C1
:1001700000200593079102F02DF9FA21890005F07E
:100180006EFB044B089001A905A8984701980BB095
:1001900000BDC046F11FFF1F332300B58BB0069092
:1001A000002005930892079102F014F9FA218900C2
:1001B00005F055FB034B099001A905A89847019844
:1001C0000BB000BDF11FFF1F70B50500140001202A
:1001D00000291ED072B61A4AE023A0188022DB0143
:1001E00012021E00366804331E509342F9D1F822E1
:1001F000002312018900A218E858D05004338B4222
:10020000FAD107210800FFF79FFF002802D0012044
:1002100062B670BD07210800FFF7A6FF0028F6D1DF
:1002200007210800FFF790FF0028F0D18022E0208E
:1002300021005201C001FFF7AFFF431E9841E7E7DD
:10024000FC8FFFFF044A10B51188044C4B1C60540E
:100250001F210B40138010BD5408001034080010FB
:100260000222034BD9681142FCD098607047C04607
:100270000000044070B50400074DC0B22B689847D9
:10028000200A2B68C0B29847200C2B68C0B2984750
:100290002B68200E984770BD2000001070B5040038
:1002A000064DC0B22B689847200A2B68C0B2984709
:1002B000200C2B68C0B2984770BDC04620000010CB
:1002C00070B50400034DC0B22B6898472B68200A14
:1002D000984770BD2000001070B50400074D000E57
:1002E0002B689847200C2B68C0B29847200A2B68CF
:1002F000C0B298472B68E0B2984770BD200000104C
:1003000070B50400064D000C2B68C0B29847200A57
:100310002B68C0B298472B68E0B2984770BDC046C2
:100320002000001070B50400034D000A2B689847A8
:100330002B68E0B2984770BD20000010194BF0B553
:100340001888194980B20A889042FCD0421C520594
:10035000164C520D1A80265C188880B20A8890428A
:10036000FCD0421C5205520D1A80275C1A883F02AD
:1003700092B208888242FCD0551C6D05A05C6D0DC0
:100380001D801A8800043843304392B20D88AA4277
:10039000FCD0511CA25C4905490D1206104319807E
:1003A000F0BDC04632080010300800102F000010C9
:1003B000134A70B51088134980B20B889842FCD05C
:1003C000431C5B05104E5B0D1380345C108880B2BB
:1003D0000B889842FCD0431C5B055B0D1380355C99
:1003E00013882D029BB208888342FCD0F05C591C14
:1003F000490500042843490D2043118070BDC046C3
:1004000032080010300800102F00001030B50D4CDD
:100410000D4D228892B22B889A42FCD0531C5B056A
:100420000A485B0D2380815C228892B22B889A4215
:10043000FCD0805C531C5B055B0D000208432380ED
:1004400030BDC04632080010300800102F000010E8
:10045000194BF0B51A88194F92B239888A42FCD0EC
:10046000511C4905164E490D1980B55C1C882D0696
:10047000A4B23A889442FCD0611C4905490D325D12
:100480001980188812042A4380B239888842FCD027
:10049000411C4905490D1980355C1C882D02A4B208
:1004A00039888C42FCD0305D611C4905490D1043F0
:1004B00028431980F0BDC0463208001030080010F3
:1004C0002F000010134B30B51988134D89B22A88BC
:1004D0009142FCD04A1C5205104C520D1A80605CAF
:1004E0001988000489B22A889142FCD04A1C52051E
:1004F000615C520D09021A800843198889B22A8862
:100500009142FCD04A1C5205615C520D08431A808E
:1005100030BDC04632080010300800102F00001017
:100520000D4930B50A880D4D92B22B889A42FCD005
:10053000531C5B050A4C5B0D0B80A05C0A88000213
:1005400092B22B889A42FCD0531C5B05A25C5B0DD7
:1005500010430B8030BDC046320800103008001038
:100560002F000010A023DB051B69002B05D12022E2
:10057000024B59691142FCD018607047008000405E
:100580008022D205536830B52E49A82B40D012D80E
:10059000802B28D00AD810208343602B08D1012358
:1005A0000B70033313600433936130BD902B1AD06A
:1005B00000230B703CE0B82BFAD10B78022B3DD115
:1005C000214B22491C880B8898B29C4206D0204CB3
:1005D000431C205C90601F2213400B808023042268
:1005E000DB051A600FE00B78012B27D18022194917
:1005F000D20508889568431C5B055B0D0B800423BE
:10060000154C2554136080230822DB059A61CCE742
:1006100002230B700C4B0D491C880B8898B29C422E
:1006200006D00B4C431C205C90601F2213400B80B3
:1006300080230422DB051A609218E7E70423936104
:10064000E1E7C0462E0000105408001056080010C4
:1006500034080010300800102F00001080220B4BCF
:100660001202DA6780236C22DB059A6100220221E4
:10067000074B1A635A63074B5A6804338A431A605C
:10068000DA6F1E318A43DA677047C04604E100E042
:100690000040044000800440F8B500271A4B1B4D71
:1006A0001F70FFF7DBFF0122194BAE6F38001A6392
:1006B0005A6301F08FFE310005F0D1F8802415490E
:1006C00005F0CDF8E4056061380001F083FE3100EB
:1006D00005F0C5F80F4905F0C2F8202320612A1D56
:1006E000D16F0B43D36702236A681343FF226B6009
:1006F000094B1B785B0013408022E360074B12021A
:100700001A6044232360F8BD2E00001000800440CE
:100710000040044000350C000000001000E100E043
:1007200010B5044B1870044B1B789B0701D5FFF7DD
:10073000B3FF10BD000000102D0000100D4A032172
:10074000D06970B503000B40084202D0116A0B4318
:10075000136204240848094D03889BB2D1682142E2
:1007600001D1038070BD9668591CEE544B055B0D9A
:10077000F4E7C04600000440300800102F000010CD
:1007800080220F4B5203DA6708220E4B59680A4346
:1007900002215A605A688A435A6010220A4B013972
:1007A000DA611A665A6601329A66084B5A6804334F
:1007B0008A431A60DA6F06490A40DA677047C04612
:1007C00004E100E0000004400040044000800440D8
:1007D000FFF7FFFF10B5FFF7D3FF11220221154BE2
:1007E0001548DA611A66103A5A66996643681343E7
:1007F0004360802311481B01C46F2343C367104B20
:100800001A60104BC63219611A600431C33A5A603B
:100810005961D96811420AD103221A625968013A12
:100820000A435A608022084B52031A6010BD99682F
:10083000EFE7C046004004400080044004800440CC
:10084000948004400000044000E100E0084A10B534
:10085000936814681B075B0F022B07D1054A0648F3
:1008600011884B1C5B055B0D4454138010BDC046C2
:1008700000800040300800102F000010A023042248
:100880000D49DB05585802435A501A690B4B002A90
:100890000CD101321A600A4B5969114204D18022ED
:1008A000084B92031A6070471968F5E78021064AE1
:1008B0008903D1670022F5E71C800000A8400440AE
:1008C0000080004000E100E004E100E080220B4BEA
:1008D0001206DA6780229203DA670022084B5A6018
:1008E000084B10321900DA61A431A8330A601A608B
:1008F000054A0649D36F0B40D367704704E100E017
:10090000008000400040044004800440FFEFFFFFEF
:10091000154B70B5C218154B04009A4222D8144BDF
:100920001860144B1B78DB071CD5134B00209E6FFF
:10093000124B1D6801F04EFD310004F090FF2900BC
:1009400004F08DFF2100000904F089FF80210C4B89
:10095000DA680A43DA60020AC0B25A601860DA68DC
:100960008A43DA6070BDC04680DAFFFFC01C0F000A
:10097000040000102D000010008004409880044006
:100980000080004070B5FFF7A1FF1022224B2348E2
:10099000DA61A023DB0519580C3A9143195020481D
:1009A000204C19580125114319501F48195811435B
:1009B00019501E49585802435A5011221C4B1A60B4
:1009C0000023236080231B4A5B01D16F0B43D36755
:1009D000194B1D60194B1868FFF79AFF0322184B3B
:1009E000DA6004325D609A60193259691142FCD0B4
:1009F0000122596911420DD1A023DB051969114B60
:100A0000002903D12260802292031A6080221206FC
:100A10001A6070BD1968ECE70040044004800000D3
:100A200008800000A8400440108000001C800000E6
:100A3000A440044004800440988004400400001056
:100A40000080004000E100E010B50400207800289C
:100A500000D110BD024B01341B689847F6E7C04631
:100A600020000010064907480A8892B20388934282
:100A7000FCD0531C04485B055B0D805C0B80704709
:100A800032080010300800102F00001070B50F4B16
:100A90001B789B0718D501F01BFC04000C4E0D4D74
:100AA00032882B889A420FD001F012FC001BFA28E2
:100AB000F4D972B60023084A1380084A1380084A02
:100AC0002B801370338062B670BDC0462D000010BD
:100AD00054080010560800103208001030080010AA
:100AE0002E000010002010B50B4B1B78834209D05C
:100AF0000A4B0B4A1C881188A3B28AB28C4202D9D5
:100B00009B1A98B210BD9342FCD2802109015B1858
:100B1000981A80B2F6E7C0462D0000103008001089
:100B200032080010F0B51249124F134E134D144CF9
:100B3000144A154B00280DD1387014483060144801
:100B40002860144820601448086014491160144A51
:100B50001A60F0BD012038701248306012482860D9
:100B6000124820601248086012491160124AEFE7EB
:100B7000140000102C000010080000100C000010E1
:100B800010000010180000101C00001021050000CB
:100B9000C50400005104000025030000010300000B
:100BA000D90200000D040000B10300003D03000065
:100BB000C10200009D02000075020000014B187880
:100BC0007047C0462C000010014B18787047C04693
:100BD00000000010014B18687047C0460400001068
:100BE000014B18787047C0462D00001070B5040006
:100BF000FFF74CFF1E4D2B789B0701D5FFF72EFD0D
:100C00002B785B0701D5FFF7BBFD2B78DB0701D500
:100C1000FFF75CFE174B1878FFF784FF0023164A96
:100C20001380164A1380164A1380164A1380164AF8
:100C30001370FF2C02D12C789C420BD0134B012C4B
:100C400010D0042C08D002222A70114A1A60FFF733
:100C500023FD2C78200070BD0E4A2C701A60FFF71F
:100C6000B9FDF6E70C4A2C701A60FFF78BFEF0E72F
:100C70002D0000102C000010320800103008001069
:100C800056080010540800102E000010200000101C
:100C9000450200006102000065050000F0B58DB05E
:100CA000170012AA12880091079213AA12880190C5
:100CB000089214AA12780992DA00111889B20691E2
:100CC000594908880699884205D2013083B20193B8
:100CD00001980DB0F0BD00995218544992B209889C
:100CE0009142F2D31F2FF3D9013BDBB20293203F95
:100CF00001F0EEF94E4AFF00BB180393029B002B54
:100D000034D11E00019B08339BB204938027009BC3
:100D1000019C9D19039BADB29B5D0293029B1F42F8
:100D200017D020002B002200290000F0D7FF00F090
:100D3000BFFF079800F0A8FF0134049BA4B27F080E
:100D40009C42EBD10136082EE0D101F0B7F9069BA9
:100D5000BDE7099B002BEFD020002B0022002900CB
:100D600000F0BCFF00F0A4FF0898E3E7039F3B00FE
:100D700008330A933B78009A0B936B461B89019DBD
:100D80000593029B9E18082304937833B6B203930D
:100D9000059B0B9A5C19039BA4B213422BD0330022
:100DA00022002800009900F099FF00F081FF009BCD
:100DB000641BF31A013401335C43A4B2002C15D137
:100DC000059B0133ED18191C039BADB25B0803931F
:100DD000049B013B0493002BDAD1009B0137591887
:100DE0008BB200930A9B9F42C4D1AEE7079800F0F4
:100DF0004BFF013CE1E7099B002BE1D033002200CF
:100E00002800009900F06AFF00F052FF009B641B6D
:100E1000F31A013401335C43A4B2002CD0D00898FB
:100E200000F032FF013CF7E75C08001058080010A2
:100E3000B0590000F0B589B015000EAA12880C0058
:100E400005920FAA12881E1C069210AA1278079209
:100E5000002B00D101268023F6B21B02984210D14C
:100E6000184F388843082800049304F08BF9704326
:100E7000049BC0004008181A3B8880B298429B41EE
:100E8000184080231B029C4208D10F4BB1001B88E5
:100E90005C08641AA4B29C429B411C402A78002A38
:100EA0000ED0079B21000293069B01350193059B01
:100EB00000933300FFF7F2FE024B1B888342EDD212
:100EC00009B0F0BD5C08001058080010F0B58DB0F6
:100ED000069312AB1B8857423FB2079101930699C4
:100EE0007B0001334B4359433B007B430393059104
:100EF0000B00039952438C466344049353000A93B6
:100F0000069B00905B435B000B93002302936B46B0
:100F10001B890893002F0ADD029B029A5E1C069B28
:100F2000B4B236B2934200DD93E00DB0F0BDBBB277
:100F30000993009BBAB29C1A079B089AA4B29D1809
:100F40005F4BADB21B88A34212D95E4B1B88AB42EC
:100F50000ED901F0BDF82B0022002900200000F07E
:100F6000BDFE00F0A5FE019800F08EFE01F0A6F88F
:100F7000009ABBB29E18524BB6B21B88B34212D92C
:100F8000504B1B88AB420ED901F0A2F82B00320067
:100F90002900300000F0A2FE00F08AFE019800F067
:100FA00073FE01F08BF8079B089A9D1A444BADB273
:100FB0001B88B34212D9434B1B88AB420ED901F0B8
:100FC00087F82B0032002900300000F087FE00F087
:100FD0006FFE019800F058FE01F070F8384B1B8846
:100FE000A34212D9374B1B88AB420ED901F070F8DF
:100FF0002B0022002900200000F070FE00F058FEB7
:10100000019800F041FE01F059F8049B059A5B003D
:101010009A420BDC0B99099F8C4662440592059914
:10102000049A8C46013762443FB20492039A9A4272
:1010300000DA6CE7089B01331BB2029313000A9A93
:10104000944663440393039A049B94466344049335
:101050005DE71B4F009A3B8893422FD9079B1D19D0
:10106000184BADB21B88AB4212D901F031F8009A8F
:101070002B001000290000F031FE00F019FE01984D
:1010800000F002FE01F01AF83B88009A934215D94D
:10109000079B1C1B0B4BA4B21B88A3420ED901F06B
:1010A00017F8009A23001000210000F017FE00F04E
:1010B000FFFD019800F0E8FD01F000F802962BE733
:1010C0005C08001058080010F0B58BB008910021A2
:1010D0001D0053421BB2069313B207900593059B64
:1010E0008B4201DA0BB0F0BD6B469B8A0493049AE5
:1010F000079B9B1A9BB201938BB20293029A089BA7
:101100009C1A794B019A1B88A4B2934212D9774B4F
:101110001B88A3420ED900F0DBFF019A23001000C8
:10112000210000F0DBFD00F0C3FD280000F0ACFD65
:1011300000F0C4FF029A079B9B1A9BB2049A00938B
:10114000089B9F1A684B009A1B88BFB2934212D922
:10115000664B1B88BB420ED900F0BAFF009A3B00D9
:101160001000390000F0BAFD00F0A2FD280000F0E8
:101170008BFD00F0A3FF049B079A9E185A4BB6B252
:101180001B88B34212D9594B1B88A3420ED900F0D9
:101190009FFF230032002100300000F09FFD00F08F
:1011A00087FD280000F070FD00F088FF029B009A88
:1011B0005B009BB209939B189BB203934A4B039A23
:1011C0001B88934212D9494B1B88BB420ED900F0B1
:1011D0007FFF039A3B001000390000F07FFD00F014
:1011E00067FD280000F050FD00F068FF099B1C1906
:1011F0003D4BA4B21B88B34212D93C4B1B88A3427F
:101200000ED900F065FF230032002100300000F00D
:1012100065FD00F04DFD280000F036FD00F04EFFAA
:10122000049B089A9E18304B039A1B88B6B29342CF
:1012300012D92E4B1B88B3420ED900F049FF039AF6
:1012400033001000310000F049FD00F031FD2800AE
:1012500000F01AFD00F032FF234B019A1B889342E5
:1012600012D9224B1B88A3420ED900F031FF019AFC
:1012700023001000210000F031FD00F019FD2800CE
:1012800000F002FD00F01AFF174B009A1B889342F2
:1012900012D9164B1B88B3420ED900F019FF009AE1
:1012A00033001000310000F019FD00F001FD2800AE
:1012B00000F0EAFC00F002FF029B029A591C069B18
:1012C00009B20133D318D3181AB298B206921B048C
:1012D00000D504E7049A013A93B25B00C31A12B234
:1012E0001BB205920693FAE65C080010580800103D
:1012F000F7B51C0008AB1B88150001931C4B0700B9
:101300001A880E00824201D8571EBFB2194B1B88A3
:10131000B34201D85E1EB6B2AA4201D8013A95B2D4
:10132000A34201D8013B9CB2AF4202D93B002F003F
:101330001D00A64202D9330026001C0000F0C8FEA2
:101340002A0038002300310000F0C8FC00F0B0FC97
:10135000EF1BA51B013701357D43002D02D100F0A5
:10136000ADFEF7BD019800F08FFC013DF5E7C046EA
:101370005C08001058080010F0B589B0049353427F
:101380001BB2069313B20593002307900391059AAD
:101390009A4201DA09B0F0BD6A469CB2958A039B75
:1013A000079A1919561B049BAF18B6B289B2BFB27F
:1013B0003A00300000930B00FFF79AFF039B3A00BE
:1013C000191B049B89B2300000930B00FFF790FFBC
:1013D000079B66001F1B039BBFB2E918BE19049B45
:1013E00089B2B6B23200380000930B00FFF780FFDD
:1013F000039B3200591B049B89B2009338000B00F9
:10140000FFF776FF069A631C0132A218A41821B2D6
:101410001BB2A2B206912104B9D4013DA9B2490080
:10142000521A28B212B205900692B0E7F0B5150034
:101430008DB012AA148813AA12880600029200190D
:101440002A1B944690422DDA1A1B0F1905929742D7
:1014500028DA82B20392624692B20492029A039808
:101460000092049AFFF744FFBBB206936B469B8A37
:1014700030000793029B039A06990093079BFFF79E
:1014800037FF029B2A0000930699079B0498FFF7F9
:101490002FFF63421BB2099323B208930023089ADB
:1014A0009A4201DA0DB0F0BD6A46128C9FB20592E5
:1014B0000599039A069B521ADE1B92B2029BB6B2A2
:1014C0000A923100039A0A9800933300FFF710FF45
:1014D000039B059ADB1B9BB20B93069B0B989D1AF3
:1014E000029BADB22900039A00932B00FFF700FF87
:1014F000049B059A31009C18029BA4B22000049A18
:1015000000933300FFF7F4FE049B2900DE19029BD1
:10151000B6B23000049A00932B00FFF7E9FE079B58
:101520002000DD19029BADB22900049A00932B0024
:10153000FFF7DEFE079B059A30009C18029BA4B2C1
:101540002100049A00932300FFF7D2FE029B29009A
:10155000039A0A9800932B00FFF7CAFE029B210012
:10156000039A00930B982300FFF7C2FE099A7B1C95
:101570000132BA18BF1839B21BB2BAB20991390494
:1015800000D58CE7059C013CA1B24900521A20B25B
:1015900012B20890099282E7F0B58FB0039314ABB2
:1015A0001B8808910993564B07001B88811A9942A2
:1015B0002DDA0399089B5B1A524909888B4226DA77
:1015C000544224B20399630001334B43594323002F
:1015D0006343059307910B00059952438C4663447E
:1015E000069353000C93039B5B435B000D93002316
:1015F00004936B461B8A0A93002C0ADD049B049A11
:101600005E1C33B20593039BB4B2934242DC0FB02D
:10161000F0BDA3B20A9A0B93FD1A089BADB29918BC
:10162000A3B2DE19099B89B2B6B23200280000933A
:101630000B00FFF75DFE089B0A9A2800991A099B88
:1016400089B2320000930B00FFF752FE069B079A07
:101650005B009A420CDC0D990B9A8C46013214B255
:10166000079A624407920799069A8C46624406924A
:10167000059A9A42BDDB0A9B01331BB20493130007
:101680000C9A944663440593059A069B94466344DA
:101690000693AEE71A4E3388BB422ED9089B1D191C
:1016A000184BADB21B88AB4211D900F011FD2B00D5
:1016B0003A002900380000F011FB00F0F9FA09980F
:1016C00000F0E2FA00F0FAFC3388BB4215D9089B1F
:1016D0001C1B0C4BA4B21B88A3420ED900F0F8FCD3
:1016E00023003A002100380000F0F8FA00F0E0FA98
:1016F000099800F0C9FA00F0E1FC059B04937DE72E
:101700005C08001058080010F0B58DB0029312ABC1
:101710001C8813AB1F8803190393131B049303192D
:1017200016000D00121B934231DA029B0A191B1B93
:101730009A422CDA92B206929BB202000699009766
:101740000793FFF7D5FD6B469B8908936B461B8A71
:1017500008980993029B099A19000097FFF7C8FDA2
:1017600032003000079B06990097FFF7C1FD2B0060
:10177000099A290008980097FFF7BAFD00226342F2
:101780001BB20B9323B20A930A9B934201DA0DB06A
:10179000F0BD6B461B8D05930599089B5B1A9BB2A8
:1017A000039393B20293029A069B9E1A764B039A76
:1017B0001B88B6B2934212D9744B1B88B3420ED920
:1017C00000F086FC039A33001000310000F086FA26
:1017D00000F06EFA380000F057FA00F06FFC029A41
:1017E000089B9B1A9BB2059A0493069B9D1A664B15
:1017F000049A1B88ADB2934212D9644B1B88AB424A
:101800000ED900F065FC049A2B001000290000F0AE
:1018100065FA00F04DFA380000F036FA00F04EFCA0
:10182000099B059A9C18584BA4B21B88A34212D955
:10183000564B1B88B3420ED900F04AFC33002200FD
:101840003100200000F04AFA00F032FA380000F0CF
:101850001BFA00F033FC099B029A9E184A4BB6B261
:101860001B88B34212D9494B1B88AB420ED900F0FA
:101870002FFC2B0032002900300000F02FFA00F07E
:1018800017FA380000F000FA00F018FC079B029AE3
:101890009D183D4BADB21B88A34212D93B4B1B8810
:1018A000AB420ED900F014FC2B00220029002000CE
:1018B00000F014FA00F0FCF9380000F0E5F900F04F
:1018C000FDFB079B059A9C182F4BA4B21B88B342C3
:1018D00012D92E4B1B88A3420ED900F0F9FB23002E
:1018E00032002100300000F0F9F900F0E1F9380091
:1018F00000F0CAF900F0E2FB234B039A1B889342E5
:1019000012D9224B1B88AB420ED900F0E1FB039A9F
:101910002B001000290000F0E1F900F0C9F93800AF
:1019200000F0B2F900F0CAFB174B049A1B889342EF
:1019300012D9164B1B88A3420ED900F0C9FB049A9A
:1019400023001000210000F0C9F900F0B1F93800BF
:1019500000F09AF900F0B2FB029B02995A1C0B9B13
:1019600012B20133CB18CB1818B299B20B901B04EA
:1019700000D509E7059C013CA3B25B00CB1A20B25D
:101980001BB20A900B93FFE65C0800105808001089
:10199000F0B51F00160004000D0085B00AAB1B88CF
:1019A0000200039300933B00FFF7A2FC039B32006D
:1019B0003900200000933B00FFF79AFC039B3200A4
:1019C0002900300000933B00FFF792FC039B32009C
:1019D000009329002B002000FFF78AFC05B0F0BD22
:1019E000F0B58DB01E0012AB1B8805000C0017006F
:1019F0000493904201D0B14209D1049B3A00009374
:101A0000210033002800FFF773FC0DB0F0BD474BF9
:101A10001A88824201D8551EADB2454B1B88A3429D
:101A200001D85C1EA4B2BA4201D8013A97B2B342BF
:101A300001D8013B9EB27B1B1AB20792321B12B235
:101A40000392012208921B0405D5EB1B1BB20793DE
:101A500001235B42089301230993039B002B05DAC2
:101A6000A31B1BB2039301235B4209936B469B8B21
:101A70000A935B009BB205936B469B890B935B00BB
:101A80009BB2069300F024FB23002A0021002800CB
:101A900000F024F900F00CF9049800F0F5F8079B29
:101AA000039A934222DD069B0A9A9E1A36B2BD42E1
:101AB00002D100F003FBA8E7002E05DB099BE41828
:101AC000059BA4B2F61A36B2089B2100ED18069BBE
:101AD000ADB228002A009E19230000F0FFF800F0A4
:101AE000E7F8049836B200F0CFF8E0E7059B0B9AD0
:101AF0009F1A3FB2B442DCD0002F05DB089BED18E3
:101B0000069BADB2FF1A3FB2099B2800E418059B63
:101B1000A4B22A002100DF19230000F0DFF800F052
:101B2000C7F804983FB200F0AFF8E3E75C08001094
:101B3000580800100D4B70B51B8804000D001600EE
:101B4000834212D90A4B1B888B420ED900F0C0FA8F
:101B50002B0022002900200000F0C0F800F0A8F8B7
:101B6000300000F091F800F0A9FA70BD5C08001098
:101B70005808001070B5040000F0AAFA0021174BB5
:101B8000174A1B881288013B013A08009BB292B2A7
:101B9000962500F0A3F800F08BF8AD01200000F0CE
:101BA00073F8200000F070F8200000F06DF82000BD
:101BB00000F06AF8200000F067F8200000F064F8F8
:101BC000013D200000F060F8ADB2200000F05CF8AC
:101BD000002DE3D100F072FA70BDC0465808001025
:101BE0005C080010014B18887047C0465A08001066
:101BF00010B5124B1B281DD007D80E281AD012285A
:101C000016D0092809D15A2208E0B42810D087221A
:101C1000520090420ED05A28F5D000221A8018881F
:101C200000F0A0F8064B1880064B000C188010BD81
:101C3000B422F3E787225200F0E7C0465A080010AA
:101C4000580800105C080010014B18887047C04607
:101C50005C080010014B18887047C04658080010F7
:101C600010B50024054B1C80054B1C80054B1C80C7
:101C700000F05AF92000FFF7BBFF10BD5C08001010
:101C8000580800105A08001030B58022FF240025A3
:101C9000064B1201010AA4009D50195180218900B0
:101CA00099509D501851995030BDC04600000250C7
:101CB000802280210020084B5201090110B5985064
:101CC0005850FF202C2480001C50FD38FF385850FD
:101CD0008021C900995010BD00000250F7B594460C
:101CE00080268022FF2500902A240020802701934F
:101CF0001B4B1201AD007601985198505C51D734BE
:101D0000FF34FF009C509F510F0A98505F519C5028
:101D10009850595101999C50090A9850595101996C
:101D20009C50985059512B219C5098519850595182
:101D30008021C9009C50995100999850090A595125
:101D40009C509850009959516146090A9C509850EE
:101D5000595161469C50985059519C50F7BDC0460E
:101D600000000250F7B5B4285ED087235B0098428C
:101D70005FD0C8275A2858D1682732339C46503B39
:101D80008022002100932D4B9201995080268022C1
:101D9000FF24362080251201A40076019951995024
:101DA0001851CB30FF30ED0098509D51009D995057
:101DB0001F516F1E2A25BFB298500197674699514F
:101DC00099501D518025013FBFB2ED0098509D51A3
:101DD0003D0A99501951985099501951985099505D
:101DE0001D518025985099501F512B27ED00985078
:101DF000995199501F5198509D51019D99502E0A0B
:101E00001951985099501951985099501E51985005
:101E100099508021019D89011D5198505A50009B75
:101E2000180463461843FEBD1827F0239C46503320
:101E3000A6E7A023A8275B00A0E7C0460000025049
:101E4000802270B500240F4B92018021FF2680254F
:101E50009C50802209015201B600AD00A0420DD174
:101E600098505850202098515D508021C9009950B9
:101E70008022802192010901995070BD9C5021203F
:101E80005C50F0E700000250F8B580230022802566
:101E90008026244C9B010700E2506D0136019042E0
:101EA00023D1FF222823802192006051A051A3500A
:101EB000D933FF33C900A3511420615100F00EFA49
:101EC000FF2210238021782092006751A751A35050
:101ED000F133FF33C900A351615100F0FFF98023B2
:101EE00080229B011201E250F8BD0023FF228021D5
:101EF000802763519200A35189001133FF00A35042
:101F00007820A151675100F0E9F90023FF228021D8
:101F100063519200A35189002933A3501420A15189
:101F20006751DAE700000250F0B5A9B093224C499E
:101F300003A802F0E7F980204A4C000223584A4ADD
:101F4000802613432350494BF600E15880270A436B
:101F50002021E250464A3F0115580D4315500025F7
:101F6000D0580143D1501420A55100F0B7F9802377
:101F70005B00A351782000F0B1F980239B01E5506C
:101F80002B0003A9C85C5D1C3F220300ADB2934344
:101F9000802B49D0C02B5DD0402B08D11040802130
:101FA00003002A004901002B27D12D18ADB2922D34
:101FB00021D9802280230021FF2552011B01A1503D
:101FC000AD00E1502C316151802080218000C9009A
:101FD000E050A1509621490200220139E25062519D
:101FE000E050E2506251E0509142F5D180229201DE
:101FF000A35029B0F0BD2B00C3E7561C019603AED9
:10200000B25C013B944600226250E251FF226646D8
:102010009200A650FD3AFF3AE2518022D20062506F
:102020006A469BB29288BEE73F23184003002A000D
:10203000002BBAD0561CB44600268A5CE651FF2617
:10204000B600A25180229200E2516246013B9BB24F
:1020500092B2EDE73F23184000F040F9A7E7C046F1
:10206000B060000000000250FF0F0000FC3F0000C5
:102070000000035080220021044B12019950FF21DF
:1020800089005850FD39FF399950704700000250BF
:102090008022802110B50024074B520109019C5079
:1020A0005C50FF24A40018518020800058508021EB
:1020B000C900995010BDC046000002508023802105
:1020C000024A9B010901D1507047C04600000250EE
:1020D00080230021014A9B01D1507047000002502B
:1020E000802301385B0498420DD2C021064A0906BC
:1020F00050600648036A1B021B0A0B43036200235D
:10210000936007331360704710E000E000ED00E0DB
:10211000024A1368013313607047C0466418001008
:10212000094B81211A00903210B5802011600021E6
:10213000064A00021162145808312143115001224D
:1021400094331A6010BDC0460040044000000150A6
:1021500010B5072862D005D804282CD0052844D013
:10216000002010BDFF28FBD18122394B80211A604D
:102170000823384A0902136250580343535001237D
:10218000354936480B6004681F33234303608023BE
:1021900004685B0423430360436A002BFCDA036892
:1021A0002F4C234003608023406A0B60002300040F
:1021B000800D1362D5E70223102225490B60274BBF
:1021C000186802431A6080221868520402431A6099
:1021D0001A6A002AFCDA1A68214802401A60186A52
:1021E00091230004800D0B60BBE7012320221A49D4
:1021F0000B601A4B186802431A6080221868520458
:1022000002431A605A6A002AFCDA1A68144802402B
:102210001A60586A90230004800DE4E70123114AF4
:102220000E49136008687F3303430B6080230868FE
:102230005B0403430B60CB6A002BFCDA0B68084895
:1022400003400B609023C86A13600004800D88E788
:1022500090400440000001509440044000C0014000
:1022600000FFFFF898400440094A137803431370B5
:10227000084B1B789B0607D5074B1A78A023D1B2D1
:10228000DB05002A01D11962704708221A62FBE7B8
:10229000681800105E08001060180010094A1378D2
:1022A00083431370084B1B789B0607D5074B1A789E
:1022B000A023DB05002A02D108321A6270470022EF
:1022C000FBE7C046681800105E0800106018001098
:1022D000014B18687047C04664180010034A116823
:1022E00013685B1A8342FBD37047C0466418001022
:1022F00070B50C4A041E0C4D03D190636860200039
:1023000070BD031C642800D96423DCB201232004BF
:10231000936364216B60001B03F09EFAC043A861C5
:10232000EDE7C046004004400000014008232022A1
:1023300070B5244D2B62244B19680A431A60802221
:10234000196852040A431A605A6A002AFCDA2024E7
:102350001A681E4E32401A605A6A196812040C43F9
:102360001C608024196864040C43920D1C60596A37
:102370000029FCDA1968164C3140196000215B6AAB
:1023800029621B049B0D9A4216D1C82364319B001D
:102390009A4203D85A39642A00D9D10823785B18A5
:1023A000DBB25B08834205D823702078FFF7A0FFDB
:1023B000207870BD2070F8E72378002BF8D12070CA
:1023C000F4E7C0460000015000C0014000FFFFF8E4
:1023D00061180010F8B54E4C002801D12068F8BDF6
:1023E0004C4B984272D061D84B4B984267D04B4BC4
:1023F000984268D000212060002272B68E20484B9F
:1024000080001D58002A67D02026B5431D500020AB
:102410001862C825C046013D002DFBD101201A6479
:1024200058645D6458645D6C0542FCD0002957D047
:102430008E208025996080001958A94319500121E8
:10244000D8680842FCD003201867002059675867F5
:1024500059670121586F0842FCD08E2189005858D5
:10246000002A4CD0032202435A5025682D4A2E4B95
:10247000954246D90222DA60002228001A612B49CF
:1024800003F0EDF9FA212A4E2A4B376801381F4034
:102490000002384389003060280003F0E0F9FFF7BC
:1024A0001FFEFF20FEF7A2FB62B697E7224B984281
:1024B0000FD0224B98429DD12221206001E00021C3
:1024C0002060012299E74121206095E741212060A9
:1024D000F7E7422120608FE70326B5431D5098E7B8
:1024E0001A675867596701215867586F0842FCD02E
:1024F0008E20802180001D5829431950ADE72022ED
:10250000B1E70F4A954201D90122B4E70022B2E7B0
:10251000240000100048E8010024F40000366E0199
:1025200000800440FF5962020000014000093D00A4
:1025300000C00140FF00FFFF00512502006CDC02DB
:10254000FF2C310170B572B6294B12211A008E2072
:10255000FC325165102280001958A0249143195073
:102560000121244899670433D867802304251B027E
:10257000E405E05808262840E0501F480500A4352F
:10258000C2612A604266E5583540E550C2621B4A86
:102590000024D0580843D05080205460184A80004E
:1025A000D5582843D05080231B01D4500122154B0D
:1025B00052429C60DC601C611C675C619A61223243
:1025C0005967DA635960104B10491D68280003F001
:1025D00046F90138B040FA210D4B890018600D4BC7
:1025E00028001C6003F03BF9FFF77AFD62B670BD6E
:1025F000008004405F2101000040044000000350BF
:1026000000000150000001402400001000093D00BE
:1026100000C0014064180010F0B593B0029318ABED
:102620001B781400039319AB1D781AAB1E881BABE3
:102630001F880191009001F091FC03001A6805A821
:1026400042615A680D2182619A68C261DA68C68166
:1026500002621A69457342625A699B698262C36267
:10266000019B084A8360009B07828371039B04736C
:102670004371029B0371044B0593FDF7A5FD13B055
:10268000F0BDC04660080010EFBEADDEF0B593B0FF
:102690000F0006A90A00684B049013CB13C213CB9A
:1026A00013C201F0D5FD01F07FFC01F06BFC0028A6
:1026B00012D03800FFF75EFA00230A21029301933B
:1026C000049B080000935D4A0123FEF7B3FB01F071
:1026D00059FCC82800D99EE03800FFF74BFAB42017
:1026E000FFF786FA00248020554D564E02232A001B
:1026F00082210294019400960002FEF79BFB2000C9
:10270000FFF776FA802002232A00822102940194A6
:1027100000960002FEF78EFB0594059B06ADDC00DB
:102720002E1973680F2299B2635998B2049BFEF771
:10273000CBFC635998B27368C21E99B2049B0A38E5
:1027400092B280B200930B00FFF74AF9635998B236
:10275000020073680A3299B2049B033092B280B2CD
:1027600000930B00FFF73CF96359049A98B2736821
:10277000009299B2CB1E0A3902009BB289B2FFF7D0
:102780002FF96359049A98B27368009299B20B00BA
:1027900003310A339BB2020089B2FFF721F901F03D
:1027A00003FC01F085FA96235B00984224D97368F4
:1027B000042299B2635998B2F8231B02FEF7DCFD9C
:1027C000C8204000FFF78AFD605971683B000F2266
:1027D00089B280B2FEF7D0FD01F0E0FB0CAD2851CC
:1027E00001F0D6FB2C196060059C0134E3B205931F
:1027F00001F0C8FBC82811D8FEF774F9002810D1E1
:10280000059B032B89D10CA906A801F023FB002806
:1028100000D061E709E001F0C7FB58E701F0C4FB15
:10282000E6E7FEF71FF90028EAD101F011FD3800B4
:10283000FFF7A0F913B0F0BDB061000043610000E4
:102840005761000010840000F0B55A4C95B0237811
:102850000D00DBB207900B9301F0FAFCFFF760FC70
:1028600012232370F82300211B0208006A22009320
:10287000EF23FEF73DFDFC23DB00D42200216A207C
:102880000093EF23FEF734FD1F2340220021D420C4
:102890000093FF32D0330027FEF72AFD80203B0053
:1028A0007321454A0297019700970002FEF7C2FA8A
:1028B00080203B007D21414A02970197009700024A
:1028C000FEF7B8FA80200123E6213D4A02970197DE
:1028D00000970002FEF7AEFA0697059701F064FB39
:1028E00001F0E6F9374E089000285BD001F04CFA71
:1028F0000400099001F0E2F9059B01000A90A3424F
:1029000002D1069B834217D004222000079BFEF7CA
:1029100033FD089B22002C4900930CA8230002F0F1
:10292000D5FB012305210293079B08000093019525
:1029300000230CAAFEF77EFA0123736010221D4BC0
:102940001B78134218D0214A1368DB1B632B13D961
:1029500064201768FFF7EAFC1D4902000CA802F08A
:10296000B5FB01230293079B0F2100930520002351
:1029700001950CAAFEF75EFAFEF7B4F800280CD019
:10298000FEF770F8002808D170602800FFF7F2F811
:10299000084B0B9A1A7015B0F0BD0A9B0693099B61
:1029A00005939BE7089B7360069B0A93059B09931D
:1029B000C4E7C0465E080010636100006961000062
:1029C000776100000000035085610000641800106A
:1029D00097610000F0B50224250089B00690080038
:1029E0000E000492FFF7C6F8049BDB000793049BDC
:1029F000DB000593FEF776F80028FBD0FEF732F8EF
:102A000007000A2811D00D280FD0092800D120274F
:102A100001230293069B280000933A002100049BA7
:102A20000196FEF73BF9050005E0002D03D00225D5
:102A3000059B1C19A4B2FFF707F9A84203D8022589
:102A4000059B1C19A4B2FFF705F9079BE318834205
:102A500003DB3000FFF78EF80224002FCAD13000CC
:102A6000FFF788F809B0F0BDF0B5BD4C87B023681A
:102A700003910290984723680700984723680190C4
:102A800098472368049098477F250590FDF7EAFF53
:102A900005400600FFF71CFB059A019B38009B18B8
:102AA000049A013BBA18013A01999BB292B2FFF71E
:102AB00015F9FFF7FDF8022D37D0042D05D0012DB3
:102AC00038D0039B029A02930392A64B059F1B6882
:102AD0000193049B5F43330600D5C5E00B2D4DD811
:102AE00078231E422AD0FA24FC26E400F600002FA8
:102AF00040D0FDF7F7FF002800D190E0FDF7B2FFCE
:102B00000300082D64D11C2100029A00400B0A40EA
:102B10004003104318221A40152353439B001843C7
:102B200080B2FFF7B1F8013FE1E7002302938E4B3B
:102B30000393CAE78C4B02930023F9E7013D032D71
:102B400000D987E0002F15D0FDF7CCFF002836D044
:102B5000FDF788FF3E0005008024083E03982C42C4
:102B600000D10298013FFFF78FF86408BE42E9D018
:102B7000002FF3D1FFF7A2FA07B0F0BD182D69D1ED
:102B8000FA26F600002FF5D0FDF7ACFF002864D040
:102B9000FDF768FF0500FDF765FF0400FDF762FF24
:102BA000FC23E400DB001C40C01004432802C00AE0
:102BB000C002204380B2FFF767F8013FE2E7694BAC
:102BC000019A1B689B1AFA22D2009342BAD9D1E724
:102BD000092D0CD10002400B032241030A201A40A8
:102BE00050431C2213406B430843DB0097E70A2D38
:102BF0000DD1C020382109221840194068434A43AA
:102C00004001920010431C229B00134087E7000202
:102C1000DA00C00AC00232401043DB107FE7514B9C
:102C2000019A1B689B1AA34200D860E7A2E7FDF750
:102C300059FF002807D023689847FFF725F8013F80
:102C4000002FF4D196E7474B019A1B689B1AAB42C1
:102C5000F6D98FE7FA25ED00F2E7424B019A1B689F
:102C60009B1AB3428ED985E70B2D35D878231E42A7
:102C700000D0B3E0013D032D00D944E1002F00D185
:102C800078E7FDF72FFF002870D0FDF7EBFE3E0040
:102C900004008025083EAA2855D1FDF7E3FE041E56
:102CA00000D167E7FDF7DEFE04903E008025083E78
:102CB000049B03981D4200D10298013FFEF7E4FFF8
:102CC0006D08BE4201D0002FF2D1013CE4B2002CCD
:102CD000D4D0002FE9D14DE7182D00D013E1002FFB
:102CE00000D147E7FDF7FEFE002800D131E1FDF7F6
:102CF000B9FE0400AA2800D017E1FDF7B3FE061EB6
:102D000000D137E7FDF7AEFE0400FDF7ABFE05008E
:102D1000FDF7A8FEFC23ED00DB0024021D40C010DF
:102D2000E40A0543E4022C433D00A4B22000013D27
:102D3000FEF7AAFFEB1BF318DBB2002B01D0002D2E
:102D4000F4D12F00CBE70398254200D10298013F30
:102D5000FEF79AFF6D08BE4290D0002FF3D109E72D
:102D60000800001064180010FFFF00007E4B019A5D
:102D70001B689B1AFA22D200934200D87EE7F9E63C
:102D8000FDF7B0FE002800D194E0FDF76BFE0300D4
:102D9000AA2852D1FDF766FE0290002800D1E9E68C
:102DA000FDF760FE082D1CD11C2204028300640B79
:102DB000134064031C43182303401520584380002C
:102DC0003E000443A4B22000FEF75EFF013E029ADB
:102DD000F31BD318DBB2002B2CD13700002FCFD13F
:102DE000C8E6092D0CD10402640B630303240A22F4
:102DF000044054431C431C2318406843C000DFE7D1
:102E00000A2D0DD1C02438220923044002406C430E
:102E1000534364019B001C431C2380001840CFE7F0
:102E2000FC220402C300E40AD200E40213401C4363
:102E3000C010C5E7002EC6D1CFE7082D11D11C2147
:102E400000029A00400B0A404003104318221A4027
:102E5000152353439B00184380B2FEF715FF7E1ED7
:102E6000BBE7092D0CD10002400B032241030A20CD
:102E70001A4050431C2213406B430843DB00EAE72F
:102E80000A2D0DD1C020382109221840194068436D
:102E90004A434001920010431C229B001340DAE792
:102EA000FC210002DA00C00AC900C0020A40104337
:102EB000DB10D0E72C4B019A1B689B1AFA22D20038
:102EC000934200D956E63E0087E7FDF70BFE002847
:102ED00020D023689847254B984217D1FDF7C2FDB3
:102EE000061E00D146E6236898473D0002900298EE
:102EF000013DFEF7C9FEEB1BF318DBB2002B01D03E
:102F0000002DF4D12F00002FDFD133E6FEF7BCFEF9
:102F10007D1EF7E7144B019A1B689B1AFA22D20018
:102F2000934200D926E63D00ECE7FDF79BFD050046
:102F3000FDF798FDFC232402E40AC010E4020443D8
:102F4000DB00E8001840204380B2FEF79DFE7D1EA6
:102F5000F7E6054B019A1B689B1AFA22D2009342AE
:102F600000D907E63D00ECE664180010AAAA0000AC
:102F7000F0B54A4D8BB02B6808910992079098479D
:102F80002B6806000400984706900490FDF76AFD40
:102F9000C34305007F20DBB2DB09054005936B1EB0
:102FA0001D2B00D901250027099BBB4202D1FDF74B
:102FB00059FD070080231B029E420CD1FEF744FE00
:102FC0004408280078438000241AFEF73DFEA4B28E
:102FD0008442804104408023069A1B029A420DD10C
:102FE000FEF738FEAB004008C01A83B20493FEF728
:102FF00031FE049B8342804103400493284B1B68AD
:103000000693099B002B35D0FA27FF00FDF76AFDD8
:1030100000283CD0FDF726FD061E36D0FEF714FE34
:10302000A042F3D9059B20000293089B3200019334
:10303000079B049900932B00FDF730FE0400E5E7A1
:10304000FDF750FD002818D0FDF70CFD0600FEF737
:10305000FBFDA0420CD9059B20000293089B320087
:103060000193079B049900932B00FDF717FE0400C2
:10307000013FFFB2002FE3D107E0094B069A1B681E
:103080009B1AFA22D2009342F4D90BB0F0BD044B44
:10309000069A1B689B1ABB42B8D9F6E708000010D5
:1030A00064180010F0B58DB0FFF74CFA8026A0210F
:1030B0000427A94CA94A236810689D79C9053601DF
:1030C0000B69002B00D132E1FEF7CAFD2268A44B48
:1030D00012689A422BD0A34EA348FFF77BF9300029
:1030E0000025FEF747FD0A210123A04A08000295AA
:1030F00001950095FDF79EFE3220FFF7F9F8FA20C2
:103100008000FFF7EBF828003100FFF7BFFA9621A7
:103110003023202204200295019500958901039611
:10312000FFF77AFA28003100FFF78EFB0435236899
:1031300018798F4B5843FFF74DF98E4B1B789B073F
:1031400001D501F085F82068C36A14300293436901
:103150000193036900930FC800F004FF2368DA8924
:1031600005921B8A18000493FEF704FD2368587922
:10317000FFF7BEF823689868FDF7CAFB2368187B41
:10318000FDF7CEFA2368587BFDF7CCFC2800FDF74D
:103190002DFD00231C000A930893069310226F4B09
:1031A000744D1B6807932B78134210D0FDF79AFCDF
:1031B00000280CD10A9A079B9B1AFA2252009342CC
:1031C00005D30698FFF7B2F8079B06900A932B7871
:1031D00002252B4200D1BCE0079B089A1B1B93429F
:1031E00000D2B4E000F0E0FE002802D02800FFF793
:1031F0003BF8FDF777FC0A230893002800D1E2E0B2
:1032000028330893FDF72EFC872800D9B6E0002864
:1032100000D1B6E00138862800D9B2E002F0ABFB5D
:10322000B400B800C700D500D9002E015F01B1007D
:10323000B100B100B100B100B100B100B10067014F
:10324000730176017B01800185018801B100B10025
:10325000B100B100B100B100B100B100B1008B010B
:10326000910196019B01A001A501AA01B301B8013A
:10327000BE01C001C201D101DA01E301FA010C0271
:103280001B023F0274029502B102C802DC02F8027E
:103290000F0323034403600378039903B503CD03AD
:1032A000E003EE03FA030D041B0427043E0452045A
:1032B000610478048A049904A504A904AD04B60441
:1032C000B804B100B100B100B100B100B100B1006B
:1032D000B100B100B100B100B100B100B100B10066
:1032E000B100B100B100B100B100B100B100B10056
:1032F000B100B100B100B100B100B100B100B10046
:10330000B100B100B100B100B100B100B100B10035
:10331000B100B100B100B100B100B100B100BA0418
:10332000CC04D104D604E004F004FA043405136894
:103330001B1A632B00D9C7E68B593D00002B00D127
:10334000BEE60D4B5D686B1E9D410135B8E60794E6
:103350004FE7079456E7C046280000106418001095
:10336000EFBEADDEFFFF0000006CDC02A0610000DC
:1033700040420F005E080010FC000150FA2800D106
:1033800093E0FDF783FB1EE0D548FDF75DFBF8E712
:10339000069B002B02D13220FEF7AAFF0598049964
:1033A000FFF752FA0220CF4B1B689847E9E7CE4B54
:1033B0001C78CC4BE4B220001B689847FDF766FBF5
:1033C0002000FEF76BFF079CE8E6C64B33201B6826
:1033D000EBE7FDF747FB01380628F4D802F0BBFA0B
:1033E0000423282E33383F00FDF7FAFB0400FDF7D5
:1033F000F1FB0500FDF7E8FBBC4B0600BC49186873
:1034000002F02DFAC7B2FDF7D9FB049B019003939C
:10341000059B32000293069B2900009320003B008D
:10342000FFF7FAF8CFE7FDF71DFBFDF7DFFBCAE773
:10343000B04B1B689847FDF76BFAC4E7FDF712FB2A
:10344000FDF76EF9BFE7FDF70DFBFDF76BFBBAE784
:10345000FDF708FBA64B5843FEF7BCFFB3E7FDF7AB
:1034600001FB0400830701D500F0F2FE10231C428B
:1034700001D0FEF755FEA04B1C70A4E7FDF7F2FA51
:10348000013805289FD8A023DB0502F064FA030A5F
:103490001F14111C8021082009025A5802405A505A
:1034A00091E7186A431E9841C0B28E4B1B687CE7B7
:1034B0000021924A11708020082100021A580A4304
:1034C0001A5019627FE701218C4A1170802108226D
:1034D0000902585802435A5000221A6273E7FDF756
:1034E000C1FA874B1C68FEF733FEA04749E7FDF79A
:1034F000B9FAFF2803D17B4B06981B6855E7FEF706
:10350000F7FE06905FE7FEF7ABFB5CE7FDF7AAFA74
:10351000FEF7BAFC57E7FDF7A5FAFEF7B9FD52E74B
:10352000FDF7A0FAFEF7A6FD4DE7FEF7D1FD4AE74D
:10353000FEF7C4FD47E7FDF795FA80B2FEF758FBAA
:1035400041E76F4B1C68FEF77FFBCEE76C4B1C68B6
:10355000FEF780FBC9E7FDF785FAFEF771FC32E75D
:10356000684B1B68984705902DE7664B1B6898478A
:10357000049028E7059801220499FFF72BFA594B8C
:1035800026201B6811E704990598FFF76DFA1AE7E2
:103590005C4B1B689847FEF7EDFA14E70598FAE7CD
:1035A0000498F8E7574E3368984733680400984703
:1035B000336805009847290002002000FEF7BAFA98
:1035C00001E7504D2B6898472B6804009847059AEF
:1035D0000100F2E74B4D2B6898472B680400984791
:1035E000049A0100E9E7474C2368984723680500DF
:1035F0009847236809909847236806009847070072
:10360000236898473B003200099900902800FEF794
:10361000E7F9D8E63B4C23689847236805009847AC
:103620002368060098472368070098470300059A17
:10363000009231003A00E9E7324C2368984723684A
:1036400005009847236806009847236807009847B5
:10365000049A0300ECE72B4D2B6898470B90FDF77D
:1036600001FA2B6884B298472B68099098470500A7
:10367000002C00D1A7E6234F013C3B6898473B68EC
:103680000600984707000B9B2900009332000300B7
:103690000998FEF7A5F93D00A4B20996E8E7FDF701
:1036A000E1F9184D84B22B6898472B680990984728
:1036B0000500002C00D186E6124F013C3B6898477C
:1036C0003B68060098470700059B290000933200DD
:1036D00003000998FEF784F93D00A4B20996E8E7D3
:1036E0006461000020000010681800102400001021
:1036F00040420F00100000105E080010601800101B
:103700001400001008000010FDF7ACF9EC4D84B275
:103710002B6898472B68099098470500002C00D12A
:1037200051E6E74F013C3B6898473B6806009847E5
:103730000700049B29000093320003000998FEF75C
:103740004FF93D00A4B20996E8E7DD4D2B68984794
:103750002B68060098472B68070098472B6809904C
:1037600098472B6804009847390000903000099A68
:10377000E4199219013C013AA3B292B2FEF708F99A
:1037800021E6CF4F3B6898473B68050098473B6868
:10379000060098473B680400984764198319013B69
:1037A000013C05999BB2A2B2009128003100E5E7E7
:1037B000C34F3B6898473B68050098473B68060045
:1037C00098473B680400984764198319013B013C02
:1037D00004999BB2A2B2E7E7B94D2B6898472B68D2
:1037E000060098472B68070098472B680990984770
:1037F0002B6804009847390000903000099AE419BA
:103800009219013C013AA3B292B2FDF771FDDAE5DB
:10381000AB4F3B6898473B68050098473B680600FC
:1038200098473B680400984764198319013B013CA1
:1038300005999BB2A2B2009128003100E5E7A04FA4
:103840003B6898473B68050098473B6806009847E7
:103850003B680400984764198319013B013C0499B3
:103860009BB2A2B2E7E7964D2B6898472B680600FB
:1038700098472B68070098472B68099098472B6852
:10388000040098472B680B9098470B990190009182
:1038900030003900099AE4199219013C013AA3B2A7
:1038A00092B2FDF731FF8EE5854E33689847336855
:1038B0000700984733680990984733680400984791
:1038C000050033689847099BE419ED18013D013C58
:1038D0000599ABB2A2B20191009009993800E0E7D6
:1038E000774E3368984733680700984733680990E4
:1038F0009847336804009847050033689847099B48
:10390000E419ED18013D013C0499ABB2A2B2E2E723
:103910006B4D2B6898472B68060098472B6807006B
:1039200098472B68099098472B68040098472B68A4
:103930000B9098470B990190009130003900099A3B
:10394000E4199219013C013AA3B292B2FDF76EFD5F
:1039500039E55B4E3368984733680700984733680A
:1039600009909847336804009847050033689847E2
:10397000099BE419ED18013D013C0599ABB2A2B2D7
:103980000191009009993800E0E74D4E336898475F
:1039900033680700984733680990984733680400F4
:1039A0009847050033689847099BE419ED18013DD5
:1039B000013C0499ABB2A2B2E2E7414C23689847BC
:1039C0002368050098472368060098472368070086
:1039D00098473A00030031002800FDF775FBF2E438
:1039E000374E3368984733680400984733680500BA
:1039F00098470200059B29002000EEE7304E33680F
:103A00009847336804009847336805009847049B3B
:103A10000200F0E72A4C236898472368050098477E
:103A20002368060098472368070098473A00030078
:103A300031002800FDF7A0FCC5E4214E336898470B
:103A40003368040098473368050098470200059BD7
:103A500029002000EEE71A4E3368984733680400C7
:103A60009847336805009847049B0200F0E7144C20
:103A7000236898472368050098472368099098476A
:103A80002368060098470700236898473B003200E8
:103A9000099900902800FDF719FA94E4084C23686E
:103AA00098472368050098472368060098472368CD
:103AB000070098470300059A009231003A00E9E7B1
:103AC00008000010774C2368984723680500984742
:103AD000236806009847236807009847049A030064
:103AE000EAE7704C236898472368050098472368E5
:103AF000099098472368060098470700236898476D
:103B00003B003200099900902800FDF745FD5AE47A
:103B1000644C23689847236805009847236806008B
:103B200098472368070098470300059A00923100E0
:103B30003A00E9E75B4C23689847236805009847FB
:103B4000236806009847236807009847049A0300F3
:103B5000ECE7544D2B6898472B68040098470022E7
:103B600001002000FFF704FA2DE4002204990598D3
:103B7000F8E7002205990498F4E74A4D2B68984726
:103B80002B680400984701220100EAE70122EDE7D3
:103B90000122EFE7444C256800F0F6F8A8472568B5
:103BA00000F08CF8A847246800F082F8A0470220B3
:103BB000FEF774FBFFF7E5FB3B4B1C6800F0E4F8F5
:103BC000F4E7394B1C6800F079F8EFE7364B1C68D6
:103BD00000F0D8F9EAE700F0E7F90520FEF77EFBF0
:103BE00000F066F80028F6D02F4C256800F0CCF8DD
:103BF000A8472468E7E700F0D7F90520FEF76EFB39
:103C000000F0C0F90028F6D1EEE700F0CDF905206C
:103C1000FEF764FB00F0B6F90028F6D000F0B4F827
:103C2000070000F04BF8060000F0ACF9041E1CD1B0
:103C300000F0AAF8050000F041F8AF4202D97B1B62
:103C4000132B18DCAF4203D2ED1B132D00DD022431
:103C5000864212D9331A132B0FDD04200443A4B279
:103C6000124BE0B21B689847A1E700F09DF90520D0
:103C7000FEF734FBD8E70124EAE78642F0D2801B46
:103C80001328EDDD0820E9E7069B002B02D1322046
:103C9000FEF72EFB05980499FEF7F8FC034B8720EE
:103CA0001B68E0E70800001014000010200000105E
:103CB000014B18887047C0466E1800102B4B70B52A
:103CC0001D882B4B1C882B4B1A88AA4219D01D80AB
:103CD000294B18685A686843624380189A68996942
:103CE000801801F0BCFDA02200239200904206D271
:103CF000413AFF3A0300904201D34023FF331F4A69
:103D000013801F4B1A88A24216D01C801A4B1A69C6
:103D1000D868544368435A6900199969801801F0BA
:103D20009EFDF02200235200904203D20300EF28B0
:103D300000D9EF23134A1380FDF754FF87235B005C
:103D4000984202D10D4B188806E0B42805D10D4BDE
:103D50003B301B88C01A80B270BD0A4B5A28F2D182
:103D60004020064BFF301B88F4E7C0469018001037
:103D70009218001070180010741800106A180010C3
:103D8000721800106C1800102B4B70B51D882B4B4F
:103D90001C882B4B1A88AA4219D01D80294B186801
:103DA0005A686843624380189A689969801801F0DC
:103DB00056FDA02200239200904206D2413AFF3ADB
:103DC0000300904201D34023FF331F4A13801F4B4F
:103DD0001A88A24216D01C801A4B1A69D86854431C
:103DE00068435A6900199969801801F038FDF0227A
:103DF00000235200904203D20300EF2800D9EF23A2
:103E0000134A1380FDF7EEFE87235B00984205D12D
:103E1000EF200F4B1B88C01A80B270BDB42804D1AC
:103E20004020094BFF301B88F5E7094B5A2800D08A
:103E3000054B1888F1E7C046901800109218001042
:103E400070180010741800106A1800107218001012
:103E50006C180010F0B50B680F698BB09C46DB1B2B
:103E60000293CB68040003934B6901200193019AEC
:103E7000039B9B1A04938B680093DB1B05934B6891
:103E800006939B1A0793029A049B07995A43059B32
:103E90004B433149D31A8B615BD022682369049D5F
:103EA000D61A7543A0680995079DC01A4543089026
:103EB0000998451B0D600298089D45432800059D03
:103EC0006E43801B4860009EA0685E437843069D59
:103ED000801B6843160065467E436B43039D9B1B16
:103EE0006B43C3180098A568424360464543019858
:103EF000521B42439B188B60626863690498D61A10
:103F00007043E56804900798EC1A6043049C201AFB
:103F1000C8600298EC1A4443059846432800A41B45
:103F20000C61009C78435C43001B069C6043644624
:103F300063433C0054431C1B039B5C43009B0019E0
:103F40005A4363465D43019B521B5A4380184861A4
:103F500000200BB0F0BDC046741800100048704738
:103F60007418001010B5064CE360029B20602361BA
:103F7000039B61606361049BA260A36110BDC046A6
:103F800074180010014B18887047C0469418001030
:103F9000014B18887047C04692180010014B1888D2
:103FA0007047C04690180010F7B5802302249B4844
:103FB0009B4AC4671B02D1588126A143D15099491D
:103FC000802755583F01A543555001258467D45893
:103FD000AC43D4505458AC435450A0244667E40535
:103FE000E5583D43E5508025AD0167518E4CE667AD
:103FF000A4460424D5582543D550002313618B4B88
:104000001D682C431C6080241D6864042C431C60C4
:104010009C69002CFCDA1C68854D2C401C609C6956
:104020001E682404A50D022434431C6080241E68ED
:10403000640434431C605C69002CFCDA1C687C4E10
:1040400034401C605C697B4E2404A40DA419641BDD
:10405000A4B20094009D784CC82D00D8D9E02580EA
:10406000022780240126876724021559B54315517C
:104070005558B54355506546EF6715590336B54356
:10408000155155588027B543555081254567A025C2
:10409000ED052E593F013E432E518026B601AF510A
:1040A00081250227C56715593D43155100249460A9
:1040B0001D6808342C431C6080241D6864042C4354
:1040C0001C60DC69002CFCDA1C68594D2C401C601B
:1040D000DC695A4DA4092540082401951D682C432C
:1040E0001C6080241D6864042C431C60DC69002C67
:1040F000FCDA1C684E4D2C40019D1C60DC69002DD3
:1041000002D1002300935CE04C4DA4092C40019D9A
:10411000A542F6D10225A026802445672402F60593
:104120003759474D2F40375177582F400225775048
:10413000C56716590127AE4316515658AE4356501F
:104140008126866715593D43155165465760EE67D0
:10415000042516592E431651002414611C682C4363
:104160001C6080241D6864042C431C609C69002C26
:10417000FCDA1C682E4D2C401C609C692F4DA40954
:104180002C4004251E6835431D6080251E686D0483
:1041900035431D609D69002DFCDA1D68244E3540B5
:1041A0001D609B69002CACD0244D9B092B409C4288
:1041B000A7D1244B019D1D80234B1C80234B009CC9
:1041C0001C809124A025802344671B02ED05EE5836
:1041D0001B4F3E40EE506E583E406E500226C46764
:1041E000D558B543D5505558B5435550012584672A
:1041F000D058A843D0505058A84350506046C46788
:10420000D0588D3CA043D05053580098A3435350EE
:10421000FEBD002323800D4C238073E70040044043
:1042200000000150FC3F00000440044000C0014079
:1042300000FFFFF8FF03000094180010FE030000C9
:10424000FFF7FFFF90180010921800106E18001072
:1042500000231D4A70B513801C4A912413801C4A08
:10426000802113801B4A1C4813801C4A09021380BA
:104270001B4A1C4E13801C4A043013801B4A1380B7
:10428000A0230467DB055A5832405A50184A9D58FB
:10429000354002269D50174B84675D58B5435D50ED
:1042A0009D58B5439D5044675D58013EB5435D50F0
:1042B0009D58B5439D50C46758588D3CA0435850F5
:1042C0009958A143995070BD94180010921800108D
:1042D0009018001072180010004004407018001070
:1042E0006E180010FFF7FFFF6C1800106A1800101E
:1042F000FC3F00000000015010B500F007F8FEF789
:10430000D1FE10BD10B501F0FBFA10BD37B5184C49
:1043100018492200002001F02DF8802380225B0044
:1043200000212000D20000F007FF134C134D2200A3
:104330002900012001F01EF8802380225B0000216B
:104340002000D20000F0F8FE0D4B1B680193022BF9
:104350000DDD0C4C29002200022001F00BF8802317
:104360008022002120005B00D20000F0E5FE37BD76
:10437000A4180010C8610000E0180010CA61000015
:104380001C6200001C19001000207047F0B5CFB06F
:104390000A92559A0400089200220B93549B0692AD
:1043A00018785A1C0792002802D106984FB0F0BD29
:1043B000252839D104228021002502279446079B15
:1043C000243889001A00167801332B2E4FD046D896
:1043D000202E4ED0232E4FD02A2E4FD1089980C99F
:1043E000002F02DA01207F42454002321E780792F8
:1043F0000891FB43DB173B40149300230C932E2EB4
:1044000057D1079B1E782A2E45D00A21013332004E
:10441000303AD0B20793092846D80C981E78484302
:1044200012180C920133F2E7069B0B9A5D1CDB1706
:104430009A4204DC0CD10A9B069A934208D9A368DD
:10444000013BA360002B06DB23685A1C2260187016
:10445000079B0695A4E7210000F0E4FEF8E72D2E67
:1044600003D0302EB8D10D43ACE70543AAE73D4356
:10447000A8E762461543A5E70822FBE700270A20C4
:104480003200303AD1B207930929B2D847431E7897
:10449000D7190133F4E7089B04CB0C92079A0893D1
:1044A00013005678023307930C9B002B18DB102364
:1044B0001D436C2E09D1079B1E786C2E13D15E789C
:1044C00060231D43079B023307934C2E01D0712EAE
:1044D0000FD1079B1E7860231D43079B013314E017
:1044E00000230C93E5E7079B0133079320231D432B
:1044F000EBE7682E70D1079B1E78682E07D18023CA
:104500005B001D43079B5E780233079304E0079B23
:104510000133079380231D43782E09DC572E67DC77
:10452000412E00D1FDE200DD89E0002E00D1EDE05A
:10453000149B0122013B0C932B0013403993069BE3
:1045400015421DD130233893AB0501D42023389375
:10455000069B0C9D2293DB172393013D00D48EE034
:1045600000239F4200DD0C9B069A9B18149A911E13
:104570000022974202DD14980132121A52180C924E
:104580000B995A1C0692DA17914203DC0CD10A9A55
:104590009A4209D9A368013BA360002B00DA8FE09F
:1045A00023685A1C22601E70399B089F002B10D074
:1045B000069B0C9D2093DB172193013D00D484E0E2
:1045C0000C9B0C9ADB43DB171340069AD318069317
:1045D000089F069D08973BE76A2E04D140231D43A0
:1045E000079B1E787AE77A2EFAD0742E94D1F7E7DB
:1045F0003000583820289BD801F0B5F966019AFFA1
:104600009AFF9AFF9AFF9AFF9AFF9AFF9AFF9302E6
:104610009AFF3D0059022700270027009AFF590200
:104620009AFF9AFF9AFF9AFF8C00C801BE019AFF79
:104630009AFFAC009AFFF0019AFF9AFF95010223BE
:1046400032009A43452A00D072E78023DB002B43D7
:10465000EA0601D406220C921D0000220023072145
:10466000049205930023089F389307378F4303CFA5
:104670004490459188E1089B40CB089358E70B9BF9
:10468000239A934204DC0DD10A9B229A934209D9C2
:10469000A368013BA360002B0DDB23685A1C22603A
:1046A000389A1A700120229A239B002112184B413C
:1046B0002292239351E72100389800F0B3FDF1E7EF
:1046C0002100300000F0AEFD6EE70B9B219A934273
:1046D00004DC0DD10A9B209A934209D9A368013BBF
:1046E000A360002B0DDB23685A1C226020221A7065
:1046F0000120209A219B002112184B4120922193E6
:104700005BE72100202000F08DFDF1E7079B013BD6
:1047100007935DE7089B1F1D6B0606D5089B069A4D
:104720001B681A60D2175A6053E7AB0604D5089B82
:10473000069A1B681A604CE7EB0504D5089B069A9D
:104740001B681A7045E72B06F1D5089B069A1B6873
:104750001A803EE7089F08CF3893002B01D1C64B43
:104760003893389800F00EFD0600EB0603D50C9B3D
:10477000984200DD1E00149B2A009B1B0893012316
:104780001A4014921D4218D12F330C93AB0501D45B
:1047900020230C93069B089D1E93DB171F93013D5E
:1047A0002CD5089B089ADB43DB171340069AD218D6
:1047B0000692089A013AD31A08930025069B24937F
:1047C000DB172593B5423ADBF043069BC017064042
:1047D0009B190693149B002B00D1FAE6069B089DBB
:1047E0002893DB172993013D4DD5089B089ADB439D
:1047F000DB171340069AD3180693EAE60B9B1F9A21
:10480000934204DC0DD10A9B1E9A934209D9A368F6
:10481000013BA360002B0DDB23685A1C22600C9A1D
:104820001A7001201E9A1F9B002112184B411E92E4
:104830001F93B4E721000C9800F0F4FCF1E70B9B08
:10484000259A934204DC0ED10A9B249A93420AD9FA
:10485000A368013BA360002B0FDB23685A1C226076
:10486000389A525D1A700120249A259B0021121853
:104870004B41013524922593A4E7389B2100585DD4
:1048800000F0D0FCEFE70B9B299A934204DC0DD19A
:104890000A9B289A934209D9A368013BA360002B85
:1048A0000DDB23685A1C226020221A700120289AEE
:1048B000299B002112184B412892299393E721004C
:1048C000202000F0AFFCF1E740232A00089F1A40A7
:1048D0001D421DD00722073797430CCF0492059342
:1048E00080232A001A401D4216D06B461B8A04936F
:1048F00000230593614B9C462B0701D4604B9C46DB
:10490000604B3893EB0600D48AE05F490D4087E0A6
:1049100008CF05920493E3E7EB05EBD56B461B7CD0
:1049200005920493E6E740232A00089F1A401D429F
:1049300017D00722073797430CCF049205938023A3
:104940002A001A401D4210D06B461B8A0493002394
:1049500005934E4B9C462B0701D4494B9C464C4B30
:10496000CFE708CF05920493E9E7EB05F1D56B4655
:104970001B7C05920493ECE7089F08CF0493002367
:104980000593434B3893414B9C4649E040232A0012
:10499000089F1A401D4216D00722073797430CCFB5
:1049A0000492059380232A001A401D420FD06B46C3
:1049B0001B8A049300230593364B9C462B0700D596
:1049C000ADE02F4B8FE008CF05920493EAE7EB05AB
:1049D000F2D56B461B7C05920493EDE740232A0039
:1049E000089F1A401D4257D00722073797430CCF24
:1049F0000492059380232A001A401D4250D06B4632
:104A00001B8A04930023059310212B001C480B40A4
:104A1000844638930D4203D01B4B1D40002338932E
:104A2000069B0A980B993E93DB173F933E9A3F9B58
:104A3000801A994101220C9B524240936346089090
:104A400009914292439255200022419346A9505425
:104A50000132202AFBD18222D200154201D101224B
:104A600040926E2E65DC472E00DD92E0402E00DD88
:104A700083E000230C9392E0CC610000D36100003E
:104A80001A620000E1610000FFFDFFFFD661000037
:104A9000F2610000D961000008CF05920493A9E7F4
:104AA000EB05B1D56B461B7C05920493ACE7089FE0
:104AB0006B061AD50722073797430CCF0E920F9338
:104AC0002B0617D56B4638229B5E0E93DB170F9390
:104AD0000F9B002B16DA0E980F99002342428B4150
:104AE00004920593C54B9C4619E008CF0E93DB1743
:104AF0000F93E5E7EB05EBD56B4638229B181B7847
:104B00005BB2E2E70E9A0F9B04920593BC4B9C4666
:104B1000AB0704D4BB4B9C466B0700D451E7002382
:104B2000EFE610231D4200D08FE51D43033B0C939D
:104B30008BE530006F3809289BD800F014FFCC00BB
:104B4000B2009AFF9AFF9AFF9AFF47019AFF9AFFD5
:104B5000B20000F008FFA6008EFF8EFF8EFF8EFFD2
:104B60008EFF8EFF8EFF8EFF3D018EFF8EFF3B017D
:104B70003D013D013D018EFF3B0132000123413AE1
:104B80009340512218001040134200D020E10C90B5
:104B900005E03000002358380C931128D9D9802320
:104BA0002A00DB001A403A921D4200D11FE1002387
:104BB0004093429B002B01DD013B4093439B002B24
:104BC00003DD409A013BD31840930C9B409A4198D7
:104BD0009E1800F0D7FA149B9E1B331A38930123BA
:104BE0002B403B93884B1D4200D13CE100231293A4
:104BF000DB171393419B129E5A1C41921B7814930E
:104C0000002B00D032E13B9B002B15D13033399380
:104C1000AB0501D420233993F317389D1A961B93C3
:104C2000013D00D443E1389B38995A1EDB43DB1722
:104C30000B40D21A3892F6183A9B002B00D08FE125
:104C4000F31710961193409B109E013B4093002B4D
:104C500000DBD7E1F3171D930C9B1C965D1E002B08
:104C600000DDF0E10C9BD843C017184086197BE1AA
:104C70000F23049E1E40389B9E5D059B56541B07C8
:104C80009C46049B01321B091800059B1E096346C4
:104C9000034304930596049E059B0C921E43E7D1A3
:104CA0007DE7002246A9F6E7072104980840059908
:104CB000303049078C4604999854CE080599013341
:104CC000C8086146314304910590049805990C93F6
:104CD0000843E9D163E7002346AAF6E7059B049A57
:104CE000DB0752081A43059B32925B083393049A00
:104CF000059B92089B071A43059B34929B083593AA
:104D000034983599329A339B12184B411907100980
:104D1000084319092C902D912C982D9912184B416C
:104D20001906100A0843190A2E902F912E982F99D0
:104D300012184B411904100C0843190C3090319192
:104D40003098319912184B4100213C933D913C9889
:104D50003D9912184B415907D00808432A90002169
:104D60000620DB082B93049A059B12184B412A98C6
:104D70002B990C920D930A22002300F0AAFD0C9AA5
:104D80000D9B121A8B411000190002091B071A43D0
:104D90000B0936923793369837992A9A2B9B8018AD
:104DA00059410A224243049B0490059130339B1AD7
:104DB0009C4628233CAAD218634693550136049B8F
:104DC000059A0C96134300D088E7E8E60026F6E73C
:104DD00043AB039342AB029340AB019341AB0093CF
:104DE00030002B00569E46AA44A9B047CFE6409B10
:104DF0000C9A9B1A00D4E7E63A9BE5E6DB610000DB
:104E0000DF610000DD61000001020000099B159ACE
:104E1000934204DC0DD1089B149A934209D9A368EC
:104E2000013BA360002B19DB23685A1C226020225F
:104E30001A700120149A159B002112184B411492EC
:104E40001593389B5A1E149BD31ADFD5389B38997B
:104E5000DB43DB170B40D21A3892C8E62100202032
:104E600000F0E0F9E5E700220023E8E7099B139A48
:104E7000934204DC0DD1089B129A934209D9A3688E
:104E8000013BA360002B0DDB23685A1C2260149A9F
:104E90001A700120129A139B002112184B41129292
:104EA0001393A7E62100149800F0BCF9F1E7099BE1
:104EB0001B9A934204DC0DD1089B1A9A934209D99C
:104EC000A368013BA360002B0DDB23685A1C226002
:104ED000399A1A7001201A9A1B9B002112184B4113
:104EE0001A921B939CE62100399800F09BF9F1E798
:104EF000149A46ABD05CF3173C2825D03E286BD1E2
:104F000016961793439B169D013B4393002B23DB7F
:104F1000099B179A934204DC0DD1089B169A934281
:104F200009D9A368013BA360002B50DB23685A1CFE
:104F3000226030221A700120169A179B0021121845
:104F40004B4116921793DDE718961993429B189DD3
:104F5000013B4293002B19DA2E00149B013314936A
:104F60000C9B149A9342C3DC3B9B002B0BD0F31792
:104F7000389D26962793013D00D486E0389BD84380
:104F8000C01718403618069B9B1935E4099B199ADF
:104F9000934204DC0DD1089B189A934209D9A36867
:104FA000013BA360002B0DDB23685A1C22603022DA
:104FB0001A700120189A199B002112184B4118925F
:104FC0001993C3E72100302000F02CF9F1E721000C
:104FD000302000F027F9AEE7099A751C934203DBF5
:104FE000BAD1089BB342B7D9A368013BA360002B99
:104FF00004DB23685A1C22601870ADE7210000F022
:1050000011F9A9E7099B119A934204DC0DD1089B81
:10501000109A934209D9A368013BA360002B0DDBD2
:1050200023685A1C226030221A700120109A119BAA
:10503000002112184B411092119304E621003020F8
:1050400000F0F0F8F1E7099B1D9A934204DC0ED1C1
:10505000089B1C9A93420AD9A36846AA013B505D5B
:10506000A360002B0DDB23685A1C226018700120FE
:105070001C9A1D9B002112184B411C921D932B0062
:10508000ECE5210000F0CEF8F1E7099B279A934266
:1050900004DC0DD1089B269A934209D9A368013BF1
:1050A000A360002B0DDB23685A1C226020221A709B
:1050B0000120269A279B002112184B412692279304
:1050C00059E72100202000F0ADF8F1E70EB430B52B
:1050D00096B019AB20CB04003C22002107A8069310
:1050E00000F07CF80A2301220A93114B00950993E2
:1050F000104B52420293069B07A801930C4B079456
:10510000FFF744F9099B04000593013B0993002B29
:1051100008DB0023079A1370200016B030BC08BCCF
:1051200003B0184707A9002000F07CF8F4E7C04658
:10513000FFFFFF7F89430000F0B5C5680400012030
:10514000AE070CD080208000824213D08020C000A7
:10515000824205D08020400082420BD0FF38F0BD53
:105160002100012324312A43002021612160E361D1
:10517000E260F4E7024F5E1E0120BE42F3D9EEE783
:10518000FEFFFF00032310B5411C0200184217D197
:10519000104C1368104818189843204217D0DCB2FE
:1051A000501C002C11D0FF242402901C23420CD050
:1051B000FF2000040340581E8341D318D81C04E08C
:1051C0000130421E1278002ADFD1401A10BD04328D
:1051D000DFE7C04680808080FFFEFEFE10B500F055
:1051E000A5FB10BD2023C26810B59A43C260836935
:1051F000826A040093420CD000F0F6F8E368074A94
:105200001A4010231343E360A36AA3612369E36296
:105210002360E268024B1340E36010BDEFCFFFFF55
:10522000BFBFFFFFF8B5CA684F4B050013400C0025
:10523000CB60930602D50800FFF7D4FFA268E668AA
:10524000531C0FDAB3050DD402235B429B1AA360F3
:1052500090235B021E432368E6605A1C22601D7087
:10526000E8B20AE0414A3240022A07D00023A36094
:1052700080331E43E66001204042F8BD80213C4B54
:10528000090233408B420AD10021200000F0ECF9E2
:10529000E3689B0602D52000FFF7A4FFE668902391
:1052A000F0225B0233431201E360164210D16069C1
:1052B00000F070FB002821D073051FD52300243394
:1052C000236123600123E36192235B023343E360A4
:1052D00090210901226826690B4225D0E36A9A428F
:1052E00000D91300991BB34217D1731CE3622360EA
:1052F000E3695A1EA26023633570B1E780277F00FF
:10530000380000F051F99423E2685B0233431A43FA
:1053100020612060E761E260DAE72200300000F0FF
:1053200093F80028E1D0A6E7511CE8B22160107084
:10533000E26A21688A4200D91100E269891B22636E
:105340005B0504D40A2802D08A4200DD88E70023E6
:1053500022003000E6622660A36000F075F80028A5
:1053600000D088E77CE7C046FFFFF7FF8A10000007
:1053700010A00000F7B50D0001901000140000F01F
:1053800023F92B78722B1CD0772B1DD0612B26D1C3
:10539000144A593B0220691C032784460426012530
:1053A00008782B2813D0622816D0E260019A626137
:1053B0001B0704D502220021200000F055F920002F
:1053C000FEBD00230122E5E704230222E2E7604656
:1053D0003A4303430131E3E732432B43FAE7002426
:1053E000EDE7C04602800000C368154A70B51A4058
:1053F000C2608222040005690168C66A1A40022A56
:1054000002D00120404270BD80221800520210409C
:105410001342F8D0B14200D231008D4208D10020B1
:10542000E268084BE56213402560A060E360EAE7AC
:1054300022002800491B00F007F80028EFD0E0E721
:10544000FFFFF7FFFFFFFEFFF7B5D5680F00140061
:1054500056690190EB0205D5102330001D4300F082
:1054600096FAA061104B1D420FD03000A16900F0E8
:1054700097FA002806DA80230120E26840421343AD
:10548000E3600FE0094B1D40E56001993A003000F0
:1054900000F08CFA4100A3694908791A5918A161F2
:1054A0000028E8D1FEBDC04610000200EFFFFDFF5E
:1054B000F7B50027304BC21C1C689508B84217D0BE
:1054C0002B000A3380210193EB1C9C464905002CDC
:1054D00010D10C3000F06EF9431C09D080239B05DD
:1054E000036045608460002F44D1234B18601AE0AC
:1054F0000020FEBD23688B4239D1A7686368002F66
:1055000009D03E688E4206D17E680333F31863608B
:10551000BB68A360F1E7AB4207DB634505DC802392
:105520009B05236020000C30E3E7019EB34211D9B4
:10553000802189052160032120008A4380210C30CD
:105540005B1B82184905033B6560A26011605360D4
:105550009760CEE7002F0AD19B00C01A00F02AF90D
:10556000431CC5D080239B0523606560DAE72700D4
:10557000A468ACE7B860D6E79C18001010B5002806
:1055800011D080210C38490501608268002A0AD0B8
:1055900013688B4207D14368546803331B19436077
:1055A00093688360F1E710BD10B5FFF781FF041E1B
:1055B00005D11722034900F0F9F900F0E4F92000C1
:1055C00010BDC04603620000F0B5C568040089B094
:1055D000AB0722D02B0718D44769066900F022F8E0
:1055E000380000F0D1F92B0502D53000FFF7C6FFD7
:1055F0000B4BAD0DAD059D4207D120226846216AB7
:1056000000F0D1F9684600F0CBF83C2200212000E0
:10561000FFF7E4FD002009B0F0BD01204042FAE7A9
:10562000000080AD73B5002813D000F0E5F8050048
:10563000280076BD30006043094BC01800F0DCF84C
:10564000002801D001256D420134019BA342F1DC09
:10565000EEE7044B04001B6805003C260193F4E7C9
:10566000A41800101C620000F7B5394BC66804008E
:105670000D0000921E4202D102273800FEBD436990
:105680001800019300F086F9071EF5D1009B012B4D
:1056900005D0022B2CD0002B05D00237EDE72000DF
:1056A00000F05AF82D18002DE6DBB30404D523686A
:1056B000E26A9A4200D2E362A169A9420EDCE26A80
:1056C0002368934200D21300226958180092801A6E
:1056D000A84203DB206B0A18AA4228DC20231E43C1
:1056E0000023A562A36063601A4B1E40E660C4E716
:1056F000019800F04CF9E268002804DA8023134393
:105700000127E360B9E7E16A2368994200D90B00F9
:10571000A1695B1821695B1A920603D5A26A9342BC
:1057200000DA1300834200DA0300ED18BBE76D1ABC
:10573000B20701D5281AA060F20703D5009A9B1A78
:10574000EB1A6360009B5D19202325609E43CBE725
:1057500003001000BFCFF7FFC268930705D12122D5
:1057600001200E4B40421A60704720231340120361
:105770000AD5002B02D0806A0138F5E703688269F8
:1057800000699B18181AF7E7002B01D0806AEBE735
:105790000368826900699B18181AE5E7A0180010D1
:1057A00010B50400FFF7EEFC0100200000F0F5F852
:1057B00010BDFFFF70B50D4D04002B68002B01D10B
:1057C0000B4B2B6003232E6803349C4334192000B9
:1057D00000F036F8002802D12C60300070BD0C2299
:1057E0000126044B76421A60F7E7C046981800106D
:1057F000841A0010A0180010C36870B503221E00A0
:1058000004001640134211D09B0611D5856AFFF79C
:10581000E9FCE268094B20001340E360FFF7E4FD78
:105820000022060029002000FFF71EFF300070BD97
:10583000036882699D180369ED1AEAE7FFCFFFFF4D
:1058400003000448002803D0002283425241100084
:105850007047C0460000000003000B4321D400291C
:1058600031D00122D207030901E00901120999424E
:10587000FBD9430801E0490052089942FBD900E0F6
:105880004908401A07D35241FAD3014610467047DF
:1058900049084018F7D29218FAD34018014610462A
:1058A0007047CB0F00D04942021000D54042534010
:1058B00008B5FFF7D4FF0CBC521000D34042002AB9
:1058C00000D549421847F446002000F001F860472F
:1058D000704710B543435143C918040C130C5C4383
:1058E000091992B2040C544380B24343504322043A
:1058F000240C801861411A041B0C8018594110BDFA
:105900008446830708D18B0706D1131F04D304C92B
:1059100004C0043BFBD21A1D524205D0891A801ADA
:105920008B5C83540132FBD1604670478446043A55
:1059300009D3830707D109060B0A19430B0C194336
:10594000043A02C0FCD2043203D001700130013AA3
:10595000FBD1604670478C4671460139095C4900AD
:105960008E44614670478C46411E7144095E490071
:105970008E44614670478C46411E7144095A490065
:105980008E4461467047FEE7012040427047012087
:10599000404270470120404270470120404270471A
:1059A000012040427047012040427047100070477C
:1059B0000000000000000000307878303000300037
:1059C0006C6C6C00000000006C6CFE6CFE6C6C007B
:1059D000307CC0780CF8300000C6CC183066C600A9
:1059E000386C3876DCCC76006060C00000000000C7
:1059F000183060606030180060301818183060008F
:105A000000663CFF3C660000003030FC3030000097
:105A10000000000000703060000000FC000000008A
:105A20000000000000303000060C183060C080001C
:105A300078CCDCFCECCC780030F030303030FC003E
:105A400078CC0C3860CCFC0078CC0C380CCC7800CE
:105A50001C3C6CCCFE0C0C00FCC0F80C0CCC780090
:105A60003860C0F8CCCC7800FCCC0C1830606000FA
:105A700078CCCC78CCCC780078CCCC7C0C1870006E
:105A800000003030003030000000303000703060F6
:105A9000183060C0603018000000FC00FC000000FE
:105AA0006030180C1830600078CC0C1830003000D2
:105AB0007CC6DEDEDEC078003078CCCCFCCCCC00FE
:105AC000FC66667C6666FC003C66C0C0C0663C0046
:105AD000FC6C6666666CFC00FE6268786862FE00BC
